{
	".deps/npm/@thirdweb-dev/dynamic-contracts/extension/upgradeable/Permissions.sol": {
		"PermissionsStorage": {
			"abi": [
				{
					"inputs": [],
					"name": "PERMISSIONS_STORAGE_POSITION",
					"outputs": [
						{
							"internalType": "bytes32",
							"name": "",
							"type": "bytes32"
						}
					],
					"stateMutability": "view",
					"type": "function"
				}
			],
			"devdoc": {
				"details": "This contracts provides extending-contracts with role-based access control mechanisms",
				"kind": "dev",
				"methods": {},
				"stateVariables": {
					"PERMISSIONS_STORAGE_POSITION": {
						"custom:storage-location": "erc7201:permissions.storage",
						"details": "keccak256(abi.encode(uint256(keccak256(\"permissions.storage\")) - 1)) & ~bytes32(uint256(0xff))"
					}
				},
				"title": "Permissions",
				"version": 1
			},
			"evm": {
				"assembly": "    /* \".deps/npm/@thirdweb-dev/dynamic-contracts/extension/upgradeable/Permissions.sol\":316:1191  library PermissionsStorage {... */\n  dataSize(sub_0)\n  dataOffset(sub_0)\n  0x0b\n  dup3\n  dup3\n  dup3\n  codecopy\n  dup1\n  mload\n  0x00\n  byte\n  0x73\n  eq\n  tag_1\n  jumpi\n  mstore(0x00, 0x4e487b7100000000000000000000000000000000000000000000000000000000)\n  mstore(0x04, 0x00)\n  revert(0x00, 0x24)\ntag_1:\n  mstore(0x00, address)\n  0x73\n  dup2\n  mstore8\n  dup3\n  dup2\n  return\nstop\n\nsub_0: assembly {\n        /* \".deps/npm/@thirdweb-dev/dynamic-contracts/extension/upgradeable/Permissions.sol\":316:1191  library PermissionsStorage {... */\n      eq(address, deployTimeAddress())\n      mstore(0x40, 0x80)\n      jumpi(tag_1, lt(calldatasize, 0x04))\n      shr(0xe0, calldataload(0x00))\n      dup1\n      0x0998ed3b\n      eq\n      tag_2\n      jumpi\n    tag_1:\n      0x00\n      dup1\n      revert\n        /* \".deps/npm/@thirdweb-dev/dynamic-contracts/extension/upgradeable/Permissions.sol\":521:651  bytes32 public constant PERMISSIONS_STORAGE_POSITION =... */\n    tag_2:\n      tag_3\n      tag_4\n      jump\t// in\n    tag_3:\n      mload(0x40)\n      tag_5\n      swap2\n      swap1\n      tag_6\n      jump\t// in\n    tag_5:\n      mload(0x40)\n      dup1\n      swap2\n      sub\n      swap1\n      return\n    tag_4:\n        /* \".deps/npm/@thirdweb-dev/dynamic-contracts/extension/upgradeable/Permissions.sol\":585:651  0x0a7b0f5c59907924802379ebe98cdc23e2ee7820f63d30126e10b3752010e500 */\n      0x0a7b0f5c59907924802379ebe98cdc23e2ee7820f63d30126e10b3752010e500\n        /* \".deps/npm/@thirdweb-dev/dynamic-contracts/extension/upgradeable/Permissions.sol\":521:651  bytes32 public constant PERMISSIONS_STORAGE_POSITION =... */\n      0x00\n      shl\n      dup2\n      jump\t// out\n        /* \"#utility.yul\":7:84   */\n    tag_7:\n        /* \"#utility.yul\":44:51   */\n      0x00\n        /* \"#utility.yul\":73:78   */\n      dup2\n        /* \"#utility.yul\":62:78   */\n      swap1\n      pop\n        /* \"#utility.yul\":7:84   */\n      swap2\n      swap1\n      pop\n      jump\t// out\n        /* \"#utility.yul\":90:216   */\n    tag_8:\n        /* \"#utility.yul\":185:209   */\n      tag_12\n        /* \"#utility.yul\":203:208   */\n      dup2\n        /* \"#utility.yul\":185:209   */\n      tag_7\n      jump\t// in\n    tag_12:\n        /* \"#utility.yul\":180:183   */\n      dup3\n        /* \"#utility.yul\":173:210   */\n      mstore\n        /* \"#utility.yul\":90:216   */\n      pop\n      pop\n      jump\t// out\n        /* \"#utility.yul\":222:460   */\n    tag_6:\n        /* \"#utility.yul\":323:327   */\n      0x00\n        /* \"#utility.yul\":361:363   */\n      0x20\n        /* \"#utility.yul\":350:359   */\n      dup3\n        /* \"#utility.yul\":346:364   */\n      add\n        /* \"#utility.yul\":338:364   */\n      swap1\n      pop\n        /* \"#utility.yul\":374:453   */\n      tag_14\n        /* \"#utility.yul\":450:451   */\n      0x00\n        /* \"#utility.yul\":439:448   */\n      dup4\n        /* \"#utility.yul\":435:452   */\n      add\n        /* \"#utility.yul\":426:432   */\n      dup5\n        /* \"#utility.yul\":374:453   */\n      tag_8\n      jump\t// in\n    tag_14:\n        /* \"#utility.yul\":222:460   */\n      swap3\n      swap2\n      pop\n      pop\n      jump\t// out\n\n    auxdata: 0xa2646970667358221220c6a333df2593ffe48744d7fa4c0e95720345328f28c77271eea13ded369e556664736f6c63430008180033\n}\n",
				"bytecode": {
					"linkReferences": {},
					"object": "60d961004d600b8282823980515f1a607314610041577f4e487b71000000000000000000000000000000000000000000000000000000005f525f60045260245ffd5b305f52607381538281f3fe73000000000000000000000000000000000000000030146080604052600436106032575f3560e01c80630998ed3b146036575b5f80fd5b603c6050565b60405160479190608c565b60405180910390f35b7f0a7b0f5c59907924802379ebe98cdc23e2ee7820f63d30126e10b3752010e5005f1b81565b5f819050919050565b6086816076565b82525050565b5f602082019050609d5f830184607f565b9291505056fea2646970667358221220c6a333df2593ffe48744d7fa4c0e95720345328f28c77271eea13ded369e556664736f6c63430008180033",
					"opcodes": "PUSH1 0xD9 PUSH2 0x4D PUSH1 0xB DUP3 DUP3 DUP3 CODECOPY DUP1 MLOAD PUSH0 BYTE PUSH1 0x73 EQ PUSH2 0x41 JUMPI PUSH32 0x4E487B7100000000000000000000000000000000000000000000000000000000 PUSH0 MSTORE PUSH0 PUSH1 0x4 MSTORE PUSH1 0x24 PUSH0 REVERT JUMPDEST ADDRESS PUSH0 MSTORE PUSH1 0x73 DUP2 MSTORE8 DUP3 DUP2 RETURN INVALID PUSH20 0x0 ADDRESS EQ PUSH1 0x80 PUSH1 0x40 MSTORE PUSH1 0x4 CALLDATASIZE LT PUSH1 0x32 JUMPI PUSH0 CALLDATALOAD PUSH1 0xE0 SHR DUP1 PUSH4 0x998ED3B EQ PUSH1 0x36 JUMPI JUMPDEST PUSH0 DUP1 REVERT JUMPDEST PUSH1 0x3C PUSH1 0x50 JUMP JUMPDEST PUSH1 0x40 MLOAD PUSH1 0x47 SWAP2 SWAP1 PUSH1 0x8C JUMP JUMPDEST PUSH1 0x40 MLOAD DUP1 SWAP2 SUB SWAP1 RETURN JUMPDEST PUSH32 0xA7B0F5C59907924802379EBE98CDC23E2EE7820F63D30126E10B3752010E500 PUSH0 SHL DUP2 JUMP JUMPDEST PUSH0 DUP2 SWAP1 POP SWAP2 SWAP1 POP JUMP JUMPDEST PUSH1 0x86 DUP2 PUSH1 0x76 JUMP JUMPDEST DUP3 MSTORE POP POP JUMP JUMPDEST PUSH0 PUSH1 0x20 DUP3 ADD SWAP1 POP PUSH1 0x9D PUSH0 DUP4 ADD DUP5 PUSH1 0x7F JUMP JUMPDEST SWAP3 SWAP2 POP POP JUMP INVALID LOG2 PUSH5 0x6970667358 0x22 SLT KECCAK256 0xC6 LOG3 CALLER 0xDF 0x25 SWAP4 SELFDESTRUCT 0xE4 DUP8 PREVRANDAO 0xD7 STATICCALL 0x4C 0xE SWAP6 PUSH19 0x345328F28C77271EEA13DED369E556664736F PUSH13 0x63430008180033000000000000 "
				},
				"gasEstimates": {
					"creation": {
						"codeDepositCost": "43400",
						"executionCost": "119",
						"totalCost": "43519"
					},
					"external": {
						"PERMISSIONS_STORAGE_POSITION()": "292"
					},
					"internal": {
						"data()": "infinite"
					}
				},
				"methodIdentifiers": {
					"PERMISSIONS_STORAGE_POSITION()": "0998ed3b"
				}
			},
			"storageLayout": {
				"storage": [],
				"types": null
			},
			"userdoc": {
				"kind": "user",
				"methods": {},
				"version": 1
			}
		}
	}
}