{
	".deps/npm/@thirdweb-dev/dynamic-contracts/extension/upgradeable/PermissionsEnumberable.sol": {
		"PermissionsEnumerableStorage": {
			"abi": [
				{
					"inputs": [],
					"name": "PERMISSIONS_ENUMERABLE_STORAGE_POSITION",
					"outputs": [
						{
							"internalType": "bytes32",
							"name": "",
							"type": "bytes32"
						}
					],
					"stateMutability": "view",
					"type": "function"
				}
			],
			"devdoc": {
				"details": "This contracts provides extending-contracts with role-based access control mechanisms.           Also provides interfaces to view all members with a given role, and total count of members.",
				"kind": "dev",
				"methods": {},
				"stateVariables": {
					"PERMISSIONS_ENUMERABLE_STORAGE_POSITION": {
						"custom:storage-location": "erc7201:extension.manager.storage"
					}
				},
				"title": "PermissionsEnumerable",
				"version": 1
			},
			"evm": {
				"assembly": "    /* \".deps/npm/@thirdweb-dev/dynamic-contracts/extension/upgradeable/PermissionsEnumberable.sol\":472:1641  library PermissionsEnumerableStorage {... */\n  dataSize(sub_0)\n  dataOffset(sub_0)\n  0x0b\n  dup3\n  dup3\n  dup3\n  codecopy\n  dup1\n  mload\n  0x00\n  byte\n  0x73\n  eq\n  tag_1\n  jumpi\n  mstore(0x00, 0x4e487b7100000000000000000000000000000000000000000000000000000000)\n  mstore(0x04, 0x00)\n  revert(0x00, 0x24)\ntag_1:\n  mstore(0x00, address)\n  0x73\n  dup2\n  mstore8\n  dup3\n  dup2\n  return\nstop\n\nsub_0: assembly {\n        /* \".deps/npm/@thirdweb-dev/dynamic-contracts/extension/upgradeable/PermissionsEnumberable.sol\":472:1641  library PermissionsEnumerableStorage {... */\n      eq(address, deployTimeAddress())\n      mstore(0x40, 0x80)\n      jumpi(tag_1, lt(calldatasize, 0x04))\n      shr(0xe0, calldataload(0x00))\n      dup1\n      0x871ef69d\n      eq\n      tag_2\n      jumpi\n    tag_1:\n      0x00\n      dup1\n      revert\n        /* \".deps/npm/@thirdweb-dev/dynamic-contracts/extension/upgradeable/PermissionsEnumberable.sol\":584:764  bytes32 public constant PERMISSIONS_ENUMERABLE_STORAGE_POSITION =... */\n    tag_2:\n      tag_3\n      tag_4\n      jump\t// in\n    tag_3:\n      mload(0x40)\n      tag_5\n      swap2\n      swap1\n      tag_6\n      jump\t// in\n    tag_5:\n      mload(0x40)\n      dup1\n      swap2\n      sub\n      swap1\n      return\n    tag_4:\n        /* \".deps/npm/@thirdweb-dev/dynamic-contracts/extension/upgradeable/PermissionsEnumberable.sol\":758:762  0xff */\n      0xff\n        /* \".deps/npm/@thirdweb-dev/dynamic-contracts/extension/upgradeable/PermissionsEnumberable.sol\":742:764  bytes32(uint256(0xff)) */\n      0x00\n      shl\n        /* \".deps/npm/@thirdweb-dev/dynamic-contracts/extension/upgradeable/PermissionsEnumberable.sol\":741:764  ~bytes32(uint256(0xff)) */\n      not\n        /* \".deps/npm/@thirdweb-dev/dynamic-contracts/extension/upgradeable/PermissionsEnumberable.sol\":735:736  1 */\n      0x01\n        /* \".deps/npm/@thirdweb-dev/dynamic-contracts/extension/upgradeable/PermissionsEnumberable.sol\":688:731  keccak256(\"permissions.enumerable.storage\") */\n      0x0c4ba382c0009cf238e4c1ca1a52f51c61e6248a70bdfb34e5ed49d5578a5c0c\n        /* \".deps/npm/@thirdweb-dev/dynamic-contracts/extension/upgradeable/PermissionsEnumberable.sol\":680:732  uint256(keccak256(\"permissions.enumerable.storage\")) */\n      0x00\n      shr\n        /* \".deps/npm/@thirdweb-dev/dynamic-contracts/extension/upgradeable/PermissionsEnumberable.sol\":680:736  uint256(keccak256(\"permissions.enumerable.storage\")) - 1 */\n      tag_7\n      swap2\n      swap1\n      tag_8\n      jump\t// in\n    tag_7:\n        /* \".deps/npm/@thirdweb-dev/dynamic-contracts/extension/upgradeable/PermissionsEnumberable.sol\":669:737  abi.encode(uint256(keccak256(\"permissions.enumerable.storage\")) - 1) */\n      add(0x20, mload(0x40))\n      tag_9\n      swap2\n      swap1\n      tag_10\n      jump\t// in\n    tag_9:\n      mload(0x40)\n      0x20\n      dup2\n      dup4\n      sub\n      sub\n      dup2\n      mstore\n      swap1\n      0x40\n      mstore\n        /* \".deps/npm/@thirdweb-dev/dynamic-contracts/extension/upgradeable/PermissionsEnumberable.sol\":659:738  keccak256(abi.encode(uint256(keccak256(\"permissions.enumerable.storage\")) - 1)) */\n      dup1\n      mload\n      swap1\n      0x20\n      add\n      keccak256\n        /* \".deps/npm/@thirdweb-dev/dynamic-contracts/extension/upgradeable/PermissionsEnumberable.sol\":659:764  keccak256(abi.encode(uint256(keccak256(\"permissions.enumerable.storage\")) - 1)) & ~bytes32(uint256(0xff)) */\n      and\n        /* \".deps/npm/@thirdweb-dev/dynamic-contracts/extension/upgradeable/PermissionsEnumberable.sol\":584:764  bytes32 public constant PERMISSIONS_ENUMERABLE_STORAGE_POSITION =... */\n      dup2\n      jump\t// out\n        /* \"#utility.yul\":7:84   */\n    tag_11:\n        /* \"#utility.yul\":44:51   */\n      0x00\n        /* \"#utility.yul\":73:78   */\n      dup2\n        /* \"#utility.yul\":62:78   */\n      swap1\n      pop\n        /* \"#utility.yul\":7:84   */\n      swap2\n      swap1\n      pop\n      jump\t// out\n        /* \"#utility.yul\":90:216   */\n    tag_12:\n        /* \"#utility.yul\":185:209   */\n      tag_19\n        /* \"#utility.yul\":203:208   */\n      dup2\n        /* \"#utility.yul\":185:209   */\n      tag_11\n      jump\t// in\n    tag_19:\n        /* \"#utility.yul\":180:183   */\n      dup3\n        /* \"#utility.yul\":173:210   */\n      mstore\n        /* \"#utility.yul\":90:216   */\n      pop\n      pop\n      jump\t// out\n        /* \"#utility.yul\":222:460   */\n    tag_6:\n        /* \"#utility.yul\":323:327   */\n      0x00\n        /* \"#utility.yul\":361:363   */\n      0x20\n        /* \"#utility.yul\":350:359   */\n      dup3\n        /* \"#utility.yul\":346:364   */\n      add\n        /* \"#utility.yul\":338:364   */\n      swap1\n      pop\n        /* \"#utility.yul\":374:453   */\n      tag_21\n        /* \"#utility.yul\":450:451   */\n      0x00\n        /* \"#utility.yul\":439:448   */\n      dup4\n        /* \"#utility.yul\":435:452   */\n      add\n        /* \"#utility.yul\":426:432   */\n      dup5\n        /* \"#utility.yul\":374:453   */\n      tag_12\n      jump\t// in\n    tag_21:\n        /* \"#utility.yul\":222:460   */\n      swap3\n      swap2\n      pop\n      pop\n      jump\t// out\n        /* \"#utility.yul\":466:543   */\n    tag_13:\n        /* \"#utility.yul\":503:510   */\n      0x00\n        /* \"#utility.yul\":532:537   */\n      dup2\n        /* \"#utility.yul\":521:537   */\n      swap1\n      pop\n        /* \"#utility.yul\":466:543   */\n      swap2\n      swap1\n      pop\n      jump\t// out\n        /* \"#utility.yul\":549:729   */\n    tag_14:\n        /* \"#utility.yul\":597:674   */\n      0x4e487b7100000000000000000000000000000000000000000000000000000000\n        /* \"#utility.yul\":594:595   */\n      0x00\n        /* \"#utility.yul\":587:675   */\n      mstore\n        /* \"#utility.yul\":694:698   */\n      0x11\n        /* \"#utility.yul\":691:692   */\n      0x04\n        /* \"#utility.yul\":684:699   */\n      mstore\n        /* \"#utility.yul\":718:722   */\n      0x24\n        /* \"#utility.yul\":715:716   */\n      0x00\n        /* \"#utility.yul\":708:723   */\n      revert\n        /* \"#utility.yul\":735:929   */\n    tag_8:\n        /* \"#utility.yul\":775:779   */\n      0x00\n        /* \"#utility.yul\":795:815   */\n      tag_25\n        /* \"#utility.yul\":813:814   */\n      dup3\n        /* \"#utility.yul\":795:815   */\n      tag_13\n      jump\t// in\n    tag_25:\n        /* \"#utility.yul\":790:815   */\n      swap2\n      pop\n        /* \"#utility.yul\":829:849   */\n      tag_26\n        /* \"#utility.yul\":847:848   */\n      dup4\n        /* \"#utility.yul\":829:849   */\n      tag_13\n      jump\t// in\n    tag_26:\n        /* \"#utility.yul\":824:849   */\n      swap3\n      pop\n        /* \"#utility.yul\":873:874   */\n      dup3\n        /* \"#utility.yul\":870:871   */\n      dup3\n        /* \"#utility.yul\":866:875   */\n      sub\n        /* \"#utility.yul\":858:875   */\n      swap1\n      pop\n        /* \"#utility.yul\":897:898   */\n      dup2\n        /* \"#utility.yul\":891:895   */\n      dup2\n        /* \"#utility.yul\":888:899   */\n      gt\n        /* \"#utility.yul\":885:922   */\n      iszero\n      tag_27\n      jumpi\n        /* \"#utility.yul\":902:920   */\n      tag_28\n      tag_14\n      jump\t// in\n    tag_28:\n        /* \"#utility.yul\":885:922   */\n    tag_27:\n        /* \"#utility.yul\":735:929   */\n      swap3\n      swap2\n      pop\n      pop\n      jump\t// out\n        /* \"#utility.yul\":935:1053   */\n    tag_15:\n        /* \"#utility.yul\":1022:1046   */\n      tag_30\n        /* \"#utility.yul\":1040:1045   */\n      dup2\n        /* \"#utility.yul\":1022:1046   */\n      tag_13\n      jump\t// in\n    tag_30:\n        /* \"#utility.yul\":1017:1020   */\n      dup3\n        /* \"#utility.yul\":1010:1047   */\n      mstore\n        /* \"#utility.yul\":935:1053   */\n      pop\n      pop\n      jump\t// out\n        /* \"#utility.yul\":1059:1281   */\n    tag_10:\n        /* \"#utility.yul\":1152:1156   */\n      0x00\n        /* \"#utility.yul\":1190:1192   */\n      0x20\n        /* \"#utility.yul\":1179:1188   */\n      dup3\n        /* \"#utility.yul\":1175:1193   */\n      add\n        /* \"#utility.yul\":1167:1193   */\n      swap1\n      pop\n        /* \"#utility.yul\":1203:1274   */\n      tag_32\n        /* \"#utility.yul\":1271:1272   */\n      0x00\n        /* \"#utility.yul\":1260:1269   */\n      dup4\n        /* \"#utility.yul\":1256:1273   */\n      add\n        /* \"#utility.yul\":1247:1253   */\n      dup5\n        /* \"#utility.yul\":1203:1274   */\n      tag_15\n      jump\t// in\n    tag_32:\n        /* \"#utility.yul\":1059:1281   */\n      swap3\n      swap2\n      pop\n      pop\n      jump\t// out\n\n    auxdata: 0xa2646970667358221220b9eb40aa194aba4c3d20edb24df4be136254137520a8b3f9335fe6ae6300ff2164736f6c63430008180033\n}\n",
				"bytecode": {
					"linkReferences": {},
					"object": "6101ac61004e600b8282823980515f1a607314610042577f4e487b71000000000000000000000000000000000000000000000000000000005f525f60045260245ffd5b305f52607381538281f3fe7300000000000000000000000000000000000000003014608060405260043610610034575f3560e01c8063871ef69d14610038575b5f80fd5b610040610056565b60405161004d91906100cc565b60405180910390f35b60ff5f1b1960017f0c4ba382c0009cf238e4c1ca1a52f51c61e6248a70bdfb34e5ed49d5578a5c0c5f1c61008a919061011b565b60405160200161009a919061015d565b604051602081830303815290604052805190602001201681565b5f819050919050565b6100c6816100b4565b82525050565b5f6020820190506100df5f8301846100bd565b92915050565b5f819050919050565b7f4e487b71000000000000000000000000000000000000000000000000000000005f52601160045260245ffd5b5f610125826100e5565b9150610130836100e5565b9250828203905081811115610148576101476100ee565b5b92915050565b610157816100e5565b82525050565b5f6020820190506101705f83018461014e565b9291505056fea2646970667358221220b9eb40aa194aba4c3d20edb24df4be136254137520a8b3f9335fe6ae6300ff2164736f6c63430008180033",
					"opcodes": "PUSH2 0x1AC PUSH2 0x4E PUSH1 0xB DUP3 DUP3 DUP3 CODECOPY DUP1 MLOAD PUSH0 BYTE PUSH1 0x73 EQ PUSH2 0x42 JUMPI PUSH32 0x4E487B7100000000000000000000000000000000000000000000000000000000 PUSH0 MSTORE PUSH0 PUSH1 0x4 MSTORE PUSH1 0x24 PUSH0 REVERT JUMPDEST ADDRESS PUSH0 MSTORE PUSH1 0x73 DUP2 MSTORE8 DUP3 DUP2 RETURN INVALID PUSH20 0x0 ADDRESS EQ PUSH1 0x80 PUSH1 0x40 MSTORE PUSH1 0x4 CALLDATASIZE LT PUSH2 0x34 JUMPI PUSH0 CALLDATALOAD PUSH1 0xE0 SHR DUP1 PUSH4 0x871EF69D EQ PUSH2 0x38 JUMPI JUMPDEST PUSH0 DUP1 REVERT JUMPDEST PUSH2 0x40 PUSH2 0x56 JUMP JUMPDEST PUSH1 0x40 MLOAD PUSH2 0x4D SWAP2 SWAP1 PUSH2 0xCC JUMP JUMPDEST PUSH1 0x40 MLOAD DUP1 SWAP2 SUB SWAP1 RETURN JUMPDEST PUSH1 0xFF PUSH0 SHL NOT PUSH1 0x1 PUSH32 0xC4BA382C0009CF238E4C1CA1A52F51C61E6248A70BDFB34E5ED49D5578A5C0C PUSH0 SHR PUSH2 0x8A SWAP2 SWAP1 PUSH2 0x11B JUMP JUMPDEST PUSH1 0x40 MLOAD PUSH1 0x20 ADD PUSH2 0x9A SWAP2 SWAP1 PUSH2 0x15D JUMP JUMPDEST PUSH1 0x40 MLOAD PUSH1 0x20 DUP2 DUP4 SUB SUB DUP2 MSTORE SWAP1 PUSH1 0x40 MSTORE DUP1 MLOAD SWAP1 PUSH1 0x20 ADD KECCAK256 AND DUP2 JUMP JUMPDEST PUSH0 DUP2 SWAP1 POP SWAP2 SWAP1 POP JUMP JUMPDEST PUSH2 0xC6 DUP2 PUSH2 0xB4 JUMP JUMPDEST DUP3 MSTORE POP POP JUMP JUMPDEST PUSH0 PUSH1 0x20 DUP3 ADD SWAP1 POP PUSH2 0xDF PUSH0 DUP4 ADD DUP5 PUSH2 0xBD JUMP JUMPDEST SWAP3 SWAP2 POP POP JUMP JUMPDEST PUSH0 DUP2 SWAP1 POP SWAP2 SWAP1 POP JUMP JUMPDEST PUSH32 0x4E487B7100000000000000000000000000000000000000000000000000000000 PUSH0 MSTORE PUSH1 0x11 PUSH1 0x4 MSTORE PUSH1 0x24 PUSH0 REVERT JUMPDEST PUSH0 PUSH2 0x125 DUP3 PUSH2 0xE5 JUMP JUMPDEST SWAP2 POP PUSH2 0x130 DUP4 PUSH2 0xE5 JUMP JUMPDEST SWAP3 POP DUP3 DUP3 SUB SWAP1 POP DUP2 DUP2 GT ISZERO PUSH2 0x148 JUMPI PUSH2 0x147 PUSH2 0xEE JUMP JUMPDEST JUMPDEST SWAP3 SWAP2 POP POP JUMP JUMPDEST PUSH2 0x157 DUP2 PUSH2 0xE5 JUMP JUMPDEST DUP3 MSTORE POP POP JUMP JUMPDEST PUSH0 PUSH1 0x20 DUP3 ADD SWAP1 POP PUSH2 0x170 PUSH0 DUP4 ADD DUP5 PUSH2 0x14E JUMP JUMPDEST SWAP3 SWAP2 POP POP JUMP INVALID LOG2 PUSH5 0x6970667358 0x22 SLT KECCAK256 0xB9 0xEB BLOCKHASH 0xAA NOT BLOBBASEFEE 0xBA 0x4C RETURNDATASIZE KECCAK256 0xED 0xB2 0x4D DELEGATECALL 0xBE SGT PUSH3 0x541375 KECCAK256 0xA8 0xB3 0xF9 CALLER PUSH0 0xE6 0xAE PUSH4 0xFF2164 PUSH20 0x6F6C634300081800330000000000000000000000 "
				},
				"gasEstimates": {
					"creation": {
						"codeDepositCost": "85600",
						"executionCost": "158",
						"totalCost": "85758"
					},
					"external": {
						"PERMISSIONS_ENUMERABLE_STORAGE_POSITION()": "infinite"
					},
					"internal": {
						"data()": "infinite"
					}
				},
				"methodIdentifiers": {
					"PERMISSIONS_ENUMERABLE_STORAGE_POSITION()": "871ef69d"
				}
			},
			"storageLayout": {
				"storage": [],
				"types": null
			},
			"userdoc": {
				"kind": "user",
				"methods": {},
				"version": 1
			}
		}
	}
}