{
	".deps/npm/@thirdweb-dev/dynamic-contracts/extension/upgradeable/Permissions.sol": {
		"Permissions": {
			"abi": [
				{
					"anonymous": false,
					"inputs": [
						{
							"indexed": true,
							"internalType": "bytes32",
							"name": "role",
							"type": "bytes32"
						},
						{
							"indexed": true,
							"internalType": "bytes32",
							"name": "previousAdminRole",
							"type": "bytes32"
						},
						{
							"indexed": true,
							"internalType": "bytes32",
							"name": "newAdminRole",
							"type": "bytes32"
						}
					],
					"name": "RoleAdminChanged",
					"type": "event"
				},
				{
					"anonymous": false,
					"inputs": [
						{
							"indexed": true,
							"internalType": "bytes32",
							"name": "role",
							"type": "bytes32"
						},
						{
							"indexed": true,
							"internalType": "address",
							"name": "account",
							"type": "address"
						},
						{
							"indexed": true,
							"internalType": "address",
							"name": "sender",
							"type": "address"
						}
					],
					"name": "RoleGranted",
					"type": "event"
				},
				{
					"anonymous": false,
					"inputs": [
						{
							"indexed": true,
							"internalType": "bytes32",
							"name": "role",
							"type": "bytes32"
						},
						{
							"indexed": true,
							"internalType": "address",
							"name": "account",
							"type": "address"
						},
						{
							"indexed": true,
							"internalType": "address",
							"name": "sender",
							"type": "address"
						}
					],
					"name": "RoleRevoked",
					"type": "event"
				},
				{
					"inputs": [],
					"name": "DEFAULT_ADMIN_ROLE",
					"outputs": [
						{
							"internalType": "bytes32",
							"name": "",
							"type": "bytes32"
						}
					],
					"stateMutability": "view",
					"type": "function"
				},
				{
					"inputs": [
						{
							"internalType": "bytes32",
							"name": "role",
							"type": "bytes32"
						}
					],
					"name": "getRoleAdmin",
					"outputs": [
						{
							"internalType": "bytes32",
							"name": "",
							"type": "bytes32"
						}
					],
					"stateMutability": "view",
					"type": "function"
				},
				{
					"inputs": [
						{
							"internalType": "bytes32",
							"name": "role",
							"type": "bytes32"
						},
						{
							"internalType": "address",
							"name": "account",
							"type": "address"
						}
					],
					"name": "grantRole",
					"outputs": [],
					"stateMutability": "nonpayable",
					"type": "function"
				},
				{
					"inputs": [
						{
							"internalType": "bytes32",
							"name": "role",
							"type": "bytes32"
						},
						{
							"internalType": "address",
							"name": "account",
							"type": "address"
						}
					],
					"name": "hasRole",
					"outputs": [
						{
							"internalType": "bool",
							"name": "",
							"type": "bool"
						}
					],
					"stateMutability": "view",
					"type": "function"
				},
				{
					"inputs": [
						{
							"internalType": "bytes32",
							"name": "role",
							"type": "bytes32"
						},
						{
							"internalType": "address",
							"name": "account",
							"type": "address"
						}
					],
					"name": "hasRoleWithSwitch",
					"outputs": [
						{
							"internalType": "bool",
							"name": "",
							"type": "bool"
						}
					],
					"stateMutability": "view",
					"type": "function"
				},
				{
					"inputs": [
						{
							"internalType": "bytes32",
							"name": "role",
							"type": "bytes32"
						},
						{
							"internalType": "address",
							"name": "account",
							"type": "address"
						}
					],
					"name": "renounceRole",
					"outputs": [],
					"stateMutability": "nonpayable",
					"type": "function"
				},
				{
					"inputs": [
						{
							"internalType": "bytes32",
							"name": "role",
							"type": "bytes32"
						},
						{
							"internalType": "address",
							"name": "account",
							"type": "address"
						}
					],
					"name": "revokeRole",
					"outputs": [],
					"stateMutability": "nonpayable",
					"type": "function"
				}
			],
			"devdoc": {
				"events": {
					"RoleAdminChanged(bytes32,bytes32,bytes32)": {
						"details": "Emitted when `newAdminRole` is set as ``role``'s admin role, replacing `previousAdminRole` `DEFAULT_ADMIN_ROLE` is the starting admin for all roles, despite {RoleAdminChanged} not being emitted signaling this. _Available since v3.1._"
					},
					"RoleGranted(bytes32,address,address)": {
						"details": "Emitted when `account` is granted `role`. `sender` is the account that originated the contract call, an admin role bearer except when using {AccessControl-_setupRole}."
					},
					"RoleRevoked(bytes32,address,address)": {
						"details": "Emitted when `account` is revoked `role`. `sender` is the account that originated the contract call:   - if using `revokeRole`, it is the admin role bearer   - if using `renounceRole`, it is the role bearer (i.e. `account`)"
					}
				},
				"kind": "dev",
				"methods": {
					"getRoleAdmin(bytes32)": {
						"details": "See {grantRole} and {revokeRole}.                  To change a role's admin, use {_setRoleAdmin}.",
						"params": {
							"role": "keccak256 hash of the role. e.g. keccak256(\"TRANSFER_ROLE\")"
						}
					},
					"grantRole(bytes32,address)": {
						"details": "Caller must have admin role for the `role`.                  Emits {RoleGranted Event}.",
						"params": {
							"account": "Address of the account to which the role is being granted.",
							"role": "keccak256 hash of the role. e.g. keccak256(\"TRANSFER_ROLE\")"
						}
					},
					"hasRole(bytes32,address)": {
						"details": "Returns `true` if `account` has been granted `role`.",
						"params": {
							"account": "Address of the account for which the role is being checked.",
							"role": "keccak256 hash of the role. e.g. keccak256(\"TRANSFER_ROLE\")"
						}
					},
					"hasRoleWithSwitch(bytes32,address)": {
						"details": "Returns `true` if `account` has been granted `role`.                  Role restrictions can be swtiched on and off:                      - If address(0) has ROLE, then the ROLE restrictions                        don't apply.                      - If address(0) does not have ROLE, then the ROLE                        restrictions will apply.",
						"params": {
							"account": "Address of the account for which the role is being checked.",
							"role": "keccak256 hash of the role. e.g. keccak256(\"TRANSFER_ROLE\")"
						}
					},
					"renounceRole(bytes32,address)": {
						"details": "Caller must have the `role`, with caller being the same as `account`.                  Emits {RoleRevoked Event}.",
						"params": {
							"account": "Address of the account from which the role is being revoked.",
							"role": "keccak256 hash of the role. e.g. keccak256(\"TRANSFER_ROLE\")"
						}
					},
					"revokeRole(bytes32,address)": {
						"details": "Caller must have admin role for the `role`.                  Emits {RoleRevoked Event}.",
						"params": {
							"account": "Address of the account from which the role is being revoked.",
							"role": "keccak256 hash of the role. e.g. keccak256(\"TRANSFER_ROLE\")"
						}
					}
				},
				"stateVariables": {
					"DEFAULT_ADMIN_ROLE": {
						"details": "Default admin role for all roles. Only accounts with this role can grant/revoke other roles."
					}
				},
				"version": 1
			},
			"evm": {
				"assembly": "    /* \".deps/npm/@thirdweb-dev/dynamic-contracts/extension/upgradeable/Permissions.sol\":1195:8107  contract Permissions is IPermissions {... */\n  mstore(0x40, 0x80)\n  callvalue\n  dup1\n  iszero\n  tag_1\n  jumpi\n  0x00\n  dup1\n  revert\ntag_1:\n  pop\n  dataSize(sub_0)\n  dup1\n  dataOffset(sub_0)\n  0x00\n  codecopy\n  0x00\n  return\nstop\n\nsub_0: assembly {\n        /* \".deps/npm/@thirdweb-dev/dynamic-contracts/extension/upgradeable/Permissions.sol\":1195:8107  contract Permissions is IPermissions {... */\n      mstore(0x40, 0x80)\n      callvalue\n      dup1\n      iszero\n      tag_1\n      jumpi\n      0x00\n      dup1\n      revert\n    tag_1:\n      pop\n      jumpi(tag_2, lt(calldatasize, 0x04))\n      shr(0xe0, calldataload(0x00))\n      dup1\n      0x91d14854\n      gt\n      tag_10\n      jumpi\n      dup1\n      0x91d14854\n      eq\n      tag_6\n      jumpi\n      dup1\n      0xa217fddf\n      eq\n      tag_7\n      jumpi\n      dup1\n      0xa32fa5b3\n      eq\n      tag_8\n      jumpi\n      dup1\n      0xd547741f\n      eq\n      tag_9\n      jumpi\n      jump(tag_2)\n    tag_10:\n      dup1\n      0x248a9ca3\n      eq\n      tag_3\n      jumpi\n      dup1\n      0x2f2ff15d\n      eq\n      tag_4\n      jumpi\n      dup1\n      0x36568abe\n      eq\n      tag_5\n      jumpi\n    tag_2:\n      0x00\n      dup1\n      revert\n        /* \".deps/npm/@thirdweb-dev/dynamic-contracts/extension/upgradeable/Permissions.sol\":3460:3604  function getRoleAdmin(bytes32 role) external view override returns (bytes32) {... */\n    tag_3:\n      tag_11\n      0x04\n      dup1\n      calldatasize\n      sub\n      dup2\n      add\n      swap1\n      tag_12\n      swap2\n      swap1\n      tag_13\n      jump\t// in\n    tag_12:\n      tag_14\n      jump\t// in\n    tag_11:\n      mload(0x40)\n      tag_15\n      swap2\n      swap1\n      tag_16\n      jump\t// in\n    tag_15:\n      mload(0x40)\n      dup1\n      swap2\n      sub\n      swap1\n      return\n        /* \".deps/npm/@thirdweb-dev/dynamic-contracts/extension/upgradeable/Permissions.sol\":4009:4332  function grantRole(bytes32 role, address account) public virtual override {... */\n    tag_4:\n      tag_17\n      0x04\n      dup1\n      calldatasize\n      sub\n      dup2\n      add\n      swap1\n      tag_18\n      swap2\n      swap1\n      tag_19\n      jump\t// in\n    tag_18:\n      tag_20\n      jump\t// in\n    tag_17:\n      stop\n        /* \".deps/npm/@thirdweb-dev/dynamic-contracts/extension/upgradeable/Permissions.sol\":5319:5543  function renounceRole(bytes32 role, address account) public virtual override {... */\n    tag_5:\n      tag_21\n      0x04\n      dup1\n      calldatasize\n      sub\n      dup2\n      add\n      swap1\n      tag_22\n      swap2\n      swap1\n      tag_19\n      jump\t// in\n    tag_22:\n      tag_23\n      jump\t// in\n    tag_21:\n      stop\n        /* \".deps/npm/@thirdweb-dev/dynamic-contracts/extension/upgradeable/Permissions.sol\":1945:2100  function hasRole(bytes32 role, address account) public view override returns (bool) {... */\n    tag_6:\n      tag_24\n      0x04\n      dup1\n      calldatasize\n      sub\n      dup2\n      add\n      swap1\n      tag_25\n      swap2\n      swap1\n      tag_19\n      jump\t// in\n    tag_25:\n      tag_26\n      jump\t// in\n    tag_24:\n      mload(0x40)\n      tag_27\n      swap2\n      swap1\n      tag_28\n      jump\t// in\n    tag_27:\n      mload(0x40)\n      dup1\n      swap2\n      sub\n      swap1\n      return\n        /* \".deps/npm/@thirdweb-dev/dynamic-contracts/extension/upgradeable/Permissions.sol\":1346:1395  bytes32 public constant DEFAULT_ADMIN_ROLE = 0x00 */\n    tag_7:\n      tag_29\n      tag_30\n      jump\t// in\n    tag_29:\n      mload(0x40)\n      tag_31\n      swap2\n      swap1\n      tag_16\n      jump\t// in\n    tag_31:\n      mload(0x40)\n      dup1\n      swap2\n      sub\n      swap1\n      return\n        /* \".deps/npm/@thirdweb-dev/dynamic-contracts/extension/upgradeable/Permissions.sol\":2867:3128  function hasRoleWithSwitch(bytes32 role, address account) public view returns (bool) {... */\n    tag_8:\n      tag_32\n      0x04\n      dup1\n      calldatasize\n      sub\n      dup2\n      add\n      swap1\n      tag_33\n      swap2\n      swap1\n      tag_19\n      jump\t// in\n    tag_33:\n      tag_34\n      jump\t// in\n    tag_32:\n      mload(0x40)\n      tag_35\n      swap2\n      swap1\n      tag_28\n      jump\t// in\n    tag_35:\n      mload(0x40)\n      dup1\n      swap2\n      sub\n      swap1\n      return\n        /* \".deps/npm/@thirdweb-dev/dynamic-contracts/extension/upgradeable/Permissions.sol\":4713:4911  function revokeRole(bytes32 role, address account) public virtual override {... */\n    tag_9:\n      tag_36\n      0x04\n      dup1\n      calldatasize\n      sub\n      dup2\n      add\n      swap1\n      tag_37\n      swap2\n      swap1\n      tag_19\n      jump\t// in\n    tag_37:\n      tag_38\n      jump\t// in\n    tag_36:\n      stop\n        /* \".deps/npm/@thirdweb-dev/dynamic-contracts/extension/upgradeable/Permissions.sol\":3460:3604  function getRoleAdmin(bytes32 role) external view override returns (bytes32) {... */\n    tag_14:\n        /* \".deps/npm/@thirdweb-dev/dynamic-contracts/extension/upgradeable/Permissions.sol\":3528:3535  bytes32 */\n      0x00\n        /* \".deps/npm/@thirdweb-dev/dynamic-contracts/extension/upgradeable/Permissions.sol\":3555:3576  _permissionsStorage() */\n      tag_40\n        /* \".deps/npm/@thirdweb-dev/dynamic-contracts/extension/upgradeable/Permissions.sol\":3555:3574  _permissionsStorage */\n      tag_41\n        /* \".deps/npm/@thirdweb-dev/dynamic-contracts/extension/upgradeable/Permissions.sol\":3555:3576  _permissionsStorage() */\n      jump\t// in\n    tag_40:\n        /* \".deps/npm/@thirdweb-dev/dynamic-contracts/extension/upgradeable/Permissions.sol\":3555:3590  _permissionsStorage()._getRoleAdmin */\n      0x01\n      add\n        /* \".deps/npm/@thirdweb-dev/dynamic-contracts/extension/upgradeable/Permissions.sol\":3555:3596  _permissionsStorage()._getRoleAdmin[role] */\n      0x00\n        /* \".deps/npm/@thirdweb-dev/dynamic-contracts/extension/upgradeable/Permissions.sol\":3591:3595  role */\n      dup4\n        /* \".deps/npm/@thirdweb-dev/dynamic-contracts/extension/upgradeable/Permissions.sol\":3555:3596  _permissionsStorage()._getRoleAdmin[role] */\n      dup2\n      mstore\n      0x20\n      add\n      swap1\n      dup2\n      mstore\n      0x20\n      add\n      0x00\n      keccak256\n      sload\n        /* \".deps/npm/@thirdweb-dev/dynamic-contracts/extension/upgradeable/Permissions.sol\":3548:3596  return _permissionsStorage()._getRoleAdmin[role] */\n      swap1\n      pop\n        /* \".deps/npm/@thirdweb-dev/dynamic-contracts/extension/upgradeable/Permissions.sol\":3460:3604  function getRoleAdmin(bytes32 role) external view override returns (bytes32) {... */\n      swap2\n      swap1\n      pop\n      jump\t// out\n        /* \".deps/npm/@thirdweb-dev/dynamic-contracts/extension/upgradeable/Permissions.sol\":4009:4332  function grantRole(bytes32 role, address account) public virtual override {... */\n    tag_20:\n        /* \".deps/npm/@thirdweb-dev/dynamic-contracts/extension/upgradeable/Permissions.sol\":4094:4161  _checkRole(_permissionsStorage()._getRoleAdmin[role], _msgSender()) */\n      tag_43\n        /* \".deps/npm/@thirdweb-dev/dynamic-contracts/extension/upgradeable/Permissions.sol\":4105:4126  _permissionsStorage() */\n      tag_44\n        /* \".deps/npm/@thirdweb-dev/dynamic-contracts/extension/upgradeable/Permissions.sol\":4105:4124  _permissionsStorage */\n      tag_41\n        /* \".deps/npm/@thirdweb-dev/dynamic-contracts/extension/upgradeable/Permissions.sol\":4105:4126  _permissionsStorage() */\n      jump\t// in\n    tag_44:\n        /* \".deps/npm/@thirdweb-dev/dynamic-contracts/extension/upgradeable/Permissions.sol\":4105:4140  _permissionsStorage()._getRoleAdmin */\n      0x01\n      add\n        /* \".deps/npm/@thirdweb-dev/dynamic-contracts/extension/upgradeable/Permissions.sol\":4105:4146  _permissionsStorage()._getRoleAdmin[role] */\n      0x00\n        /* \".deps/npm/@thirdweb-dev/dynamic-contracts/extension/upgradeable/Permissions.sol\":4141:4145  role */\n      dup5\n        /* \".deps/npm/@thirdweb-dev/dynamic-contracts/extension/upgradeable/Permissions.sol\":4105:4146  _permissionsStorage()._getRoleAdmin[role] */\n      dup2\n      mstore\n      0x20\n      add\n      swap1\n      dup2\n      mstore\n      0x20\n      add\n      0x00\n      keccak256\n      sload\n        /* \".deps/npm/@thirdweb-dev/dynamic-contracts/extension/upgradeable/Permissions.sol\":4148:4160  _msgSender() */\n      tag_45\n        /* \".deps/npm/@thirdweb-dev/dynamic-contracts/extension/upgradeable/Permissions.sol\":4148:4158  _msgSender */\n      tag_46\n        /* \".deps/npm/@thirdweb-dev/dynamic-contracts/extension/upgradeable/Permissions.sol\":4148:4160  _msgSender() */\n      jump\t// in\n    tag_45:\n        /* \".deps/npm/@thirdweb-dev/dynamic-contracts/extension/upgradeable/Permissions.sol\":4094:4104  _checkRole */\n      tag_47\n        /* \".deps/npm/@thirdweb-dev/dynamic-contracts/extension/upgradeable/Permissions.sol\":4094:4161  _checkRole(_permissionsStorage()._getRoleAdmin[role], _msgSender()) */\n      jump\t// in\n    tag_43:\n        /* \".deps/npm/@thirdweb-dev/dynamic-contracts/extension/upgradeable/Permissions.sol\":4176:4197  _permissionsStorage() */\n      tag_48\n        /* \".deps/npm/@thirdweb-dev/dynamic-contracts/extension/upgradeable/Permissions.sol\":4176:4195  _permissionsStorage */\n      tag_41\n        /* \".deps/npm/@thirdweb-dev/dynamic-contracts/extension/upgradeable/Permissions.sol\":4176:4197  _permissionsStorage() */\n      jump\t// in\n    tag_48:\n        /* \".deps/npm/@thirdweb-dev/dynamic-contracts/extension/upgradeable/Permissions.sol\":4176:4206  _permissionsStorage()._hasRole */\n      0x00\n      add\n        /* \".deps/npm/@thirdweb-dev/dynamic-contracts/extension/upgradeable/Permissions.sol\":4176:4212  _permissionsStorage()._hasRole[role] */\n      0x00\n        /* \".deps/npm/@thirdweb-dev/dynamic-contracts/extension/upgradeable/Permissions.sol\":4207:4211  role */\n      dup4\n        /* \".deps/npm/@thirdweb-dev/dynamic-contracts/extension/upgradeable/Permissions.sol\":4176:4212  _permissionsStorage()._hasRole[role] */\n      dup2\n      mstore\n      0x20\n      add\n      swap1\n      dup2\n      mstore\n      0x20\n      add\n      0x00\n      keccak256\n        /* \".deps/npm/@thirdweb-dev/dynamic-contracts/extension/upgradeable/Permissions.sol\":4176:4221  _permissionsStorage()._hasRole[role][account] */\n      0x00\n        /* \".deps/npm/@thirdweb-dev/dynamic-contracts/extension/upgradeable/Permissions.sol\":4213:4220  account */\n      dup3\n        /* \".deps/npm/@thirdweb-dev/dynamic-contracts/extension/upgradeable/Permissions.sol\":4176:4221  _permissionsStorage()._hasRole[role][account] */\n      0xffffffffffffffffffffffffffffffffffffffff\n      and\n      0xffffffffffffffffffffffffffffffffffffffff\n      and\n      dup2\n      mstore\n      0x20\n      add\n      swap1\n      dup2\n      mstore\n      0x20\n      add\n      0x00\n      keccak256\n      0x00\n      swap1\n      sload\n      swap1\n      0x0100\n      exp\n      swap1\n      div\n      0xff\n      and\n        /* \".deps/npm/@thirdweb-dev/dynamic-contracts/extension/upgradeable/Permissions.sol\":4172:4289  if (_permissionsStorage()._hasRole[role][account]) {... */\n      iszero\n      tag_49\n      jumpi\n        /* \".deps/npm/@thirdweb-dev/dynamic-contracts/extension/upgradeable/Permissions.sol\":4238:4277  revert(\"Can only grant to non holders\") */\n      mload(0x40)\n      0x08c379a000000000000000000000000000000000000000000000000000000000\n      dup2\n      mstore\n      0x04\n      add\n      tag_50\n      swap1\n      tag_51\n      jump\t// in\n    tag_50:\n      mload(0x40)\n      dup1\n      swap2\n      sub\n      swap1\n      revert\n        /* \".deps/npm/@thirdweb-dev/dynamic-contracts/extension/upgradeable/Permissions.sol\":4172:4289  if (_permissionsStorage()._hasRole[role][account]) {... */\n    tag_49:\n        /* \".deps/npm/@thirdweb-dev/dynamic-contracts/extension/upgradeable/Permissions.sol\":4299:4324  _setupRole(role, account) */\n      tag_52\n        /* \".deps/npm/@thirdweb-dev/dynamic-contracts/extension/upgradeable/Permissions.sol\":4310:4314  role */\n      dup3\n        /* \".deps/npm/@thirdweb-dev/dynamic-contracts/extension/upgradeable/Permissions.sol\":4316:4323  account */\n      dup3\n        /* \".deps/npm/@thirdweb-dev/dynamic-contracts/extension/upgradeable/Permissions.sol\":4299:4309  _setupRole */\n      tag_53\n        /* \".deps/npm/@thirdweb-dev/dynamic-contracts/extension/upgradeable/Permissions.sol\":4299:4324  _setupRole(role, account) */\n      jump\t// in\n    tag_52:\n        /* \".deps/npm/@thirdweb-dev/dynamic-contracts/extension/upgradeable/Permissions.sol\":4009:4332  function grantRole(bytes32 role, address account) public virtual override {... */\n      pop\n      pop\n      jump\t// out\n        /* \".deps/npm/@thirdweb-dev/dynamic-contracts/extension/upgradeable/Permissions.sol\":5319:5543  function renounceRole(bytes32 role, address account) public virtual override {... */\n    tag_23:\n        /* \".deps/npm/@thirdweb-dev/dynamic-contracts/extension/upgradeable/Permissions.sol\":5427:5434  account */\n      dup1\n        /* \".deps/npm/@thirdweb-dev/dynamic-contracts/extension/upgradeable/Permissions.sol\":5411:5434  _msgSender() != account */\n      0xffffffffffffffffffffffffffffffffffffffff\n      and\n        /* \".deps/npm/@thirdweb-dev/dynamic-contracts/extension/upgradeable/Permissions.sol\":5411:5423  _msgSender() */\n      tag_55\n        /* \".deps/npm/@thirdweb-dev/dynamic-contracts/extension/upgradeable/Permissions.sol\":5411:5421  _msgSender */\n      tag_46\n        /* \".deps/npm/@thirdweb-dev/dynamic-contracts/extension/upgradeable/Permissions.sol\":5411:5423  _msgSender() */\n      jump\t// in\n    tag_55:\n        /* \".deps/npm/@thirdweb-dev/dynamic-contracts/extension/upgradeable/Permissions.sol\":5411:5434  _msgSender() != account */\n      0xffffffffffffffffffffffffffffffffffffffff\n      and\n      eq\n        /* \".deps/npm/@thirdweb-dev/dynamic-contracts/extension/upgradeable/Permissions.sol\":5407:5499  if (_msgSender() != account) {... */\n      tag_56\n      jumpi\n        /* \".deps/npm/@thirdweb-dev/dynamic-contracts/extension/upgradeable/Permissions.sol\":5451:5487  revert(\"Can only renounce for self\") */\n      mload(0x40)\n      0x08c379a000000000000000000000000000000000000000000000000000000000\n      dup2\n      mstore\n      0x04\n      add\n      tag_57\n      swap1\n      tag_58\n      jump\t// in\n    tag_57:\n      mload(0x40)\n      dup1\n      swap2\n      sub\n      swap1\n      revert\n        /* \".deps/npm/@thirdweb-dev/dynamic-contracts/extension/upgradeable/Permissions.sol\":5407:5499  if (_msgSender() != account) {... */\n    tag_56:\n        /* \".deps/npm/@thirdweb-dev/dynamic-contracts/extension/upgradeable/Permissions.sol\":5509:5535  _revokeRole(role, account) */\n      tag_59\n        /* \".deps/npm/@thirdweb-dev/dynamic-contracts/extension/upgradeable/Permissions.sol\":5521:5525  role */\n      dup3\n        /* \".deps/npm/@thirdweb-dev/dynamic-contracts/extension/upgradeable/Permissions.sol\":5527:5534  account */\n      dup3\n        /* \".deps/npm/@thirdweb-dev/dynamic-contracts/extension/upgradeable/Permissions.sol\":5509:5520  _revokeRole */\n      tag_60\n        /* \".deps/npm/@thirdweb-dev/dynamic-contracts/extension/upgradeable/Permissions.sol\":5509:5535  _revokeRole(role, account) */\n      jump\t// in\n    tag_59:\n        /* \".deps/npm/@thirdweb-dev/dynamic-contracts/extension/upgradeable/Permissions.sol\":5319:5543  function renounceRole(bytes32 role, address account) public virtual override {... */\n      pop\n      pop\n      jump\t// out\n        /* \".deps/npm/@thirdweb-dev/dynamic-contracts/extension/upgradeable/Permissions.sol\":1945:2100  function hasRole(bytes32 role, address account) public view override returns (bool) {... */\n    tag_26:\n        /* \".deps/npm/@thirdweb-dev/dynamic-contracts/extension/upgradeable/Permissions.sol\":2023:2027  bool */\n      0x00\n        /* \".deps/npm/@thirdweb-dev/dynamic-contracts/extension/upgradeable/Permissions.sol\":2047:2068  _permissionsStorage() */\n      tag_62\n        /* \".deps/npm/@thirdweb-dev/dynamic-contracts/extension/upgradeable/Permissions.sol\":2047:2066  _permissionsStorage */\n      tag_41\n        /* \".deps/npm/@thirdweb-dev/dynamic-contracts/extension/upgradeable/Permissions.sol\":2047:2068  _permissionsStorage() */\n      jump\t// in\n    tag_62:\n        /* \".deps/npm/@thirdweb-dev/dynamic-contracts/extension/upgradeable/Permissions.sol\":2047:2077  _permissionsStorage()._hasRole */\n      0x00\n      add\n        /* \".deps/npm/@thirdweb-dev/dynamic-contracts/extension/upgradeable/Permissions.sol\":2047:2083  _permissionsStorage()._hasRole[role] */\n      0x00\n        /* \".deps/npm/@thirdweb-dev/dynamic-contracts/extension/upgradeable/Permissions.sol\":2078:2082  role */\n      dup5\n        /* \".deps/npm/@thirdweb-dev/dynamic-contracts/extension/upgradeable/Permissions.sol\":2047:2083  _permissionsStorage()._hasRole[role] */\n      dup2\n      mstore\n      0x20\n      add\n      swap1\n      dup2\n      mstore\n      0x20\n      add\n      0x00\n      keccak256\n        /* \".deps/npm/@thirdweb-dev/dynamic-contracts/extension/upgradeable/Permissions.sol\":2047:2092  _permissionsStorage()._hasRole[role][account] */\n      0x00\n        /* \".deps/npm/@thirdweb-dev/dynamic-contracts/extension/upgradeable/Permissions.sol\":2084:2091  account */\n      dup4\n        /* \".deps/npm/@thirdweb-dev/dynamic-contracts/extension/upgradeable/Permissions.sol\":2047:2092  _permissionsStorage()._hasRole[role][account] */\n      0xffffffffffffffffffffffffffffffffffffffff\n      and\n      0xffffffffffffffffffffffffffffffffffffffff\n      and\n      dup2\n      mstore\n      0x20\n      add\n      swap1\n      dup2\n      mstore\n      0x20\n      add\n      0x00\n      keccak256\n      0x00\n      swap1\n      sload\n      swap1\n      0x0100\n      exp\n      swap1\n      div\n      0xff\n      and\n        /* \".deps/npm/@thirdweb-dev/dynamic-contracts/extension/upgradeable/Permissions.sol\":2040:2092  return _permissionsStorage()._hasRole[role][account] */\n      swap1\n      pop\n        /* \".deps/npm/@thirdweb-dev/dynamic-contracts/extension/upgradeable/Permissions.sol\":1945:2100  function hasRole(bytes32 role, address account) public view override returns (bool) {... */\n      swap3\n      swap2\n      pop\n      pop\n      jump\t// out\n        /* \".deps/npm/@thirdweb-dev/dynamic-contracts/extension/upgradeable/Permissions.sol\":1346:1395  bytes32 public constant DEFAULT_ADMIN_ROLE = 0x00 */\n    tag_30:\n        /* \".deps/npm/@thirdweb-dev/dynamic-contracts/extension/upgradeable/Permissions.sol\":1391:1395  0x00 */\n      0x00\n        /* \".deps/npm/@thirdweb-dev/dynamic-contracts/extension/upgradeable/Permissions.sol\":1346:1395  bytes32 public constant DEFAULT_ADMIN_ROLE = 0x00 */\n      dup1\n      shl\n      dup2\n      jump\t// out\n        /* \".deps/npm/@thirdweb-dev/dynamic-contracts/extension/upgradeable/Permissions.sol\":2867:3128  function hasRoleWithSwitch(bytes32 role, address account) public view returns (bool) {... */\n    tag_34:\n        /* \".deps/npm/@thirdweb-dev/dynamic-contracts/extension/upgradeable/Permissions.sol\":2946:2950  bool */\n      0x00\n        /* \".deps/npm/@thirdweb-dev/dynamic-contracts/extension/upgradeable/Permissions.sol\":2968:2989  _permissionsStorage() */\n      tag_64\n        /* \".deps/npm/@thirdweb-dev/dynamic-contracts/extension/upgradeable/Permissions.sol\":2968:2987  _permissionsStorage */\n      tag_41\n        /* \".deps/npm/@thirdweb-dev/dynamic-contracts/extension/upgradeable/Permissions.sol\":2968:2989  _permissionsStorage() */\n      jump\t// in\n    tag_64:\n        /* \".deps/npm/@thirdweb-dev/dynamic-contracts/extension/upgradeable/Permissions.sol\":2968:2998  _permissionsStorage()._hasRole */\n      0x00\n      add\n        /* \".deps/npm/@thirdweb-dev/dynamic-contracts/extension/upgradeable/Permissions.sol\":2968:3004  _permissionsStorage()._hasRole[role] */\n      0x00\n        /* \".deps/npm/@thirdweb-dev/dynamic-contracts/extension/upgradeable/Permissions.sol\":2999:3003  role */\n      dup5\n        /* \".deps/npm/@thirdweb-dev/dynamic-contracts/extension/upgradeable/Permissions.sol\":2968:3004  _permissionsStorage()._hasRole[role] */\n      dup2\n      mstore\n      0x20\n      add\n      swap1\n      dup2\n      mstore\n      0x20\n      add\n      0x00\n      keccak256\n        /* \".deps/npm/@thirdweb-dev/dynamic-contracts/extension/upgradeable/Permissions.sol\":2968:3016  _permissionsStorage()._hasRole[role][address(0)] */\n      0x00\n        /* \".deps/npm/@thirdweb-dev/dynamic-contracts/extension/upgradeable/Permissions.sol\":3013:3014  0 */\n      dup1\n        /* \".deps/npm/@thirdweb-dev/dynamic-contracts/extension/upgradeable/Permissions.sol\":2968:3016  _permissionsStorage()._hasRole[role][address(0)] */\n      0xffffffffffffffffffffffffffffffffffffffff\n      and\n      0xffffffffffffffffffffffffffffffffffffffff\n      and\n      dup2\n      mstore\n      0x20\n      add\n      swap1\n      dup2\n      mstore\n      0x20\n      add\n      0x00\n      keccak256\n      0x00\n      swap1\n      sload\n      swap1\n      0x0100\n      exp\n      swap1\n      div\n      0xff\n      and\n        /* \".deps/npm/@thirdweb-dev/dynamic-contracts/extension/upgradeable/Permissions.sol\":2963:3097  if (!_permissionsStorage()._hasRole[role][address(0)]) {... */\n      tag_65\n      jumpi\n        /* \".deps/npm/@thirdweb-dev/dynamic-contracts/extension/upgradeable/Permissions.sol\":3040:3061  _permissionsStorage() */\n      tag_66\n        /* \".deps/npm/@thirdweb-dev/dynamic-contracts/extension/upgradeable/Permissions.sol\":3040:3059  _permissionsStorage */\n      tag_41\n        /* \".deps/npm/@thirdweb-dev/dynamic-contracts/extension/upgradeable/Permissions.sol\":3040:3061  _permissionsStorage() */\n      jump\t// in\n    tag_66:\n        /* \".deps/npm/@thirdweb-dev/dynamic-contracts/extension/upgradeable/Permissions.sol\":3040:3070  _permissionsStorage()._hasRole */\n      0x00\n      add\n        /* \".deps/npm/@thirdweb-dev/dynamic-contracts/extension/upgradeable/Permissions.sol\":3040:3076  _permissionsStorage()._hasRole[role] */\n      0x00\n        /* \".deps/npm/@thirdweb-dev/dynamic-contracts/extension/upgradeable/Permissions.sol\":3071:3075  role */\n      dup5\n        /* \".deps/npm/@thirdweb-dev/dynamic-contracts/extension/upgradeable/Permissions.sol\":3040:3076  _permissionsStorage()._hasRole[role] */\n      dup2\n      mstore\n      0x20\n      add\n      swap1\n      dup2\n      mstore\n      0x20\n      add\n      0x00\n      keccak256\n        /* \".deps/npm/@thirdweb-dev/dynamic-contracts/extension/upgradeable/Permissions.sol\":3040:3085  _permissionsStorage()._hasRole[role][account] */\n      0x00\n        /* \".deps/npm/@thirdweb-dev/dynamic-contracts/extension/upgradeable/Permissions.sol\":3077:3084  account */\n      dup4\n        /* \".deps/npm/@thirdweb-dev/dynamic-contracts/extension/upgradeable/Permissions.sol\":3040:3085  _permissionsStorage()._hasRole[role][account] */\n      0xffffffffffffffffffffffffffffffffffffffff\n      and\n      0xffffffffffffffffffffffffffffffffffffffff\n      and\n      dup2\n      mstore\n      0x20\n      add\n      swap1\n      dup2\n      mstore\n      0x20\n      add\n      0x00\n      keccak256\n      0x00\n      swap1\n      sload\n      swap1\n      0x0100\n      exp\n      swap1\n      div\n      0xff\n      and\n        /* \".deps/npm/@thirdweb-dev/dynamic-contracts/extension/upgradeable/Permissions.sol\":3033:3085  return _permissionsStorage()._hasRole[role][account] */\n      swap1\n      pop\n      jump(tag_63)\n        /* \".deps/npm/@thirdweb-dev/dynamic-contracts/extension/upgradeable/Permissions.sol\":2963:3097  if (!_permissionsStorage()._hasRole[role][address(0)]) {... */\n    tag_65:\n        /* \".deps/npm/@thirdweb-dev/dynamic-contracts/extension/upgradeable/Permissions.sol\":3116:3120  true */\n      0x01\n        /* \".deps/npm/@thirdweb-dev/dynamic-contracts/extension/upgradeable/Permissions.sol\":3109:3120  return true */\n      swap1\n      pop\n        /* \".deps/npm/@thirdweb-dev/dynamic-contracts/extension/upgradeable/Permissions.sol\":2867:3128  function hasRoleWithSwitch(bytes32 role, address account) public view returns (bool) {... */\n    tag_63:\n      swap3\n      swap2\n      pop\n      pop\n      jump\t// out\n        /* \".deps/npm/@thirdweb-dev/dynamic-contracts/extension/upgradeable/Permissions.sol\":4713:4911  function revokeRole(bytes32 role, address account) public virtual override {... */\n    tag_38:\n        /* \".deps/npm/@thirdweb-dev/dynamic-contracts/extension/upgradeable/Permissions.sol\":4799:4866  _checkRole(_permissionsStorage()._getRoleAdmin[role], _msgSender()) */\n      tag_68\n        /* \".deps/npm/@thirdweb-dev/dynamic-contracts/extension/upgradeable/Permissions.sol\":4810:4831  _permissionsStorage() */\n      tag_69\n        /* \".deps/npm/@thirdweb-dev/dynamic-contracts/extension/upgradeable/Permissions.sol\":4810:4829  _permissionsStorage */\n      tag_41\n        /* \".deps/npm/@thirdweb-dev/dynamic-contracts/extension/upgradeable/Permissions.sol\":4810:4831  _permissionsStorage() */\n      jump\t// in\n    tag_69:\n        /* \".deps/npm/@thirdweb-dev/dynamic-contracts/extension/upgradeable/Permissions.sol\":4810:4845  _permissionsStorage()._getRoleAdmin */\n      0x01\n      add\n        /* \".deps/npm/@thirdweb-dev/dynamic-contracts/extension/upgradeable/Permissions.sol\":4810:4851  _permissionsStorage()._getRoleAdmin[role] */\n      0x00\n        /* \".deps/npm/@thirdweb-dev/dynamic-contracts/extension/upgradeable/Permissions.sol\":4846:4850  role */\n      dup5\n        /* \".deps/npm/@thirdweb-dev/dynamic-contracts/extension/upgradeable/Permissions.sol\":4810:4851  _permissionsStorage()._getRoleAdmin[role] */\n      dup2\n      mstore\n      0x20\n      add\n      swap1\n      dup2\n      mstore\n      0x20\n      add\n      0x00\n      keccak256\n      sload\n        /* \".deps/npm/@thirdweb-dev/dynamic-contracts/extension/upgradeable/Permissions.sol\":4853:4865  _msgSender() */\n      tag_70\n        /* \".deps/npm/@thirdweb-dev/dynamic-contracts/extension/upgradeable/Permissions.sol\":4853:4863  _msgSender */\n      tag_46\n        /* \".deps/npm/@thirdweb-dev/dynamic-contracts/extension/upgradeable/Permissions.sol\":4853:4865  _msgSender() */\n      jump\t// in\n    tag_70:\n        /* \".deps/npm/@thirdweb-dev/dynamic-contracts/extension/upgradeable/Permissions.sol\":4799:4809  _checkRole */\n      tag_47\n        /* \".deps/npm/@thirdweb-dev/dynamic-contracts/extension/upgradeable/Permissions.sol\":4799:4866  _checkRole(_permissionsStorage()._getRoleAdmin[role], _msgSender()) */\n      jump\t// in\n    tag_68:\n        /* \".deps/npm/@thirdweb-dev/dynamic-contracts/extension/upgradeable/Permissions.sol\":4877:4903  _revokeRole(role, account) */\n      tag_71\n        /* \".deps/npm/@thirdweb-dev/dynamic-contracts/extension/upgradeable/Permissions.sol\":4889:4893  role */\n      dup3\n        /* \".deps/npm/@thirdweb-dev/dynamic-contracts/extension/upgradeable/Permissions.sol\":4895:4902  account */\n      dup3\n        /* \".deps/npm/@thirdweb-dev/dynamic-contracts/extension/upgradeable/Permissions.sol\":4877:4888  _revokeRole */\n      tag_60\n        /* \".deps/npm/@thirdweb-dev/dynamic-contracts/extension/upgradeable/Permissions.sol\":4877:4903  _revokeRole(role, account) */\n      jump\t// in\n    tag_71:\n        /* \".deps/npm/@thirdweb-dev/dynamic-contracts/extension/upgradeable/Permissions.sol\":4713:4911  function revokeRole(bytes32 role, address account) public virtual override {... */\n      pop\n      pop\n      jump\t// out\n        /* \".deps/npm/@thirdweb-dev/dynamic-contracts/extension/upgradeable/Permissions.sol\":7961:8104  function _permissionsStorage() internal pure returns (PermissionsStorage.Data storage data) {... */\n    tag_41:\n        /* \".deps/npm/@thirdweb-dev/dynamic-contracts/extension/upgradeable/Permissions.sol\":8015:8051  PermissionsStorage.Data storage data */\n      0x00\n        /* \".deps/npm/@thirdweb-dev/dynamic-contracts/extension/upgradeable/Permissions.sol\":8071:8096  PermissionsStorage.data() */\n      tag_73\n        /* \".deps/npm/@thirdweb-dev/dynamic-contracts/extension/upgradeable/Permissions.sol\":8071:8094  PermissionsStorage.data */\n      tag_74\n        /* \".deps/npm/@thirdweb-dev/dynamic-contracts/extension/upgradeable/Permissions.sol\":8071:8096  PermissionsStorage.data() */\n      jump\t// in\n    tag_73:\n        /* \".deps/npm/@thirdweb-dev/dynamic-contracts/extension/upgradeable/Permissions.sol\":8064:8096  data = PermissionsStorage.data() */\n      swap1\n      pop\n        /* \".deps/npm/@thirdweb-dev/dynamic-contracts/extension/upgradeable/Permissions.sol\":7961:8104  function _permissionsStorage() internal pure returns (PermissionsStorage.Data storage data) {... */\n      swap1\n      jump\t// out\n        /* \".deps/npm/@thirdweb-dev/dynamic-contracts/extension/upgradeable/Permissions.sol\":7692:7797  function _msgSender() internal view virtual returns (address sender) {... */\n    tag_46:\n        /* \".deps/npm/@thirdweb-dev/dynamic-contracts/extension/upgradeable/Permissions.sol\":7745:7759  address sender */\n      0x00\n        /* \".deps/npm/@thirdweb-dev/dynamic-contracts/extension/upgradeable/Permissions.sol\":7779:7789  msg.sender */\n      caller\n        /* \".deps/npm/@thirdweb-dev/dynamic-contracts/extension/upgradeable/Permissions.sol\":7772:7789  return msg.sender */\n      swap1\n      pop\n        /* \".deps/npm/@thirdweb-dev/dynamic-contracts/extension/upgradeable/Permissions.sol\":7692:7797  function _msgSender() internal view virtual returns (address sender) {... */\n      swap1\n      jump\t// out\n        /* \".deps/npm/@thirdweb-dev/dynamic-contracts/extension/upgradeable/Permissions.sol\":6532:7058  function _checkRole(bytes32 role, address account) internal view virtual {... */\n    tag_47:\n        /* \".deps/npm/@thirdweb-dev/dynamic-contracts/extension/upgradeable/Permissions.sol\":6621:6642  _permissionsStorage() */\n      tag_77\n        /* \".deps/npm/@thirdweb-dev/dynamic-contracts/extension/upgradeable/Permissions.sol\":6621:6640  _permissionsStorage */\n      tag_41\n        /* \".deps/npm/@thirdweb-dev/dynamic-contracts/extension/upgradeable/Permissions.sol\":6621:6642  _permissionsStorage() */\n      jump\t// in\n    tag_77:\n        /* \".deps/npm/@thirdweb-dev/dynamic-contracts/extension/upgradeable/Permissions.sol\":6621:6651  _permissionsStorage()._hasRole */\n      0x00\n      add\n        /* \".deps/npm/@thirdweb-dev/dynamic-contracts/extension/upgradeable/Permissions.sol\":6621:6657  _permissionsStorage()._hasRole[role] */\n      0x00\n        /* \".deps/npm/@thirdweb-dev/dynamic-contracts/extension/upgradeable/Permissions.sol\":6652:6656  role */\n      dup4\n        /* \".deps/npm/@thirdweb-dev/dynamic-contracts/extension/upgradeable/Permissions.sol\":6621:6657  _permissionsStorage()._hasRole[role] */\n      dup2\n      mstore\n      0x20\n      add\n      swap1\n      dup2\n      mstore\n      0x20\n      add\n      0x00\n      keccak256\n        /* \".deps/npm/@thirdweb-dev/dynamic-contracts/extension/upgradeable/Permissions.sol\":6621:6666  _permissionsStorage()._hasRole[role][account] */\n      0x00\n        /* \".deps/npm/@thirdweb-dev/dynamic-contracts/extension/upgradeable/Permissions.sol\":6658:6665  account */\n      dup3\n        /* \".deps/npm/@thirdweb-dev/dynamic-contracts/extension/upgradeable/Permissions.sol\":6621:6666  _permissionsStorage()._hasRole[role][account] */\n      0xffffffffffffffffffffffffffffffffffffffff\n      and\n      0xffffffffffffffffffffffffffffffffffffffff\n      and\n      dup2\n      mstore\n      0x20\n      add\n      swap1\n      dup2\n      mstore\n      0x20\n      add\n      0x00\n      keccak256\n      0x00\n      swap1\n      sload\n      swap1\n      0x0100\n      exp\n      swap1\n      div\n      0xff\n      and\n        /* \".deps/npm/@thirdweb-dev/dynamic-contracts/extension/upgradeable/Permissions.sol\":6616:7051  if (!_permissionsStorage()._hasRole[role][account]) {... */\n      tag_78\n      jumpi\n        /* \".deps/npm/@thirdweb-dev/dynamic-contracts/extension/upgradeable/Permissions.sol\":6830:6871  Strings.toHexString(uint160(account), 20) */\n      tag_79\n        /* \".deps/npm/@thirdweb-dev/dynamic-contracts/extension/upgradeable/Permissions.sol\":6858:6865  account */\n      dup2\n        /* \".deps/npm/@thirdweb-dev/dynamic-contracts/extension/upgradeable/Permissions.sol\":6830:6871  Strings.toHexString(uint160(account), 20) */\n      0xffffffffffffffffffffffffffffffffffffffff\n      and\n        /* \".deps/npm/@thirdweb-dev/dynamic-contracts/extension/upgradeable/Permissions.sol\":6868:6870  20 */\n      0x14\n        /* \".deps/npm/@thirdweb-dev/dynamic-contracts/extension/upgradeable/Permissions.sol\":6830:6849  Strings.toHexString */\n      tag_80\n        /* \".deps/npm/@thirdweb-dev/dynamic-contracts/extension/upgradeable/Permissions.sol\":6830:6871  Strings.toHexString(uint160(account), 20) */\n      jump\t// in\n    tag_79:\n        /* \".deps/npm/@thirdweb-dev/dynamic-contracts/extension/upgradeable/Permissions.sol\":6944:6982  Strings.toHexString(uint256(role), 32) */\n      tag_81\n        /* \".deps/npm/@thirdweb-dev/dynamic-contracts/extension/upgradeable/Permissions.sol\":6972:6976  role */\n      dup4\n        /* \".deps/npm/@thirdweb-dev/dynamic-contracts/extension/upgradeable/Permissions.sol\":6964:6977  uint256(role) */\n      0x00\n      shr\n        /* \".deps/npm/@thirdweb-dev/dynamic-contracts/extension/upgradeable/Permissions.sol\":6979:6981  32 */\n      0x20\n        /* \".deps/npm/@thirdweb-dev/dynamic-contracts/extension/upgradeable/Permissions.sol\":6944:6963  Strings.toHexString */\n      tag_80\n        /* \".deps/npm/@thirdweb-dev/dynamic-contracts/extension/upgradeable/Permissions.sol\":6944:6982  Strings.toHexString(uint256(role), 32) */\n      jump\t// in\n    tag_81:\n        /* \".deps/npm/@thirdweb-dev/dynamic-contracts/extension/upgradeable/Permissions.sol\":6737:7005  abi.encodePacked(... */\n      add(0x20, mload(0x40))\n      tag_82\n      swap3\n      swap2\n      swap1\n      tag_83\n      jump\t// in\n    tag_82:\n      mload(0x40)\n      0x20\n      dup2\n      dup4\n      sub\n      sub\n      dup2\n      mstore\n      swap1\n      0x40\n      mstore\n        /* \".deps/npm/@thirdweb-dev/dynamic-contracts/extension/upgradeable/Permissions.sol\":6683:7039  revert(... */\n      mload(0x40)\n      0x08c379a000000000000000000000000000000000000000000000000000000000\n      dup2\n      mstore\n      0x04\n      add\n      tag_84\n      swap2\n      swap1\n      tag_85\n      jump\t// in\n    tag_84:\n      mload(0x40)\n      dup1\n      swap2\n      sub\n      swap1\n      revert\n        /* \".deps/npm/@thirdweb-dev/dynamic-contracts/extension/upgradeable/Permissions.sol\":6616:7051  if (!_permissionsStorage()._hasRole[role][account]) {... */\n    tag_78:\n        /* \".deps/npm/@thirdweb-dev/dynamic-contracts/extension/upgradeable/Permissions.sol\":6532:7058  function _checkRole(bytes32 role, address account) internal view virtual {... */\n      pop\n      pop\n      jump\t// out\n        /* \".deps/npm/@thirdweb-dev/dynamic-contracts/extension/upgradeable/Permissions.sol\":5950:6145  function _setupRole(bytes32 role, address account) internal virtual {... */\n    tag_53:\n        /* \".deps/npm/@thirdweb-dev/dynamic-contracts/extension/upgradeable/Permissions.sol\":6077:6081  true */\n      0x01\n        /* \".deps/npm/@thirdweb-dev/dynamic-contracts/extension/upgradeable/Permissions.sol\":6029:6050  _permissionsStorage() */\n      tag_87\n        /* \".deps/npm/@thirdweb-dev/dynamic-contracts/extension/upgradeable/Permissions.sol\":6029:6048  _permissionsStorage */\n      tag_41\n        /* \".deps/npm/@thirdweb-dev/dynamic-contracts/extension/upgradeable/Permissions.sol\":6029:6050  _permissionsStorage() */\n      jump\t// in\n    tag_87:\n        /* \".deps/npm/@thirdweb-dev/dynamic-contracts/extension/upgradeable/Permissions.sol\":6029:6059  _permissionsStorage()._hasRole */\n      0x00\n      add\n        /* \".deps/npm/@thirdweb-dev/dynamic-contracts/extension/upgradeable/Permissions.sol\":6029:6065  _permissionsStorage()._hasRole[role] */\n      0x00\n        /* \".deps/npm/@thirdweb-dev/dynamic-contracts/extension/upgradeable/Permissions.sol\":6060:6064  role */\n      dup5\n        /* \".deps/npm/@thirdweb-dev/dynamic-contracts/extension/upgradeable/Permissions.sol\":6029:6065  _permissionsStorage()._hasRole[role] */\n      dup2\n      mstore\n      0x20\n      add\n      swap1\n      dup2\n      mstore\n      0x20\n      add\n      0x00\n      keccak256\n        /* \".deps/npm/@thirdweb-dev/dynamic-contracts/extension/upgradeable/Permissions.sol\":6029:6074  _permissionsStorage()._hasRole[role][account] */\n      0x00\n        /* \".deps/npm/@thirdweb-dev/dynamic-contracts/extension/upgradeable/Permissions.sol\":6066:6073  account */\n      dup4\n        /* \".deps/npm/@thirdweb-dev/dynamic-contracts/extension/upgradeable/Permissions.sol\":6029:6074  _permissionsStorage()._hasRole[role][account] */\n      0xffffffffffffffffffffffffffffffffffffffff\n      and\n      0xffffffffffffffffffffffffffffffffffffffff\n      and\n      dup2\n      mstore\n      0x20\n      add\n      swap1\n      dup2\n      mstore\n      0x20\n      add\n      0x00\n      keccak256\n      0x00\n        /* \".deps/npm/@thirdweb-dev/dynamic-contracts/extension/upgradeable/Permissions.sol\":6029:6081  _permissionsStorage()._hasRole[role][account] = true */\n      0x0100\n      exp\n      dup2\n      sload\n      dup2\n      0xff\n      mul\n      not\n      and\n      swap1\n      dup4\n      iszero\n      iszero\n      mul\n      or\n      swap1\n      sstore\n      pop\n        /* \".deps/npm/@thirdweb-dev/dynamic-contracts/extension/upgradeable/Permissions.sol\":6124:6136  _msgSender() */\n      tag_88\n        /* \".deps/npm/@thirdweb-dev/dynamic-contracts/extension/upgradeable/Permissions.sol\":6124:6134  _msgSender */\n      tag_46\n        /* \".deps/npm/@thirdweb-dev/dynamic-contracts/extension/upgradeable/Permissions.sol\":6124:6136  _msgSender() */\n      jump\t// in\n    tag_88:\n        /* \".deps/npm/@thirdweb-dev/dynamic-contracts/extension/upgradeable/Permissions.sol\":6097:6137  RoleGranted(role, account, _msgSender()) */\n      0xffffffffffffffffffffffffffffffffffffffff\n      and\n        /* \".deps/npm/@thirdweb-dev/dynamic-contracts/extension/upgradeable/Permissions.sol\":6115:6122  account */\n      dup2\n        /* \".deps/npm/@thirdweb-dev/dynamic-contracts/extension/upgradeable/Permissions.sol\":6097:6137  RoleGranted(role, account, _msgSender()) */\n      0xffffffffffffffffffffffffffffffffffffffff\n      and\n        /* \".deps/npm/@thirdweb-dev/dynamic-contracts/extension/upgradeable/Permissions.sol\":6109:6113  role */\n      dup4\n        /* \".deps/npm/@thirdweb-dev/dynamic-contracts/extension/upgradeable/Permissions.sol\":6097:6137  RoleGranted(role, account, _msgSender()) */\n      0x2f8788117e7eff1d82e926ec794901d17c78024a50270940304540a733656f0d\n      mload(0x40)\n      mload(0x40)\n      dup1\n      swap2\n      sub\n      swap1\n      log4\n        /* \".deps/npm/@thirdweb-dev/dynamic-contracts/extension/upgradeable/Permissions.sol\":5950:6145  function _setupRole(bytes32 role, address account) internal virtual {... */\n      pop\n      pop\n      jump\t// out\n        /* \".deps/npm/@thirdweb-dev/dynamic-contracts/extension/upgradeable/Permissions.sol\":6197:6429  function _revokeRole(bytes32 role, address account) internal virtual {... */\n    tag_60:\n        /* \".deps/npm/@thirdweb-dev/dynamic-contracts/extension/upgradeable/Permissions.sol\":6277:6302  _checkRole(role, account) */\n      tag_90\n        /* \".deps/npm/@thirdweb-dev/dynamic-contracts/extension/upgradeable/Permissions.sol\":6288:6292  role */\n      dup3\n        /* \".deps/npm/@thirdweb-dev/dynamic-contracts/extension/upgradeable/Permissions.sol\":6294:6301  account */\n      dup3\n        /* \".deps/npm/@thirdweb-dev/dynamic-contracts/extension/upgradeable/Permissions.sol\":6277:6287  _checkRole */\n      tag_47\n        /* \".deps/npm/@thirdweb-dev/dynamic-contracts/extension/upgradeable/Permissions.sol\":6277:6302  _checkRole(role, account) */\n      jump\t// in\n    tag_90:\n        /* \".deps/npm/@thirdweb-dev/dynamic-contracts/extension/upgradeable/Permissions.sol\":6320:6341  _permissionsStorage() */\n      tag_91\n        /* \".deps/npm/@thirdweb-dev/dynamic-contracts/extension/upgradeable/Permissions.sol\":6320:6339  _permissionsStorage */\n      tag_41\n        /* \".deps/npm/@thirdweb-dev/dynamic-contracts/extension/upgradeable/Permissions.sol\":6320:6341  _permissionsStorage() */\n      jump\t// in\n    tag_91:\n        /* \".deps/npm/@thirdweb-dev/dynamic-contracts/extension/upgradeable/Permissions.sol\":6320:6350  _permissionsStorage()._hasRole */\n      0x00\n      add\n        /* \".deps/npm/@thirdweb-dev/dynamic-contracts/extension/upgradeable/Permissions.sol\":6320:6356  _permissionsStorage()._hasRole[role] */\n      0x00\n        /* \".deps/npm/@thirdweb-dev/dynamic-contracts/extension/upgradeable/Permissions.sol\":6351:6355  role */\n      dup4\n        /* \".deps/npm/@thirdweb-dev/dynamic-contracts/extension/upgradeable/Permissions.sol\":6320:6356  _permissionsStorage()._hasRole[role] */\n      dup2\n      mstore\n      0x20\n      add\n      swap1\n      dup2\n      mstore\n      0x20\n      add\n      0x00\n      keccak256\n        /* \".deps/npm/@thirdweb-dev/dynamic-contracts/extension/upgradeable/Permissions.sol\":6320:6365  _permissionsStorage()._hasRole[role][account] */\n      0x00\n        /* \".deps/npm/@thirdweb-dev/dynamic-contracts/extension/upgradeable/Permissions.sol\":6357:6364  account */\n      dup3\n        /* \".deps/npm/@thirdweb-dev/dynamic-contracts/extension/upgradeable/Permissions.sol\":6320:6365  _permissionsStorage()._hasRole[role][account] */\n      0xffffffffffffffffffffffffffffffffffffffff\n      and\n      0xffffffffffffffffffffffffffffffffffffffff\n      and\n      dup2\n      mstore\n      0x20\n      add\n      swap1\n      dup2\n      mstore\n      0x20\n      add\n      0x00\n      keccak256\n      0x00\n        /* \".deps/npm/@thirdweb-dev/dynamic-contracts/extension/upgradeable/Permissions.sol\":6313:6365  delete _permissionsStorage()._hasRole[role][account] */\n      0x0100\n      exp\n      dup2\n      sload\n      swap1\n      0xff\n      mul\n      not\n      and\n      swap1\n      sstore\n        /* \".deps/npm/@thirdweb-dev/dynamic-contracts/extension/upgradeable/Permissions.sol\":6408:6420  _msgSender() */\n      tag_92\n        /* \".deps/npm/@thirdweb-dev/dynamic-contracts/extension/upgradeable/Permissions.sol\":6408:6418  _msgSender */\n      tag_46\n        /* \".deps/npm/@thirdweb-dev/dynamic-contracts/extension/upgradeable/Permissions.sol\":6408:6420  _msgSender() */\n      jump\t// in\n    tag_92:\n        /* \".deps/npm/@thirdweb-dev/dynamic-contracts/extension/upgradeable/Permissions.sol\":6381:6421  RoleRevoked(role, account, _msgSender()) */\n      0xffffffffffffffffffffffffffffffffffffffff\n      and\n        /* \".deps/npm/@thirdweb-dev/dynamic-contracts/extension/upgradeable/Permissions.sol\":6399:6406  account */\n      dup2\n        /* \".deps/npm/@thirdweb-dev/dynamic-contracts/extension/upgradeable/Permissions.sol\":6381:6421  RoleRevoked(role, account, _msgSender()) */\n      0xffffffffffffffffffffffffffffffffffffffff\n      and\n        /* \".deps/npm/@thirdweb-dev/dynamic-contracts/extension/upgradeable/Permissions.sol\":6393:6397  role */\n      dup4\n        /* \".deps/npm/@thirdweb-dev/dynamic-contracts/extension/upgradeable/Permissions.sol\":6381:6421  RoleRevoked(role, account, _msgSender()) */\n      0xf6391f5c32d9c69d2a47ea670b442974b53935d1edc7fd64eb21e047a839171b\n      mload(0x40)\n      mload(0x40)\n      dup1\n      swap2\n      sub\n      swap1\n      log4\n        /* \".deps/npm/@thirdweb-dev/dynamic-contracts/extension/upgradeable/Permissions.sol\":6197:6429  function _revokeRole(bytes32 role, address account) internal virtual {... */\n      pop\n      pop\n      jump\t// out\n        /* \".deps/npm/@thirdweb-dev/dynamic-contracts/extension/upgradeable/Permissions.sol\":996:1188  function data() internal pure returns (Data storage data_) {... */\n    tag_74:\n        /* \".deps/npm/@thirdweb-dev/dynamic-contracts/extension/upgradeable/Permissions.sol\":1035:1053  Data storage data_ */\n      0x00\n        /* \".deps/npm/@thirdweb-dev/dynamic-contracts/extension/upgradeable/Permissions.sol\":1066:1082  bytes32 position */\n      dup1\n        /* \".deps/npm/@thirdweb-dev/dynamic-contracts/extension/upgradeable/Permissions.sol\":585:651  0x0a7b0f5c59907924802379ebe98cdc23e2ee7820f63d30126e10b3752010e500 */\n      0x0a7b0f5c59907924802379ebe98cdc23e2ee7820f63d30126e10b3752010e500\n        /* \".deps/npm/@thirdweb-dev/dynamic-contracts/extension/upgradeable/Permissions.sol\":1085:1113  PERMISSIONS_STORAGE_POSITION */\n      0x00\n      shl\n        /* \".deps/npm/@thirdweb-dev/dynamic-contracts/extension/upgradeable/Permissions.sol\":1066:1113  bytes32 position = PERMISSIONS_STORAGE_POSITION */\n      swap1\n      pop\n        /* \".deps/npm/@thirdweb-dev/dynamic-contracts/extension/upgradeable/Permissions.sol\":1162:1170  position */\n      dup1\n        /* \".deps/npm/@thirdweb-dev/dynamic-contracts/extension/upgradeable/Permissions.sol\":1148:1170  data_.slot := position */\n      swap2\n      pop\n        /* \".deps/npm/@thirdweb-dev/dynamic-contracts/extension/upgradeable/Permissions.sol\":1133:1181  {... */\n      pop\n        /* \".deps/npm/@thirdweb-dev/dynamic-contracts/extension/upgradeable/Permissions.sol\":996:1188  function data() internal pure returns (Data storage data_) {... */\n      swap1\n      jump\t// out\n        /* \".deps/npm/@thirdweb-dev/dynamic-contracts/src/lib/Strings.sol\":1618:2069  function toHexString(uint256 value, uint256 length) internal pure returns (string memory) {... */\n    tag_80:\n        /* \".deps/npm/@thirdweb-dev/dynamic-contracts/src/lib/Strings.sol\":1693:1706  string memory */\n      0x60\n        /* \".deps/npm/@thirdweb-dev/dynamic-contracts/src/lib/Strings.sol\":1719:1738  bytes memory buffer */\n      0x00\n        /* \".deps/npm/@thirdweb-dev/dynamic-contracts/src/lib/Strings.sol\":1764:1765  2 */\n      0x02\n        /* \".deps/npm/@thirdweb-dev/dynamic-contracts/src/lib/Strings.sol\":1755:1761  length */\n      dup4\n        /* \".deps/npm/@thirdweb-dev/dynamic-contracts/src/lib/Strings.sol\":1751:1752  2 */\n      0x02\n        /* \".deps/npm/@thirdweb-dev/dynamic-contracts/src/lib/Strings.sol\":1751:1761  2 * length */\n      tag_95\n      swap2\n      swap1\n      tag_96\n      jump\t// in\n    tag_95:\n        /* \".deps/npm/@thirdweb-dev/dynamic-contracts/src/lib/Strings.sol\":1751:1765  2 * length + 2 */\n      tag_97\n      swap2\n      swap1\n      tag_98\n      jump\t// in\n    tag_97:\n        /* \".deps/npm/@thirdweb-dev/dynamic-contracts/src/lib/Strings.sol\":1741:1766  new bytes(2 * length + 2) */\n      0xffffffffffffffff\n      dup2\n      gt\n      iszero\n      tag_99\n      jumpi\n      tag_100\n      tag_101\n      jump\t// in\n    tag_100:\n    tag_99:\n      mload(0x40)\n      swap1\n      dup1\n      dup3\n      mstore\n      dup1\n      0x1f\n      add\n      not(0x1f)\n      and\n      0x20\n      add\n      dup3\n      add\n      0x40\n      mstore\n      dup1\n      iszero\n      tag_102\n      jumpi\n      dup2\n      0x20\n      add\n      0x01\n      dup3\n      mul\n      dup1\n      calldatasize\n      dup4\n      calldatacopy\n      dup1\n      dup3\n      add\n      swap2\n      pop\n      pop\n      swap1\n      pop\n    tag_102:\n      pop\n        /* \".deps/npm/@thirdweb-dev/dynamic-contracts/src/lib/Strings.sol\":1719:1766  bytes memory buffer = new bytes(2 * length + 2) */\n      swap1\n      pop\n        /* \".deps/npm/@thirdweb-dev/dynamic-contracts/src/lib/Strings.sol\":1777:1792  buffer[0] = \"0\" */\n      0x3000000000000000000000000000000000000000000000000000000000000000\n        /* \".deps/npm/@thirdweb-dev/dynamic-contracts/src/lib/Strings.sol\":1777:1783  buffer */\n      dup2\n        /* \".deps/npm/@thirdweb-dev/dynamic-contracts/src/lib/Strings.sol\":1784:1785  0 */\n      0x00\n        /* \".deps/npm/@thirdweb-dev/dynamic-contracts/src/lib/Strings.sol\":1777:1786  buffer[0] */\n      dup2\n      mload\n      dup2\n      lt\n      tag_103\n      jumpi\n      tag_104\n      tag_105\n      jump\t// in\n    tag_104:\n    tag_103:\n      0x20\n      add\n      add\n        /* \".deps/npm/@thirdweb-dev/dynamic-contracts/src/lib/Strings.sol\":1777:1792  buffer[0] = \"0\" */\n      swap1\n      not(0xffffffffffffffffffffffffffffffffffffffffffffffffffffffffffffff)\n      and\n      swap1\n      dup2\n      0x00\n      byte\n      swap1\n      mstore8\n      pop\n        /* \".deps/npm/@thirdweb-dev/dynamic-contracts/src/lib/Strings.sol\":1803:1818  buffer[1] = \"x\" */\n      0x7800000000000000000000000000000000000000000000000000000000000000\n        /* \".deps/npm/@thirdweb-dev/dynamic-contracts/src/lib/Strings.sol\":1803:1809  buffer */\n      dup2\n        /* \".deps/npm/@thirdweb-dev/dynamic-contracts/src/lib/Strings.sol\":1810:1811  1 */\n      0x01\n        /* \".deps/npm/@thirdweb-dev/dynamic-contracts/src/lib/Strings.sol\":1803:1812  buffer[1] */\n      dup2\n      mload\n      dup2\n      lt\n      tag_106\n      jumpi\n      tag_107\n      tag_105\n      jump\t// in\n    tag_107:\n    tag_106:\n      0x20\n      add\n      add\n        /* \".deps/npm/@thirdweb-dev/dynamic-contracts/src/lib/Strings.sol\":1803:1818  buffer[1] = \"x\" */\n      swap1\n      not(0xffffffffffffffffffffffffffffffffffffffffffffffffffffffffffffff)\n      and\n      swap1\n      dup2\n      0x00\n      byte\n      swap1\n      mstore8\n      pop\n        /* \".deps/npm/@thirdweb-dev/dynamic-contracts/src/lib/Strings.sol\":1834:1843  uint256 i */\n      0x00\n        /* \".deps/npm/@thirdweb-dev/dynamic-contracts/src/lib/Strings.sol\":1859:1860  1 */\n      0x01\n        /* \".deps/npm/@thirdweb-dev/dynamic-contracts/src/lib/Strings.sol\":1850:1856  length */\n      dup5\n        /* \".deps/npm/@thirdweb-dev/dynamic-contracts/src/lib/Strings.sol\":1846:1847  2 */\n      0x02\n        /* \".deps/npm/@thirdweb-dev/dynamic-contracts/src/lib/Strings.sol\":1846:1856  2 * length */\n      tag_111\n      swap2\n      swap1\n      tag_96\n      jump\t// in\n    tag_111:\n        /* \".deps/npm/@thirdweb-dev/dynamic-contracts/src/lib/Strings.sol\":1846:1860  2 * length + 1 */\n      tag_112\n      swap2\n      swap1\n      tag_98\n      jump\t// in\n    tag_112:\n        /* \".deps/npm/@thirdweb-dev/dynamic-contracts/src/lib/Strings.sol\":1834:1860  uint256 i = 2 * length + 1 */\n      swap1\n      pop\n        /* \".deps/npm/@thirdweb-dev/dynamic-contracts/src/lib/Strings.sol\":1829:1964  for (uint256 i = 2 * length + 1; i > 1; --i) {... */\n    tag_108:\n        /* \".deps/npm/@thirdweb-dev/dynamic-contracts/src/lib/Strings.sol\":1866:1867  1 */\n      0x01\n        /* \".deps/npm/@thirdweb-dev/dynamic-contracts/src/lib/Strings.sol\":1862:1863  i */\n      dup2\n        /* \".deps/npm/@thirdweb-dev/dynamic-contracts/src/lib/Strings.sol\":1862:1867  i > 1 */\n      gt\n        /* \".deps/npm/@thirdweb-dev/dynamic-contracts/src/lib/Strings.sol\":1829:1964  for (uint256 i = 2 * length + 1; i > 1; --i) {... */\n      iszero\n      tag_109\n      jumpi\n        /* \".deps/npm/@thirdweb-dev/dynamic-contracts/src/lib/Strings.sol\":1901:1913  _HEX_SYMBOLS */\n      0x3031323334353637383961626364656600000000000000000000000000000000\n        /* \".deps/npm/@thirdweb-dev/dynamic-contracts/src/lib/Strings.sol\":1922:1925  0xf */\n      0x0f\n        /* \".deps/npm/@thirdweb-dev/dynamic-contracts/src/lib/Strings.sol\":1914:1919  value */\n      dup7\n        /* \".deps/npm/@thirdweb-dev/dynamic-contracts/src/lib/Strings.sol\":1914:1925  value & 0xf */\n      and\n        /* \".deps/npm/@thirdweb-dev/dynamic-contracts/src/lib/Strings.sol\":1901:1926  _HEX_SYMBOLS[value & 0xf] */\n      0x10\n      dup2\n      lt\n      tag_113\n      jumpi\n      tag_114\n      tag_105\n      jump\t// in\n    tag_114:\n    tag_113:\n      byte\n      0xf8\n      shl\n        /* \".deps/npm/@thirdweb-dev/dynamic-contracts/src/lib/Strings.sol\":1889:1895  buffer */\n      dup3\n        /* \".deps/npm/@thirdweb-dev/dynamic-contracts/src/lib/Strings.sol\":1896:1897  i */\n      dup3\n        /* \".deps/npm/@thirdweb-dev/dynamic-contracts/src/lib/Strings.sol\":1889:1898  buffer[i] */\n      dup2\n      mload\n      dup2\n      lt\n      tag_115\n      jumpi\n      tag_116\n      tag_105\n      jump\t// in\n    tag_116:\n    tag_115:\n      0x20\n      add\n      add\n        /* \".deps/npm/@thirdweb-dev/dynamic-contracts/src/lib/Strings.sol\":1889:1926  buffer[i] = _HEX_SYMBOLS[value & 0xf] */\n      swap1\n      not(0xffffffffffffffffffffffffffffffffffffffffffffffffffffffffffffff)\n      and\n      swap1\n      dup2\n      0x00\n      byte\n      swap1\n      mstore8\n      pop\n        /* \".deps/npm/@thirdweb-dev/dynamic-contracts/src/lib/Strings.sol\":1951:1952  4 */\n      0x04\n        /* \".deps/npm/@thirdweb-dev/dynamic-contracts/src/lib/Strings.sol\":1941:1952  value >>= 4 */\n      dup6\n      swap1\n      shr\n      swap5\n      pop\n        /* \".deps/npm/@thirdweb-dev/dynamic-contracts/src/lib/Strings.sol\":1869:1872  --i */\n      dup1\n      tag_117\n      swap1\n      tag_118\n      jump\t// in\n    tag_117:\n      swap1\n      pop\n        /* \".deps/npm/@thirdweb-dev/dynamic-contracts/src/lib/Strings.sol\":1829:1964  for (uint256 i = 2 * length + 1; i > 1; --i) {... */\n      jump(tag_108)\n    tag_109:\n      pop\n        /* \".deps/npm/@thirdweb-dev/dynamic-contracts/src/lib/Strings.sol\":1991:1992  0 */\n      0x00\n        /* \".deps/npm/@thirdweb-dev/dynamic-contracts/src/lib/Strings.sol\":1982:1987  value */\n      dup5\n        /* \".deps/npm/@thirdweb-dev/dynamic-contracts/src/lib/Strings.sol\":1982:1992  value == 0 */\n      eq\n        /* \".deps/npm/@thirdweb-dev/dynamic-contracts/src/lib/Strings.sol\":1974:2029  require(value == 0, \"Strings: hex length insufficient\") */\n      tag_119\n      jumpi\n      mload(0x40)\n      0x08c379a000000000000000000000000000000000000000000000000000000000\n      dup2\n      mstore\n      0x04\n      add\n      tag_120\n      swap1\n      tag_121\n      jump\t// in\n    tag_120:\n      mload(0x40)\n      dup1\n      swap2\n      sub\n      swap1\n      revert\n    tag_119:\n        /* \".deps/npm/@thirdweb-dev/dynamic-contracts/src/lib/Strings.sol\":2054:2060  buffer */\n      dup1\n        /* \".deps/npm/@thirdweb-dev/dynamic-contracts/src/lib/Strings.sol\":2040:2061  return string(buffer) */\n      swap2\n      pop\n      pop\n        /* \".deps/npm/@thirdweb-dev/dynamic-contracts/src/lib/Strings.sol\":1618:2069  function toHexString(uint256 value, uint256 length) internal pure returns (string memory) {... */\n      swap3\n      swap2\n      pop\n      pop\n      jump\t// out\n        /* \"#utility.yul\":88:205   */\n    tag_123:\n        /* \"#utility.yul\":197:198   */\n      0x00\n        /* \"#utility.yul\":194:195   */\n      dup1\n        /* \"#utility.yul\":187:199   */\n      revert\n        /* \"#utility.yul\":334:411   */\n    tag_125:\n        /* \"#utility.yul\":371:378   */\n      0x00\n        /* \"#utility.yul\":400:405   */\n      dup2\n        /* \"#utility.yul\":389:405   */\n      swap1\n      pop\n        /* \"#utility.yul\":334:411   */\n      swap2\n      swap1\n      pop\n      jump\t// out\n        /* \"#utility.yul\":417:539   */\n    tag_126:\n        /* \"#utility.yul\":490:514   */\n      tag_160\n        /* \"#utility.yul\":508:513   */\n      dup2\n        /* \"#utility.yul\":490:514   */\n      tag_125\n      jump\t// in\n    tag_160:\n        /* \"#utility.yul\":483:488   */\n      dup2\n        /* \"#utility.yul\":480:515   */\n      eq\n        /* \"#utility.yul\":470:533   */\n      tag_161\n      jumpi\n        /* \"#utility.yul\":529:530   */\n      0x00\n        /* \"#utility.yul\":526:527   */\n      dup1\n        /* \"#utility.yul\":519:531   */\n      revert\n        /* \"#utility.yul\":470:533   */\n    tag_161:\n        /* \"#utility.yul\":417:539   */\n      pop\n      jump\t// out\n        /* \"#utility.yul\":545:684   */\n    tag_127:\n        /* \"#utility.yul\":591:596   */\n      0x00\n        /* \"#utility.yul\":629:635   */\n      dup2\n        /* \"#utility.yul\":616:636   */\n      calldataload\n        /* \"#utility.yul\":607:636   */\n      swap1\n      pop\n        /* \"#utility.yul\":645:678   */\n      tag_163\n        /* \"#utility.yul\":672:677   */\n      dup2\n        /* \"#utility.yul\":645:678   */\n      tag_126\n      jump\t// in\n    tag_163:\n        /* \"#utility.yul\":545:684   */\n      swap3\n      swap2\n      pop\n      pop\n      jump\t// out\n        /* \"#utility.yul\":690:1019   */\n    tag_13:\n        /* \"#utility.yul\":749:755   */\n      0x00\n        /* \"#utility.yul\":798:800   */\n      0x20\n        /* \"#utility.yul\":786:795   */\n      dup3\n        /* \"#utility.yul\":777:784   */\n      dup5\n        /* \"#utility.yul\":773:796   */\n      sub\n        /* \"#utility.yul\":769:801   */\n      slt\n        /* \"#utility.yul\":766:885   */\n      iszero\n      tag_165\n      jumpi\n        /* \"#utility.yul\":804:883   */\n      tag_166\n      tag_123\n      jump\t// in\n    tag_166:\n        /* \"#utility.yul\":766:885   */\n    tag_165:\n        /* \"#utility.yul\":924:925   */\n      0x00\n        /* \"#utility.yul\":949:1002   */\n      tag_167\n        /* \"#utility.yul\":994:1001   */\n      dup5\n        /* \"#utility.yul\":985:991   */\n      dup3\n        /* \"#utility.yul\":974:983   */\n      dup6\n        /* \"#utility.yul\":970:992   */\n      add\n        /* \"#utility.yul\":949:1002   */\n      tag_127\n      jump\t// in\n    tag_167:\n        /* \"#utility.yul\":939:1002   */\n      swap2\n      pop\n        /* \"#utility.yul\":895:1012   */\n      pop\n        /* \"#utility.yul\":690:1019   */\n      swap3\n      swap2\n      pop\n      pop\n      jump\t// out\n        /* \"#utility.yul\":1025:1143   */\n    tag_128:\n        /* \"#utility.yul\":1112:1136   */\n      tag_169\n        /* \"#utility.yul\":1130:1135   */\n      dup2\n        /* \"#utility.yul\":1112:1136   */\n      tag_125\n      jump\t// in\n    tag_169:\n        /* \"#utility.yul\":1107:1110   */\n      dup3\n        /* \"#utility.yul\":1100:1137   */\n      mstore\n        /* \"#utility.yul\":1025:1143   */\n      pop\n      pop\n      jump\t// out\n        /* \"#utility.yul\":1149:1371   */\n    tag_16:\n        /* \"#utility.yul\":1242:1246   */\n      0x00\n        /* \"#utility.yul\":1280:1282   */\n      0x20\n        /* \"#utility.yul\":1269:1278   */\n      dup3\n        /* \"#utility.yul\":1265:1283   */\n      add\n        /* \"#utility.yul\":1257:1283   */\n      swap1\n      pop\n        /* \"#utility.yul\":1293:1364   */\n      tag_171\n        /* \"#utility.yul\":1361:1362   */\n      0x00\n        /* \"#utility.yul\":1350:1359   */\n      dup4\n        /* \"#utility.yul\":1346:1363   */\n      add\n        /* \"#utility.yul\":1337:1343   */\n      dup5\n        /* \"#utility.yul\":1293:1364   */\n      tag_128\n      jump\t// in\n    tag_171:\n        /* \"#utility.yul\":1149:1371   */\n      swap3\n      swap2\n      pop\n      pop\n      jump\t// out\n        /* \"#utility.yul\":1377:1503   */\n    tag_129:\n        /* \"#utility.yul\":1414:1421   */\n      0x00\n        /* \"#utility.yul\":1454:1496   */\n      0xffffffffffffffffffffffffffffffffffffffff\n        /* \"#utility.yul\":1447:1452   */\n      dup3\n        /* \"#utility.yul\":1443:1497   */\n      and\n        /* \"#utility.yul\":1432:1497   */\n      swap1\n      pop\n        /* \"#utility.yul\":1377:1503   */\n      swap2\n      swap1\n      pop\n      jump\t// out\n        /* \"#utility.yul\":1509:1605   */\n    tag_130:\n        /* \"#utility.yul\":1546:1553   */\n      0x00\n        /* \"#utility.yul\":1575:1599   */\n      tag_174\n        /* \"#utility.yul\":1593:1598   */\n      dup3\n        /* \"#utility.yul\":1575:1599   */\n      tag_129\n      jump\t// in\n    tag_174:\n        /* \"#utility.yul\":1564:1599   */\n      swap1\n      pop\n        /* \"#utility.yul\":1509:1605   */\n      swap2\n      swap1\n      pop\n      jump\t// out\n        /* \"#utility.yul\":1611:1733   */\n    tag_131:\n        /* \"#utility.yul\":1684:1708   */\n      tag_176\n        /* \"#utility.yul\":1702:1707   */\n      dup2\n        /* \"#utility.yul\":1684:1708   */\n      tag_130\n      jump\t// in\n    tag_176:\n        /* \"#utility.yul\":1677:1682   */\n      dup2\n        /* \"#utility.yul\":1674:1709   */\n      eq\n        /* \"#utility.yul\":1664:1727   */\n      tag_177\n      jumpi\n        /* \"#utility.yul\":1723:1724   */\n      0x00\n        /* \"#utility.yul\":1720:1721   */\n      dup1\n        /* \"#utility.yul\":1713:1725   */\n      revert\n        /* \"#utility.yul\":1664:1727   */\n    tag_177:\n        /* \"#utility.yul\":1611:1733   */\n      pop\n      jump\t// out\n        /* \"#utility.yul\":1739:1878   */\n    tag_132:\n        /* \"#utility.yul\":1785:1790   */\n      0x00\n        /* \"#utility.yul\":1823:1829   */\n      dup2\n        /* \"#utility.yul\":1810:1830   */\n      calldataload\n        /* \"#utility.yul\":1801:1830   */\n      swap1\n      pop\n        /* \"#utility.yul\":1839:1872   */\n      tag_179\n        /* \"#utility.yul\":1866:1871   */\n      dup2\n        /* \"#utility.yul\":1839:1872   */\n      tag_131\n      jump\t// in\n    tag_179:\n        /* \"#utility.yul\":1739:1878   */\n      swap3\n      swap2\n      pop\n      pop\n      jump\t// out\n        /* \"#utility.yul\":1884:2358   */\n    tag_19:\n        /* \"#utility.yul\":1952:1958   */\n      0x00\n        /* \"#utility.yul\":1960:1966   */\n      dup1\n        /* \"#utility.yul\":2009:2011   */\n      0x40\n        /* \"#utility.yul\":1997:2006   */\n      dup4\n        /* \"#utility.yul\":1988:1995   */\n      dup6\n        /* \"#utility.yul\":1984:2007   */\n      sub\n        /* \"#utility.yul\":1980:2012   */\n      slt\n        /* \"#utility.yul\":1977:2096   */\n      iszero\n      tag_181\n      jumpi\n        /* \"#utility.yul\":2015:2094   */\n      tag_182\n      tag_123\n      jump\t// in\n    tag_182:\n        /* \"#utility.yul\":1977:2096   */\n    tag_181:\n        /* \"#utility.yul\":2135:2136   */\n      0x00\n        /* \"#utility.yul\":2160:2213   */\n      tag_183\n        /* \"#utility.yul\":2205:2212   */\n      dup6\n        /* \"#utility.yul\":2196:2202   */\n      dup3\n        /* \"#utility.yul\":2185:2194   */\n      dup7\n        /* \"#utility.yul\":2181:2203   */\n      add\n        /* \"#utility.yul\":2160:2213   */\n      tag_127\n      jump\t// in\n    tag_183:\n        /* \"#utility.yul\":2150:2213   */\n      swap3\n      pop\n        /* \"#utility.yul\":2106:2223   */\n      pop\n        /* \"#utility.yul\":2262:2264   */\n      0x20\n        /* \"#utility.yul\":2288:2341   */\n      tag_184\n        /* \"#utility.yul\":2333:2340   */\n      dup6\n        /* \"#utility.yul\":2324:2330   */\n      dup3\n        /* \"#utility.yul\":2313:2322   */\n      dup7\n        /* \"#utility.yul\":2309:2331   */\n      add\n        /* \"#utility.yul\":2288:2341   */\n      tag_132\n      jump\t// in\n    tag_184:\n        /* \"#utility.yul\":2278:2341   */\n      swap2\n      pop\n        /* \"#utility.yul\":2233:2351   */\n      pop\n        /* \"#utility.yul\":1884:2358   */\n      swap3\n      pop\n      swap3\n      swap1\n      pop\n      jump\t// out\n        /* \"#utility.yul\":2364:2454   */\n    tag_133:\n        /* \"#utility.yul\":2398:2405   */\n      0x00\n        /* \"#utility.yul\":2441:2446   */\n      dup2\n        /* \"#utility.yul\":2434:2447   */\n      iszero\n        /* \"#utility.yul\":2427:2448   */\n      iszero\n        /* \"#utility.yul\":2416:2448   */\n      swap1\n      pop\n        /* \"#utility.yul\":2364:2454   */\n      swap2\n      swap1\n      pop\n      jump\t// out\n        /* \"#utility.yul\":2460:2569   */\n    tag_134:\n        /* \"#utility.yul\":2541:2562   */\n      tag_187\n        /* \"#utility.yul\":2556:2561   */\n      dup2\n        /* \"#utility.yul\":2541:2562   */\n      tag_133\n      jump\t// in\n    tag_187:\n        /* \"#utility.yul\":2536:2539   */\n      dup3\n        /* \"#utility.yul\":2529:2563   */\n      mstore\n        /* \"#utility.yul\":2460:2569   */\n      pop\n      pop\n      jump\t// out\n        /* \"#utility.yul\":2575:2785   */\n    tag_28:\n        /* \"#utility.yul\":2662:2666   */\n      0x00\n        /* \"#utility.yul\":2700:2702   */\n      0x20\n        /* \"#utility.yul\":2689:2698   */\n      dup3\n        /* \"#utility.yul\":2685:2703   */\n      add\n        /* \"#utility.yul\":2677:2703   */\n      swap1\n      pop\n        /* \"#utility.yul\":2713:2778   */\n      tag_189\n        /* \"#utility.yul\":2775:2776   */\n      0x00\n        /* \"#utility.yul\":2764:2773   */\n      dup4\n        /* \"#utility.yul\":2760:2777   */\n      add\n        /* \"#utility.yul\":2751:2757   */\n      dup5\n        /* \"#utility.yul\":2713:2778   */\n      tag_134\n      jump\t// in\n    tag_189:\n        /* \"#utility.yul\":2575:2785   */\n      swap3\n      swap2\n      pop\n      pop\n      jump\t// out\n        /* \"#utility.yul\":2791:2960   */\n    tag_135:\n        /* \"#utility.yul\":2875:2886   */\n      0x00\n        /* \"#utility.yul\":2909:2915   */\n      dup3\n        /* \"#utility.yul\":2904:2907   */\n      dup3\n        /* \"#utility.yul\":2897:2916   */\n      mstore\n        /* \"#utility.yul\":2949:2953   */\n      0x20\n        /* \"#utility.yul\":2944:2947   */\n      dup3\n        /* \"#utility.yul\":2940:2954   */\n      add\n        /* \"#utility.yul\":2925:2954   */\n      swap1\n      pop\n        /* \"#utility.yul\":2791:2960   */\n      swap3\n      swap2\n      pop\n      pop\n      jump\t// out\n        /* \"#utility.yul\":2966:3145   */\n    tag_136:\n        /* \"#utility.yul\":3106:3137   */\n      0x43616e206f6e6c79206772616e7420746f206e6f6e20686f6c64657273000000\n        /* \"#utility.yul\":3102:3103   */\n      0x00\n        /* \"#utility.yul\":3094:3100   */\n      dup3\n        /* \"#utility.yul\":3090:3104   */\n      add\n        /* \"#utility.yul\":3083:3138   */\n      mstore\n        /* \"#utility.yul\":2966:3145   */\n      pop\n      jump\t// out\n        /* \"#utility.yul\":3151:3517   */\n    tag_137:\n        /* \"#utility.yul\":3293:3296   */\n      0x00\n        /* \"#utility.yul\":3314:3381   */\n      tag_193\n        /* \"#utility.yul\":3378:3380   */\n      0x1d\n        /* \"#utility.yul\":3373:3376   */\n      dup4\n        /* \"#utility.yul\":3314:3381   */\n      tag_135\n      jump\t// in\n    tag_193:\n        /* \"#utility.yul\":3307:3381   */\n      swap2\n      pop\n        /* \"#utility.yul\":3390:3483   */\n      tag_194\n        /* \"#utility.yul\":3479:3482   */\n      dup3\n        /* \"#utility.yul\":3390:3483   */\n      tag_136\n      jump\t// in\n    tag_194:\n        /* \"#utility.yul\":3508:3510   */\n      0x20\n        /* \"#utility.yul\":3503:3506   */\n      dup3\n        /* \"#utility.yul\":3499:3511   */\n      add\n        /* \"#utility.yul\":3492:3511   */\n      swap1\n      pop\n        /* \"#utility.yul\":3151:3517   */\n      swap2\n      swap1\n      pop\n      jump\t// out\n        /* \"#utility.yul\":3523:3942   */\n    tag_51:\n        /* \"#utility.yul\":3689:3693   */\n      0x00\n        /* \"#utility.yul\":3727:3729   */\n      0x20\n        /* \"#utility.yul\":3716:3725   */\n      dup3\n        /* \"#utility.yul\":3712:3730   */\n      add\n        /* \"#utility.yul\":3704:3730   */\n      swap1\n      pop\n        /* \"#utility.yul\":3776:3785   */\n      dup2\n        /* \"#utility.yul\":3770:3774   */\n      dup2\n        /* \"#utility.yul\":3766:3786   */\n      sub\n        /* \"#utility.yul\":3762:3763   */\n      0x00\n        /* \"#utility.yul\":3751:3760   */\n      dup4\n        /* \"#utility.yul\":3747:3764   */\n      add\n        /* \"#utility.yul\":3740:3787   */\n      mstore\n        /* \"#utility.yul\":3804:3935   */\n      tag_196\n        /* \"#utility.yul\":3930:3934   */\n      dup2\n        /* \"#utility.yul\":3804:3935   */\n      tag_137\n      jump\t// in\n    tag_196:\n        /* \"#utility.yul\":3796:3935   */\n      swap1\n      pop\n        /* \"#utility.yul\":3523:3942   */\n      swap2\n      swap1\n      pop\n      jump\t// out\n        /* \"#utility.yul\":3948:4124   */\n    tag_138:\n        /* \"#utility.yul\":4088:4116   */\n      0x43616e206f6e6c792072656e6f756e636520666f722073656c66000000000000\n        /* \"#utility.yul\":4084:4085   */\n      0x00\n        /* \"#utility.yul\":4076:4082   */\n      dup3\n        /* \"#utility.yul\":4072:4086   */\n      add\n        /* \"#utility.yul\":4065:4117   */\n      mstore\n        /* \"#utility.yul\":3948:4124   */\n      pop\n      jump\t// out\n        /* \"#utility.yul\":4130:4496   */\n    tag_139:\n        /* \"#utility.yul\":4272:4275   */\n      0x00\n        /* \"#utility.yul\":4293:4360   */\n      tag_199\n        /* \"#utility.yul\":4357:4359   */\n      0x1a\n        /* \"#utility.yul\":4352:4355   */\n      dup4\n        /* \"#utility.yul\":4293:4360   */\n      tag_135\n      jump\t// in\n    tag_199:\n        /* \"#utility.yul\":4286:4360   */\n      swap2\n      pop\n        /* \"#utility.yul\":4369:4462   */\n      tag_200\n        /* \"#utility.yul\":4458:4461   */\n      dup3\n        /* \"#utility.yul\":4369:4462   */\n      tag_138\n      jump\t// in\n    tag_200:\n        /* \"#utility.yul\":4487:4489   */\n      0x20\n        /* \"#utility.yul\":4482:4485   */\n      dup3\n        /* \"#utility.yul\":4478:4490   */\n      add\n        /* \"#utility.yul\":4471:4490   */\n      swap1\n      pop\n        /* \"#utility.yul\":4130:4496   */\n      swap2\n      swap1\n      pop\n      jump\t// out\n        /* \"#utility.yul\":4502:4921   */\n    tag_58:\n        /* \"#utility.yul\":4668:4672   */\n      0x00\n        /* \"#utility.yul\":4706:4708   */\n      0x20\n        /* \"#utility.yul\":4695:4704   */\n      dup3\n        /* \"#utility.yul\":4691:4709   */\n      add\n        /* \"#utility.yul\":4683:4709   */\n      swap1\n      pop\n        /* \"#utility.yul\":4755:4764   */\n      dup2\n        /* \"#utility.yul\":4749:4753   */\n      dup2\n        /* \"#utility.yul\":4745:4765   */\n      sub\n        /* \"#utility.yul\":4741:4742   */\n      0x00\n        /* \"#utility.yul\":4730:4739   */\n      dup4\n        /* \"#utility.yul\":4726:4743   */\n      add\n        /* \"#utility.yul\":4719:4766   */\n      mstore\n        /* \"#utility.yul\":4783:4914   */\n      tag_202\n        /* \"#utility.yul\":4909:4913   */\n      dup2\n        /* \"#utility.yul\":4783:4914   */\n      tag_139\n      jump\t// in\n    tag_202:\n        /* \"#utility.yul\":4775:4914   */\n      swap1\n      pop\n        /* \"#utility.yul\":4502:4921   */\n      swap2\n      swap1\n      pop\n      jump\t// out\n        /* \"#utility.yul\":4927:5075   */\n    tag_140:\n        /* \"#utility.yul\":5029:5040   */\n      0x00\n        /* \"#utility.yul\":5066:5069   */\n      dup2\n        /* \"#utility.yul\":5051:5069   */\n      swap1\n      pop\n        /* \"#utility.yul\":4927:5075   */\n      swap3\n      swap2\n      pop\n      pop\n      jump\t// out\n        /* \"#utility.yul\":5081:5252   */\n    tag_141:\n        /* \"#utility.yul\":5221:5244   */\n      0x5065726d697373696f6e733a206163636f756e74200000000000000000000000\n        /* \"#utility.yul\":5217:5218   */\n      0x00\n        /* \"#utility.yul\":5209:5215   */\n      dup3\n        /* \"#utility.yul\":5205:5219   */\n      add\n        /* \"#utility.yul\":5198:5245   */\n      mstore\n        /* \"#utility.yul\":5081:5252   */\n      pop\n      jump\t// out\n        /* \"#utility.yul\":5258:5660   */\n    tag_142:\n        /* \"#utility.yul\":5418:5421   */\n      0x00\n        /* \"#utility.yul\":5439:5524   */\n      tag_206\n        /* \"#utility.yul\":5521:5523   */\n      0x15\n        /* \"#utility.yul\":5516:5519   */\n      dup4\n        /* \"#utility.yul\":5439:5524   */\n      tag_140\n      jump\t// in\n    tag_206:\n        /* \"#utility.yul\":5432:5524   */\n      swap2\n      pop\n        /* \"#utility.yul\":5533:5626   */\n      tag_207\n        /* \"#utility.yul\":5622:5625   */\n      dup3\n        /* \"#utility.yul\":5533:5626   */\n      tag_141\n      jump\t// in\n    tag_207:\n        /* \"#utility.yul\":5651:5653   */\n      0x15\n        /* \"#utility.yul\":5646:5649   */\n      dup3\n        /* \"#utility.yul\":5642:5654   */\n      add\n        /* \"#utility.yul\":5635:5654   */\n      swap1\n      pop\n        /* \"#utility.yul\":5258:5660   */\n      swap2\n      swap1\n      pop\n      jump\t// out\n        /* \"#utility.yul\":5666:5765   */\n    tag_143:\n        /* \"#utility.yul\":5718:5724   */\n      0x00\n        /* \"#utility.yul\":5752:5757   */\n      dup2\n        /* \"#utility.yul\":5746:5758   */\n      mload\n        /* \"#utility.yul\":5736:5758   */\n      swap1\n      pop\n        /* \"#utility.yul\":5666:5765   */\n      swap2\n      swap1\n      pop\n      jump\t// out\n        /* \"#utility.yul\":5771:6017   */\n    tag_144:\n        /* \"#utility.yul\":5852:5853   */\n      0x00\n        /* \"#utility.yul\":5862:5975   */\n    tag_210:\n        /* \"#utility.yul\":5876:5882   */\n      dup4\n        /* \"#utility.yul\":5873:5874   */\n      dup2\n        /* \"#utility.yul\":5870:5883   */\n      lt\n        /* \"#utility.yul\":5862:5975   */\n      iszero\n      tag_212\n      jumpi\n        /* \"#utility.yul\":5961:5962   */\n      dup1\n        /* \"#utility.yul\":5956:5959   */\n      dup3\n        /* \"#utility.yul\":5952:5963   */\n      add\n        /* \"#utility.yul\":5946:5964   */\n      mload\n        /* \"#utility.yul\":5942:5943   */\n      dup2\n        /* \"#utility.yul\":5937:5940   */\n      dup5\n        /* \"#utility.yul\":5933:5944   */\n      add\n        /* \"#utility.yul\":5926:5965   */\n      mstore\n        /* \"#utility.yul\":5898:5900   */\n      0x20\n        /* \"#utility.yul\":5895:5896   */\n      dup2\n        /* \"#utility.yul\":5891:5901   */\n      add\n        /* \"#utility.yul\":5886:5901   */\n      swap1\n      pop\n        /* \"#utility.yul\":5862:5975   */\n      jump(tag_210)\n    tag_212:\n        /* \"#utility.yul\":6009:6010   */\n      0x00\n        /* \"#utility.yul\":6000:6006   */\n      dup5\n        /* \"#utility.yul\":5995:5998   */\n      dup5\n        /* \"#utility.yul\":5991:6007   */\n      add\n        /* \"#utility.yul\":5984:6011   */\n      mstore\n        /* \"#utility.yul\":5833:6017   */\n      pop\n        /* \"#utility.yul\":5771:6017   */\n      pop\n      pop\n      pop\n      jump\t// out\n        /* \"#utility.yul\":6023:6413   */\n    tag_145:\n        /* \"#utility.yul\":6129:6132   */\n      0x00\n        /* \"#utility.yul\":6157:6196   */\n      tag_214\n        /* \"#utility.yul\":6190:6195   */\n      dup3\n        /* \"#utility.yul\":6157:6196   */\n      tag_143\n      jump\t// in\n    tag_214:\n        /* \"#utility.yul\":6212:6301   */\n      tag_215\n        /* \"#utility.yul\":6294:6300   */\n      dup2\n        /* \"#utility.yul\":6289:6292   */\n      dup6\n        /* \"#utility.yul\":6212:6301   */\n      tag_140\n      jump\t// in\n    tag_215:\n        /* \"#utility.yul\":6205:6301   */\n      swap4\n      pop\n        /* \"#utility.yul\":6310:6375   */\n      tag_216\n        /* \"#utility.yul\":6368:6374   */\n      dup2\n        /* \"#utility.yul\":6363:6366   */\n      dup6\n        /* \"#utility.yul\":6356:6360   */\n      0x20\n        /* \"#utility.yul\":6349:6354   */\n      dup7\n        /* \"#utility.yul\":6345:6361   */\n      add\n        /* \"#utility.yul\":6310:6375   */\n      tag_144\n      jump\t// in\n    tag_216:\n        /* \"#utility.yul\":6400:6406   */\n      dup1\n        /* \"#utility.yul\":6395:6398   */\n      dup5\n        /* \"#utility.yul\":6391:6407   */\n      add\n        /* \"#utility.yul\":6384:6407   */\n      swap2\n      pop\n        /* \"#utility.yul\":6133:6413   */\n      pop\n        /* \"#utility.yul\":6023:6413   */\n      swap3\n      swap2\n      pop\n      pop\n      jump\t// out\n        /* \"#utility.yul\":6419:6586   */\n    tag_146:\n        /* \"#utility.yul\":6559:6578   */\n      0x206973206d697373696e6720726f6c6520000000000000000000000000000000\n        /* \"#utility.yul\":6555:6556   */\n      0x00\n        /* \"#utility.yul\":6547:6553   */\n      dup3\n        /* \"#utility.yul\":6543:6557   */\n      add\n        /* \"#utility.yul\":6536:6579   */\n      mstore\n        /* \"#utility.yul\":6419:6586   */\n      pop\n      jump\t// out\n        /* \"#utility.yul\":6592:6994   */\n    tag_147:\n        /* \"#utility.yul\":6752:6755   */\n      0x00\n        /* \"#utility.yul\":6773:6858   */\n      tag_219\n        /* \"#utility.yul\":6855:6857   */\n      0x11\n        /* \"#utility.yul\":6850:6853   */\n      dup4\n        /* \"#utility.yul\":6773:6858   */\n      tag_140\n      jump\t// in\n    tag_219:\n        /* \"#utility.yul\":6766:6858   */\n      swap2\n      pop\n        /* \"#utility.yul\":6867:6960   */\n      tag_220\n        /* \"#utility.yul\":6956:6959   */\n      dup3\n        /* \"#utility.yul\":6867:6960   */\n      tag_146\n      jump\t// in\n    tag_220:\n        /* \"#utility.yul\":6985:6987   */\n      0x11\n        /* \"#utility.yul\":6980:6983   */\n      dup3\n        /* \"#utility.yul\":6976:6988   */\n      add\n        /* \"#utility.yul\":6969:6988   */\n      swap1\n      pop\n        /* \"#utility.yul\":6592:6994   */\n      swap2\n      swap1\n      pop\n      jump\t// out\n        /* \"#utility.yul\":7000:7967   */\n    tag_83:\n        /* \"#utility.yul\":7382:7385   */\n      0x00\n        /* \"#utility.yul\":7404:7552   */\n      tag_222\n        /* \"#utility.yul\":7548:7551   */\n      dup3\n        /* \"#utility.yul\":7404:7552   */\n      tag_142\n      jump\t// in\n    tag_222:\n        /* \"#utility.yul\":7397:7552   */\n      swap2\n      pop\n        /* \"#utility.yul\":7569:7664   */\n      tag_223\n        /* \"#utility.yul\":7660:7663   */\n      dup3\n        /* \"#utility.yul\":7651:7657   */\n      dup6\n        /* \"#utility.yul\":7569:7664   */\n      tag_145\n      jump\t// in\n    tag_223:\n        /* \"#utility.yul\":7562:7664   */\n      swap2\n      pop\n        /* \"#utility.yul\":7681:7829   */\n      tag_224\n        /* \"#utility.yul\":7825:7828   */\n      dup3\n        /* \"#utility.yul\":7681:7829   */\n      tag_147\n      jump\t// in\n    tag_224:\n        /* \"#utility.yul\":7674:7829   */\n      swap2\n      pop\n        /* \"#utility.yul\":7846:7941   */\n      tag_225\n        /* \"#utility.yul\":7937:7940   */\n      dup3\n        /* \"#utility.yul\":7928:7934   */\n      dup5\n        /* \"#utility.yul\":7846:7941   */\n      tag_145\n      jump\t// in\n    tag_225:\n        /* \"#utility.yul\":7839:7941   */\n      swap2\n      pop\n        /* \"#utility.yul\":7958:7961   */\n      dup2\n        /* \"#utility.yul\":7951:7961   */\n      swap1\n      pop\n        /* \"#utility.yul\":7000:7967   */\n      swap4\n      swap3\n      pop\n      pop\n      pop\n      jump\t// out\n        /* \"#utility.yul\":7973:8075   */\n    tag_148:\n        /* \"#utility.yul\":8014:8020   */\n      0x00\n        /* \"#utility.yul\":8065:8067   */\n      0x1f\n        /* \"#utility.yul\":8061:8068   */\n      not\n        /* \"#utility.yul\":8056:8058   */\n      0x1f\n        /* \"#utility.yul\":8049:8054   */\n      dup4\n        /* \"#utility.yul\":8045:8059   */\n      add\n        /* \"#utility.yul\":8041:8069   */\n      and\n        /* \"#utility.yul\":8031:8069   */\n      swap1\n      pop\n        /* \"#utility.yul\":7973:8075   */\n      swap2\n      swap1\n      pop\n      jump\t// out\n        /* \"#utility.yul\":8081:8458   */\n    tag_149:\n        /* \"#utility.yul\":8169:8172   */\n      0x00\n        /* \"#utility.yul\":8197:8236   */\n      tag_228\n        /* \"#utility.yul\":8230:8235   */\n      dup3\n        /* \"#utility.yul\":8197:8236   */\n      tag_143\n      jump\t// in\n    tag_228:\n        /* \"#utility.yul\":8252:8323   */\n      tag_229\n        /* \"#utility.yul\":8316:8322   */\n      dup2\n        /* \"#utility.yul\":8311:8314   */\n      dup6\n        /* \"#utility.yul\":8252:8323   */\n      tag_135\n      jump\t// in\n    tag_229:\n        /* \"#utility.yul\":8245:8323   */\n      swap4\n      pop\n        /* \"#utility.yul\":8332:8397   */\n      tag_230\n        /* \"#utility.yul\":8390:8396   */\n      dup2\n        /* \"#utility.yul\":8385:8388   */\n      dup6\n        /* \"#utility.yul\":8378:8382   */\n      0x20\n        /* \"#utility.yul\":8371:8376   */\n      dup7\n        /* \"#utility.yul\":8367:8383   */\n      add\n        /* \"#utility.yul\":8332:8397   */\n      tag_144\n      jump\t// in\n    tag_230:\n        /* \"#utility.yul\":8422:8451   */\n      tag_231\n        /* \"#utility.yul\":8444:8450   */\n      dup2\n        /* \"#utility.yul\":8422:8451   */\n      tag_148\n      jump\t// in\n    tag_231:\n        /* \"#utility.yul\":8417:8420   */\n      dup5\n        /* \"#utility.yul\":8413:8452   */\n      add\n        /* \"#utility.yul\":8406:8452   */\n      swap2\n      pop\n        /* \"#utility.yul\":8173:8458   */\n      pop\n        /* \"#utility.yul\":8081:8458   */\n      swap3\n      swap2\n      pop\n      pop\n      jump\t// out\n        /* \"#utility.yul\":8464:8777   */\n    tag_85:\n        /* \"#utility.yul\":8577:8581   */\n      0x00\n        /* \"#utility.yul\":8615:8617   */\n      0x20\n        /* \"#utility.yul\":8604:8613   */\n      dup3\n        /* \"#utility.yul\":8600:8618   */\n      add\n        /* \"#utility.yul\":8592:8618   */\n      swap1\n      pop\n        /* \"#utility.yul\":8664:8673   */\n      dup2\n        /* \"#utility.yul\":8658:8662   */\n      dup2\n        /* \"#utility.yul\":8654:8674   */\n      sub\n        /* \"#utility.yul\":8650:8651   */\n      0x00\n        /* \"#utility.yul\":8639:8648   */\n      dup4\n        /* \"#utility.yul\":8635:8652   */\n      add\n        /* \"#utility.yul\":8628:8675   */\n      mstore\n        /* \"#utility.yul\":8692:8770   */\n      tag_233\n        /* \"#utility.yul\":8765:8769   */\n      dup2\n        /* \"#utility.yul\":8756:8762   */\n      dup5\n        /* \"#utility.yul\":8692:8770   */\n      tag_149\n      jump\t// in\n    tag_233:\n        /* \"#utility.yul\":8684:8770   */\n      swap1\n      pop\n        /* \"#utility.yul\":8464:8777   */\n      swap3\n      swap2\n      pop\n      pop\n      jump\t// out\n        /* \"#utility.yul\":8783:8860   */\n    tag_150:\n        /* \"#utility.yul\":8820:8827   */\n      0x00\n        /* \"#utility.yul\":8849:8854   */\n      dup2\n        /* \"#utility.yul\":8838:8854   */\n      swap1\n      pop\n        /* \"#utility.yul\":8783:8860   */\n      swap2\n      swap1\n      pop\n      jump\t// out\n        /* \"#utility.yul\":8866:9046   */\n    tag_151:\n        /* \"#utility.yul\":8914:8991   */\n      0x4e487b7100000000000000000000000000000000000000000000000000000000\n        /* \"#utility.yul\":8911:8912   */\n      0x00\n        /* \"#utility.yul\":8904:8992   */\n      mstore\n        /* \"#utility.yul\":9011:9015   */\n      0x11\n        /* \"#utility.yul\":9008:9009   */\n      0x04\n        /* \"#utility.yul\":9001:9016   */\n      mstore\n        /* \"#utility.yul\":9035:9039   */\n      0x24\n        /* \"#utility.yul\":9032:9033   */\n      0x00\n        /* \"#utility.yul\":9025:9040   */\n      revert\n        /* \"#utility.yul\":9052:9462   */\n    tag_96:\n        /* \"#utility.yul\":9092:9099   */\n      0x00\n        /* \"#utility.yul\":9115:9135   */\n      tag_237\n        /* \"#utility.yul\":9133:9134   */\n      dup3\n        /* \"#utility.yul\":9115:9135   */\n      tag_150\n      jump\t// in\n    tag_237:\n        /* \"#utility.yul\":9110:9135   */\n      swap2\n      pop\n        /* \"#utility.yul\":9149:9169   */\n      tag_238\n        /* \"#utility.yul\":9167:9168   */\n      dup4\n        /* \"#utility.yul\":9149:9169   */\n      tag_150\n      jump\t// in\n    tag_238:\n        /* \"#utility.yul\":9144:9169   */\n      swap3\n      pop\n        /* \"#utility.yul\":9204:9205   */\n      dup3\n        /* \"#utility.yul\":9201:9202   */\n      dup3\n        /* \"#utility.yul\":9197:9206   */\n      mul\n        /* \"#utility.yul\":9226:9256   */\n      tag_239\n        /* \"#utility.yul\":9244:9255   */\n      dup2\n        /* \"#utility.yul\":9226:9256   */\n      tag_150\n      jump\t// in\n    tag_239:\n        /* \"#utility.yul\":9215:9256   */\n      swap2\n      pop\n        /* \"#utility.yul\":9405:9406   */\n      dup3\n        /* \"#utility.yul\":9396:9403   */\n      dup3\n        /* \"#utility.yul\":9392:9407   */\n      div\n        /* \"#utility.yul\":9389:9390   */\n      dup5\n        /* \"#utility.yul\":9386:9408   */\n      eq\n        /* \"#utility.yul\":9366:9367   */\n      dup4\n        /* \"#utility.yul\":9359:9368   */\n      iszero\n        /* \"#utility.yul\":9339:9422   */\n      or\n        /* \"#utility.yul\":9316:9455   */\n      tag_240\n      jumpi\n        /* \"#utility.yul\":9435:9453   */\n      tag_241\n      tag_151\n      jump\t// in\n    tag_241:\n        /* \"#utility.yul\":9316:9455   */\n    tag_240:\n        /* \"#utility.yul\":9100:9462   */\n      pop\n        /* \"#utility.yul\":9052:9462   */\n      swap3\n      swap2\n      pop\n      pop\n      jump\t// out\n        /* \"#utility.yul\":9468:9659   */\n    tag_98:\n        /* \"#utility.yul\":9508:9511   */\n      0x00\n        /* \"#utility.yul\":9527:9547   */\n      tag_243\n        /* \"#utility.yul\":9545:9546   */\n      dup3\n        /* \"#utility.yul\":9527:9547   */\n      tag_150\n      jump\t// in\n    tag_243:\n        /* \"#utility.yul\":9522:9547   */\n      swap2\n      pop\n        /* \"#utility.yul\":9561:9581   */\n      tag_244\n        /* \"#utility.yul\":9579:9580   */\n      dup4\n        /* \"#utility.yul\":9561:9581   */\n      tag_150\n      jump\t// in\n    tag_244:\n        /* \"#utility.yul\":9556:9581   */\n      swap3\n      pop\n        /* \"#utility.yul\":9604:9605   */\n      dup3\n        /* \"#utility.yul\":9601:9602   */\n      dup3\n        /* \"#utility.yul\":9597:9606   */\n      add\n        /* \"#utility.yul\":9590:9606   */\n      swap1\n      pop\n        /* \"#utility.yul\":9625:9628   */\n      dup1\n        /* \"#utility.yul\":9622:9623   */\n      dup3\n        /* \"#utility.yul\":9619:9629   */\n      gt\n        /* \"#utility.yul\":9616:9652   */\n      iszero\n      tag_245\n      jumpi\n        /* \"#utility.yul\":9632:9650   */\n      tag_246\n      tag_151\n      jump\t// in\n    tag_246:\n        /* \"#utility.yul\":9616:9652   */\n    tag_245:\n        /* \"#utility.yul\":9468:9659   */\n      swap3\n      swap2\n      pop\n      pop\n      jump\t// out\n        /* \"#utility.yul\":9665:9845   */\n    tag_101:\n        /* \"#utility.yul\":9713:9790   */\n      0x4e487b7100000000000000000000000000000000000000000000000000000000\n        /* \"#utility.yul\":9710:9711   */\n      0x00\n        /* \"#utility.yul\":9703:9791   */\n      mstore\n        /* \"#utility.yul\":9810:9814   */\n      0x41\n        /* \"#utility.yul\":9807:9808   */\n      0x04\n        /* \"#utility.yul\":9800:9815   */\n      mstore\n        /* \"#utility.yul\":9834:9838   */\n      0x24\n        /* \"#utility.yul\":9831:9832   */\n      0x00\n        /* \"#utility.yul\":9824:9839   */\n      revert\n        /* \"#utility.yul\":9851:10031   */\n    tag_105:\n        /* \"#utility.yul\":9899:9976   */\n      0x4e487b7100000000000000000000000000000000000000000000000000000000\n        /* \"#utility.yul\":9896:9897   */\n      0x00\n        /* \"#utility.yul\":9889:9977   */\n      mstore\n        /* \"#utility.yul\":9996:10000   */\n      0x32\n        /* \"#utility.yul\":9993:9994   */\n      0x04\n        /* \"#utility.yul\":9986:10001   */\n      mstore\n        /* \"#utility.yul\":10020:10024   */\n      0x24\n        /* \"#utility.yul\":10017:10018   */\n      0x00\n        /* \"#utility.yul\":10010:10025   */\n      revert\n        /* \"#utility.yul\":10037:10208   */\n    tag_118:\n        /* \"#utility.yul\":10076:10079   */\n      0x00\n        /* \"#utility.yul\":10099:10123   */\n      tag_250\n        /* \"#utility.yul\":10117:10122   */\n      dup3\n        /* \"#utility.yul\":10099:10123   */\n      tag_150\n      jump\t// in\n    tag_250:\n        /* \"#utility.yul\":10090:10123   */\n      swap2\n      pop\n        /* \"#utility.yul\":10145:10149   */\n      0x00\n        /* \"#utility.yul\":10138:10143   */\n      dup3\n        /* \"#utility.yul\":10135:10150   */\n      sub\n        /* \"#utility.yul\":10132:10173   */\n      tag_251\n      jumpi\n        /* \"#utility.yul\":10153:10171   */\n      tag_252\n      tag_151\n      jump\t// in\n    tag_252:\n        /* \"#utility.yul\":10132:10173   */\n    tag_251:\n        /* \"#utility.yul\":10200:10201   */\n      0x01\n        /* \"#utility.yul\":10193:10198   */\n      dup3\n        /* \"#utility.yul\":10189:10202   */\n      sub\n        /* \"#utility.yul\":10182:10202   */\n      swap1\n      pop\n        /* \"#utility.yul\":10037:10208   */\n      swap2\n      swap1\n      pop\n      jump\t// out\n        /* \"#utility.yul\":10214:10396   */\n    tag_152:\n        /* \"#utility.yul\":10354:10388   */\n      0x537472696e67733a20686578206c656e67746820696e73756666696369656e74\n        /* \"#utility.yul\":10350:10351   */\n      0x00\n        /* \"#utility.yul\":10342:10348   */\n      dup3\n        /* \"#utility.yul\":10338:10352   */\n      add\n        /* \"#utility.yul\":10331:10389   */\n      mstore\n        /* \"#utility.yul\":10214:10396   */\n      pop\n      jump\t// out\n        /* \"#utility.yul\":10402:10768   */\n    tag_153:\n        /* \"#utility.yul\":10544:10547   */\n      0x00\n        /* \"#utility.yul\":10565:10632   */\n      tag_255\n        /* \"#utility.yul\":10629:10631   */\n      0x20\n        /* \"#utility.yul\":10624:10627   */\n      dup4\n        /* \"#utility.yul\":10565:10632   */\n      tag_135\n      jump\t// in\n    tag_255:\n        /* \"#utility.yul\":10558:10632   */\n      swap2\n      pop\n        /* \"#utility.yul\":10641:10734   */\n      tag_256\n        /* \"#utility.yul\":10730:10733   */\n      dup3\n        /* \"#utility.yul\":10641:10734   */\n      tag_152\n      jump\t// in\n    tag_256:\n        /* \"#utility.yul\":10759:10761   */\n      0x20\n        /* \"#utility.yul\":10754:10757   */\n      dup3\n        /* \"#utility.yul\":10750:10762   */\n      add\n        /* \"#utility.yul\":10743:10762   */\n      swap1\n      pop\n        /* \"#utility.yul\":10402:10768   */\n      swap2\n      swap1\n      pop\n      jump\t// out\n        /* \"#utility.yul\":10774:11193   */\n    tag_121:\n        /* \"#utility.yul\":10940:10944   */\n      0x00\n        /* \"#utility.yul\":10978:10980   */\n      0x20\n        /* \"#utility.yul\":10967:10976   */\n      dup3\n        /* \"#utility.yul\":10963:10981   */\n      add\n        /* \"#utility.yul\":10955:10981   */\n      swap1\n      pop\n        /* \"#utility.yul\":11027:11036   */\n      dup2\n        /* \"#utility.yul\":11021:11025   */\n      dup2\n        /* \"#utility.yul\":11017:11037   */\n      sub\n        /* \"#utility.yul\":11013:11014   */\n      0x00\n        /* \"#utility.yul\":11002:11011   */\n      dup4\n        /* \"#utility.yul\":10998:11015   */\n      add\n        /* \"#utility.yul\":10991:11038   */\n      mstore\n        /* \"#utility.yul\":11055:11186   */\n      tag_258\n        /* \"#utility.yul\":11181:11185   */\n      dup2\n        /* \"#utility.yul\":11055:11186   */\n      tag_153\n      jump\t// in\n    tag_258:\n        /* \"#utility.yul\":11047:11186   */\n      swap1\n      pop\n        /* \"#utility.yul\":10774:11193   */\n      swap2\n      swap1\n      pop\n      jump\t// out\n\n    auxdata: 0xa2646970667358221220d95e61d12487ab13e61ce32f0e0412f166b26c8376145a196c1ec0f41eeedf4764736f6c63430008180033\n}\n",
				"bytecode": {
					"linkReferences": {},
					"object": "608060405234801561000f575f80fd5b50610f328061001d5f395ff3fe608060405234801561000f575f80fd5b506004361061007b575f3560e01c806391d148541161005957806391d14854146100e7578063a217fddf14610117578063a32fa5b314610135578063d547741f146101655761007b565b8063248a9ca31461007f5780632f2ff15d146100af57806336568abe146100cb575b5f80fd5b610099600480360381019061009491906109ca565b610181565b6040516100a69190610a04565b60405180910390f35b6100c960048036038101906100c49190610a77565b6101a4565b005b6100e560048036038101906100e09190610a77565b61027e565b005b61010160048036038101906100fc9190610a77565b610301565b60405161010e9190610acf565b60405180910390f35b61011f61036b565b60405161012c9190610a04565b60405180910390f35b61014f600480360381019061014a9190610a77565b610371565b60405161015c9190610acf565b60405180910390f35b61017f600480360381019061017a9190610a77565b61044a565b005b5f61018a610483565b6001015f8381526020019081526020015f20549050919050565b6101cf6101af610483565b6001015f8481526020019081526020015f20546101ca610491565b610498565b6101d7610483565b5f015f8381526020019081526020015f205f8273ffffffffffffffffffffffffffffffffffffffff1673ffffffffffffffffffffffffffffffffffffffff1681526020019081526020015f205f9054906101000a900460ff1615610270576040517f08c379a000000000000000000000000000000000000000000000000000000000815260040161026790610b42565b60405180910390fd5b61027a828261058b565b5050565b8073ffffffffffffffffffffffffffffffffffffffff1661029d610491565b73ffffffffffffffffffffffffffffffffffffffff16146102f3576040517f08c379a00000000000000000000000000000000000000000000000000000000081526004016102ea90610baa565b60405180910390fd5b6102fd828261065d565b5050565b5f61030a610483565b5f015f8481526020019081526020015f205f8373ffffffffffffffffffffffffffffffffffffffff1673ffffffffffffffffffffffffffffffffffffffff1681526020019081526020015f205f9054906101000a900460ff16905092915050565b5f801b81565b5f61037a610483565b5f015f8481526020019081526020015f205f8073ffffffffffffffffffffffffffffffffffffffff1673ffffffffffffffffffffffffffffffffffffffff1681526020019081526020015f205f9054906101000a900460ff1661043f576103df610483565b5f015f8481526020019081526020015f205f8373ffffffffffffffffffffffffffffffffffffffff1673ffffffffffffffffffffffffffffffffffffffff1681526020019081526020015f205f9054906101000a900460ff169050610444565b600190505b92915050565b610475610455610483565b6001015f8481526020019081526020015f2054610470610491565b610498565b61047f828261065d565b5050565b5f61048c610730565b905090565b5f33905090565b6104a0610483565b5f015f8381526020019081526020015f205f8273ffffffffffffffffffffffffffffffffffffffff1673ffffffffffffffffffffffffffffffffffffffff1681526020019081526020015f205f9054906101000a900460ff166105875761051e8173ffffffffffffffffffffffffffffffffffffffff16601461075e565b61052b835f1c602061075e565b60405160200161053c929190610cc8565b6040516020818303038152906040526040517f08c379a000000000000000000000000000000000000000000000000000000000815260040161057e9190610d49565b60405180910390fd5b5050565b6001610595610483565b5f015f8481526020019081526020015f205f8373ffffffffffffffffffffffffffffffffffffffff1673ffffffffffffffffffffffffffffffffffffffff1681526020019081526020015f205f6101000a81548160ff0219169083151502179055506105ff610491565b73ffffffffffffffffffffffffffffffffffffffff168173ffffffffffffffffffffffffffffffffffffffff16837f2f8788117e7eff1d82e926ec794901d17c78024a50270940304540a733656f0d60405160405180910390a45050565b6106678282610498565b61066f610483565b5f015f8381526020019081526020015f205f8273ffffffffffffffffffffffffffffffffffffffff1673ffffffffffffffffffffffffffffffffffffffff1681526020019081526020015f205f6101000a81549060ff02191690556106d2610491565b73ffffffffffffffffffffffffffffffffffffffff168173ffffffffffffffffffffffffffffffffffffffff16837ff6391f5c32d9c69d2a47ea670b442974b53935d1edc7fd64eb21e047a839171b60405160405180910390a45050565b5f807f0a7b0f5c59907924802379ebe98cdc23e2ee7820f63d30126e10b3752010e5005f1b90508091505090565b60605f60028360026107709190610d9f565b61077a9190610de0565b67ffffffffffffffff81111561079357610792610e13565b5b6040519080825280601f01601f1916602001820160405280156107c55781602001600182028036833780820191505090505b5090507f3000000000000000000000000000000000000000000000000000000000000000815f815181106107fc576107fb610e40565b5b60200101907effffffffffffffffffffffffffffffffffffffffffffffffffffffffffffff191690815f1a9053507f78000000000000000000000000000000000000000000000000000000000000008160018151811061085f5761085e610e40565b5b60200101907effffffffffffffffffffffffffffffffffffffffffffffffffffffffffffff191690815f1a9053505f600184600261089d9190610d9f565b6108a79190610de0565b90505b6001811115610946577f3031323334353637383961626364656600000000000000000000000000000000600f8616601081106108e9576108e8610e40565b5b1a60f81b828281518110610900576108ff610e40565b5b60200101907effffffffffffffffffffffffffffffffffffffffffffffffffffffffffffff191690815f1a905350600485901c94508061093f90610e6d565b90506108aa565b505f8414610989576040517f08c379a000000000000000000000000000000000000000000000000000000000815260040161098090610ede565b60405180910390fd5b8091505092915050565b5f80fd5b5f819050919050565b6109a981610997565b81146109b3575f80fd5b50565b5f813590506109c4816109a0565b92915050565b5f602082840312156109df576109de610993565b5b5f6109ec848285016109b6565b91505092915050565b6109fe81610997565b82525050565b5f602082019050610a175f8301846109f5565b92915050565b5f73ffffffffffffffffffffffffffffffffffffffff82169050919050565b5f610a4682610a1d565b9050919050565b610a5681610a3c565b8114610a60575f80fd5b50565b5f81359050610a7181610a4d565b92915050565b5f8060408385031215610a8d57610a8c610993565b5b5f610a9a858286016109b6565b9250506020610aab85828601610a63565b9150509250929050565b5f8115159050919050565b610ac981610ab5565b82525050565b5f602082019050610ae25f830184610ac0565b92915050565b5f82825260208201905092915050565b7f43616e206f6e6c79206772616e7420746f206e6f6e20686f6c646572730000005f82015250565b5f610b2c601d83610ae8565b9150610b3782610af8565b602082019050919050565b5f6020820190508181035f830152610b5981610b20565b9050919050565b7f43616e206f6e6c792072656e6f756e636520666f722073656c660000000000005f82015250565b5f610b94601a83610ae8565b9150610b9f82610b60565b602082019050919050565b5f6020820190508181035f830152610bc181610b88565b9050919050565b5f81905092915050565b7f5065726d697373696f6e733a206163636f756e742000000000000000000000005f82015250565b5f610c06601583610bc8565b9150610c1182610bd2565b601582019050919050565b5f81519050919050565b5f5b83811015610c43578082015181840152602081019050610c28565b5f8484015250505050565b5f610c5882610c1c565b610c628185610bc8565b9350610c72818560208601610c26565b80840191505092915050565b7f206973206d697373696e6720726f6c65200000000000000000000000000000005f82015250565b5f610cb2601183610bc8565b9150610cbd82610c7e565b601182019050919050565b5f610cd282610bfa565b9150610cde8285610c4e565b9150610ce982610ca6565b9150610cf58284610c4e565b91508190509392505050565b5f601f19601f8301169050919050565b5f610d1b82610c1c565b610d258185610ae8565b9350610d35818560208601610c26565b610d3e81610d01565b840191505092915050565b5f6020820190508181035f830152610d618184610d11565b905092915050565b5f819050919050565b7f4e487b71000000000000000000000000000000000000000000000000000000005f52601160045260245ffd5b5f610da982610d69565b9150610db483610d69565b9250828202610dc281610d69565b91508282048414831517610dd957610dd8610d72565b5b5092915050565b5f610dea82610d69565b9150610df583610d69565b9250828201905080821115610e0d57610e0c610d72565b5b92915050565b7f4e487b71000000000000000000000000000000000000000000000000000000005f52604160045260245ffd5b7f4e487b71000000000000000000000000000000000000000000000000000000005f52603260045260245ffd5b5f610e7782610d69565b91505f8203610e8957610e88610d72565b5b600182039050919050565b7f537472696e67733a20686578206c656e67746820696e73756666696369656e745f82015250565b5f610ec8602083610ae8565b9150610ed382610e94565b602082019050919050565b5f6020820190508181035f830152610ef581610ebc565b905091905056fea2646970667358221220d95e61d12487ab13e61ce32f0e0412f166b26c8376145a196c1ec0f41eeedf4764736f6c63430008180033",
					"opcodes": "PUSH1 0x80 PUSH1 0x40 MSTORE CALLVALUE DUP1 ISZERO PUSH2 0xF JUMPI PUSH0 DUP1 REVERT JUMPDEST POP PUSH2 0xF32 DUP1 PUSH2 0x1D PUSH0 CODECOPY PUSH0 RETURN INVALID PUSH1 0x80 PUSH1 0x40 MSTORE CALLVALUE DUP1 ISZERO PUSH2 0xF JUMPI PUSH0 DUP1 REVERT JUMPDEST POP PUSH1 0x4 CALLDATASIZE LT PUSH2 0x7B JUMPI PUSH0 CALLDATALOAD PUSH1 0xE0 SHR DUP1 PUSH4 0x91D14854 GT PUSH2 0x59 JUMPI DUP1 PUSH4 0x91D14854 EQ PUSH2 0xE7 JUMPI DUP1 PUSH4 0xA217FDDF EQ PUSH2 0x117 JUMPI DUP1 PUSH4 0xA32FA5B3 EQ PUSH2 0x135 JUMPI DUP1 PUSH4 0xD547741F EQ PUSH2 0x165 JUMPI PUSH2 0x7B JUMP JUMPDEST DUP1 PUSH4 0x248A9CA3 EQ PUSH2 0x7F JUMPI DUP1 PUSH4 0x2F2FF15D EQ PUSH2 0xAF JUMPI DUP1 PUSH4 0x36568ABE EQ PUSH2 0xCB JUMPI JUMPDEST PUSH0 DUP1 REVERT JUMPDEST PUSH2 0x99 PUSH1 0x4 DUP1 CALLDATASIZE SUB DUP2 ADD SWAP1 PUSH2 0x94 SWAP2 SWAP1 PUSH2 0x9CA JUMP JUMPDEST PUSH2 0x181 JUMP JUMPDEST PUSH1 0x40 MLOAD PUSH2 0xA6 SWAP2 SWAP1 PUSH2 0xA04 JUMP JUMPDEST PUSH1 0x40 MLOAD DUP1 SWAP2 SUB SWAP1 RETURN JUMPDEST PUSH2 0xC9 PUSH1 0x4 DUP1 CALLDATASIZE SUB DUP2 ADD SWAP1 PUSH2 0xC4 SWAP2 SWAP1 PUSH2 0xA77 JUMP JUMPDEST PUSH2 0x1A4 JUMP JUMPDEST STOP JUMPDEST PUSH2 0xE5 PUSH1 0x4 DUP1 CALLDATASIZE SUB DUP2 ADD SWAP1 PUSH2 0xE0 SWAP2 SWAP1 PUSH2 0xA77 JUMP JUMPDEST PUSH2 0x27E JUMP JUMPDEST STOP JUMPDEST PUSH2 0x101 PUSH1 0x4 DUP1 CALLDATASIZE SUB DUP2 ADD SWAP1 PUSH2 0xFC SWAP2 SWAP1 PUSH2 0xA77 JUMP JUMPDEST PUSH2 0x301 JUMP JUMPDEST PUSH1 0x40 MLOAD PUSH2 0x10E SWAP2 SWAP1 PUSH2 0xACF JUMP JUMPDEST PUSH1 0x40 MLOAD DUP1 SWAP2 SUB SWAP1 RETURN JUMPDEST PUSH2 0x11F PUSH2 0x36B JUMP JUMPDEST PUSH1 0x40 MLOAD PUSH2 0x12C SWAP2 SWAP1 PUSH2 0xA04 JUMP JUMPDEST PUSH1 0x40 MLOAD DUP1 SWAP2 SUB SWAP1 RETURN JUMPDEST PUSH2 0x14F PUSH1 0x4 DUP1 CALLDATASIZE SUB DUP2 ADD SWAP1 PUSH2 0x14A SWAP2 SWAP1 PUSH2 0xA77 JUMP JUMPDEST PUSH2 0x371 JUMP JUMPDEST PUSH1 0x40 MLOAD PUSH2 0x15C SWAP2 SWAP1 PUSH2 0xACF JUMP JUMPDEST PUSH1 0x40 MLOAD DUP1 SWAP2 SUB SWAP1 RETURN JUMPDEST PUSH2 0x17F PUSH1 0x4 DUP1 CALLDATASIZE SUB DUP2 ADD SWAP1 PUSH2 0x17A SWAP2 SWAP1 PUSH2 0xA77 JUMP JUMPDEST PUSH2 0x44A JUMP JUMPDEST STOP JUMPDEST PUSH0 PUSH2 0x18A PUSH2 0x483 JUMP JUMPDEST PUSH1 0x1 ADD PUSH0 DUP4 DUP2 MSTORE PUSH1 0x20 ADD SWAP1 DUP2 MSTORE PUSH1 0x20 ADD PUSH0 KECCAK256 SLOAD SWAP1 POP SWAP2 SWAP1 POP JUMP JUMPDEST PUSH2 0x1CF PUSH2 0x1AF PUSH2 0x483 JUMP JUMPDEST PUSH1 0x1 ADD PUSH0 DUP5 DUP2 MSTORE PUSH1 0x20 ADD SWAP1 DUP2 MSTORE PUSH1 0x20 ADD PUSH0 KECCAK256 SLOAD PUSH2 0x1CA PUSH2 0x491 JUMP JUMPDEST PUSH2 0x498 JUMP JUMPDEST PUSH2 0x1D7 PUSH2 0x483 JUMP JUMPDEST PUSH0 ADD PUSH0 DUP4 DUP2 MSTORE PUSH1 0x20 ADD SWAP1 DUP2 MSTORE PUSH1 0x20 ADD PUSH0 KECCAK256 PUSH0 DUP3 PUSH20 0xFFFFFFFFFFFFFFFFFFFFFFFFFFFFFFFFFFFFFFFF AND PUSH20 0xFFFFFFFFFFFFFFFFFFFFFFFFFFFFFFFFFFFFFFFF AND DUP2 MSTORE PUSH1 0x20 ADD SWAP1 DUP2 MSTORE PUSH1 0x20 ADD PUSH0 KECCAK256 PUSH0 SWAP1 SLOAD SWAP1 PUSH2 0x100 EXP SWAP1 DIV PUSH1 0xFF AND ISZERO PUSH2 0x270 JUMPI PUSH1 0x40 MLOAD PUSH32 0x8C379A000000000000000000000000000000000000000000000000000000000 DUP2 MSTORE PUSH1 0x4 ADD PUSH2 0x267 SWAP1 PUSH2 0xB42 JUMP JUMPDEST PUSH1 0x40 MLOAD DUP1 SWAP2 SUB SWAP1 REVERT JUMPDEST PUSH2 0x27A DUP3 DUP3 PUSH2 0x58B JUMP JUMPDEST POP POP JUMP JUMPDEST DUP1 PUSH20 0xFFFFFFFFFFFFFFFFFFFFFFFFFFFFFFFFFFFFFFFF AND PUSH2 0x29D PUSH2 0x491 JUMP JUMPDEST PUSH20 0xFFFFFFFFFFFFFFFFFFFFFFFFFFFFFFFFFFFFFFFF AND EQ PUSH2 0x2F3 JUMPI PUSH1 0x40 MLOAD PUSH32 0x8C379A000000000000000000000000000000000000000000000000000000000 DUP2 MSTORE PUSH1 0x4 ADD PUSH2 0x2EA SWAP1 PUSH2 0xBAA JUMP JUMPDEST PUSH1 0x40 MLOAD DUP1 SWAP2 SUB SWAP1 REVERT JUMPDEST PUSH2 0x2FD DUP3 DUP3 PUSH2 0x65D JUMP JUMPDEST POP POP JUMP JUMPDEST PUSH0 PUSH2 0x30A PUSH2 0x483 JUMP JUMPDEST PUSH0 ADD PUSH0 DUP5 DUP2 MSTORE PUSH1 0x20 ADD SWAP1 DUP2 MSTORE PUSH1 0x20 ADD PUSH0 KECCAK256 PUSH0 DUP4 PUSH20 0xFFFFFFFFFFFFFFFFFFFFFFFFFFFFFFFFFFFFFFFF AND PUSH20 0xFFFFFFFFFFFFFFFFFFFFFFFFFFFFFFFFFFFFFFFF AND DUP2 MSTORE PUSH1 0x20 ADD SWAP1 DUP2 MSTORE PUSH1 0x20 ADD PUSH0 KECCAK256 PUSH0 SWAP1 SLOAD SWAP1 PUSH2 0x100 EXP SWAP1 DIV PUSH1 0xFF AND SWAP1 POP SWAP3 SWAP2 POP POP JUMP JUMPDEST PUSH0 DUP1 SHL DUP2 JUMP JUMPDEST PUSH0 PUSH2 0x37A PUSH2 0x483 JUMP JUMPDEST PUSH0 ADD PUSH0 DUP5 DUP2 MSTORE PUSH1 0x20 ADD SWAP1 DUP2 MSTORE PUSH1 0x20 ADD PUSH0 KECCAK256 PUSH0 DUP1 PUSH20 0xFFFFFFFFFFFFFFFFFFFFFFFFFFFFFFFFFFFFFFFF AND PUSH20 0xFFFFFFFFFFFFFFFFFFFFFFFFFFFFFFFFFFFFFFFF AND DUP2 MSTORE PUSH1 0x20 ADD SWAP1 DUP2 MSTORE PUSH1 0x20 ADD PUSH0 KECCAK256 PUSH0 SWAP1 SLOAD SWAP1 PUSH2 0x100 EXP SWAP1 DIV PUSH1 0xFF AND PUSH2 0x43F JUMPI PUSH2 0x3DF PUSH2 0x483 JUMP JUMPDEST PUSH0 ADD PUSH0 DUP5 DUP2 MSTORE PUSH1 0x20 ADD SWAP1 DUP2 MSTORE PUSH1 0x20 ADD PUSH0 KECCAK256 PUSH0 DUP4 PUSH20 0xFFFFFFFFFFFFFFFFFFFFFFFFFFFFFFFFFFFFFFFF AND PUSH20 0xFFFFFFFFFFFFFFFFFFFFFFFFFFFFFFFFFFFFFFFF AND DUP2 MSTORE PUSH1 0x20 ADD SWAP1 DUP2 MSTORE PUSH1 0x20 ADD PUSH0 KECCAK256 PUSH0 SWAP1 SLOAD SWAP1 PUSH2 0x100 EXP SWAP1 DIV PUSH1 0xFF AND SWAP1 POP PUSH2 0x444 JUMP JUMPDEST PUSH1 0x1 SWAP1 POP JUMPDEST SWAP3 SWAP2 POP POP JUMP JUMPDEST PUSH2 0x475 PUSH2 0x455 PUSH2 0x483 JUMP JUMPDEST PUSH1 0x1 ADD PUSH0 DUP5 DUP2 MSTORE PUSH1 0x20 ADD SWAP1 DUP2 MSTORE PUSH1 0x20 ADD PUSH0 KECCAK256 SLOAD PUSH2 0x470 PUSH2 0x491 JUMP JUMPDEST PUSH2 0x498 JUMP JUMPDEST PUSH2 0x47F DUP3 DUP3 PUSH2 0x65D JUMP JUMPDEST POP POP JUMP JUMPDEST PUSH0 PUSH2 0x48C PUSH2 0x730 JUMP JUMPDEST SWAP1 POP SWAP1 JUMP JUMPDEST PUSH0 CALLER SWAP1 POP SWAP1 JUMP JUMPDEST PUSH2 0x4A0 PUSH2 0x483 JUMP JUMPDEST PUSH0 ADD PUSH0 DUP4 DUP2 MSTORE PUSH1 0x20 ADD SWAP1 DUP2 MSTORE PUSH1 0x20 ADD PUSH0 KECCAK256 PUSH0 DUP3 PUSH20 0xFFFFFFFFFFFFFFFFFFFFFFFFFFFFFFFFFFFFFFFF AND PUSH20 0xFFFFFFFFFFFFFFFFFFFFFFFFFFFFFFFFFFFFFFFF AND DUP2 MSTORE PUSH1 0x20 ADD SWAP1 DUP2 MSTORE PUSH1 0x20 ADD PUSH0 KECCAK256 PUSH0 SWAP1 SLOAD SWAP1 PUSH2 0x100 EXP SWAP1 DIV PUSH1 0xFF AND PUSH2 0x587 JUMPI PUSH2 0x51E DUP2 PUSH20 0xFFFFFFFFFFFFFFFFFFFFFFFFFFFFFFFFFFFFFFFF AND PUSH1 0x14 PUSH2 0x75E JUMP JUMPDEST PUSH2 0x52B DUP4 PUSH0 SHR PUSH1 0x20 PUSH2 0x75E JUMP JUMPDEST PUSH1 0x40 MLOAD PUSH1 0x20 ADD PUSH2 0x53C SWAP3 SWAP2 SWAP1 PUSH2 0xCC8 JUMP JUMPDEST PUSH1 0x40 MLOAD PUSH1 0x20 DUP2 DUP4 SUB SUB DUP2 MSTORE SWAP1 PUSH1 0x40 MSTORE PUSH1 0x40 MLOAD PUSH32 0x8C379A000000000000000000000000000000000000000000000000000000000 DUP2 MSTORE PUSH1 0x4 ADD PUSH2 0x57E SWAP2 SWAP1 PUSH2 0xD49 JUMP JUMPDEST PUSH1 0x40 MLOAD DUP1 SWAP2 SUB SWAP1 REVERT JUMPDEST POP POP JUMP JUMPDEST PUSH1 0x1 PUSH2 0x595 PUSH2 0x483 JUMP JUMPDEST PUSH0 ADD PUSH0 DUP5 DUP2 MSTORE PUSH1 0x20 ADD SWAP1 DUP2 MSTORE PUSH1 0x20 ADD PUSH0 KECCAK256 PUSH0 DUP4 PUSH20 0xFFFFFFFFFFFFFFFFFFFFFFFFFFFFFFFFFFFFFFFF AND PUSH20 0xFFFFFFFFFFFFFFFFFFFFFFFFFFFFFFFFFFFFFFFF AND DUP2 MSTORE PUSH1 0x20 ADD SWAP1 DUP2 MSTORE PUSH1 0x20 ADD PUSH0 KECCAK256 PUSH0 PUSH2 0x100 EXP DUP2 SLOAD DUP2 PUSH1 0xFF MUL NOT AND SWAP1 DUP4 ISZERO ISZERO MUL OR SWAP1 SSTORE POP PUSH2 0x5FF PUSH2 0x491 JUMP JUMPDEST PUSH20 0xFFFFFFFFFFFFFFFFFFFFFFFFFFFFFFFFFFFFFFFF AND DUP2 PUSH20 0xFFFFFFFFFFFFFFFFFFFFFFFFFFFFFFFFFFFFFFFF AND DUP4 PUSH32 0x2F8788117E7EFF1D82E926EC794901D17C78024A50270940304540A733656F0D PUSH1 0x40 MLOAD PUSH1 0x40 MLOAD DUP1 SWAP2 SUB SWAP1 LOG4 POP POP JUMP JUMPDEST PUSH2 0x667 DUP3 DUP3 PUSH2 0x498 JUMP JUMPDEST PUSH2 0x66F PUSH2 0x483 JUMP JUMPDEST PUSH0 ADD PUSH0 DUP4 DUP2 MSTORE PUSH1 0x20 ADD SWAP1 DUP2 MSTORE PUSH1 0x20 ADD PUSH0 KECCAK256 PUSH0 DUP3 PUSH20 0xFFFFFFFFFFFFFFFFFFFFFFFFFFFFFFFFFFFFFFFF AND PUSH20 0xFFFFFFFFFFFFFFFFFFFFFFFFFFFFFFFFFFFFFFFF AND DUP2 MSTORE PUSH1 0x20 ADD SWAP1 DUP2 MSTORE PUSH1 0x20 ADD PUSH0 KECCAK256 PUSH0 PUSH2 0x100 EXP DUP2 SLOAD SWAP1 PUSH1 0xFF MUL NOT AND SWAP1 SSTORE PUSH2 0x6D2 PUSH2 0x491 JUMP JUMPDEST PUSH20 0xFFFFFFFFFFFFFFFFFFFFFFFFFFFFFFFFFFFFFFFF AND DUP2 PUSH20 0xFFFFFFFFFFFFFFFFFFFFFFFFFFFFFFFFFFFFFFFF AND DUP4 PUSH32 0xF6391F5C32D9C69D2A47EA670B442974B53935D1EDC7FD64EB21E047A839171B PUSH1 0x40 MLOAD PUSH1 0x40 MLOAD DUP1 SWAP2 SUB SWAP1 LOG4 POP POP JUMP JUMPDEST PUSH0 DUP1 PUSH32 0xA7B0F5C59907924802379EBE98CDC23E2EE7820F63D30126E10B3752010E500 PUSH0 SHL SWAP1 POP DUP1 SWAP2 POP POP SWAP1 JUMP JUMPDEST PUSH1 0x60 PUSH0 PUSH1 0x2 DUP4 PUSH1 0x2 PUSH2 0x770 SWAP2 SWAP1 PUSH2 0xD9F JUMP JUMPDEST PUSH2 0x77A SWAP2 SWAP1 PUSH2 0xDE0 JUMP JUMPDEST PUSH8 0xFFFFFFFFFFFFFFFF DUP2 GT ISZERO PUSH2 0x793 JUMPI PUSH2 0x792 PUSH2 0xE13 JUMP JUMPDEST JUMPDEST PUSH1 0x40 MLOAD SWAP1 DUP1 DUP3 MSTORE DUP1 PUSH1 0x1F ADD PUSH1 0x1F NOT AND PUSH1 0x20 ADD DUP3 ADD PUSH1 0x40 MSTORE DUP1 ISZERO PUSH2 0x7C5 JUMPI DUP2 PUSH1 0x20 ADD PUSH1 0x1 DUP3 MUL DUP1 CALLDATASIZE DUP4 CALLDATACOPY DUP1 DUP3 ADD SWAP2 POP POP SWAP1 POP JUMPDEST POP SWAP1 POP PUSH32 0x3000000000000000000000000000000000000000000000000000000000000000 DUP2 PUSH0 DUP2 MLOAD DUP2 LT PUSH2 0x7FC JUMPI PUSH2 0x7FB PUSH2 0xE40 JUMP JUMPDEST JUMPDEST PUSH1 0x20 ADD ADD SWAP1 PUSH31 0xFFFFFFFFFFFFFFFFFFFFFFFFFFFFFFFFFFFFFFFFFFFFFFFFFFFFFFFFFFFFFF NOT AND SWAP1 DUP2 PUSH0 BYTE SWAP1 MSTORE8 POP PUSH32 0x7800000000000000000000000000000000000000000000000000000000000000 DUP2 PUSH1 0x1 DUP2 MLOAD DUP2 LT PUSH2 0x85F JUMPI PUSH2 0x85E PUSH2 0xE40 JUMP JUMPDEST JUMPDEST PUSH1 0x20 ADD ADD SWAP1 PUSH31 0xFFFFFFFFFFFFFFFFFFFFFFFFFFFFFFFFFFFFFFFFFFFFFFFFFFFFFFFFFFFFFF NOT AND SWAP1 DUP2 PUSH0 BYTE SWAP1 MSTORE8 POP PUSH0 PUSH1 0x1 DUP5 PUSH1 0x2 PUSH2 0x89D SWAP2 SWAP1 PUSH2 0xD9F JUMP JUMPDEST PUSH2 0x8A7 SWAP2 SWAP1 PUSH2 0xDE0 JUMP JUMPDEST SWAP1 POP JUMPDEST PUSH1 0x1 DUP2 GT ISZERO PUSH2 0x946 JUMPI PUSH32 0x3031323334353637383961626364656600000000000000000000000000000000 PUSH1 0xF DUP7 AND PUSH1 0x10 DUP2 LT PUSH2 0x8E9 JUMPI PUSH2 0x8E8 PUSH2 0xE40 JUMP JUMPDEST JUMPDEST BYTE PUSH1 0xF8 SHL DUP3 DUP3 DUP2 MLOAD DUP2 LT PUSH2 0x900 JUMPI PUSH2 0x8FF PUSH2 0xE40 JUMP JUMPDEST JUMPDEST PUSH1 0x20 ADD ADD SWAP1 PUSH31 0xFFFFFFFFFFFFFFFFFFFFFFFFFFFFFFFFFFFFFFFFFFFFFFFFFFFFFFFFFFFFFF NOT AND SWAP1 DUP2 PUSH0 BYTE SWAP1 MSTORE8 POP PUSH1 0x4 DUP6 SWAP1 SHR SWAP5 POP DUP1 PUSH2 0x93F SWAP1 PUSH2 0xE6D JUMP JUMPDEST SWAP1 POP PUSH2 0x8AA JUMP JUMPDEST POP PUSH0 DUP5 EQ PUSH2 0x989 JUMPI PUSH1 0x40 MLOAD PUSH32 0x8C379A000000000000000000000000000000000000000000000000000000000 DUP2 MSTORE PUSH1 0x4 ADD PUSH2 0x980 SWAP1 PUSH2 0xEDE JUMP JUMPDEST PUSH1 0x40 MLOAD DUP1 SWAP2 SUB SWAP1 REVERT JUMPDEST DUP1 SWAP2 POP POP SWAP3 SWAP2 POP POP JUMP JUMPDEST PUSH0 DUP1 REVERT JUMPDEST PUSH0 DUP2 SWAP1 POP SWAP2 SWAP1 POP JUMP JUMPDEST PUSH2 0x9A9 DUP2 PUSH2 0x997 JUMP JUMPDEST DUP2 EQ PUSH2 0x9B3 JUMPI PUSH0 DUP1 REVERT JUMPDEST POP JUMP JUMPDEST PUSH0 DUP2 CALLDATALOAD SWAP1 POP PUSH2 0x9C4 DUP2 PUSH2 0x9A0 JUMP JUMPDEST SWAP3 SWAP2 POP POP JUMP JUMPDEST PUSH0 PUSH1 0x20 DUP3 DUP5 SUB SLT ISZERO PUSH2 0x9DF JUMPI PUSH2 0x9DE PUSH2 0x993 JUMP JUMPDEST JUMPDEST PUSH0 PUSH2 0x9EC DUP5 DUP3 DUP6 ADD PUSH2 0x9B6 JUMP JUMPDEST SWAP2 POP POP SWAP3 SWAP2 POP POP JUMP JUMPDEST PUSH2 0x9FE DUP2 PUSH2 0x997 JUMP JUMPDEST DUP3 MSTORE POP POP JUMP JUMPDEST PUSH0 PUSH1 0x20 DUP3 ADD SWAP1 POP PUSH2 0xA17 PUSH0 DUP4 ADD DUP5 PUSH2 0x9F5 JUMP JUMPDEST SWAP3 SWAP2 POP POP JUMP JUMPDEST PUSH0 PUSH20 0xFFFFFFFFFFFFFFFFFFFFFFFFFFFFFFFFFFFFFFFF DUP3 AND SWAP1 POP SWAP2 SWAP1 POP JUMP JUMPDEST PUSH0 PUSH2 0xA46 DUP3 PUSH2 0xA1D JUMP JUMPDEST SWAP1 POP SWAP2 SWAP1 POP JUMP JUMPDEST PUSH2 0xA56 DUP2 PUSH2 0xA3C JUMP JUMPDEST DUP2 EQ PUSH2 0xA60 JUMPI PUSH0 DUP1 REVERT JUMPDEST POP JUMP JUMPDEST PUSH0 DUP2 CALLDATALOAD SWAP1 POP PUSH2 0xA71 DUP2 PUSH2 0xA4D JUMP JUMPDEST SWAP3 SWAP2 POP POP JUMP JUMPDEST PUSH0 DUP1 PUSH1 0x40 DUP4 DUP6 SUB SLT ISZERO PUSH2 0xA8D JUMPI PUSH2 0xA8C PUSH2 0x993 JUMP JUMPDEST JUMPDEST PUSH0 PUSH2 0xA9A DUP6 DUP3 DUP7 ADD PUSH2 0x9B6 JUMP JUMPDEST SWAP3 POP POP PUSH1 0x20 PUSH2 0xAAB DUP6 DUP3 DUP7 ADD PUSH2 0xA63 JUMP JUMPDEST SWAP2 POP POP SWAP3 POP SWAP3 SWAP1 POP JUMP JUMPDEST PUSH0 DUP2 ISZERO ISZERO SWAP1 POP SWAP2 SWAP1 POP JUMP JUMPDEST PUSH2 0xAC9 DUP2 PUSH2 0xAB5 JUMP JUMPDEST DUP3 MSTORE POP POP JUMP JUMPDEST PUSH0 PUSH1 0x20 DUP3 ADD SWAP1 POP PUSH2 0xAE2 PUSH0 DUP4 ADD DUP5 PUSH2 0xAC0 JUMP JUMPDEST SWAP3 SWAP2 POP POP JUMP JUMPDEST PUSH0 DUP3 DUP3 MSTORE PUSH1 0x20 DUP3 ADD SWAP1 POP SWAP3 SWAP2 POP POP JUMP JUMPDEST PUSH32 0x43616E206F6E6C79206772616E7420746F206E6F6E20686F6C64657273000000 PUSH0 DUP3 ADD MSTORE POP JUMP JUMPDEST PUSH0 PUSH2 0xB2C PUSH1 0x1D DUP4 PUSH2 0xAE8 JUMP JUMPDEST SWAP2 POP PUSH2 0xB37 DUP3 PUSH2 0xAF8 JUMP JUMPDEST PUSH1 0x20 DUP3 ADD SWAP1 POP SWAP2 SWAP1 POP JUMP JUMPDEST PUSH0 PUSH1 0x20 DUP3 ADD SWAP1 POP DUP2 DUP2 SUB PUSH0 DUP4 ADD MSTORE PUSH2 0xB59 DUP2 PUSH2 0xB20 JUMP JUMPDEST SWAP1 POP SWAP2 SWAP1 POP JUMP JUMPDEST PUSH32 0x43616E206F6E6C792072656E6F756E636520666F722073656C66000000000000 PUSH0 DUP3 ADD MSTORE POP JUMP JUMPDEST PUSH0 PUSH2 0xB94 PUSH1 0x1A DUP4 PUSH2 0xAE8 JUMP JUMPDEST SWAP2 POP PUSH2 0xB9F DUP3 PUSH2 0xB60 JUMP JUMPDEST PUSH1 0x20 DUP3 ADD SWAP1 POP SWAP2 SWAP1 POP JUMP JUMPDEST PUSH0 PUSH1 0x20 DUP3 ADD SWAP1 POP DUP2 DUP2 SUB PUSH0 DUP4 ADD MSTORE PUSH2 0xBC1 DUP2 PUSH2 0xB88 JUMP JUMPDEST SWAP1 POP SWAP2 SWAP1 POP JUMP JUMPDEST PUSH0 DUP2 SWAP1 POP SWAP3 SWAP2 POP POP JUMP JUMPDEST PUSH32 0x5065726D697373696F6E733A206163636F756E74200000000000000000000000 PUSH0 DUP3 ADD MSTORE POP JUMP JUMPDEST PUSH0 PUSH2 0xC06 PUSH1 0x15 DUP4 PUSH2 0xBC8 JUMP JUMPDEST SWAP2 POP PUSH2 0xC11 DUP3 PUSH2 0xBD2 JUMP JUMPDEST PUSH1 0x15 DUP3 ADD SWAP1 POP SWAP2 SWAP1 POP JUMP JUMPDEST PUSH0 DUP2 MLOAD SWAP1 POP SWAP2 SWAP1 POP JUMP JUMPDEST PUSH0 JUMPDEST DUP4 DUP2 LT ISZERO PUSH2 0xC43 JUMPI DUP1 DUP3 ADD MLOAD DUP2 DUP5 ADD MSTORE PUSH1 0x20 DUP2 ADD SWAP1 POP PUSH2 0xC28 JUMP JUMPDEST PUSH0 DUP5 DUP5 ADD MSTORE POP POP POP POP JUMP JUMPDEST PUSH0 PUSH2 0xC58 DUP3 PUSH2 0xC1C JUMP JUMPDEST PUSH2 0xC62 DUP2 DUP6 PUSH2 0xBC8 JUMP JUMPDEST SWAP4 POP PUSH2 0xC72 DUP2 DUP6 PUSH1 0x20 DUP7 ADD PUSH2 0xC26 JUMP JUMPDEST DUP1 DUP5 ADD SWAP2 POP POP SWAP3 SWAP2 POP POP JUMP JUMPDEST PUSH32 0x206973206D697373696E6720726F6C6520000000000000000000000000000000 PUSH0 DUP3 ADD MSTORE POP JUMP JUMPDEST PUSH0 PUSH2 0xCB2 PUSH1 0x11 DUP4 PUSH2 0xBC8 JUMP JUMPDEST SWAP2 POP PUSH2 0xCBD DUP3 PUSH2 0xC7E JUMP JUMPDEST PUSH1 0x11 DUP3 ADD SWAP1 POP SWAP2 SWAP1 POP JUMP JUMPDEST PUSH0 PUSH2 0xCD2 DUP3 PUSH2 0xBFA JUMP JUMPDEST SWAP2 POP PUSH2 0xCDE DUP3 DUP6 PUSH2 0xC4E JUMP JUMPDEST SWAP2 POP PUSH2 0xCE9 DUP3 PUSH2 0xCA6 JUMP JUMPDEST SWAP2 POP PUSH2 0xCF5 DUP3 DUP5 PUSH2 0xC4E JUMP JUMPDEST SWAP2 POP DUP2 SWAP1 POP SWAP4 SWAP3 POP POP POP JUMP JUMPDEST PUSH0 PUSH1 0x1F NOT PUSH1 0x1F DUP4 ADD AND SWAP1 POP SWAP2 SWAP1 POP JUMP JUMPDEST PUSH0 PUSH2 0xD1B DUP3 PUSH2 0xC1C JUMP JUMPDEST PUSH2 0xD25 DUP2 DUP6 PUSH2 0xAE8 JUMP JUMPDEST SWAP4 POP PUSH2 0xD35 DUP2 DUP6 PUSH1 0x20 DUP7 ADD PUSH2 0xC26 JUMP JUMPDEST PUSH2 0xD3E DUP2 PUSH2 0xD01 JUMP JUMPDEST DUP5 ADD SWAP2 POP POP SWAP3 SWAP2 POP POP JUMP JUMPDEST PUSH0 PUSH1 0x20 DUP3 ADD SWAP1 POP DUP2 DUP2 SUB PUSH0 DUP4 ADD MSTORE PUSH2 0xD61 DUP2 DUP5 PUSH2 0xD11 JUMP JUMPDEST SWAP1 POP SWAP3 SWAP2 POP POP JUMP JUMPDEST PUSH0 DUP2 SWAP1 POP SWAP2 SWAP1 POP JUMP JUMPDEST PUSH32 0x4E487B7100000000000000000000000000000000000000000000000000000000 PUSH0 MSTORE PUSH1 0x11 PUSH1 0x4 MSTORE PUSH1 0x24 PUSH0 REVERT JUMPDEST PUSH0 PUSH2 0xDA9 DUP3 PUSH2 0xD69 JUMP JUMPDEST SWAP2 POP PUSH2 0xDB4 DUP4 PUSH2 0xD69 JUMP JUMPDEST SWAP3 POP DUP3 DUP3 MUL PUSH2 0xDC2 DUP2 PUSH2 0xD69 JUMP JUMPDEST SWAP2 POP DUP3 DUP3 DIV DUP5 EQ DUP4 ISZERO OR PUSH2 0xDD9 JUMPI PUSH2 0xDD8 PUSH2 0xD72 JUMP JUMPDEST JUMPDEST POP SWAP3 SWAP2 POP POP JUMP JUMPDEST PUSH0 PUSH2 0xDEA DUP3 PUSH2 0xD69 JUMP JUMPDEST SWAP2 POP PUSH2 0xDF5 DUP4 PUSH2 0xD69 JUMP JUMPDEST SWAP3 POP DUP3 DUP3 ADD SWAP1 POP DUP1 DUP3 GT ISZERO PUSH2 0xE0D JUMPI PUSH2 0xE0C PUSH2 0xD72 JUMP JUMPDEST JUMPDEST SWAP3 SWAP2 POP POP JUMP JUMPDEST PUSH32 0x4E487B7100000000000000000000000000000000000000000000000000000000 PUSH0 MSTORE PUSH1 0x41 PUSH1 0x4 MSTORE PUSH1 0x24 PUSH0 REVERT JUMPDEST PUSH32 0x4E487B7100000000000000000000000000000000000000000000000000000000 PUSH0 MSTORE PUSH1 0x32 PUSH1 0x4 MSTORE PUSH1 0x24 PUSH0 REVERT JUMPDEST PUSH0 PUSH2 0xE77 DUP3 PUSH2 0xD69 JUMP JUMPDEST SWAP2 POP PUSH0 DUP3 SUB PUSH2 0xE89 JUMPI PUSH2 0xE88 PUSH2 0xD72 JUMP JUMPDEST JUMPDEST PUSH1 0x1 DUP3 SUB SWAP1 POP SWAP2 SWAP1 POP JUMP JUMPDEST PUSH32 0x537472696E67733A20686578206C656E67746820696E73756666696369656E74 PUSH0 DUP3 ADD MSTORE POP JUMP JUMPDEST PUSH0 PUSH2 0xEC8 PUSH1 0x20 DUP4 PUSH2 0xAE8 JUMP JUMPDEST SWAP2 POP PUSH2 0xED3 DUP3 PUSH2 0xE94 JUMP JUMPDEST PUSH1 0x20 DUP3 ADD SWAP1 POP SWAP2 SWAP1 POP JUMP JUMPDEST PUSH0 PUSH1 0x20 DUP3 ADD SWAP1 POP DUP2 DUP2 SUB PUSH0 DUP4 ADD MSTORE PUSH2 0xEF5 DUP2 PUSH2 0xEBC JUMP JUMPDEST SWAP1 POP SWAP2 SWAP1 POP JUMP INVALID LOG2 PUSH5 0x6970667358 0x22 SLT KECCAK256 0xD9 MCOPY PUSH2 0xD124 DUP8 0xAB SGT 0xE6 SHR 0xE3 0x2F 0xE DIV SLT CALL PUSH7 0xB26C8376145A19 PUSH13 0x1EC0F41EEEDF4764736F6C6343 STOP ADDMOD XOR STOP CALLER "
				},
				"gasEstimates": {
					"creation": {
						"codeDepositCost": "778000",
						"executionCost": "810",
						"totalCost": "778810"
					},
					"external": {
						"DEFAULT_ADMIN_ROLE()": "352",
						"getRoleAdmin(bytes32)": "infinite",
						"grantRole(bytes32,address)": "infinite",
						"hasRole(bytes32,address)": "3208",
						"hasRoleWithSwitch(bytes32,address)": "infinite",
						"renounceRole(bytes32,address)": "infinite",
						"revokeRole(bytes32,address)": "infinite"
					},
					"internal": {
						"_checkRole(bytes32,address)": "infinite",
						"_checkRoleWithSwitch(bytes32,address)": "infinite",
						"_msgData()": "infinite",
						"_msgSender()": "21",
						"_permissionsStorage()": "74",
						"_revokeRole(bytes32,address)": "infinite",
						"_setRoleAdmin(bytes32,bytes32)": "infinite",
						"_setupRole(bytes32,address)": "26499"
					}
				},
				"methodIdentifiers": {
					"DEFAULT_ADMIN_ROLE()": "a217fddf",
					"getRoleAdmin(bytes32)": "248a9ca3",
					"grantRole(bytes32,address)": "2f2ff15d",
					"hasRole(bytes32,address)": "91d14854",
					"hasRoleWithSwitch(bytes32,address)": "a32fa5b3",
					"renounceRole(bytes32,address)": "36568abe",
					"revokeRole(bytes32,address)": "d547741f"
				}
			},
			"storageLayout": {
				"storage": [],
				"types": null
			},
			"userdoc": {
				"kind": "user",
				"methods": {
					"getRoleAdmin(bytes32)": {
						"notice": "Returns the admin role that controls the specified role."
					},
					"grantRole(bytes32,address)": {
						"notice": "Grants a role to an account, if not previously granted."
					},
					"hasRole(bytes32,address)": {
						"notice": "Checks whether an account has a particular role."
					},
					"hasRoleWithSwitch(bytes32,address)": {
						"notice": "Checks whether an account has a particular role;                  role restrictions can be swtiched on and off."
					},
					"renounceRole(bytes32,address)": {
						"notice": "Revokes role from the account."
					},
					"revokeRole(bytes32,address)": {
						"notice": "Revokes role from an account."
					}
				},
				"version": 1
			}
		}
	}
}