{
	".deps/npm/@thirdweb-dev/dynamic-contracts/extension/upgradeable/PermissionsEnumberable.sol": {
		"PermissionsEnumerable": {
			"abi": [
				{
					"anonymous": false,
					"inputs": [
						{
							"indexed": true,
							"internalType": "bytes32",
							"name": "role",
							"type": "bytes32"
						},
						{
							"indexed": true,
							"internalType": "bytes32",
							"name": "previousAdminRole",
							"type": "bytes32"
						},
						{
							"indexed": true,
							"internalType": "bytes32",
							"name": "newAdminRole",
							"type": "bytes32"
						}
					],
					"name": "RoleAdminChanged",
					"type": "event"
				},
				{
					"anonymous": false,
					"inputs": [
						{
							"indexed": true,
							"internalType": "bytes32",
							"name": "role",
							"type": "bytes32"
						},
						{
							"indexed": true,
							"internalType": "address",
							"name": "account",
							"type": "address"
						},
						{
							"indexed": true,
							"internalType": "address",
							"name": "sender",
							"type": "address"
						}
					],
					"name": "RoleGranted",
					"type": "event"
				},
				{
					"anonymous": false,
					"inputs": [
						{
							"indexed": true,
							"internalType": "bytes32",
							"name": "role",
							"type": "bytes32"
						},
						{
							"indexed": true,
							"internalType": "address",
							"name": "account",
							"type": "address"
						},
						{
							"indexed": true,
							"internalType": "address",
							"name": "sender",
							"type": "address"
						}
					],
					"name": "RoleRevoked",
					"type": "event"
				},
				{
					"inputs": [],
					"name": "DEFAULT_ADMIN_ROLE",
					"outputs": [
						{
							"internalType": "bytes32",
							"name": "",
							"type": "bytes32"
						}
					],
					"stateMutability": "view",
					"type": "function"
				},
				{
					"inputs": [
						{
							"internalType": "bytes32",
							"name": "role",
							"type": "bytes32"
						}
					],
					"name": "getRoleAdmin",
					"outputs": [
						{
							"internalType": "bytes32",
							"name": "",
							"type": "bytes32"
						}
					],
					"stateMutability": "view",
					"type": "function"
				},
				{
					"inputs": [
						{
							"internalType": "bytes32",
							"name": "role",
							"type": "bytes32"
						},
						{
							"internalType": "uint256",
							"name": "index",
							"type": "uint256"
						}
					],
					"name": "getRoleMember",
					"outputs": [
						{
							"internalType": "address",
							"name": "member",
							"type": "address"
						}
					],
					"stateMutability": "view",
					"type": "function"
				},
				{
					"inputs": [
						{
							"internalType": "bytes32",
							"name": "role",
							"type": "bytes32"
						}
					],
					"name": "getRoleMemberCount",
					"outputs": [
						{
							"internalType": "uint256",
							"name": "count",
							"type": "uint256"
						}
					],
					"stateMutability": "view",
					"type": "function"
				},
				{
					"inputs": [
						{
							"internalType": "bytes32",
							"name": "role",
							"type": "bytes32"
						},
						{
							"internalType": "address",
							"name": "account",
							"type": "address"
						}
					],
					"name": "grantRole",
					"outputs": [],
					"stateMutability": "nonpayable",
					"type": "function"
				},
				{
					"inputs": [
						{
							"internalType": "bytes32",
							"name": "role",
							"type": "bytes32"
						},
						{
							"internalType": "address",
							"name": "account",
							"type": "address"
						}
					],
					"name": "hasRole",
					"outputs": [
						{
							"internalType": "bool",
							"name": "",
							"type": "bool"
						}
					],
					"stateMutability": "view",
					"type": "function"
				},
				{
					"inputs": [
						{
							"internalType": "bytes32",
							"name": "role",
							"type": "bytes32"
						},
						{
							"internalType": "address",
							"name": "account",
							"type": "address"
						}
					],
					"name": "hasRoleWithSwitch",
					"outputs": [
						{
							"internalType": "bool",
							"name": "",
							"type": "bool"
						}
					],
					"stateMutability": "view",
					"type": "function"
				},
				{
					"inputs": [
						{
							"internalType": "bytes32",
							"name": "role",
							"type": "bytes32"
						},
						{
							"internalType": "address",
							"name": "account",
							"type": "address"
						}
					],
					"name": "renounceRole",
					"outputs": [],
					"stateMutability": "nonpayable",
					"type": "function"
				},
				{
					"inputs": [
						{
							"internalType": "bytes32",
							"name": "role",
							"type": "bytes32"
						},
						{
							"internalType": "address",
							"name": "account",
							"type": "address"
						}
					],
					"name": "revokeRole",
					"outputs": [],
					"stateMutability": "nonpayable",
					"type": "function"
				}
			],
			"devdoc": {
				"events": {
					"RoleAdminChanged(bytes32,bytes32,bytes32)": {
						"details": "Emitted when `newAdminRole` is set as ``role``'s admin role, replacing `previousAdminRole` `DEFAULT_ADMIN_ROLE` is the starting admin for all roles, despite {RoleAdminChanged} not being emitted signaling this. _Available since v3.1._"
					},
					"RoleGranted(bytes32,address,address)": {
						"details": "Emitted when `account` is granted `role`. `sender` is the account that originated the contract call, an admin role bearer except when using {AccessControl-_setupRole}."
					},
					"RoleRevoked(bytes32,address,address)": {
						"details": "Emitted when `account` is revoked `role`. `sender` is the account that originated the contract call:   - if using `revokeRole`, it is the admin role bearer   - if using `renounceRole`, it is the role bearer (i.e. `account`)"
					}
				},
				"kind": "dev",
				"methods": {
					"getRoleAdmin(bytes32)": {
						"details": "See {grantRole} and {revokeRole}.                  To change a role's admin, use {_setRoleAdmin}.",
						"params": {
							"role": "keccak256 hash of the role. e.g. keccak256(\"TRANSFER_ROLE\")"
						}
					},
					"getRoleMember(bytes32,uint256)": {
						"details": "Returns `member` who has `role`, at `index` of role-members list.                  See struct {RoleMembers}, and mapping {roleMembers}",
						"params": {
							"index": "Index in list of current members for the role.",
							"role": "keccak256 hash of the role. e.g. keccak256(\"TRANSFER_ROLE\")"
						},
						"returns": {
							"member": " Address of account that has `role`"
						}
					},
					"getRoleMemberCount(bytes32)": {
						"details": "Returns `count` of accounts that have `role`.                  See struct {RoleMembers}, and mapping {roleMembers}",
						"params": {
							"role": "keccak256 hash of the role. e.g. keccak256(\"TRANSFER_ROLE\")"
						},
						"returns": {
							"count": "  Total number of accounts that have `role`"
						}
					},
					"grantRole(bytes32,address)": {
						"details": "Caller must have admin role for the `role`.                  Emits {RoleGranted Event}.",
						"params": {
							"account": "Address of the account to which the role is being granted.",
							"role": "keccak256 hash of the role. e.g. keccak256(\"TRANSFER_ROLE\")"
						}
					},
					"hasRole(bytes32,address)": {
						"details": "Returns `true` if `account` has been granted `role`.",
						"params": {
							"account": "Address of the account for which the role is being checked.",
							"role": "keccak256 hash of the role. e.g. keccak256(\"TRANSFER_ROLE\")"
						}
					},
					"hasRoleWithSwitch(bytes32,address)": {
						"details": "Returns `true` if `account` has been granted `role`.                  Role restrictions can be swtiched on and off:                      - If address(0) has ROLE, then the ROLE restrictions                        don't apply.                      - If address(0) does not have ROLE, then the ROLE                        restrictions will apply.",
						"params": {
							"account": "Address of the account for which the role is being checked.",
							"role": "keccak256 hash of the role. e.g. keccak256(\"TRANSFER_ROLE\")"
						}
					},
					"renounceRole(bytes32,address)": {
						"details": "Caller must have the `role`, with caller being the same as `account`.                  Emits {RoleRevoked Event}.",
						"params": {
							"account": "Address of the account from which the role is being revoked.",
							"role": "keccak256 hash of the role. e.g. keccak256(\"TRANSFER_ROLE\")"
						}
					},
					"revokeRole(bytes32,address)": {
						"details": "Caller must have admin role for the `role`.                  Emits {RoleRevoked Event}.",
						"params": {
							"account": "Address of the account from which the role is being revoked.",
							"role": "keccak256 hash of the role. e.g. keccak256(\"TRANSFER_ROLE\")"
						}
					}
				},
				"version": 1
			},
			"evm": {
				"assembly": "    /* \".deps/npm/@thirdweb-dev/dynamic-contracts/extension/upgradeable/PermissionsEnumberable.sol\":1645:5636  contract PermissionsEnumerable is IPermissionsEnumerable, Permissions {... */\n  mstore(0x40, 0x80)\n  callvalue\n  dup1\n  iszero\n  tag_1\n  jumpi\n  0x00\n  dup1\n  revert\ntag_1:\n  pop\n  dataSize(sub_0)\n  dup1\n  dataOffset(sub_0)\n  0x00\n  codecopy\n  0x00\n  return\nstop\n\nsub_0: assembly {\n        /* \".deps/npm/@thirdweb-dev/dynamic-contracts/extension/upgradeable/PermissionsEnumberable.sol\":1645:5636  contract PermissionsEnumerable is IPermissionsEnumerable, Permissions {... */\n      mstore(0x40, 0x80)\n      callvalue\n      dup1\n      iszero\n      tag_1\n      jumpi\n      0x00\n      dup1\n      revert\n    tag_1:\n      pop\n      jumpi(tag_2, lt(calldatasize, 0x04))\n      shr(0xe0, calldataload(0x00))\n      dup1\n      0x91d14854\n      gt\n      tag_12\n      jumpi\n      dup1\n      0x91d14854\n      eq\n      tag_7\n      jumpi\n      dup1\n      0xa217fddf\n      eq\n      tag_8\n      jumpi\n      dup1\n      0xa32fa5b3\n      eq\n      tag_9\n      jumpi\n      dup1\n      0xca15c873\n      eq\n      tag_10\n      jumpi\n      dup1\n      0xd547741f\n      eq\n      tag_11\n      jumpi\n      jump(tag_2)\n    tag_12:\n      dup1\n      0x248a9ca3\n      eq\n      tag_3\n      jumpi\n      dup1\n      0x2f2ff15d\n      eq\n      tag_4\n      jumpi\n      dup1\n      0x36568abe\n      eq\n      tag_5\n      jumpi\n      dup1\n      0x9010d07c\n      eq\n      tag_6\n      jumpi\n    tag_2:\n      0x00\n      dup1\n      revert\n        /* \".deps/npm/@thirdweb-dev/dynamic-contracts/extension/upgradeable/Permissions.sol\":3460:3604  function getRoleAdmin(bytes32 role) external view override returns (bytes32) {... */\n    tag_3:\n      tag_13\n      0x04\n      dup1\n      calldatasize\n      sub\n      dup2\n      add\n      swap1\n      tag_14\n      swap2\n      swap1\n      tag_15\n      jump\t// in\n    tag_14:\n      tag_16\n      jump\t// in\n    tag_13:\n      mload(0x40)\n      tag_17\n      swap2\n      swap1\n      tag_18\n      jump\t// in\n    tag_17:\n      mload(0x40)\n      dup1\n      swap2\n      sub\n      swap1\n      return\n        /* \".deps/npm/@thirdweb-dev/dynamic-contracts/extension/upgradeable/Permissions.sol\":4009:4332  function grantRole(bytes32 role, address account) public virtual override {... */\n    tag_4:\n      tag_19\n      0x04\n      dup1\n      calldatasize\n      sub\n      dup2\n      add\n      swap1\n      tag_20\n      swap2\n      swap1\n      tag_21\n      jump\t// in\n    tag_20:\n      tag_22\n      jump\t// in\n    tag_19:\n      stop\n        /* \".deps/npm/@thirdweb-dev/dynamic-contracts/extension/upgradeable/Permissions.sol\":5319:5543  function renounceRole(bytes32 role, address account) public virtual override {... */\n    tag_5:\n      tag_23\n      0x04\n      dup1\n      calldatasize\n      sub\n      dup2\n      add\n      swap1\n      tag_24\n      swap2\n      swap1\n      tag_21\n      jump\t// in\n    tag_24:\n      tag_25\n      jump\t// in\n    tag_23:\n      stop\n        /* \".deps/npm/@thirdweb-dev/dynamic-contracts/extension/upgradeable/PermissionsEnumberable.sol\":2268:3076  function getRoleMember(bytes32 role, uint256 index) external view override returns (address member) {... */\n    tag_6:\n      tag_26\n      0x04\n      dup1\n      calldatasize\n      sub\n      dup2\n      add\n      swap1\n      tag_27\n      swap2\n      swap1\n      tag_28\n      jump\t// in\n    tag_27:\n      tag_29\n      jump\t// in\n    tag_26:\n      mload(0x40)\n      tag_30\n      swap2\n      swap1\n      tag_31\n      jump\t// in\n    tag_30:\n      mload(0x40)\n      dup1\n      swap2\n      sub\n      swap1\n      return\n        /* \".deps/npm/@thirdweb-dev/dynamic-contracts/extension/upgradeable/Permissions.sol\":1945:2100  function hasRole(bytes32 role, address account) public view override returns (bool) {... */\n    tag_7:\n      tag_32\n      0x04\n      dup1\n      calldatasize\n      sub\n      dup2\n      add\n      swap1\n      tag_33\n      swap2\n      swap1\n      tag_21\n      jump\t// in\n    tag_33:\n      tag_34\n      jump\t// in\n    tag_32:\n      mload(0x40)\n      tag_35\n      swap2\n      swap1\n      tag_36\n      jump\t// in\n    tag_35:\n      mload(0x40)\n      dup1\n      swap2\n      sub\n      swap1\n      return\n        /* \".deps/npm/@thirdweb-dev/dynamic-contracts/extension/upgradeable/Permissions.sol\":1346:1395  bytes32 public constant DEFAULT_ADMIN_ROLE = 0x00 */\n    tag_8:\n      tag_37\n      tag_38\n      jump\t// in\n    tag_37:\n      mload(0x40)\n      tag_39\n      swap2\n      swap1\n      tag_18\n      jump\t// in\n    tag_39:\n      mload(0x40)\n      dup1\n      swap2\n      sub\n      swap1\n      return\n        /* \".deps/npm/@thirdweb-dev/dynamic-contracts/extension/upgradeable/Permissions.sol\":2867:3128  function hasRoleWithSwitch(bytes32 role, address account) public view returns (bool) {... */\n    tag_9:\n      tag_40\n      0x04\n      dup1\n      calldatasize\n      sub\n      dup2\n      add\n      swap1\n      tag_41\n      swap2\n      swap1\n      tag_21\n      jump\t// in\n    tag_41:\n      tag_42\n      jump\t// in\n    tag_40:\n      mload(0x40)\n      tag_43\n      swap2\n      swap1\n      tag_36\n      jump\t// in\n    tag_43:\n      mload(0x40)\n      dup1\n      swap2\n      sub\n      swap1\n      return\n        /* \".deps/npm/@thirdweb-dev/dynamic-contracts/extension/upgradeable/PermissionsEnumberable.sol\":3494:3967  function getRoleMemberCount(bytes32 role) external view override returns (uint256 count) {... */\n    tag_10:\n      tag_44\n      0x04\n      dup1\n      calldatasize\n      sub\n      dup2\n      add\n      swap1\n      tag_45\n      swap2\n      swap1\n      tag_15\n      jump\t// in\n    tag_45:\n      tag_46\n      jump\t// in\n    tag_44:\n      mload(0x40)\n      tag_47\n      swap2\n      swap1\n      tag_48\n      jump\t// in\n    tag_47:\n      mload(0x40)\n      dup1\n      swap2\n      sub\n      swap1\n      return\n        /* \".deps/npm/@thirdweb-dev/dynamic-contracts/extension/upgradeable/Permissions.sol\":4713:4911  function revokeRole(bytes32 role, address account) public virtual override {... */\n    tag_11:\n      tag_49\n      0x04\n      dup1\n      calldatasize\n      sub\n      dup2\n      add\n      swap1\n      tag_50\n      swap2\n      swap1\n      tag_21\n      jump\t// in\n    tag_50:\n      tag_51\n      jump\t// in\n    tag_49:\n      stop\n        /* \".deps/npm/@thirdweb-dev/dynamic-contracts/extension/upgradeable/Permissions.sol\":3460:3604  function getRoleAdmin(bytes32 role) external view override returns (bytes32) {... */\n    tag_16:\n        /* \".deps/npm/@thirdweb-dev/dynamic-contracts/extension/upgradeable/Permissions.sol\":3528:3535  bytes32 */\n      0x00\n        /* \".deps/npm/@thirdweb-dev/dynamic-contracts/extension/upgradeable/Permissions.sol\":3555:3576  _permissionsStorage() */\n      tag_53\n        /* \".deps/npm/@thirdweb-dev/dynamic-contracts/extension/upgradeable/Permissions.sol\":3555:3574  _permissionsStorage */\n      tag_54\n        /* \".deps/npm/@thirdweb-dev/dynamic-contracts/extension/upgradeable/Permissions.sol\":3555:3576  _permissionsStorage() */\n      jump\t// in\n    tag_53:\n        /* \".deps/npm/@thirdweb-dev/dynamic-contracts/extension/upgradeable/Permissions.sol\":3555:3590  _permissionsStorage()._getRoleAdmin */\n      0x01\n      add\n        /* \".deps/npm/@thirdweb-dev/dynamic-contracts/extension/upgradeable/Permissions.sol\":3555:3596  _permissionsStorage()._getRoleAdmin[role] */\n      0x00\n        /* \".deps/npm/@thirdweb-dev/dynamic-contracts/extension/upgradeable/Permissions.sol\":3591:3595  role */\n      dup4\n        /* \".deps/npm/@thirdweb-dev/dynamic-contracts/extension/upgradeable/Permissions.sol\":3555:3596  _permissionsStorage()._getRoleAdmin[role] */\n      dup2\n      mstore\n      0x20\n      add\n      swap1\n      dup2\n      mstore\n      0x20\n      add\n      0x00\n      keccak256\n      sload\n        /* \".deps/npm/@thirdweb-dev/dynamic-contracts/extension/upgradeable/Permissions.sol\":3548:3596  return _permissionsStorage()._getRoleAdmin[role] */\n      swap1\n      pop\n        /* \".deps/npm/@thirdweb-dev/dynamic-contracts/extension/upgradeable/Permissions.sol\":3460:3604  function getRoleAdmin(bytes32 role) external view override returns (bytes32) {... */\n      swap2\n      swap1\n      pop\n      jump\t// out\n        /* \".deps/npm/@thirdweb-dev/dynamic-contracts/extension/upgradeable/Permissions.sol\":4009:4332  function grantRole(bytes32 role, address account) public virtual override {... */\n    tag_22:\n        /* \".deps/npm/@thirdweb-dev/dynamic-contracts/extension/upgradeable/Permissions.sol\":4094:4161  _checkRole(_permissionsStorage()._getRoleAdmin[role], _msgSender()) */\n      tag_56\n        /* \".deps/npm/@thirdweb-dev/dynamic-contracts/extension/upgradeable/Permissions.sol\":4105:4126  _permissionsStorage() */\n      tag_57\n        /* \".deps/npm/@thirdweb-dev/dynamic-contracts/extension/upgradeable/Permissions.sol\":4105:4124  _permissionsStorage */\n      tag_54\n        /* \".deps/npm/@thirdweb-dev/dynamic-contracts/extension/upgradeable/Permissions.sol\":4105:4126  _permissionsStorage() */\n      jump\t// in\n    tag_57:\n        /* \".deps/npm/@thirdweb-dev/dynamic-contracts/extension/upgradeable/Permissions.sol\":4105:4140  _permissionsStorage()._getRoleAdmin */\n      0x01\n      add\n        /* \".deps/npm/@thirdweb-dev/dynamic-contracts/extension/upgradeable/Permissions.sol\":4105:4146  _permissionsStorage()._getRoleAdmin[role] */\n      0x00\n        /* \".deps/npm/@thirdweb-dev/dynamic-contracts/extension/upgradeable/Permissions.sol\":4141:4145  role */\n      dup5\n        /* \".deps/npm/@thirdweb-dev/dynamic-contracts/extension/upgradeable/Permissions.sol\":4105:4146  _permissionsStorage()._getRoleAdmin[role] */\n      dup2\n      mstore\n      0x20\n      add\n      swap1\n      dup2\n      mstore\n      0x20\n      add\n      0x00\n      keccak256\n      sload\n        /* \".deps/npm/@thirdweb-dev/dynamic-contracts/extension/upgradeable/Permissions.sol\":4148:4160  _msgSender() */\n      tag_58\n        /* \".deps/npm/@thirdweb-dev/dynamic-contracts/extension/upgradeable/Permissions.sol\":4148:4158  _msgSender */\n      tag_59\n        /* \".deps/npm/@thirdweb-dev/dynamic-contracts/extension/upgradeable/Permissions.sol\":4148:4160  _msgSender() */\n      jump\t// in\n    tag_58:\n        /* \".deps/npm/@thirdweb-dev/dynamic-contracts/extension/upgradeable/Permissions.sol\":4094:4104  _checkRole */\n      tag_60\n        /* \".deps/npm/@thirdweb-dev/dynamic-contracts/extension/upgradeable/Permissions.sol\":4094:4161  _checkRole(_permissionsStorage()._getRoleAdmin[role], _msgSender()) */\n      jump\t// in\n    tag_56:\n        /* \".deps/npm/@thirdweb-dev/dynamic-contracts/extension/upgradeable/Permissions.sol\":4176:4197  _permissionsStorage() */\n      tag_61\n        /* \".deps/npm/@thirdweb-dev/dynamic-contracts/extension/upgradeable/Permissions.sol\":4176:4195  _permissionsStorage */\n      tag_54\n        /* \".deps/npm/@thirdweb-dev/dynamic-contracts/extension/upgradeable/Permissions.sol\":4176:4197  _permissionsStorage() */\n      jump\t// in\n    tag_61:\n        /* \".deps/npm/@thirdweb-dev/dynamic-contracts/extension/upgradeable/Permissions.sol\":4176:4206  _permissionsStorage()._hasRole */\n      0x00\n      add\n        /* \".deps/npm/@thirdweb-dev/dynamic-contracts/extension/upgradeable/Permissions.sol\":4176:4212  _permissionsStorage()._hasRole[role] */\n      0x00\n        /* \".deps/npm/@thirdweb-dev/dynamic-contracts/extension/upgradeable/Permissions.sol\":4207:4211  role */\n      dup4\n        /* \".deps/npm/@thirdweb-dev/dynamic-contracts/extension/upgradeable/Permissions.sol\":4176:4212  _permissionsStorage()._hasRole[role] */\n      dup2\n      mstore\n      0x20\n      add\n      swap1\n      dup2\n      mstore\n      0x20\n      add\n      0x00\n      keccak256\n        /* \".deps/npm/@thirdweb-dev/dynamic-contracts/extension/upgradeable/Permissions.sol\":4176:4221  _permissionsStorage()._hasRole[role][account] */\n      0x00\n        /* \".deps/npm/@thirdweb-dev/dynamic-contracts/extension/upgradeable/Permissions.sol\":4213:4220  account */\n      dup3\n        /* \".deps/npm/@thirdweb-dev/dynamic-contracts/extension/upgradeable/Permissions.sol\":4176:4221  _permissionsStorage()._hasRole[role][account] */\n      0xffffffffffffffffffffffffffffffffffffffff\n      and\n      0xffffffffffffffffffffffffffffffffffffffff\n      and\n      dup2\n      mstore\n      0x20\n      add\n      swap1\n      dup2\n      mstore\n      0x20\n      add\n      0x00\n      keccak256\n      0x00\n      swap1\n      sload\n      swap1\n      0x0100\n      exp\n      swap1\n      div\n      0xff\n      and\n        /* \".deps/npm/@thirdweb-dev/dynamic-contracts/extension/upgradeable/Permissions.sol\":4172:4289  if (_permissionsStorage()._hasRole[role][account]) {... */\n      iszero\n      tag_62\n      jumpi\n        /* \".deps/npm/@thirdweb-dev/dynamic-contracts/extension/upgradeable/Permissions.sol\":4238:4277  revert(\"Can only grant to non holders\") */\n      mload(0x40)\n      0x08c379a000000000000000000000000000000000000000000000000000000000\n      dup2\n      mstore\n      0x04\n      add\n      tag_63\n      swap1\n      tag_64\n      jump\t// in\n    tag_63:\n      mload(0x40)\n      dup1\n      swap2\n      sub\n      swap1\n      revert\n        /* \".deps/npm/@thirdweb-dev/dynamic-contracts/extension/upgradeable/Permissions.sol\":4172:4289  if (_permissionsStorage()._hasRole[role][account]) {... */\n    tag_62:\n        /* \".deps/npm/@thirdweb-dev/dynamic-contracts/extension/upgradeable/Permissions.sol\":4299:4324  _setupRole(role, account) */\n      tag_65\n        /* \".deps/npm/@thirdweb-dev/dynamic-contracts/extension/upgradeable/Permissions.sol\":4310:4314  role */\n      dup3\n        /* \".deps/npm/@thirdweb-dev/dynamic-contracts/extension/upgradeable/Permissions.sol\":4316:4323  account */\n      dup3\n        /* \".deps/npm/@thirdweb-dev/dynamic-contracts/extension/upgradeable/Permissions.sol\":4299:4309  _setupRole */\n      tag_66\n        /* \".deps/npm/@thirdweb-dev/dynamic-contracts/extension/upgradeable/Permissions.sol\":4299:4324  _setupRole(role, account) */\n      jump\t// in\n    tag_65:\n        /* \".deps/npm/@thirdweb-dev/dynamic-contracts/extension/upgradeable/Permissions.sol\":4009:4332  function grantRole(bytes32 role, address account) public virtual override {... */\n      pop\n      pop\n      jump\t// out\n        /* \".deps/npm/@thirdweb-dev/dynamic-contracts/extension/upgradeable/Permissions.sol\":5319:5543  function renounceRole(bytes32 role, address account) public virtual override {... */\n    tag_25:\n        /* \".deps/npm/@thirdweb-dev/dynamic-contracts/extension/upgradeable/Permissions.sol\":5427:5434  account */\n      dup1\n        /* \".deps/npm/@thirdweb-dev/dynamic-contracts/extension/upgradeable/Permissions.sol\":5411:5434  _msgSender() != account */\n      0xffffffffffffffffffffffffffffffffffffffff\n      and\n        /* \".deps/npm/@thirdweb-dev/dynamic-contracts/extension/upgradeable/Permissions.sol\":5411:5423  _msgSender() */\n      tag_68\n        /* \".deps/npm/@thirdweb-dev/dynamic-contracts/extension/upgradeable/Permissions.sol\":5411:5421  _msgSender */\n      tag_59\n        /* \".deps/npm/@thirdweb-dev/dynamic-contracts/extension/upgradeable/Permissions.sol\":5411:5423  _msgSender() */\n      jump\t// in\n    tag_68:\n        /* \".deps/npm/@thirdweb-dev/dynamic-contracts/extension/upgradeable/Permissions.sol\":5411:5434  _msgSender() != account */\n      0xffffffffffffffffffffffffffffffffffffffff\n      and\n      eq\n        /* \".deps/npm/@thirdweb-dev/dynamic-contracts/extension/upgradeable/Permissions.sol\":5407:5499  if (_msgSender() != account) {... */\n      tag_69\n      jumpi\n        /* \".deps/npm/@thirdweb-dev/dynamic-contracts/extension/upgradeable/Permissions.sol\":5451:5487  revert(\"Can only renounce for self\") */\n      mload(0x40)\n      0x08c379a000000000000000000000000000000000000000000000000000000000\n      dup2\n      mstore\n      0x04\n      add\n      tag_70\n      swap1\n      tag_71\n      jump\t// in\n    tag_70:\n      mload(0x40)\n      dup1\n      swap2\n      sub\n      swap1\n      revert\n        /* \".deps/npm/@thirdweb-dev/dynamic-contracts/extension/upgradeable/Permissions.sol\":5407:5499  if (_msgSender() != account) {... */\n    tag_69:\n        /* \".deps/npm/@thirdweb-dev/dynamic-contracts/extension/upgradeable/Permissions.sol\":5509:5535  _revokeRole(role, account) */\n      tag_72\n        /* \".deps/npm/@thirdweb-dev/dynamic-contracts/extension/upgradeable/Permissions.sol\":5521:5525  role */\n      dup3\n        /* \".deps/npm/@thirdweb-dev/dynamic-contracts/extension/upgradeable/Permissions.sol\":5527:5534  account */\n      dup3\n        /* \".deps/npm/@thirdweb-dev/dynamic-contracts/extension/upgradeable/Permissions.sol\":5509:5520  _revokeRole */\n      tag_73\n        /* \".deps/npm/@thirdweb-dev/dynamic-contracts/extension/upgradeable/Permissions.sol\":5509:5535  _revokeRole(role, account) */\n      jump\t// in\n    tag_72:\n        /* \".deps/npm/@thirdweb-dev/dynamic-contracts/extension/upgradeable/Permissions.sol\":5319:5543  function renounceRole(bytes32 role, address account) public virtual override {... */\n      pop\n      pop\n      jump\t// out\n        /* \".deps/npm/@thirdweb-dev/dynamic-contracts/extension/upgradeable/PermissionsEnumberable.sol\":2268:3076  function getRoleMember(bytes32 role, uint256 index) external view override returns (address member) {... */\n    tag_29:\n        /* \".deps/npm/@thirdweb-dev/dynamic-contracts/extension/upgradeable/PermissionsEnumberable.sol\":2352:2366  address member */\n      0x00\n        /* \".deps/npm/@thirdweb-dev/dynamic-contracts/extension/upgradeable/PermissionsEnumberable.sol\":2379:2399  uint256 currentIndex */\n      dup1\n        /* \".deps/npm/@thirdweb-dev/dynamic-contracts/extension/upgradeable/PermissionsEnumberable.sol\":2402:2433  _permissionsEnumerableStorage() */\n      tag_75\n        /* \".deps/npm/@thirdweb-dev/dynamic-contracts/extension/upgradeable/PermissionsEnumberable.sol\":2402:2431  _permissionsEnumerableStorage */\n      tag_76\n        /* \".deps/npm/@thirdweb-dev/dynamic-contracts/extension/upgradeable/PermissionsEnumberable.sol\":2402:2433  _permissionsEnumerableStorage() */\n      jump\t// in\n    tag_75:\n        /* \".deps/npm/@thirdweb-dev/dynamic-contracts/extension/upgradeable/PermissionsEnumberable.sol\":2402:2445  _permissionsEnumerableStorage().roleMembers */\n      0x00\n      add\n        /* \".deps/npm/@thirdweb-dev/dynamic-contracts/extension/upgradeable/PermissionsEnumberable.sol\":2402:2451  _permissionsEnumerableStorage().roleMembers[role] */\n      0x00\n        /* \".deps/npm/@thirdweb-dev/dynamic-contracts/extension/upgradeable/PermissionsEnumberable.sol\":2446:2450  role */\n      dup6\n        /* \".deps/npm/@thirdweb-dev/dynamic-contracts/extension/upgradeable/PermissionsEnumberable.sol\":2402:2451  _permissionsEnumerableStorage().roleMembers[role] */\n      dup2\n      mstore\n      0x20\n      add\n      swap1\n      dup2\n      mstore\n      0x20\n      add\n      0x00\n      keccak256\n        /* \".deps/npm/@thirdweb-dev/dynamic-contracts/extension/upgradeable/PermissionsEnumberable.sol\":2402:2457  _permissionsEnumerableStorage().roleMembers[role].index */\n      0x00\n      add\n      sload\n        /* \".deps/npm/@thirdweb-dev/dynamic-contracts/extension/upgradeable/PermissionsEnumberable.sol\":2379:2457  uint256 currentIndex = _permissionsEnumerableStorage().roleMembers[role].index */\n      swap1\n      pop\n        /* \".deps/npm/@thirdweb-dev/dynamic-contracts/extension/upgradeable/PermissionsEnumberable.sol\":2468:2481  uint256 check */\n      0x00\n        /* \".deps/npm/@thirdweb-dev/dynamic-contracts/extension/upgradeable/PermissionsEnumberable.sol\":2499:2508  uint256 i */\n      dup1\n        /* \".deps/npm/@thirdweb-dev/dynamic-contracts/extension/upgradeable/PermissionsEnumberable.sol\":2511:2512  0 */\n      0x00\n        /* \".deps/npm/@thirdweb-dev/dynamic-contracts/extension/upgradeable/PermissionsEnumberable.sol\":2499:2512  uint256 i = 0 */\n      swap1\n      pop\n        /* \".deps/npm/@thirdweb-dev/dynamic-contracts/extension/upgradeable/PermissionsEnumberable.sol\":2494:3069  for (uint256 i = 0; i < currentIndex; i += 1) {... */\n    tag_77:\n        /* \".deps/npm/@thirdweb-dev/dynamic-contracts/extension/upgradeable/PermissionsEnumberable.sol\":2518:2530  currentIndex */\n      dup3\n        /* \".deps/npm/@thirdweb-dev/dynamic-contracts/extension/upgradeable/PermissionsEnumberable.sol\":2514:2515  i */\n      dup2\n        /* \".deps/npm/@thirdweb-dev/dynamic-contracts/extension/upgradeable/PermissionsEnumberable.sol\":2514:2530  i < currentIndex */\n      lt\n        /* \".deps/npm/@thirdweb-dev/dynamic-contracts/extension/upgradeable/PermissionsEnumberable.sol\":2494:3069  for (uint256 i = 0; i < currentIndex; i += 1) {... */\n      iszero\n      tag_78\n      jumpi\n        /* \".deps/npm/@thirdweb-dev/dynamic-contracts/extension/upgradeable/PermissionsEnumberable.sol\":2631:2632  0 */\n      0x00\n        /* \".deps/npm/@thirdweb-dev/dynamic-contracts/extension/upgradeable/PermissionsEnumberable.sol\":2559:2633  _permissionsEnumerableStorage().roleMembers[role].members[i] != address(0) */\n      0xffffffffffffffffffffffffffffffffffffffff\n      and\n        /* \".deps/npm/@thirdweb-dev/dynamic-contracts/extension/upgradeable/PermissionsEnumberable.sol\":2559:2590  _permissionsEnumerableStorage() */\n      tag_80\n        /* \".deps/npm/@thirdweb-dev/dynamic-contracts/extension/upgradeable/PermissionsEnumberable.sol\":2559:2588  _permissionsEnumerableStorage */\n      tag_76\n        /* \".deps/npm/@thirdweb-dev/dynamic-contracts/extension/upgradeable/PermissionsEnumberable.sol\":2559:2590  _permissionsEnumerableStorage() */\n      jump\t// in\n    tag_80:\n        /* \".deps/npm/@thirdweb-dev/dynamic-contracts/extension/upgradeable/PermissionsEnumberable.sol\":2559:2602  _permissionsEnumerableStorage().roleMembers */\n      0x00\n      add\n        /* \".deps/npm/@thirdweb-dev/dynamic-contracts/extension/upgradeable/PermissionsEnumberable.sol\":2559:2608  _permissionsEnumerableStorage().roleMembers[role] */\n      0x00\n        /* \".deps/npm/@thirdweb-dev/dynamic-contracts/extension/upgradeable/PermissionsEnumberable.sol\":2603:2607  role */\n      dup9\n        /* \".deps/npm/@thirdweb-dev/dynamic-contracts/extension/upgradeable/PermissionsEnumberable.sol\":2559:2608  _permissionsEnumerableStorage().roleMembers[role] */\n      dup2\n      mstore\n      0x20\n      add\n      swap1\n      dup2\n      mstore\n      0x20\n      add\n      0x00\n      keccak256\n        /* \".deps/npm/@thirdweb-dev/dynamic-contracts/extension/upgradeable/PermissionsEnumberable.sol\":2559:2616  _permissionsEnumerableStorage().roleMembers[role].members */\n      0x01\n      add\n        /* \".deps/npm/@thirdweb-dev/dynamic-contracts/extension/upgradeable/PermissionsEnumberable.sol\":2559:2619  _permissionsEnumerableStorage().roleMembers[role].members[i] */\n      0x00\n        /* \".deps/npm/@thirdweb-dev/dynamic-contracts/extension/upgradeable/PermissionsEnumberable.sol\":2617:2618  i */\n      dup4\n        /* \".deps/npm/@thirdweb-dev/dynamic-contracts/extension/upgradeable/PermissionsEnumberable.sol\":2559:2619  _permissionsEnumerableStorage().roleMembers[role].members[i] */\n      dup2\n      mstore\n      0x20\n      add\n      swap1\n      dup2\n      mstore\n      0x20\n      add\n      0x00\n      keccak256\n      0x00\n      swap1\n      sload\n      swap1\n      0x0100\n      exp\n      swap1\n      div\n      0xffffffffffffffffffffffffffffffffffffffff\n      and\n        /* \".deps/npm/@thirdweb-dev/dynamic-contracts/extension/upgradeable/PermissionsEnumberable.sol\":2559:2633  _permissionsEnumerableStorage().roleMembers[role].members[i] != address(0) */\n      0xffffffffffffffffffffffffffffffffffffffff\n      and\n      eq\n        /* \".deps/npm/@thirdweb-dev/dynamic-contracts/extension/upgradeable/PermissionsEnumberable.sol\":2555:3058  if (_permissionsEnumerableStorage().roleMembers[role].members[i] != address(0)) {... */\n      tag_81\n      jumpi\n        /* \".deps/npm/@thirdweb-dev/dynamic-contracts/extension/upgradeable/PermissionsEnumberable.sol\":2667:2672  index */\n      dup5\n        /* \".deps/npm/@thirdweb-dev/dynamic-contracts/extension/upgradeable/PermissionsEnumberable.sol\":2658:2663  check */\n      dup3\n        /* \".deps/npm/@thirdweb-dev/dynamic-contracts/extension/upgradeable/PermissionsEnumberable.sol\":2658:2672  check == index */\n      sub\n        /* \".deps/npm/@thirdweb-dev/dynamic-contracts/extension/upgradeable/PermissionsEnumberable.sol\":2654:2822  if (check == index) {... */\n      tag_82\n      jumpi\n        /* \".deps/npm/@thirdweb-dev/dynamic-contracts/extension/upgradeable/PermissionsEnumberable.sol\":2706:2737  _permissionsEnumerableStorage() */\n      tag_83\n        /* \".deps/npm/@thirdweb-dev/dynamic-contracts/extension/upgradeable/PermissionsEnumberable.sol\":2706:2735  _permissionsEnumerableStorage */\n      tag_76\n        /* \".deps/npm/@thirdweb-dev/dynamic-contracts/extension/upgradeable/PermissionsEnumberable.sol\":2706:2737  _permissionsEnumerableStorage() */\n      jump\t// in\n    tag_83:\n        /* \".deps/npm/@thirdweb-dev/dynamic-contracts/extension/upgradeable/PermissionsEnumberable.sol\":2706:2749  _permissionsEnumerableStorage().roleMembers */\n      0x00\n      add\n        /* \".deps/npm/@thirdweb-dev/dynamic-contracts/extension/upgradeable/PermissionsEnumberable.sol\":2706:2755  _permissionsEnumerableStorage().roleMembers[role] */\n      0x00\n        /* \".deps/npm/@thirdweb-dev/dynamic-contracts/extension/upgradeable/PermissionsEnumberable.sol\":2750:2754  role */\n      dup8\n        /* \".deps/npm/@thirdweb-dev/dynamic-contracts/extension/upgradeable/PermissionsEnumberable.sol\":2706:2755  _permissionsEnumerableStorage().roleMembers[role] */\n      dup2\n      mstore\n      0x20\n      add\n      swap1\n      dup2\n      mstore\n      0x20\n      add\n      0x00\n      keccak256\n        /* \".deps/npm/@thirdweb-dev/dynamic-contracts/extension/upgradeable/PermissionsEnumberable.sol\":2706:2763  _permissionsEnumerableStorage().roleMembers[role].members */\n      0x01\n      add\n        /* \".deps/npm/@thirdweb-dev/dynamic-contracts/extension/upgradeable/PermissionsEnumberable.sol\":2706:2766  _permissionsEnumerableStorage().roleMembers[role].members[i] */\n      0x00\n        /* \".deps/npm/@thirdweb-dev/dynamic-contracts/extension/upgradeable/PermissionsEnumberable.sol\":2764:2765  i */\n      dup3\n        /* \".deps/npm/@thirdweb-dev/dynamic-contracts/extension/upgradeable/PermissionsEnumberable.sol\":2706:2766  _permissionsEnumerableStorage().roleMembers[role].members[i] */\n      dup2\n      mstore\n      0x20\n      add\n      swap1\n      dup2\n      mstore\n      0x20\n      add\n      0x00\n      keccak256\n      0x00\n      swap1\n      sload\n      swap1\n      0x0100\n      exp\n      swap1\n      div\n      0xffffffffffffffffffffffffffffffffffffffff\n      and\n        /* \".deps/npm/@thirdweb-dev/dynamic-contracts/extension/upgradeable/PermissionsEnumberable.sol\":2697:2766  member = _permissionsEnumerableStorage().roleMembers[role].members[i] */\n      swap4\n      pop\n        /* \".deps/npm/@thirdweb-dev/dynamic-contracts/extension/upgradeable/PermissionsEnumberable.sol\":2789:2802  return member */\n      pop\n      pop\n      pop\n      jump(tag_74)\n        /* \".deps/npm/@thirdweb-dev/dynamic-contracts/extension/upgradeable/PermissionsEnumberable.sol\":2654:2822  if (check == index) {... */\n    tag_82:\n        /* \".deps/npm/@thirdweb-dev/dynamic-contracts/extension/upgradeable/PermissionsEnumberable.sol\":2849:2850  1 */\n      0x01\n        /* \".deps/npm/@thirdweb-dev/dynamic-contracts/extension/upgradeable/PermissionsEnumberable.sol\":2840:2850  check += 1 */\n      dup3\n      tag_84\n      swap2\n      swap1\n      tag_85\n      jump\t// in\n    tag_84:\n      swap2\n      pop\n        /* \".deps/npm/@thirdweb-dev/dynamic-contracts/extension/upgradeable/PermissionsEnumberable.sol\":2555:3058  if (_permissionsEnumerableStorage().roleMembers[role].members[i] != address(0)) {... */\n      jump(tag_86)\n    tag_81:\n        /* \".deps/npm/@thirdweb-dev/dynamic-contracts/extension/upgradeable/PermissionsEnumberable.sol\":2894:2919  hasRole(role, address(0)) */\n      tag_87\n        /* \".deps/npm/@thirdweb-dev/dynamic-contracts/extension/upgradeable/PermissionsEnumberable.sol\":2902:2906  role */\n      dup7\n        /* \".deps/npm/@thirdweb-dev/dynamic-contracts/extension/upgradeable/PermissionsEnumberable.sol\":2916:2917  0 */\n      0x00\n        /* \".deps/npm/@thirdweb-dev/dynamic-contracts/extension/upgradeable/PermissionsEnumberable.sol\":2894:2901  hasRole */\n      tag_34\n        /* \".deps/npm/@thirdweb-dev/dynamic-contracts/extension/upgradeable/PermissionsEnumberable.sol\":2894:2919  hasRole(role, address(0)) */\n      jump\t// in\n    tag_87:\n        /* \".deps/npm/@thirdweb-dev/dynamic-contracts/extension/upgradeable/PermissionsEnumberable.sol\":2894:2997  hasRole(role, address(0)) && i == _permissionsEnumerableStorage().roleMembers[role].indexOf[address(0)] */\n      dup1\n      iszero\n      tag_88\n      jumpi\n      pop\n        /* \".deps/npm/@thirdweb-dev/dynamic-contracts/extension/upgradeable/PermissionsEnumberable.sol\":2928:2959  _permissionsEnumerableStorage() */\n      tag_89\n        /* \".deps/npm/@thirdweb-dev/dynamic-contracts/extension/upgradeable/PermissionsEnumberable.sol\":2928:2957  _permissionsEnumerableStorage */\n      tag_76\n        /* \".deps/npm/@thirdweb-dev/dynamic-contracts/extension/upgradeable/PermissionsEnumberable.sol\":2928:2959  _permissionsEnumerableStorage() */\n      jump\t// in\n    tag_89:\n        /* \".deps/npm/@thirdweb-dev/dynamic-contracts/extension/upgradeable/PermissionsEnumberable.sol\":2928:2971  _permissionsEnumerableStorage().roleMembers */\n      0x00\n      add\n        /* \".deps/npm/@thirdweb-dev/dynamic-contracts/extension/upgradeable/PermissionsEnumberable.sol\":2928:2977  _permissionsEnumerableStorage().roleMembers[role] */\n      0x00\n        /* \".deps/npm/@thirdweb-dev/dynamic-contracts/extension/upgradeable/PermissionsEnumberable.sol\":2972:2976  role */\n      dup8\n        /* \".deps/npm/@thirdweb-dev/dynamic-contracts/extension/upgradeable/PermissionsEnumberable.sol\":2928:2977  _permissionsEnumerableStorage().roleMembers[role] */\n      dup2\n      mstore\n      0x20\n      add\n      swap1\n      dup2\n      mstore\n      0x20\n      add\n      0x00\n      keccak256\n        /* \".deps/npm/@thirdweb-dev/dynamic-contracts/extension/upgradeable/PermissionsEnumberable.sol\":2928:2985  _permissionsEnumerableStorage().roleMembers[role].indexOf */\n      0x02\n      add\n        /* \".deps/npm/@thirdweb-dev/dynamic-contracts/extension/upgradeable/PermissionsEnumberable.sol\":2928:2997  _permissionsEnumerableStorage().roleMembers[role].indexOf[address(0)] */\n      0x00\n        /* \".deps/npm/@thirdweb-dev/dynamic-contracts/extension/upgradeable/PermissionsEnumberable.sol\":2994:2995  0 */\n      dup1\n        /* \".deps/npm/@thirdweb-dev/dynamic-contracts/extension/upgradeable/PermissionsEnumberable.sol\":2928:2997  _permissionsEnumerableStorage().roleMembers[role].indexOf[address(0)] */\n      0xffffffffffffffffffffffffffffffffffffffff\n      and\n      0xffffffffffffffffffffffffffffffffffffffff\n      and\n      dup2\n      mstore\n      0x20\n      add\n      swap1\n      dup2\n      mstore\n      0x20\n      add\n      0x00\n      keccak256\n      sload\n        /* \".deps/npm/@thirdweb-dev/dynamic-contracts/extension/upgradeable/PermissionsEnumberable.sol\":2923:2924  i */\n      dup2\n        /* \".deps/npm/@thirdweb-dev/dynamic-contracts/extension/upgradeable/PermissionsEnumberable.sol\":2923:2997  i == _permissionsEnumerableStorage().roleMembers[role].indexOf[address(0)] */\n      eq\n        /* \".deps/npm/@thirdweb-dev/dynamic-contracts/extension/upgradeable/PermissionsEnumberable.sol\":2894:2997  hasRole(role, address(0)) && i == _permissionsEnumerableStorage().roleMembers[role].indexOf[address(0)] */\n    tag_88:\n        /* \".deps/npm/@thirdweb-dev/dynamic-contracts/extension/upgradeable/PermissionsEnumberable.sol\":2872:3058  if (... */\n      iszero\n      tag_90\n      jumpi\n        /* \".deps/npm/@thirdweb-dev/dynamic-contracts/extension/upgradeable/PermissionsEnumberable.sol\":3041:3042  1 */\n      0x01\n        /* \".deps/npm/@thirdweb-dev/dynamic-contracts/extension/upgradeable/PermissionsEnumberable.sol\":3032:3042  check += 1 */\n      dup3\n      tag_91\n      swap2\n      swap1\n      tag_85\n      jump\t// in\n    tag_91:\n      swap2\n      pop\n        /* \".deps/npm/@thirdweb-dev/dynamic-contracts/extension/upgradeable/PermissionsEnumberable.sol\":2872:3058  if (... */\n    tag_90:\n        /* \".deps/npm/@thirdweb-dev/dynamic-contracts/extension/upgradeable/PermissionsEnumberable.sol\":2555:3058  if (_permissionsEnumerableStorage().roleMembers[role].members[i] != address(0)) {... */\n    tag_86:\n        /* \".deps/npm/@thirdweb-dev/dynamic-contracts/extension/upgradeable/PermissionsEnumberable.sol\":2537:2538  1 */\n      0x01\n        /* \".deps/npm/@thirdweb-dev/dynamic-contracts/extension/upgradeable/PermissionsEnumberable.sol\":2532:2538  i += 1 */\n      dup2\n      tag_92\n      swap2\n      swap1\n      tag_85\n      jump\t// in\n    tag_92:\n      swap1\n      pop\n        /* \".deps/npm/@thirdweb-dev/dynamic-contracts/extension/upgradeable/PermissionsEnumberable.sol\":2494:3069  for (uint256 i = 0; i < currentIndex; i += 1) {... */\n      jump(tag_77)\n    tag_78:\n      pop\n        /* \".deps/npm/@thirdweb-dev/dynamic-contracts/extension/upgradeable/PermissionsEnumberable.sol\":2368:3076  {... */\n      pop\n      pop\n        /* \".deps/npm/@thirdweb-dev/dynamic-contracts/extension/upgradeable/PermissionsEnumberable.sol\":2268:3076  function getRoleMember(bytes32 role, uint256 index) external view override returns (address member) {... */\n    tag_74:\n      swap3\n      swap2\n      pop\n      pop\n      jump\t// out\n        /* \".deps/npm/@thirdweb-dev/dynamic-contracts/extension/upgradeable/Permissions.sol\":1945:2100  function hasRole(bytes32 role, address account) public view override returns (bool) {... */\n    tag_34:\n        /* \".deps/npm/@thirdweb-dev/dynamic-contracts/extension/upgradeable/Permissions.sol\":2023:2027  bool */\n      0x00\n        /* \".deps/npm/@thirdweb-dev/dynamic-contracts/extension/upgradeable/Permissions.sol\":2047:2068  _permissionsStorage() */\n      tag_94\n        /* \".deps/npm/@thirdweb-dev/dynamic-contracts/extension/upgradeable/Permissions.sol\":2047:2066  _permissionsStorage */\n      tag_54\n        /* \".deps/npm/@thirdweb-dev/dynamic-contracts/extension/upgradeable/Permissions.sol\":2047:2068  _permissionsStorage() */\n      jump\t// in\n    tag_94:\n        /* \".deps/npm/@thirdweb-dev/dynamic-contracts/extension/upgradeable/Permissions.sol\":2047:2077  _permissionsStorage()._hasRole */\n      0x00\n      add\n        /* \".deps/npm/@thirdweb-dev/dynamic-contracts/extension/upgradeable/Permissions.sol\":2047:2083  _permissionsStorage()._hasRole[role] */\n      0x00\n        /* \".deps/npm/@thirdweb-dev/dynamic-contracts/extension/upgradeable/Permissions.sol\":2078:2082  role */\n      dup5\n        /* \".deps/npm/@thirdweb-dev/dynamic-contracts/extension/upgradeable/Permissions.sol\":2047:2083  _permissionsStorage()._hasRole[role] */\n      dup2\n      mstore\n      0x20\n      add\n      swap1\n      dup2\n      mstore\n      0x20\n      add\n      0x00\n      keccak256\n        /* \".deps/npm/@thirdweb-dev/dynamic-contracts/extension/upgradeable/Permissions.sol\":2047:2092  _permissionsStorage()._hasRole[role][account] */\n      0x00\n        /* \".deps/npm/@thirdweb-dev/dynamic-contracts/extension/upgradeable/Permissions.sol\":2084:2091  account */\n      dup4\n        /* \".deps/npm/@thirdweb-dev/dynamic-contracts/extension/upgradeable/Permissions.sol\":2047:2092  _permissionsStorage()._hasRole[role][account] */\n      0xffffffffffffffffffffffffffffffffffffffff\n      and\n      0xffffffffffffffffffffffffffffffffffffffff\n      and\n      dup2\n      mstore\n      0x20\n      add\n      swap1\n      dup2\n      mstore\n      0x20\n      add\n      0x00\n      keccak256\n      0x00\n      swap1\n      sload\n      swap1\n      0x0100\n      exp\n      swap1\n      div\n      0xff\n      and\n        /* \".deps/npm/@thirdweb-dev/dynamic-contracts/extension/upgradeable/Permissions.sol\":2040:2092  return _permissionsStorage()._hasRole[role][account] */\n      swap1\n      pop\n        /* \".deps/npm/@thirdweb-dev/dynamic-contracts/extension/upgradeable/Permissions.sol\":1945:2100  function hasRole(bytes32 role, address account) public view override returns (bool) {... */\n      swap3\n      swap2\n      pop\n      pop\n      jump\t// out\n        /* \".deps/npm/@thirdweb-dev/dynamic-contracts/extension/upgradeable/Permissions.sol\":1346:1395  bytes32 public constant DEFAULT_ADMIN_ROLE = 0x00 */\n    tag_38:\n        /* \".deps/npm/@thirdweb-dev/dynamic-contracts/extension/upgradeable/Permissions.sol\":1391:1395  0x00 */\n      0x00\n        /* \".deps/npm/@thirdweb-dev/dynamic-contracts/extension/upgradeable/Permissions.sol\":1346:1395  bytes32 public constant DEFAULT_ADMIN_ROLE = 0x00 */\n      dup1\n      shl\n      dup2\n      jump\t// out\n        /* \".deps/npm/@thirdweb-dev/dynamic-contracts/extension/upgradeable/Permissions.sol\":2867:3128  function hasRoleWithSwitch(bytes32 role, address account) public view returns (bool) {... */\n    tag_42:\n        /* \".deps/npm/@thirdweb-dev/dynamic-contracts/extension/upgradeable/Permissions.sol\":2946:2950  bool */\n      0x00\n        /* \".deps/npm/@thirdweb-dev/dynamic-contracts/extension/upgradeable/Permissions.sol\":2968:2989  _permissionsStorage() */\n      tag_96\n        /* \".deps/npm/@thirdweb-dev/dynamic-contracts/extension/upgradeable/Permissions.sol\":2968:2987  _permissionsStorage */\n      tag_54\n        /* \".deps/npm/@thirdweb-dev/dynamic-contracts/extension/upgradeable/Permissions.sol\":2968:2989  _permissionsStorage() */\n      jump\t// in\n    tag_96:\n        /* \".deps/npm/@thirdweb-dev/dynamic-contracts/extension/upgradeable/Permissions.sol\":2968:2998  _permissionsStorage()._hasRole */\n      0x00\n      add\n        /* \".deps/npm/@thirdweb-dev/dynamic-contracts/extension/upgradeable/Permissions.sol\":2968:3004  _permissionsStorage()._hasRole[role] */\n      0x00\n        /* \".deps/npm/@thirdweb-dev/dynamic-contracts/extension/upgradeable/Permissions.sol\":2999:3003  role */\n      dup5\n        /* \".deps/npm/@thirdweb-dev/dynamic-contracts/extension/upgradeable/Permissions.sol\":2968:3004  _permissionsStorage()._hasRole[role] */\n      dup2\n      mstore\n      0x20\n      add\n      swap1\n      dup2\n      mstore\n      0x20\n      add\n      0x00\n      keccak256\n        /* \".deps/npm/@thirdweb-dev/dynamic-contracts/extension/upgradeable/Permissions.sol\":2968:3016  _permissionsStorage()._hasRole[role][address(0)] */\n      0x00\n        /* \".deps/npm/@thirdweb-dev/dynamic-contracts/extension/upgradeable/Permissions.sol\":3013:3014  0 */\n      dup1\n        /* \".deps/npm/@thirdweb-dev/dynamic-contracts/extension/upgradeable/Permissions.sol\":2968:3016  _permissionsStorage()._hasRole[role][address(0)] */\n      0xffffffffffffffffffffffffffffffffffffffff\n      and\n      0xffffffffffffffffffffffffffffffffffffffff\n      and\n      dup2\n      mstore\n      0x20\n      add\n      swap1\n      dup2\n      mstore\n      0x20\n      add\n      0x00\n      keccak256\n      0x00\n      swap1\n      sload\n      swap1\n      0x0100\n      exp\n      swap1\n      div\n      0xff\n      and\n        /* \".deps/npm/@thirdweb-dev/dynamic-contracts/extension/upgradeable/Permissions.sol\":2963:3097  if (!_permissionsStorage()._hasRole[role][address(0)]) {... */\n      tag_97\n      jumpi\n        /* \".deps/npm/@thirdweb-dev/dynamic-contracts/extension/upgradeable/Permissions.sol\":3040:3061  _permissionsStorage() */\n      tag_98\n        /* \".deps/npm/@thirdweb-dev/dynamic-contracts/extension/upgradeable/Permissions.sol\":3040:3059  _permissionsStorage */\n      tag_54\n        /* \".deps/npm/@thirdweb-dev/dynamic-contracts/extension/upgradeable/Permissions.sol\":3040:3061  _permissionsStorage() */\n      jump\t// in\n    tag_98:\n        /* \".deps/npm/@thirdweb-dev/dynamic-contracts/extension/upgradeable/Permissions.sol\":3040:3070  _permissionsStorage()._hasRole */\n      0x00\n      add\n        /* \".deps/npm/@thirdweb-dev/dynamic-contracts/extension/upgradeable/Permissions.sol\":3040:3076  _permissionsStorage()._hasRole[role] */\n      0x00\n        /* \".deps/npm/@thirdweb-dev/dynamic-contracts/extension/upgradeable/Permissions.sol\":3071:3075  role */\n      dup5\n        /* \".deps/npm/@thirdweb-dev/dynamic-contracts/extension/upgradeable/Permissions.sol\":3040:3076  _permissionsStorage()._hasRole[role] */\n      dup2\n      mstore\n      0x20\n      add\n      swap1\n      dup2\n      mstore\n      0x20\n      add\n      0x00\n      keccak256\n        /* \".deps/npm/@thirdweb-dev/dynamic-contracts/extension/upgradeable/Permissions.sol\":3040:3085  _permissionsStorage()._hasRole[role][account] */\n      0x00\n        /* \".deps/npm/@thirdweb-dev/dynamic-contracts/extension/upgradeable/Permissions.sol\":3077:3084  account */\n      dup4\n        /* \".deps/npm/@thirdweb-dev/dynamic-contracts/extension/upgradeable/Permissions.sol\":3040:3085  _permissionsStorage()._hasRole[role][account] */\n      0xffffffffffffffffffffffffffffffffffffffff\n      and\n      0xffffffffffffffffffffffffffffffffffffffff\n      and\n      dup2\n      mstore\n      0x20\n      add\n      swap1\n      dup2\n      mstore\n      0x20\n      add\n      0x00\n      keccak256\n      0x00\n      swap1\n      sload\n      swap1\n      0x0100\n      exp\n      swap1\n      div\n      0xff\n      and\n        /* \".deps/npm/@thirdweb-dev/dynamic-contracts/extension/upgradeable/Permissions.sol\":3033:3085  return _permissionsStorage()._hasRole[role][account] */\n      swap1\n      pop\n      jump(tag_95)\n        /* \".deps/npm/@thirdweb-dev/dynamic-contracts/extension/upgradeable/Permissions.sol\":2963:3097  if (!_permissionsStorage()._hasRole[role][address(0)]) {... */\n    tag_97:\n        /* \".deps/npm/@thirdweb-dev/dynamic-contracts/extension/upgradeable/Permissions.sol\":3116:3120  true */\n      0x01\n        /* \".deps/npm/@thirdweb-dev/dynamic-contracts/extension/upgradeable/Permissions.sol\":3109:3120  return true */\n      swap1\n      pop\n        /* \".deps/npm/@thirdweb-dev/dynamic-contracts/extension/upgradeable/Permissions.sol\":2867:3128  function hasRoleWithSwitch(bytes32 role, address account) public view returns (bool) {... */\n    tag_95:\n      swap3\n      swap2\n      pop\n      pop\n      jump\t// out\n        /* \".deps/npm/@thirdweb-dev/dynamic-contracts/extension/upgradeable/PermissionsEnumberable.sol\":3494:3967  function getRoleMemberCount(bytes32 role) external view override returns (uint256 count) {... */\n    tag_46:\n        /* \".deps/npm/@thirdweb-dev/dynamic-contracts/extension/upgradeable/PermissionsEnumberable.sol\":3568:3581  uint256 count */\n      0x00\n        /* \".deps/npm/@thirdweb-dev/dynamic-contracts/extension/upgradeable/PermissionsEnumberable.sol\":3594:3614  uint256 currentIndex */\n      dup1\n        /* \".deps/npm/@thirdweb-dev/dynamic-contracts/extension/upgradeable/PermissionsEnumberable.sol\":3617:3648  _permissionsEnumerableStorage() */\n      tag_100\n        /* \".deps/npm/@thirdweb-dev/dynamic-contracts/extension/upgradeable/PermissionsEnumberable.sol\":3617:3646  _permissionsEnumerableStorage */\n      tag_76\n        /* \".deps/npm/@thirdweb-dev/dynamic-contracts/extension/upgradeable/PermissionsEnumberable.sol\":3617:3648  _permissionsEnumerableStorage() */\n      jump\t// in\n    tag_100:\n        /* \".deps/npm/@thirdweb-dev/dynamic-contracts/extension/upgradeable/PermissionsEnumberable.sol\":3617:3660  _permissionsEnumerableStorage().roleMembers */\n      0x00\n      add\n        /* \".deps/npm/@thirdweb-dev/dynamic-contracts/extension/upgradeable/PermissionsEnumberable.sol\":3617:3666  _permissionsEnumerableStorage().roleMembers[role] */\n      0x00\n        /* \".deps/npm/@thirdweb-dev/dynamic-contracts/extension/upgradeable/PermissionsEnumberable.sol\":3661:3665  role */\n      dup5\n        /* \".deps/npm/@thirdweb-dev/dynamic-contracts/extension/upgradeable/PermissionsEnumberable.sol\":3617:3666  _permissionsEnumerableStorage().roleMembers[role] */\n      dup2\n      mstore\n      0x20\n      add\n      swap1\n      dup2\n      mstore\n      0x20\n      add\n      0x00\n      keccak256\n        /* \".deps/npm/@thirdweb-dev/dynamic-contracts/extension/upgradeable/PermissionsEnumberable.sol\":3617:3672  _permissionsEnumerableStorage().roleMembers[role].index */\n      0x00\n      add\n      sload\n        /* \".deps/npm/@thirdweb-dev/dynamic-contracts/extension/upgradeable/PermissionsEnumberable.sol\":3594:3672  uint256 currentIndex = _permissionsEnumerableStorage().roleMembers[role].index */\n      swap1\n      pop\n        /* \".deps/npm/@thirdweb-dev/dynamic-contracts/extension/upgradeable/PermissionsEnumberable.sol\":3690:3699  uint256 i */\n      0x00\n        /* \".deps/npm/@thirdweb-dev/dynamic-contracts/extension/upgradeable/PermissionsEnumberable.sol\":3685:3882  for (uint256 i = 0; i < currentIndex; i += 1) {... */\n    tag_101:\n        /* \".deps/npm/@thirdweb-dev/dynamic-contracts/extension/upgradeable/PermissionsEnumberable.sol\":3709:3721  currentIndex */\n      dup2\n        /* \".deps/npm/@thirdweb-dev/dynamic-contracts/extension/upgradeable/PermissionsEnumberable.sol\":3705:3706  i */\n      dup2\n        /* \".deps/npm/@thirdweb-dev/dynamic-contracts/extension/upgradeable/PermissionsEnumberable.sol\":3705:3721  i < currentIndex */\n      lt\n        /* \".deps/npm/@thirdweb-dev/dynamic-contracts/extension/upgradeable/PermissionsEnumberable.sol\":3685:3882  for (uint256 i = 0; i < currentIndex; i += 1) {... */\n      iszero\n      tag_102\n      jumpi\n        /* \".deps/npm/@thirdweb-dev/dynamic-contracts/extension/upgradeable/PermissionsEnumberable.sol\":3822:3823  0 */\n      0x00\n        /* \".deps/npm/@thirdweb-dev/dynamic-contracts/extension/upgradeable/PermissionsEnumberable.sol\":3750:3824  _permissionsEnumerableStorage().roleMembers[role].members[i] != address(0) */\n      0xffffffffffffffffffffffffffffffffffffffff\n      and\n        /* \".deps/npm/@thirdweb-dev/dynamic-contracts/extension/upgradeable/PermissionsEnumberable.sol\":3750:3781  _permissionsEnumerableStorage() */\n      tag_104\n        /* \".deps/npm/@thirdweb-dev/dynamic-contracts/extension/upgradeable/PermissionsEnumberable.sol\":3750:3779  _permissionsEnumerableStorage */\n      tag_76\n        /* \".deps/npm/@thirdweb-dev/dynamic-contracts/extension/upgradeable/PermissionsEnumberable.sol\":3750:3781  _permissionsEnumerableStorage() */\n      jump\t// in\n    tag_104:\n        /* \".deps/npm/@thirdweb-dev/dynamic-contracts/extension/upgradeable/PermissionsEnumberable.sol\":3750:3793  _permissionsEnumerableStorage().roleMembers */\n      0x00\n      add\n        /* \".deps/npm/@thirdweb-dev/dynamic-contracts/extension/upgradeable/PermissionsEnumberable.sol\":3750:3799  _permissionsEnumerableStorage().roleMembers[role] */\n      0x00\n        /* \".deps/npm/@thirdweb-dev/dynamic-contracts/extension/upgradeable/PermissionsEnumberable.sol\":3794:3798  role */\n      dup7\n        /* \".deps/npm/@thirdweb-dev/dynamic-contracts/extension/upgradeable/PermissionsEnumberable.sol\":3750:3799  _permissionsEnumerableStorage().roleMembers[role] */\n      dup2\n      mstore\n      0x20\n      add\n      swap1\n      dup2\n      mstore\n      0x20\n      add\n      0x00\n      keccak256\n        /* \".deps/npm/@thirdweb-dev/dynamic-contracts/extension/upgradeable/PermissionsEnumberable.sol\":3750:3807  _permissionsEnumerableStorage().roleMembers[role].members */\n      0x01\n      add\n        /* \".deps/npm/@thirdweb-dev/dynamic-contracts/extension/upgradeable/PermissionsEnumberable.sol\":3750:3810  _permissionsEnumerableStorage().roleMembers[role].members[i] */\n      0x00\n        /* \".deps/npm/@thirdweb-dev/dynamic-contracts/extension/upgradeable/PermissionsEnumberable.sol\":3808:3809  i */\n      dup4\n        /* \".deps/npm/@thirdweb-dev/dynamic-contracts/extension/upgradeable/PermissionsEnumberable.sol\":3750:3810  _permissionsEnumerableStorage().roleMembers[role].members[i] */\n      dup2\n      mstore\n      0x20\n      add\n      swap1\n      dup2\n      mstore\n      0x20\n      add\n      0x00\n      keccak256\n      0x00\n      swap1\n      sload\n      swap1\n      0x0100\n      exp\n      swap1\n      div\n      0xffffffffffffffffffffffffffffffffffffffff\n      and\n        /* \".deps/npm/@thirdweb-dev/dynamic-contracts/extension/upgradeable/PermissionsEnumberable.sol\":3750:3824  _permissionsEnumerableStorage().roleMembers[role].members[i] != address(0) */\n      0xffffffffffffffffffffffffffffffffffffffff\n      and\n      eq\n        /* \".deps/npm/@thirdweb-dev/dynamic-contracts/extension/upgradeable/PermissionsEnumberable.sol\":3746:3871  if (_permissionsEnumerableStorage().roleMembers[role].members[i] != address(0)) {... */\n      tag_105\n      jumpi\n        /* \".deps/npm/@thirdweb-dev/dynamic-contracts/extension/upgradeable/PermissionsEnumberable.sol\":3854:3855  1 */\n      0x01\n        /* \".deps/npm/@thirdweb-dev/dynamic-contracts/extension/upgradeable/PermissionsEnumberable.sol\":3845:3855  count += 1 */\n      dup4\n      tag_106\n      swap2\n      swap1\n      tag_85\n      jump\t// in\n    tag_106:\n      swap3\n      pop\n        /* \".deps/npm/@thirdweb-dev/dynamic-contracts/extension/upgradeable/PermissionsEnumberable.sol\":3746:3871  if (_permissionsEnumerableStorage().roleMembers[role].members[i] != address(0)) {... */\n    tag_105:\n        /* \".deps/npm/@thirdweb-dev/dynamic-contracts/extension/upgradeable/PermissionsEnumberable.sol\":3728:3729  1 */\n      0x01\n        /* \".deps/npm/@thirdweb-dev/dynamic-contracts/extension/upgradeable/PermissionsEnumberable.sol\":3723:3729  i += 1 */\n      dup2\n      tag_107\n      swap2\n      swap1\n      tag_85\n      jump\t// in\n    tag_107:\n      swap1\n      pop\n        /* \".deps/npm/@thirdweb-dev/dynamic-contracts/extension/upgradeable/PermissionsEnumberable.sol\":3685:3882  for (uint256 i = 0; i < currentIndex; i += 1) {... */\n      jump(tag_101)\n    tag_102:\n      pop\n        /* \".deps/npm/@thirdweb-dev/dynamic-contracts/extension/upgradeable/PermissionsEnumberable.sol\":3896:3921  hasRole(role, address(0)) */\n      tag_108\n        /* \".deps/npm/@thirdweb-dev/dynamic-contracts/extension/upgradeable/PermissionsEnumberable.sol\":3904:3908  role */\n      dup4\n        /* \".deps/npm/@thirdweb-dev/dynamic-contracts/extension/upgradeable/PermissionsEnumberable.sol\":3918:3919  0 */\n      0x00\n        /* \".deps/npm/@thirdweb-dev/dynamic-contracts/extension/upgradeable/PermissionsEnumberable.sol\":3896:3903  hasRole */\n      tag_34\n        /* \".deps/npm/@thirdweb-dev/dynamic-contracts/extension/upgradeable/PermissionsEnumberable.sol\":3896:3921  hasRole(role, address(0)) */\n      jump\t// in\n    tag_108:\n        /* \".deps/npm/@thirdweb-dev/dynamic-contracts/extension/upgradeable/PermissionsEnumberable.sol\":3892:3960  if (hasRole(role, address(0))) {... */\n      iszero\n      tag_109\n      jumpi\n        /* \".deps/npm/@thirdweb-dev/dynamic-contracts/extension/upgradeable/PermissionsEnumberable.sol\":3947:3948  1 */\n      0x01\n        /* \".deps/npm/@thirdweb-dev/dynamic-contracts/extension/upgradeable/PermissionsEnumberable.sol\":3938:3948  count += 1 */\n      dup3\n      tag_110\n      swap2\n      swap1\n      tag_85\n      jump\t// in\n    tag_110:\n      swap2\n      pop\n        /* \".deps/npm/@thirdweb-dev/dynamic-contracts/extension/upgradeable/PermissionsEnumberable.sol\":3892:3960  if (hasRole(role, address(0))) {... */\n    tag_109:\n        /* \".deps/npm/@thirdweb-dev/dynamic-contracts/extension/upgradeable/PermissionsEnumberable.sol\":3583:3967  {... */\n      pop\n        /* \".deps/npm/@thirdweb-dev/dynamic-contracts/extension/upgradeable/PermissionsEnumberable.sol\":3494:3967  function getRoleMemberCount(bytes32 role) external view override returns (uint256 count) {... */\n      swap2\n      swap1\n      pop\n      jump\t// out\n        /* \".deps/npm/@thirdweb-dev/dynamic-contracts/extension/upgradeable/Permissions.sol\":4713:4911  function revokeRole(bytes32 role, address account) public virtual override {... */\n    tag_51:\n        /* \".deps/npm/@thirdweb-dev/dynamic-contracts/extension/upgradeable/Permissions.sol\":4799:4866  _checkRole(_permissionsStorage()._getRoleAdmin[role], _msgSender()) */\n      tag_112\n        /* \".deps/npm/@thirdweb-dev/dynamic-contracts/extension/upgradeable/Permissions.sol\":4810:4831  _permissionsStorage() */\n      tag_113\n        /* \".deps/npm/@thirdweb-dev/dynamic-contracts/extension/upgradeable/Permissions.sol\":4810:4829  _permissionsStorage */\n      tag_54\n        /* \".deps/npm/@thirdweb-dev/dynamic-contracts/extension/upgradeable/Permissions.sol\":4810:4831  _permissionsStorage() */\n      jump\t// in\n    tag_113:\n        /* \".deps/npm/@thirdweb-dev/dynamic-contracts/extension/upgradeable/Permissions.sol\":4810:4845  _permissionsStorage()._getRoleAdmin */\n      0x01\n      add\n        /* \".deps/npm/@thirdweb-dev/dynamic-contracts/extension/upgradeable/Permissions.sol\":4810:4851  _permissionsStorage()._getRoleAdmin[role] */\n      0x00\n        /* \".deps/npm/@thirdweb-dev/dynamic-contracts/extension/upgradeable/Permissions.sol\":4846:4850  role */\n      dup5\n        /* \".deps/npm/@thirdweb-dev/dynamic-contracts/extension/upgradeable/Permissions.sol\":4810:4851  _permissionsStorage()._getRoleAdmin[role] */\n      dup2\n      mstore\n      0x20\n      add\n      swap1\n      dup2\n      mstore\n      0x20\n      add\n      0x00\n      keccak256\n      sload\n        /* \".deps/npm/@thirdweb-dev/dynamic-contracts/extension/upgradeable/Permissions.sol\":4853:4865  _msgSender() */\n      tag_114\n        /* \".deps/npm/@thirdweb-dev/dynamic-contracts/extension/upgradeable/Permissions.sol\":4853:4863  _msgSender */\n      tag_59\n        /* \".deps/npm/@thirdweb-dev/dynamic-contracts/extension/upgradeable/Permissions.sol\":4853:4865  _msgSender() */\n      jump\t// in\n    tag_114:\n        /* \".deps/npm/@thirdweb-dev/dynamic-contracts/extension/upgradeable/Permissions.sol\":4799:4809  _checkRole */\n      tag_60\n        /* \".deps/npm/@thirdweb-dev/dynamic-contracts/extension/upgradeable/Permissions.sol\":4799:4866  _checkRole(_permissionsStorage()._getRoleAdmin[role], _msgSender()) */\n      jump\t// in\n    tag_112:\n        /* \".deps/npm/@thirdweb-dev/dynamic-contracts/extension/upgradeable/Permissions.sol\":4877:4903  _revokeRole(role, account) */\n      tag_115\n        /* \".deps/npm/@thirdweb-dev/dynamic-contracts/extension/upgradeable/Permissions.sol\":4889:4893  role */\n      dup3\n        /* \".deps/npm/@thirdweb-dev/dynamic-contracts/extension/upgradeable/Permissions.sol\":4895:4902  account */\n      dup3\n        /* \".deps/npm/@thirdweb-dev/dynamic-contracts/extension/upgradeable/Permissions.sol\":4877:4888  _revokeRole */\n      tag_73\n        /* \".deps/npm/@thirdweb-dev/dynamic-contracts/extension/upgradeable/Permissions.sol\":4877:4903  _revokeRole(role, account) */\n      jump\t// in\n    tag_115:\n        /* \".deps/npm/@thirdweb-dev/dynamic-contracts/extension/upgradeable/Permissions.sol\":4713:4911  function revokeRole(bytes32 role, address account) public virtual override {... */\n      pop\n      pop\n      jump\t// out\n        /* \".deps/npm/@thirdweb-dev/dynamic-contracts/extension/upgradeable/Permissions.sol\":7961:8104  function _permissionsStorage() internal pure returns (PermissionsStorage.Data storage data) {... */\n    tag_54:\n        /* \".deps/npm/@thirdweb-dev/dynamic-contracts/extension/upgradeable/Permissions.sol\":8015:8051  PermissionsStorage.Data storage data */\n      0x00\n        /* \".deps/npm/@thirdweb-dev/dynamic-contracts/extension/upgradeable/Permissions.sol\":8071:8096  PermissionsStorage.data() */\n      tag_117\n        /* \".deps/npm/@thirdweb-dev/dynamic-contracts/extension/upgradeable/Permissions.sol\":8071:8094  PermissionsStorage.data */\n      tag_118\n        /* \".deps/npm/@thirdweb-dev/dynamic-contracts/extension/upgradeable/Permissions.sol\":8071:8096  PermissionsStorage.data() */\n      jump\t// in\n    tag_117:\n        /* \".deps/npm/@thirdweb-dev/dynamic-contracts/extension/upgradeable/Permissions.sol\":8064:8096  data = PermissionsStorage.data() */\n      swap1\n      pop\n        /* \".deps/npm/@thirdweb-dev/dynamic-contracts/extension/upgradeable/Permissions.sol\":7961:8104  function _permissionsStorage() internal pure returns (PermissionsStorage.Data storage data) {... */\n      swap1\n      jump\t// out\n        /* \".deps/npm/@thirdweb-dev/dynamic-contracts/extension/upgradeable/Permissions.sol\":7692:7797  function _msgSender() internal view virtual returns (address sender) {... */\n    tag_59:\n        /* \".deps/npm/@thirdweb-dev/dynamic-contracts/extension/upgradeable/Permissions.sol\":7745:7759  address sender */\n      0x00\n        /* \".deps/npm/@thirdweb-dev/dynamic-contracts/extension/upgradeable/Permissions.sol\":7779:7789  msg.sender */\n      caller\n        /* \".deps/npm/@thirdweb-dev/dynamic-contracts/extension/upgradeable/Permissions.sol\":7772:7789  return msg.sender */\n      swap1\n      pop\n        /* \".deps/npm/@thirdweb-dev/dynamic-contracts/extension/upgradeable/Permissions.sol\":7692:7797  function _msgSender() internal view virtual returns (address sender) {... */\n      swap1\n      jump\t// out\n        /* \".deps/npm/@thirdweb-dev/dynamic-contracts/extension/upgradeable/Permissions.sol\":6532:7058  function _checkRole(bytes32 role, address account) internal view virtual {... */\n    tag_60:\n        /* \".deps/npm/@thirdweb-dev/dynamic-contracts/extension/upgradeable/Permissions.sol\":6621:6642  _permissionsStorage() */\n      tag_121\n        /* \".deps/npm/@thirdweb-dev/dynamic-contracts/extension/upgradeable/Permissions.sol\":6621:6640  _permissionsStorage */\n      tag_54\n        /* \".deps/npm/@thirdweb-dev/dynamic-contracts/extension/upgradeable/Permissions.sol\":6621:6642  _permissionsStorage() */\n      jump\t// in\n    tag_121:\n        /* \".deps/npm/@thirdweb-dev/dynamic-contracts/extension/upgradeable/Permissions.sol\":6621:6651  _permissionsStorage()._hasRole */\n      0x00\n      add\n        /* \".deps/npm/@thirdweb-dev/dynamic-contracts/extension/upgradeable/Permissions.sol\":6621:6657  _permissionsStorage()._hasRole[role] */\n      0x00\n        /* \".deps/npm/@thirdweb-dev/dynamic-contracts/extension/upgradeable/Permissions.sol\":6652:6656  role */\n      dup4\n        /* \".deps/npm/@thirdweb-dev/dynamic-contracts/extension/upgradeable/Permissions.sol\":6621:6657  _permissionsStorage()._hasRole[role] */\n      dup2\n      mstore\n      0x20\n      add\n      swap1\n      dup2\n      mstore\n      0x20\n      add\n      0x00\n      keccak256\n        /* \".deps/npm/@thirdweb-dev/dynamic-contracts/extension/upgradeable/Permissions.sol\":6621:6666  _permissionsStorage()._hasRole[role][account] */\n      0x00\n        /* \".deps/npm/@thirdweb-dev/dynamic-contracts/extension/upgradeable/Permissions.sol\":6658:6665  account */\n      dup3\n        /* \".deps/npm/@thirdweb-dev/dynamic-contracts/extension/upgradeable/Permissions.sol\":6621:6666  _permissionsStorage()._hasRole[role][account] */\n      0xffffffffffffffffffffffffffffffffffffffff\n      and\n      0xffffffffffffffffffffffffffffffffffffffff\n      and\n      dup2\n      mstore\n      0x20\n      add\n      swap1\n      dup2\n      mstore\n      0x20\n      add\n      0x00\n      keccak256\n      0x00\n      swap1\n      sload\n      swap1\n      0x0100\n      exp\n      swap1\n      div\n      0xff\n      and\n        /* \".deps/npm/@thirdweb-dev/dynamic-contracts/extension/upgradeable/Permissions.sol\":6616:7051  if (!_permissionsStorage()._hasRole[role][account]) {... */\n      tag_122\n      jumpi\n        /* \".deps/npm/@thirdweb-dev/dynamic-contracts/extension/upgradeable/Permissions.sol\":6830:6871  Strings.toHexString(uint160(account), 20) */\n      tag_123\n        /* \".deps/npm/@thirdweb-dev/dynamic-contracts/extension/upgradeable/Permissions.sol\":6858:6865  account */\n      dup2\n        /* \".deps/npm/@thirdweb-dev/dynamic-contracts/extension/upgradeable/Permissions.sol\":6830:6871  Strings.toHexString(uint160(account), 20) */\n      0xffffffffffffffffffffffffffffffffffffffff\n      and\n        /* \".deps/npm/@thirdweb-dev/dynamic-contracts/extension/upgradeable/Permissions.sol\":6868:6870  20 */\n      0x14\n        /* \".deps/npm/@thirdweb-dev/dynamic-contracts/extension/upgradeable/Permissions.sol\":6830:6849  Strings.toHexString */\n      tag_124\n        /* \".deps/npm/@thirdweb-dev/dynamic-contracts/extension/upgradeable/Permissions.sol\":6830:6871  Strings.toHexString(uint160(account), 20) */\n      jump\t// in\n    tag_123:\n        /* \".deps/npm/@thirdweb-dev/dynamic-contracts/extension/upgradeable/Permissions.sol\":6944:6982  Strings.toHexString(uint256(role), 32) */\n      tag_125\n        /* \".deps/npm/@thirdweb-dev/dynamic-contracts/extension/upgradeable/Permissions.sol\":6972:6976  role */\n      dup4\n        /* \".deps/npm/@thirdweb-dev/dynamic-contracts/extension/upgradeable/Permissions.sol\":6964:6977  uint256(role) */\n      0x00\n      shr\n        /* \".deps/npm/@thirdweb-dev/dynamic-contracts/extension/upgradeable/Permissions.sol\":6979:6981  32 */\n      0x20\n        /* \".deps/npm/@thirdweb-dev/dynamic-contracts/extension/upgradeable/Permissions.sol\":6944:6963  Strings.toHexString */\n      tag_124\n        /* \".deps/npm/@thirdweb-dev/dynamic-contracts/extension/upgradeable/Permissions.sol\":6944:6982  Strings.toHexString(uint256(role), 32) */\n      jump\t// in\n    tag_125:\n        /* \".deps/npm/@thirdweb-dev/dynamic-contracts/extension/upgradeable/Permissions.sol\":6737:7005  abi.encodePacked(... */\n      add(0x20, mload(0x40))\n      tag_126\n      swap3\n      swap2\n      swap1\n      tag_127\n      jump\t// in\n    tag_126:\n      mload(0x40)\n      0x20\n      dup2\n      dup4\n      sub\n      sub\n      dup2\n      mstore\n      swap1\n      0x40\n      mstore\n        /* \".deps/npm/@thirdweb-dev/dynamic-contracts/extension/upgradeable/Permissions.sol\":6683:7039  revert(... */\n      mload(0x40)\n      0x08c379a000000000000000000000000000000000000000000000000000000000\n      dup2\n      mstore\n      0x04\n      add\n      tag_128\n      swap2\n      swap1\n      tag_129\n      jump\t// in\n    tag_128:\n      mload(0x40)\n      dup1\n      swap2\n      sub\n      swap1\n      revert\n        /* \".deps/npm/@thirdweb-dev/dynamic-contracts/extension/upgradeable/Permissions.sol\":6616:7051  if (!_permissionsStorage()._hasRole[role][account]) {... */\n    tag_122:\n        /* \".deps/npm/@thirdweb-dev/dynamic-contracts/extension/upgradeable/Permissions.sol\":6532:7058  function _checkRole(bytes32 role, address account) internal view virtual {... */\n      pop\n      pop\n      jump\t// out\n        /* \".deps/npm/@thirdweb-dev/dynamic-contracts/extension/upgradeable/PermissionsEnumberable.sol\":4380:4543  function _setupRole(bytes32 role, address account) internal virtual override {... */\n    tag_66:\n        /* \".deps/npm/@thirdweb-dev/dynamic-contracts/extension/upgradeable/PermissionsEnumberable.sol\":4468:4499  super._setupRole(role, account) */\n      tag_131\n        /* \".deps/npm/@thirdweb-dev/dynamic-contracts/extension/upgradeable/PermissionsEnumberable.sol\":4485:4489  role */\n      dup3\n        /* \".deps/npm/@thirdweb-dev/dynamic-contracts/extension/upgradeable/PermissionsEnumberable.sol\":4491:4498  account */\n      dup3\n        /* \".deps/npm/@thirdweb-dev/dynamic-contracts/extension/upgradeable/PermissionsEnumberable.sol\":4468:4484  super._setupRole */\n      tag_132\n        /* \".deps/npm/@thirdweb-dev/dynamic-contracts/extension/upgradeable/PermissionsEnumberable.sol\":4468:4499  super._setupRole(role, account) */\n      jump\t// in\n    tag_131:\n        /* \".deps/npm/@thirdweb-dev/dynamic-contracts/extension/upgradeable/PermissionsEnumberable.sol\":4510:4535  _addMember(role, account) */\n      tag_133\n        /* \".deps/npm/@thirdweb-dev/dynamic-contracts/extension/upgradeable/PermissionsEnumberable.sol\":4521:4525  role */\n      dup3\n        /* \".deps/npm/@thirdweb-dev/dynamic-contracts/extension/upgradeable/PermissionsEnumberable.sol\":4527:4534  account */\n      dup3\n        /* \".deps/npm/@thirdweb-dev/dynamic-contracts/extension/upgradeable/PermissionsEnumberable.sol\":4510:4520  _addMember */\n      tag_134\n        /* \".deps/npm/@thirdweb-dev/dynamic-contracts/extension/upgradeable/PermissionsEnumberable.sol\":4510:4535  _addMember(role, account) */\n      jump\t// in\n    tag_133:\n        /* \".deps/npm/@thirdweb-dev/dynamic-contracts/extension/upgradeable/PermissionsEnumberable.sol\":4380:4543  function _setupRole(bytes32 role, address account) internal virtual override {... */\n      pop\n      pop\n      jump\t// out\n        /* \".deps/npm/@thirdweb-dev/dynamic-contracts/extension/upgradeable/PermissionsEnumberable.sol\":4095:4263  function _revokeRole(bytes32 role, address account) internal virtual override {... */\n    tag_73:\n        /* \".deps/npm/@thirdweb-dev/dynamic-contracts/extension/upgradeable/PermissionsEnumberable.sol\":4184:4216  super._revokeRole(role, account) */\n      tag_136\n        /* \".deps/npm/@thirdweb-dev/dynamic-contracts/extension/upgradeable/PermissionsEnumberable.sol\":4202:4206  role */\n      dup3\n        /* \".deps/npm/@thirdweb-dev/dynamic-contracts/extension/upgradeable/PermissionsEnumberable.sol\":4208:4215  account */\n      dup3\n        /* \".deps/npm/@thirdweb-dev/dynamic-contracts/extension/upgradeable/PermissionsEnumberable.sol\":4184:4201  super._revokeRole */\n      tag_137\n        /* \".deps/npm/@thirdweb-dev/dynamic-contracts/extension/upgradeable/PermissionsEnumberable.sol\":4184:4216  super._revokeRole(role, account) */\n      jump\t// in\n    tag_136:\n        /* \".deps/npm/@thirdweb-dev/dynamic-contracts/extension/upgradeable/PermissionsEnumberable.sol\":4227:4255  _removeMember(role, account) */\n      tag_138\n        /* \".deps/npm/@thirdweb-dev/dynamic-contracts/extension/upgradeable/PermissionsEnumberable.sol\":4241:4245  role */\n      dup3\n        /* \".deps/npm/@thirdweb-dev/dynamic-contracts/extension/upgradeable/PermissionsEnumberable.sol\":4247:4254  account */\n      dup3\n        /* \".deps/npm/@thirdweb-dev/dynamic-contracts/extension/upgradeable/PermissionsEnumberable.sol\":4227:4240  _removeMember */\n      tag_139\n        /* \".deps/npm/@thirdweb-dev/dynamic-contracts/extension/upgradeable/PermissionsEnumberable.sol\":4227:4255  _removeMember(role, account) */\n      jump\t// in\n    tag_138:\n        /* \".deps/npm/@thirdweb-dev/dynamic-contracts/extension/upgradeable/PermissionsEnumberable.sol\":4095:4263  function _revokeRole(bytes32 role, address account) internal virtual override {... */\n      pop\n      pop\n      jump\t// out\n        /* \".deps/npm/@thirdweb-dev/dynamic-contracts/extension/upgradeable/PermissionsEnumberable.sol\":5460:5633  function _permissionsEnumerableStorage() internal pure returns (PermissionsEnumerableStorage.Data storage data) {... */\n    tag_76:\n        /* \".deps/npm/@thirdweb-dev/dynamic-contracts/extension/upgradeable/PermissionsEnumberable.sol\":5524:5570  PermissionsEnumerableStorage.Data storage data */\n      0x00\n        /* \".deps/npm/@thirdweb-dev/dynamic-contracts/extension/upgradeable/PermissionsEnumberable.sol\":5590:5625  PermissionsEnumerableStorage.data() */\n      tag_141\n        /* \".deps/npm/@thirdweb-dev/dynamic-contracts/extension/upgradeable/PermissionsEnumberable.sol\":5590:5623  PermissionsEnumerableStorage.data */\n      tag_142\n        /* \".deps/npm/@thirdweb-dev/dynamic-contracts/extension/upgradeable/PermissionsEnumberable.sol\":5590:5625  PermissionsEnumerableStorage.data() */\n      jump\t// in\n    tag_141:\n        /* \".deps/npm/@thirdweb-dev/dynamic-contracts/extension/upgradeable/PermissionsEnumberable.sol\":5583:5625  data = PermissionsEnumerableStorage.data() */\n      swap1\n      pop\n        /* \".deps/npm/@thirdweb-dev/dynamic-contracts/extension/upgradeable/PermissionsEnumberable.sol\":5460:5633  function _permissionsEnumerableStorage() internal pure returns (PermissionsEnumerableStorage.Data storage data) {... */\n      swap1\n      jump\t// out\n        /* \".deps/npm/@thirdweb-dev/dynamic-contracts/extension/upgradeable/Permissions.sol\":996:1188  function data() internal pure returns (Data storage data_) {... */\n    tag_118:\n        /* \".deps/npm/@thirdweb-dev/dynamic-contracts/extension/upgradeable/Permissions.sol\":1035:1053  Data storage data_ */\n      0x00\n        /* \".deps/npm/@thirdweb-dev/dynamic-contracts/extension/upgradeable/Permissions.sol\":1066:1082  bytes32 position */\n      dup1\n        /* \".deps/npm/@thirdweb-dev/dynamic-contracts/extension/upgradeable/Permissions.sol\":585:651  0x0a7b0f5c59907924802379ebe98cdc23e2ee7820f63d30126e10b3752010e500 */\n      0x0a7b0f5c59907924802379ebe98cdc23e2ee7820f63d30126e10b3752010e500\n        /* \".deps/npm/@thirdweb-dev/dynamic-contracts/extension/upgradeable/Permissions.sol\":1085:1113  PERMISSIONS_STORAGE_POSITION */\n      0x00\n      shl\n        /* \".deps/npm/@thirdweb-dev/dynamic-contracts/extension/upgradeable/Permissions.sol\":1066:1113  bytes32 position = PERMISSIONS_STORAGE_POSITION */\n      swap1\n      pop\n        /* \".deps/npm/@thirdweb-dev/dynamic-contracts/extension/upgradeable/Permissions.sol\":1162:1170  position */\n      dup1\n        /* \".deps/npm/@thirdweb-dev/dynamic-contracts/extension/upgradeable/Permissions.sol\":1148:1170  data_.slot := position */\n      swap2\n      pop\n        /* \".deps/npm/@thirdweb-dev/dynamic-contracts/extension/upgradeable/Permissions.sol\":1133:1181  {... */\n      pop\n        /* \".deps/npm/@thirdweb-dev/dynamic-contracts/extension/upgradeable/Permissions.sol\":996:1188  function data() internal pure returns (Data storage data_) {... */\n      swap1\n      jump\t// out\n        /* \".deps/npm/@thirdweb-dev/dynamic-contracts/src/lib/Strings.sol\":1618:2069  function toHexString(uint256 value, uint256 length) internal pure returns (string memory) {... */\n    tag_124:\n        /* \".deps/npm/@thirdweb-dev/dynamic-contracts/src/lib/Strings.sol\":1693:1706  string memory */\n      0x60\n        /* \".deps/npm/@thirdweb-dev/dynamic-contracts/src/lib/Strings.sol\":1719:1738  bytes memory buffer */\n      0x00\n        /* \".deps/npm/@thirdweb-dev/dynamic-contracts/src/lib/Strings.sol\":1764:1765  2 */\n      0x02\n        /* \".deps/npm/@thirdweb-dev/dynamic-contracts/src/lib/Strings.sol\":1755:1761  length */\n      dup4\n        /* \".deps/npm/@thirdweb-dev/dynamic-contracts/src/lib/Strings.sol\":1751:1752  2 */\n      0x02\n        /* \".deps/npm/@thirdweb-dev/dynamic-contracts/src/lib/Strings.sol\":1751:1761  2 * length */\n      tag_145\n      swap2\n      swap1\n      tag_146\n      jump\t// in\n    tag_145:\n        /* \".deps/npm/@thirdweb-dev/dynamic-contracts/src/lib/Strings.sol\":1751:1765  2 * length + 2 */\n      tag_147\n      swap2\n      swap1\n      tag_85\n      jump\t// in\n    tag_147:\n        /* \".deps/npm/@thirdweb-dev/dynamic-contracts/src/lib/Strings.sol\":1741:1766  new bytes(2 * length + 2) */\n      0xffffffffffffffff\n      dup2\n      gt\n      iszero\n      tag_148\n      jumpi\n      tag_149\n      tag_150\n      jump\t// in\n    tag_149:\n    tag_148:\n      mload(0x40)\n      swap1\n      dup1\n      dup3\n      mstore\n      dup1\n      0x1f\n      add\n      not(0x1f)\n      and\n      0x20\n      add\n      dup3\n      add\n      0x40\n      mstore\n      dup1\n      iszero\n      tag_151\n      jumpi\n      dup2\n      0x20\n      add\n      0x01\n      dup3\n      mul\n      dup1\n      calldatasize\n      dup4\n      calldatacopy\n      dup1\n      dup3\n      add\n      swap2\n      pop\n      pop\n      swap1\n      pop\n    tag_151:\n      pop\n        /* \".deps/npm/@thirdweb-dev/dynamic-contracts/src/lib/Strings.sol\":1719:1766  bytes memory buffer = new bytes(2 * length + 2) */\n      swap1\n      pop\n        /* \".deps/npm/@thirdweb-dev/dynamic-contracts/src/lib/Strings.sol\":1777:1792  buffer[0] = \"0\" */\n      0x3000000000000000000000000000000000000000000000000000000000000000\n        /* \".deps/npm/@thirdweb-dev/dynamic-contracts/src/lib/Strings.sol\":1777:1783  buffer */\n      dup2\n        /* \".deps/npm/@thirdweb-dev/dynamic-contracts/src/lib/Strings.sol\":1784:1785  0 */\n      0x00\n        /* \".deps/npm/@thirdweb-dev/dynamic-contracts/src/lib/Strings.sol\":1777:1786  buffer[0] */\n      dup2\n      mload\n      dup2\n      lt\n      tag_152\n      jumpi\n      tag_153\n      tag_154\n      jump\t// in\n    tag_153:\n    tag_152:\n      0x20\n      add\n      add\n        /* \".deps/npm/@thirdweb-dev/dynamic-contracts/src/lib/Strings.sol\":1777:1792  buffer[0] = \"0\" */\n      swap1\n      not(0xffffffffffffffffffffffffffffffffffffffffffffffffffffffffffffff)\n      and\n      swap1\n      dup2\n      0x00\n      byte\n      swap1\n      mstore8\n      pop\n        /* \".deps/npm/@thirdweb-dev/dynamic-contracts/src/lib/Strings.sol\":1803:1818  buffer[1] = \"x\" */\n      0x7800000000000000000000000000000000000000000000000000000000000000\n        /* \".deps/npm/@thirdweb-dev/dynamic-contracts/src/lib/Strings.sol\":1803:1809  buffer */\n      dup2\n        /* \".deps/npm/@thirdweb-dev/dynamic-contracts/src/lib/Strings.sol\":1810:1811  1 */\n      0x01\n        /* \".deps/npm/@thirdweb-dev/dynamic-contracts/src/lib/Strings.sol\":1803:1812  buffer[1] */\n      dup2\n      mload\n      dup2\n      lt\n      tag_155\n      jumpi\n      tag_156\n      tag_154\n      jump\t// in\n    tag_156:\n    tag_155:\n      0x20\n      add\n      add\n        /* \".deps/npm/@thirdweb-dev/dynamic-contracts/src/lib/Strings.sol\":1803:1818  buffer[1] = \"x\" */\n      swap1\n      not(0xffffffffffffffffffffffffffffffffffffffffffffffffffffffffffffff)\n      and\n      swap1\n      dup2\n      0x00\n      byte\n      swap1\n      mstore8\n      pop\n        /* \".deps/npm/@thirdweb-dev/dynamic-contracts/src/lib/Strings.sol\":1834:1843  uint256 i */\n      0x00\n        /* \".deps/npm/@thirdweb-dev/dynamic-contracts/src/lib/Strings.sol\":1859:1860  1 */\n      0x01\n        /* \".deps/npm/@thirdweb-dev/dynamic-contracts/src/lib/Strings.sol\":1850:1856  length */\n      dup5\n        /* \".deps/npm/@thirdweb-dev/dynamic-contracts/src/lib/Strings.sol\":1846:1847  2 */\n      0x02\n        /* \".deps/npm/@thirdweb-dev/dynamic-contracts/src/lib/Strings.sol\":1846:1856  2 * length */\n      tag_160\n      swap2\n      swap1\n      tag_146\n      jump\t// in\n    tag_160:\n        /* \".deps/npm/@thirdweb-dev/dynamic-contracts/src/lib/Strings.sol\":1846:1860  2 * length + 1 */\n      tag_161\n      swap2\n      swap1\n      tag_85\n      jump\t// in\n    tag_161:\n        /* \".deps/npm/@thirdweb-dev/dynamic-contracts/src/lib/Strings.sol\":1834:1860  uint256 i = 2 * length + 1 */\n      swap1\n      pop\n        /* \".deps/npm/@thirdweb-dev/dynamic-contracts/src/lib/Strings.sol\":1829:1964  for (uint256 i = 2 * length + 1; i > 1; --i) {... */\n    tag_157:\n        /* \".deps/npm/@thirdweb-dev/dynamic-contracts/src/lib/Strings.sol\":1866:1867  1 */\n      0x01\n        /* \".deps/npm/@thirdweb-dev/dynamic-contracts/src/lib/Strings.sol\":1862:1863  i */\n      dup2\n        /* \".deps/npm/@thirdweb-dev/dynamic-contracts/src/lib/Strings.sol\":1862:1867  i > 1 */\n      gt\n        /* \".deps/npm/@thirdweb-dev/dynamic-contracts/src/lib/Strings.sol\":1829:1964  for (uint256 i = 2 * length + 1; i > 1; --i) {... */\n      iszero\n      tag_158\n      jumpi\n        /* \".deps/npm/@thirdweb-dev/dynamic-contracts/src/lib/Strings.sol\":1901:1913  _HEX_SYMBOLS */\n      0x3031323334353637383961626364656600000000000000000000000000000000\n        /* \".deps/npm/@thirdweb-dev/dynamic-contracts/src/lib/Strings.sol\":1922:1925  0xf */\n      0x0f\n        /* \".deps/npm/@thirdweb-dev/dynamic-contracts/src/lib/Strings.sol\":1914:1919  value */\n      dup7\n        /* \".deps/npm/@thirdweb-dev/dynamic-contracts/src/lib/Strings.sol\":1914:1925  value & 0xf */\n      and\n        /* \".deps/npm/@thirdweb-dev/dynamic-contracts/src/lib/Strings.sol\":1901:1926  _HEX_SYMBOLS[value & 0xf] */\n      0x10\n      dup2\n      lt\n      tag_162\n      jumpi\n      tag_163\n      tag_154\n      jump\t// in\n    tag_163:\n    tag_162:\n      byte\n      0xf8\n      shl\n        /* \".deps/npm/@thirdweb-dev/dynamic-contracts/src/lib/Strings.sol\":1889:1895  buffer */\n      dup3\n        /* \".deps/npm/@thirdweb-dev/dynamic-contracts/src/lib/Strings.sol\":1896:1897  i */\n      dup3\n        /* \".deps/npm/@thirdweb-dev/dynamic-contracts/src/lib/Strings.sol\":1889:1898  buffer[i] */\n      dup2\n      mload\n      dup2\n      lt\n      tag_164\n      jumpi\n      tag_165\n      tag_154\n      jump\t// in\n    tag_165:\n    tag_164:\n      0x20\n      add\n      add\n        /* \".deps/npm/@thirdweb-dev/dynamic-contracts/src/lib/Strings.sol\":1889:1926  buffer[i] = _HEX_SYMBOLS[value & 0xf] */\n      swap1\n      not(0xffffffffffffffffffffffffffffffffffffffffffffffffffffffffffffff)\n      and\n      swap1\n      dup2\n      0x00\n      byte\n      swap1\n      mstore8\n      pop\n        /* \".deps/npm/@thirdweb-dev/dynamic-contracts/src/lib/Strings.sol\":1951:1952  4 */\n      0x04\n        /* \".deps/npm/@thirdweb-dev/dynamic-contracts/src/lib/Strings.sol\":1941:1952  value >>= 4 */\n      dup6\n      swap1\n      shr\n      swap5\n      pop\n        /* \".deps/npm/@thirdweb-dev/dynamic-contracts/src/lib/Strings.sol\":1869:1872  --i */\n      dup1\n      tag_166\n      swap1\n      tag_167\n      jump\t// in\n    tag_166:\n      swap1\n      pop\n        /* \".deps/npm/@thirdweb-dev/dynamic-contracts/src/lib/Strings.sol\":1829:1964  for (uint256 i = 2 * length + 1; i > 1; --i) {... */\n      jump(tag_157)\n    tag_158:\n      pop\n        /* \".deps/npm/@thirdweb-dev/dynamic-contracts/src/lib/Strings.sol\":1991:1992  0 */\n      0x00\n        /* \".deps/npm/@thirdweb-dev/dynamic-contracts/src/lib/Strings.sol\":1982:1987  value */\n      dup5\n        /* \".deps/npm/@thirdweb-dev/dynamic-contracts/src/lib/Strings.sol\":1982:1992  value == 0 */\n      eq\n        /* \".deps/npm/@thirdweb-dev/dynamic-contracts/src/lib/Strings.sol\":1974:2029  require(value == 0, \"Strings: hex length insufficient\") */\n      tag_168\n      jumpi\n      mload(0x40)\n      0x08c379a000000000000000000000000000000000000000000000000000000000\n      dup2\n      mstore\n      0x04\n      add\n      tag_169\n      swap1\n      tag_170\n      jump\t// in\n    tag_169:\n      mload(0x40)\n      dup1\n      swap2\n      sub\n      swap1\n      revert\n    tag_168:\n        /* \".deps/npm/@thirdweb-dev/dynamic-contracts/src/lib/Strings.sol\":2054:2060  buffer */\n      dup1\n        /* \".deps/npm/@thirdweb-dev/dynamic-contracts/src/lib/Strings.sol\":2040:2061  return string(buffer) */\n      swap2\n      pop\n      pop\n        /* \".deps/npm/@thirdweb-dev/dynamic-contracts/src/lib/Strings.sol\":1618:2069  function toHexString(uint256 value, uint256 length) internal pure returns (string memory) {... */\n      swap3\n      swap2\n      pop\n      pop\n      jump\t// out\n        /* \".deps/npm/@thirdweb-dev/dynamic-contracts/extension/upgradeable/Permissions.sol\":5950:6145  function _setupRole(bytes32 role, address account) internal virtual {... */\n    tag_132:\n        /* \".deps/npm/@thirdweb-dev/dynamic-contracts/extension/upgradeable/Permissions.sol\":6077:6081  true */\n      0x01\n        /* \".deps/npm/@thirdweb-dev/dynamic-contracts/extension/upgradeable/Permissions.sol\":6029:6050  _permissionsStorage() */\n      tag_172\n        /* \".deps/npm/@thirdweb-dev/dynamic-contracts/extension/upgradeable/Permissions.sol\":6029:6048  _permissionsStorage */\n      tag_54\n        /* \".deps/npm/@thirdweb-dev/dynamic-contracts/extension/upgradeable/Permissions.sol\":6029:6050  _permissionsStorage() */\n      jump\t// in\n    tag_172:\n        /* \".deps/npm/@thirdweb-dev/dynamic-contracts/extension/upgradeable/Permissions.sol\":6029:6059  _permissionsStorage()._hasRole */\n      0x00\n      add\n        /* \".deps/npm/@thirdweb-dev/dynamic-contracts/extension/upgradeable/Permissions.sol\":6029:6065  _permissionsStorage()._hasRole[role] */\n      0x00\n        /* \".deps/npm/@thirdweb-dev/dynamic-contracts/extension/upgradeable/Permissions.sol\":6060:6064  role */\n      dup5\n        /* \".deps/npm/@thirdweb-dev/dynamic-contracts/extension/upgradeable/Permissions.sol\":6029:6065  _permissionsStorage()._hasRole[role] */\n      dup2\n      mstore\n      0x20\n      add\n      swap1\n      dup2\n      mstore\n      0x20\n      add\n      0x00\n      keccak256\n        /* \".deps/npm/@thirdweb-dev/dynamic-contracts/extension/upgradeable/Permissions.sol\":6029:6074  _permissionsStorage()._hasRole[role][account] */\n      0x00\n        /* \".deps/npm/@thirdweb-dev/dynamic-contracts/extension/upgradeable/Permissions.sol\":6066:6073  account */\n      dup4\n        /* \".deps/npm/@thirdweb-dev/dynamic-contracts/extension/upgradeable/Permissions.sol\":6029:6074  _permissionsStorage()._hasRole[role][account] */\n      0xffffffffffffffffffffffffffffffffffffffff\n      and\n      0xffffffffffffffffffffffffffffffffffffffff\n      and\n      dup2\n      mstore\n      0x20\n      add\n      swap1\n      dup2\n      mstore\n      0x20\n      add\n      0x00\n      keccak256\n      0x00\n        /* \".deps/npm/@thirdweb-dev/dynamic-contracts/extension/upgradeable/Permissions.sol\":6029:6081  _permissionsStorage()._hasRole[role][account] = true */\n      0x0100\n      exp\n      dup2\n      sload\n      dup2\n      0xff\n      mul\n      not\n      and\n      swap1\n      dup4\n      iszero\n      iszero\n      mul\n      or\n      swap1\n      sstore\n      pop\n        /* \".deps/npm/@thirdweb-dev/dynamic-contracts/extension/upgradeable/Permissions.sol\":6124:6136  _msgSender() */\n      tag_173\n        /* \".deps/npm/@thirdweb-dev/dynamic-contracts/extension/upgradeable/Permissions.sol\":6124:6134  _msgSender */\n      tag_59\n        /* \".deps/npm/@thirdweb-dev/dynamic-contracts/extension/upgradeable/Permissions.sol\":6124:6136  _msgSender() */\n      jump\t// in\n    tag_173:\n        /* \".deps/npm/@thirdweb-dev/dynamic-contracts/extension/upgradeable/Permissions.sol\":6097:6137  RoleGranted(role, account, _msgSender()) */\n      0xffffffffffffffffffffffffffffffffffffffff\n      and\n        /* \".deps/npm/@thirdweb-dev/dynamic-contracts/extension/upgradeable/Permissions.sol\":6115:6122  account */\n      dup2\n        /* \".deps/npm/@thirdweb-dev/dynamic-contracts/extension/upgradeable/Permissions.sol\":6097:6137  RoleGranted(role, account, _msgSender()) */\n      0xffffffffffffffffffffffffffffffffffffffff\n      and\n        /* \".deps/npm/@thirdweb-dev/dynamic-contracts/extension/upgradeable/Permissions.sol\":6109:6113  role */\n      dup4\n        /* \".deps/npm/@thirdweb-dev/dynamic-contracts/extension/upgradeable/Permissions.sol\":6097:6137  RoleGranted(role, account, _msgSender()) */\n      0x2f8788117e7eff1d82e926ec794901d17c78024a50270940304540a733656f0d\n      mload(0x40)\n      mload(0x40)\n      dup1\n      swap2\n      sub\n      swap1\n      log4\n        /* \".deps/npm/@thirdweb-dev/dynamic-contracts/extension/upgradeable/Permissions.sol\":5950:6145  function _setupRole(bytes32 role, address account) internal virtual {... */\n      pop\n      pop\n      jump\t// out\n        /* \".deps/npm/@thirdweb-dev/dynamic-contracts/extension/upgradeable/PermissionsEnumberable.sol\":4609:4996  function _addMember(bytes32 role, address account) internal {... */\n    tag_134:\n        /* \".deps/npm/@thirdweb-dev/dynamic-contracts/extension/upgradeable/PermissionsEnumberable.sol\":4680:4691  uint256 idx */\n      0x00\n        /* \".deps/npm/@thirdweb-dev/dynamic-contracts/extension/upgradeable/PermissionsEnumberable.sol\":4694:4725  _permissionsEnumerableStorage() */\n      tag_175\n        /* \".deps/npm/@thirdweb-dev/dynamic-contracts/extension/upgradeable/PermissionsEnumberable.sol\":4694:4723  _permissionsEnumerableStorage */\n      tag_76\n        /* \".deps/npm/@thirdweb-dev/dynamic-contracts/extension/upgradeable/PermissionsEnumberable.sol\":4694:4725  _permissionsEnumerableStorage() */\n      jump\t// in\n    tag_175:\n        /* \".deps/npm/@thirdweb-dev/dynamic-contracts/extension/upgradeable/PermissionsEnumberable.sol\":4694:4737  _permissionsEnumerableStorage().roleMembers */\n      0x00\n      add\n        /* \".deps/npm/@thirdweb-dev/dynamic-contracts/extension/upgradeable/PermissionsEnumberable.sol\":4694:4743  _permissionsEnumerableStorage().roleMembers[role] */\n      0x00\n        /* \".deps/npm/@thirdweb-dev/dynamic-contracts/extension/upgradeable/PermissionsEnumberable.sol\":4738:4742  role */\n      dup5\n        /* \".deps/npm/@thirdweb-dev/dynamic-contracts/extension/upgradeable/PermissionsEnumberable.sol\":4694:4743  _permissionsEnumerableStorage().roleMembers[role] */\n      dup2\n      mstore\n      0x20\n      add\n      swap1\n      dup2\n      mstore\n      0x20\n      add\n      0x00\n      keccak256\n        /* \".deps/npm/@thirdweb-dev/dynamic-contracts/extension/upgradeable/PermissionsEnumberable.sol\":4694:4749  _permissionsEnumerableStorage().roleMembers[role].index */\n      0x00\n      add\n      sload\n        /* \".deps/npm/@thirdweb-dev/dynamic-contracts/extension/upgradeable/PermissionsEnumberable.sol\":4680:4749  uint256 idx = _permissionsEnumerableStorage().roleMembers[role].index */\n      swap1\n      pop\n        /* \".deps/npm/@thirdweb-dev/dynamic-contracts/extension/upgradeable/PermissionsEnumberable.sol\":4819:4820  1 */\n      0x01\n        /* \".deps/npm/@thirdweb-dev/dynamic-contracts/extension/upgradeable/PermissionsEnumberable.sol\":4760:4791  _permissionsEnumerableStorage() */\n      tag_176\n        /* \".deps/npm/@thirdweb-dev/dynamic-contracts/extension/upgradeable/PermissionsEnumberable.sol\":4760:4789  _permissionsEnumerableStorage */\n      tag_76\n        /* \".deps/npm/@thirdweb-dev/dynamic-contracts/extension/upgradeable/PermissionsEnumberable.sol\":4760:4791  _permissionsEnumerableStorage() */\n      jump\t// in\n    tag_176:\n        /* \".deps/npm/@thirdweb-dev/dynamic-contracts/extension/upgradeable/PermissionsEnumberable.sol\":4760:4803  _permissionsEnumerableStorage().roleMembers */\n      0x00\n      add\n        /* \".deps/npm/@thirdweb-dev/dynamic-contracts/extension/upgradeable/PermissionsEnumberable.sol\":4760:4809  _permissionsEnumerableStorage().roleMembers[role] */\n      0x00\n        /* \".deps/npm/@thirdweb-dev/dynamic-contracts/extension/upgradeable/PermissionsEnumberable.sol\":4804:4808  role */\n      dup6\n        /* \".deps/npm/@thirdweb-dev/dynamic-contracts/extension/upgradeable/PermissionsEnumberable.sol\":4760:4809  _permissionsEnumerableStorage().roleMembers[role] */\n      dup2\n      mstore\n      0x20\n      add\n      swap1\n      dup2\n      mstore\n      0x20\n      add\n      0x00\n      keccak256\n        /* \".deps/npm/@thirdweb-dev/dynamic-contracts/extension/upgradeable/PermissionsEnumberable.sol\":4760:4815  _permissionsEnumerableStorage().roleMembers[role].index */\n      0x00\n      add\n      0x00\n        /* \".deps/npm/@thirdweb-dev/dynamic-contracts/extension/upgradeable/PermissionsEnumberable.sol\":4760:4820  _permissionsEnumerableStorage().roleMembers[role].index += 1 */\n      dup3\n      dup3\n      sload\n      tag_177\n      swap2\n      swap1\n      tag_85\n      jump\t// in\n    tag_177:\n      swap3\n      pop\n      pop\n      dup2\n      swap1\n      sstore\n      pop\n        /* \".deps/npm/@thirdweb-dev/dynamic-contracts/extension/upgradeable/PermissionsEnumberable.sol\":4898:4905  account */\n      dup2\n        /* \".deps/npm/@thirdweb-dev/dynamic-contracts/extension/upgradeable/PermissionsEnumberable.sol\":4833:4864  _permissionsEnumerableStorage() */\n      tag_178\n        /* \".deps/npm/@thirdweb-dev/dynamic-contracts/extension/upgradeable/PermissionsEnumberable.sol\":4833:4862  _permissionsEnumerableStorage */\n      tag_76\n        /* \".deps/npm/@thirdweb-dev/dynamic-contracts/extension/upgradeable/PermissionsEnumberable.sol\":4833:4864  _permissionsEnumerableStorage() */\n      jump\t// in\n    tag_178:\n        /* \".deps/npm/@thirdweb-dev/dynamic-contracts/extension/upgradeable/PermissionsEnumberable.sol\":4833:4876  _permissionsEnumerableStorage().roleMembers */\n      0x00\n      add\n        /* \".deps/npm/@thirdweb-dev/dynamic-contracts/extension/upgradeable/PermissionsEnumberable.sol\":4833:4882  _permissionsEnumerableStorage().roleMembers[role] */\n      0x00\n        /* \".deps/npm/@thirdweb-dev/dynamic-contracts/extension/upgradeable/PermissionsEnumberable.sol\":4877:4881  role */\n      dup6\n        /* \".deps/npm/@thirdweb-dev/dynamic-contracts/extension/upgradeable/PermissionsEnumberable.sol\":4833:4882  _permissionsEnumerableStorage().roleMembers[role] */\n      dup2\n      mstore\n      0x20\n      add\n      swap1\n      dup2\n      mstore\n      0x20\n      add\n      0x00\n      keccak256\n        /* \".deps/npm/@thirdweb-dev/dynamic-contracts/extension/upgradeable/PermissionsEnumberable.sol\":4833:4890  _permissionsEnumerableStorage().roleMembers[role].members */\n      0x01\n      add\n        /* \".deps/npm/@thirdweb-dev/dynamic-contracts/extension/upgradeable/PermissionsEnumberable.sol\":4833:4895  _permissionsEnumerableStorage().roleMembers[role].members[idx] */\n      0x00\n        /* \".deps/npm/@thirdweb-dev/dynamic-contracts/extension/upgradeable/PermissionsEnumberable.sol\":4891:4894  idx */\n      dup4\n        /* \".deps/npm/@thirdweb-dev/dynamic-contracts/extension/upgradeable/PermissionsEnumberable.sol\":4833:4895  _permissionsEnumerableStorage().roleMembers[role].members[idx] */\n      dup2\n      mstore\n      0x20\n      add\n      swap1\n      dup2\n      mstore\n      0x20\n      add\n      0x00\n      keccak256\n      0x00\n        /* \".deps/npm/@thirdweb-dev/dynamic-contracts/extension/upgradeable/PermissionsEnumberable.sol\":4833:4905  _permissionsEnumerableStorage().roleMembers[role].members[idx] = account */\n      0x0100\n      exp\n      dup2\n      sload\n      dup2\n      0xffffffffffffffffffffffffffffffffffffffff\n      mul\n      not\n      and\n      swap1\n      dup4\n      0xffffffffffffffffffffffffffffffffffffffff\n      and\n      mul\n      or\n      swap1\n      sstore\n      pop\n        /* \".deps/npm/@thirdweb-dev/dynamic-contracts/extension/upgradeable/PermissionsEnumberable.sol\":4985:4988  idx */\n      dup1\n        /* \".deps/npm/@thirdweb-dev/dynamic-contracts/extension/upgradeable/PermissionsEnumberable.sol\":4916:4947  _permissionsEnumerableStorage() */\n      tag_179\n        /* \".deps/npm/@thirdweb-dev/dynamic-contracts/extension/upgradeable/PermissionsEnumberable.sol\":4916:4945  _permissionsEnumerableStorage */\n      tag_76\n        /* \".deps/npm/@thirdweb-dev/dynamic-contracts/extension/upgradeable/PermissionsEnumberable.sol\":4916:4947  _permissionsEnumerableStorage() */\n      jump\t// in\n    tag_179:\n        /* \".deps/npm/@thirdweb-dev/dynamic-contracts/extension/upgradeable/PermissionsEnumberable.sol\":4916:4959  _permissionsEnumerableStorage().roleMembers */\n      0x00\n      add\n        /* \".deps/npm/@thirdweb-dev/dynamic-contracts/extension/upgradeable/PermissionsEnumberable.sol\":4916:4965  _permissionsEnumerableStorage().roleMembers[role] */\n      0x00\n        /* \".deps/npm/@thirdweb-dev/dynamic-contracts/extension/upgradeable/PermissionsEnumberable.sol\":4960:4964  role */\n      dup6\n        /* \".deps/npm/@thirdweb-dev/dynamic-contracts/extension/upgradeable/PermissionsEnumberable.sol\":4916:4965  _permissionsEnumerableStorage().roleMembers[role] */\n      dup2\n      mstore\n      0x20\n      add\n      swap1\n      dup2\n      mstore\n      0x20\n      add\n      0x00\n      keccak256\n        /* \".deps/npm/@thirdweb-dev/dynamic-contracts/extension/upgradeable/PermissionsEnumberable.sol\":4916:4973  _permissionsEnumerableStorage().roleMembers[role].indexOf */\n      0x02\n      add\n        /* \".deps/npm/@thirdweb-dev/dynamic-contracts/extension/upgradeable/PermissionsEnumberable.sol\":4916:4982  _permissionsEnumerableStorage().roleMembers[role].indexOf[account] */\n      0x00\n        /* \".deps/npm/@thirdweb-dev/dynamic-contracts/extension/upgradeable/PermissionsEnumberable.sol\":4974:4981  account */\n      dup5\n        /* \".deps/npm/@thirdweb-dev/dynamic-contracts/extension/upgradeable/PermissionsEnumberable.sol\":4916:4982  _permissionsEnumerableStorage().roleMembers[role].indexOf[account] */\n      0xffffffffffffffffffffffffffffffffffffffff\n      and\n      0xffffffffffffffffffffffffffffffffffffffff\n      and\n      dup2\n      mstore\n      0x20\n      add\n      swap1\n      dup2\n      mstore\n      0x20\n      add\n      0x00\n      keccak256\n        /* \".deps/npm/@thirdweb-dev/dynamic-contracts/extension/upgradeable/PermissionsEnumberable.sol\":4916:4988  _permissionsEnumerableStorage().roleMembers[role].indexOf[account] = idx */\n      dup2\n      swap1\n      sstore\n      pop\n        /* \".deps/npm/@thirdweb-dev/dynamic-contracts/extension/upgradeable/PermissionsEnumberable.sol\":4669:4996  {... */\n      pop\n        /* \".deps/npm/@thirdweb-dev/dynamic-contracts/extension/upgradeable/PermissionsEnumberable.sol\":4609:4996  function _addMember(bytes32 role, address account) internal {... */\n      pop\n      pop\n      jump\t// out\n        /* \".deps/npm/@thirdweb-dev/dynamic-contracts/extension/upgradeable/Permissions.sol\":6197:6429  function _revokeRole(bytes32 role, address account) internal virtual {... */\n    tag_137:\n        /* \".deps/npm/@thirdweb-dev/dynamic-contracts/extension/upgradeable/Permissions.sol\":6277:6302  _checkRole(role, account) */\n      tag_181\n        /* \".deps/npm/@thirdweb-dev/dynamic-contracts/extension/upgradeable/Permissions.sol\":6288:6292  role */\n      dup3\n        /* \".deps/npm/@thirdweb-dev/dynamic-contracts/extension/upgradeable/Permissions.sol\":6294:6301  account */\n      dup3\n        /* \".deps/npm/@thirdweb-dev/dynamic-contracts/extension/upgradeable/Permissions.sol\":6277:6287  _checkRole */\n      tag_60\n        /* \".deps/npm/@thirdweb-dev/dynamic-contracts/extension/upgradeable/Permissions.sol\":6277:6302  _checkRole(role, account) */\n      jump\t// in\n    tag_181:\n        /* \".deps/npm/@thirdweb-dev/dynamic-contracts/extension/upgradeable/Permissions.sol\":6320:6341  _permissionsStorage() */\n      tag_182\n        /* \".deps/npm/@thirdweb-dev/dynamic-contracts/extension/upgradeable/Permissions.sol\":6320:6339  _permissionsStorage */\n      tag_54\n        /* \".deps/npm/@thirdweb-dev/dynamic-contracts/extension/upgradeable/Permissions.sol\":6320:6341  _permissionsStorage() */\n      jump\t// in\n    tag_182:\n        /* \".deps/npm/@thirdweb-dev/dynamic-contracts/extension/upgradeable/Permissions.sol\":6320:6350  _permissionsStorage()._hasRole */\n      0x00\n      add\n        /* \".deps/npm/@thirdweb-dev/dynamic-contracts/extension/upgradeable/Permissions.sol\":6320:6356  _permissionsStorage()._hasRole[role] */\n      0x00\n        /* \".deps/npm/@thirdweb-dev/dynamic-contracts/extension/upgradeable/Permissions.sol\":6351:6355  role */\n      dup4\n        /* \".deps/npm/@thirdweb-dev/dynamic-contracts/extension/upgradeable/Permissions.sol\":6320:6356  _permissionsStorage()._hasRole[role] */\n      dup2\n      mstore\n      0x20\n      add\n      swap1\n      dup2\n      mstore\n      0x20\n      add\n      0x00\n      keccak256\n        /* \".deps/npm/@thirdweb-dev/dynamic-contracts/extension/upgradeable/Permissions.sol\":6320:6365  _permissionsStorage()._hasRole[role][account] */\n      0x00\n        /* \".deps/npm/@thirdweb-dev/dynamic-contracts/extension/upgradeable/Permissions.sol\":6357:6364  account */\n      dup3\n        /* \".deps/npm/@thirdweb-dev/dynamic-contracts/extension/upgradeable/Permissions.sol\":6320:6365  _permissionsStorage()._hasRole[role][account] */\n      0xffffffffffffffffffffffffffffffffffffffff\n      and\n      0xffffffffffffffffffffffffffffffffffffffff\n      and\n      dup2\n      mstore\n      0x20\n      add\n      swap1\n      dup2\n      mstore\n      0x20\n      add\n      0x00\n      keccak256\n      0x00\n        /* \".deps/npm/@thirdweb-dev/dynamic-contracts/extension/upgradeable/Permissions.sol\":6313:6365  delete _permissionsStorage()._hasRole[role][account] */\n      0x0100\n      exp\n      dup2\n      sload\n      swap1\n      0xff\n      mul\n      not\n      and\n      swap1\n      sstore\n        /* \".deps/npm/@thirdweb-dev/dynamic-contracts/extension/upgradeable/Permissions.sol\":6408:6420  _msgSender() */\n      tag_183\n        /* \".deps/npm/@thirdweb-dev/dynamic-contracts/extension/upgradeable/Permissions.sol\":6408:6418  _msgSender */\n      tag_59\n        /* \".deps/npm/@thirdweb-dev/dynamic-contracts/extension/upgradeable/Permissions.sol\":6408:6420  _msgSender() */\n      jump\t// in\n    tag_183:\n        /* \".deps/npm/@thirdweb-dev/dynamic-contracts/extension/upgradeable/Permissions.sol\":6381:6421  RoleRevoked(role, account, _msgSender()) */\n      0xffffffffffffffffffffffffffffffffffffffff\n      and\n        /* \".deps/npm/@thirdweb-dev/dynamic-contracts/extension/upgradeable/Permissions.sol\":6399:6406  account */\n      dup2\n        /* \".deps/npm/@thirdweb-dev/dynamic-contracts/extension/upgradeable/Permissions.sol\":6381:6421  RoleRevoked(role, account, _msgSender()) */\n      0xffffffffffffffffffffffffffffffffffffffff\n      and\n        /* \".deps/npm/@thirdweb-dev/dynamic-contracts/extension/upgradeable/Permissions.sol\":6393:6397  role */\n      dup4\n        /* \".deps/npm/@thirdweb-dev/dynamic-contracts/extension/upgradeable/Permissions.sol\":6381:6421  RoleRevoked(role, account, _msgSender()) */\n      0xf6391f5c32d9c69d2a47ea670b442974b53935d1edc7fd64eb21e047a839171b\n      mload(0x40)\n      mload(0x40)\n      dup1\n      swap2\n      sub\n      swap1\n      log4\n        /* \".deps/npm/@thirdweb-dev/dynamic-contracts/extension/upgradeable/Permissions.sol\":6197:6429  function _revokeRole(bytes32 role, address account) internal virtual {... */\n      pop\n      pop\n      jump\t// out\n        /* \".deps/npm/@thirdweb-dev/dynamic-contracts/extension/upgradeable/PermissionsEnumberable.sol\":5067:5395  function _removeMember(bytes32 role, address account) internal {... */\n    tag_139:\n        /* \".deps/npm/@thirdweb-dev/dynamic-contracts/extension/upgradeable/PermissionsEnumberable.sol\":5141:5152  uint256 idx */\n      0x00\n        /* \".deps/npm/@thirdweb-dev/dynamic-contracts/extension/upgradeable/PermissionsEnumberable.sol\":5155:5186  _permissionsEnumerableStorage() */\n      tag_185\n        /* \".deps/npm/@thirdweb-dev/dynamic-contracts/extension/upgradeable/PermissionsEnumberable.sol\":5155:5184  _permissionsEnumerableStorage */\n      tag_76\n        /* \".deps/npm/@thirdweb-dev/dynamic-contracts/extension/upgradeable/PermissionsEnumberable.sol\":5155:5186  _permissionsEnumerableStorage() */\n      jump\t// in\n    tag_185:\n        /* \".deps/npm/@thirdweb-dev/dynamic-contracts/extension/upgradeable/PermissionsEnumberable.sol\":5155:5198  _permissionsEnumerableStorage().roleMembers */\n      0x00\n      add\n        /* \".deps/npm/@thirdweb-dev/dynamic-contracts/extension/upgradeable/PermissionsEnumberable.sol\":5155:5204  _permissionsEnumerableStorage().roleMembers[role] */\n      0x00\n        /* \".deps/npm/@thirdweb-dev/dynamic-contracts/extension/upgradeable/PermissionsEnumberable.sol\":5199:5203  role */\n      dup5\n        /* \".deps/npm/@thirdweb-dev/dynamic-contracts/extension/upgradeable/PermissionsEnumberable.sol\":5155:5204  _permissionsEnumerableStorage().roleMembers[role] */\n      dup2\n      mstore\n      0x20\n      add\n      swap1\n      dup2\n      mstore\n      0x20\n      add\n      0x00\n      keccak256\n        /* \".deps/npm/@thirdweb-dev/dynamic-contracts/extension/upgradeable/PermissionsEnumberable.sol\":5155:5212  _permissionsEnumerableStorage().roleMembers[role].indexOf */\n      0x02\n      add\n        /* \".deps/npm/@thirdweb-dev/dynamic-contracts/extension/upgradeable/PermissionsEnumberable.sol\":5155:5221  _permissionsEnumerableStorage().roleMembers[role].indexOf[account] */\n      0x00\n        /* \".deps/npm/@thirdweb-dev/dynamic-contracts/extension/upgradeable/PermissionsEnumberable.sol\":5213:5220  account */\n      dup4\n        /* \".deps/npm/@thirdweb-dev/dynamic-contracts/extension/upgradeable/PermissionsEnumberable.sol\":5155:5221  _permissionsEnumerableStorage().roleMembers[role].indexOf[account] */\n      0xffffffffffffffffffffffffffffffffffffffff\n      and\n      0xffffffffffffffffffffffffffffffffffffffff\n      and\n      dup2\n      mstore\n      0x20\n      add\n      swap1\n      dup2\n      mstore\n      0x20\n      add\n      0x00\n      keccak256\n      sload\n        /* \".deps/npm/@thirdweb-dev/dynamic-contracts/extension/upgradeable/PermissionsEnumberable.sol\":5141:5221  uint256 idx = _permissionsEnumerableStorage().roleMembers[role].indexOf[account] */\n      swap1\n      pop\n        /* \".deps/npm/@thirdweb-dev/dynamic-contracts/extension/upgradeable/PermissionsEnumberable.sol\":5241:5272  _permissionsEnumerableStorage() */\n      tag_186\n        /* \".deps/npm/@thirdweb-dev/dynamic-contracts/extension/upgradeable/PermissionsEnumberable.sol\":5241:5270  _permissionsEnumerableStorage */\n      tag_76\n        /* \".deps/npm/@thirdweb-dev/dynamic-contracts/extension/upgradeable/PermissionsEnumberable.sol\":5241:5272  _permissionsEnumerableStorage() */\n      jump\t// in\n    tag_186:\n        /* \".deps/npm/@thirdweb-dev/dynamic-contracts/extension/upgradeable/PermissionsEnumberable.sol\":5241:5284  _permissionsEnumerableStorage().roleMembers */\n      0x00\n      add\n        /* \".deps/npm/@thirdweb-dev/dynamic-contracts/extension/upgradeable/PermissionsEnumberable.sol\":5241:5290  _permissionsEnumerableStorage().roleMembers[role] */\n      0x00\n        /* \".deps/npm/@thirdweb-dev/dynamic-contracts/extension/upgradeable/PermissionsEnumberable.sol\":5285:5289  role */\n      dup5\n        /* \".deps/npm/@thirdweb-dev/dynamic-contracts/extension/upgradeable/PermissionsEnumberable.sol\":5241:5290  _permissionsEnumerableStorage().roleMembers[role] */\n      dup2\n      mstore\n      0x20\n      add\n      swap1\n      dup2\n      mstore\n      0x20\n      add\n      0x00\n      keccak256\n        /* \".deps/npm/@thirdweb-dev/dynamic-contracts/extension/upgradeable/PermissionsEnumberable.sol\":5241:5298  _permissionsEnumerableStorage().roleMembers[role].members */\n      0x01\n      add\n        /* \".deps/npm/@thirdweb-dev/dynamic-contracts/extension/upgradeable/PermissionsEnumberable.sol\":5241:5303  _permissionsEnumerableStorage().roleMembers[role].members[idx] */\n      0x00\n        /* \".deps/npm/@thirdweb-dev/dynamic-contracts/extension/upgradeable/PermissionsEnumberable.sol\":5299:5302  idx */\n      dup3\n        /* \".deps/npm/@thirdweb-dev/dynamic-contracts/extension/upgradeable/PermissionsEnumberable.sol\":5241:5303  _permissionsEnumerableStorage().roleMembers[role].members[idx] */\n      dup2\n      mstore\n      0x20\n      add\n      swap1\n      dup2\n      mstore\n      0x20\n      add\n      0x00\n      keccak256\n      0x00\n        /* \".deps/npm/@thirdweb-dev/dynamic-contracts/extension/upgradeable/PermissionsEnumberable.sol\":5234:5303  delete _permissionsEnumerableStorage().roleMembers[role].members[idx] */\n      0x0100\n      exp\n      dup2\n      sload\n      swap1\n      0xffffffffffffffffffffffffffffffffffffffff\n      mul\n      not\n      and\n      swap1\n      sstore\n        /* \".deps/npm/@thirdweb-dev/dynamic-contracts/extension/upgradeable/PermissionsEnumberable.sol\":5321:5352  _permissionsEnumerableStorage() */\n      tag_187\n        /* \".deps/npm/@thirdweb-dev/dynamic-contracts/extension/upgradeable/PermissionsEnumberable.sol\":5321:5350  _permissionsEnumerableStorage */\n      tag_76\n        /* \".deps/npm/@thirdweb-dev/dynamic-contracts/extension/upgradeable/PermissionsEnumberable.sol\":5321:5352  _permissionsEnumerableStorage() */\n      jump\t// in\n    tag_187:\n        /* \".deps/npm/@thirdweb-dev/dynamic-contracts/extension/upgradeable/PermissionsEnumberable.sol\":5321:5364  _permissionsEnumerableStorage().roleMembers */\n      0x00\n      add\n        /* \".deps/npm/@thirdweb-dev/dynamic-contracts/extension/upgradeable/PermissionsEnumberable.sol\":5321:5370  _permissionsEnumerableStorage().roleMembers[role] */\n      0x00\n        /* \".deps/npm/@thirdweb-dev/dynamic-contracts/extension/upgradeable/PermissionsEnumberable.sol\":5365:5369  role */\n      dup5\n        /* \".deps/npm/@thirdweb-dev/dynamic-contracts/extension/upgradeable/PermissionsEnumberable.sol\":5321:5370  _permissionsEnumerableStorage().roleMembers[role] */\n      dup2\n      mstore\n      0x20\n      add\n      swap1\n      dup2\n      mstore\n      0x20\n      add\n      0x00\n      keccak256\n        /* \".deps/npm/@thirdweb-dev/dynamic-contracts/extension/upgradeable/PermissionsEnumberable.sol\":5321:5378  _permissionsEnumerableStorage().roleMembers[role].indexOf */\n      0x02\n      add\n        /* \".deps/npm/@thirdweb-dev/dynamic-contracts/extension/upgradeable/PermissionsEnumberable.sol\":5321:5387  _permissionsEnumerableStorage().roleMembers[role].indexOf[account] */\n      0x00\n        /* \".deps/npm/@thirdweb-dev/dynamic-contracts/extension/upgradeable/PermissionsEnumberable.sol\":5379:5386  account */\n      dup4\n        /* \".deps/npm/@thirdweb-dev/dynamic-contracts/extension/upgradeable/PermissionsEnumberable.sol\":5321:5387  _permissionsEnumerableStorage().roleMembers[role].indexOf[account] */\n      0xffffffffffffffffffffffffffffffffffffffff\n      and\n      0xffffffffffffffffffffffffffffffffffffffff\n      and\n      dup2\n      mstore\n      0x20\n      add\n      swap1\n      dup2\n      mstore\n      0x20\n      add\n      0x00\n      keccak256\n        /* \".deps/npm/@thirdweb-dev/dynamic-contracts/extension/upgradeable/PermissionsEnumberable.sol\":5314:5387  delete _permissionsEnumerableStorage().roleMembers[role].indexOf[account] */\n      0x00\n      swap1\n      sstore\n        /* \".deps/npm/@thirdweb-dev/dynamic-contracts/extension/upgradeable/PermissionsEnumberable.sol\":5130:5395  {... */\n      pop\n        /* \".deps/npm/@thirdweb-dev/dynamic-contracts/extension/upgradeable/PermissionsEnumberable.sol\":5067:5395  function _removeMember(bytes32 role, address account) internal {... */\n      pop\n      pop\n      jump\t// out\n        /* \".deps/npm/@thirdweb-dev/dynamic-contracts/extension/upgradeable/PermissionsEnumberable.sol\":1435:1638  function data() internal pure returns (Data storage data_) {... */\n    tag_142:\n        /* \".deps/npm/@thirdweb-dev/dynamic-contracts/extension/upgradeable/PermissionsEnumberable.sol\":1474:1492  Data storage data_ */\n      0x00\n        /* \".deps/npm/@thirdweb-dev/dynamic-contracts/extension/upgradeable/PermissionsEnumberable.sol\":1505:1521  bytes32 position */\n      dup1\n        /* \".deps/npm/@thirdweb-dev/dynamic-contracts/extension/upgradeable/PermissionsEnumberable.sol\":758:762  0xff */\n      0xff\n        /* \".deps/npm/@thirdweb-dev/dynamic-contracts/extension/upgradeable/PermissionsEnumberable.sol\":742:764  bytes32(uint256(0xff)) */\n      0x00\n      shl\n        /* \".deps/npm/@thirdweb-dev/dynamic-contracts/extension/upgradeable/PermissionsEnumberable.sol\":741:764  ~bytes32(uint256(0xff)) */\n      not\n        /* \".deps/npm/@thirdweb-dev/dynamic-contracts/extension/upgradeable/PermissionsEnumberable.sol\":735:736  1 */\n      0x01\n        /* \".deps/npm/@thirdweb-dev/dynamic-contracts/extension/upgradeable/PermissionsEnumberable.sol\":688:731  keccak256(\"permissions.enumerable.storage\") */\n      0x0c4ba382c0009cf238e4c1ca1a52f51c61e6248a70bdfb34e5ed49d5578a5c0c\n        /* \".deps/npm/@thirdweb-dev/dynamic-contracts/extension/upgradeable/PermissionsEnumberable.sol\":680:732  uint256(keccak256(\"permissions.enumerable.storage\")) */\n      0x00\n      shr\n        /* \".deps/npm/@thirdweb-dev/dynamic-contracts/extension/upgradeable/PermissionsEnumberable.sol\":680:736  uint256(keccak256(\"permissions.enumerable.storage\")) - 1 */\n      tag_189\n      swap2\n      swap1\n      tag_190\n      jump\t// in\n    tag_189:\n        /* \".deps/npm/@thirdweb-dev/dynamic-contracts/extension/upgradeable/PermissionsEnumberable.sol\":669:737  abi.encode(uint256(keccak256(\"permissions.enumerable.storage\")) - 1) */\n      add(0x20, mload(0x40))\n      tag_191\n      swap2\n      swap1\n      tag_48\n      jump\t// in\n    tag_191:\n      mload(0x40)\n      0x20\n      dup2\n      dup4\n      sub\n      sub\n      dup2\n      mstore\n      swap1\n      0x40\n      mstore\n        /* \".deps/npm/@thirdweb-dev/dynamic-contracts/extension/upgradeable/PermissionsEnumberable.sol\":659:738  keccak256(abi.encode(uint256(keccak256(\"permissions.enumerable.storage\")) - 1)) */\n      dup1\n      mload\n      swap1\n      0x20\n      add\n      keccak256\n        /* \".deps/npm/@thirdweb-dev/dynamic-contracts/extension/upgradeable/PermissionsEnumberable.sol\":659:764  keccak256(abi.encode(uint256(keccak256(\"permissions.enumerable.storage\")) - 1)) & ~bytes32(uint256(0xff)) */\n      and\n        /* \".deps/npm/@thirdweb-dev/dynamic-contracts/extension/upgradeable/PermissionsEnumberable.sol\":1505:1563  bytes32 position = PERMISSIONS_ENUMERABLE_STORAGE_POSITION */\n      swap1\n      pop\n        /* \".deps/npm/@thirdweb-dev/dynamic-contracts/extension/upgradeable/PermissionsEnumberable.sol\":1612:1620  position */\n      dup1\n        /* \".deps/npm/@thirdweb-dev/dynamic-contracts/extension/upgradeable/PermissionsEnumberable.sol\":1598:1620  data_.slot := position */\n      swap2\n      pop\n        /* \".deps/npm/@thirdweb-dev/dynamic-contracts/extension/upgradeable/PermissionsEnumberable.sol\":1583:1631  {... */\n      pop\n        /* \".deps/npm/@thirdweb-dev/dynamic-contracts/extension/upgradeable/PermissionsEnumberable.sol\":1435:1638  function data() internal pure returns (Data storage data_) {... */\n      swap1\n      jump\t// out\n        /* \"#utility.yul\":88:205   */\n    tag_193:\n        /* \"#utility.yul\":197:198   */\n      0x00\n        /* \"#utility.yul\":194:195   */\n      dup1\n        /* \"#utility.yul\":187:199   */\n      revert\n        /* \"#utility.yul\":334:411   */\n    tag_195:\n        /* \"#utility.yul\":371:378   */\n      0x00\n        /* \"#utility.yul\":400:405   */\n      dup2\n        /* \"#utility.yul\":389:405   */\n      swap1\n      pop\n        /* \"#utility.yul\":334:411   */\n      swap2\n      swap1\n      pop\n      jump\t// out\n        /* \"#utility.yul\":417:539   */\n    tag_196:\n        /* \"#utility.yul\":490:514   */\n      tag_234\n        /* \"#utility.yul\":508:513   */\n      dup2\n        /* \"#utility.yul\":490:514   */\n      tag_195\n      jump\t// in\n    tag_234:\n        /* \"#utility.yul\":483:488   */\n      dup2\n        /* \"#utility.yul\":480:515   */\n      eq\n        /* \"#utility.yul\":470:533   */\n      tag_235\n      jumpi\n        /* \"#utility.yul\":529:530   */\n      0x00\n        /* \"#utility.yul\":526:527   */\n      dup1\n        /* \"#utility.yul\":519:531   */\n      revert\n        /* \"#utility.yul\":470:533   */\n    tag_235:\n        /* \"#utility.yul\":417:539   */\n      pop\n      jump\t// out\n        /* \"#utility.yul\":545:684   */\n    tag_197:\n        /* \"#utility.yul\":591:596   */\n      0x00\n        /* \"#utility.yul\":629:635   */\n      dup2\n        /* \"#utility.yul\":616:636   */\n      calldataload\n        /* \"#utility.yul\":607:636   */\n      swap1\n      pop\n        /* \"#utility.yul\":645:678   */\n      tag_237\n        /* \"#utility.yul\":672:677   */\n      dup2\n        /* \"#utility.yul\":645:678   */\n      tag_196\n      jump\t// in\n    tag_237:\n        /* \"#utility.yul\":545:684   */\n      swap3\n      swap2\n      pop\n      pop\n      jump\t// out\n        /* \"#utility.yul\":690:1019   */\n    tag_15:\n        /* \"#utility.yul\":749:755   */\n      0x00\n        /* \"#utility.yul\":798:800   */\n      0x20\n        /* \"#utility.yul\":786:795   */\n      dup3\n        /* \"#utility.yul\":777:784   */\n      dup5\n        /* \"#utility.yul\":773:796   */\n      sub\n        /* \"#utility.yul\":769:801   */\n      slt\n        /* \"#utility.yul\":766:885   */\n      iszero\n      tag_239\n      jumpi\n        /* \"#utility.yul\":804:883   */\n      tag_240\n      tag_193\n      jump\t// in\n    tag_240:\n        /* \"#utility.yul\":766:885   */\n    tag_239:\n        /* \"#utility.yul\":924:925   */\n      0x00\n        /* \"#utility.yul\":949:1002   */\n      tag_241\n        /* \"#utility.yul\":994:1001   */\n      dup5\n        /* \"#utility.yul\":985:991   */\n      dup3\n        /* \"#utility.yul\":974:983   */\n      dup6\n        /* \"#utility.yul\":970:992   */\n      add\n        /* \"#utility.yul\":949:1002   */\n      tag_197\n      jump\t// in\n    tag_241:\n        /* \"#utility.yul\":939:1002   */\n      swap2\n      pop\n        /* \"#utility.yul\":895:1012   */\n      pop\n        /* \"#utility.yul\":690:1019   */\n      swap3\n      swap2\n      pop\n      pop\n      jump\t// out\n        /* \"#utility.yul\":1025:1143   */\n    tag_198:\n        /* \"#utility.yul\":1112:1136   */\n      tag_243\n        /* \"#utility.yul\":1130:1135   */\n      dup2\n        /* \"#utility.yul\":1112:1136   */\n      tag_195\n      jump\t// in\n    tag_243:\n        /* \"#utility.yul\":1107:1110   */\n      dup3\n        /* \"#utility.yul\":1100:1137   */\n      mstore\n        /* \"#utility.yul\":1025:1143   */\n      pop\n      pop\n      jump\t// out\n        /* \"#utility.yul\":1149:1371   */\n    tag_18:\n        /* \"#utility.yul\":1242:1246   */\n      0x00\n        /* \"#utility.yul\":1280:1282   */\n      0x20\n        /* \"#utility.yul\":1269:1278   */\n      dup3\n        /* \"#utility.yul\":1265:1283   */\n      add\n        /* \"#utility.yul\":1257:1283   */\n      swap1\n      pop\n        /* \"#utility.yul\":1293:1364   */\n      tag_245\n        /* \"#utility.yul\":1361:1362   */\n      0x00\n        /* \"#utility.yul\":1350:1359   */\n      dup4\n        /* \"#utility.yul\":1346:1363   */\n      add\n        /* \"#utility.yul\":1337:1343   */\n      dup5\n        /* \"#utility.yul\":1293:1364   */\n      tag_198\n      jump\t// in\n    tag_245:\n        /* \"#utility.yul\":1149:1371   */\n      swap3\n      swap2\n      pop\n      pop\n      jump\t// out\n        /* \"#utility.yul\":1377:1503   */\n    tag_199:\n        /* \"#utility.yul\":1414:1421   */\n      0x00\n        /* \"#utility.yul\":1454:1496   */\n      0xffffffffffffffffffffffffffffffffffffffff\n        /* \"#utility.yul\":1447:1452   */\n      dup3\n        /* \"#utility.yul\":1443:1497   */\n      and\n        /* \"#utility.yul\":1432:1497   */\n      swap1\n      pop\n        /* \"#utility.yul\":1377:1503   */\n      swap2\n      swap1\n      pop\n      jump\t// out\n        /* \"#utility.yul\":1509:1605   */\n    tag_200:\n        /* \"#utility.yul\":1546:1553   */\n      0x00\n        /* \"#utility.yul\":1575:1599   */\n      tag_248\n        /* \"#utility.yul\":1593:1598   */\n      dup3\n        /* \"#utility.yul\":1575:1599   */\n      tag_199\n      jump\t// in\n    tag_248:\n        /* \"#utility.yul\":1564:1599   */\n      swap1\n      pop\n        /* \"#utility.yul\":1509:1605   */\n      swap2\n      swap1\n      pop\n      jump\t// out\n        /* \"#utility.yul\":1611:1733   */\n    tag_201:\n        /* \"#utility.yul\":1684:1708   */\n      tag_250\n        /* \"#utility.yul\":1702:1707   */\n      dup2\n        /* \"#utility.yul\":1684:1708   */\n      tag_200\n      jump\t// in\n    tag_250:\n        /* \"#utility.yul\":1677:1682   */\n      dup2\n        /* \"#utility.yul\":1674:1709   */\n      eq\n        /* \"#utility.yul\":1664:1727   */\n      tag_251\n      jumpi\n        /* \"#utility.yul\":1723:1724   */\n      0x00\n        /* \"#utility.yul\":1720:1721   */\n      dup1\n        /* \"#utility.yul\":1713:1725   */\n      revert\n        /* \"#utility.yul\":1664:1727   */\n    tag_251:\n        /* \"#utility.yul\":1611:1733   */\n      pop\n      jump\t// out\n        /* \"#utility.yul\":1739:1878   */\n    tag_202:\n        /* \"#utility.yul\":1785:1790   */\n      0x00\n        /* \"#utility.yul\":1823:1829   */\n      dup2\n        /* \"#utility.yul\":1810:1830   */\n      calldataload\n        /* \"#utility.yul\":1801:1830   */\n      swap1\n      pop\n        /* \"#utility.yul\":1839:1872   */\n      tag_253\n        /* \"#utility.yul\":1866:1871   */\n      dup2\n        /* \"#utility.yul\":1839:1872   */\n      tag_201\n      jump\t// in\n    tag_253:\n        /* \"#utility.yul\":1739:1878   */\n      swap3\n      swap2\n      pop\n      pop\n      jump\t// out\n        /* \"#utility.yul\":1884:2358   */\n    tag_21:\n        /* \"#utility.yul\":1952:1958   */\n      0x00\n        /* \"#utility.yul\":1960:1966   */\n      dup1\n        /* \"#utility.yul\":2009:2011   */\n      0x40\n        /* \"#utility.yul\":1997:2006   */\n      dup4\n        /* \"#utility.yul\":1988:1995   */\n      dup6\n        /* \"#utility.yul\":1984:2007   */\n      sub\n        /* \"#utility.yul\":1980:2012   */\n      slt\n        /* \"#utility.yul\":1977:2096   */\n      iszero\n      tag_255\n      jumpi\n        /* \"#utility.yul\":2015:2094   */\n      tag_256\n      tag_193\n      jump\t// in\n    tag_256:\n        /* \"#utility.yul\":1977:2096   */\n    tag_255:\n        /* \"#utility.yul\":2135:2136   */\n      0x00\n        /* \"#utility.yul\":2160:2213   */\n      tag_257\n        /* \"#utility.yul\":2205:2212   */\n      dup6\n        /* \"#utility.yul\":2196:2202   */\n      dup3\n        /* \"#utility.yul\":2185:2194   */\n      dup7\n        /* \"#utility.yul\":2181:2203   */\n      add\n        /* \"#utility.yul\":2160:2213   */\n      tag_197\n      jump\t// in\n    tag_257:\n        /* \"#utility.yul\":2150:2213   */\n      swap3\n      pop\n        /* \"#utility.yul\":2106:2223   */\n      pop\n        /* \"#utility.yul\":2262:2264   */\n      0x20\n        /* \"#utility.yul\":2288:2341   */\n      tag_258\n        /* \"#utility.yul\":2333:2340   */\n      dup6\n        /* \"#utility.yul\":2324:2330   */\n      dup3\n        /* \"#utility.yul\":2313:2322   */\n      dup7\n        /* \"#utility.yul\":2309:2331   */\n      add\n        /* \"#utility.yul\":2288:2341   */\n      tag_202\n      jump\t// in\n    tag_258:\n        /* \"#utility.yul\":2278:2341   */\n      swap2\n      pop\n        /* \"#utility.yul\":2233:2351   */\n      pop\n        /* \"#utility.yul\":1884:2358   */\n      swap3\n      pop\n      swap3\n      swap1\n      pop\n      jump\t// out\n        /* \"#utility.yul\":2364:2441   */\n    tag_203:\n        /* \"#utility.yul\":2401:2408   */\n      0x00\n        /* \"#utility.yul\":2430:2435   */\n      dup2\n        /* \"#utility.yul\":2419:2435   */\n      swap1\n      pop\n        /* \"#utility.yul\":2364:2441   */\n      swap2\n      swap1\n      pop\n      jump\t// out\n        /* \"#utility.yul\":2447:2569   */\n    tag_204:\n        /* \"#utility.yul\":2520:2544   */\n      tag_261\n        /* \"#utility.yul\":2538:2543   */\n      dup2\n        /* \"#utility.yul\":2520:2544   */\n      tag_203\n      jump\t// in\n    tag_261:\n        /* \"#utility.yul\":2513:2518   */\n      dup2\n        /* \"#utility.yul\":2510:2545   */\n      eq\n        /* \"#utility.yul\":2500:2563   */\n      tag_262\n      jumpi\n        /* \"#utility.yul\":2559:2560   */\n      0x00\n        /* \"#utility.yul\":2556:2557   */\n      dup1\n        /* \"#utility.yul\":2549:2561   */\n      revert\n        /* \"#utility.yul\":2500:2563   */\n    tag_262:\n        /* \"#utility.yul\":2447:2569   */\n      pop\n      jump\t// out\n        /* \"#utility.yul\":2575:2714   */\n    tag_205:\n        /* \"#utility.yul\":2621:2626   */\n      0x00\n        /* \"#utility.yul\":2659:2665   */\n      dup2\n        /* \"#utility.yul\":2646:2666   */\n      calldataload\n        /* \"#utility.yul\":2637:2666   */\n      swap1\n      pop\n        /* \"#utility.yul\":2675:2708   */\n      tag_264\n        /* \"#utility.yul\":2702:2707   */\n      dup2\n        /* \"#utility.yul\":2675:2708   */\n      tag_204\n      jump\t// in\n    tag_264:\n        /* \"#utility.yul\":2575:2714   */\n      swap3\n      swap2\n      pop\n      pop\n      jump\t// out\n        /* \"#utility.yul\":2720:3194   */\n    tag_28:\n        /* \"#utility.yul\":2788:2794   */\n      0x00\n        /* \"#utility.yul\":2796:2802   */\n      dup1\n        /* \"#utility.yul\":2845:2847   */\n      0x40\n        /* \"#utility.yul\":2833:2842   */\n      dup4\n        /* \"#utility.yul\":2824:2831   */\n      dup6\n        /* \"#utility.yul\":2820:2843   */\n      sub\n        /* \"#utility.yul\":2816:2848   */\n      slt\n        /* \"#utility.yul\":2813:2932   */\n      iszero\n      tag_266\n      jumpi\n        /* \"#utility.yul\":2851:2930   */\n      tag_267\n      tag_193\n      jump\t// in\n    tag_267:\n        /* \"#utility.yul\":2813:2932   */\n    tag_266:\n        /* \"#utility.yul\":2971:2972   */\n      0x00\n        /* \"#utility.yul\":2996:3049   */\n      tag_268\n        /* \"#utility.yul\":3041:3048   */\n      dup6\n        /* \"#utility.yul\":3032:3038   */\n      dup3\n        /* \"#utility.yul\":3021:3030   */\n      dup7\n        /* \"#utility.yul\":3017:3039   */\n      add\n        /* \"#utility.yul\":2996:3049   */\n      tag_197\n      jump\t// in\n    tag_268:\n        /* \"#utility.yul\":2986:3049   */\n      swap3\n      pop\n        /* \"#utility.yul\":2942:3059   */\n      pop\n        /* \"#utility.yul\":3098:3100   */\n      0x20\n        /* \"#utility.yul\":3124:3177   */\n      tag_269\n        /* \"#utility.yul\":3169:3176   */\n      dup6\n        /* \"#utility.yul\":3160:3166   */\n      dup3\n        /* \"#utility.yul\":3149:3158   */\n      dup7\n        /* \"#utility.yul\":3145:3167   */\n      add\n        /* \"#utility.yul\":3124:3177   */\n      tag_205\n      jump\t// in\n    tag_269:\n        /* \"#utility.yul\":3114:3177   */\n      swap2\n      pop\n        /* \"#utility.yul\":3069:3187   */\n      pop\n        /* \"#utility.yul\":2720:3194   */\n      swap3\n      pop\n      swap3\n      swap1\n      pop\n      jump\t// out\n        /* \"#utility.yul\":3200:3318   */\n    tag_206:\n        /* \"#utility.yul\":3287:3311   */\n      tag_271\n        /* \"#utility.yul\":3305:3310   */\n      dup2\n        /* \"#utility.yul\":3287:3311   */\n      tag_200\n      jump\t// in\n    tag_271:\n        /* \"#utility.yul\":3282:3285   */\n      dup3\n        /* \"#utility.yul\":3275:3312   */\n      mstore\n        /* \"#utility.yul\":3200:3318   */\n      pop\n      pop\n      jump\t// out\n        /* \"#utility.yul\":3324:3546   */\n    tag_31:\n        /* \"#utility.yul\":3417:3421   */\n      0x00\n        /* \"#utility.yul\":3455:3457   */\n      0x20\n        /* \"#utility.yul\":3444:3453   */\n      dup3\n        /* \"#utility.yul\":3440:3458   */\n      add\n        /* \"#utility.yul\":3432:3458   */\n      swap1\n      pop\n        /* \"#utility.yul\":3468:3539   */\n      tag_273\n        /* \"#utility.yul\":3536:3537   */\n      0x00\n        /* \"#utility.yul\":3525:3534   */\n      dup4\n        /* \"#utility.yul\":3521:3538   */\n      add\n        /* \"#utility.yul\":3512:3518   */\n      dup5\n        /* \"#utility.yul\":3468:3539   */\n      tag_206\n      jump\t// in\n    tag_273:\n        /* \"#utility.yul\":3324:3546   */\n      swap3\n      swap2\n      pop\n      pop\n      jump\t// out\n        /* \"#utility.yul\":3552:3642   */\n    tag_207:\n        /* \"#utility.yul\":3586:3593   */\n      0x00\n        /* \"#utility.yul\":3629:3634   */\n      dup2\n        /* \"#utility.yul\":3622:3635   */\n      iszero\n        /* \"#utility.yul\":3615:3636   */\n      iszero\n        /* \"#utility.yul\":3604:3636   */\n      swap1\n      pop\n        /* \"#utility.yul\":3552:3642   */\n      swap2\n      swap1\n      pop\n      jump\t// out\n        /* \"#utility.yul\":3648:3757   */\n    tag_208:\n        /* \"#utility.yul\":3729:3750   */\n      tag_276\n        /* \"#utility.yul\":3744:3749   */\n      dup2\n        /* \"#utility.yul\":3729:3750   */\n      tag_207\n      jump\t// in\n    tag_276:\n        /* \"#utility.yul\":3724:3727   */\n      dup3\n        /* \"#utility.yul\":3717:3751   */\n      mstore\n        /* \"#utility.yul\":3648:3757   */\n      pop\n      pop\n      jump\t// out\n        /* \"#utility.yul\":3763:3973   */\n    tag_36:\n        /* \"#utility.yul\":3850:3854   */\n      0x00\n        /* \"#utility.yul\":3888:3890   */\n      0x20\n        /* \"#utility.yul\":3877:3886   */\n      dup3\n        /* \"#utility.yul\":3873:3891   */\n      add\n        /* \"#utility.yul\":3865:3891   */\n      swap1\n      pop\n        /* \"#utility.yul\":3901:3966   */\n      tag_278\n        /* \"#utility.yul\":3963:3964   */\n      0x00\n        /* \"#utility.yul\":3952:3961   */\n      dup4\n        /* \"#utility.yul\":3948:3965   */\n      add\n        /* \"#utility.yul\":3939:3945   */\n      dup5\n        /* \"#utility.yul\":3901:3966   */\n      tag_208\n      jump\t// in\n    tag_278:\n        /* \"#utility.yul\":3763:3973   */\n      swap3\n      swap2\n      pop\n      pop\n      jump\t// out\n        /* \"#utility.yul\":3979:4097   */\n    tag_209:\n        /* \"#utility.yul\":4066:4090   */\n      tag_280\n        /* \"#utility.yul\":4084:4089   */\n      dup2\n        /* \"#utility.yul\":4066:4090   */\n      tag_203\n      jump\t// in\n    tag_280:\n        /* \"#utility.yul\":4061:4064   */\n      dup3\n        /* \"#utility.yul\":4054:4091   */\n      mstore\n        /* \"#utility.yul\":3979:4097   */\n      pop\n      pop\n      jump\t// out\n        /* \"#utility.yul\":4103:4325   */\n    tag_48:\n        /* \"#utility.yul\":4196:4200   */\n      0x00\n        /* \"#utility.yul\":4234:4236   */\n      0x20\n        /* \"#utility.yul\":4223:4232   */\n      dup3\n        /* \"#utility.yul\":4219:4237   */\n      add\n        /* \"#utility.yul\":4211:4237   */\n      swap1\n      pop\n        /* \"#utility.yul\":4247:4318   */\n      tag_282\n        /* \"#utility.yul\":4315:4316   */\n      0x00\n        /* \"#utility.yul\":4304:4313   */\n      dup4\n        /* \"#utility.yul\":4300:4317   */\n      add\n        /* \"#utility.yul\":4291:4297   */\n      dup5\n        /* \"#utility.yul\":4247:4318   */\n      tag_209\n      jump\t// in\n    tag_282:\n        /* \"#utility.yul\":4103:4325   */\n      swap3\n      swap2\n      pop\n      pop\n      jump\t// out\n        /* \"#utility.yul\":4331:4500   */\n    tag_210:\n        /* \"#utility.yul\":4415:4426   */\n      0x00\n        /* \"#utility.yul\":4449:4455   */\n      dup3\n        /* \"#utility.yul\":4444:4447   */\n      dup3\n        /* \"#utility.yul\":4437:4456   */\n      mstore\n        /* \"#utility.yul\":4489:4493   */\n      0x20\n        /* \"#utility.yul\":4484:4487   */\n      dup3\n        /* \"#utility.yul\":4480:4494   */\n      add\n        /* \"#utility.yul\":4465:4494   */\n      swap1\n      pop\n        /* \"#utility.yul\":4331:4500   */\n      swap3\n      swap2\n      pop\n      pop\n      jump\t// out\n        /* \"#utility.yul\":4506:4685   */\n    tag_211:\n        /* \"#utility.yul\":4646:4677   */\n      0x43616e206f6e6c79206772616e7420746f206e6f6e20686f6c64657273000000\n        /* \"#utility.yul\":4642:4643   */\n      0x00\n        /* \"#utility.yul\":4634:4640   */\n      dup3\n        /* \"#utility.yul\":4630:4644   */\n      add\n        /* \"#utility.yul\":4623:4678   */\n      mstore\n        /* \"#utility.yul\":4506:4685   */\n      pop\n      jump\t// out\n        /* \"#utility.yul\":4691:5057   */\n    tag_212:\n        /* \"#utility.yul\":4833:4836   */\n      0x00\n        /* \"#utility.yul\":4854:4921   */\n      tag_286\n        /* \"#utility.yul\":4918:4920   */\n      0x1d\n        /* \"#utility.yul\":4913:4916   */\n      dup4\n        /* \"#utility.yul\":4854:4921   */\n      tag_210\n      jump\t// in\n    tag_286:\n        /* \"#utility.yul\":4847:4921   */\n      swap2\n      pop\n        /* \"#utility.yul\":4930:5023   */\n      tag_287\n        /* \"#utility.yul\":5019:5022   */\n      dup3\n        /* \"#utility.yul\":4930:5023   */\n      tag_211\n      jump\t// in\n    tag_287:\n        /* \"#utility.yul\":5048:5050   */\n      0x20\n        /* \"#utility.yul\":5043:5046   */\n      dup3\n        /* \"#utility.yul\":5039:5051   */\n      add\n        /* \"#utility.yul\":5032:5051   */\n      swap1\n      pop\n        /* \"#utility.yul\":4691:5057   */\n      swap2\n      swap1\n      pop\n      jump\t// out\n        /* \"#utility.yul\":5063:5482   */\n    tag_64:\n        /* \"#utility.yul\":5229:5233   */\n      0x00\n        /* \"#utility.yul\":5267:5269   */\n      0x20\n        /* \"#utility.yul\":5256:5265   */\n      dup3\n        /* \"#utility.yul\":5252:5270   */\n      add\n        /* \"#utility.yul\":5244:5270   */\n      swap1\n      pop\n        /* \"#utility.yul\":5316:5325   */\n      dup2\n        /* \"#utility.yul\":5310:5314   */\n      dup2\n        /* \"#utility.yul\":5306:5326   */\n      sub\n        /* \"#utility.yul\":5302:5303   */\n      0x00\n        /* \"#utility.yul\":5291:5300   */\n      dup4\n        /* \"#utility.yul\":5287:5304   */\n      add\n        /* \"#utility.yul\":5280:5327   */\n      mstore\n        /* \"#utility.yul\":5344:5475   */\n      tag_289\n        /* \"#utility.yul\":5470:5474   */\n      dup2\n        /* \"#utility.yul\":5344:5475   */\n      tag_212\n      jump\t// in\n    tag_289:\n        /* \"#utility.yul\":5336:5475   */\n      swap1\n      pop\n        /* \"#utility.yul\":5063:5482   */\n      swap2\n      swap1\n      pop\n      jump\t// out\n        /* \"#utility.yul\":5488:5664   */\n    tag_213:\n        /* \"#utility.yul\":5628:5656   */\n      0x43616e206f6e6c792072656e6f756e636520666f722073656c66000000000000\n        /* \"#utility.yul\":5624:5625   */\n      0x00\n        /* \"#utility.yul\":5616:5622   */\n      dup3\n        /* \"#utility.yul\":5612:5626   */\n      add\n        /* \"#utility.yul\":5605:5657   */\n      mstore\n        /* \"#utility.yul\":5488:5664   */\n      pop\n      jump\t// out\n        /* \"#utility.yul\":5670:6036   */\n    tag_214:\n        /* \"#utility.yul\":5812:5815   */\n      0x00\n        /* \"#utility.yul\":5833:5900   */\n      tag_292\n        /* \"#utility.yul\":5897:5899   */\n      0x1a\n        /* \"#utility.yul\":5892:5895   */\n      dup4\n        /* \"#utility.yul\":5833:5900   */\n      tag_210\n      jump\t// in\n    tag_292:\n        /* \"#utility.yul\":5826:5900   */\n      swap2\n      pop\n        /* \"#utility.yul\":5909:6002   */\n      tag_293\n        /* \"#utility.yul\":5998:6001   */\n      dup3\n        /* \"#utility.yul\":5909:6002   */\n      tag_213\n      jump\t// in\n    tag_293:\n        /* \"#utility.yul\":6027:6029   */\n      0x20\n        /* \"#utility.yul\":6022:6025   */\n      dup3\n        /* \"#utility.yul\":6018:6030   */\n      add\n        /* \"#utility.yul\":6011:6030   */\n      swap1\n      pop\n        /* \"#utility.yul\":5670:6036   */\n      swap2\n      swap1\n      pop\n      jump\t// out\n        /* \"#utility.yul\":6042:6461   */\n    tag_71:\n        /* \"#utility.yul\":6208:6212   */\n      0x00\n        /* \"#utility.yul\":6246:6248   */\n      0x20\n        /* \"#utility.yul\":6235:6244   */\n      dup3\n        /* \"#utility.yul\":6231:6249   */\n      add\n        /* \"#utility.yul\":6223:6249   */\n      swap1\n      pop\n        /* \"#utility.yul\":6295:6304   */\n      dup2\n        /* \"#utility.yul\":6289:6293   */\n      dup2\n        /* \"#utility.yul\":6285:6305   */\n      sub\n        /* \"#utility.yul\":6281:6282   */\n      0x00\n        /* \"#utility.yul\":6270:6279   */\n      dup4\n        /* \"#utility.yul\":6266:6283   */\n      add\n        /* \"#utility.yul\":6259:6306   */\n      mstore\n        /* \"#utility.yul\":6323:6454   */\n      tag_295\n        /* \"#utility.yul\":6449:6453   */\n      dup2\n        /* \"#utility.yul\":6323:6454   */\n      tag_214\n      jump\t// in\n    tag_295:\n        /* \"#utility.yul\":6315:6454   */\n      swap1\n      pop\n        /* \"#utility.yul\":6042:6461   */\n      swap2\n      swap1\n      pop\n      jump\t// out\n        /* \"#utility.yul\":6467:6647   */\n    tag_215:\n        /* \"#utility.yul\":6515:6592   */\n      0x4e487b7100000000000000000000000000000000000000000000000000000000\n        /* \"#utility.yul\":6512:6513   */\n      0x00\n        /* \"#utility.yul\":6505:6593   */\n      mstore\n        /* \"#utility.yul\":6612:6616   */\n      0x11\n        /* \"#utility.yul\":6609:6610   */\n      0x04\n        /* \"#utility.yul\":6602:6617   */\n      mstore\n        /* \"#utility.yul\":6636:6640   */\n      0x24\n        /* \"#utility.yul\":6633:6634   */\n      0x00\n        /* \"#utility.yul\":6626:6641   */\n      revert\n        /* \"#utility.yul\":6653:6844   */\n    tag_85:\n        /* \"#utility.yul\":6693:6696   */\n      0x00\n        /* \"#utility.yul\":6712:6732   */\n      tag_298\n        /* \"#utility.yul\":6730:6731   */\n      dup3\n        /* \"#utility.yul\":6712:6732   */\n      tag_203\n      jump\t// in\n    tag_298:\n        /* \"#utility.yul\":6707:6732   */\n      swap2\n      pop\n        /* \"#utility.yul\":6746:6766   */\n      tag_299\n        /* \"#utility.yul\":6764:6765   */\n      dup4\n        /* \"#utility.yul\":6746:6766   */\n      tag_203\n      jump\t// in\n    tag_299:\n        /* \"#utility.yul\":6741:6766   */\n      swap3\n      pop\n        /* \"#utility.yul\":6789:6790   */\n      dup3\n        /* \"#utility.yul\":6786:6787   */\n      dup3\n        /* \"#utility.yul\":6782:6791   */\n      add\n        /* \"#utility.yul\":6775:6791   */\n      swap1\n      pop\n        /* \"#utility.yul\":6810:6813   */\n      dup1\n        /* \"#utility.yul\":6807:6808   */\n      dup3\n        /* \"#utility.yul\":6804:6814   */\n      gt\n        /* \"#utility.yul\":6801:6837   */\n      iszero\n      tag_300\n      jumpi\n        /* \"#utility.yul\":6817:6835   */\n      tag_301\n      tag_215\n      jump\t// in\n    tag_301:\n        /* \"#utility.yul\":6801:6837   */\n    tag_300:\n        /* \"#utility.yul\":6653:6844   */\n      swap3\n      swap2\n      pop\n      pop\n      jump\t// out\n        /* \"#utility.yul\":6850:6998   */\n    tag_216:\n        /* \"#utility.yul\":6952:6963   */\n      0x00\n        /* \"#utility.yul\":6989:6992   */\n      dup2\n        /* \"#utility.yul\":6974:6992   */\n      swap1\n      pop\n        /* \"#utility.yul\":6850:6998   */\n      swap3\n      swap2\n      pop\n      pop\n      jump\t// out\n        /* \"#utility.yul\":7004:7175   */\n    tag_217:\n        /* \"#utility.yul\":7144:7167   */\n      0x5065726d697373696f6e733a206163636f756e74200000000000000000000000\n        /* \"#utility.yul\":7140:7141   */\n      0x00\n        /* \"#utility.yul\":7132:7138   */\n      dup3\n        /* \"#utility.yul\":7128:7142   */\n      add\n        /* \"#utility.yul\":7121:7168   */\n      mstore\n        /* \"#utility.yul\":7004:7175   */\n      pop\n      jump\t// out\n        /* \"#utility.yul\":7181:7583   */\n    tag_218:\n        /* \"#utility.yul\":7341:7344   */\n      0x00\n        /* \"#utility.yul\":7362:7447   */\n      tag_305\n        /* \"#utility.yul\":7444:7446   */\n      0x15\n        /* \"#utility.yul\":7439:7442   */\n      dup4\n        /* \"#utility.yul\":7362:7447   */\n      tag_216\n      jump\t// in\n    tag_305:\n        /* \"#utility.yul\":7355:7447   */\n      swap2\n      pop\n        /* \"#utility.yul\":7456:7549   */\n      tag_306\n        /* \"#utility.yul\":7545:7548   */\n      dup3\n        /* \"#utility.yul\":7456:7549   */\n      tag_217\n      jump\t// in\n    tag_306:\n        /* \"#utility.yul\":7574:7576   */\n      0x15\n        /* \"#utility.yul\":7569:7572   */\n      dup3\n        /* \"#utility.yul\":7565:7577   */\n      add\n        /* \"#utility.yul\":7558:7577   */\n      swap1\n      pop\n        /* \"#utility.yul\":7181:7583   */\n      swap2\n      swap1\n      pop\n      jump\t// out\n        /* \"#utility.yul\":7589:7688   */\n    tag_219:\n        /* \"#utility.yul\":7641:7647   */\n      0x00\n        /* \"#utility.yul\":7675:7680   */\n      dup2\n        /* \"#utility.yul\":7669:7681   */\n      mload\n        /* \"#utility.yul\":7659:7681   */\n      swap1\n      pop\n        /* \"#utility.yul\":7589:7688   */\n      swap2\n      swap1\n      pop\n      jump\t// out\n        /* \"#utility.yul\":7694:7940   */\n    tag_220:\n        /* \"#utility.yul\":7775:7776   */\n      0x00\n        /* \"#utility.yul\":7785:7898   */\n    tag_309:\n        /* \"#utility.yul\":7799:7805   */\n      dup4\n        /* \"#utility.yul\":7796:7797   */\n      dup2\n        /* \"#utility.yul\":7793:7806   */\n      lt\n        /* \"#utility.yul\":7785:7898   */\n      iszero\n      tag_311\n      jumpi\n        /* \"#utility.yul\":7884:7885   */\n      dup1\n        /* \"#utility.yul\":7879:7882   */\n      dup3\n        /* \"#utility.yul\":7875:7886   */\n      add\n        /* \"#utility.yul\":7869:7887   */\n      mload\n        /* \"#utility.yul\":7865:7866   */\n      dup2\n        /* \"#utility.yul\":7860:7863   */\n      dup5\n        /* \"#utility.yul\":7856:7867   */\n      add\n        /* \"#utility.yul\":7849:7888   */\n      mstore\n        /* \"#utility.yul\":7821:7823   */\n      0x20\n        /* \"#utility.yul\":7818:7819   */\n      dup2\n        /* \"#utility.yul\":7814:7824   */\n      add\n        /* \"#utility.yul\":7809:7824   */\n      swap1\n      pop\n        /* \"#utility.yul\":7785:7898   */\n      jump(tag_309)\n    tag_311:\n        /* \"#utility.yul\":7932:7933   */\n      0x00\n        /* \"#utility.yul\":7923:7929   */\n      dup5\n        /* \"#utility.yul\":7918:7921   */\n      dup5\n        /* \"#utility.yul\":7914:7930   */\n      add\n        /* \"#utility.yul\":7907:7934   */\n      mstore\n        /* \"#utility.yul\":7756:7940   */\n      pop\n        /* \"#utility.yul\":7694:7940   */\n      pop\n      pop\n      pop\n      jump\t// out\n        /* \"#utility.yul\":7946:8336   */\n    tag_221:\n        /* \"#utility.yul\":8052:8055   */\n      0x00\n        /* \"#utility.yul\":8080:8119   */\n      tag_313\n        /* \"#utility.yul\":8113:8118   */\n      dup3\n        /* \"#utility.yul\":8080:8119   */\n      tag_219\n      jump\t// in\n    tag_313:\n        /* \"#utility.yul\":8135:8224   */\n      tag_314\n        /* \"#utility.yul\":8217:8223   */\n      dup2\n        /* \"#utility.yul\":8212:8215   */\n      dup6\n        /* \"#utility.yul\":8135:8224   */\n      tag_216\n      jump\t// in\n    tag_314:\n        /* \"#utility.yul\":8128:8224   */\n      swap4\n      pop\n        /* \"#utility.yul\":8233:8298   */\n      tag_315\n        /* \"#utility.yul\":8291:8297   */\n      dup2\n        /* \"#utility.yul\":8286:8289   */\n      dup6\n        /* \"#utility.yul\":8279:8283   */\n      0x20\n        /* \"#utility.yul\":8272:8277   */\n      dup7\n        /* \"#utility.yul\":8268:8284   */\n      add\n        /* \"#utility.yul\":8233:8298   */\n      tag_220\n      jump\t// in\n    tag_315:\n        /* \"#utility.yul\":8323:8329   */\n      dup1\n        /* \"#utility.yul\":8318:8321   */\n      dup5\n        /* \"#utility.yul\":8314:8330   */\n      add\n        /* \"#utility.yul\":8307:8330   */\n      swap2\n      pop\n        /* \"#utility.yul\":8056:8336   */\n      pop\n        /* \"#utility.yul\":7946:8336   */\n      swap3\n      swap2\n      pop\n      pop\n      jump\t// out\n        /* \"#utility.yul\":8342:8509   */\n    tag_222:\n        /* \"#utility.yul\":8482:8501   */\n      0x206973206d697373696e6720726f6c6520000000000000000000000000000000\n        /* \"#utility.yul\":8478:8479   */\n      0x00\n        /* \"#utility.yul\":8470:8476   */\n      dup3\n        /* \"#utility.yul\":8466:8480   */\n      add\n        /* \"#utility.yul\":8459:8502   */\n      mstore\n        /* \"#utility.yul\":8342:8509   */\n      pop\n      jump\t// out\n        /* \"#utility.yul\":8515:8917   */\n    tag_223:\n        /* \"#utility.yul\":8675:8678   */\n      0x00\n        /* \"#utility.yul\":8696:8781   */\n      tag_318\n        /* \"#utility.yul\":8778:8780   */\n      0x11\n        /* \"#utility.yul\":8773:8776   */\n      dup4\n        /* \"#utility.yul\":8696:8781   */\n      tag_216\n      jump\t// in\n    tag_318:\n        /* \"#utility.yul\":8689:8781   */\n      swap2\n      pop\n        /* \"#utility.yul\":8790:8883   */\n      tag_319\n        /* \"#utility.yul\":8879:8882   */\n      dup3\n        /* \"#utility.yul\":8790:8883   */\n      tag_222\n      jump\t// in\n    tag_319:\n        /* \"#utility.yul\":8908:8910   */\n      0x11\n        /* \"#utility.yul\":8903:8906   */\n      dup3\n        /* \"#utility.yul\":8899:8911   */\n      add\n        /* \"#utility.yul\":8892:8911   */\n      swap1\n      pop\n        /* \"#utility.yul\":8515:8917   */\n      swap2\n      swap1\n      pop\n      jump\t// out\n        /* \"#utility.yul\":8923:9890   */\n    tag_127:\n        /* \"#utility.yul\":9305:9308   */\n      0x00\n        /* \"#utility.yul\":9327:9475   */\n      tag_321\n        /* \"#utility.yul\":9471:9474   */\n      dup3\n        /* \"#utility.yul\":9327:9475   */\n      tag_218\n      jump\t// in\n    tag_321:\n        /* \"#utility.yul\":9320:9475   */\n      swap2\n      pop\n        /* \"#utility.yul\":9492:9587   */\n      tag_322\n        /* \"#utility.yul\":9583:9586   */\n      dup3\n        /* \"#utility.yul\":9574:9580   */\n      dup6\n        /* \"#utility.yul\":9492:9587   */\n      tag_221\n      jump\t// in\n    tag_322:\n        /* \"#utility.yul\":9485:9587   */\n      swap2\n      pop\n        /* \"#utility.yul\":9604:9752   */\n      tag_323\n        /* \"#utility.yul\":9748:9751   */\n      dup3\n        /* \"#utility.yul\":9604:9752   */\n      tag_223\n      jump\t// in\n    tag_323:\n        /* \"#utility.yul\":9597:9752   */\n      swap2\n      pop\n        /* \"#utility.yul\":9769:9864   */\n      tag_324\n        /* \"#utility.yul\":9860:9863   */\n      dup3\n        /* \"#utility.yul\":9851:9857   */\n      dup5\n        /* \"#utility.yul\":9769:9864   */\n      tag_221\n      jump\t// in\n    tag_324:\n        /* \"#utility.yul\":9762:9864   */\n      swap2\n      pop\n        /* \"#utility.yul\":9881:9884   */\n      dup2\n        /* \"#utility.yul\":9874:9884   */\n      swap1\n      pop\n        /* \"#utility.yul\":8923:9890   */\n      swap4\n      swap3\n      pop\n      pop\n      pop\n      jump\t// out\n        /* \"#utility.yul\":9896:9998   */\n    tag_224:\n        /* \"#utility.yul\":9937:9943   */\n      0x00\n        /* \"#utility.yul\":9988:9990   */\n      0x1f\n        /* \"#utility.yul\":9984:9991   */\n      not\n        /* \"#utility.yul\":9979:9981   */\n      0x1f\n        /* \"#utility.yul\":9972:9977   */\n      dup4\n        /* \"#utility.yul\":9968:9982   */\n      add\n        /* \"#utility.yul\":9964:9992   */\n      and\n        /* \"#utility.yul\":9954:9992   */\n      swap1\n      pop\n        /* \"#utility.yul\":9896:9998   */\n      swap2\n      swap1\n      pop\n      jump\t// out\n        /* \"#utility.yul\":10004:10381   */\n    tag_225:\n        /* \"#utility.yul\":10092:10095   */\n      0x00\n        /* \"#utility.yul\":10120:10159   */\n      tag_327\n        /* \"#utility.yul\":10153:10158   */\n      dup3\n        /* \"#utility.yul\":10120:10159   */\n      tag_219\n      jump\t// in\n    tag_327:\n        /* \"#utility.yul\":10175:10246   */\n      tag_328\n        /* \"#utility.yul\":10239:10245   */\n      dup2\n        /* \"#utility.yul\":10234:10237   */\n      dup6\n        /* \"#utility.yul\":10175:10246   */\n      tag_210\n      jump\t// in\n    tag_328:\n        /* \"#utility.yul\":10168:10246   */\n      swap4\n      pop\n        /* \"#utility.yul\":10255:10320   */\n      tag_329\n        /* \"#utility.yul\":10313:10319   */\n      dup2\n        /* \"#utility.yul\":10308:10311   */\n      dup6\n        /* \"#utility.yul\":10301:10305   */\n      0x20\n        /* \"#utility.yul\":10294:10299   */\n      dup7\n        /* \"#utility.yul\":10290:10306   */\n      add\n        /* \"#utility.yul\":10255:10320   */\n      tag_220\n      jump\t// in\n    tag_329:\n        /* \"#utility.yul\":10345:10374   */\n      tag_330\n        /* \"#utility.yul\":10367:10373   */\n      dup2\n        /* \"#utility.yul\":10345:10374   */\n      tag_224\n      jump\t// in\n    tag_330:\n        /* \"#utility.yul\":10340:10343   */\n      dup5\n        /* \"#utility.yul\":10336:10375   */\n      add\n        /* \"#utility.yul\":10329:10375   */\n      swap2\n      pop\n        /* \"#utility.yul\":10096:10381   */\n      pop\n        /* \"#utility.yul\":10004:10381   */\n      swap3\n      swap2\n      pop\n      pop\n      jump\t// out\n        /* \"#utility.yul\":10387:10700   */\n    tag_129:\n        /* \"#utility.yul\":10500:10504   */\n      0x00\n        /* \"#utility.yul\":10538:10540   */\n      0x20\n        /* \"#utility.yul\":10527:10536   */\n      dup3\n        /* \"#utility.yul\":10523:10541   */\n      add\n        /* \"#utility.yul\":10515:10541   */\n      swap1\n      pop\n        /* \"#utility.yul\":10587:10596   */\n      dup2\n        /* \"#utility.yul\":10581:10585   */\n      dup2\n        /* \"#utility.yul\":10577:10597   */\n      sub\n        /* \"#utility.yul\":10573:10574   */\n      0x00\n        /* \"#utility.yul\":10562:10571   */\n      dup4\n        /* \"#utility.yul\":10558:10575   */\n      add\n        /* \"#utility.yul\":10551:10598   */\n      mstore\n        /* \"#utility.yul\":10615:10693   */\n      tag_332\n        /* \"#utility.yul\":10688:10692   */\n      dup2\n        /* \"#utility.yul\":10679:10685   */\n      dup5\n        /* \"#utility.yul\":10615:10693   */\n      tag_225\n      jump\t// in\n    tag_332:\n        /* \"#utility.yul\":10607:10693   */\n      swap1\n      pop\n        /* \"#utility.yul\":10387:10700   */\n      swap3\n      swap2\n      pop\n      pop\n      jump\t// out\n        /* \"#utility.yul\":10706:11116   */\n    tag_146:\n        /* \"#utility.yul\":10746:10753   */\n      0x00\n        /* \"#utility.yul\":10769:10789   */\n      tag_334\n        /* \"#utility.yul\":10787:10788   */\n      dup3\n        /* \"#utility.yul\":10769:10789   */\n      tag_203\n      jump\t// in\n    tag_334:\n        /* \"#utility.yul\":10764:10789   */\n      swap2\n      pop\n        /* \"#utility.yul\":10803:10823   */\n      tag_335\n        /* \"#utility.yul\":10821:10822   */\n      dup4\n        /* \"#utility.yul\":10803:10823   */\n      tag_203\n      jump\t// in\n    tag_335:\n        /* \"#utility.yul\":10798:10823   */\n      swap3\n      pop\n        /* \"#utility.yul\":10858:10859   */\n      dup3\n        /* \"#utility.yul\":10855:10856   */\n      dup3\n        /* \"#utility.yul\":10851:10860   */\n      mul\n        /* \"#utility.yul\":10880:10910   */\n      tag_336\n        /* \"#utility.yul\":10898:10909   */\n      dup2\n        /* \"#utility.yul\":10880:10910   */\n      tag_203\n      jump\t// in\n    tag_336:\n        /* \"#utility.yul\":10869:10910   */\n      swap2\n      pop\n        /* \"#utility.yul\":11059:11060   */\n      dup3\n        /* \"#utility.yul\":11050:11057   */\n      dup3\n        /* \"#utility.yul\":11046:11061   */\n      div\n        /* \"#utility.yul\":11043:11044   */\n      dup5\n        /* \"#utility.yul\":11040:11062   */\n      eq\n        /* \"#utility.yul\":11020:11021   */\n      dup4\n        /* \"#utility.yul\":11013:11022   */\n      iszero\n        /* \"#utility.yul\":10993:11076   */\n      or\n        /* \"#utility.yul\":10970:11109   */\n      tag_337\n      jumpi\n        /* \"#utility.yul\":11089:11107   */\n      tag_338\n      tag_215\n      jump\t// in\n    tag_338:\n        /* \"#utility.yul\":10970:11109   */\n    tag_337:\n        /* \"#utility.yul\":10754:11116   */\n      pop\n        /* \"#utility.yul\":10706:11116   */\n      swap3\n      swap2\n      pop\n      pop\n      jump\t// out\n        /* \"#utility.yul\":11122:11302   */\n    tag_150:\n        /* \"#utility.yul\":11170:11247   */\n      0x4e487b7100000000000000000000000000000000000000000000000000000000\n        /* \"#utility.yul\":11167:11168   */\n      0x00\n        /* \"#utility.yul\":11160:11248   */\n      mstore\n        /* \"#utility.yul\":11267:11271   */\n      0x41\n        /* \"#utility.yul\":11264:11265   */\n      0x04\n        /* \"#utility.yul\":11257:11272   */\n      mstore\n        /* \"#utility.yul\":11291:11295   */\n      0x24\n        /* \"#utility.yul\":11288:11289   */\n      0x00\n        /* \"#utility.yul\":11281:11296   */\n      revert\n        /* \"#utility.yul\":11308:11488   */\n    tag_154:\n        /* \"#utility.yul\":11356:11433   */\n      0x4e487b7100000000000000000000000000000000000000000000000000000000\n        /* \"#utility.yul\":11353:11354   */\n      0x00\n        /* \"#utility.yul\":11346:11434   */\n      mstore\n        /* \"#utility.yul\":11453:11457   */\n      0x32\n        /* \"#utility.yul\":11450:11451   */\n      0x04\n        /* \"#utility.yul\":11443:11458   */\n      mstore\n        /* \"#utility.yul\":11477:11481   */\n      0x24\n        /* \"#utility.yul\":11474:11475   */\n      0x00\n        /* \"#utility.yul\":11467:11482   */\n      revert\n        /* \"#utility.yul\":11494:11665   */\n    tag_167:\n        /* \"#utility.yul\":11533:11536   */\n      0x00\n        /* \"#utility.yul\":11556:11580   */\n      tag_342\n        /* \"#utility.yul\":11574:11579   */\n      dup3\n        /* \"#utility.yul\":11556:11580   */\n      tag_203\n      jump\t// in\n    tag_342:\n        /* \"#utility.yul\":11547:11580   */\n      swap2\n      pop\n        /* \"#utility.yul\":11602:11606   */\n      0x00\n        /* \"#utility.yul\":11595:11600   */\n      dup3\n        /* \"#utility.yul\":11592:11607   */\n      sub\n        /* \"#utility.yul\":11589:11630   */\n      tag_343\n      jumpi\n        /* \"#utility.yul\":11610:11628   */\n      tag_344\n      tag_215\n      jump\t// in\n    tag_344:\n        /* \"#utility.yul\":11589:11630   */\n    tag_343:\n        /* \"#utility.yul\":11657:11658   */\n      0x01\n        /* \"#utility.yul\":11650:11655   */\n      dup3\n        /* \"#utility.yul\":11646:11659   */\n      sub\n        /* \"#utility.yul\":11639:11659   */\n      swap1\n      pop\n        /* \"#utility.yul\":11494:11665   */\n      swap2\n      swap1\n      pop\n      jump\t// out\n        /* \"#utility.yul\":11671:11853   */\n    tag_226:\n        /* \"#utility.yul\":11811:11845   */\n      0x537472696e67733a20686578206c656e67746820696e73756666696369656e74\n        /* \"#utility.yul\":11807:11808   */\n      0x00\n        /* \"#utility.yul\":11799:11805   */\n      dup3\n        /* \"#utility.yul\":11795:11809   */\n      add\n        /* \"#utility.yul\":11788:11846   */\n      mstore\n        /* \"#utility.yul\":11671:11853   */\n      pop\n      jump\t// out\n        /* \"#utility.yul\":11859:12225   */\n    tag_227:\n        /* \"#utility.yul\":12001:12004   */\n      0x00\n        /* \"#utility.yul\":12022:12089   */\n      tag_347\n        /* \"#utility.yul\":12086:12088   */\n      0x20\n        /* \"#utility.yul\":12081:12084   */\n      dup4\n        /* \"#utility.yul\":12022:12089   */\n      tag_210\n      jump\t// in\n    tag_347:\n        /* \"#utility.yul\":12015:12089   */\n      swap2\n      pop\n        /* \"#utility.yul\":12098:12191   */\n      tag_348\n        /* \"#utility.yul\":12187:12190   */\n      dup3\n        /* \"#utility.yul\":12098:12191   */\n      tag_226\n      jump\t// in\n    tag_348:\n        /* \"#utility.yul\":12216:12218   */\n      0x20\n        /* \"#utility.yul\":12211:12214   */\n      dup3\n        /* \"#utility.yul\":12207:12219   */\n      add\n        /* \"#utility.yul\":12200:12219   */\n      swap1\n      pop\n        /* \"#utility.yul\":11859:12225   */\n      swap2\n      swap1\n      pop\n      jump\t// out\n        /* \"#utility.yul\":12231:12650   */\n    tag_170:\n        /* \"#utility.yul\":12397:12401   */\n      0x00\n        /* \"#utility.yul\":12435:12437   */\n      0x20\n        /* \"#utility.yul\":12424:12433   */\n      dup3\n        /* \"#utility.yul\":12420:12438   */\n      add\n        /* \"#utility.yul\":12412:12438   */\n      swap1\n      pop\n        /* \"#utility.yul\":12484:12493   */\n      dup2\n        /* \"#utility.yul\":12478:12482   */\n      dup2\n        /* \"#utility.yul\":12474:12494   */\n      sub\n        /* \"#utility.yul\":12470:12471   */\n      0x00\n        /* \"#utility.yul\":12459:12468   */\n      dup4\n        /* \"#utility.yul\":12455:12472   */\n      add\n        /* \"#utility.yul\":12448:12495   */\n      mstore\n        /* \"#utility.yul\":12512:12643   */\n      tag_350\n        /* \"#utility.yul\":12638:12642   */\n      dup2\n        /* \"#utility.yul\":12512:12643   */\n      tag_227\n      jump\t// in\n    tag_350:\n        /* \"#utility.yul\":12504:12643   */\n      swap1\n      pop\n        /* \"#utility.yul\":12231:12650   */\n      swap2\n      swap1\n      pop\n      jump\t// out\n        /* \"#utility.yul\":12656:12850   */\n    tag_190:\n        /* \"#utility.yul\":12696:12700   */\n      0x00\n        /* \"#utility.yul\":12716:12736   */\n      tag_352\n        /* \"#utility.yul\":12734:12735   */\n      dup3\n        /* \"#utility.yul\":12716:12736   */\n      tag_203\n      jump\t// in\n    tag_352:\n        /* \"#utility.yul\":12711:12736   */\n      swap2\n      pop\n        /* \"#utility.yul\":12750:12770   */\n      tag_353\n        /* \"#utility.yul\":12768:12769   */\n      dup4\n        /* \"#utility.yul\":12750:12770   */\n      tag_203\n      jump\t// in\n    tag_353:\n        /* \"#utility.yul\":12745:12770   */\n      swap3\n      pop\n        /* \"#utility.yul\":12794:12795   */\n      dup3\n        /* \"#utility.yul\":12791:12792   */\n      dup3\n        /* \"#utility.yul\":12787:12796   */\n      sub\n        /* \"#utility.yul\":12779:12796   */\n      swap1\n      pop\n        /* \"#utility.yul\":12818:12819   */\n      dup2\n        /* \"#utility.yul\":12812:12816   */\n      dup2\n        /* \"#utility.yul\":12809:12820   */\n      gt\n        /* \"#utility.yul\":12806:12843   */\n      iszero\n      tag_354\n      jumpi\n        /* \"#utility.yul\":12823:12841   */\n      tag_355\n      tag_215\n      jump\t// in\n    tag_355:\n        /* \"#utility.yul\":12806:12843   */\n    tag_354:\n        /* \"#utility.yul\":12656:12850   */\n      swap3\n      swap2\n      pop\n      pop\n      jump\t// out\n\n    auxdata: 0xa2646970667358221220f7ee9261594fad56c3321937d2589f8d7141ae1002436c81de05b55079aa630764736f6c63430008180033\n}\n",
				"bytecode": {
					"linkReferences": {},
					"object": "608060405234801561000f575f80fd5b506116058061001d5f395ff3fe608060405234801561000f575f80fd5b5060043610610091575f3560e01c806391d148541161006457806391d148541461012d578063a217fddf1461015d578063a32fa5b31461017b578063ca15c873146101ab578063d547741f146101db57610091565b8063248a9ca3146100955780632f2ff15d146100c557806336568abe146100e15780639010d07c146100fd575b5f80fd5b6100af60048036038101906100aa9190610fb2565b6101f7565b6040516100bc9190610fec565b60405180910390f35b6100df60048036038101906100da919061105f565b61021a565b005b6100fb60048036038101906100f6919061105f565b6102f4565b005b610117600480360381019061011291906110d0565b610377565b604051610124919061111d565b60405180910390f35b6101476004803603810190610142919061105f565b610532565b6040516101549190611150565b60405180910390f35b61016561059c565b6040516101729190610fec565b60405180910390f35b6101956004803603810190610190919061105f565b6105a2565b6040516101a29190611150565b60405180910390f35b6101c560048036038101906101c09190610fb2565b61067b565b6040516101d29190611178565b60405180910390f35b6101f560048036038101906101f0919061105f565b61076c565b005b5f6102006107a5565b6001015f8381526020019081526020015f20549050919050565b6102456102256107a5565b6001015f8481526020019081526020015f20546102406107b3565b6107ba565b61024d6107a5565b5f015f8381526020019081526020015f205f8273ffffffffffffffffffffffffffffffffffffffff1673ffffffffffffffffffffffffffffffffffffffff1681526020019081526020015f205f9054906101000a900460ff16156102e6576040517f08c379a00000000000000000000000000000000000000000000000000000000081526004016102dd906111eb565b60405180910390fd5b6102f082826108ad565b5050565b8073ffffffffffffffffffffffffffffffffffffffff166103136107b3565b73ffffffffffffffffffffffffffffffffffffffff1614610369576040517f08c379a000000000000000000000000000000000000000000000000000000000815260040161036090611253565b60405180910390fd5b61037382826108c5565b5050565b5f806103816108dd565b5f015f8581526020019081526020015f205f015490505f805f90505b82811015610528575f73ffffffffffffffffffffffffffffffffffffffff166103c46108dd565b5f015f8881526020019081526020015f206001015f8381526020019081526020015f205f9054906101000a900473ffffffffffffffffffffffffffffffffffffffff1673ffffffffffffffffffffffffffffffffffffffff16146104925784820361047e576104316108dd565b5f015f8781526020019081526020015f206001015f8281526020019081526020015f205f9054906101000a900473ffffffffffffffffffffffffffffffffffffffff16935050505061052c565b60018261048b919061129e565b9150610514565b61049c865f610532565b80156104fe57506104ab6108dd565b5f015f8781526020019081526020015f206002015f8073ffffffffffffffffffffffffffffffffffffffff1673ffffffffffffffffffffffffffffffffffffffff1681526020019081526020015f205481145b1561051357600182610510919061129e565b91505b5b600181610521919061129e565b905061039d565b5050505b92915050565b5f61053b6107a5565b5f015f8481526020019081526020015f205f8373ffffffffffffffffffffffffffffffffffffffff1673ffffffffffffffffffffffffffffffffffffffff1681526020019081526020015f205f9054906101000a900460ff16905092915050565b5f801b81565b5f6105ab6107a5565b5f015f8481526020019081526020015f205f8073ffffffffffffffffffffffffffffffffffffffff1673ffffffffffffffffffffffffffffffffffffffff1681526020019081526020015f205f9054906101000a900460ff16610670576106106107a5565b5f015f8481526020019081526020015f205f8373ffffffffffffffffffffffffffffffffffffffff1673ffffffffffffffffffffffffffffffffffffffff1681526020019081526020015f205f9054906101000a900460ff169050610675565b600190505b92915050565b5f806106856108dd565b5f015f8481526020019081526020015f205f015490505f5b81811015610746575f73ffffffffffffffffffffffffffffffffffffffff166106c46108dd565b5f015f8681526020019081526020015f206001015f8381526020019081526020015f205f9054906101000a900473ffffffffffffffffffffffffffffffffffffffff1673ffffffffffffffffffffffffffffffffffffffff16146107325760018361072f919061129e565b92505b60018161073f919061129e565b905061069d565b50610751835f610532565b1561076657600182610763919061129e565b91505b50919050565b6107976107776107a5565b6001015f8481526020019081526020015f20546107926107b3565b6107ba565b6107a182826108c5565b5050565b5f6107ae6108eb565b905090565b5f33905090565b6107c26107a5565b5f015f8381526020019081526020015f205f8273ffffffffffffffffffffffffffffffffffffffff1673ffffffffffffffffffffffffffffffffffffffff1681526020019081526020015f205f9054906101000a900460ff166108a9576108408173ffffffffffffffffffffffffffffffffffffffff166014610919565b61084d835f1c6020610919565b60405160200161085e9291906113d1565b6040516020818303038152906040526040517f08c379a00000000000000000000000000000000000000000000000000000000081526004016108a09190611452565b60405180910390fd5b5050565b6108b78282610b4e565b6108c18282610c20565b5050565b6108cf8282610d3b565b6108d98282610e0e565b5050565b5f6108e6610f15565b905090565b5f807f0a7b0f5c59907924802379ebe98cdc23e2ee7820f63d30126e10b3752010e5005f1b90508091505090565b60605f600283600261092b9190611472565b610935919061129e565b67ffffffffffffffff81111561094e5761094d6114b3565b5b6040519080825280601f01601f1916602001820160405280156109805781602001600182028036833780820191505090505b5090507f3000000000000000000000000000000000000000000000000000000000000000815f815181106109b7576109b66114e0565b5b60200101907effffffffffffffffffffffffffffffffffffffffffffffffffffffffffffff191690815f1a9053507f780000000000000000000000000000000000000000000000000000000000000081600181518110610a1a57610a196114e0565b5b60200101907effffffffffffffffffffffffffffffffffffffffffffffffffffffffffffff191690815f1a9053505f6001846002610a589190611472565b610a62919061129e565b90505b6001811115610b01577f3031323334353637383961626364656600000000000000000000000000000000600f861660108110610aa457610aa36114e0565b5b1a60f81b828281518110610abb57610aba6114e0565b5b60200101907effffffffffffffffffffffffffffffffffffffffffffffffffffffffffffff191690815f1a905350600485901c945080610afa9061150d565b9050610a65565b505f8414610b44576040517f08c379a0000000000000000000000000000000000000000000000000000000008152600401610b3b9061157e565b60405180910390fd5b8091505092915050565b6001610b586107a5565b5f015f8481526020019081526020015f205f8373ffffffffffffffffffffffffffffffffffffffff1673ffffffffffffffffffffffffffffffffffffffff1681526020019081526020015f205f6101000a81548160ff021916908315150217905550610bc26107b3565b73ffffffffffffffffffffffffffffffffffffffff168173ffffffffffffffffffffffffffffffffffffffff16837f2f8788117e7eff1d82e926ec794901d17c78024a50270940304540a733656f0d60405160405180910390a45050565b5f610c296108dd565b5f015f8481526020019081526020015f205f015490506001610c496108dd565b5f015f8581526020019081526020015f205f015f828254610c6a919061129e565b9250508190555081610c7a6108dd565b5f015f8581526020019081526020015f206001015f8381526020019081526020015f205f6101000a81548173ffffffffffffffffffffffffffffffffffffffff021916908373ffffffffffffffffffffffffffffffffffffffff16021790555080610ce36108dd565b5f015f8581526020019081526020015f206002015f8473ffffffffffffffffffffffffffffffffffffffff1673ffffffffffffffffffffffffffffffffffffffff1681526020019081526020015f2081905550505050565b610d4582826107ba565b610d4d6107a5565b5f015f8381526020019081526020015f205f8273ffffffffffffffffffffffffffffffffffffffff1673ffffffffffffffffffffffffffffffffffffffff1681526020019081526020015f205f6101000a81549060ff0219169055610db06107b3565b73ffffffffffffffffffffffffffffffffffffffff168173ffffffffffffffffffffffffffffffffffffffff16837ff6391f5c32d9c69d2a47ea670b442974b53935d1edc7fd64eb21e047a839171b60405160405180910390a45050565b5f610e176108dd565b5f015f8481526020019081526020015f206002015f8373ffffffffffffffffffffffffffffffffffffffff1673ffffffffffffffffffffffffffffffffffffffff1681526020019081526020015f20549050610e716108dd565b5f015f8481526020019081526020015f206001015f8281526020019081526020015f205f6101000a81549073ffffffffffffffffffffffffffffffffffffffff0219169055610ebe6108dd565b5f015f8481526020019081526020015f206002015f8373ffffffffffffffffffffffffffffffffffffffff1673ffffffffffffffffffffffffffffffffffffffff1681526020019081526020015f205f9055505050565b5f8060ff5f1b1960017f0c4ba382c0009cf238e4c1ca1a52f51c61e6248a70bdfb34e5ed49d5578a5c0c5f1c610f4b919061159c565b604051602001610f5b9190611178565b604051602081830303815290604052805190602001201690508091505090565b5f80fd5b5f819050919050565b610f9181610f7f565b8114610f9b575f80fd5b50565b5f81359050610fac81610f88565b92915050565b5f60208284031215610fc757610fc6610f7b565b5b5f610fd484828501610f9e565b91505092915050565b610fe681610f7f565b82525050565b5f602082019050610fff5f830184610fdd565b92915050565b5f73ffffffffffffffffffffffffffffffffffffffff82169050919050565b5f61102e82611005565b9050919050565b61103e81611024565b8114611048575f80fd5b50565b5f8135905061105981611035565b92915050565b5f806040838503121561107557611074610f7b565b5b5f61108285828601610f9e565b92505060206110938582860161104b565b9150509250929050565b5f819050919050565b6110af8161109d565b81146110b9575f80fd5b50565b5f813590506110ca816110a6565b92915050565b5f80604083850312156110e6576110e5610f7b565b5b5f6110f385828601610f9e565b9250506020611104858286016110bc565b9150509250929050565b61111781611024565b82525050565b5f6020820190506111305f83018461110e565b92915050565b5f8115159050919050565b61114a81611136565b82525050565b5f6020820190506111635f830184611141565b92915050565b6111728161109d565b82525050565b5f60208201905061118b5f830184611169565b92915050565b5f82825260208201905092915050565b7f43616e206f6e6c79206772616e7420746f206e6f6e20686f6c646572730000005f82015250565b5f6111d5601d83611191565b91506111e0826111a1565b602082019050919050565b5f6020820190508181035f830152611202816111c9565b9050919050565b7f43616e206f6e6c792072656e6f756e636520666f722073656c660000000000005f82015250565b5f61123d601a83611191565b915061124882611209565b602082019050919050565b5f6020820190508181035f83015261126a81611231565b9050919050565b7f4e487b71000000000000000000000000000000000000000000000000000000005f52601160045260245ffd5b5f6112a88261109d565b91506112b38361109d565b92508282019050808211156112cb576112ca611271565b5b92915050565b5f81905092915050565b7f5065726d697373696f6e733a206163636f756e742000000000000000000000005f82015250565b5f61130f6015836112d1565b915061131a826112db565b601582019050919050565b5f81519050919050565b5f5b8381101561134c578082015181840152602081019050611331565b5f8484015250505050565b5f61136182611325565b61136b81856112d1565b935061137b81856020860161132f565b80840191505092915050565b7f206973206d697373696e6720726f6c65200000000000000000000000000000005f82015250565b5f6113bb6011836112d1565b91506113c682611387565b601182019050919050565b5f6113db82611303565b91506113e78285611357565b91506113f2826113af565b91506113fe8284611357565b91508190509392505050565b5f601f19601f8301169050919050565b5f61142482611325565b61142e8185611191565b935061143e81856020860161132f565b6114478161140a565b840191505092915050565b5f6020820190508181035f83015261146a818461141a565b905092915050565b5f61147c8261109d565b91506114878361109d565b92508282026114958161109d565b915082820484148315176114ac576114ab611271565b5b5092915050565b7f4e487b71000000000000000000000000000000000000000000000000000000005f52604160045260245ffd5b7f4e487b71000000000000000000000000000000000000000000000000000000005f52603260045260245ffd5b5f6115178261109d565b91505f820361152957611528611271565b5b600182039050919050565b7f537472696e67733a20686578206c656e67746820696e73756666696369656e745f82015250565b5f611568602083611191565b915061157382611534565b602082019050919050565b5f6020820190508181035f8301526115958161155c565b9050919050565b5f6115a68261109d565b91506115b18361109d565b92508282039050818111156115c9576115c8611271565b5b9291505056fea2646970667358221220f7ee9261594fad56c3321937d2589f8d7141ae1002436c81de05b55079aa630764736f6c63430008180033",
					"opcodes": "PUSH1 0x80 PUSH1 0x40 MSTORE CALLVALUE DUP1 ISZERO PUSH2 0xF JUMPI PUSH0 DUP1 REVERT JUMPDEST POP PUSH2 0x1605 DUP1 PUSH2 0x1D PUSH0 CODECOPY PUSH0 RETURN INVALID PUSH1 0x80 PUSH1 0x40 MSTORE CALLVALUE DUP1 ISZERO PUSH2 0xF JUMPI PUSH0 DUP1 REVERT JUMPDEST POP PUSH1 0x4 CALLDATASIZE LT PUSH2 0x91 JUMPI PUSH0 CALLDATALOAD PUSH1 0xE0 SHR DUP1 PUSH4 0x91D14854 GT PUSH2 0x64 JUMPI DUP1 PUSH4 0x91D14854 EQ PUSH2 0x12D JUMPI DUP1 PUSH4 0xA217FDDF EQ PUSH2 0x15D JUMPI DUP1 PUSH4 0xA32FA5B3 EQ PUSH2 0x17B JUMPI DUP1 PUSH4 0xCA15C873 EQ PUSH2 0x1AB JUMPI DUP1 PUSH4 0xD547741F EQ PUSH2 0x1DB JUMPI PUSH2 0x91 JUMP JUMPDEST DUP1 PUSH4 0x248A9CA3 EQ PUSH2 0x95 JUMPI DUP1 PUSH4 0x2F2FF15D EQ PUSH2 0xC5 JUMPI DUP1 PUSH4 0x36568ABE EQ PUSH2 0xE1 JUMPI DUP1 PUSH4 0x9010D07C EQ PUSH2 0xFD JUMPI JUMPDEST PUSH0 DUP1 REVERT JUMPDEST PUSH2 0xAF PUSH1 0x4 DUP1 CALLDATASIZE SUB DUP2 ADD SWAP1 PUSH2 0xAA SWAP2 SWAP1 PUSH2 0xFB2 JUMP JUMPDEST PUSH2 0x1F7 JUMP JUMPDEST PUSH1 0x40 MLOAD PUSH2 0xBC SWAP2 SWAP1 PUSH2 0xFEC JUMP JUMPDEST PUSH1 0x40 MLOAD DUP1 SWAP2 SUB SWAP1 RETURN JUMPDEST PUSH2 0xDF PUSH1 0x4 DUP1 CALLDATASIZE SUB DUP2 ADD SWAP1 PUSH2 0xDA SWAP2 SWAP1 PUSH2 0x105F JUMP JUMPDEST PUSH2 0x21A JUMP JUMPDEST STOP JUMPDEST PUSH2 0xFB PUSH1 0x4 DUP1 CALLDATASIZE SUB DUP2 ADD SWAP1 PUSH2 0xF6 SWAP2 SWAP1 PUSH2 0x105F JUMP JUMPDEST PUSH2 0x2F4 JUMP JUMPDEST STOP JUMPDEST PUSH2 0x117 PUSH1 0x4 DUP1 CALLDATASIZE SUB DUP2 ADD SWAP1 PUSH2 0x112 SWAP2 SWAP1 PUSH2 0x10D0 JUMP JUMPDEST PUSH2 0x377 JUMP JUMPDEST PUSH1 0x40 MLOAD PUSH2 0x124 SWAP2 SWAP1 PUSH2 0x111D JUMP JUMPDEST PUSH1 0x40 MLOAD DUP1 SWAP2 SUB SWAP1 RETURN JUMPDEST PUSH2 0x147 PUSH1 0x4 DUP1 CALLDATASIZE SUB DUP2 ADD SWAP1 PUSH2 0x142 SWAP2 SWAP1 PUSH2 0x105F JUMP JUMPDEST PUSH2 0x532 JUMP JUMPDEST PUSH1 0x40 MLOAD PUSH2 0x154 SWAP2 SWAP1 PUSH2 0x1150 JUMP JUMPDEST PUSH1 0x40 MLOAD DUP1 SWAP2 SUB SWAP1 RETURN JUMPDEST PUSH2 0x165 PUSH2 0x59C JUMP JUMPDEST PUSH1 0x40 MLOAD PUSH2 0x172 SWAP2 SWAP1 PUSH2 0xFEC JUMP JUMPDEST PUSH1 0x40 MLOAD DUP1 SWAP2 SUB SWAP1 RETURN JUMPDEST PUSH2 0x195 PUSH1 0x4 DUP1 CALLDATASIZE SUB DUP2 ADD SWAP1 PUSH2 0x190 SWAP2 SWAP1 PUSH2 0x105F JUMP JUMPDEST PUSH2 0x5A2 JUMP JUMPDEST PUSH1 0x40 MLOAD PUSH2 0x1A2 SWAP2 SWAP1 PUSH2 0x1150 JUMP JUMPDEST PUSH1 0x40 MLOAD DUP1 SWAP2 SUB SWAP1 RETURN JUMPDEST PUSH2 0x1C5 PUSH1 0x4 DUP1 CALLDATASIZE SUB DUP2 ADD SWAP1 PUSH2 0x1C0 SWAP2 SWAP1 PUSH2 0xFB2 JUMP JUMPDEST PUSH2 0x67B JUMP JUMPDEST PUSH1 0x40 MLOAD PUSH2 0x1D2 SWAP2 SWAP1 PUSH2 0x1178 JUMP JUMPDEST PUSH1 0x40 MLOAD DUP1 SWAP2 SUB SWAP1 RETURN JUMPDEST PUSH2 0x1F5 PUSH1 0x4 DUP1 CALLDATASIZE SUB DUP2 ADD SWAP1 PUSH2 0x1F0 SWAP2 SWAP1 PUSH2 0x105F JUMP JUMPDEST PUSH2 0x76C JUMP JUMPDEST STOP JUMPDEST PUSH0 PUSH2 0x200 PUSH2 0x7A5 JUMP JUMPDEST PUSH1 0x1 ADD PUSH0 DUP4 DUP2 MSTORE PUSH1 0x20 ADD SWAP1 DUP2 MSTORE PUSH1 0x20 ADD PUSH0 KECCAK256 SLOAD SWAP1 POP SWAP2 SWAP1 POP JUMP JUMPDEST PUSH2 0x245 PUSH2 0x225 PUSH2 0x7A5 JUMP JUMPDEST PUSH1 0x1 ADD PUSH0 DUP5 DUP2 MSTORE PUSH1 0x20 ADD SWAP1 DUP2 MSTORE PUSH1 0x20 ADD PUSH0 KECCAK256 SLOAD PUSH2 0x240 PUSH2 0x7B3 JUMP JUMPDEST PUSH2 0x7BA JUMP JUMPDEST PUSH2 0x24D PUSH2 0x7A5 JUMP JUMPDEST PUSH0 ADD PUSH0 DUP4 DUP2 MSTORE PUSH1 0x20 ADD SWAP1 DUP2 MSTORE PUSH1 0x20 ADD PUSH0 KECCAK256 PUSH0 DUP3 PUSH20 0xFFFFFFFFFFFFFFFFFFFFFFFFFFFFFFFFFFFFFFFF AND PUSH20 0xFFFFFFFFFFFFFFFFFFFFFFFFFFFFFFFFFFFFFFFF AND DUP2 MSTORE PUSH1 0x20 ADD SWAP1 DUP2 MSTORE PUSH1 0x20 ADD PUSH0 KECCAK256 PUSH0 SWAP1 SLOAD SWAP1 PUSH2 0x100 EXP SWAP1 DIV PUSH1 0xFF AND ISZERO PUSH2 0x2E6 JUMPI PUSH1 0x40 MLOAD PUSH32 0x8C379A000000000000000000000000000000000000000000000000000000000 DUP2 MSTORE PUSH1 0x4 ADD PUSH2 0x2DD SWAP1 PUSH2 0x11EB JUMP JUMPDEST PUSH1 0x40 MLOAD DUP1 SWAP2 SUB SWAP1 REVERT JUMPDEST PUSH2 0x2F0 DUP3 DUP3 PUSH2 0x8AD JUMP JUMPDEST POP POP JUMP JUMPDEST DUP1 PUSH20 0xFFFFFFFFFFFFFFFFFFFFFFFFFFFFFFFFFFFFFFFF AND PUSH2 0x313 PUSH2 0x7B3 JUMP JUMPDEST PUSH20 0xFFFFFFFFFFFFFFFFFFFFFFFFFFFFFFFFFFFFFFFF AND EQ PUSH2 0x369 JUMPI PUSH1 0x40 MLOAD PUSH32 0x8C379A000000000000000000000000000000000000000000000000000000000 DUP2 MSTORE PUSH1 0x4 ADD PUSH2 0x360 SWAP1 PUSH2 0x1253 JUMP JUMPDEST PUSH1 0x40 MLOAD DUP1 SWAP2 SUB SWAP1 REVERT JUMPDEST PUSH2 0x373 DUP3 DUP3 PUSH2 0x8C5 JUMP JUMPDEST POP POP JUMP JUMPDEST PUSH0 DUP1 PUSH2 0x381 PUSH2 0x8DD JUMP JUMPDEST PUSH0 ADD PUSH0 DUP6 DUP2 MSTORE PUSH1 0x20 ADD SWAP1 DUP2 MSTORE PUSH1 0x20 ADD PUSH0 KECCAK256 PUSH0 ADD SLOAD SWAP1 POP PUSH0 DUP1 PUSH0 SWAP1 POP JUMPDEST DUP3 DUP2 LT ISZERO PUSH2 0x528 JUMPI PUSH0 PUSH20 0xFFFFFFFFFFFFFFFFFFFFFFFFFFFFFFFFFFFFFFFF AND PUSH2 0x3C4 PUSH2 0x8DD JUMP JUMPDEST PUSH0 ADD PUSH0 DUP9 DUP2 MSTORE PUSH1 0x20 ADD SWAP1 DUP2 MSTORE PUSH1 0x20 ADD PUSH0 KECCAK256 PUSH1 0x1 ADD PUSH0 DUP4 DUP2 MSTORE PUSH1 0x20 ADD SWAP1 DUP2 MSTORE PUSH1 0x20 ADD PUSH0 KECCAK256 PUSH0 SWAP1 SLOAD SWAP1 PUSH2 0x100 EXP SWAP1 DIV PUSH20 0xFFFFFFFFFFFFFFFFFFFFFFFFFFFFFFFFFFFFFFFF AND PUSH20 0xFFFFFFFFFFFFFFFFFFFFFFFFFFFFFFFFFFFFFFFF AND EQ PUSH2 0x492 JUMPI DUP5 DUP3 SUB PUSH2 0x47E JUMPI PUSH2 0x431 PUSH2 0x8DD JUMP JUMPDEST PUSH0 ADD PUSH0 DUP8 DUP2 MSTORE PUSH1 0x20 ADD SWAP1 DUP2 MSTORE PUSH1 0x20 ADD PUSH0 KECCAK256 PUSH1 0x1 ADD PUSH0 DUP3 DUP2 MSTORE PUSH1 0x20 ADD SWAP1 DUP2 MSTORE PUSH1 0x20 ADD PUSH0 KECCAK256 PUSH0 SWAP1 SLOAD SWAP1 PUSH2 0x100 EXP SWAP1 DIV PUSH20 0xFFFFFFFFFFFFFFFFFFFFFFFFFFFFFFFFFFFFFFFF AND SWAP4 POP POP POP POP PUSH2 0x52C JUMP JUMPDEST PUSH1 0x1 DUP3 PUSH2 0x48B SWAP2 SWAP1 PUSH2 0x129E JUMP JUMPDEST SWAP2 POP PUSH2 0x514 JUMP JUMPDEST PUSH2 0x49C DUP7 PUSH0 PUSH2 0x532 JUMP JUMPDEST DUP1 ISZERO PUSH2 0x4FE JUMPI POP PUSH2 0x4AB PUSH2 0x8DD JUMP JUMPDEST PUSH0 ADD PUSH0 DUP8 DUP2 MSTORE PUSH1 0x20 ADD SWAP1 DUP2 MSTORE PUSH1 0x20 ADD PUSH0 KECCAK256 PUSH1 0x2 ADD PUSH0 DUP1 PUSH20 0xFFFFFFFFFFFFFFFFFFFFFFFFFFFFFFFFFFFFFFFF AND PUSH20 0xFFFFFFFFFFFFFFFFFFFFFFFFFFFFFFFFFFFFFFFF AND DUP2 MSTORE PUSH1 0x20 ADD SWAP1 DUP2 MSTORE PUSH1 0x20 ADD PUSH0 KECCAK256 SLOAD DUP2 EQ JUMPDEST ISZERO PUSH2 0x513 JUMPI PUSH1 0x1 DUP3 PUSH2 0x510 SWAP2 SWAP1 PUSH2 0x129E JUMP JUMPDEST SWAP2 POP JUMPDEST JUMPDEST PUSH1 0x1 DUP2 PUSH2 0x521 SWAP2 SWAP1 PUSH2 0x129E JUMP JUMPDEST SWAP1 POP PUSH2 0x39D JUMP JUMPDEST POP POP POP JUMPDEST SWAP3 SWAP2 POP POP JUMP JUMPDEST PUSH0 PUSH2 0x53B PUSH2 0x7A5 JUMP JUMPDEST PUSH0 ADD PUSH0 DUP5 DUP2 MSTORE PUSH1 0x20 ADD SWAP1 DUP2 MSTORE PUSH1 0x20 ADD PUSH0 KECCAK256 PUSH0 DUP4 PUSH20 0xFFFFFFFFFFFFFFFFFFFFFFFFFFFFFFFFFFFFFFFF AND PUSH20 0xFFFFFFFFFFFFFFFFFFFFFFFFFFFFFFFFFFFFFFFF AND DUP2 MSTORE PUSH1 0x20 ADD SWAP1 DUP2 MSTORE PUSH1 0x20 ADD PUSH0 KECCAK256 PUSH0 SWAP1 SLOAD SWAP1 PUSH2 0x100 EXP SWAP1 DIV PUSH1 0xFF AND SWAP1 POP SWAP3 SWAP2 POP POP JUMP JUMPDEST PUSH0 DUP1 SHL DUP2 JUMP JUMPDEST PUSH0 PUSH2 0x5AB PUSH2 0x7A5 JUMP JUMPDEST PUSH0 ADD PUSH0 DUP5 DUP2 MSTORE PUSH1 0x20 ADD SWAP1 DUP2 MSTORE PUSH1 0x20 ADD PUSH0 KECCAK256 PUSH0 DUP1 PUSH20 0xFFFFFFFFFFFFFFFFFFFFFFFFFFFFFFFFFFFFFFFF AND PUSH20 0xFFFFFFFFFFFFFFFFFFFFFFFFFFFFFFFFFFFFFFFF AND DUP2 MSTORE PUSH1 0x20 ADD SWAP1 DUP2 MSTORE PUSH1 0x20 ADD PUSH0 KECCAK256 PUSH0 SWAP1 SLOAD SWAP1 PUSH2 0x100 EXP SWAP1 DIV PUSH1 0xFF AND PUSH2 0x670 JUMPI PUSH2 0x610 PUSH2 0x7A5 JUMP JUMPDEST PUSH0 ADD PUSH0 DUP5 DUP2 MSTORE PUSH1 0x20 ADD SWAP1 DUP2 MSTORE PUSH1 0x20 ADD PUSH0 KECCAK256 PUSH0 DUP4 PUSH20 0xFFFFFFFFFFFFFFFFFFFFFFFFFFFFFFFFFFFFFFFF AND PUSH20 0xFFFFFFFFFFFFFFFFFFFFFFFFFFFFFFFFFFFFFFFF AND DUP2 MSTORE PUSH1 0x20 ADD SWAP1 DUP2 MSTORE PUSH1 0x20 ADD PUSH0 KECCAK256 PUSH0 SWAP1 SLOAD SWAP1 PUSH2 0x100 EXP SWAP1 DIV PUSH1 0xFF AND SWAP1 POP PUSH2 0x675 JUMP JUMPDEST PUSH1 0x1 SWAP1 POP JUMPDEST SWAP3 SWAP2 POP POP JUMP JUMPDEST PUSH0 DUP1 PUSH2 0x685 PUSH2 0x8DD JUMP JUMPDEST PUSH0 ADD PUSH0 DUP5 DUP2 MSTORE PUSH1 0x20 ADD SWAP1 DUP2 MSTORE PUSH1 0x20 ADD PUSH0 KECCAK256 PUSH0 ADD SLOAD SWAP1 POP PUSH0 JUMPDEST DUP2 DUP2 LT ISZERO PUSH2 0x746 JUMPI PUSH0 PUSH20 0xFFFFFFFFFFFFFFFFFFFFFFFFFFFFFFFFFFFFFFFF AND PUSH2 0x6C4 PUSH2 0x8DD JUMP JUMPDEST PUSH0 ADD PUSH0 DUP7 DUP2 MSTORE PUSH1 0x20 ADD SWAP1 DUP2 MSTORE PUSH1 0x20 ADD PUSH0 KECCAK256 PUSH1 0x1 ADD PUSH0 DUP4 DUP2 MSTORE PUSH1 0x20 ADD SWAP1 DUP2 MSTORE PUSH1 0x20 ADD PUSH0 KECCAK256 PUSH0 SWAP1 SLOAD SWAP1 PUSH2 0x100 EXP SWAP1 DIV PUSH20 0xFFFFFFFFFFFFFFFFFFFFFFFFFFFFFFFFFFFFFFFF AND PUSH20 0xFFFFFFFFFFFFFFFFFFFFFFFFFFFFFFFFFFFFFFFF AND EQ PUSH2 0x732 JUMPI PUSH1 0x1 DUP4 PUSH2 0x72F SWAP2 SWAP1 PUSH2 0x129E JUMP JUMPDEST SWAP3 POP JUMPDEST PUSH1 0x1 DUP2 PUSH2 0x73F SWAP2 SWAP1 PUSH2 0x129E JUMP JUMPDEST SWAP1 POP PUSH2 0x69D JUMP JUMPDEST POP PUSH2 0x751 DUP4 PUSH0 PUSH2 0x532 JUMP JUMPDEST ISZERO PUSH2 0x766 JUMPI PUSH1 0x1 DUP3 PUSH2 0x763 SWAP2 SWAP1 PUSH2 0x129E JUMP JUMPDEST SWAP2 POP JUMPDEST POP SWAP2 SWAP1 POP JUMP JUMPDEST PUSH2 0x797 PUSH2 0x777 PUSH2 0x7A5 JUMP JUMPDEST PUSH1 0x1 ADD PUSH0 DUP5 DUP2 MSTORE PUSH1 0x20 ADD SWAP1 DUP2 MSTORE PUSH1 0x20 ADD PUSH0 KECCAK256 SLOAD PUSH2 0x792 PUSH2 0x7B3 JUMP JUMPDEST PUSH2 0x7BA JUMP JUMPDEST PUSH2 0x7A1 DUP3 DUP3 PUSH2 0x8C5 JUMP JUMPDEST POP POP JUMP JUMPDEST PUSH0 PUSH2 0x7AE PUSH2 0x8EB JUMP JUMPDEST SWAP1 POP SWAP1 JUMP JUMPDEST PUSH0 CALLER SWAP1 POP SWAP1 JUMP JUMPDEST PUSH2 0x7C2 PUSH2 0x7A5 JUMP JUMPDEST PUSH0 ADD PUSH0 DUP4 DUP2 MSTORE PUSH1 0x20 ADD SWAP1 DUP2 MSTORE PUSH1 0x20 ADD PUSH0 KECCAK256 PUSH0 DUP3 PUSH20 0xFFFFFFFFFFFFFFFFFFFFFFFFFFFFFFFFFFFFFFFF AND PUSH20 0xFFFFFFFFFFFFFFFFFFFFFFFFFFFFFFFFFFFFFFFF AND DUP2 MSTORE PUSH1 0x20 ADD SWAP1 DUP2 MSTORE PUSH1 0x20 ADD PUSH0 KECCAK256 PUSH0 SWAP1 SLOAD SWAP1 PUSH2 0x100 EXP SWAP1 DIV PUSH1 0xFF AND PUSH2 0x8A9 JUMPI PUSH2 0x840 DUP2 PUSH20 0xFFFFFFFFFFFFFFFFFFFFFFFFFFFFFFFFFFFFFFFF AND PUSH1 0x14 PUSH2 0x919 JUMP JUMPDEST PUSH2 0x84D DUP4 PUSH0 SHR PUSH1 0x20 PUSH2 0x919 JUMP JUMPDEST PUSH1 0x40 MLOAD PUSH1 0x20 ADD PUSH2 0x85E SWAP3 SWAP2 SWAP1 PUSH2 0x13D1 JUMP JUMPDEST PUSH1 0x40 MLOAD PUSH1 0x20 DUP2 DUP4 SUB SUB DUP2 MSTORE SWAP1 PUSH1 0x40 MSTORE PUSH1 0x40 MLOAD PUSH32 0x8C379A000000000000000000000000000000000000000000000000000000000 DUP2 MSTORE PUSH1 0x4 ADD PUSH2 0x8A0 SWAP2 SWAP1 PUSH2 0x1452 JUMP JUMPDEST PUSH1 0x40 MLOAD DUP1 SWAP2 SUB SWAP1 REVERT JUMPDEST POP POP JUMP JUMPDEST PUSH2 0x8B7 DUP3 DUP3 PUSH2 0xB4E JUMP JUMPDEST PUSH2 0x8C1 DUP3 DUP3 PUSH2 0xC20 JUMP JUMPDEST POP POP JUMP JUMPDEST PUSH2 0x8CF DUP3 DUP3 PUSH2 0xD3B JUMP JUMPDEST PUSH2 0x8D9 DUP3 DUP3 PUSH2 0xE0E JUMP JUMPDEST POP POP JUMP JUMPDEST PUSH0 PUSH2 0x8E6 PUSH2 0xF15 JUMP JUMPDEST SWAP1 POP SWAP1 JUMP JUMPDEST PUSH0 DUP1 PUSH32 0xA7B0F5C59907924802379EBE98CDC23E2EE7820F63D30126E10B3752010E500 PUSH0 SHL SWAP1 POP DUP1 SWAP2 POP POP SWAP1 JUMP JUMPDEST PUSH1 0x60 PUSH0 PUSH1 0x2 DUP4 PUSH1 0x2 PUSH2 0x92B SWAP2 SWAP1 PUSH2 0x1472 JUMP JUMPDEST PUSH2 0x935 SWAP2 SWAP1 PUSH2 0x129E JUMP JUMPDEST PUSH8 0xFFFFFFFFFFFFFFFF DUP2 GT ISZERO PUSH2 0x94E JUMPI PUSH2 0x94D PUSH2 0x14B3 JUMP JUMPDEST JUMPDEST PUSH1 0x40 MLOAD SWAP1 DUP1 DUP3 MSTORE DUP1 PUSH1 0x1F ADD PUSH1 0x1F NOT AND PUSH1 0x20 ADD DUP3 ADD PUSH1 0x40 MSTORE DUP1 ISZERO PUSH2 0x980 JUMPI DUP2 PUSH1 0x20 ADD PUSH1 0x1 DUP3 MUL DUP1 CALLDATASIZE DUP4 CALLDATACOPY DUP1 DUP3 ADD SWAP2 POP POP SWAP1 POP JUMPDEST POP SWAP1 POP PUSH32 0x3000000000000000000000000000000000000000000000000000000000000000 DUP2 PUSH0 DUP2 MLOAD DUP2 LT PUSH2 0x9B7 JUMPI PUSH2 0x9B6 PUSH2 0x14E0 JUMP JUMPDEST JUMPDEST PUSH1 0x20 ADD ADD SWAP1 PUSH31 0xFFFFFFFFFFFFFFFFFFFFFFFFFFFFFFFFFFFFFFFFFFFFFFFFFFFFFFFFFFFFFF NOT AND SWAP1 DUP2 PUSH0 BYTE SWAP1 MSTORE8 POP PUSH32 0x7800000000000000000000000000000000000000000000000000000000000000 DUP2 PUSH1 0x1 DUP2 MLOAD DUP2 LT PUSH2 0xA1A JUMPI PUSH2 0xA19 PUSH2 0x14E0 JUMP JUMPDEST JUMPDEST PUSH1 0x20 ADD ADD SWAP1 PUSH31 0xFFFFFFFFFFFFFFFFFFFFFFFFFFFFFFFFFFFFFFFFFFFFFFFFFFFFFFFFFFFFFF NOT AND SWAP1 DUP2 PUSH0 BYTE SWAP1 MSTORE8 POP PUSH0 PUSH1 0x1 DUP5 PUSH1 0x2 PUSH2 0xA58 SWAP2 SWAP1 PUSH2 0x1472 JUMP JUMPDEST PUSH2 0xA62 SWAP2 SWAP1 PUSH2 0x129E JUMP JUMPDEST SWAP1 POP JUMPDEST PUSH1 0x1 DUP2 GT ISZERO PUSH2 0xB01 JUMPI PUSH32 0x3031323334353637383961626364656600000000000000000000000000000000 PUSH1 0xF DUP7 AND PUSH1 0x10 DUP2 LT PUSH2 0xAA4 JUMPI PUSH2 0xAA3 PUSH2 0x14E0 JUMP JUMPDEST JUMPDEST BYTE PUSH1 0xF8 SHL DUP3 DUP3 DUP2 MLOAD DUP2 LT PUSH2 0xABB JUMPI PUSH2 0xABA PUSH2 0x14E0 JUMP JUMPDEST JUMPDEST PUSH1 0x20 ADD ADD SWAP1 PUSH31 0xFFFFFFFFFFFFFFFFFFFFFFFFFFFFFFFFFFFFFFFFFFFFFFFFFFFFFFFFFFFFFF NOT AND SWAP1 DUP2 PUSH0 BYTE SWAP1 MSTORE8 POP PUSH1 0x4 DUP6 SWAP1 SHR SWAP5 POP DUP1 PUSH2 0xAFA SWAP1 PUSH2 0x150D JUMP JUMPDEST SWAP1 POP PUSH2 0xA65 JUMP JUMPDEST POP PUSH0 DUP5 EQ PUSH2 0xB44 JUMPI PUSH1 0x40 MLOAD PUSH32 0x8C379A000000000000000000000000000000000000000000000000000000000 DUP2 MSTORE PUSH1 0x4 ADD PUSH2 0xB3B SWAP1 PUSH2 0x157E JUMP JUMPDEST PUSH1 0x40 MLOAD DUP1 SWAP2 SUB SWAP1 REVERT JUMPDEST DUP1 SWAP2 POP POP SWAP3 SWAP2 POP POP JUMP JUMPDEST PUSH1 0x1 PUSH2 0xB58 PUSH2 0x7A5 JUMP JUMPDEST PUSH0 ADD PUSH0 DUP5 DUP2 MSTORE PUSH1 0x20 ADD SWAP1 DUP2 MSTORE PUSH1 0x20 ADD PUSH0 KECCAK256 PUSH0 DUP4 PUSH20 0xFFFFFFFFFFFFFFFFFFFFFFFFFFFFFFFFFFFFFFFF AND PUSH20 0xFFFFFFFFFFFFFFFFFFFFFFFFFFFFFFFFFFFFFFFF AND DUP2 MSTORE PUSH1 0x20 ADD SWAP1 DUP2 MSTORE PUSH1 0x20 ADD PUSH0 KECCAK256 PUSH0 PUSH2 0x100 EXP DUP2 SLOAD DUP2 PUSH1 0xFF MUL NOT AND SWAP1 DUP4 ISZERO ISZERO MUL OR SWAP1 SSTORE POP PUSH2 0xBC2 PUSH2 0x7B3 JUMP JUMPDEST PUSH20 0xFFFFFFFFFFFFFFFFFFFFFFFFFFFFFFFFFFFFFFFF AND DUP2 PUSH20 0xFFFFFFFFFFFFFFFFFFFFFFFFFFFFFFFFFFFFFFFF AND DUP4 PUSH32 0x2F8788117E7EFF1D82E926EC794901D17C78024A50270940304540A733656F0D PUSH1 0x40 MLOAD PUSH1 0x40 MLOAD DUP1 SWAP2 SUB SWAP1 LOG4 POP POP JUMP JUMPDEST PUSH0 PUSH2 0xC29 PUSH2 0x8DD JUMP JUMPDEST PUSH0 ADD PUSH0 DUP5 DUP2 MSTORE PUSH1 0x20 ADD SWAP1 DUP2 MSTORE PUSH1 0x20 ADD PUSH0 KECCAK256 PUSH0 ADD SLOAD SWAP1 POP PUSH1 0x1 PUSH2 0xC49 PUSH2 0x8DD JUMP JUMPDEST PUSH0 ADD PUSH0 DUP6 DUP2 MSTORE PUSH1 0x20 ADD SWAP1 DUP2 MSTORE PUSH1 0x20 ADD PUSH0 KECCAK256 PUSH0 ADD PUSH0 DUP3 DUP3 SLOAD PUSH2 0xC6A SWAP2 SWAP1 PUSH2 0x129E JUMP JUMPDEST SWAP3 POP POP DUP2 SWAP1 SSTORE POP DUP2 PUSH2 0xC7A PUSH2 0x8DD JUMP JUMPDEST PUSH0 ADD PUSH0 DUP6 DUP2 MSTORE PUSH1 0x20 ADD SWAP1 DUP2 MSTORE PUSH1 0x20 ADD PUSH0 KECCAK256 PUSH1 0x1 ADD PUSH0 DUP4 DUP2 MSTORE PUSH1 0x20 ADD SWAP1 DUP2 MSTORE PUSH1 0x20 ADD PUSH0 KECCAK256 PUSH0 PUSH2 0x100 EXP DUP2 SLOAD DUP2 PUSH20 0xFFFFFFFFFFFFFFFFFFFFFFFFFFFFFFFFFFFFFFFF MUL NOT AND SWAP1 DUP4 PUSH20 0xFFFFFFFFFFFFFFFFFFFFFFFFFFFFFFFFFFFFFFFF AND MUL OR SWAP1 SSTORE POP DUP1 PUSH2 0xCE3 PUSH2 0x8DD JUMP JUMPDEST PUSH0 ADD PUSH0 DUP6 DUP2 MSTORE PUSH1 0x20 ADD SWAP1 DUP2 MSTORE PUSH1 0x20 ADD PUSH0 KECCAK256 PUSH1 0x2 ADD PUSH0 DUP5 PUSH20 0xFFFFFFFFFFFFFFFFFFFFFFFFFFFFFFFFFFFFFFFF AND PUSH20 0xFFFFFFFFFFFFFFFFFFFFFFFFFFFFFFFFFFFFFFFF AND DUP2 MSTORE PUSH1 0x20 ADD SWAP1 DUP2 MSTORE PUSH1 0x20 ADD PUSH0 KECCAK256 DUP2 SWAP1 SSTORE POP POP POP POP JUMP JUMPDEST PUSH2 0xD45 DUP3 DUP3 PUSH2 0x7BA JUMP JUMPDEST PUSH2 0xD4D PUSH2 0x7A5 JUMP JUMPDEST PUSH0 ADD PUSH0 DUP4 DUP2 MSTORE PUSH1 0x20 ADD SWAP1 DUP2 MSTORE PUSH1 0x20 ADD PUSH0 KECCAK256 PUSH0 DUP3 PUSH20 0xFFFFFFFFFFFFFFFFFFFFFFFFFFFFFFFFFFFFFFFF AND PUSH20 0xFFFFFFFFFFFFFFFFFFFFFFFFFFFFFFFFFFFFFFFF AND DUP2 MSTORE PUSH1 0x20 ADD SWAP1 DUP2 MSTORE PUSH1 0x20 ADD PUSH0 KECCAK256 PUSH0 PUSH2 0x100 EXP DUP2 SLOAD SWAP1 PUSH1 0xFF MUL NOT AND SWAP1 SSTORE PUSH2 0xDB0 PUSH2 0x7B3 JUMP JUMPDEST PUSH20 0xFFFFFFFFFFFFFFFFFFFFFFFFFFFFFFFFFFFFFFFF AND DUP2 PUSH20 0xFFFFFFFFFFFFFFFFFFFFFFFFFFFFFFFFFFFFFFFF AND DUP4 PUSH32 0xF6391F5C32D9C69D2A47EA670B442974B53935D1EDC7FD64EB21E047A839171B PUSH1 0x40 MLOAD PUSH1 0x40 MLOAD DUP1 SWAP2 SUB SWAP1 LOG4 POP POP JUMP JUMPDEST PUSH0 PUSH2 0xE17 PUSH2 0x8DD JUMP JUMPDEST PUSH0 ADD PUSH0 DUP5 DUP2 MSTORE PUSH1 0x20 ADD SWAP1 DUP2 MSTORE PUSH1 0x20 ADD PUSH0 KECCAK256 PUSH1 0x2 ADD PUSH0 DUP4 PUSH20 0xFFFFFFFFFFFFFFFFFFFFFFFFFFFFFFFFFFFFFFFF AND PUSH20 0xFFFFFFFFFFFFFFFFFFFFFFFFFFFFFFFFFFFFFFFF AND DUP2 MSTORE PUSH1 0x20 ADD SWAP1 DUP2 MSTORE PUSH1 0x20 ADD PUSH0 KECCAK256 SLOAD SWAP1 POP PUSH2 0xE71 PUSH2 0x8DD JUMP JUMPDEST PUSH0 ADD PUSH0 DUP5 DUP2 MSTORE PUSH1 0x20 ADD SWAP1 DUP2 MSTORE PUSH1 0x20 ADD PUSH0 KECCAK256 PUSH1 0x1 ADD PUSH0 DUP3 DUP2 MSTORE PUSH1 0x20 ADD SWAP1 DUP2 MSTORE PUSH1 0x20 ADD PUSH0 KECCAK256 PUSH0 PUSH2 0x100 EXP DUP2 SLOAD SWAP1 PUSH20 0xFFFFFFFFFFFFFFFFFFFFFFFFFFFFFFFFFFFFFFFF MUL NOT AND SWAP1 SSTORE PUSH2 0xEBE PUSH2 0x8DD JUMP JUMPDEST PUSH0 ADD PUSH0 DUP5 DUP2 MSTORE PUSH1 0x20 ADD SWAP1 DUP2 MSTORE PUSH1 0x20 ADD PUSH0 KECCAK256 PUSH1 0x2 ADD PUSH0 DUP4 PUSH20 0xFFFFFFFFFFFFFFFFFFFFFFFFFFFFFFFFFFFFFFFF AND PUSH20 0xFFFFFFFFFFFFFFFFFFFFFFFFFFFFFFFFFFFFFFFF AND DUP2 MSTORE PUSH1 0x20 ADD SWAP1 DUP2 MSTORE PUSH1 0x20 ADD PUSH0 KECCAK256 PUSH0 SWAP1 SSTORE POP POP POP JUMP JUMPDEST PUSH0 DUP1 PUSH1 0xFF PUSH0 SHL NOT PUSH1 0x1 PUSH32 0xC4BA382C0009CF238E4C1CA1A52F51C61E6248A70BDFB34E5ED49D5578A5C0C PUSH0 SHR PUSH2 0xF4B SWAP2 SWAP1 PUSH2 0x159C JUMP JUMPDEST PUSH1 0x40 MLOAD PUSH1 0x20 ADD PUSH2 0xF5B SWAP2 SWAP1 PUSH2 0x1178 JUMP JUMPDEST PUSH1 0x40 MLOAD PUSH1 0x20 DUP2 DUP4 SUB SUB DUP2 MSTORE SWAP1 PUSH1 0x40 MSTORE DUP1 MLOAD SWAP1 PUSH1 0x20 ADD KECCAK256 AND SWAP1 POP DUP1 SWAP2 POP POP SWAP1 JUMP JUMPDEST PUSH0 DUP1 REVERT JUMPDEST PUSH0 DUP2 SWAP1 POP SWAP2 SWAP1 POP JUMP JUMPDEST PUSH2 0xF91 DUP2 PUSH2 0xF7F JUMP JUMPDEST DUP2 EQ PUSH2 0xF9B JUMPI PUSH0 DUP1 REVERT JUMPDEST POP JUMP JUMPDEST PUSH0 DUP2 CALLDATALOAD SWAP1 POP PUSH2 0xFAC DUP2 PUSH2 0xF88 JUMP JUMPDEST SWAP3 SWAP2 POP POP JUMP JUMPDEST PUSH0 PUSH1 0x20 DUP3 DUP5 SUB SLT ISZERO PUSH2 0xFC7 JUMPI PUSH2 0xFC6 PUSH2 0xF7B JUMP JUMPDEST JUMPDEST PUSH0 PUSH2 0xFD4 DUP5 DUP3 DUP6 ADD PUSH2 0xF9E JUMP JUMPDEST SWAP2 POP POP SWAP3 SWAP2 POP POP JUMP JUMPDEST PUSH2 0xFE6 DUP2 PUSH2 0xF7F JUMP JUMPDEST DUP3 MSTORE POP POP JUMP JUMPDEST PUSH0 PUSH1 0x20 DUP3 ADD SWAP1 POP PUSH2 0xFFF PUSH0 DUP4 ADD DUP5 PUSH2 0xFDD JUMP JUMPDEST SWAP3 SWAP2 POP POP JUMP JUMPDEST PUSH0 PUSH20 0xFFFFFFFFFFFFFFFFFFFFFFFFFFFFFFFFFFFFFFFF DUP3 AND SWAP1 POP SWAP2 SWAP1 POP JUMP JUMPDEST PUSH0 PUSH2 0x102E DUP3 PUSH2 0x1005 JUMP JUMPDEST SWAP1 POP SWAP2 SWAP1 POP JUMP JUMPDEST PUSH2 0x103E DUP2 PUSH2 0x1024 JUMP JUMPDEST DUP2 EQ PUSH2 0x1048 JUMPI PUSH0 DUP1 REVERT JUMPDEST POP JUMP JUMPDEST PUSH0 DUP2 CALLDATALOAD SWAP1 POP PUSH2 0x1059 DUP2 PUSH2 0x1035 JUMP JUMPDEST SWAP3 SWAP2 POP POP JUMP JUMPDEST PUSH0 DUP1 PUSH1 0x40 DUP4 DUP6 SUB SLT ISZERO PUSH2 0x1075 JUMPI PUSH2 0x1074 PUSH2 0xF7B JUMP JUMPDEST JUMPDEST PUSH0 PUSH2 0x1082 DUP6 DUP3 DUP7 ADD PUSH2 0xF9E JUMP JUMPDEST SWAP3 POP POP PUSH1 0x20 PUSH2 0x1093 DUP6 DUP3 DUP7 ADD PUSH2 0x104B JUMP JUMPDEST SWAP2 POP POP SWAP3 POP SWAP3 SWAP1 POP JUMP JUMPDEST PUSH0 DUP2 SWAP1 POP SWAP2 SWAP1 POP JUMP JUMPDEST PUSH2 0x10AF DUP2 PUSH2 0x109D JUMP JUMPDEST DUP2 EQ PUSH2 0x10B9 JUMPI PUSH0 DUP1 REVERT JUMPDEST POP JUMP JUMPDEST PUSH0 DUP2 CALLDATALOAD SWAP1 POP PUSH2 0x10CA DUP2 PUSH2 0x10A6 JUMP JUMPDEST SWAP3 SWAP2 POP POP JUMP JUMPDEST PUSH0 DUP1 PUSH1 0x40 DUP4 DUP6 SUB SLT ISZERO PUSH2 0x10E6 JUMPI PUSH2 0x10E5 PUSH2 0xF7B JUMP JUMPDEST JUMPDEST PUSH0 PUSH2 0x10F3 DUP6 DUP3 DUP7 ADD PUSH2 0xF9E JUMP JUMPDEST SWAP3 POP POP PUSH1 0x20 PUSH2 0x1104 DUP6 DUP3 DUP7 ADD PUSH2 0x10BC JUMP JUMPDEST SWAP2 POP POP SWAP3 POP SWAP3 SWAP1 POP JUMP JUMPDEST PUSH2 0x1117 DUP2 PUSH2 0x1024 JUMP JUMPDEST DUP3 MSTORE POP POP JUMP JUMPDEST PUSH0 PUSH1 0x20 DUP3 ADD SWAP1 POP PUSH2 0x1130 PUSH0 DUP4 ADD DUP5 PUSH2 0x110E JUMP JUMPDEST SWAP3 SWAP2 POP POP JUMP JUMPDEST PUSH0 DUP2 ISZERO ISZERO SWAP1 POP SWAP2 SWAP1 POP JUMP JUMPDEST PUSH2 0x114A DUP2 PUSH2 0x1136 JUMP JUMPDEST DUP3 MSTORE POP POP JUMP JUMPDEST PUSH0 PUSH1 0x20 DUP3 ADD SWAP1 POP PUSH2 0x1163 PUSH0 DUP4 ADD DUP5 PUSH2 0x1141 JUMP JUMPDEST SWAP3 SWAP2 POP POP JUMP JUMPDEST PUSH2 0x1172 DUP2 PUSH2 0x109D JUMP JUMPDEST DUP3 MSTORE POP POP JUMP JUMPDEST PUSH0 PUSH1 0x20 DUP3 ADD SWAP1 POP PUSH2 0x118B PUSH0 DUP4 ADD DUP5 PUSH2 0x1169 JUMP JUMPDEST SWAP3 SWAP2 POP POP JUMP JUMPDEST PUSH0 DUP3 DUP3 MSTORE PUSH1 0x20 DUP3 ADD SWAP1 POP SWAP3 SWAP2 POP POP JUMP JUMPDEST PUSH32 0x43616E206F6E6C79206772616E7420746F206E6F6E20686F6C64657273000000 PUSH0 DUP3 ADD MSTORE POP JUMP JUMPDEST PUSH0 PUSH2 0x11D5 PUSH1 0x1D DUP4 PUSH2 0x1191 JUMP JUMPDEST SWAP2 POP PUSH2 0x11E0 DUP3 PUSH2 0x11A1 JUMP JUMPDEST PUSH1 0x20 DUP3 ADD SWAP1 POP SWAP2 SWAP1 POP JUMP JUMPDEST PUSH0 PUSH1 0x20 DUP3 ADD SWAP1 POP DUP2 DUP2 SUB PUSH0 DUP4 ADD MSTORE PUSH2 0x1202 DUP2 PUSH2 0x11C9 JUMP JUMPDEST SWAP1 POP SWAP2 SWAP1 POP JUMP JUMPDEST PUSH32 0x43616E206F6E6C792072656E6F756E636520666F722073656C66000000000000 PUSH0 DUP3 ADD MSTORE POP JUMP JUMPDEST PUSH0 PUSH2 0x123D PUSH1 0x1A DUP4 PUSH2 0x1191 JUMP JUMPDEST SWAP2 POP PUSH2 0x1248 DUP3 PUSH2 0x1209 JUMP JUMPDEST PUSH1 0x20 DUP3 ADD SWAP1 POP SWAP2 SWAP1 POP JUMP JUMPDEST PUSH0 PUSH1 0x20 DUP3 ADD SWAP1 POP DUP2 DUP2 SUB PUSH0 DUP4 ADD MSTORE PUSH2 0x126A DUP2 PUSH2 0x1231 JUMP JUMPDEST SWAP1 POP SWAP2 SWAP1 POP JUMP JUMPDEST PUSH32 0x4E487B7100000000000000000000000000000000000000000000000000000000 PUSH0 MSTORE PUSH1 0x11 PUSH1 0x4 MSTORE PUSH1 0x24 PUSH0 REVERT JUMPDEST PUSH0 PUSH2 0x12A8 DUP3 PUSH2 0x109D JUMP JUMPDEST SWAP2 POP PUSH2 0x12B3 DUP4 PUSH2 0x109D JUMP JUMPDEST SWAP3 POP DUP3 DUP3 ADD SWAP1 POP DUP1 DUP3 GT ISZERO PUSH2 0x12CB JUMPI PUSH2 0x12CA PUSH2 0x1271 JUMP JUMPDEST JUMPDEST SWAP3 SWAP2 POP POP JUMP JUMPDEST PUSH0 DUP2 SWAP1 POP SWAP3 SWAP2 POP POP JUMP JUMPDEST PUSH32 0x5065726D697373696F6E733A206163636F756E74200000000000000000000000 PUSH0 DUP3 ADD MSTORE POP JUMP JUMPDEST PUSH0 PUSH2 0x130F PUSH1 0x15 DUP4 PUSH2 0x12D1 JUMP JUMPDEST SWAP2 POP PUSH2 0x131A DUP3 PUSH2 0x12DB JUMP JUMPDEST PUSH1 0x15 DUP3 ADD SWAP1 POP SWAP2 SWAP1 POP JUMP JUMPDEST PUSH0 DUP2 MLOAD SWAP1 POP SWAP2 SWAP1 POP JUMP JUMPDEST PUSH0 JUMPDEST DUP4 DUP2 LT ISZERO PUSH2 0x134C JUMPI DUP1 DUP3 ADD MLOAD DUP2 DUP5 ADD MSTORE PUSH1 0x20 DUP2 ADD SWAP1 POP PUSH2 0x1331 JUMP JUMPDEST PUSH0 DUP5 DUP5 ADD MSTORE POP POP POP POP JUMP JUMPDEST PUSH0 PUSH2 0x1361 DUP3 PUSH2 0x1325 JUMP JUMPDEST PUSH2 0x136B DUP2 DUP6 PUSH2 0x12D1 JUMP JUMPDEST SWAP4 POP PUSH2 0x137B DUP2 DUP6 PUSH1 0x20 DUP7 ADD PUSH2 0x132F JUMP JUMPDEST DUP1 DUP5 ADD SWAP2 POP POP SWAP3 SWAP2 POP POP JUMP JUMPDEST PUSH32 0x206973206D697373696E6720726F6C6520000000000000000000000000000000 PUSH0 DUP3 ADD MSTORE POP JUMP JUMPDEST PUSH0 PUSH2 0x13BB PUSH1 0x11 DUP4 PUSH2 0x12D1 JUMP JUMPDEST SWAP2 POP PUSH2 0x13C6 DUP3 PUSH2 0x1387 JUMP JUMPDEST PUSH1 0x11 DUP3 ADD SWAP1 POP SWAP2 SWAP1 POP JUMP JUMPDEST PUSH0 PUSH2 0x13DB DUP3 PUSH2 0x1303 JUMP JUMPDEST SWAP2 POP PUSH2 0x13E7 DUP3 DUP6 PUSH2 0x1357 JUMP JUMPDEST SWAP2 POP PUSH2 0x13F2 DUP3 PUSH2 0x13AF JUMP JUMPDEST SWAP2 POP PUSH2 0x13FE DUP3 DUP5 PUSH2 0x1357 JUMP JUMPDEST SWAP2 POP DUP2 SWAP1 POP SWAP4 SWAP3 POP POP POP JUMP JUMPDEST PUSH0 PUSH1 0x1F NOT PUSH1 0x1F DUP4 ADD AND SWAP1 POP SWAP2 SWAP1 POP JUMP JUMPDEST PUSH0 PUSH2 0x1424 DUP3 PUSH2 0x1325 JUMP JUMPDEST PUSH2 0x142E DUP2 DUP6 PUSH2 0x1191 JUMP JUMPDEST SWAP4 POP PUSH2 0x143E DUP2 DUP6 PUSH1 0x20 DUP7 ADD PUSH2 0x132F JUMP JUMPDEST PUSH2 0x1447 DUP2 PUSH2 0x140A JUMP JUMPDEST DUP5 ADD SWAP2 POP POP SWAP3 SWAP2 POP POP JUMP JUMPDEST PUSH0 PUSH1 0x20 DUP3 ADD SWAP1 POP DUP2 DUP2 SUB PUSH0 DUP4 ADD MSTORE PUSH2 0x146A DUP2 DUP5 PUSH2 0x141A JUMP JUMPDEST SWAP1 POP SWAP3 SWAP2 POP POP JUMP JUMPDEST PUSH0 PUSH2 0x147C DUP3 PUSH2 0x109D JUMP JUMPDEST SWAP2 POP PUSH2 0x1487 DUP4 PUSH2 0x109D JUMP JUMPDEST SWAP3 POP DUP3 DUP3 MUL PUSH2 0x1495 DUP2 PUSH2 0x109D JUMP JUMPDEST SWAP2 POP DUP3 DUP3 DIV DUP5 EQ DUP4 ISZERO OR PUSH2 0x14AC JUMPI PUSH2 0x14AB PUSH2 0x1271 JUMP JUMPDEST JUMPDEST POP SWAP3 SWAP2 POP POP JUMP JUMPDEST PUSH32 0x4E487B7100000000000000000000000000000000000000000000000000000000 PUSH0 MSTORE PUSH1 0x41 PUSH1 0x4 MSTORE PUSH1 0x24 PUSH0 REVERT JUMPDEST PUSH32 0x4E487B7100000000000000000000000000000000000000000000000000000000 PUSH0 MSTORE PUSH1 0x32 PUSH1 0x4 MSTORE PUSH1 0x24 PUSH0 REVERT JUMPDEST PUSH0 PUSH2 0x1517 DUP3 PUSH2 0x109D JUMP JUMPDEST SWAP2 POP PUSH0 DUP3 SUB PUSH2 0x1529 JUMPI PUSH2 0x1528 PUSH2 0x1271 JUMP JUMPDEST JUMPDEST PUSH1 0x1 DUP3 SUB SWAP1 POP SWAP2 SWAP1 POP JUMP JUMPDEST PUSH32 0x537472696E67733A20686578206C656E67746820696E73756666696369656E74 PUSH0 DUP3 ADD MSTORE POP JUMP JUMPDEST PUSH0 PUSH2 0x1568 PUSH1 0x20 DUP4 PUSH2 0x1191 JUMP JUMPDEST SWAP2 POP PUSH2 0x1573 DUP3 PUSH2 0x1534 JUMP JUMPDEST PUSH1 0x20 DUP3 ADD SWAP1 POP SWAP2 SWAP1 POP JUMP JUMPDEST PUSH0 PUSH1 0x20 DUP3 ADD SWAP1 POP DUP2 DUP2 SUB PUSH0 DUP4 ADD MSTORE PUSH2 0x1595 DUP2 PUSH2 0x155C JUMP JUMPDEST SWAP1 POP SWAP2 SWAP1 POP JUMP JUMPDEST PUSH0 PUSH2 0x15A6 DUP3 PUSH2 0x109D JUMP JUMPDEST SWAP2 POP PUSH2 0x15B1 DUP4 PUSH2 0x109D JUMP JUMPDEST SWAP3 POP DUP3 DUP3 SUB SWAP1 POP DUP2 DUP2 GT ISZERO PUSH2 0x15C9 JUMPI PUSH2 0x15C8 PUSH2 0x1271 JUMP JUMPDEST JUMPDEST SWAP3 SWAP2 POP POP JUMP INVALID LOG2 PUSH5 0x6970667358 0x22 SLT KECCAK256 0xF7 0xEE SWAP3 PUSH2 0x594F 0xAD JUMP 0xC3 ORIGIN NOT CALLDATACOPY 0xD2 PC SWAP16 DUP14 PUSH18 0x41AE1002436C81DE05B55079AA630764736F PUSH13 0x63430008180033000000000000 "
				},
				"gasEstimates": {
					"creation": {
						"codeDepositCost": "1127400",
						"executionCost": "1172",
						"totalCost": "1128572"
					},
					"external": {
						"DEFAULT_ADMIN_ROLE()": "352",
						"getRoleAdmin(bytes32)": "infinite",
						"getRoleMember(bytes32,uint256)": "infinite",
						"getRoleMemberCount(bytes32)": "infinite",
						"grantRole(bytes32,address)": "infinite",
						"hasRole(bytes32,address)": "3208",
						"hasRoleWithSwitch(bytes32,address)": "infinite",
						"renounceRole(bytes32,address)": "infinite",
						"revokeRole(bytes32,address)": "infinite"
					},
					"internal": {
						"_addMember(bytes32,address)": "infinite",
						"_permissionsEnumerableStorage()": "infinite",
						"_removeMember(bytes32,address)": "infinite",
						"_revokeRole(bytes32,address)": "infinite",
						"_setupRole(bytes32,address)": "infinite"
					}
				},
				"methodIdentifiers": {
					"DEFAULT_ADMIN_ROLE()": "a217fddf",
					"getRoleAdmin(bytes32)": "248a9ca3",
					"getRoleMember(bytes32,uint256)": "9010d07c",
					"getRoleMemberCount(bytes32)": "ca15c873",
					"grantRole(bytes32,address)": "2f2ff15d",
					"hasRole(bytes32,address)": "91d14854",
					"hasRoleWithSwitch(bytes32,address)": "a32fa5b3",
					"renounceRole(bytes32,address)": "36568abe",
					"revokeRole(bytes32,address)": "d547741f"
				}
			},
			"storageLayout": {
				"storage": [],
				"types": null
			},
			"userdoc": {
				"kind": "user",
				"methods": {
					"getRoleAdmin(bytes32)": {
						"notice": "Returns the admin role that controls the specified role."
					},
					"getRoleMember(bytes32,uint256)": {
						"notice": "Returns the role-member from a list of members for a role,                  at a given index."
					},
					"getRoleMemberCount(bytes32)": {
						"notice": "Returns total number of accounts that have a role."
					},
					"grantRole(bytes32,address)": {
						"notice": "Grants a role to an account, if not previously granted."
					},
					"hasRole(bytes32,address)": {
						"notice": "Checks whether an account has a particular role."
					},
					"hasRoleWithSwitch(bytes32,address)": {
						"notice": "Checks whether an account has a particular role;                  role restrictions can be swtiched on and off."
					},
					"renounceRole(bytes32,address)": {
						"notice": "Revokes role from the account."
					},
					"revokeRole(bytes32,address)": {
						"notice": "Revokes role from an account."
					}
				},
				"version": 1
			}
		}
	}
}