{
	"data": {
		"bytecode": {
			"linkReferences": {},
			"object": "61018060405234801562000011575f80fd5b50604051620054ea380380620054ea8339818101604052810190620000379190620003fc565b6040518060400160405280600781526020017f4163636f756e74000000000000000000000000000000000000000000000000008152506040518060400160405280600181526020017f31000000000000000000000000000000000000000000000000000000000000008152505f828051906020012090505f828051906020012090505f7f8b73c3c69bb8fe3d512ecc4cf759cc79239f7b179b0ffacaa9a75d522b39400f90508260e081815250508161010081815250504660a0818152505062000109818484620001d460201b60201c565b608081815250503073ffffffffffffffffffffffffffffffffffffffff1660c08173ffffffffffffffffffffffffffffffffffffffff16815250508061012081815250505050505050620001626200020f60201b60201c565b8073ffffffffffffffffffffffffffffffffffffffff166101408173ffffffffffffffffffffffffffffffffffffffff16815250508173ffffffffffffffffffffffffffffffffffffffff166101608173ffffffffffffffffffffffffffffffffffffffff16815250505050620005bd565b5f8383834630604051602001620001f095949392919062000486565b6040516020818303038152906040528051906020012090509392505050565b5f620002206200031160201b60201c565b5f015f9054906101000a900460ff1690505f620002426200031160201b60201c565b5f0160019054906101000a900460ff169050801562000298576040517f08c379a00000000000000000000000000000000000000000000000000000000081526004016200028f9062000565565b60405180910390fd5b60ff80168260ff1610156200030d5760ff620002b96200031160201b60201c565b5f015f6101000a81548160ff021916908360ff1602179055507f7f26b83ff96e1f2b6a682f133852f6798a09c465da95921460cefb384740249860ff604051620003049190620005a2565b60405180910390a15b5050565b5f620003226200032760201b60201c565b905090565b5f807f322cf19c484104d3b1a9c2982ebae869ede3fa5f6c4703ca41b9a48c76ee03005f1b90508091505090565b5f80fd5b5f73ffffffffffffffffffffffffffffffffffffffff82169050919050565b5f620003848262000359565b9050919050565b5f620003978262000378565b9050919050565b620003a9816200038b565b8114620003b4575f80fd5b50565b5f81519050620003c7816200039e565b92915050565b620003d88162000378565b8114620003e3575f80fd5b50565b5f81519050620003f681620003cd565b92915050565b5f806040838503121562000415576200041462000355565b5b5f6200042485828601620003b7565b92505060206200043785828601620003e6565b9150509250929050565b5f819050919050565b620004558162000441565b82525050565b5f819050919050565b6200046f816200045b565b82525050565b620004808162000378565b82525050565b5f60a0820190506200049b5f8301886200044a565b620004aa60208301876200044a565b620004b960408301866200044a565b620004c8606083018562000464565b620004d7608083018462000475565b9695505050505050565b5f82825260208201905092915050565b7f496e697469616c697a61626c653a20636f6e747261637420697320696e6974695f8201527f616c697a696e6700000000000000000000000000000000000000000000000000602082015250565b5f6200054d602783620004e1565b91506200055a82620004f1565b604082019050919050565b5f6020820190508181035f8301526200057e816200053f565b9050919050565b5f60ff82169050919050565b6200059c8162000585565b82525050565b5f602082019050620005b75f83018462000591565b92915050565b60805160a05160c05160e05161010051610120516101405161016051614eae6200063c5f395f61145d01525f81816114d801528181612082015281816120c60152818161215e0152818161227101526122af01525f612d2301525f612d6501525f612d4401525f612c7901525f612ccf01525f612cf80152614eae5ff3fe608060405234801561000f575f80fd5b50600436106100fe575f3560e01c8063b0d691fe11610095578063d1f5789411610064578063d1f57894146102d3578063d42f2f35146102ef578063e9523c971461030d578063f15d424e1461032b576100fe565b8063b0d691fe1461025d578063b76464d51461027b578063c45a015514610297578063d087d288146102b5576100fe565b80637dff5a79116100d15780637dff5a79146101ae5780638b52d723146101de578063a9082d84146101fc578063ac9650d81461022d576100fe565b80631dd756c51461010257806324d7806c146101325780633a871cdd146101625780635892e23614610192575b5f80fd5b61011c60048036038101906101179190613039565b61035b565b60405161012991906130ad565b60405180910390f35b61014c600480360381019061014791906130c6565b6107b3565b60405161015991906130ad565b60405180910390f35b61017c60048036038101906101779190613157565b61080e565b60405161018991906131d2565b60405180910390f35b6101ac60048036038101906101a7919061326b565b610840565b005b6101c860048036038101906101c391906130c6565b610d7d565b6040516101d591906130ad565b60405180910390f35b6101e6610f09565b6040516101f39190613502565b60405180910390f35b6102166004803603810190610211919061326b565b61128e565b604051610224929190613531565b60405180910390f35b610247600480360381019061024291906135ad565b6112ed565b604051610254919061373d565b60405180910390f35b6102656113f1565b60405161027291906137b8565b60405180910390f35b6102956004803603810190610290919061380c565b611483565b005b61029f6114d6565b6040516102ac9190613837565b60405180910390f35b6102bd6114fa565b6040516102ca91906131d2565b60405180910390f35b6102ed60048036038101906102e89190613850565b611581565b005b6102f7611747565b6040516103049190613502565b60405180910390f35b6103156119c5565b6040516103229190613919565b60405180910390f35b610345600480360381019061034091906130c6565b6119de565b60405161035291906139ac565b60405180910390f35b5f610364611b97565b6004015f8473ffffffffffffffffffffffffffffffffffffffff1673ffffffffffffffffffffffffffffffffffffffff1681526020019081526020015f205f9054906101000a900460ff16156103bd57600190506107ad565b5f6103c6611b97565b6005015f8573ffffffffffffffffffffffffffffffffffffffff1673ffffffffffffffffffffffffffffffffffffffff1681526020019081526020015f206040518060600160405290815f8201548152602001600182015f9054906101000a90046fffffffffffffffffffffffffffffffff166fffffffffffffffffffffffffffffffff166fffffffffffffffffffffffffffffffff1681526020016001820160109054906101000a90046fffffffffffffffffffffffffffffffff166fffffffffffffffffffffffffffffffff166fffffffffffffffffffffffffffffffff168152505090505f6104b6611b97565b6006015f8673ffffffffffffffffffffffffffffffffffffffff1673ffffffffffffffffffffffffffffffffffffffff1681526020019081526020015f2090504282602001516fffffffffffffffffffffffffffffffff161180610530575081604001516fffffffffffffffffffffffffffffffff164210155b8061054257505f61054082611ba5565b145b15610551575f925050506107ad565b5f61056a85806060019061056591906139d8565b611bb8565b90505f600161057884611ba5565b1480156105c257505f73ffffffffffffffffffffffffffffffffffffffff166105aa5f85611c2690919063ffffffff16565b73ffffffffffffffffffffffffffffffffffffffff16145b905063b61d27f660e01b7bffffffffffffffffffffffffffffffffffffffffffffffffffffffff1916827bffffffffffffffffffffffffffffffffffffffffffffffffffffffff191603610679575f8061062a88806060019061062591906139d8565b611c3d565b9150915082610659576106468286611cd390919063ffffffff16565b610658575f96505050505050506107ad565b5b80865f01511015610672575f96505050505050506107ad565b50506107a4565b6347e1da2a60e01b7bffffffffffffffffffffffffffffffffffffffffffffffffffffffff1916827bffffffffffffffffffffffffffffffffffffffffffffffffffffffff191603610797575f806106df8880606001906106da91906139d8565b611d00565b509150915082610743575f5b82518110156107415761072183828151811061070a57610709613a3a565b5b602002602001015187611cd390919063ffffffff16565b610734575f9750505050505050506107ad565b80806001019150506106eb565b505b5f5b825181101561078f5781818151811061076157610760613a3a565b5b6020026020010151875f01511015610782575f9750505050505050506107ad565b8080600101915050610745565b5050506107a3565b5f9450505050506107ad565b5b60019450505050505b92915050565b5f6107bc611b97565b6004015f8373ffffffffffffffffffffffffffffffffffffffff1673ffffffffffffffffffffffffffffffffffffffff1681526020019081526020015f205f9054906101000a900460ff169050919050565b5f610817611d7f565b6108218484611df6565b90506108308460200135611fdb565b61083982611fde565b9392505050565b5f835f01602081019061085391906130c6565b9050428460c00160208101906108699190613a91565b6fffffffffffffffffffffffffffffffff16111580156108ac57508360e00160208101906108979190613a91565b6fffffffffffffffffffffffffffffffff1642105b6108eb576040517f08c379a00000000000000000000000000000000000000000000000000000000081526004016108e290613b16565b60405180910390fd5b5f806108f886868661128e565b915091508161093c576040517f08c379a000000000000000000000000000000000000000000000000000000000815260040161093390613b7e565b60405180910390fd5b6001610946611b97565b6007015f88610100013581526020019081526020015f205f6101000a81548160ff0219169083151502179055505f8660200160208101906109879190613bd2565b60ff1611156109bf575f60018760200160208101906109a69190613bd2565b60ff161490506109b68482612075565b50505050610d78565b6109c8836107b3565b15610a08576040517f08c379a00000000000000000000000000000000000000000000000000000000081526004016109ff90613c47565b60405180910390fd5b610a2583610a14611b97565b6002016121f590919063ffffffff16565b50604051806060016040528087606001358152602001876080016020810190610a4e9190613a91565b6fffffffffffffffffffffffffffffffff1681526020018760a0016020810190610a789190613a91565b6fffffffffffffffffffffffffffffffff16815250610a95611b97565b6005015f8573ffffffffffffffffffffffffffffffffffffffff1673ffffffffffffffffffffffffffffffffffffffff1681526020019081526020015f205f820151815f01556020820151816001015f6101000a8154816fffffffffffffffffffffffffffffffff02191690836fffffffffffffffffffffffffffffffff16021790555060408201518160010160106101000a8154816fffffffffffffffffffffffffffffffff02191690836fffffffffffffffffffffffffffffffff1602179055509050505f610baa610b67611b97565b6006015f8673ffffffffffffffffffffffffffffffffffffffff1673ffffffffffffffffffffffffffffffffffffffff1681526020019081526020015f20612222565b90505f815190505f5b81811015610c4257610c2d838281518110610bd157610bd0613a3a565b5b6020026020010151610be1611b97565b6006015f8973ffffffffffffffffffffffffffffffffffffffff1673ffffffffffffffffffffffffffffffffffffffff1681526020019081526020015f2061224190919063ffffffff16565b50600181610c3b9190613c92565b9050610bb3565b50878060400190610c539190613cc5565b905090505f5b81811015610d0357610cee898060400190610c749190613cc5565b83818110610c8557610c84613a3a565b5b9050602002016020810190610c9a91906130c6565b610ca2611b97565b6006015f8973ffffffffffffffffffffffffffffffffffffffff1673ffffffffffffffffffffffffffffffffffffffff1681526020019081526020015f206121f590919063ffffffff16565b50600181610cfc9190613c92565b9050610c59565b50610d0d8861226e565b8473ffffffffffffffffffffffffffffffffffffffff168373ffffffffffffffffffffffffffffffffffffffff167ff21d10c26e35863a8df291aca54181ee8c4a3bc8e00246c3f7a5a14b69d826a78a604051610d6a9190613f9d565b60405180910390a350505050505b505050565b5f80610d87611b97565b6005015f8473ffffffffffffffffffffffffffffffffffffffff1673ffffffffffffffffffffffffffffffffffffffff1681526020019081526020015f206040518060600160405290815f8201548152602001600182015f9054906101000a90046fffffffffffffffffffffffffffffffff166fffffffffffffffffffffffffffffffff166fffffffffffffffffffffffffffffffff1681526020016001820160109054906101000a90046fffffffffffffffffffffffffffffffff166fffffffffffffffffffffffffffffffff166fffffffffffffffffffffffffffffffff168152505090504281602001516fffffffffffffffffffffffffffffffff1611158015610ea9575080604001516fffffffffffffffffffffffffffffffff1642105b8015610f0157505f610eff610ebc611b97565b6006015f8673ffffffffffffffffffffffffffffffffffffffff1673ffffffffffffffffffffffffffffffffffffffff1681526020019081526020015f20611ba5565b115b915050919050565b60605f610f1f610f17611b97565b600201612222565b90505f815190505f805b82811015610fcf57610f54848281518110610f4757610f46613a3a565b5b6020026020010151610d7d565b15610f6c578180610f6490613fbd565b925050610fbb565b5f848281518110610f8057610f7f613a3a565b5b602002602001019073ffffffffffffffffffffffffffffffffffffffff16908173ffffffffffffffffffffffffffffffffffffffff16815250505b600181610fc89190613c92565b9050610f29565b508067ffffffffffffffff811115610fea57610fe9614004565b5b60405190808252806020026020018201604052801561102357816020015b611010612f46565b8152602001906001900390816110085790505b5093505f805b83811015611286575f73ffffffffffffffffffffffffffffffffffffffff1685828151811061105b5761105a613a3a565b5b602002602001015173ffffffffffffffffffffffffffffffffffffffff1614611272575f85828151811061109257611091613a3a565b5b602002602001015190505f6110a5611b97565b6005015f8373ffffffffffffffffffffffffffffffffffffffff1673ffffffffffffffffffffffffffffffffffffffff1681526020019081526020015f206040518060600160405290815f8201548152602001600182015f9054906101000a90046fffffffffffffffffffffffffffffffff166fffffffffffffffffffffffffffffffff166fffffffffffffffffffffffffffffffff1681526020016001820160109054906101000a90046fffffffffffffffffffffffffffffffff166fffffffffffffffffffffffffffffffff166fffffffffffffffffffffffffffffffff168152505090506040518060a001604052808373ffffffffffffffffffffffffffffffffffffffff1681526020016112016111be611b97565b6006015f8673ffffffffffffffffffffffffffffffffffffffff1673ffffffffffffffffffffffffffffffffffffffff1681526020019081526020015f20612222565b8152602001825f0151815260200182602001516fffffffffffffffffffffffffffffffff16815260200182604001516fffffffffffffffffffffffffffffffff1681525088858061125190613fbd565b96508151811061126457611263613a3a565b5b602002602001018190525050505b60018161127f9190613c92565b9050611029565b505050505090565b5f806112a361129c86612355565b858561245a565b90506112ad611b97565b6007015f86610100013581526020019081526020015f205f9054906101000a900460ff161580156112e357506112e2816107b3565b5b9150935093915050565b60608282905067ffffffffffffffff81111561130c5761130b614004565b5b60405190808252806020026020018201604052801561133f57816020015b606081526020019060019003908161132a5790505b5090505f5b838390508110156113ea576113bf3085858481811061136657611365613a3a565b5b905060200281019061137891906139d8565b8080601f0160208091040260200160405190810160405280939291908181526020018383808284375f81840152601f19601f820116905080830192505050505050506124c9565b8282815181106113d2576113d1613a3a565b5b60200260200101819052508080600101915050611344565b5092915050565b5f806113fb6124f6565b5f015f9054906101000a900473ffffffffffffffffffffffffffffffffffffffff1690505f73ffffffffffffffffffffffffffffffffffffffff168173ffffffffffffffffffffffffffffffffffffffff161461145b5780915050611480565b7f00000000000000000000000000000000000000000000000000000000000000009150505b90565b61148b612524565b806114946124f6565b5f015f6101000a81548173ffffffffffffffffffffffffffffffffffffffff021916908373ffffffffffffffffffffffffffffffffffffffff16021790555050565b7f000000000000000000000000000000000000000000000000000000000000000081565b5f6115036113f1565b73ffffffffffffffffffffffffffffffffffffffff166335567e1a305f6040518363ffffffff1660e01b815260040161153d92919061408d565b602060405180830381865afa158015611558573d5f803e3d5ffd5b505050506040513d601f19601f8201168201806040525081019061157c91906140c8565b905090565b5f61158a61256e565b5f015f9054906101000a900460ff1690505f6115a461256e565b5f0160019054906101000a900460ff1690505f811590508080156115cb575060018360ff16105b806115eb57506115da3061257c565b1580156115ea575060018360ff16145b5b61162a576040517f08c379a000000000000000000000000000000000000000000000000000000000815260040161162190614163565b60405180910390fd5b600161163461256e565b5f015f6101000a81548160ff021916908360ff160217905550801561167757600161165d61256e565b5f0160016101000a81548160ff0219169083151502179055505b6116c48686868080601f0160208091040260200160405190810160405280939291908181526020018383808284375f81840152601f19601f8201169050808301925050505050505061259e565b6116cc6124f6565b600101819055506116de866001612075565b801561173f575f6116ed61256e565b5f0160016101000a81548160ff0219169083151502179055507f7f26b83ff96e1f2b6a682f133852f6798a09c465da95921460cefb3847402498600160405161173691906141ba565b60405180910390a15b505050505050565b60605f61175d611755611b97565b600201612222565b90505f815190508067ffffffffffffffff81111561177e5761177d614004565b5b6040519080825280602002602001820160405280156117b757816020015b6117a4612f46565b81526020019060019003908161179c5790505b5092505f5b818110156119bf575f8382815181106117d8576117d7613a3a565b5b602002602001015190505f6117eb611b97565b6005015f8373ffffffffffffffffffffffffffffffffffffffff1673ffffffffffffffffffffffffffffffffffffffff1681526020019081526020015f206040518060600160405290815f8201548152602001600182015f9054906101000a90046fffffffffffffffffffffffffffffffff166fffffffffffffffffffffffffffffffff166fffffffffffffffffffffffffffffffff1681526020016001820160109054906101000a90046fffffffffffffffffffffffffffffffff166fffffffffffffffffffffffffffffffff166fffffffffffffffffffffffffffffffff168152505090506040518060a001604052808373ffffffffffffffffffffffffffffffffffffffff168152602001611947611904611b97565b6006015f8673ffffffffffffffffffffffffffffffffffffffff1673ffffffffffffffffffffffffffffffffffffffff1681526020019081526020015f20612222565b8152602001825f0151815260200182602001516fffffffffffffffffffffffffffffffff16815260200182604001516fffffffffffffffffffffffffffffffff1681525086848151811061199e5761199d613a3a565b5b602002602001018190525050506001816119b89190613c92565b90506117bc565b50505090565b60606119d96119d2611b97565b5f01612222565b905090565b6119e6612f46565b5f6119ef611b97565b6005015f8473ffffffffffffffffffffffffffffffffffffffff1673ffffffffffffffffffffffffffffffffffffffff1681526020019081526020015f206040518060600160405290815f8201548152602001600182015f9054906101000a90046fffffffffffffffffffffffffffffffff166fffffffffffffffffffffffffffffffff166fffffffffffffffffffffffffffffffff1681526020016001820160109054906101000a90046fffffffffffffffffffffffffffffffff166fffffffffffffffffffffffffffffffff166fffffffffffffffffffffffffffffffff168152505090506040518060a001604052808473ffffffffffffffffffffffffffffffffffffffff168152602001611b4b611b08611b97565b6006015f8773ffffffffffffffffffffffffffffffffffffffff1673ffffffffffffffffffffffffffffffffffffffff1681526020019081526020015f20612222565b8152602001825f0151815260200182602001516fffffffffffffffffffffffffffffffff16815260200182604001516fffffffffffffffffffffffffffffffff16815250915050919050565b5f611ba06125d0565b905090565b5f611bb1825f016125fe565b9050919050565b5f6004838390501015611c00576040517f08c379a0000000000000000000000000000000000000000000000000000000008152600401611bf79061421d565b60405180910390fd5b82825f90600492611c1393929190614243565b90611c1e91906142be565b905092915050565b5f611c33835f018361260d565b5f1c905092915050565b5f806044848490501015611c86576040517f08c379a0000000000000000000000000000000000000000000000000000000008152600401611c7d9061421d565b60405180910390fd5b8383600490602492611c9a93929190614243565b810190611ca79190614357565b91508383602490604492611cbd93929190614243565b810190611cca9190614382565b90509250929050565b5f611cf8835f018373ffffffffffffffffffffffffffffffffffffffff165f1b612634565b905092915050565b60608060606064858590501015611d4c576040517f08c379a0000000000000000000000000000000000000000000000000000000008152600401611d439061421d565b60405180910390fd5b84846004908092611d5f93929190614243565b810190611d6c9190614706565b8093508194508295505050509250925092565b611d876113f1565b73ffffffffffffffffffffffffffffffffffffffff163373ffffffffffffffffffffffffffffffffffffffff1614611df4576040517f08c379a0000000000000000000000000000000000000000000000000000000008152600401611deb906147f4565b60405180910390fd5b565b5f80611e0183612654565b90505f611e6985806101400190611e1891906139d8565b8080601f0160208091040260200160405190810160405280939291908181526020018383808284375f81840152601f19601f820116905080830192505050505050508361268790919063ffffffff16565b9050611e75818661035b565b611e8457600192505050611fd5565b5f611e8d611b97565b6005015f8373ffffffffffffffffffffffffffffffffffffffff1673ffffffffffffffffffffffffffffffffffffffff1681526020019081526020015f206040518060600160405290815f8201548152602001600182015f9054906101000a90046fffffffffffffffffffffffffffffffff166fffffffffffffffffffffffffffffffff166fffffffffffffffffffffffffffffffff1681526020016001820160109054906101000a90046fffffffffffffffffffffffffffffffff166fffffffffffffffffffffffffffffffff166fffffffffffffffffffffffffffffffff168152505090505f816020015190505f82604001519050611fcd60405180606001604052805f73ffffffffffffffffffffffffffffffffffffffff1681526020018465ffffffffffff1681526020018365ffffffffffff168152506126ac565b955050505050505b92915050565b50565b5f8114612072575f3373ffffffffffffffffffffffffffffffffffffffff16827fffffffffffffffffffffffffffffffffffffffffffffffffffffffffffffffff9060405161202c9061483f565b5f60405180830381858888f193505050503d805f8114612067576040519150601f19603f3d011682016040523d82523d5f602084013e61206c565b606091505b50509050505b50565b61207f82826126f2565b5f7f000000000000000000000000000000000000000000000000000000000000000073ffffffffffffffffffffffffffffffffffffffff163b11156121f157801561215c577f000000000000000000000000000000000000000000000000000000000000000073ffffffffffffffffffffffffffffffffffffffff16630b61e12b836121096124f6565b600101546040518363ffffffff1660e01b815260040161212a929190614862565b5f604051808303815f87803b158015612141575f80fd5b505af1158015612153573d5f803e3d5ffd5b505050506121f0565b7f000000000000000000000000000000000000000000000000000000000000000073ffffffffffffffffffffffffffffffffffffffff16639387a380836121a16124f6565b600101546040518363ffffffff1660e01b81526004016121c2929190614862565b5f604051808303815f87803b1580156121d9575f80fd5b505af11580156121eb573d5f803e3d5ffd5b505050505b5b5050565b5f61221a835f018373ffffffffffffffffffffffffffffffffffffffff165f1b6127e7565b905092915050565b60605f612230835f0161284e565b905060608190508092505050919050565b5f612266835f018373ffffffffffffffffffffffffffffffffffffffff165f1b6128a7565b905092915050565b5f7f000000000000000000000000000000000000000000000000000000000000000073ffffffffffffffffffffffffffffffffffffffff163b1115612352577f000000000000000000000000000000000000000000000000000000000000000073ffffffffffffffffffffffffffffffffffffffff16630b61e12b825f0160208101906122fb91906130c6565b6123036124f6565b600101546040518363ffffffff1660e01b8152600401612324929190614862565b5f604051808303815f87803b15801561233b575f80fd5b505af115801561234d573d5f803e3d5ffd5b505050505b50565b60607f3fd4a1a1a267c84185e3b7eecd57c68783c0581d538b9d6e5f23e4670497c1e9825f01602081019061238a91906130c6565b83602001602081019061239d9190613bd2565b8480604001906123ad9190613cc5565b6040516020016123be929190614914565b6040516020818303038152906040528051906020012085606001358660800160208101906123ec9190613a91565b8760a00160208101906123ff9190613a91565b8860c00160208101906124129190613a91565b8960e00160208101906124259190613a91565b8a61010001356040516020016124449a9998979695949392919061494a565b6040516020818303038152906040529050919050565b5f6124c083838080601f0160208091040260200160405190810160405280939291908181526020018383808284375f81840152601f19601f820116905080830192505050505050506124b286805190602001206129a3565b61268790919063ffffffff16565b90509392505050565b60606124ee8383604051806060016040528060278152602001614e52602791396129bc565b905092915050565b5f807f036f52c1827dab135f7fd44ca0bddde297e2f659c710e0ec53e975f22b5483005f1b90508091505090565b61252d336107b3565b61256c576040517f08c379a000000000000000000000000000000000000000000000000000000000815260040161256390614a2e565b60405180910390fd5b565b5f612577612a97565b905090565b5f808273ffffffffffffffffffffffffffffffffffffffff163b119050919050565b5f82826040516020016125b2929190614a94565b60405160208183030381529060405280519060200120905092915050565b5f807f3181e78fc1b109bc611fd2406150bf06e33faa75f71cba12c3e1fd670f2def005f1b90508091505090565b5f815f01805490509050919050565b5f825f01828154811061262357612622613a3a565b5b905f5260205f200154905092915050565b5f80836001015f8481526020019081526020015f20541415905092915050565b5f7f19457468657265756d205369676e6564204d6573736167653a0a3332000000005f5281601c52603c5f209050919050565b5f805f6126948585612ac5565b915091506126a181612b11565b819250505092915050565b5f60d0826020015165ffffffffffff16901b60a0836040015165ffffffffffff16901b835f015173ffffffffffffffffffffffffffffffffffffffff1617179050919050565b806126fb611b97565b6004015f8473ffffffffffffffffffffffffffffffffffffffff1673ffffffffffffffffffffffffffffffffffffffff1681526020019081526020015f205f6101000a81548160ff02191690831515021790555080156127775761277182612761611b97565b5f016121f590919063ffffffff16565b50612795565b61279382612783611b97565b5f0161224190919063ffffffff16565b505b8173ffffffffffffffffffffffffffffffffffffffff167f235bc17e7930760029e9f4d860a2a8089976de5b381cf8380fc11c1d88a11133826040516127db91906130ad565b60405180910390a25050565b5f6127f28383612634565b61284457825f0182908060018154018082558091505060019003905f5260205f20015f9091909190915055825f0180549050836001015f8481526020019081526020015f208190555060019050612848565b5f90505b92915050565b6060815f0180548060200260200160405190810160405280929190818152602001828054801561289b57602002820191905f5260205f20905b815481526020019060010190808311612887575b50505050509050919050565b5f80836001015f8481526020019081526020015f205490505f8114612998575f6001826128d49190614ac2565b90505f6001865f01805490506128ea9190614ac2565b9050818114612950575f865f01828154811061290957612908613a3a565b5b905f5260205f200154905080875f01848154811061292a57612929613a3a565b5b905f5260205f20018190555083876001015f8381526020019081526020015f2081905550505b855f0180548061296357612962614af5565b5b600190038181905f5260205f20015f90559055856001015f8681526020019081526020015f205f90556001935050505061299d565b5f9150505b92915050565b5f6129b56129af612c76565b83612d8f565b9050919050565b60606129c78461257c565b80156129d957506129d73361257c565b155b612a18576040517f08c379a0000000000000000000000000000000000000000000000000000000008152600401612a0f90614b6c565b60405180910390fd5b5f808573ffffffffffffffffffffffffffffffffffffffff1685604051612a3f9190614bba565b5f60405180830381855af49150503d805f8114612a77576040519150601f19603f3d011682016040523d82523d5f602084013e612a7c565b606091505b5091509150612a8c828286612dcf565b925050509392505050565b5f807f322cf19c484104d3b1a9c2982ebae869ede3fa5f6c4703ca41b9a48c76ee03005f1b90508091505090565b5f806041835103612b02575f805f602086015192506040860151915060608601515f1a9050612af687828585612e35565b94509450505050612b0a565b5f6002915091505b9250929050565b5f6004811115612b2457612b23614bd0565b5b816004811115612b3757612b36614bd0565b5b0315612c735760016004811115612b5157612b50614bd0565b5b816004811115612b6457612b63614bd0565b5b03612ba4576040517f08c379a0000000000000000000000000000000000000000000000000000000008152600401612b9b90614c47565b60405180910390fd5b60026004811115612bb857612bb7614bd0565b5b816004811115612bcb57612bca614bd0565b5b03612c0b576040517f08c379a0000000000000000000000000000000000000000000000000000000008152600401612c0290614caf565b60405180910390fd5b60036004811115612c1f57612c1e614bd0565b5b816004811115612c3257612c31614bd0565b5b03612c72576040517f08c379a0000000000000000000000000000000000000000000000000000000008152600401612c6990614d3d565b60405180910390fd5b5b50565b5f7f000000000000000000000000000000000000000000000000000000000000000073ffffffffffffffffffffffffffffffffffffffff163073ffffffffffffffffffffffffffffffffffffffff16148015612cf157507f000000000000000000000000000000000000000000000000000000000000000046145b15612d1e577f00000000000000000000000000000000000000000000000000000000000000009050612d8c565b612d897f00000000000000000000000000000000000000000000000000000000000000007f00000000000000000000000000000000000000000000000000000000000000007f0000000000000000000000000000000000000000000000000000000000000000612f0d565b90505b90565b5f6040517f190100000000000000000000000000000000000000000000000000000000000081528360028201528260228201526042812091505092915050565b60608315612ddf57829050612e2e565b5f83511115612df15782518084602001fd5b816040517f08c379a0000000000000000000000000000000000000000000000000000000008152600401612e259190614d9d565b60405180910390fd5b9392505050565b5f807f7fffffffffffffffffffffffffffffff5d576e7357a4501ddfe92f46681b20a0835f1c1115612e6d575f600391509150612f04565b5f6001878787876040515f8152602001604052604051612e909493929190614dbd565b6020604051602081039080840390855afa158015612eb0573d5f803e3d5ffd5b5050506020604051035190505f73ffffffffffffffffffffffffffffffffffffffff168173ffffffffffffffffffffffffffffffffffffffff1603612efc575f60019250925050612f04565b805f92509250505b94509492505050565b5f8383834630604051602001612f27959493929190614e00565b6040516020818303038152906040528051906020012090509392505050565b6040518060a001604052805f73ffffffffffffffffffffffffffffffffffffffff168152602001606081526020015f81526020015f6fffffffffffffffffffffffffffffffff1681526020015f6fffffffffffffffffffffffffffffffff1681525090565b5f604051905090565b5f80fd5b5f80fd5b5f73ffffffffffffffffffffffffffffffffffffffff82169050919050565b5f612fe582612fbc565b9050919050565b612ff581612fdb565b8114612fff575f80fd5b50565b5f8135905061301081612fec565b92915050565b5f80fd5b5f61016082840312156130305761302f613016565b5b81905092915050565b5f806040838503121561304f5761304e612fb4565b5b5f61305c85828601613002565b925050602083013567ffffffffffffffff81111561307d5761307c612fb8565b5b6130898582860161301a565b9150509250929050565b5f8115159050919050565b6130a781613093565b82525050565b5f6020820190506130c05f83018461309e565b92915050565b5f602082840312156130db576130da612fb4565b5b5f6130e884828501613002565b91505092915050565b5f819050919050565b613103816130f1565b811461310d575f80fd5b50565b5f8135905061311e816130fa565b92915050565b5f819050919050565b61313681613124565b8114613140575f80fd5b50565b5f813590506131518161312d565b92915050565b5f805f6060848603121561316e5761316d612fb4565b5b5f84013567ffffffffffffffff81111561318b5761318a612fb8565b5b6131978682870161301a565b93505060206131a886828701613110565b92505060406131b986828701613143565b9150509250925092565b6131cc81613124565b82525050565b5f6020820190506131e55f8301846131c3565b92915050565b5f610120828403121561320157613200613016565b5b81905092915050565b5f80fd5b5f80fd5b5f80fd5b5f8083601f84011261322b5761322a61320a565b5b8235905067ffffffffffffffff8111156132485761324761320e565b5b60208301915083600182028301111561326457613263613212565b5b9250929050565b5f805f6040848603121561328257613281612fb4565b5b5f84013567ffffffffffffffff81111561329f5761329e612fb8565b5b6132ab868287016131eb565b935050602084013567ffffffffffffffff8111156132cc576132cb612fb8565b5b6132d886828701613216565b92509250509250925092565b5f81519050919050565b5f82825260208201905092915050565b5f819050602082019050919050565b61331681612fdb565b82525050565b5f81519050919050565b5f82825260208201905092915050565b5f819050602082019050919050565b5f613350838361330d565b60208301905092915050565b5f602082019050919050565b5f6133728261331c565b61337c8185613326565b935061338783613336565b805f5b838110156133b757815161339e8882613345565b97506133a98361335c565b92505060018101905061338a565b5085935050505092915050565b6133cd81613124565b82525050565b5f6fffffffffffffffffffffffffffffffff82169050919050565b6133f7816133d3565b82525050565b5f60a083015f8301516134125f86018261330d565b506020830151848203602086015261342a8282613368565b915050604083015161343f60408601826133c4565b50606083015161345260608601826133ee565b50608083015161346560808601826133ee565b508091505092915050565b5f61347b83836133fd565b905092915050565b5f602082019050919050565b5f613499826132e4565b6134a381856132ee565b9350836020820285016134b5856132fe565b805f5b858110156134f057848403895281516134d18582613470565b94506134dc83613483565b925060208a019950506001810190506134b8565b50829750879550505050505092915050565b5f6020820190508181035f83015261351a818461348f565b905092915050565b61352b81612fdb565b82525050565b5f6040820190506135445f83018561309e565b6135516020830184613522565b9392505050565b5f8083601f84011261356d5761356c61320a565b5b8235905067ffffffffffffffff81111561358a5761358961320e565b5b6020830191508360208202830111156135a6576135a5613212565b5b9250929050565b5f80602083850312156135c3576135c2612fb4565b5b5f83013567ffffffffffffffff8111156135e0576135df612fb8565b5b6135ec85828601613558565b92509250509250929050565b5f81519050919050565b5f82825260208201905092915050565b5f819050602082019050919050565b5f81519050919050565b5f82825260208201905092915050565b5f5b8381101561365857808201518184015260208101905061363d565b5f8484015250505050565b5f601f19601f8301169050919050565b5f61367d82613621565b613687818561362b565b935061369781856020860161363b565b6136a081613663565b840191505092915050565b5f6136b68383613673565b905092915050565b5f602082019050919050565b5f6136d4826135f8565b6136de8185613602565b9350836020820285016136f085613612565b805f5b8581101561372b578484038952815161370c85826136ab565b9450613717836136be565b925060208a019950506001810190506136f3565b50829750879550505050505092915050565b5f6020820190508181035f83015261375581846136ca565b905092915050565b5f819050919050565b5f61378061377b61377684612fbc565b61375d565b612fbc565b9050919050565b5f61379182613766565b9050919050565b5f6137a282613787565b9050919050565b6137b281613798565b82525050565b5f6020820190506137cb5f8301846137a9565b92915050565b5f6137db82612fdb565b9050919050565b6137eb816137d1565b81146137f5575f80fd5b50565b5f81359050613806816137e2565b92915050565b5f6020828403121561382157613820612fb4565b5b5f61382e848285016137f8565b91505092915050565b5f60208201905061384a5f830184613522565b92915050565b5f805f6040848603121561386757613866612fb4565b5b5f61387486828701613002565b935050602084013567ffffffffffffffff81111561389557613894612fb8565b5b6138a186828701613216565b92509250509250925092565b5f82825260208201905092915050565b5f6138c78261331c565b6138d181856138ad565b93506138dc83613336565b805f5b8381101561390c5781516138f38882613345565b97506138fe8361335c565b9250506001810190506138df565b5085935050505092915050565b5f6020820190508181035f83015261393181846138bd565b905092915050565b5f60a083015f83015161394e5f86018261330d565b50602083015184820360208601526139668282613368565b915050604083015161397b60408601826133c4565b50606083015161398e60608601826133ee565b5060808301516139a160808601826133ee565b508091505092915050565b5f6020820190508181035f8301526139c48184613939565b905092915050565b5f80fd5b5f80fd5b5f80fd5b5f80833560016020038436030381126139f4576139f36139cc565b5b80840192508235915067ffffffffffffffff821115613a1657613a156139d0565b5b602083019250600182023603831315613a3257613a316139d4565b5b509250929050565b7f4e487b71000000000000000000000000000000000000000000000000000000005f52603260045260245ffd5b613a70816133d3565b8114613a7a575f80fd5b50565b5f81359050613a8b81613a67565b92915050565b5f60208284031215613aa657613aa5612fb4565b5b5f613ab384828501613a7d565b91505092915050565b5f82825260208201905092915050565b7f21706572696f64000000000000000000000000000000000000000000000000005f82015250565b5f613b00600783613abc565b9150613b0b82613acc565b602082019050919050565b5f6020820190508181035f830152613b2d81613af4565b9050919050565b7f21736967000000000000000000000000000000000000000000000000000000005f82015250565b5f613b68600483613abc565b9150613b7382613b34565b602082019050919050565b5f6020820190508181035f830152613b9581613b5c565b9050919050565b5f60ff82169050919050565b613bb181613b9c565b8114613bbb575f80fd5b50565b5f81359050613bcc81613ba8565b92915050565b5f60208284031215613be757613be6612fb4565b5b5f613bf484828501613bbe565b91505092915050565b7f61646d696e0000000000000000000000000000000000000000000000000000005f82015250565b5f613c31600583613abc565b9150613c3c82613bfd565b602082019050919050565b5f6020820190508181035f830152613c5e81613c25565b9050919050565b7f4e487b71000000000000000000000000000000000000000000000000000000005f52601160045260245ffd5b5f613c9c82613124565b9150613ca783613124565b9250828201905080821115613cbf57613cbe613c65565b5b92915050565b5f8083356001602003843603038112613ce157613ce06139cc565b5b80840192508235915067ffffffffffffffff821115613d0357613d026139d0565b5b602083019250602082023603831315613d1f57613d1e6139d4565b5b509250929050565b5f613d356020840184613002565b905092915050565b5f613d4b6020840184613bbe565b905092915050565b613d5c81613b9c565b82525050565b5f80fd5b5f80fd5b5f80fd5b5f8083356001602003843603038112613d8a57613d89613d6a565b5b83810192508235915060208301925067ffffffffffffffff821115613db257613db1613d62565b5b602082023603831315613dc857613dc7613d66565b5b509250929050565b5f819050919050565b5f602082019050919050565b5f613df08385613326565b9350613dfb82613dd0565b805f5b85811015613e3357613e108284613d27565b613e1a8882613345565b9750613e2583613dd9565b925050600181019050613dfe565b5085925050509392505050565b5f613e4e6020840184613143565b905092915050565b5f613e646020840184613a7d565b905092915050565b5f613e7a6020840184613110565b905092915050565b613e8b816130f1565b82525050565b5f6101208301613ea35f840184613d27565b613eaf5f86018261330d565b50613ebd6020840184613d3d565b613eca6020860182613d53565b50613ed86040840184613d6e565b8583036040870152613eeb838284613de5565b92505050613efc6060840184613e40565b613f0960608601826133c4565b50613f176080840184613e56565b613f2460808601826133ee565b50613f3260a0840184613e56565b613f3f60a08601826133ee565b50613f4d60c0840184613e56565b613f5a60c08601826133ee565b50613f6860e0840184613e56565b613f7560e08601826133ee565b50613f84610100840184613e6c565b613f92610100860182613e82565b508091505092915050565b5f6020820190508181035f830152613fb58184613e91565b905092915050565b5f613fc782613124565b91507fffffffffffffffffffffffffffffffffffffffffffffffffffffffffffffffff8203613ff957613ff8613c65565b5b600182019050919050565b7f4e487b71000000000000000000000000000000000000000000000000000000005f52604160045260245ffd5b5f819050919050565b5f77ffffffffffffffffffffffffffffffffffffffffffffffff82169050919050565b5f61407761407261406d84614031565b61375d565b61403a565b9050919050565b6140878161405d565b82525050565b5f6040820190506140a05f830185613522565b6140ad602083018461407e565b9392505050565b5f815190506140c28161312d565b92915050565b5f602082840312156140dd576140dc612fb4565b5b5f6140ea848285016140b4565b91505092915050565b7f496e697469616c697a61626c653a20636f6e747261637420697320616c7265615f8201527f647920696e697469616c697a6564000000000000000000000000000000000000602082015250565b5f61414d602e83613abc565b9150614158826140f3565b604082019050919050565b5f6020820190508181035f83015261417a81614141565b9050919050565b5f819050919050565b5f6141a461419f61419a84614181565b61375d565b613b9c565b9050919050565b6141b48161418a565b82525050565b5f6020820190506141cd5f8301846141ab565b92915050565b7f21446174610000000000000000000000000000000000000000000000000000005f82015250565b5f614207600583613abc565b9150614212826141d3565b602082019050919050565b5f6020820190508181035f830152614234816141fb565b9050919050565b5f80fd5b5f80fd5b5f80858511156142565761425561423b565b5b838611156142675761426661423f565b5b6001850283019150848603905094509492505050565b5f82905092915050565b5f7fffffffff0000000000000000000000000000000000000000000000000000000082169050919050565b5f82821b905092915050565b5f6142c9838361427d565b826142d48135614287565b925060048210156143145761430f7fffffffff00000000000000000000000000000000000000000000000000000000836004036008026142b2565b831692505b505092915050565b5f61432682612fbc565b9050919050565b6143368161431c565b8114614340575f80fd5b50565b5f813590506143518161432d565b92915050565b5f6020828403121561436c5761436b612fb4565b5b5f61437984828501614343565b91505092915050565b5f6020828403121561439757614396612fb4565b5b5f6143a484828501613143565b91505092915050565b6143b682613663565b810181811067ffffffffffffffff821117156143d5576143d4614004565b5b80604052505050565b5f6143e7612fab565b90506143f382826143ad565b919050565b5f67ffffffffffffffff82111561441257614411614004565b5b602082029050602081019050919050565b5f614435614430846143f8565b6143de565b9050808382526020820190506020840283018581111561445857614457613212565b5b835b81811015614481578061446d8882613002565b84526020840193505060208101905061445a565b5050509392505050565b5f82601f83011261449f5761449e61320a565b5b81356144af848260208601614423565b91505092915050565b5f67ffffffffffffffff8211156144d2576144d1614004565b5b602082029050602081019050919050565b5f6144f56144f0846144b8565b6143de565b9050808382526020820190506020840283018581111561451857614517613212565b5b835b81811015614541578061452d8882613143565b84526020840193505060208101905061451a565b5050509392505050565b5f82601f83011261455f5761455e61320a565b5b813561456f8482602086016144e3565b91505092915050565b5f67ffffffffffffffff82111561459257614591614004565b5b602082029050602081019050919050565b5f80fd5b5f67ffffffffffffffff8211156145c1576145c0614004565b5b6145ca82613663565b9050602081019050919050565b828183375f83830152505050565b5f6145f76145f2846145a7565b6143de565b905082815260208101848484011115614613576146126145a3565b5b61461e8482856145d7565b509392505050565b5f82601f83011261463a5761463961320a565b5b813561464a8482602086016145e5565b91505092915050565b5f61466561466084614578565b6143de565b9050808382526020820190506020840283018581111561468857614687613212565b5b835b818110156146cf57803567ffffffffffffffff8111156146ad576146ac61320a565b5b8086016146ba8982614626565b8552602085019450505060208101905061468a565b5050509392505050565b5f82601f8301126146ed576146ec61320a565b5b81356146fd848260208601614653565b91505092915050565b5f805f6060848603121561471d5761471c612fb4565b5b5f84013567ffffffffffffffff81111561473a57614739612fb8565b5b6147468682870161448b565b935050602084013567ffffffffffffffff81111561476757614766612fb8565b5b6147738682870161454b565b925050604084013567ffffffffffffffff81111561479457614793612fb8565b5b6147a0868287016146d9565b9150509250925092565b7f6163636f756e743a206e6f742066726f6d20456e747279506f696e74000000005f82015250565b5f6147de601c83613abc565b91506147e9826147aa565b602082019050919050565b5f6020820190508181035f83015261480b816147d2565b9050919050565b5f81905092915050565b50565b5f61482a5f83614812565b91506148358261481c565b5f82019050919050565b5f6148498261481f565b9150819050919050565b61485c816130f1565b82525050565b5f6040820190506148755f830185613522565b6148826020830184614853565b9392505050565b5f81905092915050565b61489c81612fdb565b82525050565b5f6148ad8383614893565b60208301905092915050565b5f6148c48385614889565b93506148cf82613dd0565b805f5b85811015614907576148e48284613d27565b6148ee88826148a2565b97506148f983613dd9565b9250506001810190506148d2565b5085925050509392505050565b5f6149208284866148b9565b91508190509392505050565b61493581613b9c565b82525050565b614944816133d3565b82525050565b5f6101408201905061495e5f83018d614853565b61496b602083018c613522565b614978604083018b61492c565b614985606083018a614853565b61499260808301896131c3565b61499f60a083018861493b565b6149ac60c083018761493b565b6149b960e083018661493b565b6149c761010083018561493b565b6149d5610120830184614853565b9b9a5050505050505050505050565b7f2161646d696e00000000000000000000000000000000000000000000000000005f82015250565b5f614a18600683613abc565b9150614a23826149e4565b602082019050919050565b5f6020820190508181035f830152614a4581614a0c565b9050919050565b5f82825260208201905092915050565b5f614a6682613621565b614a708185614a4c565b9350614a8081856020860161363b565b614a8981613663565b840191505092915050565b5f604082019050614aa75f830185613522565b8181036020830152614ab98184614a5c565b90509392505050565b5f614acc82613124565b9150614ad783613124565b9250828203905081811115614aef57614aee613c65565b5b92915050565b7f4e487b71000000000000000000000000000000000000000000000000000000005f52603160045260245ffd5b7f416464726573733a20696e76616c69642064656c65676174652063616c6c00005f82015250565b5f614b56601e83613abc565b9150614b6182614b22565b602082019050919050565b5f6020820190508181035f830152614b8381614b4a565b9050919050565b5f614b9482613621565b614b9e8185614812565b9350614bae81856020860161363b565b80840191505092915050565b5f614bc58284614b8a565b915081905092915050565b7f4e487b71000000000000000000000000000000000000000000000000000000005f52602160045260245ffd5b7f45434453413a20696e76616c6964207369676e617475726500000000000000005f82015250565b5f614c31601883613abc565b9150614c3c82614bfd565b602082019050919050565b5f6020820190508181035f830152614c5e81614c25565b9050919050565b7f45434453413a20696e76616c6964207369676e6174757265206c656e677468005f82015250565b5f614c99601f83613abc565b9150614ca482614c65565b602082019050919050565b5f6020820190508181035f830152614cc681614c8d565b9050919050565b7f45434453413a20696e76616c6964207369676e6174757265202773272076616c5f8201527f7565000000000000000000000000000000000000000000000000000000000000602082015250565b5f614d27602283613abc565b9150614d3282614ccd565b604082019050919050565b5f6020820190508181035f830152614d5481614d1b565b9050919050565b5f81519050919050565b5f614d6f82614d5b565b614d798185613abc565b9350614d8981856020860161363b565b614d9281613663565b840191505092915050565b5f6020820190508181035f830152614db58184614d65565b905092915050565b5f608082019050614dd05f830187614853565b614ddd602083018661492c565b614dea6040830185614853565b614df76060830184614853565b95945050505050565b5f60a082019050614e135f830188614853565b614e206020830187614853565b614e2d6040830186614853565b614e3a60608301856131c3565b614e476080830184613522565b969550505050505056fe416464726573733a206c6f772d6c6576656c2064656c65676174652063616c6c206661696c6564a264697066735822122071be04b3a8c4361dc179d76a2f6368a52dc38bf524779f7e29746017bb6736f164736f6c63430008180033",
			"opcodes": "PUSH2 0x180 PUSH1 0x40 MSTORE CALLVALUE DUP1 ISZERO PUSH3 0x11 JUMPI PUSH0 DUP1 REVERT JUMPDEST POP PUSH1 0x40 MLOAD PUSH3 0x54EA CODESIZE SUB DUP1 PUSH3 0x54EA DUP4 CODECOPY DUP2 DUP2 ADD PUSH1 0x40 MSTORE DUP2 ADD SWAP1 PUSH3 0x37 SWAP2 SWAP1 PUSH3 0x3FC JUMP JUMPDEST PUSH1 0x40 MLOAD DUP1 PUSH1 0x40 ADD PUSH1 0x40 MSTORE DUP1 PUSH1 0x7 DUP2 MSTORE PUSH1 0x20 ADD PUSH32 0x4163636F756E7400000000000000000000000000000000000000000000000000 DUP2 MSTORE POP PUSH1 0x40 MLOAD DUP1 PUSH1 0x40 ADD PUSH1 0x40 MSTORE DUP1 PUSH1 0x1 DUP2 MSTORE PUSH1 0x20 ADD PUSH32 0x3100000000000000000000000000000000000000000000000000000000000000 DUP2 MSTORE POP PUSH0 DUP3 DUP1 MLOAD SWAP1 PUSH1 0x20 ADD KECCAK256 SWAP1 POP PUSH0 DUP3 DUP1 MLOAD SWAP1 PUSH1 0x20 ADD KECCAK256 SWAP1 POP PUSH0 PUSH32 0x8B73C3C69BB8FE3D512ECC4CF759CC79239F7B179B0FFACAA9A75D522B39400F SWAP1 POP DUP3 PUSH1 0xE0 DUP2 DUP2 MSTORE POP POP DUP2 PUSH2 0x100 DUP2 DUP2 MSTORE POP POP CHAINID PUSH1 0xA0 DUP2 DUP2 MSTORE POP POP PUSH3 0x109 DUP2 DUP5 DUP5 PUSH3 0x1D4 PUSH1 0x20 SHL PUSH1 0x20 SHR JUMP JUMPDEST PUSH1 0x80 DUP2 DUP2 MSTORE POP POP ADDRESS PUSH20 0xFFFFFFFFFFFFFFFFFFFFFFFFFFFFFFFFFFFFFFFF AND PUSH1 0xC0 DUP2 PUSH20 0xFFFFFFFFFFFFFFFFFFFFFFFFFFFFFFFFFFFFFFFF AND DUP2 MSTORE POP POP DUP1 PUSH2 0x120 DUP2 DUP2 MSTORE POP POP POP POP POP POP POP PUSH3 0x162 PUSH3 0x20F PUSH1 0x20 SHL PUSH1 0x20 SHR JUMP JUMPDEST DUP1 PUSH20 0xFFFFFFFFFFFFFFFFFFFFFFFFFFFFFFFFFFFFFFFF AND PUSH2 0x140 DUP2 PUSH20 0xFFFFFFFFFFFFFFFFFFFFFFFFFFFFFFFFFFFFFFFF AND DUP2 MSTORE POP POP DUP2 PUSH20 0xFFFFFFFFFFFFFFFFFFFFFFFFFFFFFFFFFFFFFFFF AND PUSH2 0x160 DUP2 PUSH20 0xFFFFFFFFFFFFFFFFFFFFFFFFFFFFFFFFFFFFFFFF AND DUP2 MSTORE POP POP POP POP PUSH3 0x5BD JUMP JUMPDEST PUSH0 DUP4 DUP4 DUP4 CHAINID ADDRESS PUSH1 0x40 MLOAD PUSH1 0x20 ADD PUSH3 0x1F0 SWAP6 SWAP5 SWAP4 SWAP3 SWAP2 SWAP1 PUSH3 0x486 JUMP JUMPDEST PUSH1 0x40 MLOAD PUSH1 0x20 DUP2 DUP4 SUB SUB DUP2 MSTORE SWAP1 PUSH1 0x40 MSTORE DUP1 MLOAD SWAP1 PUSH1 0x20 ADD KECCAK256 SWAP1 POP SWAP4 SWAP3 POP POP POP JUMP JUMPDEST PUSH0 PUSH3 0x220 PUSH3 0x311 PUSH1 0x20 SHL PUSH1 0x20 SHR JUMP JUMPDEST PUSH0 ADD PUSH0 SWAP1 SLOAD SWAP1 PUSH2 0x100 EXP SWAP1 DIV PUSH1 0xFF AND SWAP1 POP PUSH0 PUSH3 0x242 PUSH3 0x311 PUSH1 0x20 SHL PUSH1 0x20 SHR JUMP JUMPDEST PUSH0 ADD PUSH1 0x1 SWAP1 SLOAD SWAP1 PUSH2 0x100 EXP SWAP1 DIV PUSH1 0xFF AND SWAP1 POP DUP1 ISZERO PUSH3 0x298 JUMPI PUSH1 0x40 MLOAD PUSH32 0x8C379A000000000000000000000000000000000000000000000000000000000 DUP2 MSTORE PUSH1 0x4 ADD PUSH3 0x28F SWAP1 PUSH3 0x565 JUMP JUMPDEST PUSH1 0x40 MLOAD DUP1 SWAP2 SUB SWAP1 REVERT JUMPDEST PUSH1 0xFF DUP1 AND DUP3 PUSH1 0xFF AND LT ISZERO PUSH3 0x30D JUMPI PUSH1 0xFF PUSH3 0x2B9 PUSH3 0x311 PUSH1 0x20 SHL PUSH1 0x20 SHR JUMP JUMPDEST PUSH0 ADD PUSH0 PUSH2 0x100 EXP DUP2 SLOAD DUP2 PUSH1 0xFF MUL NOT AND SWAP1 DUP4 PUSH1 0xFF AND MUL OR SWAP1 SSTORE POP PUSH32 0x7F26B83FF96E1F2B6A682F133852F6798A09C465DA95921460CEFB3847402498 PUSH1 0xFF PUSH1 0x40 MLOAD PUSH3 0x304 SWAP2 SWAP1 PUSH3 0x5A2 JUMP JUMPDEST PUSH1 0x40 MLOAD DUP1 SWAP2 SUB SWAP1 LOG1 JUMPDEST POP POP JUMP JUMPDEST PUSH0 PUSH3 0x322 PUSH3 0x327 PUSH1 0x20 SHL PUSH1 0x20 SHR JUMP JUMPDEST SWAP1 POP SWAP1 JUMP JUMPDEST PUSH0 DUP1 PUSH32 0x322CF19C484104D3B1A9C2982EBAE869EDE3FA5F6C4703CA41B9A48C76EE0300 PUSH0 SHL SWAP1 POP DUP1 SWAP2 POP POP SWAP1 JUMP JUMPDEST PUSH0 DUP1 REVERT JUMPDEST PUSH0 PUSH20 0xFFFFFFFFFFFFFFFFFFFFFFFFFFFFFFFFFFFFFFFF DUP3 AND SWAP1 POP SWAP2 SWAP1 POP JUMP JUMPDEST PUSH0 PUSH3 0x384 DUP3 PUSH3 0x359 JUMP JUMPDEST SWAP1 POP SWAP2 SWAP1 POP JUMP JUMPDEST PUSH0 PUSH3 0x397 DUP3 PUSH3 0x378 JUMP JUMPDEST SWAP1 POP SWAP2 SWAP1 POP JUMP JUMPDEST PUSH3 0x3A9 DUP2 PUSH3 0x38B JUMP JUMPDEST DUP2 EQ PUSH3 0x3B4 JUMPI PUSH0 DUP1 REVERT JUMPDEST POP JUMP JUMPDEST PUSH0 DUP2 MLOAD SWAP1 POP PUSH3 0x3C7 DUP2 PUSH3 0x39E JUMP JUMPDEST SWAP3 SWAP2 POP POP JUMP JUMPDEST PUSH3 0x3D8 DUP2 PUSH3 0x378 JUMP JUMPDEST DUP2 EQ PUSH3 0x3E3 JUMPI PUSH0 DUP1 REVERT JUMPDEST POP JUMP JUMPDEST PUSH0 DUP2 MLOAD SWAP1 POP PUSH3 0x3F6 DUP2 PUSH3 0x3CD JUMP JUMPDEST SWAP3 SWAP2 POP POP JUMP JUMPDEST PUSH0 DUP1 PUSH1 0x40 DUP4 DUP6 SUB SLT ISZERO PUSH3 0x415 JUMPI PUSH3 0x414 PUSH3 0x355 JUMP JUMPDEST JUMPDEST PUSH0 PUSH3 0x424 DUP6 DUP3 DUP7 ADD PUSH3 0x3B7 JUMP JUMPDEST SWAP3 POP POP PUSH1 0x20 PUSH3 0x437 DUP6 DUP3 DUP7 ADD PUSH3 0x3E6 JUMP JUMPDEST SWAP2 POP POP SWAP3 POP SWAP3 SWAP1 POP JUMP JUMPDEST PUSH0 DUP2 SWAP1 POP SWAP2 SWAP1 POP JUMP JUMPDEST PUSH3 0x455 DUP2 PUSH3 0x441 JUMP JUMPDEST DUP3 MSTORE POP POP JUMP JUMPDEST PUSH0 DUP2 SWAP1 POP SWAP2 SWAP1 POP JUMP JUMPDEST PUSH3 0x46F DUP2 PUSH3 0x45B JUMP JUMPDEST DUP3 MSTORE POP POP JUMP JUMPDEST PUSH3 0x480 DUP2 PUSH3 0x378 JUMP JUMPDEST DUP3 MSTORE POP POP JUMP JUMPDEST PUSH0 PUSH1 0xA0 DUP3 ADD SWAP1 POP PUSH3 0x49B PUSH0 DUP4 ADD DUP9 PUSH3 0x44A JUMP JUMPDEST PUSH3 0x4AA PUSH1 0x20 DUP4 ADD DUP8 PUSH3 0x44A JUMP JUMPDEST PUSH3 0x4B9 PUSH1 0x40 DUP4 ADD DUP7 PUSH3 0x44A JUMP JUMPDEST PUSH3 0x4C8 PUSH1 0x60 DUP4 ADD DUP6 PUSH3 0x464 JUMP JUMPDEST PUSH3 0x4D7 PUSH1 0x80 DUP4 ADD DUP5 PUSH3 0x475 JUMP JUMPDEST SWAP7 SWAP6 POP POP POP POP POP POP JUMP JUMPDEST PUSH0 DUP3 DUP3 MSTORE PUSH1 0x20 DUP3 ADD SWAP1 POP SWAP3 SWAP2 POP POP JUMP JUMPDEST PUSH32 0x496E697469616C697A61626C653A20636F6E747261637420697320696E697469 PUSH0 DUP3 ADD MSTORE PUSH32 0x616C697A696E6700000000000000000000000000000000000000000000000000 PUSH1 0x20 DUP3 ADD MSTORE POP JUMP JUMPDEST PUSH0 PUSH3 0x54D PUSH1 0x27 DUP4 PUSH3 0x4E1 JUMP JUMPDEST SWAP2 POP PUSH3 0x55A DUP3 PUSH3 0x4F1 JUMP JUMPDEST PUSH1 0x40 DUP3 ADD SWAP1 POP SWAP2 SWAP1 POP JUMP JUMPDEST PUSH0 PUSH1 0x20 DUP3 ADD SWAP1 POP DUP2 DUP2 SUB PUSH0 DUP4 ADD MSTORE PUSH3 0x57E DUP2 PUSH3 0x53F JUMP JUMPDEST SWAP1 POP SWAP2 SWAP1 POP JUMP JUMPDEST PUSH0 PUSH1 0xFF DUP3 AND SWAP1 POP SWAP2 SWAP1 POP JUMP JUMPDEST PUSH3 0x59C DUP2 PUSH3 0x585 JUMP JUMPDEST DUP3 MSTORE POP POP JUMP JUMPDEST PUSH0 PUSH1 0x20 DUP3 ADD SWAP1 POP PUSH3 0x5B7 PUSH0 DUP4 ADD DUP5 PUSH3 0x591 JUMP JUMPDEST SWAP3 SWAP2 POP POP JUMP JUMPDEST PUSH1 0x80 MLOAD PUSH1 0xA0 MLOAD PUSH1 0xC0 MLOAD PUSH1 0xE0 MLOAD PUSH2 0x100 MLOAD PUSH2 0x120 MLOAD PUSH2 0x140 MLOAD PUSH2 0x160 MLOAD PUSH2 0x4EAE PUSH3 0x63C PUSH0 CODECOPY PUSH0 PUSH2 0x145D ADD MSTORE PUSH0 DUP2 DUP2 PUSH2 0x14D8 ADD MSTORE DUP2 DUP2 PUSH2 0x2082 ADD MSTORE DUP2 DUP2 PUSH2 0x20C6 ADD MSTORE DUP2 DUP2 PUSH2 0x215E ADD MSTORE DUP2 DUP2 PUSH2 0x2271 ADD MSTORE PUSH2 0x22AF ADD MSTORE PUSH0 PUSH2 0x2D23 ADD MSTORE PUSH0 PUSH2 0x2D65 ADD MSTORE PUSH0 PUSH2 0x2D44 ADD MSTORE PUSH0 PUSH2 0x2C79 ADD MSTORE PUSH0 PUSH2 0x2CCF ADD MSTORE PUSH0 PUSH2 0x2CF8 ADD MSTORE PUSH2 0x4EAE PUSH0 RETURN INVALID PUSH1 0x80 PUSH1 0x40 MSTORE CALLVALUE DUP1 ISZERO PUSH2 0xF JUMPI PUSH0 DUP1 REVERT JUMPDEST POP PUSH1 0x4 CALLDATASIZE LT PUSH2 0xFE JUMPI PUSH0 CALLDATALOAD PUSH1 0xE0 SHR DUP1 PUSH4 0xB0D691FE GT PUSH2 0x95 JUMPI DUP1 PUSH4 0xD1F57894 GT PUSH2 0x64 JUMPI DUP1 PUSH4 0xD1F57894 EQ PUSH2 0x2D3 JUMPI DUP1 PUSH4 0xD42F2F35 EQ PUSH2 0x2EF JUMPI DUP1 PUSH4 0xE9523C97 EQ PUSH2 0x30D JUMPI DUP1 PUSH4 0xF15D424E EQ PUSH2 0x32B JUMPI PUSH2 0xFE JUMP JUMPDEST DUP1 PUSH4 0xB0D691FE EQ PUSH2 0x25D JUMPI DUP1 PUSH4 0xB76464D5 EQ PUSH2 0x27B JUMPI DUP1 PUSH4 0xC45A0155 EQ PUSH2 0x297 JUMPI DUP1 PUSH4 0xD087D288 EQ PUSH2 0x2B5 JUMPI PUSH2 0xFE JUMP JUMPDEST DUP1 PUSH4 0x7DFF5A79 GT PUSH2 0xD1 JUMPI DUP1 PUSH4 0x7DFF5A79 EQ PUSH2 0x1AE JUMPI DUP1 PUSH4 0x8B52D723 EQ PUSH2 0x1DE JUMPI DUP1 PUSH4 0xA9082D84 EQ PUSH2 0x1FC JUMPI DUP1 PUSH4 0xAC9650D8 EQ PUSH2 0x22D JUMPI PUSH2 0xFE JUMP JUMPDEST DUP1 PUSH4 0x1DD756C5 EQ PUSH2 0x102 JUMPI DUP1 PUSH4 0x24D7806C EQ PUSH2 0x132 JUMPI DUP1 PUSH4 0x3A871CDD EQ PUSH2 0x162 JUMPI DUP1 PUSH4 0x5892E236 EQ PUSH2 0x192 JUMPI JUMPDEST PUSH0 DUP1 REVERT JUMPDEST PUSH2 0x11C PUSH1 0x4 DUP1 CALLDATASIZE SUB DUP2 ADD SWAP1 PUSH2 0x117 SWAP2 SWAP1 PUSH2 0x3039 JUMP JUMPDEST PUSH2 0x35B JUMP JUMPDEST PUSH1 0x40 MLOAD PUSH2 0x129 SWAP2 SWAP1 PUSH2 0x30AD JUMP JUMPDEST PUSH1 0x40 MLOAD DUP1 SWAP2 SUB SWAP1 RETURN JUMPDEST PUSH2 0x14C PUSH1 0x4 DUP1 CALLDATASIZE SUB DUP2 ADD SWAP1 PUSH2 0x147 SWAP2 SWAP1 PUSH2 0x30C6 JUMP JUMPDEST PUSH2 0x7B3 JUMP JUMPDEST PUSH1 0x40 MLOAD PUSH2 0x159 SWAP2 SWAP1 PUSH2 0x30AD JUMP JUMPDEST PUSH1 0x40 MLOAD DUP1 SWAP2 SUB SWAP1 RETURN JUMPDEST PUSH2 0x17C PUSH1 0x4 DUP1 CALLDATASIZE SUB DUP2 ADD SWAP1 PUSH2 0x177 SWAP2 SWAP1 PUSH2 0x3157 JUMP JUMPDEST PUSH2 0x80E JUMP JUMPDEST PUSH1 0x40 MLOAD PUSH2 0x189 SWAP2 SWAP1 PUSH2 0x31D2 JUMP JUMPDEST PUSH1 0x40 MLOAD DUP1 SWAP2 SUB SWAP1 RETURN JUMPDEST PUSH2 0x1AC PUSH1 0x4 DUP1 CALLDATASIZE SUB DUP2 ADD SWAP1 PUSH2 0x1A7 SWAP2 SWAP1 PUSH2 0x326B JUMP JUMPDEST PUSH2 0x840 JUMP JUMPDEST STOP JUMPDEST PUSH2 0x1C8 PUSH1 0x4 DUP1 CALLDATASIZE SUB DUP2 ADD SWAP1 PUSH2 0x1C3 SWAP2 SWAP1 PUSH2 0x30C6 JUMP JUMPDEST PUSH2 0xD7D JUMP JUMPDEST PUSH1 0x40 MLOAD PUSH2 0x1D5 SWAP2 SWAP1 PUSH2 0x30AD JUMP JUMPDEST PUSH1 0x40 MLOAD DUP1 SWAP2 SUB SWAP1 RETURN JUMPDEST PUSH2 0x1E6 PUSH2 0xF09 JUMP JUMPDEST PUSH1 0x40 MLOAD PUSH2 0x1F3 SWAP2 SWAP1 PUSH2 0x3502 JUMP JUMPDEST PUSH1 0x40 MLOAD DUP1 SWAP2 SUB SWAP1 RETURN JUMPDEST PUSH2 0x216 PUSH1 0x4 DUP1 CALLDATASIZE SUB DUP2 ADD SWAP1 PUSH2 0x211 SWAP2 SWAP1 PUSH2 0x326B JUMP JUMPDEST PUSH2 0x128E JUMP JUMPDEST PUSH1 0x40 MLOAD PUSH2 0x224 SWAP3 SWAP2 SWAP1 PUSH2 0x3531 JUMP JUMPDEST PUSH1 0x40 MLOAD DUP1 SWAP2 SUB SWAP1 RETURN JUMPDEST PUSH2 0x247 PUSH1 0x4 DUP1 CALLDATASIZE SUB DUP2 ADD SWAP1 PUSH2 0x242 SWAP2 SWAP1 PUSH2 0x35AD JUMP JUMPDEST PUSH2 0x12ED JUMP JUMPDEST PUSH1 0x40 MLOAD PUSH2 0x254 SWAP2 SWAP1 PUSH2 0x373D JUMP JUMPDEST PUSH1 0x40 MLOAD DUP1 SWAP2 SUB SWAP1 RETURN JUMPDEST PUSH2 0x265 PUSH2 0x13F1 JUMP JUMPDEST PUSH1 0x40 MLOAD PUSH2 0x272 SWAP2 SWAP1 PUSH2 0x37B8 JUMP JUMPDEST PUSH1 0x40 MLOAD DUP1 SWAP2 SUB SWAP1 RETURN JUMPDEST PUSH2 0x295 PUSH1 0x4 DUP1 CALLDATASIZE SUB DUP2 ADD SWAP1 PUSH2 0x290 SWAP2 SWAP1 PUSH2 0x380C JUMP JUMPDEST PUSH2 0x1483 JUMP JUMPDEST STOP JUMPDEST PUSH2 0x29F PUSH2 0x14D6 JUMP JUMPDEST PUSH1 0x40 MLOAD PUSH2 0x2AC SWAP2 SWAP1 PUSH2 0x3837 JUMP JUMPDEST PUSH1 0x40 MLOAD DUP1 SWAP2 SUB SWAP1 RETURN JUMPDEST PUSH2 0x2BD PUSH2 0x14FA JUMP JUMPDEST PUSH1 0x40 MLOAD PUSH2 0x2CA SWAP2 SWAP1 PUSH2 0x31D2 JUMP JUMPDEST PUSH1 0x40 MLOAD DUP1 SWAP2 SUB SWAP1 RETURN JUMPDEST PUSH2 0x2ED PUSH1 0x4 DUP1 CALLDATASIZE SUB DUP2 ADD SWAP1 PUSH2 0x2E8 SWAP2 SWAP1 PUSH2 0x3850 JUMP JUMPDEST PUSH2 0x1581 JUMP JUMPDEST STOP JUMPDEST PUSH2 0x2F7 PUSH2 0x1747 JUMP JUMPDEST PUSH1 0x40 MLOAD PUSH2 0x304 SWAP2 SWAP1 PUSH2 0x3502 JUMP JUMPDEST PUSH1 0x40 MLOAD DUP1 SWAP2 SUB SWAP1 RETURN JUMPDEST PUSH2 0x315 PUSH2 0x19C5 JUMP JUMPDEST PUSH1 0x40 MLOAD PUSH2 0x322 SWAP2 SWAP1 PUSH2 0x3919 JUMP JUMPDEST PUSH1 0x40 MLOAD DUP1 SWAP2 SUB SWAP1 RETURN JUMPDEST PUSH2 0x345 PUSH1 0x4 DUP1 CALLDATASIZE SUB DUP2 ADD SWAP1 PUSH2 0x340 SWAP2 SWAP1 PUSH2 0x30C6 JUMP JUMPDEST PUSH2 0x19DE JUMP JUMPDEST PUSH1 0x40 MLOAD PUSH2 0x352 SWAP2 SWAP1 PUSH2 0x39AC JUMP JUMPDEST PUSH1 0x40 MLOAD DUP1 SWAP2 SUB SWAP1 RETURN JUMPDEST PUSH0 PUSH2 0x364 PUSH2 0x1B97 JUMP JUMPDEST PUSH1 0x4 ADD PUSH0 DUP5 PUSH20 0xFFFFFFFFFFFFFFFFFFFFFFFFFFFFFFFFFFFFFFFF AND PUSH20 0xFFFFFFFFFFFFFFFFFFFFFFFFFFFFFFFFFFFFFFFF AND DUP2 MSTORE PUSH1 0x20 ADD SWAP1 DUP2 MSTORE PUSH1 0x20 ADD PUSH0 KECCAK256 PUSH0 SWAP1 SLOAD SWAP1 PUSH2 0x100 EXP SWAP1 DIV PUSH1 0xFF AND ISZERO PUSH2 0x3BD JUMPI PUSH1 0x1 SWAP1 POP PUSH2 0x7AD JUMP JUMPDEST PUSH0 PUSH2 0x3C6 PUSH2 0x1B97 JUMP JUMPDEST PUSH1 0x5 ADD PUSH0 DUP6 PUSH20 0xFFFFFFFFFFFFFFFFFFFFFFFFFFFFFFFFFFFFFFFF AND PUSH20 0xFFFFFFFFFFFFFFFFFFFFFFFFFFFFFFFFFFFFFFFF AND DUP2 MSTORE PUSH1 0x20 ADD SWAP1 DUP2 MSTORE PUSH1 0x20 ADD PUSH0 KECCAK256 PUSH1 0x40 MLOAD DUP1 PUSH1 0x60 ADD PUSH1 0x40 MSTORE SWAP1 DUP2 PUSH0 DUP3 ADD SLOAD DUP2 MSTORE PUSH1 0x20 ADD PUSH1 0x1 DUP3 ADD PUSH0 SWAP1 SLOAD SWAP1 PUSH2 0x100 EXP SWAP1 DIV PUSH16 0xFFFFFFFFFFFFFFFFFFFFFFFFFFFFFFFF AND PUSH16 0xFFFFFFFFFFFFFFFFFFFFFFFFFFFFFFFF AND PUSH16 0xFFFFFFFFFFFFFFFFFFFFFFFFFFFFFFFF AND DUP2 MSTORE PUSH1 0x20 ADD PUSH1 0x1 DUP3 ADD PUSH1 0x10 SWAP1 SLOAD SWAP1 PUSH2 0x100 EXP SWAP1 DIV PUSH16 0xFFFFFFFFFFFFFFFFFFFFFFFFFFFFFFFF AND PUSH16 0xFFFFFFFFFFFFFFFFFFFFFFFFFFFFFFFF AND PUSH16 0xFFFFFFFFFFFFFFFFFFFFFFFFFFFFFFFF AND DUP2 MSTORE POP POP SWAP1 POP PUSH0 PUSH2 0x4B6 PUSH2 0x1B97 JUMP JUMPDEST PUSH1 0x6 ADD PUSH0 DUP7 PUSH20 0xFFFFFFFFFFFFFFFFFFFFFFFFFFFFFFFFFFFFFFFF AND PUSH20 0xFFFFFFFFFFFFFFFFFFFFFFFFFFFFFFFFFFFFFFFF AND DUP2 MSTORE PUSH1 0x20 ADD SWAP1 DUP2 MSTORE PUSH1 0x20 ADD PUSH0 KECCAK256 SWAP1 POP TIMESTAMP DUP3 PUSH1 0x20 ADD MLOAD PUSH16 0xFFFFFFFFFFFFFFFFFFFFFFFFFFFFFFFF AND GT DUP1 PUSH2 0x530 JUMPI POP DUP2 PUSH1 0x40 ADD MLOAD PUSH16 0xFFFFFFFFFFFFFFFFFFFFFFFFFFFFFFFF AND TIMESTAMP LT ISZERO JUMPDEST DUP1 PUSH2 0x542 JUMPI POP PUSH0 PUSH2 0x540 DUP3 PUSH2 0x1BA5 JUMP JUMPDEST EQ JUMPDEST ISZERO PUSH2 0x551 JUMPI PUSH0 SWAP3 POP POP POP PUSH2 0x7AD JUMP JUMPDEST PUSH0 PUSH2 0x56A DUP6 DUP1 PUSH1 0x60 ADD SWAP1 PUSH2 0x565 SWAP2 SWAP1 PUSH2 0x39D8 JUMP JUMPDEST PUSH2 0x1BB8 JUMP JUMPDEST SWAP1 POP PUSH0 PUSH1 0x1 PUSH2 0x578 DUP5 PUSH2 0x1BA5 JUMP JUMPDEST EQ DUP1 ISZERO PUSH2 0x5C2 JUMPI POP PUSH0 PUSH20 0xFFFFFFFFFFFFFFFFFFFFFFFFFFFFFFFFFFFFFFFF AND PUSH2 0x5AA PUSH0 DUP6 PUSH2 0x1C26 SWAP1 SWAP2 SWAP1 PUSH4 0xFFFFFFFF AND JUMP JUMPDEST PUSH20 0xFFFFFFFFFFFFFFFFFFFFFFFFFFFFFFFFFFFFFFFF AND EQ JUMPDEST SWAP1 POP PUSH4 0xB61D27F6 PUSH1 0xE0 SHL PUSH28 0xFFFFFFFFFFFFFFFFFFFFFFFFFFFFFFFFFFFFFFFFFFFFFFFFFFFFFFFF NOT AND DUP3 PUSH28 0xFFFFFFFFFFFFFFFFFFFFFFFFFFFFFFFFFFFFFFFFFFFFFFFFFFFFFFFF NOT AND SUB PUSH2 0x679 JUMPI PUSH0 DUP1 PUSH2 0x62A DUP9 DUP1 PUSH1 0x60 ADD SWAP1 PUSH2 0x625 SWAP2 SWAP1 PUSH2 0x39D8 JUMP JUMPDEST PUSH2 0x1C3D JUMP JUMPDEST SWAP2 POP SWAP2 POP DUP3 PUSH2 0x659 JUMPI PUSH2 0x646 DUP3 DUP7 PUSH2 0x1CD3 SWAP1 SWAP2 SWAP1 PUSH4 0xFFFFFFFF AND JUMP JUMPDEST PUSH2 0x658 JUMPI PUSH0 SWAP7 POP POP POP POP POP POP POP PUSH2 0x7AD JUMP JUMPDEST JUMPDEST DUP1 DUP7 PUSH0 ADD MLOAD LT ISZERO PUSH2 0x672 JUMPI PUSH0 SWAP7 POP POP POP POP POP POP POP PUSH2 0x7AD JUMP JUMPDEST POP POP PUSH2 0x7A4 JUMP JUMPDEST PUSH4 0x47E1DA2A PUSH1 0xE0 SHL PUSH28 0xFFFFFFFFFFFFFFFFFFFFFFFFFFFFFFFFFFFFFFFFFFFFFFFFFFFFFFFF NOT AND DUP3 PUSH28 0xFFFFFFFFFFFFFFFFFFFFFFFFFFFFFFFFFFFFFFFFFFFFFFFFFFFFFFFF NOT AND SUB PUSH2 0x797 JUMPI PUSH0 DUP1 PUSH2 0x6DF DUP9 DUP1 PUSH1 0x60 ADD SWAP1 PUSH2 0x6DA SWAP2 SWAP1 PUSH2 0x39D8 JUMP JUMPDEST PUSH2 0x1D00 JUMP JUMPDEST POP SWAP2 POP SWAP2 POP DUP3 PUSH2 0x743 JUMPI PUSH0 JUMPDEST DUP3 MLOAD DUP2 LT ISZERO PUSH2 0x741 JUMPI PUSH2 0x721 DUP4 DUP3 DUP2 MLOAD DUP2 LT PUSH2 0x70A JUMPI PUSH2 0x709 PUSH2 0x3A3A JUMP JUMPDEST JUMPDEST PUSH1 0x20 MUL PUSH1 0x20 ADD ADD MLOAD DUP8 PUSH2 0x1CD3 SWAP1 SWAP2 SWAP1 PUSH4 0xFFFFFFFF AND JUMP JUMPDEST PUSH2 0x734 JUMPI PUSH0 SWAP8 POP POP POP POP POP POP POP POP PUSH2 0x7AD JUMP JUMPDEST DUP1 DUP1 PUSH1 0x1 ADD SWAP2 POP POP PUSH2 0x6EB JUMP JUMPDEST POP JUMPDEST PUSH0 JUMPDEST DUP3 MLOAD DUP2 LT ISZERO PUSH2 0x78F JUMPI DUP2 DUP2 DUP2 MLOAD DUP2 LT PUSH2 0x761 JUMPI PUSH2 0x760 PUSH2 0x3A3A JUMP JUMPDEST JUMPDEST PUSH1 0x20 MUL PUSH1 0x20 ADD ADD MLOAD DUP8 PUSH0 ADD MLOAD LT ISZERO PUSH2 0x782 JUMPI PUSH0 SWAP8 POP POP POP POP POP POP POP POP PUSH2 0x7AD JUMP JUMPDEST DUP1 DUP1 PUSH1 0x1 ADD SWAP2 POP POP PUSH2 0x745 JUMP JUMPDEST POP POP POP PUSH2 0x7A3 JUMP JUMPDEST PUSH0 SWAP5 POP POP POP POP POP PUSH2 0x7AD JUMP JUMPDEST JUMPDEST PUSH1 0x1 SWAP5 POP POP POP POP POP JUMPDEST SWAP3 SWAP2 POP POP JUMP JUMPDEST PUSH0 PUSH2 0x7BC PUSH2 0x1B97 JUMP JUMPDEST PUSH1 0x4 ADD PUSH0 DUP4 PUSH20 0xFFFFFFFFFFFFFFFFFFFFFFFFFFFFFFFFFFFFFFFF AND PUSH20 0xFFFFFFFFFFFFFFFFFFFFFFFFFFFFFFFFFFFFFFFF AND DUP2 MSTORE PUSH1 0x20 ADD SWAP1 DUP2 MSTORE PUSH1 0x20 ADD PUSH0 KECCAK256 PUSH0 SWAP1 SLOAD SWAP1 PUSH2 0x100 EXP SWAP1 DIV PUSH1 0xFF AND SWAP1 POP SWAP2 SWAP1 POP JUMP JUMPDEST PUSH0 PUSH2 0x817 PUSH2 0x1D7F JUMP JUMPDEST PUSH2 0x821 DUP5 DUP5 PUSH2 0x1DF6 JUMP JUMPDEST SWAP1 POP PUSH2 0x830 DUP5 PUSH1 0x20 ADD CALLDATALOAD PUSH2 0x1FDB JUMP JUMPDEST PUSH2 0x839 DUP3 PUSH2 0x1FDE JUMP JUMPDEST SWAP4 SWAP3 POP POP POP JUMP JUMPDEST PUSH0 DUP4 PUSH0 ADD PUSH1 0x20 DUP2 ADD SWAP1 PUSH2 0x853 SWAP2 SWAP1 PUSH2 0x30C6 JUMP JUMPDEST SWAP1 POP TIMESTAMP DUP5 PUSH1 0xC0 ADD PUSH1 0x20 DUP2 ADD SWAP1 PUSH2 0x869 SWAP2 SWAP1 PUSH2 0x3A91 JUMP JUMPDEST PUSH16 0xFFFFFFFFFFFFFFFFFFFFFFFFFFFFFFFF AND GT ISZERO DUP1 ISZERO PUSH2 0x8AC JUMPI POP DUP4 PUSH1 0xE0 ADD PUSH1 0x20 DUP2 ADD SWAP1 PUSH2 0x897 SWAP2 SWAP1 PUSH2 0x3A91 JUMP JUMPDEST PUSH16 0xFFFFFFFFFFFFFFFFFFFFFFFFFFFFFFFF AND TIMESTAMP LT JUMPDEST PUSH2 0x8EB JUMPI PUSH1 0x40 MLOAD PUSH32 0x8C379A000000000000000000000000000000000000000000000000000000000 DUP2 MSTORE PUSH1 0x4 ADD PUSH2 0x8E2 SWAP1 PUSH2 0x3B16 JUMP JUMPDEST PUSH1 0x40 MLOAD DUP1 SWAP2 SUB SWAP1 REVERT JUMPDEST PUSH0 DUP1 PUSH2 0x8F8 DUP7 DUP7 DUP7 PUSH2 0x128E JUMP JUMPDEST SWAP2 POP SWAP2 POP DUP2 PUSH2 0x93C JUMPI PUSH1 0x40 MLOAD PUSH32 0x8C379A000000000000000000000000000000000000000000000000000000000 DUP2 MSTORE PUSH1 0x4 ADD PUSH2 0x933 SWAP1 PUSH2 0x3B7E JUMP JUMPDEST PUSH1 0x40 MLOAD DUP1 SWAP2 SUB SWAP1 REVERT JUMPDEST PUSH1 0x1 PUSH2 0x946 PUSH2 0x1B97 JUMP JUMPDEST PUSH1 0x7 ADD PUSH0 DUP9 PUSH2 0x100 ADD CALLDATALOAD DUP2 MSTORE PUSH1 0x20 ADD SWAP1 DUP2 MSTORE PUSH1 0x20 ADD PUSH0 KECCAK256 PUSH0 PUSH2 0x100 EXP DUP2 SLOAD DUP2 PUSH1 0xFF MUL NOT AND SWAP1 DUP4 ISZERO ISZERO MUL OR SWAP1 SSTORE POP PUSH0 DUP7 PUSH1 0x20 ADD PUSH1 0x20 DUP2 ADD SWAP1 PUSH2 0x987 SWAP2 SWAP1 PUSH2 0x3BD2 JUMP JUMPDEST PUSH1 0xFF AND GT ISZERO PUSH2 0x9BF JUMPI PUSH0 PUSH1 0x1 DUP8 PUSH1 0x20 ADD PUSH1 0x20 DUP2 ADD SWAP1 PUSH2 0x9A6 SWAP2 SWAP1 PUSH2 0x3BD2 JUMP JUMPDEST PUSH1 0xFF AND EQ SWAP1 POP PUSH2 0x9B6 DUP5 DUP3 PUSH2 0x2075 JUMP JUMPDEST POP POP POP POP PUSH2 0xD78 JUMP JUMPDEST PUSH2 0x9C8 DUP4 PUSH2 0x7B3 JUMP JUMPDEST ISZERO PUSH2 0xA08 JUMPI PUSH1 0x40 MLOAD PUSH32 0x8C379A000000000000000000000000000000000000000000000000000000000 DUP2 MSTORE PUSH1 0x4 ADD PUSH2 0x9FF SWAP1 PUSH2 0x3C47 JUMP JUMPDEST PUSH1 0x40 MLOAD DUP1 SWAP2 SUB SWAP1 REVERT JUMPDEST PUSH2 0xA25 DUP4 PUSH2 0xA14 PUSH2 0x1B97 JUMP JUMPDEST PUSH1 0x2 ADD PUSH2 0x21F5 SWAP1 SWAP2 SWAP1 PUSH4 0xFFFFFFFF AND JUMP JUMPDEST POP PUSH1 0x40 MLOAD DUP1 PUSH1 0x60 ADD PUSH1 0x40 MSTORE DUP1 DUP8 PUSH1 0x60 ADD CALLDATALOAD DUP2 MSTORE PUSH1 0x20 ADD DUP8 PUSH1 0x80 ADD PUSH1 0x20 DUP2 ADD SWAP1 PUSH2 0xA4E SWAP2 SWAP1 PUSH2 0x3A91 JUMP JUMPDEST PUSH16 0xFFFFFFFFFFFFFFFFFFFFFFFFFFFFFFFF AND DUP2 MSTORE PUSH1 0x20 ADD DUP8 PUSH1 0xA0 ADD PUSH1 0x20 DUP2 ADD SWAP1 PUSH2 0xA78 SWAP2 SWAP1 PUSH2 0x3A91 JUMP JUMPDEST PUSH16 0xFFFFFFFFFFFFFFFFFFFFFFFFFFFFFFFF AND DUP2 MSTORE POP PUSH2 0xA95 PUSH2 0x1B97 JUMP JUMPDEST PUSH1 0x5 ADD PUSH0 DUP6 PUSH20 0xFFFFFFFFFFFFFFFFFFFFFFFFFFFFFFFFFFFFFFFF AND PUSH20 0xFFFFFFFFFFFFFFFFFFFFFFFFFFFFFFFFFFFFFFFF AND DUP2 MSTORE PUSH1 0x20 ADD SWAP1 DUP2 MSTORE PUSH1 0x20 ADD PUSH0 KECCAK256 PUSH0 DUP3 ADD MLOAD DUP2 PUSH0 ADD SSTORE PUSH1 0x20 DUP3 ADD MLOAD DUP2 PUSH1 0x1 ADD PUSH0 PUSH2 0x100 EXP DUP2 SLOAD DUP2 PUSH16 0xFFFFFFFFFFFFFFFFFFFFFFFFFFFFFFFF MUL NOT AND SWAP1 DUP4 PUSH16 0xFFFFFFFFFFFFFFFFFFFFFFFFFFFFFFFF AND MUL OR SWAP1 SSTORE POP PUSH1 0x40 DUP3 ADD MLOAD DUP2 PUSH1 0x1 ADD PUSH1 0x10 PUSH2 0x100 EXP DUP2 SLOAD DUP2 PUSH16 0xFFFFFFFFFFFFFFFFFFFFFFFFFFFFFFFF MUL NOT AND SWAP1 DUP4 PUSH16 0xFFFFFFFFFFFFFFFFFFFFFFFFFFFFFFFF AND MUL OR SWAP1 SSTORE POP SWAP1 POP POP PUSH0 PUSH2 0xBAA PUSH2 0xB67 PUSH2 0x1B97 JUMP JUMPDEST PUSH1 0x6 ADD PUSH0 DUP7 PUSH20 0xFFFFFFFFFFFFFFFFFFFFFFFFFFFFFFFFFFFFFFFF AND PUSH20 0xFFFFFFFFFFFFFFFFFFFFFFFFFFFFFFFFFFFFFFFF AND DUP2 MSTORE PUSH1 0x20 ADD SWAP1 DUP2 MSTORE PUSH1 0x20 ADD PUSH0 KECCAK256 PUSH2 0x2222 JUMP JUMPDEST SWAP1 POP PUSH0 DUP2 MLOAD SWAP1 POP PUSH0 JUMPDEST DUP2 DUP2 LT ISZERO PUSH2 0xC42 JUMPI PUSH2 0xC2D DUP4 DUP3 DUP2 MLOAD DUP2 LT PUSH2 0xBD1 JUMPI PUSH2 0xBD0 PUSH2 0x3A3A JUMP JUMPDEST JUMPDEST PUSH1 0x20 MUL PUSH1 0x20 ADD ADD MLOAD PUSH2 0xBE1 PUSH2 0x1B97 JUMP JUMPDEST PUSH1 0x6 ADD PUSH0 DUP10 PUSH20 0xFFFFFFFFFFFFFFFFFFFFFFFFFFFFFFFFFFFFFFFF AND PUSH20 0xFFFFFFFFFFFFFFFFFFFFFFFFFFFFFFFFFFFFFFFF AND DUP2 MSTORE PUSH1 0x20 ADD SWAP1 DUP2 MSTORE PUSH1 0x20 ADD PUSH0 KECCAK256 PUSH2 0x2241 SWAP1 SWAP2 SWAP1 PUSH4 0xFFFFFFFF AND JUMP JUMPDEST POP PUSH1 0x1 DUP2 PUSH2 0xC3B SWAP2 SWAP1 PUSH2 0x3C92 JUMP JUMPDEST SWAP1 POP PUSH2 0xBB3 JUMP JUMPDEST POP DUP8 DUP1 PUSH1 0x40 ADD SWAP1 PUSH2 0xC53 SWAP2 SWAP1 PUSH2 0x3CC5 JUMP JUMPDEST SWAP1 POP SWAP1 POP PUSH0 JUMPDEST DUP2 DUP2 LT ISZERO PUSH2 0xD03 JUMPI PUSH2 0xCEE DUP10 DUP1 PUSH1 0x40 ADD SWAP1 PUSH2 0xC74 SWAP2 SWAP1 PUSH2 0x3CC5 JUMP JUMPDEST DUP4 DUP2 DUP2 LT PUSH2 0xC85 JUMPI PUSH2 0xC84 PUSH2 0x3A3A JUMP JUMPDEST JUMPDEST SWAP1 POP PUSH1 0x20 MUL ADD PUSH1 0x20 DUP2 ADD SWAP1 PUSH2 0xC9A SWAP2 SWAP1 PUSH2 0x30C6 JUMP JUMPDEST PUSH2 0xCA2 PUSH2 0x1B97 JUMP JUMPDEST PUSH1 0x6 ADD PUSH0 DUP10 PUSH20 0xFFFFFFFFFFFFFFFFFFFFFFFFFFFFFFFFFFFFFFFF AND PUSH20 0xFFFFFFFFFFFFFFFFFFFFFFFFFFFFFFFFFFFFFFFF AND DUP2 MSTORE PUSH1 0x20 ADD SWAP1 DUP2 MSTORE PUSH1 0x20 ADD PUSH0 KECCAK256 PUSH2 0x21F5 SWAP1 SWAP2 SWAP1 PUSH4 0xFFFFFFFF AND JUMP JUMPDEST POP PUSH1 0x1 DUP2 PUSH2 0xCFC SWAP2 SWAP1 PUSH2 0x3C92 JUMP JUMPDEST SWAP1 POP PUSH2 0xC59 JUMP JUMPDEST POP PUSH2 0xD0D DUP9 PUSH2 0x226E JUMP JUMPDEST DUP5 PUSH20 0xFFFFFFFFFFFFFFFFFFFFFFFFFFFFFFFFFFFFFFFF AND DUP4 PUSH20 0xFFFFFFFFFFFFFFFFFFFFFFFFFFFFFFFFFFFFFFFF AND PUSH32 0xF21D10C26E35863A8DF291ACA54181EE8C4A3BC8E00246C3F7A5A14B69D826A7 DUP11 PUSH1 0x40 MLOAD PUSH2 0xD6A SWAP2 SWAP1 PUSH2 0x3F9D JUMP JUMPDEST PUSH1 0x40 MLOAD DUP1 SWAP2 SUB SWAP1 LOG3 POP POP POP POP POP JUMPDEST POP POP POP JUMP JUMPDEST PUSH0 DUP1 PUSH2 0xD87 PUSH2 0x1B97 JUMP JUMPDEST PUSH1 0x5 ADD PUSH0 DUP5 PUSH20 0xFFFFFFFFFFFFFFFFFFFFFFFFFFFFFFFFFFFFFFFF AND PUSH20 0xFFFFFFFFFFFFFFFFFFFFFFFFFFFFFFFFFFFFFFFF AND DUP2 MSTORE PUSH1 0x20 ADD SWAP1 DUP2 MSTORE PUSH1 0x20 ADD PUSH0 KECCAK256 PUSH1 0x40 MLOAD DUP1 PUSH1 0x60 ADD PUSH1 0x40 MSTORE SWAP1 DUP2 PUSH0 DUP3 ADD SLOAD DUP2 MSTORE PUSH1 0x20 ADD PUSH1 0x1 DUP3 ADD PUSH0 SWAP1 SLOAD SWAP1 PUSH2 0x100 EXP SWAP1 DIV PUSH16 0xFFFFFFFFFFFFFFFFFFFFFFFFFFFFFFFF AND PUSH16 0xFFFFFFFFFFFFFFFFFFFFFFFFFFFFFFFF AND PUSH16 0xFFFFFFFFFFFFFFFFFFFFFFFFFFFFFFFF AND DUP2 MSTORE PUSH1 0x20 ADD PUSH1 0x1 DUP3 ADD PUSH1 0x10 SWAP1 SLOAD SWAP1 PUSH2 0x100 EXP SWAP1 DIV PUSH16 0xFFFFFFFFFFFFFFFFFFFFFFFFFFFFFFFF AND PUSH16 0xFFFFFFFFFFFFFFFFFFFFFFFFFFFFFFFF AND PUSH16 0xFFFFFFFFFFFFFFFFFFFFFFFFFFFFFFFF AND DUP2 MSTORE POP POP SWAP1 POP TIMESTAMP DUP2 PUSH1 0x20 ADD MLOAD PUSH16 0xFFFFFFFFFFFFFFFFFFFFFFFFFFFFFFFF AND GT ISZERO DUP1 ISZERO PUSH2 0xEA9 JUMPI POP DUP1 PUSH1 0x40 ADD MLOAD PUSH16 0xFFFFFFFFFFFFFFFFFFFFFFFFFFFFFFFF AND TIMESTAMP LT JUMPDEST DUP1 ISZERO PUSH2 0xF01 JUMPI POP PUSH0 PUSH2 0xEFF PUSH2 0xEBC PUSH2 0x1B97 JUMP JUMPDEST PUSH1 0x6 ADD PUSH0 DUP7 PUSH20 0xFFFFFFFFFFFFFFFFFFFFFFFFFFFFFFFFFFFFFFFF AND PUSH20 0xFFFFFFFFFFFFFFFFFFFFFFFFFFFFFFFFFFFFFFFF AND DUP2 MSTORE PUSH1 0x20 ADD SWAP1 DUP2 MSTORE PUSH1 0x20 ADD PUSH0 KECCAK256 PUSH2 0x1BA5 JUMP JUMPDEST GT JUMPDEST SWAP2 POP POP SWAP2 SWAP1 POP JUMP JUMPDEST PUSH1 0x60 PUSH0 PUSH2 0xF1F PUSH2 0xF17 PUSH2 0x1B97 JUMP JUMPDEST PUSH1 0x2 ADD PUSH2 0x2222 JUMP JUMPDEST SWAP1 POP PUSH0 DUP2 MLOAD SWAP1 POP PUSH0 DUP1 JUMPDEST DUP3 DUP2 LT ISZERO PUSH2 0xFCF JUMPI PUSH2 0xF54 DUP5 DUP3 DUP2 MLOAD DUP2 LT PUSH2 0xF47 JUMPI PUSH2 0xF46 PUSH2 0x3A3A JUMP JUMPDEST JUMPDEST PUSH1 0x20 MUL PUSH1 0x20 ADD ADD MLOAD PUSH2 0xD7D JUMP JUMPDEST ISZERO PUSH2 0xF6C JUMPI DUP2 DUP1 PUSH2 0xF64 SWAP1 PUSH2 0x3FBD JUMP JUMPDEST SWAP3 POP POP PUSH2 0xFBB JUMP JUMPDEST PUSH0 DUP5 DUP3 DUP2 MLOAD DUP2 LT PUSH2 0xF80 JUMPI PUSH2 0xF7F PUSH2 0x3A3A JUMP JUMPDEST JUMPDEST PUSH1 0x20 MUL PUSH1 0x20 ADD ADD SWAP1 PUSH20 0xFFFFFFFFFFFFFFFFFFFFFFFFFFFFFFFFFFFFFFFF AND SWAP1 DUP2 PUSH20 0xFFFFFFFFFFFFFFFFFFFFFFFFFFFFFFFFFFFFFFFF AND DUP2 MSTORE POP POP JUMPDEST PUSH1 0x1 DUP2 PUSH2 0xFC8 SWAP2 SWAP1 PUSH2 0x3C92 JUMP JUMPDEST SWAP1 POP PUSH2 0xF29 JUMP JUMPDEST POP DUP1 PUSH8 0xFFFFFFFFFFFFFFFF DUP2 GT ISZERO PUSH2 0xFEA JUMPI PUSH2 0xFE9 PUSH2 0x4004 JUMP JUMPDEST JUMPDEST PUSH1 0x40 MLOAD SWAP1 DUP1 DUP3 MSTORE DUP1 PUSH1 0x20 MUL PUSH1 0x20 ADD DUP3 ADD PUSH1 0x40 MSTORE DUP1 ISZERO PUSH2 0x1023 JUMPI DUP2 PUSH1 0x20 ADD JUMPDEST PUSH2 0x1010 PUSH2 0x2F46 JUMP JUMPDEST DUP2 MSTORE PUSH1 0x20 ADD SWAP1 PUSH1 0x1 SWAP1 SUB SWAP1 DUP2 PUSH2 0x1008 JUMPI SWAP1 POP JUMPDEST POP SWAP4 POP PUSH0 DUP1 JUMPDEST DUP4 DUP2 LT ISZERO PUSH2 0x1286 JUMPI PUSH0 PUSH20 0xFFFFFFFFFFFFFFFFFFFFFFFFFFFFFFFFFFFFFFFF AND DUP6 DUP3 DUP2 MLOAD DUP2 LT PUSH2 0x105B JUMPI PUSH2 0x105A PUSH2 0x3A3A JUMP JUMPDEST JUMPDEST PUSH1 0x20 MUL PUSH1 0x20 ADD ADD MLOAD PUSH20 0xFFFFFFFFFFFFFFFFFFFFFFFFFFFFFFFFFFFFFFFF AND EQ PUSH2 0x1272 JUMPI PUSH0 DUP6 DUP3 DUP2 MLOAD DUP2 LT PUSH2 0x1092 JUMPI PUSH2 0x1091 PUSH2 0x3A3A JUMP JUMPDEST JUMPDEST PUSH1 0x20 MUL PUSH1 0x20 ADD ADD MLOAD SWAP1 POP PUSH0 PUSH2 0x10A5 PUSH2 0x1B97 JUMP JUMPDEST PUSH1 0x5 ADD PUSH0 DUP4 PUSH20 0xFFFFFFFFFFFFFFFFFFFFFFFFFFFFFFFFFFFFFFFF AND PUSH20 0xFFFFFFFFFFFFFFFFFFFFFFFFFFFFFFFFFFFFFFFF AND DUP2 MSTORE PUSH1 0x20 ADD SWAP1 DUP2 MSTORE PUSH1 0x20 ADD PUSH0 KECCAK256 PUSH1 0x40 MLOAD DUP1 PUSH1 0x60 ADD PUSH1 0x40 MSTORE SWAP1 DUP2 PUSH0 DUP3 ADD SLOAD DUP2 MSTORE PUSH1 0x20 ADD PUSH1 0x1 DUP3 ADD PUSH0 SWAP1 SLOAD SWAP1 PUSH2 0x100 EXP SWAP1 DIV PUSH16 0xFFFFFFFFFFFFFFFFFFFFFFFFFFFFFFFF AND PUSH16 0xFFFFFFFFFFFFFFFFFFFFFFFFFFFFFFFF AND PUSH16 0xFFFFFFFFFFFFFFFFFFFFFFFFFFFFFFFF AND DUP2 MSTORE PUSH1 0x20 ADD PUSH1 0x1 DUP3 ADD PUSH1 0x10 SWAP1 SLOAD SWAP1 PUSH2 0x100 EXP SWAP1 DIV PUSH16 0xFFFFFFFFFFFFFFFFFFFFFFFFFFFFFFFF AND PUSH16 0xFFFFFFFFFFFFFFFFFFFFFFFFFFFFFFFF AND PUSH16 0xFFFFFFFFFFFFFFFFFFFFFFFFFFFFFFFF AND DUP2 MSTORE POP POP SWAP1 POP PUSH1 0x40 MLOAD DUP1 PUSH1 0xA0 ADD PUSH1 0x40 MSTORE DUP1 DUP4 PUSH20 0xFFFFFFFFFFFFFFFFFFFFFFFFFFFFFFFFFFFFFFFF AND DUP2 MSTORE PUSH1 0x20 ADD PUSH2 0x1201 PUSH2 0x11BE PUSH2 0x1B97 JUMP JUMPDEST PUSH1 0x6 ADD PUSH0 DUP7 PUSH20 0xFFFFFFFFFFFFFFFFFFFFFFFFFFFFFFFFFFFFFFFF AND PUSH20 0xFFFFFFFFFFFFFFFFFFFFFFFFFFFFFFFFFFFFFFFF AND DUP2 MSTORE PUSH1 0x20 ADD SWAP1 DUP2 MSTORE PUSH1 0x20 ADD PUSH0 KECCAK256 PUSH2 0x2222 JUMP JUMPDEST DUP2 MSTORE PUSH1 0x20 ADD DUP3 PUSH0 ADD MLOAD DUP2 MSTORE PUSH1 0x20 ADD DUP3 PUSH1 0x20 ADD MLOAD PUSH16 0xFFFFFFFFFFFFFFFFFFFFFFFFFFFFFFFF AND DUP2 MSTORE PUSH1 0x20 ADD DUP3 PUSH1 0x40 ADD MLOAD PUSH16 0xFFFFFFFFFFFFFFFFFFFFFFFFFFFFFFFF AND DUP2 MSTORE POP DUP9 DUP6 DUP1 PUSH2 0x1251 SWAP1 PUSH2 0x3FBD JUMP JUMPDEST SWAP7 POP DUP2 MLOAD DUP2 LT PUSH2 0x1264 JUMPI PUSH2 0x1263 PUSH2 0x3A3A JUMP JUMPDEST JUMPDEST PUSH1 0x20 MUL PUSH1 0x20 ADD ADD DUP2 SWAP1 MSTORE POP POP POP JUMPDEST PUSH1 0x1 DUP2 PUSH2 0x127F SWAP2 SWAP1 PUSH2 0x3C92 JUMP JUMPDEST SWAP1 POP PUSH2 0x1029 JUMP JUMPDEST POP POP POP POP POP SWAP1 JUMP JUMPDEST PUSH0 DUP1 PUSH2 0x12A3 PUSH2 0x129C DUP7 PUSH2 0x2355 JUMP JUMPDEST DUP6 DUP6 PUSH2 0x245A JUMP JUMPDEST SWAP1 POP PUSH2 0x12AD PUSH2 0x1B97 JUMP JUMPDEST PUSH1 0x7 ADD PUSH0 DUP7 PUSH2 0x100 ADD CALLDATALOAD DUP2 MSTORE PUSH1 0x20 ADD SWAP1 DUP2 MSTORE PUSH1 0x20 ADD PUSH0 KECCAK256 PUSH0 SWAP1 SLOAD SWAP1 PUSH2 0x100 EXP SWAP1 DIV PUSH1 0xFF AND ISZERO DUP1 ISZERO PUSH2 0x12E3 JUMPI POP PUSH2 0x12E2 DUP2 PUSH2 0x7B3 JUMP JUMPDEST JUMPDEST SWAP2 POP SWAP4 POP SWAP4 SWAP2 POP POP JUMP JUMPDEST PUSH1 0x60 DUP3 DUP3 SWAP1 POP PUSH8 0xFFFFFFFFFFFFFFFF DUP2 GT ISZERO PUSH2 0x130C JUMPI PUSH2 0x130B PUSH2 0x4004 JUMP JUMPDEST JUMPDEST PUSH1 0x40 MLOAD SWAP1 DUP1 DUP3 MSTORE DUP1 PUSH1 0x20 MUL PUSH1 0x20 ADD DUP3 ADD PUSH1 0x40 MSTORE DUP1 ISZERO PUSH2 0x133F JUMPI DUP2 PUSH1 0x20 ADD JUMPDEST PUSH1 0x60 DUP2 MSTORE PUSH1 0x20 ADD SWAP1 PUSH1 0x1 SWAP1 SUB SWAP1 DUP2 PUSH2 0x132A JUMPI SWAP1 POP JUMPDEST POP SWAP1 POP PUSH0 JUMPDEST DUP4 DUP4 SWAP1 POP DUP2 LT ISZERO PUSH2 0x13EA JUMPI PUSH2 0x13BF ADDRESS DUP6 DUP6 DUP5 DUP2 DUP2 LT PUSH2 0x1366 JUMPI PUSH2 0x1365 PUSH2 0x3A3A JUMP JUMPDEST JUMPDEST SWAP1 POP PUSH1 0x20 MUL DUP2 ADD SWAP1 PUSH2 0x1378 SWAP2 SWAP1 PUSH2 0x39D8 JUMP JUMPDEST DUP1 DUP1 PUSH1 0x1F ADD PUSH1 0x20 DUP1 SWAP2 DIV MUL PUSH1 0x20 ADD PUSH1 0x40 MLOAD SWAP1 DUP2 ADD PUSH1 0x40 MSTORE DUP1 SWAP4 SWAP3 SWAP2 SWAP1 DUP2 DUP2 MSTORE PUSH1 0x20 ADD DUP4 DUP4 DUP1 DUP3 DUP5 CALLDATACOPY PUSH0 DUP2 DUP5 ADD MSTORE PUSH1 0x1F NOT PUSH1 0x1F DUP3 ADD AND SWAP1 POP DUP1 DUP4 ADD SWAP3 POP POP POP POP POP POP POP PUSH2 0x24C9 JUMP JUMPDEST DUP3 DUP3 DUP2 MLOAD DUP2 LT PUSH2 0x13D2 JUMPI PUSH2 0x13D1 PUSH2 0x3A3A JUMP JUMPDEST JUMPDEST PUSH1 0x20 MUL PUSH1 0x20 ADD ADD DUP2 SWAP1 MSTORE POP DUP1 DUP1 PUSH1 0x1 ADD SWAP2 POP POP PUSH2 0x1344 JUMP JUMPDEST POP SWAP3 SWAP2 POP POP JUMP JUMPDEST PUSH0 DUP1 PUSH2 0x13FB PUSH2 0x24F6 JUMP JUMPDEST PUSH0 ADD PUSH0 SWAP1 SLOAD SWAP1 PUSH2 0x100 EXP SWAP1 DIV PUSH20 0xFFFFFFFFFFFFFFFFFFFFFFFFFFFFFFFFFFFFFFFF AND SWAP1 POP PUSH0 PUSH20 0xFFFFFFFFFFFFFFFFFFFFFFFFFFFFFFFFFFFFFFFF AND DUP2 PUSH20 0xFFFFFFFFFFFFFFFFFFFFFFFFFFFFFFFFFFFFFFFF AND EQ PUSH2 0x145B JUMPI DUP1 SWAP2 POP POP PUSH2 0x1480 JUMP JUMPDEST PUSH32 0x0 SWAP2 POP POP JUMPDEST SWAP1 JUMP JUMPDEST PUSH2 0x148B PUSH2 0x2524 JUMP JUMPDEST DUP1 PUSH2 0x1494 PUSH2 0x24F6 JUMP JUMPDEST PUSH0 ADD PUSH0 PUSH2 0x100 EXP DUP2 SLOAD DUP2 PUSH20 0xFFFFFFFFFFFFFFFFFFFFFFFFFFFFFFFFFFFFFFFF MUL NOT AND SWAP1 DUP4 PUSH20 0xFFFFFFFFFFFFFFFFFFFFFFFFFFFFFFFFFFFFFFFF AND MUL OR SWAP1 SSTORE POP POP JUMP JUMPDEST PUSH32 0x0 DUP2 JUMP JUMPDEST PUSH0 PUSH2 0x1503 PUSH2 0x13F1 JUMP JUMPDEST PUSH20 0xFFFFFFFFFFFFFFFFFFFFFFFFFFFFFFFFFFFFFFFF AND PUSH4 0x35567E1A ADDRESS PUSH0 PUSH1 0x40 MLOAD DUP4 PUSH4 0xFFFFFFFF AND PUSH1 0xE0 SHL DUP2 MSTORE PUSH1 0x4 ADD PUSH2 0x153D SWAP3 SWAP2 SWAP1 PUSH2 0x408D JUMP JUMPDEST PUSH1 0x20 PUSH1 0x40 MLOAD DUP1 DUP4 SUB DUP2 DUP7 GAS STATICCALL ISZERO DUP1 ISZERO PUSH2 0x1558 JUMPI RETURNDATASIZE PUSH0 DUP1 RETURNDATACOPY RETURNDATASIZE PUSH0 REVERT JUMPDEST POP POP POP POP PUSH1 0x40 MLOAD RETURNDATASIZE PUSH1 0x1F NOT PUSH1 0x1F DUP3 ADD AND DUP3 ADD DUP1 PUSH1 0x40 MSTORE POP DUP2 ADD SWAP1 PUSH2 0x157C SWAP2 SWAP1 PUSH2 0x40C8 JUMP JUMPDEST SWAP1 POP SWAP1 JUMP JUMPDEST PUSH0 PUSH2 0x158A PUSH2 0x256E JUMP JUMPDEST PUSH0 ADD PUSH0 SWAP1 SLOAD SWAP1 PUSH2 0x100 EXP SWAP1 DIV PUSH1 0xFF AND SWAP1 POP PUSH0 PUSH2 0x15A4 PUSH2 0x256E JUMP JUMPDEST PUSH0 ADD PUSH1 0x1 SWAP1 SLOAD SWAP1 PUSH2 0x100 EXP SWAP1 DIV PUSH1 0xFF AND SWAP1 POP PUSH0 DUP2 ISZERO SWAP1 POP DUP1 DUP1 ISZERO PUSH2 0x15CB JUMPI POP PUSH1 0x1 DUP4 PUSH1 0xFF AND LT JUMPDEST DUP1 PUSH2 0x15EB JUMPI POP PUSH2 0x15DA ADDRESS PUSH2 0x257C JUMP JUMPDEST ISZERO DUP1 ISZERO PUSH2 0x15EA JUMPI POP PUSH1 0x1 DUP4 PUSH1 0xFF AND EQ JUMPDEST JUMPDEST PUSH2 0x162A JUMPI PUSH1 0x40 MLOAD PUSH32 0x8C379A000000000000000000000000000000000000000000000000000000000 DUP2 MSTORE PUSH1 0x4 ADD PUSH2 0x1621 SWAP1 PUSH2 0x4163 JUMP JUMPDEST PUSH1 0x40 MLOAD DUP1 SWAP2 SUB SWAP1 REVERT JUMPDEST PUSH1 0x1 PUSH2 0x1634 PUSH2 0x256E JUMP JUMPDEST PUSH0 ADD PUSH0 PUSH2 0x100 EXP DUP2 SLOAD DUP2 PUSH1 0xFF MUL NOT AND SWAP1 DUP4 PUSH1 0xFF AND MUL OR SWAP1 SSTORE POP DUP1 ISZERO PUSH2 0x1677 JUMPI PUSH1 0x1 PUSH2 0x165D PUSH2 0x256E JUMP JUMPDEST PUSH0 ADD PUSH1 0x1 PUSH2 0x100 EXP DUP2 SLOAD DUP2 PUSH1 0xFF MUL NOT AND SWAP1 DUP4 ISZERO ISZERO MUL OR SWAP1 SSTORE POP JUMPDEST PUSH2 0x16C4 DUP7 DUP7 DUP7 DUP1 DUP1 PUSH1 0x1F ADD PUSH1 0x20 DUP1 SWAP2 DIV MUL PUSH1 0x20 ADD PUSH1 0x40 MLOAD SWAP1 DUP2 ADD PUSH1 0x40 MSTORE DUP1 SWAP4 SWAP3 SWAP2 SWAP1 DUP2 DUP2 MSTORE PUSH1 0x20 ADD DUP4 DUP4 DUP1 DUP3 DUP5 CALLDATACOPY PUSH0 DUP2 DUP5 ADD MSTORE PUSH1 0x1F NOT PUSH1 0x1F DUP3 ADD AND SWAP1 POP DUP1 DUP4 ADD SWAP3 POP POP POP POP POP POP POP PUSH2 0x259E JUMP JUMPDEST PUSH2 0x16CC PUSH2 0x24F6 JUMP JUMPDEST PUSH1 0x1 ADD DUP2 SWAP1 SSTORE POP PUSH2 0x16DE DUP7 PUSH1 0x1 PUSH2 0x2075 JUMP JUMPDEST DUP1 ISZERO PUSH2 0x173F JUMPI PUSH0 PUSH2 0x16ED PUSH2 0x256E JUMP JUMPDEST PUSH0 ADD PUSH1 0x1 PUSH2 0x100 EXP DUP2 SLOAD DUP2 PUSH1 0xFF MUL NOT AND SWAP1 DUP4 ISZERO ISZERO MUL OR SWAP1 SSTORE POP PUSH32 0x7F26B83FF96E1F2B6A682F133852F6798A09C465DA95921460CEFB3847402498 PUSH1 0x1 PUSH1 0x40 MLOAD PUSH2 0x1736 SWAP2 SWAP1 PUSH2 0x41BA JUMP JUMPDEST PUSH1 0x40 MLOAD DUP1 SWAP2 SUB SWAP1 LOG1 JUMPDEST POP POP POP POP POP POP JUMP JUMPDEST PUSH1 0x60 PUSH0 PUSH2 0x175D PUSH2 0x1755 PUSH2 0x1B97 JUMP JUMPDEST PUSH1 0x2 ADD PUSH2 0x2222 JUMP JUMPDEST SWAP1 POP PUSH0 DUP2 MLOAD SWAP1 POP DUP1 PUSH8 0xFFFFFFFFFFFFFFFF DUP2 GT ISZERO PUSH2 0x177E JUMPI PUSH2 0x177D PUSH2 0x4004 JUMP JUMPDEST JUMPDEST PUSH1 0x40 MLOAD SWAP1 DUP1 DUP3 MSTORE DUP1 PUSH1 0x20 MUL PUSH1 0x20 ADD DUP3 ADD PUSH1 0x40 MSTORE DUP1 ISZERO PUSH2 0x17B7 JUMPI DUP2 PUSH1 0x20 ADD JUMPDEST PUSH2 0x17A4 PUSH2 0x2F46 JUMP JUMPDEST DUP2 MSTORE PUSH1 0x20 ADD SWAP1 PUSH1 0x1 SWAP1 SUB SWAP1 DUP2 PUSH2 0x179C JUMPI SWAP1 POP JUMPDEST POP SWAP3 POP PUSH0 JUMPDEST DUP2 DUP2 LT ISZERO PUSH2 0x19BF JUMPI PUSH0 DUP4 DUP3 DUP2 MLOAD DUP2 LT PUSH2 0x17D8 JUMPI PUSH2 0x17D7 PUSH2 0x3A3A JUMP JUMPDEST JUMPDEST PUSH1 0x20 MUL PUSH1 0x20 ADD ADD MLOAD SWAP1 POP PUSH0 PUSH2 0x17EB PUSH2 0x1B97 JUMP JUMPDEST PUSH1 0x5 ADD PUSH0 DUP4 PUSH20 0xFFFFFFFFFFFFFFFFFFFFFFFFFFFFFFFFFFFFFFFF AND PUSH20 0xFFFFFFFFFFFFFFFFFFFFFFFFFFFFFFFFFFFFFFFF AND DUP2 MSTORE PUSH1 0x20 ADD SWAP1 DUP2 MSTORE PUSH1 0x20 ADD PUSH0 KECCAK256 PUSH1 0x40 MLOAD DUP1 PUSH1 0x60 ADD PUSH1 0x40 MSTORE SWAP1 DUP2 PUSH0 DUP3 ADD SLOAD DUP2 MSTORE PUSH1 0x20 ADD PUSH1 0x1 DUP3 ADD PUSH0 SWAP1 SLOAD SWAP1 PUSH2 0x100 EXP SWAP1 DIV PUSH16 0xFFFFFFFFFFFFFFFFFFFFFFFFFFFFFFFF AND PUSH16 0xFFFFFFFFFFFFFFFFFFFFFFFFFFFFFFFF AND PUSH16 0xFFFFFFFFFFFFFFFFFFFFFFFFFFFFFFFF AND DUP2 MSTORE PUSH1 0x20 ADD PUSH1 0x1 DUP3 ADD PUSH1 0x10 SWAP1 SLOAD SWAP1 PUSH2 0x100 EXP SWAP1 DIV PUSH16 0xFFFFFFFFFFFFFFFFFFFFFFFFFFFFFFFF AND PUSH16 0xFFFFFFFFFFFFFFFFFFFFFFFFFFFFFFFF AND PUSH16 0xFFFFFFFFFFFFFFFFFFFFFFFFFFFFFFFF AND DUP2 MSTORE POP POP SWAP1 POP PUSH1 0x40 MLOAD DUP1 PUSH1 0xA0 ADD PUSH1 0x40 MSTORE DUP1 DUP4 PUSH20 0xFFFFFFFFFFFFFFFFFFFFFFFFFFFFFFFFFFFFFFFF AND DUP2 MSTORE PUSH1 0x20 ADD PUSH2 0x1947 PUSH2 0x1904 PUSH2 0x1B97 JUMP JUMPDEST PUSH1 0x6 ADD PUSH0 DUP7 PUSH20 0xFFFFFFFFFFFFFFFFFFFFFFFFFFFFFFFFFFFFFFFF AND PUSH20 0xFFFFFFFFFFFFFFFFFFFFFFFFFFFFFFFFFFFFFFFF AND DUP2 MSTORE PUSH1 0x20 ADD SWAP1 DUP2 MSTORE PUSH1 0x20 ADD PUSH0 KECCAK256 PUSH2 0x2222 JUMP JUMPDEST DUP2 MSTORE PUSH1 0x20 ADD DUP3 PUSH0 ADD MLOAD DUP2 MSTORE PUSH1 0x20 ADD DUP3 PUSH1 0x20 ADD MLOAD PUSH16 0xFFFFFFFFFFFFFFFFFFFFFFFFFFFFFFFF AND DUP2 MSTORE PUSH1 0x20 ADD DUP3 PUSH1 0x40 ADD MLOAD PUSH16 0xFFFFFFFFFFFFFFFFFFFFFFFFFFFFFFFF AND DUP2 MSTORE POP DUP7 DUP5 DUP2 MLOAD DUP2 LT PUSH2 0x199E JUMPI PUSH2 0x199D PUSH2 0x3A3A JUMP JUMPDEST JUMPDEST PUSH1 0x20 MUL PUSH1 0x20 ADD ADD DUP2 SWAP1 MSTORE POP POP POP PUSH1 0x1 DUP2 PUSH2 0x19B8 SWAP2 SWAP1 PUSH2 0x3C92 JUMP JUMPDEST SWAP1 POP PUSH2 0x17BC JUMP JUMPDEST POP POP POP SWAP1 JUMP JUMPDEST PUSH1 0x60 PUSH2 0x19D9 PUSH2 0x19D2 PUSH2 0x1B97 JUMP JUMPDEST PUSH0 ADD PUSH2 0x2222 JUMP JUMPDEST SWAP1 POP SWAP1 JUMP JUMPDEST PUSH2 0x19E6 PUSH2 0x2F46 JUMP JUMPDEST PUSH0 PUSH2 0x19EF PUSH2 0x1B97 JUMP JUMPDEST PUSH1 0x5 ADD PUSH0 DUP5 PUSH20 0xFFFFFFFFFFFFFFFFFFFFFFFFFFFFFFFFFFFFFFFF AND PUSH20 0xFFFFFFFFFFFFFFFFFFFFFFFFFFFFFFFFFFFFFFFF AND DUP2 MSTORE PUSH1 0x20 ADD SWAP1 DUP2 MSTORE PUSH1 0x20 ADD PUSH0 KECCAK256 PUSH1 0x40 MLOAD DUP1 PUSH1 0x60 ADD PUSH1 0x40 MSTORE SWAP1 DUP2 PUSH0 DUP3 ADD SLOAD DUP2 MSTORE PUSH1 0x20 ADD PUSH1 0x1 DUP3 ADD PUSH0 SWAP1 SLOAD SWAP1 PUSH2 0x100 EXP SWAP1 DIV PUSH16 0xFFFFFFFFFFFFFFFFFFFFFFFFFFFFFFFF AND PUSH16 0xFFFFFFFFFFFFFFFFFFFFFFFFFFFFFFFF AND PUSH16 0xFFFFFFFFFFFFFFFFFFFFFFFFFFFFFFFF AND DUP2 MSTORE PUSH1 0x20 ADD PUSH1 0x1 DUP3 ADD PUSH1 0x10 SWAP1 SLOAD SWAP1 PUSH2 0x100 EXP SWAP1 DIV PUSH16 0xFFFFFFFFFFFFFFFFFFFFFFFFFFFFFFFF AND PUSH16 0xFFFFFFFFFFFFFFFFFFFFFFFFFFFFFFFF AND PUSH16 0xFFFFFFFFFFFFFFFFFFFFFFFFFFFFFFFF AND DUP2 MSTORE POP POP SWAP1 POP PUSH1 0x40 MLOAD DUP1 PUSH1 0xA0 ADD PUSH1 0x40 MSTORE DUP1 DUP5 PUSH20 0xFFFFFFFFFFFFFFFFFFFFFFFFFFFFFFFFFFFFFFFF AND DUP2 MSTORE PUSH1 0x20 ADD PUSH2 0x1B4B PUSH2 0x1B08 PUSH2 0x1B97 JUMP JUMPDEST PUSH1 0x6 ADD PUSH0 DUP8 PUSH20 0xFFFFFFFFFFFFFFFFFFFFFFFFFFFFFFFFFFFFFFFF AND PUSH20 0xFFFFFFFFFFFFFFFFFFFFFFFFFFFFFFFFFFFFFFFF AND DUP2 MSTORE PUSH1 0x20 ADD SWAP1 DUP2 MSTORE PUSH1 0x20 ADD PUSH0 KECCAK256 PUSH2 0x2222 JUMP JUMPDEST DUP2 MSTORE PUSH1 0x20 ADD DUP3 PUSH0 ADD MLOAD DUP2 MSTORE PUSH1 0x20 ADD DUP3 PUSH1 0x20 ADD MLOAD PUSH16 0xFFFFFFFFFFFFFFFFFFFFFFFFFFFFFFFF AND DUP2 MSTORE PUSH1 0x20 ADD DUP3 PUSH1 0x40 ADD MLOAD PUSH16 0xFFFFFFFFFFFFFFFFFFFFFFFFFFFFFFFF AND DUP2 MSTORE POP SWAP2 POP POP SWAP2 SWAP1 POP JUMP JUMPDEST PUSH0 PUSH2 0x1BA0 PUSH2 0x25D0 JUMP JUMPDEST SWAP1 POP SWAP1 JUMP JUMPDEST PUSH0 PUSH2 0x1BB1 DUP3 PUSH0 ADD PUSH2 0x25FE JUMP JUMPDEST SWAP1 POP SWAP2 SWAP1 POP JUMP JUMPDEST PUSH0 PUSH1 0x4 DUP4 DUP4 SWAP1 POP LT ISZERO PUSH2 0x1C00 JUMPI PUSH1 0x40 MLOAD PUSH32 0x8C379A000000000000000000000000000000000000000000000000000000000 DUP2 MSTORE PUSH1 0x4 ADD PUSH2 0x1BF7 SWAP1 PUSH2 0x421D JUMP JUMPDEST PUSH1 0x40 MLOAD DUP1 SWAP2 SUB SWAP1 REVERT JUMPDEST DUP3 DUP3 PUSH0 SWAP1 PUSH1 0x4 SWAP3 PUSH2 0x1C13 SWAP4 SWAP3 SWAP2 SWAP1 PUSH2 0x4243 JUMP JUMPDEST SWAP1 PUSH2 0x1C1E SWAP2 SWAP1 PUSH2 0x42BE JUMP JUMPDEST SWAP1 POP SWAP3 SWAP2 POP POP JUMP JUMPDEST PUSH0 PUSH2 0x1C33 DUP4 PUSH0 ADD DUP4 PUSH2 0x260D JUMP JUMPDEST PUSH0 SHR SWAP1 POP SWAP3 SWAP2 POP POP JUMP JUMPDEST PUSH0 DUP1 PUSH1 0x44 DUP5 DUP5 SWAP1 POP LT ISZERO PUSH2 0x1C86 JUMPI PUSH1 0x40 MLOAD PUSH32 0x8C379A000000000000000000000000000000000000000000000000000000000 DUP2 MSTORE PUSH1 0x4 ADD PUSH2 0x1C7D SWAP1 PUSH2 0x421D JUMP JUMPDEST PUSH1 0x40 MLOAD DUP1 SWAP2 SUB SWAP1 REVERT JUMPDEST DUP4 DUP4 PUSH1 0x4 SWAP1 PUSH1 0x24 SWAP3 PUSH2 0x1C9A SWAP4 SWAP3 SWAP2 SWAP1 PUSH2 0x4243 JUMP JUMPDEST DUP2 ADD SWAP1 PUSH2 0x1CA7 SWAP2 SWAP1 PUSH2 0x4357 JUMP JUMPDEST SWAP2 POP DUP4 DUP4 PUSH1 0x24 SWAP1 PUSH1 0x44 SWAP3 PUSH2 0x1CBD SWAP4 SWAP3 SWAP2 SWAP1 PUSH2 0x4243 JUMP JUMPDEST DUP2 ADD SWAP1 PUSH2 0x1CCA SWAP2 SWAP1 PUSH2 0x4382 JUMP JUMPDEST SWAP1 POP SWAP3 POP SWAP3 SWAP1 POP JUMP JUMPDEST PUSH0 PUSH2 0x1CF8 DUP4 PUSH0 ADD DUP4 PUSH20 0xFFFFFFFFFFFFFFFFFFFFFFFFFFFFFFFFFFFFFFFF AND PUSH0 SHL PUSH2 0x2634 JUMP JUMPDEST SWAP1 POP SWAP3 SWAP2 POP POP JUMP JUMPDEST PUSH1 0x60 DUP1 PUSH1 0x60 PUSH1 0x64 DUP6 DUP6 SWAP1 POP LT ISZERO PUSH2 0x1D4C JUMPI PUSH1 0x40 MLOAD PUSH32 0x8C379A000000000000000000000000000000000000000000000000000000000 DUP2 MSTORE PUSH1 0x4 ADD PUSH2 0x1D43 SWAP1 PUSH2 0x421D JUMP JUMPDEST PUSH1 0x40 MLOAD DUP1 SWAP2 SUB SWAP1 REVERT JUMPDEST DUP5 DUP5 PUSH1 0x4 SWAP1 DUP1 SWAP3 PUSH2 0x1D5F SWAP4 SWAP3 SWAP2 SWAP1 PUSH2 0x4243 JUMP JUMPDEST DUP2 ADD SWAP1 PUSH2 0x1D6C SWAP2 SWAP1 PUSH2 0x4706 JUMP JUMPDEST DUP1 SWAP4 POP DUP2 SWAP5 POP DUP3 SWAP6 POP POP POP POP SWAP3 POP SWAP3 POP SWAP3 JUMP JUMPDEST PUSH2 0x1D87 PUSH2 0x13F1 JUMP JUMPDEST PUSH20 0xFFFFFFFFFFFFFFFFFFFFFFFFFFFFFFFFFFFFFFFF AND CALLER PUSH20 0xFFFFFFFFFFFFFFFFFFFFFFFFFFFFFFFFFFFFFFFF AND EQ PUSH2 0x1DF4 JUMPI PUSH1 0x40 MLOAD PUSH32 0x8C379A000000000000000000000000000000000000000000000000000000000 DUP2 MSTORE PUSH1 0x4 ADD PUSH2 0x1DEB SWAP1 PUSH2 0x47F4 JUMP JUMPDEST PUSH1 0x40 MLOAD DUP1 SWAP2 SUB SWAP1 REVERT JUMPDEST JUMP JUMPDEST PUSH0 DUP1 PUSH2 0x1E01 DUP4 PUSH2 0x2654 JUMP JUMPDEST SWAP1 POP PUSH0 PUSH2 0x1E69 DUP6 DUP1 PUSH2 0x140 ADD SWAP1 PUSH2 0x1E18 SWAP2 SWAP1 PUSH2 0x39D8 JUMP JUMPDEST DUP1 DUP1 PUSH1 0x1F ADD PUSH1 0x20 DUP1 SWAP2 DIV MUL PUSH1 0x20 ADD PUSH1 0x40 MLOAD SWAP1 DUP2 ADD PUSH1 0x40 MSTORE DUP1 SWAP4 SWAP3 SWAP2 SWAP1 DUP2 DUP2 MSTORE PUSH1 0x20 ADD DUP4 DUP4 DUP1 DUP3 DUP5 CALLDATACOPY PUSH0 DUP2 DUP5 ADD MSTORE PUSH1 0x1F NOT PUSH1 0x1F DUP3 ADD AND SWAP1 POP DUP1 DUP4 ADD SWAP3 POP POP POP POP POP POP POP DUP4 PUSH2 0x2687 SWAP1 SWAP2 SWAP1 PUSH4 0xFFFFFFFF AND JUMP JUMPDEST SWAP1 POP PUSH2 0x1E75 DUP2 DUP7 PUSH2 0x35B JUMP JUMPDEST PUSH2 0x1E84 JUMPI PUSH1 0x1 SWAP3 POP POP POP PUSH2 0x1FD5 JUMP JUMPDEST PUSH0 PUSH2 0x1E8D PUSH2 0x1B97 JUMP JUMPDEST PUSH1 0x5 ADD PUSH0 DUP4 PUSH20 0xFFFFFFFFFFFFFFFFFFFFFFFFFFFFFFFFFFFFFFFF AND PUSH20 0xFFFFFFFFFFFFFFFFFFFFFFFFFFFFFFFFFFFFFFFF AND DUP2 MSTORE PUSH1 0x20 ADD SWAP1 DUP2 MSTORE PUSH1 0x20 ADD PUSH0 KECCAK256 PUSH1 0x40 MLOAD DUP1 PUSH1 0x60 ADD PUSH1 0x40 MSTORE SWAP1 DUP2 PUSH0 DUP3 ADD SLOAD DUP2 MSTORE PUSH1 0x20 ADD PUSH1 0x1 DUP3 ADD PUSH0 SWAP1 SLOAD SWAP1 PUSH2 0x100 EXP SWAP1 DIV PUSH16 0xFFFFFFFFFFFFFFFFFFFFFFFFFFFFFFFF AND PUSH16 0xFFFFFFFFFFFFFFFFFFFFFFFFFFFFFFFF AND PUSH16 0xFFFFFFFFFFFFFFFFFFFFFFFFFFFFFFFF AND DUP2 MSTORE PUSH1 0x20 ADD PUSH1 0x1 DUP3 ADD PUSH1 0x10 SWAP1 SLOAD SWAP1 PUSH2 0x100 EXP SWAP1 DIV PUSH16 0xFFFFFFFFFFFFFFFFFFFFFFFFFFFFFFFF AND PUSH16 0xFFFFFFFFFFFFFFFFFFFFFFFFFFFFFFFF AND PUSH16 0xFFFFFFFFFFFFFFFFFFFFFFFFFFFFFFFF AND DUP2 MSTORE POP POP SWAP1 POP PUSH0 DUP2 PUSH1 0x20 ADD MLOAD SWAP1 POP PUSH0 DUP3 PUSH1 0x40 ADD MLOAD SWAP1 POP PUSH2 0x1FCD PUSH1 0x40 MLOAD DUP1 PUSH1 0x60 ADD PUSH1 0x40 MSTORE DUP1 PUSH0 PUSH20 0xFFFFFFFFFFFFFFFFFFFFFFFFFFFFFFFFFFFFFFFF AND DUP2 MSTORE PUSH1 0x20 ADD DUP5 PUSH6 0xFFFFFFFFFFFF AND DUP2 MSTORE PUSH1 0x20 ADD DUP4 PUSH6 0xFFFFFFFFFFFF AND DUP2 MSTORE POP PUSH2 0x26AC JUMP JUMPDEST SWAP6 POP POP POP POP POP POP JUMPDEST SWAP3 SWAP2 POP POP JUMP JUMPDEST POP JUMP JUMPDEST PUSH0 DUP2 EQ PUSH2 0x2072 JUMPI PUSH0 CALLER PUSH20 0xFFFFFFFFFFFFFFFFFFFFFFFFFFFFFFFFFFFFFFFF AND DUP3 PUSH32 0xFFFFFFFFFFFFFFFFFFFFFFFFFFFFFFFFFFFFFFFFFFFFFFFFFFFFFFFFFFFFFFFF SWAP1 PUSH1 0x40 MLOAD PUSH2 0x202C SWAP1 PUSH2 0x483F JUMP JUMPDEST PUSH0 PUSH1 0x40 MLOAD DUP1 DUP4 SUB DUP2 DUP6 DUP9 DUP9 CALL SWAP4 POP POP POP POP RETURNDATASIZE DUP1 PUSH0 DUP2 EQ PUSH2 0x2067 JUMPI PUSH1 0x40 MLOAD SWAP2 POP PUSH1 0x1F NOT PUSH1 0x3F RETURNDATASIZE ADD AND DUP3 ADD PUSH1 0x40 MSTORE RETURNDATASIZE DUP3 MSTORE RETURNDATASIZE PUSH0 PUSH1 0x20 DUP5 ADD RETURNDATACOPY PUSH2 0x206C JUMP JUMPDEST PUSH1 0x60 SWAP2 POP JUMPDEST POP POP SWAP1 POP POP JUMPDEST POP JUMP JUMPDEST PUSH2 0x207F DUP3 DUP3 PUSH2 0x26F2 JUMP JUMPDEST PUSH0 PUSH32 0x0 PUSH20 0xFFFFFFFFFFFFFFFFFFFFFFFFFFFFFFFFFFFFFFFF AND EXTCODESIZE GT ISZERO PUSH2 0x21F1 JUMPI DUP1 ISZERO PUSH2 0x215C JUMPI PUSH32 0x0 PUSH20 0xFFFFFFFFFFFFFFFFFFFFFFFFFFFFFFFFFFFFFFFF AND PUSH4 0xB61E12B DUP4 PUSH2 0x2109 PUSH2 0x24F6 JUMP JUMPDEST PUSH1 0x1 ADD SLOAD PUSH1 0x40 MLOAD DUP4 PUSH4 0xFFFFFFFF AND PUSH1 0xE0 SHL DUP2 MSTORE PUSH1 0x4 ADD PUSH2 0x212A SWAP3 SWAP2 SWAP1 PUSH2 0x4862 JUMP JUMPDEST PUSH0 PUSH1 0x40 MLOAD DUP1 DUP4 SUB DUP2 PUSH0 DUP8 DUP1 EXTCODESIZE ISZERO DUP1 ISZERO PUSH2 0x2141 JUMPI PUSH0 DUP1 REVERT JUMPDEST POP GAS CALL ISZERO DUP1 ISZERO PUSH2 0x2153 JUMPI RETURNDATASIZE PUSH0 DUP1 RETURNDATACOPY RETURNDATASIZE PUSH0 REVERT JUMPDEST POP POP POP POP PUSH2 0x21F0 JUMP JUMPDEST PUSH32 0x0 PUSH20 0xFFFFFFFFFFFFFFFFFFFFFFFFFFFFFFFFFFFFFFFF AND PUSH4 0x9387A380 DUP4 PUSH2 0x21A1 PUSH2 0x24F6 JUMP JUMPDEST PUSH1 0x1 ADD SLOAD PUSH1 0x40 MLOAD DUP4 PUSH4 0xFFFFFFFF AND PUSH1 0xE0 SHL DUP2 MSTORE PUSH1 0x4 ADD PUSH2 0x21C2 SWAP3 SWAP2 SWAP1 PUSH2 0x4862 JUMP JUMPDEST PUSH0 PUSH1 0x40 MLOAD DUP1 DUP4 SUB DUP2 PUSH0 DUP8 DUP1 EXTCODESIZE ISZERO DUP1 ISZERO PUSH2 0x21D9 JUMPI PUSH0 DUP1 REVERT JUMPDEST POP GAS CALL ISZERO DUP1 ISZERO PUSH2 0x21EB JUMPI RETURNDATASIZE PUSH0 DUP1 RETURNDATACOPY RETURNDATASIZE PUSH0 REVERT JUMPDEST POP POP POP POP JUMPDEST JUMPDEST POP POP JUMP JUMPDEST PUSH0 PUSH2 0x221A DUP4 PUSH0 ADD DUP4 PUSH20 0xFFFFFFFFFFFFFFFFFFFFFFFFFFFFFFFFFFFFFFFF AND PUSH0 SHL PUSH2 0x27E7 JUMP JUMPDEST SWAP1 POP SWAP3 SWAP2 POP POP JUMP JUMPDEST PUSH1 0x60 PUSH0 PUSH2 0x2230 DUP4 PUSH0 ADD PUSH2 0x284E JUMP JUMPDEST SWAP1 POP PUSH1 0x60 DUP2 SWAP1 POP DUP1 SWAP3 POP POP POP SWAP2 SWAP1 POP JUMP JUMPDEST PUSH0 PUSH2 0x2266 DUP4 PUSH0 ADD DUP4 PUSH20 0xFFFFFFFFFFFFFFFFFFFFFFFFFFFFFFFFFFFFFFFF AND PUSH0 SHL PUSH2 0x28A7 JUMP JUMPDEST SWAP1 POP SWAP3 SWAP2 POP POP JUMP JUMPDEST PUSH0 PUSH32 0x0 PUSH20 0xFFFFFFFFFFFFFFFFFFFFFFFFFFFFFFFFFFFFFFFF AND EXTCODESIZE GT ISZERO PUSH2 0x2352 JUMPI PUSH32 0x0 PUSH20 0xFFFFFFFFFFFFFFFFFFFFFFFFFFFFFFFFFFFFFFFF AND PUSH4 0xB61E12B DUP3 PUSH0 ADD PUSH1 0x20 DUP2 ADD SWAP1 PUSH2 0x22FB SWAP2 SWAP1 PUSH2 0x30C6 JUMP JUMPDEST PUSH2 0x2303 PUSH2 0x24F6 JUMP JUMPDEST PUSH1 0x1 ADD SLOAD PUSH1 0x40 MLOAD DUP4 PUSH4 0xFFFFFFFF AND PUSH1 0xE0 SHL DUP2 MSTORE PUSH1 0x4 ADD PUSH2 0x2324 SWAP3 SWAP2 SWAP1 PUSH2 0x4862 JUMP JUMPDEST PUSH0 PUSH1 0x40 MLOAD DUP1 DUP4 SUB DUP2 PUSH0 DUP8 DUP1 EXTCODESIZE ISZERO DUP1 ISZERO PUSH2 0x233B JUMPI PUSH0 DUP1 REVERT JUMPDEST POP GAS CALL ISZERO DUP1 ISZERO PUSH2 0x234D JUMPI RETURNDATASIZE PUSH0 DUP1 RETURNDATACOPY RETURNDATASIZE PUSH0 REVERT JUMPDEST POP POP POP POP JUMPDEST POP JUMP JUMPDEST PUSH1 0x60 PUSH32 0x3FD4A1A1A267C84185E3B7EECD57C68783C0581D538B9D6E5F23E4670497C1E9 DUP3 PUSH0 ADD PUSH1 0x20 DUP2 ADD SWAP1 PUSH2 0x238A SWAP2 SWAP1 PUSH2 0x30C6 JUMP JUMPDEST DUP4 PUSH1 0x20 ADD PUSH1 0x20 DUP2 ADD SWAP1 PUSH2 0x239D SWAP2 SWAP1 PUSH2 0x3BD2 JUMP JUMPDEST DUP5 DUP1 PUSH1 0x40 ADD SWAP1 PUSH2 0x23AD SWAP2 SWAP1 PUSH2 0x3CC5 JUMP JUMPDEST PUSH1 0x40 MLOAD PUSH1 0x20 ADD PUSH2 0x23BE SWAP3 SWAP2 SWAP1 PUSH2 0x4914 JUMP JUMPDEST PUSH1 0x40 MLOAD PUSH1 0x20 DUP2 DUP4 SUB SUB DUP2 MSTORE SWAP1 PUSH1 0x40 MSTORE DUP1 MLOAD SWAP1 PUSH1 0x20 ADD KECCAK256 DUP6 PUSH1 0x60 ADD CALLDATALOAD DUP7 PUSH1 0x80 ADD PUSH1 0x20 DUP2 ADD SWAP1 PUSH2 0x23EC SWAP2 SWAP1 PUSH2 0x3A91 JUMP JUMPDEST DUP8 PUSH1 0xA0 ADD PUSH1 0x20 DUP2 ADD SWAP1 PUSH2 0x23FF SWAP2 SWAP1 PUSH2 0x3A91 JUMP JUMPDEST DUP9 PUSH1 0xC0 ADD PUSH1 0x20 DUP2 ADD SWAP1 PUSH2 0x2412 SWAP2 SWAP1 PUSH2 0x3A91 JUMP JUMPDEST DUP10 PUSH1 0xE0 ADD PUSH1 0x20 DUP2 ADD SWAP1 PUSH2 0x2425 SWAP2 SWAP1 PUSH2 0x3A91 JUMP JUMPDEST DUP11 PUSH2 0x100 ADD CALLDATALOAD PUSH1 0x40 MLOAD PUSH1 0x20 ADD PUSH2 0x2444 SWAP11 SWAP10 SWAP9 SWAP8 SWAP7 SWAP6 SWAP5 SWAP4 SWAP3 SWAP2 SWAP1 PUSH2 0x494A JUMP JUMPDEST PUSH1 0x40 MLOAD PUSH1 0x20 DUP2 DUP4 SUB SUB DUP2 MSTORE SWAP1 PUSH1 0x40 MSTORE SWAP1 POP SWAP2 SWAP1 POP JUMP JUMPDEST PUSH0 PUSH2 0x24C0 DUP4 DUP4 DUP1 DUP1 PUSH1 0x1F ADD PUSH1 0x20 DUP1 SWAP2 DIV MUL PUSH1 0x20 ADD PUSH1 0x40 MLOAD SWAP1 DUP2 ADD PUSH1 0x40 MSTORE DUP1 SWAP4 SWAP3 SWAP2 SWAP1 DUP2 DUP2 MSTORE PUSH1 0x20 ADD DUP4 DUP4 DUP1 DUP3 DUP5 CALLDATACOPY PUSH0 DUP2 DUP5 ADD MSTORE PUSH1 0x1F NOT PUSH1 0x1F DUP3 ADD AND SWAP1 POP DUP1 DUP4 ADD SWAP3 POP POP POP POP POP POP POP PUSH2 0x24B2 DUP7 DUP1 MLOAD SWAP1 PUSH1 0x20 ADD KECCAK256 PUSH2 0x29A3 JUMP JUMPDEST PUSH2 0x2687 SWAP1 SWAP2 SWAP1 PUSH4 0xFFFFFFFF AND JUMP JUMPDEST SWAP1 POP SWAP4 SWAP3 POP POP POP JUMP JUMPDEST PUSH1 0x60 PUSH2 0x24EE DUP4 DUP4 PUSH1 0x40 MLOAD DUP1 PUSH1 0x60 ADD PUSH1 0x40 MSTORE DUP1 PUSH1 0x27 DUP2 MSTORE PUSH1 0x20 ADD PUSH2 0x4E52 PUSH1 0x27 SWAP2 CODECOPY PUSH2 0x29BC JUMP JUMPDEST SWAP1 POP SWAP3 SWAP2 POP POP JUMP JUMPDEST PUSH0 DUP1 PUSH32 0x36F52C1827DAB135F7FD44CA0BDDDE297E2F659C710E0EC53E975F22B548300 PUSH0 SHL SWAP1 POP DUP1 SWAP2 POP POP SWAP1 JUMP JUMPDEST PUSH2 0x252D CALLER PUSH2 0x7B3 JUMP JUMPDEST PUSH2 0x256C JUMPI PUSH1 0x40 MLOAD PUSH32 0x8C379A000000000000000000000000000000000000000000000000000000000 DUP2 MSTORE PUSH1 0x4 ADD PUSH2 0x2563 SWAP1 PUSH2 0x4A2E JUMP JUMPDEST PUSH1 0x40 MLOAD DUP1 SWAP2 SUB SWAP1 REVERT JUMPDEST JUMP JUMPDEST PUSH0 PUSH2 0x2577 PUSH2 0x2A97 JUMP JUMPDEST SWAP1 POP SWAP1 JUMP JUMPDEST PUSH0 DUP1 DUP3 PUSH20 0xFFFFFFFFFFFFFFFFFFFFFFFFFFFFFFFFFFFFFFFF AND EXTCODESIZE GT SWAP1 POP SWAP2 SWAP1 POP JUMP JUMPDEST PUSH0 DUP3 DUP3 PUSH1 0x40 MLOAD PUSH1 0x20 ADD PUSH2 0x25B2 SWAP3 SWAP2 SWAP1 PUSH2 0x4A94 JUMP JUMPDEST PUSH1 0x40 MLOAD PUSH1 0x20 DUP2 DUP4 SUB SUB DUP2 MSTORE SWAP1 PUSH1 0x40 MSTORE DUP1 MLOAD SWAP1 PUSH1 0x20 ADD KECCAK256 SWAP1 POP SWAP3 SWAP2 POP POP JUMP JUMPDEST PUSH0 DUP1 PUSH32 0x3181E78FC1B109BC611FD2406150BF06E33FAA75F71CBA12C3E1FD670F2DEF00 PUSH0 SHL SWAP1 POP DUP1 SWAP2 POP POP SWAP1 JUMP JUMPDEST PUSH0 DUP2 PUSH0 ADD DUP1 SLOAD SWAP1 POP SWAP1 POP SWAP2 SWAP1 POP JUMP JUMPDEST PUSH0 DUP3 PUSH0 ADD DUP3 DUP2 SLOAD DUP2 LT PUSH2 0x2623 JUMPI PUSH2 0x2622 PUSH2 0x3A3A JUMP JUMPDEST JUMPDEST SWAP1 PUSH0 MSTORE PUSH1 0x20 PUSH0 KECCAK256 ADD SLOAD SWAP1 POP SWAP3 SWAP2 POP POP JUMP JUMPDEST PUSH0 DUP1 DUP4 PUSH1 0x1 ADD PUSH0 DUP5 DUP2 MSTORE PUSH1 0x20 ADD SWAP1 DUP2 MSTORE PUSH1 0x20 ADD PUSH0 KECCAK256 SLOAD EQ ISZERO SWAP1 POP SWAP3 SWAP2 POP POP JUMP JUMPDEST PUSH0 PUSH32 0x19457468657265756D205369676E6564204D6573736167653A0A333200000000 PUSH0 MSTORE DUP2 PUSH1 0x1C MSTORE PUSH1 0x3C PUSH0 KECCAK256 SWAP1 POP SWAP2 SWAP1 POP JUMP JUMPDEST PUSH0 DUP1 PUSH0 PUSH2 0x2694 DUP6 DUP6 PUSH2 0x2AC5 JUMP JUMPDEST SWAP2 POP SWAP2 POP PUSH2 0x26A1 DUP2 PUSH2 0x2B11 JUMP JUMPDEST DUP2 SWAP3 POP POP POP SWAP3 SWAP2 POP POP JUMP JUMPDEST PUSH0 PUSH1 0xD0 DUP3 PUSH1 0x20 ADD MLOAD PUSH6 0xFFFFFFFFFFFF AND SWAP1 SHL PUSH1 0xA0 DUP4 PUSH1 0x40 ADD MLOAD PUSH6 0xFFFFFFFFFFFF AND SWAP1 SHL DUP4 PUSH0 ADD MLOAD PUSH20 0xFFFFFFFFFFFFFFFFFFFFFFFFFFFFFFFFFFFFFFFF AND OR OR SWAP1 POP SWAP2 SWAP1 POP JUMP JUMPDEST DUP1 PUSH2 0x26FB PUSH2 0x1B97 JUMP JUMPDEST PUSH1 0x4 ADD PUSH0 DUP5 PUSH20 0xFFFFFFFFFFFFFFFFFFFFFFFFFFFFFFFFFFFFFFFF AND PUSH20 0xFFFFFFFFFFFFFFFFFFFFFFFFFFFFFFFFFFFFFFFF AND DUP2 MSTORE PUSH1 0x20 ADD SWAP1 DUP2 MSTORE PUSH1 0x20 ADD PUSH0 KECCAK256 PUSH0 PUSH2 0x100 EXP DUP2 SLOAD DUP2 PUSH1 0xFF MUL NOT AND SWAP1 DUP4 ISZERO ISZERO MUL OR SWAP1 SSTORE POP DUP1 ISZERO PUSH2 0x2777 JUMPI PUSH2 0x2771 DUP3 PUSH2 0x2761 PUSH2 0x1B97 JUMP JUMPDEST PUSH0 ADD PUSH2 0x21F5 SWAP1 SWAP2 SWAP1 PUSH4 0xFFFFFFFF AND JUMP JUMPDEST POP PUSH2 0x2795 JUMP JUMPDEST PUSH2 0x2793 DUP3 PUSH2 0x2783 PUSH2 0x1B97 JUMP JUMPDEST PUSH0 ADD PUSH2 0x2241 SWAP1 SWAP2 SWAP1 PUSH4 0xFFFFFFFF AND JUMP JUMPDEST POP JUMPDEST DUP2 PUSH20 0xFFFFFFFFFFFFFFFFFFFFFFFFFFFFFFFFFFFFFFFF AND PUSH32 0x235BC17E7930760029E9F4D860A2A8089976DE5B381CF8380FC11C1D88A11133 DUP3 PUSH1 0x40 MLOAD PUSH2 0x27DB SWAP2 SWAP1 PUSH2 0x30AD JUMP JUMPDEST PUSH1 0x40 MLOAD DUP1 SWAP2 SUB SWAP1 LOG2 POP POP JUMP JUMPDEST PUSH0 PUSH2 0x27F2 DUP4 DUP4 PUSH2 0x2634 JUMP JUMPDEST PUSH2 0x2844 JUMPI DUP3 PUSH0 ADD DUP3 SWAP1 DUP1 PUSH1 0x1 DUP2 SLOAD ADD DUP1 DUP3 SSTORE DUP1 SWAP2 POP POP PUSH1 0x1 SWAP1 SUB SWAP1 PUSH0 MSTORE PUSH1 0x20 PUSH0 KECCAK256 ADD PUSH0 SWAP1 SWAP2 SWAP1 SWAP2 SWAP1 SWAP2 POP SSTORE DUP3 PUSH0 ADD DUP1 SLOAD SWAP1 POP DUP4 PUSH1 0x1 ADD PUSH0 DUP5 DUP2 MSTORE PUSH1 0x20 ADD SWAP1 DUP2 MSTORE PUSH1 0x20 ADD PUSH0 KECCAK256 DUP2 SWAP1 SSTORE POP PUSH1 0x1 SWAP1 POP PUSH2 0x2848 JUMP JUMPDEST PUSH0 SWAP1 POP JUMPDEST SWAP3 SWAP2 POP POP JUMP JUMPDEST PUSH1 0x60 DUP2 PUSH0 ADD DUP1 SLOAD DUP1 PUSH1 0x20 MUL PUSH1 0x20 ADD PUSH1 0x40 MLOAD SWAP1 DUP2 ADD PUSH1 0x40 MSTORE DUP1 SWAP3 SWAP2 SWAP1 DUP2 DUP2 MSTORE PUSH1 0x20 ADD DUP3 DUP1 SLOAD DUP1 ISZERO PUSH2 0x289B JUMPI PUSH1 0x20 MUL DUP3 ADD SWAP2 SWAP1 PUSH0 MSTORE PUSH1 0x20 PUSH0 KECCAK256 SWAP1 JUMPDEST DUP2 SLOAD DUP2 MSTORE PUSH1 0x20 ADD SWAP1 PUSH1 0x1 ADD SWAP1 DUP1 DUP4 GT PUSH2 0x2887 JUMPI JUMPDEST POP POP POP POP POP SWAP1 POP SWAP2 SWAP1 POP JUMP JUMPDEST PUSH0 DUP1 DUP4 PUSH1 0x1 ADD PUSH0 DUP5 DUP2 MSTORE PUSH1 0x20 ADD SWAP1 DUP2 MSTORE PUSH1 0x20 ADD PUSH0 KECCAK256 SLOAD SWAP1 POP PUSH0 DUP2 EQ PUSH2 0x2998 JUMPI PUSH0 PUSH1 0x1 DUP3 PUSH2 0x28D4 SWAP2 SWAP1 PUSH2 0x4AC2 JUMP JUMPDEST SWAP1 POP PUSH0 PUSH1 0x1 DUP7 PUSH0 ADD DUP1 SLOAD SWAP1 POP PUSH2 0x28EA SWAP2 SWAP1 PUSH2 0x4AC2 JUMP JUMPDEST SWAP1 POP DUP2 DUP2 EQ PUSH2 0x2950 JUMPI PUSH0 DUP7 PUSH0 ADD DUP3 DUP2 SLOAD DUP2 LT PUSH2 0x2909 JUMPI PUSH2 0x2908 PUSH2 0x3A3A JUMP JUMPDEST JUMPDEST SWAP1 PUSH0 MSTORE PUSH1 0x20 PUSH0 KECCAK256 ADD SLOAD SWAP1 POP DUP1 DUP8 PUSH0 ADD DUP5 DUP2 SLOAD DUP2 LT PUSH2 0x292A JUMPI PUSH2 0x2929 PUSH2 0x3A3A JUMP JUMPDEST JUMPDEST SWAP1 PUSH0 MSTORE PUSH1 0x20 PUSH0 KECCAK256 ADD DUP2 SWAP1 SSTORE POP DUP4 DUP8 PUSH1 0x1 ADD PUSH0 DUP4 DUP2 MSTORE PUSH1 0x20 ADD SWAP1 DUP2 MSTORE PUSH1 0x20 ADD PUSH0 KECCAK256 DUP2 SWAP1 SSTORE POP POP JUMPDEST DUP6 PUSH0 ADD DUP1 SLOAD DUP1 PUSH2 0x2963 JUMPI PUSH2 0x2962 PUSH2 0x4AF5 JUMP JUMPDEST JUMPDEST PUSH1 0x1 SWAP1 SUB DUP2 DUP2 SWAP1 PUSH0 MSTORE PUSH1 0x20 PUSH0 KECCAK256 ADD PUSH0 SWAP1 SSTORE SWAP1 SSTORE DUP6 PUSH1 0x1 ADD PUSH0 DUP7 DUP2 MSTORE PUSH1 0x20 ADD SWAP1 DUP2 MSTORE PUSH1 0x20 ADD PUSH0 KECCAK256 PUSH0 SWAP1 SSTORE PUSH1 0x1 SWAP4 POP POP POP POP PUSH2 0x299D JUMP JUMPDEST PUSH0 SWAP2 POP POP JUMPDEST SWAP3 SWAP2 POP POP JUMP JUMPDEST PUSH0 PUSH2 0x29B5 PUSH2 0x29AF PUSH2 0x2C76 JUMP JUMPDEST DUP4 PUSH2 0x2D8F JUMP JUMPDEST SWAP1 POP SWAP2 SWAP1 POP JUMP JUMPDEST PUSH1 0x60 PUSH2 0x29C7 DUP5 PUSH2 0x257C JUMP JUMPDEST DUP1 ISZERO PUSH2 0x29D9 JUMPI POP PUSH2 0x29D7 CALLER PUSH2 0x257C JUMP JUMPDEST ISZERO JUMPDEST PUSH2 0x2A18 JUMPI PUSH1 0x40 MLOAD PUSH32 0x8C379A000000000000000000000000000000000000000000000000000000000 DUP2 MSTORE PUSH1 0x4 ADD PUSH2 0x2A0F SWAP1 PUSH2 0x4B6C JUMP JUMPDEST PUSH1 0x40 MLOAD DUP1 SWAP2 SUB SWAP1 REVERT JUMPDEST PUSH0 DUP1 DUP6 PUSH20 0xFFFFFFFFFFFFFFFFFFFFFFFFFFFFFFFFFFFFFFFF AND DUP6 PUSH1 0x40 MLOAD PUSH2 0x2A3F SWAP2 SWAP1 PUSH2 0x4BBA JUMP JUMPDEST PUSH0 PUSH1 0x40 MLOAD DUP1 DUP4 SUB DUP2 DUP6 GAS DELEGATECALL SWAP2 POP POP RETURNDATASIZE DUP1 PUSH0 DUP2 EQ PUSH2 0x2A77 JUMPI PUSH1 0x40 MLOAD SWAP2 POP PUSH1 0x1F NOT PUSH1 0x3F RETURNDATASIZE ADD AND DUP3 ADD PUSH1 0x40 MSTORE RETURNDATASIZE DUP3 MSTORE RETURNDATASIZE PUSH0 PUSH1 0x20 DUP5 ADD RETURNDATACOPY PUSH2 0x2A7C JUMP JUMPDEST PUSH1 0x60 SWAP2 POP JUMPDEST POP SWAP2 POP SWAP2 POP PUSH2 0x2A8C DUP3 DUP3 DUP7 PUSH2 0x2DCF JUMP JUMPDEST SWAP3 POP POP POP SWAP4 SWAP3 POP POP POP JUMP JUMPDEST PUSH0 DUP1 PUSH32 0x322CF19C484104D3B1A9C2982EBAE869EDE3FA5F6C4703CA41B9A48C76EE0300 PUSH0 SHL SWAP1 POP DUP1 SWAP2 POP POP SWAP1 JUMP JUMPDEST PUSH0 DUP1 PUSH1 0x41 DUP4 MLOAD SUB PUSH2 0x2B02 JUMPI PUSH0 DUP1 PUSH0 PUSH1 0x20 DUP7 ADD MLOAD SWAP3 POP PUSH1 0x40 DUP7 ADD MLOAD SWAP2 POP PUSH1 0x60 DUP7 ADD MLOAD PUSH0 BYTE SWAP1 POP PUSH2 0x2AF6 DUP8 DUP3 DUP6 DUP6 PUSH2 0x2E35 JUMP JUMPDEST SWAP5 POP SWAP5 POP POP POP POP PUSH2 0x2B0A JUMP JUMPDEST PUSH0 PUSH1 0x2 SWAP2 POP SWAP2 POP JUMPDEST SWAP3 POP SWAP3 SWAP1 POP JUMP JUMPDEST PUSH0 PUSH1 0x4 DUP2 GT ISZERO PUSH2 0x2B24 JUMPI PUSH2 0x2B23 PUSH2 0x4BD0 JUMP JUMPDEST JUMPDEST DUP2 PUSH1 0x4 DUP2 GT ISZERO PUSH2 0x2B37 JUMPI PUSH2 0x2B36 PUSH2 0x4BD0 JUMP JUMPDEST JUMPDEST SUB ISZERO PUSH2 0x2C73 JUMPI PUSH1 0x1 PUSH1 0x4 DUP2 GT ISZERO PUSH2 0x2B51 JUMPI PUSH2 0x2B50 PUSH2 0x4BD0 JUMP JUMPDEST JUMPDEST DUP2 PUSH1 0x4 DUP2 GT ISZERO PUSH2 0x2B64 JUMPI PUSH2 0x2B63 PUSH2 0x4BD0 JUMP JUMPDEST JUMPDEST SUB PUSH2 0x2BA4 JUMPI PUSH1 0x40 MLOAD PUSH32 0x8C379A000000000000000000000000000000000000000000000000000000000 DUP2 MSTORE PUSH1 0x4 ADD PUSH2 0x2B9B SWAP1 PUSH2 0x4C47 JUMP JUMPDEST PUSH1 0x40 MLOAD DUP1 SWAP2 SUB SWAP1 REVERT JUMPDEST PUSH1 0x2 PUSH1 0x4 DUP2 GT ISZERO PUSH2 0x2BB8 JUMPI PUSH2 0x2BB7 PUSH2 0x4BD0 JUMP JUMPDEST JUMPDEST DUP2 PUSH1 0x4 DUP2 GT ISZERO PUSH2 0x2BCB JUMPI PUSH2 0x2BCA PUSH2 0x4BD0 JUMP JUMPDEST JUMPDEST SUB PUSH2 0x2C0B JUMPI PUSH1 0x40 MLOAD PUSH32 0x8C379A000000000000000000000000000000000000000000000000000000000 DUP2 MSTORE PUSH1 0x4 ADD PUSH2 0x2C02 SWAP1 PUSH2 0x4CAF JUMP JUMPDEST PUSH1 0x40 MLOAD DUP1 SWAP2 SUB SWAP1 REVERT JUMPDEST PUSH1 0x3 PUSH1 0x4 DUP2 GT ISZERO PUSH2 0x2C1F JUMPI PUSH2 0x2C1E PUSH2 0x4BD0 JUMP JUMPDEST JUMPDEST DUP2 PUSH1 0x4 DUP2 GT ISZERO PUSH2 0x2C32 JUMPI PUSH2 0x2C31 PUSH2 0x4BD0 JUMP JUMPDEST JUMPDEST SUB PUSH2 0x2C72 JUMPI PUSH1 0x40 MLOAD PUSH32 0x8C379A000000000000000000000000000000000000000000000000000000000 DUP2 MSTORE PUSH1 0x4 ADD PUSH2 0x2C69 SWAP1 PUSH2 0x4D3D JUMP JUMPDEST PUSH1 0x40 MLOAD DUP1 SWAP2 SUB SWAP1 REVERT JUMPDEST JUMPDEST POP JUMP JUMPDEST PUSH0 PUSH32 0x0 PUSH20 0xFFFFFFFFFFFFFFFFFFFFFFFFFFFFFFFFFFFFFFFF AND ADDRESS PUSH20 0xFFFFFFFFFFFFFFFFFFFFFFFFFFFFFFFFFFFFFFFF AND EQ DUP1 ISZERO PUSH2 0x2CF1 JUMPI POP PUSH32 0x0 CHAINID EQ JUMPDEST ISZERO PUSH2 0x2D1E JUMPI PUSH32 0x0 SWAP1 POP PUSH2 0x2D8C JUMP JUMPDEST PUSH2 0x2D89 PUSH32 0x0 PUSH32 0x0 PUSH32 0x0 PUSH2 0x2F0D JUMP JUMPDEST SWAP1 POP JUMPDEST SWAP1 JUMP JUMPDEST PUSH0 PUSH1 0x40 MLOAD PUSH32 0x1901000000000000000000000000000000000000000000000000000000000000 DUP2 MSTORE DUP4 PUSH1 0x2 DUP3 ADD MSTORE DUP3 PUSH1 0x22 DUP3 ADD MSTORE PUSH1 0x42 DUP2 KECCAK256 SWAP2 POP POP SWAP3 SWAP2 POP POP JUMP JUMPDEST PUSH1 0x60 DUP4 ISZERO PUSH2 0x2DDF JUMPI DUP3 SWAP1 POP PUSH2 0x2E2E JUMP JUMPDEST PUSH0 DUP4 MLOAD GT ISZERO PUSH2 0x2DF1 JUMPI DUP3 MLOAD DUP1 DUP5 PUSH1 0x20 ADD REVERT JUMPDEST DUP2 PUSH1 0x40 MLOAD PUSH32 0x8C379A000000000000000000000000000000000000000000000000000000000 DUP2 MSTORE PUSH1 0x4 ADD PUSH2 0x2E25 SWAP2 SWAP1 PUSH2 0x4D9D JUMP JUMPDEST PUSH1 0x40 MLOAD DUP1 SWAP2 SUB SWAP1 REVERT JUMPDEST SWAP4 SWAP3 POP POP POP JUMP JUMPDEST PUSH0 DUP1 PUSH32 0x7FFFFFFFFFFFFFFFFFFFFFFFFFFFFFFF5D576E7357A4501DDFE92F46681B20A0 DUP4 PUSH0 SHR GT ISZERO PUSH2 0x2E6D JUMPI PUSH0 PUSH1 0x3 SWAP2 POP SWAP2 POP PUSH2 0x2F04 JUMP JUMPDEST PUSH0 PUSH1 0x1 DUP8 DUP8 DUP8 DUP8 PUSH1 0x40 MLOAD PUSH0 DUP2 MSTORE PUSH1 0x20 ADD PUSH1 0x40 MSTORE PUSH1 0x40 MLOAD PUSH2 0x2E90 SWAP5 SWAP4 SWAP3 SWAP2 SWAP1 PUSH2 0x4DBD JUMP JUMPDEST PUSH1 0x20 PUSH1 0x40 MLOAD PUSH1 0x20 DUP2 SUB SWAP1 DUP1 DUP5 SUB SWAP1 DUP6 GAS STATICCALL ISZERO DUP1 ISZERO PUSH2 0x2EB0 JUMPI RETURNDATASIZE PUSH0 DUP1 RETURNDATACOPY RETURNDATASIZE PUSH0 REVERT JUMPDEST POP POP POP PUSH1 0x20 PUSH1 0x40 MLOAD SUB MLOAD SWAP1 POP PUSH0 PUSH20 0xFFFFFFFFFFFFFFFFFFFFFFFFFFFFFFFFFFFFFFFF AND DUP2 PUSH20 0xFFFFFFFFFFFFFFFFFFFFFFFFFFFFFFFFFFFFFFFF AND SUB PUSH2 0x2EFC JUMPI PUSH0 PUSH1 0x1 SWAP3 POP SWAP3 POP POP PUSH2 0x2F04 JUMP JUMPDEST DUP1 PUSH0 SWAP3 POP SWAP3 POP POP JUMPDEST SWAP5 POP SWAP5 SWAP3 POP POP POP JUMP JUMPDEST PUSH0 DUP4 DUP4 DUP4 CHAINID ADDRESS PUSH1 0x40 MLOAD PUSH1 0x20 ADD PUSH2 0x2F27 SWAP6 SWAP5 SWAP4 SWAP3 SWAP2 SWAP1 PUSH2 0x4E00 JUMP JUMPDEST PUSH1 0x40 MLOAD PUSH1 0x20 DUP2 DUP4 SUB SUB DUP2 MSTORE SWAP1 PUSH1 0x40 MSTORE DUP1 MLOAD SWAP1 PUSH1 0x20 ADD KECCAK256 SWAP1 POP SWAP4 SWAP3 POP POP POP JUMP JUMPDEST PUSH1 0x40 MLOAD DUP1 PUSH1 0xA0 ADD PUSH1 0x40 MSTORE DUP1 PUSH0 PUSH20 0xFFFFFFFFFFFFFFFFFFFFFFFFFFFFFFFFFFFFFFFF AND DUP2 MSTORE PUSH1 0x20 ADD PUSH1 0x60 DUP2 MSTORE PUSH1 0x20 ADD PUSH0 DUP2 MSTORE PUSH1 0x20 ADD PUSH0 PUSH16 0xFFFFFFFFFFFFFFFFFFFFFFFFFFFFFFFF AND DUP2 MSTORE PUSH1 0x20 ADD PUSH0 PUSH16 0xFFFFFFFFFFFFFFFFFFFFFFFFFFFFFFFF AND DUP2 MSTORE POP SWAP1 JUMP JUMPDEST PUSH0 PUSH1 0x40 MLOAD SWAP1 POP SWAP1 JUMP JUMPDEST PUSH0 DUP1 REVERT JUMPDEST PUSH0 DUP1 REVERT JUMPDEST PUSH0 PUSH20 0xFFFFFFFFFFFFFFFFFFFFFFFFFFFFFFFFFFFFFFFF DUP3 AND SWAP1 POP SWAP2 SWAP1 POP JUMP JUMPDEST PUSH0 PUSH2 0x2FE5 DUP3 PUSH2 0x2FBC JUMP JUMPDEST SWAP1 POP SWAP2 SWAP1 POP JUMP JUMPDEST PUSH2 0x2FF5 DUP2 PUSH2 0x2FDB JUMP JUMPDEST DUP2 EQ PUSH2 0x2FFF JUMPI PUSH0 DUP1 REVERT JUMPDEST POP JUMP JUMPDEST PUSH0 DUP2 CALLDATALOAD SWAP1 POP PUSH2 0x3010 DUP2 PUSH2 0x2FEC JUMP JUMPDEST SWAP3 SWAP2 POP POP JUMP JUMPDEST PUSH0 DUP1 REVERT JUMPDEST PUSH0 PUSH2 0x160 DUP3 DUP5 SUB SLT ISZERO PUSH2 0x3030 JUMPI PUSH2 0x302F PUSH2 0x3016 JUMP JUMPDEST JUMPDEST DUP2 SWAP1 POP SWAP3 SWAP2 POP POP JUMP JUMPDEST PUSH0 DUP1 PUSH1 0x40 DUP4 DUP6 SUB SLT ISZERO PUSH2 0x304F JUMPI PUSH2 0x304E PUSH2 0x2FB4 JUMP JUMPDEST JUMPDEST PUSH0 PUSH2 0x305C DUP6 DUP3 DUP7 ADD PUSH2 0x3002 JUMP JUMPDEST SWAP3 POP POP PUSH1 0x20 DUP4 ADD CALLDATALOAD PUSH8 0xFFFFFFFFFFFFFFFF DUP2 GT ISZERO PUSH2 0x307D JUMPI PUSH2 0x307C PUSH2 0x2FB8 JUMP JUMPDEST JUMPDEST PUSH2 0x3089 DUP6 DUP3 DUP7 ADD PUSH2 0x301A JUMP JUMPDEST SWAP2 POP POP SWAP3 POP SWAP3 SWAP1 POP JUMP JUMPDEST PUSH0 DUP2 ISZERO ISZERO SWAP1 POP SWAP2 SWAP1 POP JUMP JUMPDEST PUSH2 0x30A7 DUP2 PUSH2 0x3093 JUMP JUMPDEST DUP3 MSTORE POP POP JUMP JUMPDEST PUSH0 PUSH1 0x20 DUP3 ADD SWAP1 POP PUSH2 0x30C0 PUSH0 DUP4 ADD DUP5 PUSH2 0x309E JUMP JUMPDEST SWAP3 SWAP2 POP POP JUMP JUMPDEST PUSH0 PUSH1 0x20 DUP3 DUP5 SUB SLT ISZERO PUSH2 0x30DB JUMPI PUSH2 0x30DA PUSH2 0x2FB4 JUMP JUMPDEST JUMPDEST PUSH0 PUSH2 0x30E8 DUP5 DUP3 DUP6 ADD PUSH2 0x3002 JUMP JUMPDEST SWAP2 POP POP SWAP3 SWAP2 POP POP JUMP JUMPDEST PUSH0 DUP2 SWAP1 POP SWAP2 SWAP1 POP JUMP JUMPDEST PUSH2 0x3103 DUP2 PUSH2 0x30F1 JUMP JUMPDEST DUP2 EQ PUSH2 0x310D JUMPI PUSH0 DUP1 REVERT JUMPDEST POP JUMP JUMPDEST PUSH0 DUP2 CALLDATALOAD SWAP1 POP PUSH2 0x311E DUP2 PUSH2 0x30FA JUMP JUMPDEST SWAP3 SWAP2 POP POP JUMP JUMPDEST PUSH0 DUP2 SWAP1 POP SWAP2 SWAP1 POP JUMP JUMPDEST PUSH2 0x3136 DUP2 PUSH2 0x3124 JUMP JUMPDEST DUP2 EQ PUSH2 0x3140 JUMPI PUSH0 DUP1 REVERT JUMPDEST POP JUMP JUMPDEST PUSH0 DUP2 CALLDATALOAD SWAP1 POP PUSH2 0x3151 DUP2 PUSH2 0x312D JUMP JUMPDEST SWAP3 SWAP2 POP POP JUMP JUMPDEST PUSH0 DUP1 PUSH0 PUSH1 0x60 DUP5 DUP7 SUB SLT ISZERO PUSH2 0x316E JUMPI PUSH2 0x316D PUSH2 0x2FB4 JUMP JUMPDEST JUMPDEST PUSH0 DUP5 ADD CALLDATALOAD PUSH8 0xFFFFFFFFFFFFFFFF DUP2 GT ISZERO PUSH2 0x318B JUMPI PUSH2 0x318A PUSH2 0x2FB8 JUMP JUMPDEST JUMPDEST PUSH2 0x3197 DUP7 DUP3 DUP8 ADD PUSH2 0x301A JUMP JUMPDEST SWAP4 POP POP PUSH1 0x20 PUSH2 0x31A8 DUP7 DUP3 DUP8 ADD PUSH2 0x3110 JUMP JUMPDEST SWAP3 POP POP PUSH1 0x40 PUSH2 0x31B9 DUP7 DUP3 DUP8 ADD PUSH2 0x3143 JUMP JUMPDEST SWAP2 POP POP SWAP3 POP SWAP3 POP SWAP3 JUMP JUMPDEST PUSH2 0x31CC DUP2 PUSH2 0x3124 JUMP JUMPDEST DUP3 MSTORE POP POP JUMP JUMPDEST PUSH0 PUSH1 0x20 DUP3 ADD SWAP1 POP PUSH2 0x31E5 PUSH0 DUP4 ADD DUP5 PUSH2 0x31C3 JUMP JUMPDEST SWAP3 SWAP2 POP POP JUMP JUMPDEST PUSH0 PUSH2 0x120 DUP3 DUP5 SUB SLT ISZERO PUSH2 0x3201 JUMPI PUSH2 0x3200 PUSH2 0x3016 JUMP JUMPDEST JUMPDEST DUP2 SWAP1 POP SWAP3 SWAP2 POP POP JUMP JUMPDEST PUSH0 DUP1 REVERT JUMPDEST PUSH0 DUP1 REVERT JUMPDEST PUSH0 DUP1 REVERT JUMPDEST PUSH0 DUP1 DUP4 PUSH1 0x1F DUP5 ADD SLT PUSH2 0x322B JUMPI PUSH2 0x322A PUSH2 0x320A JUMP JUMPDEST JUMPDEST DUP3 CALLDATALOAD SWAP1 POP PUSH8 0xFFFFFFFFFFFFFFFF DUP2 GT ISZERO PUSH2 0x3248 JUMPI PUSH2 0x3247 PUSH2 0x320E JUMP JUMPDEST JUMPDEST PUSH1 0x20 DUP4 ADD SWAP2 POP DUP4 PUSH1 0x1 DUP3 MUL DUP4 ADD GT ISZERO PUSH2 0x3264 JUMPI PUSH2 0x3263 PUSH2 0x3212 JUMP JUMPDEST JUMPDEST SWAP3 POP SWAP3 SWAP1 POP JUMP JUMPDEST PUSH0 DUP1 PUSH0 PUSH1 0x40 DUP5 DUP7 SUB SLT ISZERO PUSH2 0x3282 JUMPI PUSH2 0x3281 PUSH2 0x2FB4 JUMP JUMPDEST JUMPDEST PUSH0 DUP5 ADD CALLDATALOAD PUSH8 0xFFFFFFFFFFFFFFFF DUP2 GT ISZERO PUSH2 0x329F JUMPI PUSH2 0x329E PUSH2 0x2FB8 JUMP JUMPDEST JUMPDEST PUSH2 0x32AB DUP7 DUP3 DUP8 ADD PUSH2 0x31EB JUMP JUMPDEST SWAP4 POP POP PUSH1 0x20 DUP5 ADD CALLDATALOAD PUSH8 0xFFFFFFFFFFFFFFFF DUP2 GT ISZERO PUSH2 0x32CC JUMPI PUSH2 0x32CB PUSH2 0x2FB8 JUMP JUMPDEST JUMPDEST PUSH2 0x32D8 DUP7 DUP3 DUP8 ADD PUSH2 0x3216 JUMP JUMPDEST SWAP3 POP SWAP3 POP POP SWAP3 POP SWAP3 POP SWAP3 JUMP JUMPDEST PUSH0 DUP2 MLOAD SWAP1 POP SWAP2 SWAP1 POP JUMP JUMPDEST PUSH0 DUP3 DUP3 MSTORE PUSH1 0x20 DUP3 ADD SWAP1 POP SWAP3 SWAP2 POP POP JUMP JUMPDEST PUSH0 DUP2 SWAP1 POP PUSH1 0x20 DUP3 ADD SWAP1 POP SWAP2 SWAP1 POP JUMP JUMPDEST PUSH2 0x3316 DUP2 PUSH2 0x2FDB JUMP JUMPDEST DUP3 MSTORE POP POP JUMP JUMPDEST PUSH0 DUP2 MLOAD SWAP1 POP SWAP2 SWAP1 POP JUMP JUMPDEST PUSH0 DUP3 DUP3 MSTORE PUSH1 0x20 DUP3 ADD SWAP1 POP SWAP3 SWAP2 POP POP JUMP JUMPDEST PUSH0 DUP2 SWAP1 POP PUSH1 0x20 DUP3 ADD SWAP1 POP SWAP2 SWAP1 POP JUMP JUMPDEST PUSH0 PUSH2 0x3350 DUP4 DUP4 PUSH2 0x330D JUMP JUMPDEST PUSH1 0x20 DUP4 ADD SWAP1 POP SWAP3 SWAP2 POP POP JUMP JUMPDEST PUSH0 PUSH1 0x20 DUP3 ADD SWAP1 POP SWAP2 SWAP1 POP JUMP JUMPDEST PUSH0 PUSH2 0x3372 DUP3 PUSH2 0x331C JUMP JUMPDEST PUSH2 0x337C DUP2 DUP6 PUSH2 0x3326 JUMP JUMPDEST SWAP4 POP PUSH2 0x3387 DUP4 PUSH2 0x3336 JUMP JUMPDEST DUP1 PUSH0 JUMPDEST DUP4 DUP2 LT ISZERO PUSH2 0x33B7 JUMPI DUP2 MLOAD PUSH2 0x339E DUP9 DUP3 PUSH2 0x3345 JUMP JUMPDEST SWAP8 POP PUSH2 0x33A9 DUP4 PUSH2 0x335C JUMP JUMPDEST SWAP3 POP POP PUSH1 0x1 DUP2 ADD SWAP1 POP PUSH2 0x338A JUMP JUMPDEST POP DUP6 SWAP4 POP POP POP POP SWAP3 SWAP2 POP POP JUMP JUMPDEST PUSH2 0x33CD DUP2 PUSH2 0x3124 JUMP JUMPDEST DUP3 MSTORE POP POP JUMP JUMPDEST PUSH0 PUSH16 0xFFFFFFFFFFFFFFFFFFFFFFFFFFFFFFFF DUP3 AND SWAP1 POP SWAP2 SWAP1 POP JUMP JUMPDEST PUSH2 0x33F7 DUP2 PUSH2 0x33D3 JUMP JUMPDEST DUP3 MSTORE POP POP JUMP JUMPDEST PUSH0 PUSH1 0xA0 DUP4 ADD PUSH0 DUP4 ADD MLOAD PUSH2 0x3412 PUSH0 DUP7 ADD DUP3 PUSH2 0x330D JUMP JUMPDEST POP PUSH1 0x20 DUP4 ADD MLOAD DUP5 DUP3 SUB PUSH1 0x20 DUP7 ADD MSTORE PUSH2 0x342A DUP3 DUP3 PUSH2 0x3368 JUMP JUMPDEST SWAP2 POP POP PUSH1 0x40 DUP4 ADD MLOAD PUSH2 0x343F PUSH1 0x40 DUP7 ADD DUP3 PUSH2 0x33C4 JUMP JUMPDEST POP PUSH1 0x60 DUP4 ADD MLOAD PUSH2 0x3452 PUSH1 0x60 DUP7 ADD DUP3 PUSH2 0x33EE JUMP JUMPDEST POP PUSH1 0x80 DUP4 ADD MLOAD PUSH2 0x3465 PUSH1 0x80 DUP7 ADD DUP3 PUSH2 0x33EE JUMP JUMPDEST POP DUP1 SWAP2 POP POP SWAP3 SWAP2 POP POP JUMP JUMPDEST PUSH0 PUSH2 0x347B DUP4 DUP4 PUSH2 0x33FD JUMP JUMPDEST SWAP1 POP SWAP3 SWAP2 POP POP JUMP JUMPDEST PUSH0 PUSH1 0x20 DUP3 ADD SWAP1 POP SWAP2 SWAP1 POP JUMP JUMPDEST PUSH0 PUSH2 0x3499 DUP3 PUSH2 0x32E4 JUMP JUMPDEST PUSH2 0x34A3 DUP2 DUP6 PUSH2 0x32EE JUMP JUMPDEST SWAP4 POP DUP4 PUSH1 0x20 DUP3 MUL DUP6 ADD PUSH2 0x34B5 DUP6 PUSH2 0x32FE JUMP JUMPDEST DUP1 PUSH0 JUMPDEST DUP6 DUP2 LT ISZERO PUSH2 0x34F0 JUMPI DUP5 DUP5 SUB DUP10 MSTORE DUP2 MLOAD PUSH2 0x34D1 DUP6 DUP3 PUSH2 0x3470 JUMP JUMPDEST SWAP5 POP PUSH2 0x34DC DUP4 PUSH2 0x3483 JUMP JUMPDEST SWAP3 POP PUSH1 0x20 DUP11 ADD SWAP10 POP POP PUSH1 0x1 DUP2 ADD SWAP1 POP PUSH2 0x34B8 JUMP JUMPDEST POP DUP3 SWAP8 POP DUP8 SWAP6 POP POP POP POP POP POP SWAP3 SWAP2 POP POP JUMP JUMPDEST PUSH0 PUSH1 0x20 DUP3 ADD SWAP1 POP DUP2 DUP2 SUB PUSH0 DUP4 ADD MSTORE PUSH2 0x351A DUP2 DUP5 PUSH2 0x348F JUMP JUMPDEST SWAP1 POP SWAP3 SWAP2 POP POP JUMP JUMPDEST PUSH2 0x352B DUP2 PUSH2 0x2FDB JUMP JUMPDEST DUP3 MSTORE POP POP JUMP JUMPDEST PUSH0 PUSH1 0x40 DUP3 ADD SWAP1 POP PUSH2 0x3544 PUSH0 DUP4 ADD DUP6 PUSH2 0x309E JUMP JUMPDEST PUSH2 0x3551 PUSH1 0x20 DUP4 ADD DUP5 PUSH2 0x3522 JUMP JUMPDEST SWAP4 SWAP3 POP POP POP JUMP JUMPDEST PUSH0 DUP1 DUP4 PUSH1 0x1F DUP5 ADD SLT PUSH2 0x356D JUMPI PUSH2 0x356C PUSH2 0x320A JUMP JUMPDEST JUMPDEST DUP3 CALLDATALOAD SWAP1 POP PUSH8 0xFFFFFFFFFFFFFFFF DUP2 GT ISZERO PUSH2 0x358A JUMPI PUSH2 0x3589 PUSH2 0x320E JUMP JUMPDEST JUMPDEST PUSH1 0x20 DUP4 ADD SWAP2 POP DUP4 PUSH1 0x20 DUP3 MUL DUP4 ADD GT ISZERO PUSH2 0x35A6 JUMPI PUSH2 0x35A5 PUSH2 0x3212 JUMP JUMPDEST JUMPDEST SWAP3 POP SWAP3 SWAP1 POP JUMP JUMPDEST PUSH0 DUP1 PUSH1 0x20 DUP4 DUP6 SUB SLT ISZERO PUSH2 0x35C3 JUMPI PUSH2 0x35C2 PUSH2 0x2FB4 JUMP JUMPDEST JUMPDEST PUSH0 DUP4 ADD CALLDATALOAD PUSH8 0xFFFFFFFFFFFFFFFF DUP2 GT ISZERO PUSH2 0x35E0 JUMPI PUSH2 0x35DF PUSH2 0x2FB8 JUMP JUMPDEST JUMPDEST PUSH2 0x35EC DUP6 DUP3 DUP7 ADD PUSH2 0x3558 JUMP JUMPDEST SWAP3 POP SWAP3 POP POP SWAP3 POP SWAP3 SWAP1 POP JUMP JUMPDEST PUSH0 DUP2 MLOAD SWAP1 POP SWAP2 SWAP1 POP JUMP JUMPDEST PUSH0 DUP3 DUP3 MSTORE PUSH1 0x20 DUP3 ADD SWAP1 POP SWAP3 SWAP2 POP POP JUMP JUMPDEST PUSH0 DUP2 SWAP1 POP PUSH1 0x20 DUP3 ADD SWAP1 POP SWAP2 SWAP1 POP JUMP JUMPDEST PUSH0 DUP2 MLOAD SWAP1 POP SWAP2 SWAP1 POP JUMP JUMPDEST PUSH0 DUP3 DUP3 MSTORE PUSH1 0x20 DUP3 ADD SWAP1 POP SWAP3 SWAP2 POP POP JUMP JUMPDEST PUSH0 JUMPDEST DUP4 DUP2 LT ISZERO PUSH2 0x3658 JUMPI DUP1 DUP3 ADD MLOAD DUP2 DUP5 ADD MSTORE PUSH1 0x20 DUP2 ADD SWAP1 POP PUSH2 0x363D JUMP JUMPDEST PUSH0 DUP5 DUP5 ADD MSTORE POP POP POP POP JUMP JUMPDEST PUSH0 PUSH1 0x1F NOT PUSH1 0x1F DUP4 ADD AND SWAP1 POP SWAP2 SWAP1 POP JUMP JUMPDEST PUSH0 PUSH2 0x367D DUP3 PUSH2 0x3621 JUMP JUMPDEST PUSH2 0x3687 DUP2 DUP6 PUSH2 0x362B JUMP JUMPDEST SWAP4 POP PUSH2 0x3697 DUP2 DUP6 PUSH1 0x20 DUP7 ADD PUSH2 0x363B JUMP JUMPDEST PUSH2 0x36A0 DUP2 PUSH2 0x3663 JUMP JUMPDEST DUP5 ADD SWAP2 POP POP SWAP3 SWAP2 POP POP JUMP JUMPDEST PUSH0 PUSH2 0x36B6 DUP4 DUP4 PUSH2 0x3673 JUMP JUMPDEST SWAP1 POP SWAP3 SWAP2 POP POP JUMP JUMPDEST PUSH0 PUSH1 0x20 DUP3 ADD SWAP1 POP SWAP2 SWAP1 POP JUMP JUMPDEST PUSH0 PUSH2 0x36D4 DUP3 PUSH2 0x35F8 JUMP JUMPDEST PUSH2 0x36DE DUP2 DUP6 PUSH2 0x3602 JUMP JUMPDEST SWAP4 POP DUP4 PUSH1 0x20 DUP3 MUL DUP6 ADD PUSH2 0x36F0 DUP6 PUSH2 0x3612 JUMP JUMPDEST DUP1 PUSH0 JUMPDEST DUP6 DUP2 LT ISZERO PUSH2 0x372B JUMPI DUP5 DUP5 SUB DUP10 MSTORE DUP2 MLOAD PUSH2 0x370C DUP6 DUP3 PUSH2 0x36AB JUMP JUMPDEST SWAP5 POP PUSH2 0x3717 DUP4 PUSH2 0x36BE JUMP JUMPDEST SWAP3 POP PUSH1 0x20 DUP11 ADD SWAP10 POP POP PUSH1 0x1 DUP2 ADD SWAP1 POP PUSH2 0x36F3 JUMP JUMPDEST POP DUP3 SWAP8 POP DUP8 SWAP6 POP POP POP POP POP POP SWAP3 SWAP2 POP POP JUMP JUMPDEST PUSH0 PUSH1 0x20 DUP3 ADD SWAP1 POP DUP2 DUP2 SUB PUSH0 DUP4 ADD MSTORE PUSH2 0x3755 DUP2 DUP5 PUSH2 0x36CA JUMP JUMPDEST SWAP1 POP SWAP3 SWAP2 POP POP JUMP JUMPDEST PUSH0 DUP2 SWAP1 POP SWAP2 SWAP1 POP JUMP JUMPDEST PUSH0 PUSH2 0x3780 PUSH2 0x377B PUSH2 0x3776 DUP5 PUSH2 0x2FBC JUMP JUMPDEST PUSH2 0x375D JUMP JUMPDEST PUSH2 0x2FBC JUMP JUMPDEST SWAP1 POP SWAP2 SWAP1 POP JUMP JUMPDEST PUSH0 PUSH2 0x3791 DUP3 PUSH2 0x3766 JUMP JUMPDEST SWAP1 POP SWAP2 SWAP1 POP JUMP JUMPDEST PUSH0 PUSH2 0x37A2 DUP3 PUSH2 0x3787 JUMP JUMPDEST SWAP1 POP SWAP2 SWAP1 POP JUMP JUMPDEST PUSH2 0x37B2 DUP2 PUSH2 0x3798 JUMP JUMPDEST DUP3 MSTORE POP POP JUMP JUMPDEST PUSH0 PUSH1 0x20 DUP3 ADD SWAP1 POP PUSH2 0x37CB PUSH0 DUP4 ADD DUP5 PUSH2 0x37A9 JUMP JUMPDEST SWAP3 SWAP2 POP POP JUMP JUMPDEST PUSH0 PUSH2 0x37DB DUP3 PUSH2 0x2FDB JUMP JUMPDEST SWAP1 POP SWAP2 SWAP1 POP JUMP JUMPDEST PUSH2 0x37EB DUP2 PUSH2 0x37D1 JUMP JUMPDEST DUP2 EQ PUSH2 0x37F5 JUMPI PUSH0 DUP1 REVERT JUMPDEST POP JUMP JUMPDEST PUSH0 DUP2 CALLDATALOAD SWAP1 POP PUSH2 0x3806 DUP2 PUSH2 0x37E2 JUMP JUMPDEST SWAP3 SWAP2 POP POP JUMP JUMPDEST PUSH0 PUSH1 0x20 DUP3 DUP5 SUB SLT ISZERO PUSH2 0x3821 JUMPI PUSH2 0x3820 PUSH2 0x2FB4 JUMP JUMPDEST JUMPDEST PUSH0 PUSH2 0x382E DUP5 DUP3 DUP6 ADD PUSH2 0x37F8 JUMP JUMPDEST SWAP2 POP POP SWAP3 SWAP2 POP POP JUMP JUMPDEST PUSH0 PUSH1 0x20 DUP3 ADD SWAP1 POP PUSH2 0x384A PUSH0 DUP4 ADD DUP5 PUSH2 0x3522 JUMP JUMPDEST SWAP3 SWAP2 POP POP JUMP JUMPDEST PUSH0 DUP1 PUSH0 PUSH1 0x40 DUP5 DUP7 SUB SLT ISZERO PUSH2 0x3867 JUMPI PUSH2 0x3866 PUSH2 0x2FB4 JUMP JUMPDEST JUMPDEST PUSH0 PUSH2 0x3874 DUP7 DUP3 DUP8 ADD PUSH2 0x3002 JUMP JUMPDEST SWAP4 POP POP PUSH1 0x20 DUP5 ADD CALLDATALOAD PUSH8 0xFFFFFFFFFFFFFFFF DUP2 GT ISZERO PUSH2 0x3895 JUMPI PUSH2 0x3894 PUSH2 0x2FB8 JUMP JUMPDEST JUMPDEST PUSH2 0x38A1 DUP7 DUP3 DUP8 ADD PUSH2 0x3216 JUMP JUMPDEST SWAP3 POP SWAP3 POP POP SWAP3 POP SWAP3 POP SWAP3 JUMP JUMPDEST PUSH0 DUP3 DUP3 MSTORE PUSH1 0x20 DUP3 ADD SWAP1 POP SWAP3 SWAP2 POP POP JUMP JUMPDEST PUSH0 PUSH2 0x38C7 DUP3 PUSH2 0x331C JUMP JUMPDEST PUSH2 0x38D1 DUP2 DUP6 PUSH2 0x38AD JUMP JUMPDEST SWAP4 POP PUSH2 0x38DC DUP4 PUSH2 0x3336 JUMP JUMPDEST DUP1 PUSH0 JUMPDEST DUP4 DUP2 LT ISZERO PUSH2 0x390C JUMPI DUP2 MLOAD PUSH2 0x38F3 DUP9 DUP3 PUSH2 0x3345 JUMP JUMPDEST SWAP8 POP PUSH2 0x38FE DUP4 PUSH2 0x335C JUMP JUMPDEST SWAP3 POP POP PUSH1 0x1 DUP2 ADD SWAP1 POP PUSH2 0x38DF JUMP JUMPDEST POP DUP6 SWAP4 POP POP POP POP SWAP3 SWAP2 POP POP JUMP JUMPDEST PUSH0 PUSH1 0x20 DUP3 ADD SWAP1 POP DUP2 DUP2 SUB PUSH0 DUP4 ADD MSTORE PUSH2 0x3931 DUP2 DUP5 PUSH2 0x38BD JUMP JUMPDEST SWAP1 POP SWAP3 SWAP2 POP POP JUMP JUMPDEST PUSH0 PUSH1 0xA0 DUP4 ADD PUSH0 DUP4 ADD MLOAD PUSH2 0x394E PUSH0 DUP7 ADD DUP3 PUSH2 0x330D JUMP JUMPDEST POP PUSH1 0x20 DUP4 ADD MLOAD DUP5 DUP3 SUB PUSH1 0x20 DUP7 ADD MSTORE PUSH2 0x3966 DUP3 DUP3 PUSH2 0x3368 JUMP JUMPDEST SWAP2 POP POP PUSH1 0x40 DUP4 ADD MLOAD PUSH2 0x397B PUSH1 0x40 DUP7 ADD DUP3 PUSH2 0x33C4 JUMP JUMPDEST POP PUSH1 0x60 DUP4 ADD MLOAD PUSH2 0x398E PUSH1 0x60 DUP7 ADD DUP3 PUSH2 0x33EE JUMP JUMPDEST POP PUSH1 0x80 DUP4 ADD MLOAD PUSH2 0x39A1 PUSH1 0x80 DUP7 ADD DUP3 PUSH2 0x33EE JUMP JUMPDEST POP DUP1 SWAP2 POP POP SWAP3 SWAP2 POP POP JUMP JUMPDEST PUSH0 PUSH1 0x20 DUP3 ADD SWAP1 POP DUP2 DUP2 SUB PUSH0 DUP4 ADD MSTORE PUSH2 0x39C4 DUP2 DUP5 PUSH2 0x3939 JUMP JUMPDEST SWAP1 POP SWAP3 SWAP2 POP POP JUMP JUMPDEST PUSH0 DUP1 REVERT JUMPDEST PUSH0 DUP1 REVERT JUMPDEST PUSH0 DUP1 REVERT JUMPDEST PUSH0 DUP1 DUP4 CALLDATALOAD PUSH1 0x1 PUSH1 0x20 SUB DUP5 CALLDATASIZE SUB SUB DUP2 SLT PUSH2 0x39F4 JUMPI PUSH2 0x39F3 PUSH2 0x39CC JUMP JUMPDEST JUMPDEST DUP1 DUP5 ADD SWAP3 POP DUP3 CALLDATALOAD SWAP2 POP PUSH8 0xFFFFFFFFFFFFFFFF DUP3 GT ISZERO PUSH2 0x3A16 JUMPI PUSH2 0x3A15 PUSH2 0x39D0 JUMP JUMPDEST JUMPDEST PUSH1 0x20 DUP4 ADD SWAP3 POP PUSH1 0x1 DUP3 MUL CALLDATASIZE SUB DUP4 SGT ISZERO PUSH2 0x3A32 JUMPI PUSH2 0x3A31 PUSH2 0x39D4 JUMP JUMPDEST JUMPDEST POP SWAP3 POP SWAP3 SWAP1 POP JUMP JUMPDEST PUSH32 0x4E487B7100000000000000000000000000000000000000000000000000000000 PUSH0 MSTORE PUSH1 0x32 PUSH1 0x4 MSTORE PUSH1 0x24 PUSH0 REVERT JUMPDEST PUSH2 0x3A70 DUP2 PUSH2 0x33D3 JUMP JUMPDEST DUP2 EQ PUSH2 0x3A7A JUMPI PUSH0 DUP1 REVERT JUMPDEST POP JUMP JUMPDEST PUSH0 DUP2 CALLDATALOAD SWAP1 POP PUSH2 0x3A8B DUP2 PUSH2 0x3A67 JUMP JUMPDEST SWAP3 SWAP2 POP POP JUMP JUMPDEST PUSH0 PUSH1 0x20 DUP3 DUP5 SUB SLT ISZERO PUSH2 0x3AA6 JUMPI PUSH2 0x3AA5 PUSH2 0x2FB4 JUMP JUMPDEST JUMPDEST PUSH0 PUSH2 0x3AB3 DUP5 DUP3 DUP6 ADD PUSH2 0x3A7D JUMP JUMPDEST SWAP2 POP POP SWAP3 SWAP2 POP POP JUMP JUMPDEST PUSH0 DUP3 DUP3 MSTORE PUSH1 0x20 DUP3 ADD SWAP1 POP SWAP3 SWAP2 POP POP JUMP JUMPDEST PUSH32 0x21706572696F6400000000000000000000000000000000000000000000000000 PUSH0 DUP3 ADD MSTORE POP JUMP JUMPDEST PUSH0 PUSH2 0x3B00 PUSH1 0x7 DUP4 PUSH2 0x3ABC JUMP JUMPDEST SWAP2 POP PUSH2 0x3B0B DUP3 PUSH2 0x3ACC JUMP JUMPDEST PUSH1 0x20 DUP3 ADD SWAP1 POP SWAP2 SWAP1 POP JUMP JUMPDEST PUSH0 PUSH1 0x20 DUP3 ADD SWAP1 POP DUP2 DUP2 SUB PUSH0 DUP4 ADD MSTORE PUSH2 0x3B2D DUP2 PUSH2 0x3AF4 JUMP JUMPDEST SWAP1 POP SWAP2 SWAP1 POP JUMP JUMPDEST PUSH32 0x2173696700000000000000000000000000000000000000000000000000000000 PUSH0 DUP3 ADD MSTORE POP JUMP JUMPDEST PUSH0 PUSH2 0x3B68 PUSH1 0x4 DUP4 PUSH2 0x3ABC JUMP JUMPDEST SWAP2 POP PUSH2 0x3B73 DUP3 PUSH2 0x3B34 JUMP JUMPDEST PUSH1 0x20 DUP3 ADD SWAP1 POP SWAP2 SWAP1 POP JUMP JUMPDEST PUSH0 PUSH1 0x20 DUP3 ADD SWAP1 POP DUP2 DUP2 SUB PUSH0 DUP4 ADD MSTORE PUSH2 0x3B95 DUP2 PUSH2 0x3B5C JUMP JUMPDEST SWAP1 POP SWAP2 SWAP1 POP JUMP JUMPDEST PUSH0 PUSH1 0xFF DUP3 AND SWAP1 POP SWAP2 SWAP1 POP JUMP JUMPDEST PUSH2 0x3BB1 DUP2 PUSH2 0x3B9C JUMP JUMPDEST DUP2 EQ PUSH2 0x3BBB JUMPI PUSH0 DUP1 REVERT JUMPDEST POP JUMP JUMPDEST PUSH0 DUP2 CALLDATALOAD SWAP1 POP PUSH2 0x3BCC DUP2 PUSH2 0x3BA8 JUMP JUMPDEST SWAP3 SWAP2 POP POP JUMP JUMPDEST PUSH0 PUSH1 0x20 DUP3 DUP5 SUB SLT ISZERO PUSH2 0x3BE7 JUMPI PUSH2 0x3BE6 PUSH2 0x2FB4 JUMP JUMPDEST JUMPDEST PUSH0 PUSH2 0x3BF4 DUP5 DUP3 DUP6 ADD PUSH2 0x3BBE JUMP JUMPDEST SWAP2 POP POP SWAP3 SWAP2 POP POP JUMP JUMPDEST PUSH32 0x61646D696E000000000000000000000000000000000000000000000000000000 PUSH0 DUP3 ADD MSTORE POP JUMP JUMPDEST PUSH0 PUSH2 0x3C31 PUSH1 0x5 DUP4 PUSH2 0x3ABC JUMP JUMPDEST SWAP2 POP PUSH2 0x3C3C DUP3 PUSH2 0x3BFD JUMP JUMPDEST PUSH1 0x20 DUP3 ADD SWAP1 POP SWAP2 SWAP1 POP JUMP JUMPDEST PUSH0 PUSH1 0x20 DUP3 ADD SWAP1 POP DUP2 DUP2 SUB PUSH0 DUP4 ADD MSTORE PUSH2 0x3C5E DUP2 PUSH2 0x3C25 JUMP JUMPDEST SWAP1 POP SWAP2 SWAP1 POP JUMP JUMPDEST PUSH32 0x4E487B7100000000000000000000000000000000000000000000000000000000 PUSH0 MSTORE PUSH1 0x11 PUSH1 0x4 MSTORE PUSH1 0x24 PUSH0 REVERT JUMPDEST PUSH0 PUSH2 0x3C9C DUP3 PUSH2 0x3124 JUMP JUMPDEST SWAP2 POP PUSH2 0x3CA7 DUP4 PUSH2 0x3124 JUMP JUMPDEST SWAP3 POP DUP3 DUP3 ADD SWAP1 POP DUP1 DUP3 GT ISZERO PUSH2 0x3CBF JUMPI PUSH2 0x3CBE PUSH2 0x3C65 JUMP JUMPDEST JUMPDEST SWAP3 SWAP2 POP POP JUMP JUMPDEST PUSH0 DUP1 DUP4 CALLDATALOAD PUSH1 0x1 PUSH1 0x20 SUB DUP5 CALLDATASIZE SUB SUB DUP2 SLT PUSH2 0x3CE1 JUMPI PUSH2 0x3CE0 PUSH2 0x39CC JUMP JUMPDEST JUMPDEST DUP1 DUP5 ADD SWAP3 POP DUP3 CALLDATALOAD SWAP2 POP PUSH8 0xFFFFFFFFFFFFFFFF DUP3 GT ISZERO PUSH2 0x3D03 JUMPI PUSH2 0x3D02 PUSH2 0x39D0 JUMP JUMPDEST JUMPDEST PUSH1 0x20 DUP4 ADD SWAP3 POP PUSH1 0x20 DUP3 MUL CALLDATASIZE SUB DUP4 SGT ISZERO PUSH2 0x3D1F JUMPI PUSH2 0x3D1E PUSH2 0x39D4 JUMP JUMPDEST JUMPDEST POP SWAP3 POP SWAP3 SWAP1 POP JUMP JUMPDEST PUSH0 PUSH2 0x3D35 PUSH1 0x20 DUP5 ADD DUP5 PUSH2 0x3002 JUMP JUMPDEST SWAP1 POP SWAP3 SWAP2 POP POP JUMP JUMPDEST PUSH0 PUSH2 0x3D4B PUSH1 0x20 DUP5 ADD DUP5 PUSH2 0x3BBE JUMP JUMPDEST SWAP1 POP SWAP3 SWAP2 POP POP JUMP JUMPDEST PUSH2 0x3D5C DUP2 PUSH2 0x3B9C JUMP JUMPDEST DUP3 MSTORE POP POP JUMP JUMPDEST PUSH0 DUP1 REVERT JUMPDEST PUSH0 DUP1 REVERT JUMPDEST PUSH0 DUP1 REVERT JUMPDEST PUSH0 DUP1 DUP4 CALLDATALOAD PUSH1 0x1 PUSH1 0x20 SUB DUP5 CALLDATASIZE SUB SUB DUP2 SLT PUSH2 0x3D8A JUMPI PUSH2 0x3D89 PUSH2 0x3D6A JUMP JUMPDEST JUMPDEST DUP4 DUP2 ADD SWAP3 POP DUP3 CALLDATALOAD SWAP2 POP PUSH1 0x20 DUP4 ADD SWAP3 POP PUSH8 0xFFFFFFFFFFFFFFFF DUP3 GT ISZERO PUSH2 0x3DB2 JUMPI PUSH2 0x3DB1 PUSH2 0x3D62 JUMP JUMPDEST JUMPDEST PUSH1 0x20 DUP3 MUL CALLDATASIZE SUB DUP4 SGT ISZERO PUSH2 0x3DC8 JUMPI PUSH2 0x3DC7 PUSH2 0x3D66 JUMP JUMPDEST JUMPDEST POP SWAP3 POP SWAP3 SWAP1 POP JUMP JUMPDEST PUSH0 DUP2 SWAP1 POP SWAP2 SWAP1 POP JUMP JUMPDEST PUSH0 PUSH1 0x20 DUP3 ADD SWAP1 POP SWAP2 SWAP1 POP JUMP JUMPDEST PUSH0 PUSH2 0x3DF0 DUP4 DUP6 PUSH2 0x3326 JUMP JUMPDEST SWAP4 POP PUSH2 0x3DFB DUP3 PUSH2 0x3DD0 JUMP JUMPDEST DUP1 PUSH0 JUMPDEST DUP6 DUP2 LT ISZERO PUSH2 0x3E33 JUMPI PUSH2 0x3E10 DUP3 DUP5 PUSH2 0x3D27 JUMP JUMPDEST PUSH2 0x3E1A DUP9 DUP3 PUSH2 0x3345 JUMP JUMPDEST SWAP8 POP PUSH2 0x3E25 DUP4 PUSH2 0x3DD9 JUMP JUMPDEST SWAP3 POP POP PUSH1 0x1 DUP2 ADD SWAP1 POP PUSH2 0x3DFE JUMP JUMPDEST POP DUP6 SWAP3 POP POP POP SWAP4 SWAP3 POP POP POP JUMP JUMPDEST PUSH0 PUSH2 0x3E4E PUSH1 0x20 DUP5 ADD DUP5 PUSH2 0x3143 JUMP JUMPDEST SWAP1 POP SWAP3 SWAP2 POP POP JUMP JUMPDEST PUSH0 PUSH2 0x3E64 PUSH1 0x20 DUP5 ADD DUP5 PUSH2 0x3A7D JUMP JUMPDEST SWAP1 POP SWAP3 SWAP2 POP POP JUMP JUMPDEST PUSH0 PUSH2 0x3E7A PUSH1 0x20 DUP5 ADD DUP5 PUSH2 0x3110 JUMP JUMPDEST SWAP1 POP SWAP3 SWAP2 POP POP JUMP JUMPDEST PUSH2 0x3E8B DUP2 PUSH2 0x30F1 JUMP JUMPDEST DUP3 MSTORE POP POP JUMP JUMPDEST PUSH0 PUSH2 0x120 DUP4 ADD PUSH2 0x3EA3 PUSH0 DUP5 ADD DUP5 PUSH2 0x3D27 JUMP JUMPDEST PUSH2 0x3EAF PUSH0 DUP7 ADD DUP3 PUSH2 0x330D JUMP JUMPDEST POP PUSH2 0x3EBD PUSH1 0x20 DUP5 ADD DUP5 PUSH2 0x3D3D JUMP JUMPDEST PUSH2 0x3ECA PUSH1 0x20 DUP7 ADD DUP3 PUSH2 0x3D53 JUMP JUMPDEST POP PUSH2 0x3ED8 PUSH1 0x40 DUP5 ADD DUP5 PUSH2 0x3D6E JUMP JUMPDEST DUP6 DUP4 SUB PUSH1 0x40 DUP8 ADD MSTORE PUSH2 0x3EEB DUP4 DUP3 DUP5 PUSH2 0x3DE5 JUMP JUMPDEST SWAP3 POP POP POP PUSH2 0x3EFC PUSH1 0x60 DUP5 ADD DUP5 PUSH2 0x3E40 JUMP JUMPDEST PUSH2 0x3F09 PUSH1 0x60 DUP7 ADD DUP3 PUSH2 0x33C4 JUMP JUMPDEST POP PUSH2 0x3F17 PUSH1 0x80 DUP5 ADD DUP5 PUSH2 0x3E56 JUMP JUMPDEST PUSH2 0x3F24 PUSH1 0x80 DUP7 ADD DUP3 PUSH2 0x33EE JUMP JUMPDEST POP PUSH2 0x3F32 PUSH1 0xA0 DUP5 ADD DUP5 PUSH2 0x3E56 JUMP JUMPDEST PUSH2 0x3F3F PUSH1 0xA0 DUP7 ADD DUP3 PUSH2 0x33EE JUMP JUMPDEST POP PUSH2 0x3F4D PUSH1 0xC0 DUP5 ADD DUP5 PUSH2 0x3E56 JUMP JUMPDEST PUSH2 0x3F5A PUSH1 0xC0 DUP7 ADD DUP3 PUSH2 0x33EE JUMP JUMPDEST POP PUSH2 0x3F68 PUSH1 0xE0 DUP5 ADD DUP5 PUSH2 0x3E56 JUMP JUMPDEST PUSH2 0x3F75 PUSH1 0xE0 DUP7 ADD DUP3 PUSH2 0x33EE JUMP JUMPDEST POP PUSH2 0x3F84 PUSH2 0x100 DUP5 ADD DUP5 PUSH2 0x3E6C JUMP JUMPDEST PUSH2 0x3F92 PUSH2 0x100 DUP7 ADD DUP3 PUSH2 0x3E82 JUMP JUMPDEST POP DUP1 SWAP2 POP POP SWAP3 SWAP2 POP POP JUMP JUMPDEST PUSH0 PUSH1 0x20 DUP3 ADD SWAP1 POP DUP2 DUP2 SUB PUSH0 DUP4 ADD MSTORE PUSH2 0x3FB5 DUP2 DUP5 PUSH2 0x3E91 JUMP JUMPDEST SWAP1 POP SWAP3 SWAP2 POP POP JUMP JUMPDEST PUSH0 PUSH2 0x3FC7 DUP3 PUSH2 0x3124 JUMP JUMPDEST SWAP2 POP PUSH32 0xFFFFFFFFFFFFFFFFFFFFFFFFFFFFFFFFFFFFFFFFFFFFFFFFFFFFFFFFFFFFFFFF DUP3 SUB PUSH2 0x3FF9 JUMPI PUSH2 0x3FF8 PUSH2 0x3C65 JUMP JUMPDEST JUMPDEST PUSH1 0x1 DUP3 ADD SWAP1 POP SWAP2 SWAP1 POP JUMP JUMPDEST PUSH32 0x4E487B7100000000000000000000000000000000000000000000000000000000 PUSH0 MSTORE PUSH1 0x41 PUSH1 0x4 MSTORE PUSH1 0x24 PUSH0 REVERT JUMPDEST PUSH0 DUP2 SWAP1 POP SWAP2 SWAP1 POP JUMP JUMPDEST PUSH0 PUSH24 0xFFFFFFFFFFFFFFFFFFFFFFFFFFFFFFFFFFFFFFFFFFFFFFFF DUP3 AND SWAP1 POP SWAP2 SWAP1 POP JUMP JUMPDEST PUSH0 PUSH2 0x4077 PUSH2 0x4072 PUSH2 0x406D DUP5 PUSH2 0x4031 JUMP JUMPDEST PUSH2 0x375D JUMP JUMPDEST PUSH2 0x403A JUMP JUMPDEST SWAP1 POP SWAP2 SWAP1 POP JUMP JUMPDEST PUSH2 0x4087 DUP2 PUSH2 0x405D JUMP JUMPDEST DUP3 MSTORE POP POP JUMP JUMPDEST PUSH0 PUSH1 0x40 DUP3 ADD SWAP1 POP PUSH2 0x40A0 PUSH0 DUP4 ADD DUP6 PUSH2 0x3522 JUMP JUMPDEST PUSH2 0x40AD PUSH1 0x20 DUP4 ADD DUP5 PUSH2 0x407E JUMP JUMPDEST SWAP4 SWAP3 POP POP POP JUMP JUMPDEST PUSH0 DUP2 MLOAD SWAP1 POP PUSH2 0x40C2 DUP2 PUSH2 0x312D JUMP JUMPDEST SWAP3 SWAP2 POP POP JUMP JUMPDEST PUSH0 PUSH1 0x20 DUP3 DUP5 SUB SLT ISZERO PUSH2 0x40DD JUMPI PUSH2 0x40DC PUSH2 0x2FB4 JUMP JUMPDEST JUMPDEST PUSH0 PUSH2 0x40EA DUP5 DUP3 DUP6 ADD PUSH2 0x40B4 JUMP JUMPDEST SWAP2 POP POP SWAP3 SWAP2 POP POP JUMP JUMPDEST PUSH32 0x496E697469616C697A61626C653A20636F6E747261637420697320616C726561 PUSH0 DUP3 ADD MSTORE PUSH32 0x647920696E697469616C697A6564000000000000000000000000000000000000 PUSH1 0x20 DUP3 ADD MSTORE POP JUMP JUMPDEST PUSH0 PUSH2 0x414D PUSH1 0x2E DUP4 PUSH2 0x3ABC JUMP JUMPDEST SWAP2 POP PUSH2 0x4158 DUP3 PUSH2 0x40F3 JUMP JUMPDEST PUSH1 0x40 DUP3 ADD SWAP1 POP SWAP2 SWAP1 POP JUMP JUMPDEST PUSH0 PUSH1 0x20 DUP3 ADD SWAP1 POP DUP2 DUP2 SUB PUSH0 DUP4 ADD MSTORE PUSH2 0x417A DUP2 PUSH2 0x4141 JUMP JUMPDEST SWAP1 POP SWAP2 SWAP1 POP JUMP JUMPDEST PUSH0 DUP2 SWAP1 POP SWAP2 SWAP1 POP JUMP JUMPDEST PUSH0 PUSH2 0x41A4 PUSH2 0x419F PUSH2 0x419A DUP5 PUSH2 0x4181 JUMP JUMPDEST PUSH2 0x375D JUMP JUMPDEST PUSH2 0x3B9C JUMP JUMPDEST SWAP1 POP SWAP2 SWAP1 POP JUMP JUMPDEST PUSH2 0x41B4 DUP2 PUSH2 0x418A JUMP JUMPDEST DUP3 MSTORE POP POP JUMP JUMPDEST PUSH0 PUSH1 0x20 DUP3 ADD SWAP1 POP PUSH2 0x41CD PUSH0 DUP4 ADD DUP5 PUSH2 0x41AB JUMP JUMPDEST SWAP3 SWAP2 POP POP JUMP JUMPDEST PUSH32 0x2144617461000000000000000000000000000000000000000000000000000000 PUSH0 DUP3 ADD MSTORE POP JUMP JUMPDEST PUSH0 PUSH2 0x4207 PUSH1 0x5 DUP4 PUSH2 0x3ABC JUMP JUMPDEST SWAP2 POP PUSH2 0x4212 DUP3 PUSH2 0x41D3 JUMP JUMPDEST PUSH1 0x20 DUP3 ADD SWAP1 POP SWAP2 SWAP1 POP JUMP JUMPDEST PUSH0 PUSH1 0x20 DUP3 ADD SWAP1 POP DUP2 DUP2 SUB PUSH0 DUP4 ADD MSTORE PUSH2 0x4234 DUP2 PUSH2 0x41FB JUMP JUMPDEST SWAP1 POP SWAP2 SWAP1 POP JUMP JUMPDEST PUSH0 DUP1 REVERT JUMPDEST PUSH0 DUP1 REVERT JUMPDEST PUSH0 DUP1 DUP6 DUP6 GT ISZERO PUSH2 0x4256 JUMPI PUSH2 0x4255 PUSH2 0x423B JUMP JUMPDEST JUMPDEST DUP4 DUP7 GT ISZERO PUSH2 0x4267 JUMPI PUSH2 0x4266 PUSH2 0x423F JUMP JUMPDEST JUMPDEST PUSH1 0x1 DUP6 MUL DUP4 ADD SWAP2 POP DUP5 DUP7 SUB SWAP1 POP SWAP5 POP SWAP5 SWAP3 POP POP POP JUMP JUMPDEST PUSH0 DUP3 SWAP1 POP SWAP3 SWAP2 POP POP JUMP JUMPDEST PUSH0 PUSH32 0xFFFFFFFF00000000000000000000000000000000000000000000000000000000 DUP3 AND SWAP1 POP SWAP2 SWAP1 POP JUMP JUMPDEST PUSH0 DUP3 DUP3 SHL SWAP1 POP SWAP3 SWAP2 POP POP JUMP JUMPDEST PUSH0 PUSH2 0x42C9 DUP4 DUP4 PUSH2 0x427D JUMP JUMPDEST DUP3 PUSH2 0x42D4 DUP2 CALLDATALOAD PUSH2 0x4287 JUMP JUMPDEST SWAP3 POP PUSH1 0x4 DUP3 LT ISZERO PUSH2 0x4314 JUMPI PUSH2 0x430F PUSH32 0xFFFFFFFF00000000000000000000000000000000000000000000000000000000 DUP4 PUSH1 0x4 SUB PUSH1 0x8 MUL PUSH2 0x42B2 JUMP JUMPDEST DUP4 AND SWAP3 POP JUMPDEST POP POP SWAP3 SWAP2 POP POP JUMP JUMPDEST PUSH0 PUSH2 0x4326 DUP3 PUSH2 0x2FBC JUMP JUMPDEST SWAP1 POP SWAP2 SWAP1 POP JUMP JUMPDEST PUSH2 0x4336 DUP2 PUSH2 0x431C JUMP JUMPDEST DUP2 EQ PUSH2 0x4340 JUMPI PUSH0 DUP1 REVERT JUMPDEST POP JUMP JUMPDEST PUSH0 DUP2 CALLDATALOAD SWAP1 POP PUSH2 0x4351 DUP2 PUSH2 0x432D JUMP JUMPDEST SWAP3 SWAP2 POP POP JUMP JUMPDEST PUSH0 PUSH1 0x20 DUP3 DUP5 SUB SLT ISZERO PUSH2 0x436C JUMPI PUSH2 0x436B PUSH2 0x2FB4 JUMP JUMPDEST JUMPDEST PUSH0 PUSH2 0x4379 DUP5 DUP3 DUP6 ADD PUSH2 0x4343 JUMP JUMPDEST SWAP2 POP POP SWAP3 SWAP2 POP POP JUMP JUMPDEST PUSH0 PUSH1 0x20 DUP3 DUP5 SUB SLT ISZERO PUSH2 0x4397 JUMPI PUSH2 0x4396 PUSH2 0x2FB4 JUMP JUMPDEST JUMPDEST PUSH0 PUSH2 0x43A4 DUP5 DUP3 DUP6 ADD PUSH2 0x3143 JUMP JUMPDEST SWAP2 POP POP SWAP3 SWAP2 POP POP JUMP JUMPDEST PUSH2 0x43B6 DUP3 PUSH2 0x3663 JUMP JUMPDEST DUP2 ADD DUP2 DUP2 LT PUSH8 0xFFFFFFFFFFFFFFFF DUP3 GT OR ISZERO PUSH2 0x43D5 JUMPI PUSH2 0x43D4 PUSH2 0x4004 JUMP JUMPDEST JUMPDEST DUP1 PUSH1 0x40 MSTORE POP POP POP JUMP JUMPDEST PUSH0 PUSH2 0x43E7 PUSH2 0x2FAB JUMP JUMPDEST SWAP1 POP PUSH2 0x43F3 DUP3 DUP3 PUSH2 0x43AD JUMP JUMPDEST SWAP2 SWAP1 POP JUMP JUMPDEST PUSH0 PUSH8 0xFFFFFFFFFFFFFFFF DUP3 GT ISZERO PUSH2 0x4412 JUMPI PUSH2 0x4411 PUSH2 0x4004 JUMP JUMPDEST JUMPDEST PUSH1 0x20 DUP3 MUL SWAP1 POP PUSH1 0x20 DUP2 ADD SWAP1 POP SWAP2 SWAP1 POP JUMP JUMPDEST PUSH0 PUSH2 0x4435 PUSH2 0x4430 DUP5 PUSH2 0x43F8 JUMP JUMPDEST PUSH2 0x43DE JUMP JUMPDEST SWAP1 POP DUP1 DUP4 DUP3 MSTORE PUSH1 0x20 DUP3 ADD SWAP1 POP PUSH1 0x20 DUP5 MUL DUP4 ADD DUP6 DUP2 GT ISZERO PUSH2 0x4458 JUMPI PUSH2 0x4457 PUSH2 0x3212 JUMP JUMPDEST JUMPDEST DUP4 JUMPDEST DUP2 DUP2 LT ISZERO PUSH2 0x4481 JUMPI DUP1 PUSH2 0x446D DUP9 DUP3 PUSH2 0x3002 JUMP JUMPDEST DUP5 MSTORE PUSH1 0x20 DUP5 ADD SWAP4 POP POP PUSH1 0x20 DUP2 ADD SWAP1 POP PUSH2 0x445A JUMP JUMPDEST POP POP POP SWAP4 SWAP3 POP POP POP JUMP JUMPDEST PUSH0 DUP3 PUSH1 0x1F DUP4 ADD SLT PUSH2 0x449F JUMPI PUSH2 0x449E PUSH2 0x320A JUMP JUMPDEST JUMPDEST DUP2 CALLDATALOAD PUSH2 0x44AF DUP5 DUP3 PUSH1 0x20 DUP7 ADD PUSH2 0x4423 JUMP JUMPDEST SWAP2 POP POP SWAP3 SWAP2 POP POP JUMP JUMPDEST PUSH0 PUSH8 0xFFFFFFFFFFFFFFFF DUP3 GT ISZERO PUSH2 0x44D2 JUMPI PUSH2 0x44D1 PUSH2 0x4004 JUMP JUMPDEST JUMPDEST PUSH1 0x20 DUP3 MUL SWAP1 POP PUSH1 0x20 DUP2 ADD SWAP1 POP SWAP2 SWAP1 POP JUMP JUMPDEST PUSH0 PUSH2 0x44F5 PUSH2 0x44F0 DUP5 PUSH2 0x44B8 JUMP JUMPDEST PUSH2 0x43DE JUMP JUMPDEST SWAP1 POP DUP1 DUP4 DUP3 MSTORE PUSH1 0x20 DUP3 ADD SWAP1 POP PUSH1 0x20 DUP5 MUL DUP4 ADD DUP6 DUP2 GT ISZERO PUSH2 0x4518 JUMPI PUSH2 0x4517 PUSH2 0x3212 JUMP JUMPDEST JUMPDEST DUP4 JUMPDEST DUP2 DUP2 LT ISZERO PUSH2 0x4541 JUMPI DUP1 PUSH2 0x452D DUP9 DUP3 PUSH2 0x3143 JUMP JUMPDEST DUP5 MSTORE PUSH1 0x20 DUP5 ADD SWAP4 POP POP PUSH1 0x20 DUP2 ADD SWAP1 POP PUSH2 0x451A JUMP JUMPDEST POP POP POP SWAP4 SWAP3 POP POP POP JUMP JUMPDEST PUSH0 DUP3 PUSH1 0x1F DUP4 ADD SLT PUSH2 0x455F JUMPI PUSH2 0x455E PUSH2 0x320A JUMP JUMPDEST JUMPDEST DUP2 CALLDATALOAD PUSH2 0x456F DUP5 DUP3 PUSH1 0x20 DUP7 ADD PUSH2 0x44E3 JUMP JUMPDEST SWAP2 POP POP SWAP3 SWAP2 POP POP JUMP JUMPDEST PUSH0 PUSH8 0xFFFFFFFFFFFFFFFF DUP3 GT ISZERO PUSH2 0x4592 JUMPI PUSH2 0x4591 PUSH2 0x4004 JUMP JUMPDEST JUMPDEST PUSH1 0x20 DUP3 MUL SWAP1 POP PUSH1 0x20 DUP2 ADD SWAP1 POP SWAP2 SWAP1 POP JUMP JUMPDEST PUSH0 DUP1 REVERT JUMPDEST PUSH0 PUSH8 0xFFFFFFFFFFFFFFFF DUP3 GT ISZERO PUSH2 0x45C1 JUMPI PUSH2 0x45C0 PUSH2 0x4004 JUMP JUMPDEST JUMPDEST PUSH2 0x45CA DUP3 PUSH2 0x3663 JUMP JUMPDEST SWAP1 POP PUSH1 0x20 DUP2 ADD SWAP1 POP SWAP2 SWAP1 POP JUMP JUMPDEST DUP3 DUP2 DUP4 CALLDATACOPY PUSH0 DUP4 DUP4 ADD MSTORE POP POP POP JUMP JUMPDEST PUSH0 PUSH2 0x45F7 PUSH2 0x45F2 DUP5 PUSH2 0x45A7 JUMP JUMPDEST PUSH2 0x43DE JUMP JUMPDEST SWAP1 POP DUP3 DUP2 MSTORE PUSH1 0x20 DUP2 ADD DUP5 DUP5 DUP5 ADD GT ISZERO PUSH2 0x4613 JUMPI PUSH2 0x4612 PUSH2 0x45A3 JUMP JUMPDEST JUMPDEST PUSH2 0x461E DUP5 DUP3 DUP6 PUSH2 0x45D7 JUMP JUMPDEST POP SWAP4 SWAP3 POP POP POP JUMP JUMPDEST PUSH0 DUP3 PUSH1 0x1F DUP4 ADD SLT PUSH2 0x463A JUMPI PUSH2 0x4639 PUSH2 0x320A JUMP JUMPDEST JUMPDEST DUP2 CALLDATALOAD PUSH2 0x464A DUP5 DUP3 PUSH1 0x20 DUP7 ADD PUSH2 0x45E5 JUMP JUMPDEST SWAP2 POP POP SWAP3 SWAP2 POP POP JUMP JUMPDEST PUSH0 PUSH2 0x4665 PUSH2 0x4660 DUP5 PUSH2 0x4578 JUMP JUMPDEST PUSH2 0x43DE JUMP JUMPDEST SWAP1 POP DUP1 DUP4 DUP3 MSTORE PUSH1 0x20 DUP3 ADD SWAP1 POP PUSH1 0x20 DUP5 MUL DUP4 ADD DUP6 DUP2 GT ISZERO PUSH2 0x4688 JUMPI PUSH2 0x4687 PUSH2 0x3212 JUMP JUMPDEST JUMPDEST DUP4 JUMPDEST DUP2 DUP2 LT ISZERO PUSH2 0x46CF JUMPI DUP1 CALLDATALOAD PUSH8 0xFFFFFFFFFFFFFFFF DUP2 GT ISZERO PUSH2 0x46AD JUMPI PUSH2 0x46AC PUSH2 0x320A JUMP JUMPDEST JUMPDEST DUP1 DUP7 ADD PUSH2 0x46BA DUP10 DUP3 PUSH2 0x4626 JUMP JUMPDEST DUP6 MSTORE PUSH1 0x20 DUP6 ADD SWAP5 POP POP POP PUSH1 0x20 DUP2 ADD SWAP1 POP PUSH2 0x468A JUMP JUMPDEST POP POP POP SWAP4 SWAP3 POP POP POP JUMP JUMPDEST PUSH0 DUP3 PUSH1 0x1F DUP4 ADD SLT PUSH2 0x46ED JUMPI PUSH2 0x46EC PUSH2 0x320A JUMP JUMPDEST JUMPDEST DUP2 CALLDATALOAD PUSH2 0x46FD DUP5 DUP3 PUSH1 0x20 DUP7 ADD PUSH2 0x4653 JUMP JUMPDEST SWAP2 POP POP SWAP3 SWAP2 POP POP JUMP JUMPDEST PUSH0 DUP1 PUSH0 PUSH1 0x60 DUP5 DUP7 SUB SLT ISZERO PUSH2 0x471D JUMPI PUSH2 0x471C PUSH2 0x2FB4 JUMP JUMPDEST JUMPDEST PUSH0 DUP5 ADD CALLDATALOAD PUSH8 0xFFFFFFFFFFFFFFFF DUP2 GT ISZERO PUSH2 0x473A JUMPI PUSH2 0x4739 PUSH2 0x2FB8 JUMP JUMPDEST JUMPDEST PUSH2 0x4746 DUP7 DUP3 DUP8 ADD PUSH2 0x448B JUMP JUMPDEST SWAP4 POP POP PUSH1 0x20 DUP5 ADD CALLDATALOAD PUSH8 0xFFFFFFFFFFFFFFFF DUP2 GT ISZERO PUSH2 0x4767 JUMPI PUSH2 0x4766 PUSH2 0x2FB8 JUMP JUMPDEST JUMPDEST PUSH2 0x4773 DUP7 DUP3 DUP8 ADD PUSH2 0x454B JUMP JUMPDEST SWAP3 POP POP PUSH1 0x40 DUP5 ADD CALLDATALOAD PUSH8 0xFFFFFFFFFFFFFFFF DUP2 GT ISZERO PUSH2 0x4794 JUMPI PUSH2 0x4793 PUSH2 0x2FB8 JUMP JUMPDEST JUMPDEST PUSH2 0x47A0 DUP7 DUP3 DUP8 ADD PUSH2 0x46D9 JUMP JUMPDEST SWAP2 POP POP SWAP3 POP SWAP3 POP SWAP3 JUMP JUMPDEST PUSH32 0x6163636F756E743A206E6F742066726F6D20456E747279506F696E7400000000 PUSH0 DUP3 ADD MSTORE POP JUMP JUMPDEST PUSH0 PUSH2 0x47DE PUSH1 0x1C DUP4 PUSH2 0x3ABC JUMP JUMPDEST SWAP2 POP PUSH2 0x47E9 DUP3 PUSH2 0x47AA JUMP JUMPDEST PUSH1 0x20 DUP3 ADD SWAP1 POP SWAP2 SWAP1 POP JUMP JUMPDEST PUSH0 PUSH1 0x20 DUP3 ADD SWAP1 POP DUP2 DUP2 SUB PUSH0 DUP4 ADD MSTORE PUSH2 0x480B DUP2 PUSH2 0x47D2 JUMP JUMPDEST SWAP1 POP SWAP2 SWAP1 POP JUMP JUMPDEST PUSH0 DUP2 SWAP1 POP SWAP3 SWAP2 POP POP JUMP JUMPDEST POP JUMP JUMPDEST PUSH0 PUSH2 0x482A PUSH0 DUP4 PUSH2 0x4812 JUMP JUMPDEST SWAP2 POP PUSH2 0x4835 DUP3 PUSH2 0x481C JUMP JUMPDEST PUSH0 DUP3 ADD SWAP1 POP SWAP2 SWAP1 POP JUMP JUMPDEST PUSH0 PUSH2 0x4849 DUP3 PUSH2 0x481F JUMP JUMPDEST SWAP2 POP DUP2 SWAP1 POP SWAP2 SWAP1 POP JUMP JUMPDEST PUSH2 0x485C DUP2 PUSH2 0x30F1 JUMP JUMPDEST DUP3 MSTORE POP POP JUMP JUMPDEST PUSH0 PUSH1 0x40 DUP3 ADD SWAP1 POP PUSH2 0x4875 PUSH0 DUP4 ADD DUP6 PUSH2 0x3522 JUMP JUMPDEST PUSH2 0x4882 PUSH1 0x20 DUP4 ADD DUP5 PUSH2 0x4853 JUMP JUMPDEST SWAP4 SWAP3 POP POP POP JUMP JUMPDEST PUSH0 DUP2 SWAP1 POP SWAP3 SWAP2 POP POP JUMP JUMPDEST PUSH2 0x489C DUP2 PUSH2 0x2FDB JUMP JUMPDEST DUP3 MSTORE POP POP JUMP JUMPDEST PUSH0 PUSH2 0x48AD DUP4 DUP4 PUSH2 0x4893 JUMP JUMPDEST PUSH1 0x20 DUP4 ADD SWAP1 POP SWAP3 SWAP2 POP POP JUMP JUMPDEST PUSH0 PUSH2 0x48C4 DUP4 DUP6 PUSH2 0x4889 JUMP JUMPDEST SWAP4 POP PUSH2 0x48CF DUP3 PUSH2 0x3DD0 JUMP JUMPDEST DUP1 PUSH0 JUMPDEST DUP6 DUP2 LT ISZERO PUSH2 0x4907 JUMPI PUSH2 0x48E4 DUP3 DUP5 PUSH2 0x3D27 JUMP JUMPDEST PUSH2 0x48EE DUP9 DUP3 PUSH2 0x48A2 JUMP JUMPDEST SWAP8 POP PUSH2 0x48F9 DUP4 PUSH2 0x3DD9 JUMP JUMPDEST SWAP3 POP POP PUSH1 0x1 DUP2 ADD SWAP1 POP PUSH2 0x48D2 JUMP JUMPDEST POP DUP6 SWAP3 POP POP POP SWAP4 SWAP3 POP POP POP JUMP JUMPDEST PUSH0 PUSH2 0x4920 DUP3 DUP5 DUP7 PUSH2 0x48B9 JUMP JUMPDEST SWAP2 POP DUP2 SWAP1 POP SWAP4 SWAP3 POP POP POP JUMP JUMPDEST PUSH2 0x4935 DUP2 PUSH2 0x3B9C JUMP JUMPDEST DUP3 MSTORE POP POP JUMP JUMPDEST PUSH2 0x4944 DUP2 PUSH2 0x33D3 JUMP JUMPDEST DUP3 MSTORE POP POP JUMP JUMPDEST PUSH0 PUSH2 0x140 DUP3 ADD SWAP1 POP PUSH2 0x495E PUSH0 DUP4 ADD DUP14 PUSH2 0x4853 JUMP JUMPDEST PUSH2 0x496B PUSH1 0x20 DUP4 ADD DUP13 PUSH2 0x3522 JUMP JUMPDEST PUSH2 0x4978 PUSH1 0x40 DUP4 ADD DUP12 PUSH2 0x492C JUMP JUMPDEST PUSH2 0x4985 PUSH1 0x60 DUP4 ADD DUP11 PUSH2 0x4853 JUMP JUMPDEST PUSH2 0x4992 PUSH1 0x80 DUP4 ADD DUP10 PUSH2 0x31C3 JUMP JUMPDEST PUSH2 0x499F PUSH1 0xA0 DUP4 ADD DUP9 PUSH2 0x493B JUMP JUMPDEST PUSH2 0x49AC PUSH1 0xC0 DUP4 ADD DUP8 PUSH2 0x493B JUMP JUMPDEST PUSH2 0x49B9 PUSH1 0xE0 DUP4 ADD DUP7 PUSH2 0x493B JUMP JUMPDEST PUSH2 0x49C7 PUSH2 0x100 DUP4 ADD DUP6 PUSH2 0x493B JUMP JUMPDEST PUSH2 0x49D5 PUSH2 0x120 DUP4 ADD DUP5 PUSH2 0x4853 JUMP JUMPDEST SWAP12 SWAP11 POP POP POP POP POP POP POP POP POP POP POP JUMP JUMPDEST PUSH32 0x2161646D696E0000000000000000000000000000000000000000000000000000 PUSH0 DUP3 ADD MSTORE POP JUMP JUMPDEST PUSH0 PUSH2 0x4A18 PUSH1 0x6 DUP4 PUSH2 0x3ABC JUMP JUMPDEST SWAP2 POP PUSH2 0x4A23 DUP3 PUSH2 0x49E4 JUMP JUMPDEST PUSH1 0x20 DUP3 ADD SWAP1 POP SWAP2 SWAP1 POP JUMP JUMPDEST PUSH0 PUSH1 0x20 DUP3 ADD SWAP1 POP DUP2 DUP2 SUB PUSH0 DUP4 ADD MSTORE PUSH2 0x4A45 DUP2 PUSH2 0x4A0C JUMP JUMPDEST SWAP1 POP SWAP2 SWAP1 POP JUMP JUMPDEST PUSH0 DUP3 DUP3 MSTORE PUSH1 0x20 DUP3 ADD SWAP1 POP SWAP3 SWAP2 POP POP JUMP JUMPDEST PUSH0 PUSH2 0x4A66 DUP3 PUSH2 0x3621 JUMP JUMPDEST PUSH2 0x4A70 DUP2 DUP6 PUSH2 0x4A4C JUMP JUMPDEST SWAP4 POP PUSH2 0x4A80 DUP2 DUP6 PUSH1 0x20 DUP7 ADD PUSH2 0x363B JUMP JUMPDEST PUSH2 0x4A89 DUP2 PUSH2 0x3663 JUMP JUMPDEST DUP5 ADD SWAP2 POP POP SWAP3 SWAP2 POP POP JUMP JUMPDEST PUSH0 PUSH1 0x40 DUP3 ADD SWAP1 POP PUSH2 0x4AA7 PUSH0 DUP4 ADD DUP6 PUSH2 0x3522 JUMP JUMPDEST DUP2 DUP2 SUB PUSH1 0x20 DUP4 ADD MSTORE PUSH2 0x4AB9 DUP2 DUP5 PUSH2 0x4A5C JUMP JUMPDEST SWAP1 POP SWAP4 SWAP3 POP POP POP JUMP JUMPDEST PUSH0 PUSH2 0x4ACC DUP3 PUSH2 0x3124 JUMP JUMPDEST SWAP2 POP PUSH2 0x4AD7 DUP4 PUSH2 0x3124 JUMP JUMPDEST SWAP3 POP DUP3 DUP3 SUB SWAP1 POP DUP2 DUP2 GT ISZERO PUSH2 0x4AEF JUMPI PUSH2 0x4AEE PUSH2 0x3C65 JUMP JUMPDEST JUMPDEST SWAP3 SWAP2 POP POP JUMP JUMPDEST PUSH32 0x4E487B7100000000000000000000000000000000000000000000000000000000 PUSH0 MSTORE PUSH1 0x31 PUSH1 0x4 MSTORE PUSH1 0x24 PUSH0 REVERT JUMPDEST PUSH32 0x416464726573733A20696E76616C69642064656C65676174652063616C6C0000 PUSH0 DUP3 ADD MSTORE POP JUMP JUMPDEST PUSH0 PUSH2 0x4B56 PUSH1 0x1E DUP4 PUSH2 0x3ABC JUMP JUMPDEST SWAP2 POP PUSH2 0x4B61 DUP3 PUSH2 0x4B22 JUMP JUMPDEST PUSH1 0x20 DUP3 ADD SWAP1 POP SWAP2 SWAP1 POP JUMP JUMPDEST PUSH0 PUSH1 0x20 DUP3 ADD SWAP1 POP DUP2 DUP2 SUB PUSH0 DUP4 ADD MSTORE PUSH2 0x4B83 DUP2 PUSH2 0x4B4A JUMP JUMPDEST SWAP1 POP SWAP2 SWAP1 POP JUMP JUMPDEST PUSH0 PUSH2 0x4B94 DUP3 PUSH2 0x3621 JUMP JUMPDEST PUSH2 0x4B9E DUP2 DUP6 PUSH2 0x4812 JUMP JUMPDEST SWAP4 POP PUSH2 0x4BAE DUP2 DUP6 PUSH1 0x20 DUP7 ADD PUSH2 0x363B JUMP JUMPDEST DUP1 DUP5 ADD SWAP2 POP POP SWAP3 SWAP2 POP POP JUMP JUMPDEST PUSH0 PUSH2 0x4BC5 DUP3 DUP5 PUSH2 0x4B8A JUMP JUMPDEST SWAP2 POP DUP2 SWAP1 POP SWAP3 SWAP2 POP POP JUMP JUMPDEST PUSH32 0x4E487B7100000000000000000000000000000000000000000000000000000000 PUSH0 MSTORE PUSH1 0x21 PUSH1 0x4 MSTORE PUSH1 0x24 PUSH0 REVERT JUMPDEST PUSH32 0x45434453413A20696E76616C6964207369676E61747572650000000000000000 PUSH0 DUP3 ADD MSTORE POP JUMP JUMPDEST PUSH0 PUSH2 0x4C31 PUSH1 0x18 DUP4 PUSH2 0x3ABC JUMP JUMPDEST SWAP2 POP PUSH2 0x4C3C DUP3 PUSH2 0x4BFD JUMP JUMPDEST PUSH1 0x20 DUP3 ADD SWAP1 POP SWAP2 SWAP1 POP JUMP JUMPDEST PUSH0 PUSH1 0x20 DUP3 ADD SWAP1 POP DUP2 DUP2 SUB PUSH0 DUP4 ADD MSTORE PUSH2 0x4C5E DUP2 PUSH2 0x4C25 JUMP JUMPDEST SWAP1 POP SWAP2 SWAP1 POP JUMP JUMPDEST PUSH32 0x45434453413A20696E76616C6964207369676E6174757265206C656E67746800 PUSH0 DUP3 ADD MSTORE POP JUMP JUMPDEST PUSH0 PUSH2 0x4C99 PUSH1 0x1F DUP4 PUSH2 0x3ABC JUMP JUMPDEST SWAP2 POP PUSH2 0x4CA4 DUP3 PUSH2 0x4C65 JUMP JUMPDEST PUSH1 0x20 DUP3 ADD SWAP1 POP SWAP2 SWAP1 POP JUMP JUMPDEST PUSH0 PUSH1 0x20 DUP3 ADD SWAP1 POP DUP2 DUP2 SUB PUSH0 DUP4 ADD MSTORE PUSH2 0x4CC6 DUP2 PUSH2 0x4C8D JUMP JUMPDEST SWAP1 POP SWAP2 SWAP1 POP JUMP JUMPDEST PUSH32 0x45434453413A20696E76616C6964207369676E6174757265202773272076616C PUSH0 DUP3 ADD MSTORE PUSH32 0x7565000000000000000000000000000000000000000000000000000000000000 PUSH1 0x20 DUP3 ADD MSTORE POP JUMP JUMPDEST PUSH0 PUSH2 0x4D27 PUSH1 0x22 DUP4 PUSH2 0x3ABC JUMP JUMPDEST SWAP2 POP PUSH2 0x4D32 DUP3 PUSH2 0x4CCD JUMP JUMPDEST PUSH1 0x40 DUP3 ADD SWAP1 POP SWAP2 SWAP1 POP JUMP JUMPDEST PUSH0 PUSH1 0x20 DUP3 ADD SWAP1 POP DUP2 DUP2 SUB PUSH0 DUP4 ADD MSTORE PUSH2 0x4D54 DUP2 PUSH2 0x4D1B JUMP JUMPDEST SWAP1 POP SWAP2 SWAP1 POP JUMP JUMPDEST PUSH0 DUP2 MLOAD SWAP1 POP SWAP2 SWAP1 POP JUMP JUMPDEST PUSH0 PUSH2 0x4D6F DUP3 PUSH2 0x4D5B JUMP JUMPDEST PUSH2 0x4D79 DUP2 DUP6 PUSH2 0x3ABC JUMP JUMPDEST SWAP4 POP PUSH2 0x4D89 DUP2 DUP6 PUSH1 0x20 DUP7 ADD PUSH2 0x363B JUMP JUMPDEST PUSH2 0x4D92 DUP2 PUSH2 0x3663 JUMP JUMPDEST DUP5 ADD SWAP2 POP POP SWAP3 SWAP2 POP POP JUMP JUMPDEST PUSH0 PUSH1 0x20 DUP3 ADD SWAP1 POP DUP2 DUP2 SUB PUSH0 DUP4 ADD MSTORE PUSH2 0x4DB5 DUP2 DUP5 PUSH2 0x4D65 JUMP JUMPDEST SWAP1 POP SWAP3 SWAP2 POP POP JUMP JUMPDEST PUSH0 PUSH1 0x80 DUP3 ADD SWAP1 POP PUSH2 0x4DD0 PUSH0 DUP4 ADD DUP8 PUSH2 0x4853 JUMP JUMPDEST PUSH2 0x4DDD PUSH1 0x20 DUP4 ADD DUP7 PUSH2 0x492C JUMP JUMPDEST PUSH2 0x4DEA PUSH1 0x40 DUP4 ADD DUP6 PUSH2 0x4853 JUMP JUMPDEST PUSH2 0x4DF7 PUSH1 0x60 DUP4 ADD DUP5 PUSH2 0x4853 JUMP JUMPDEST SWAP6 SWAP5 POP POP POP POP POP JUMP JUMPDEST PUSH0 PUSH1 0xA0 DUP3 ADD SWAP1 POP PUSH2 0x4E13 PUSH0 DUP4 ADD DUP9 PUSH2 0x4853 JUMP JUMPDEST PUSH2 0x4E20 PUSH1 0x20 DUP4 ADD DUP8 PUSH2 0x4853 JUMP JUMPDEST PUSH2 0x4E2D PUSH1 0x40 DUP4 ADD DUP7 PUSH2 0x4853 JUMP JUMPDEST PUSH2 0x4E3A PUSH1 0x60 DUP4 ADD DUP6 PUSH2 0x31C3 JUMP JUMPDEST PUSH2 0x4E47 PUSH1 0x80 DUP4 ADD DUP5 PUSH2 0x3522 JUMP JUMPDEST SWAP7 SWAP6 POP POP POP POP POP POP JUMP INVALID COINBASE PUSH5 0x6472657373 GASPRICE KECCAK256 PUSH13 0x6F772D6C6576656C2064656C65 PUSH8 0x6174652063616C6C KECCAK256 PUSH7 0x61696C6564A264 PUSH10 0x7066735822122071BE04 0xB3 0xA8 0xC4 CALLDATASIZE SAR 0xC1 PUSH26 0xD76A2F6368A52DC38BF524779F7E29746017BB6736F164736F6C PUSH4 0x43000818 STOP CALLER "
		},
		"gasEstimates": {
			"creation": {
				"codeDepositCost": "4028400",
				"executionCost": "infinite",
				"totalCost": "infinite"
			},
			"external": {
				"entryPoint()": "infinite",
				"factory()": "infinite",
				"getAllActiveSigners()": "infinite",
				"getAllAdmins()": "infinite",
				"getAllSigners()": "infinite",
				"getNonce()": "infinite",
				"getPermissionsForSigner(address)": "infinite",
				"initialize(address,bytes)": "infinite",
				"isActiveSigner(address)": "infinite",
				"isAdmin(address)": "3008",
				"isValidSigner(address,(address,uint256,bytes,bytes,uint256,uint256,uint256,uint256,uint256,bytes,bytes))": "infinite",
				"multicall(bytes[])": "infinite",
				"setEntrypointOverride(address)": "27256",
				"setPermissionsForSigner((address,uint8,address[],uint256,uint128,uint128,uint128,uint128,bytes32),bytes)": "infinite",
				"validateUserOp((address,uint256,bytes,bytes,uint256,uint256,uint256,uint256,uint256,bytes,bytes),bytes32,uint256)": "infinite",
				"verifySignerPermissionRequest((address,uint8,address[],uint256,uint128,uint128,uint128,uint128,bytes32),bytes)": "infinite"
			},
			"internal": {
				"_afterSignerPermissionsUpdate(struct IAccountPermissions.SignerPermissionRequest calldata)": "infinite",
				"_generateSalt(address,bytes memory)": "infinite",
				"_setAdmin(address,bool)": "infinite",
				"_validateSignature(struct UserOperation calldata,bytes32)": "infinite",
				"decodeExecuteBatchCalldata(bytes calldata)": "infinite",
				"decodeExecuteCalldata(bytes calldata)": "infinite",
				"getFunctionSignature(bytes calldata)": "infinite"
			}
		},
		"methodIdentifiers": {
			"entryPoint()": "b0d691fe",
			"factory()": "c45a0155",
			"getAllActiveSigners()": "8b52d723",
			"getAllAdmins()": "e9523c97",
			"getAllSigners()": "d42f2f35",
			"getNonce()": "d087d288",
			"getPermissionsForSigner(address)": "f15d424e",
			"initialize(address,bytes)": "d1f57894",
			"isActiveSigner(address)": "7dff5a79",
			"isAdmin(address)": "24d7806c",
			"isValidSigner(address,(address,uint256,bytes,bytes,uint256,uint256,uint256,uint256,uint256,bytes,bytes))": "1dd756c5",
			"multicall(bytes[])": "ac9650d8",
			"setEntrypointOverride(address)": "b76464d5",
			"setPermissionsForSigner((address,uint8,address[],uint256,uint128,uint128,uint128,uint128,bytes32),bytes)": "5892e236",
			"validateUserOp((address,uint256,bytes,bytes,uint256,uint256,uint256,uint256,uint256,bytes,bytes),bytes32,uint256)": "3a871cdd",
			"verifySignerPermissionRequest((address,uint8,address[],uint256,uint128,uint128,uint128,uint128,bytes32),bytes)": "a9082d84"
		}
	},
	"abi": [
		{
			"inputs": [
				{
					"internalType": "contract IEntryPoint",
					"name": "_entrypoint",
					"type": "address"
				},
				{
					"internalType": "address",
					"name": "_factory",
					"type": "address"
				}
			],
			"stateMutability": "nonpayable",
			"type": "constructor"
		},
		{
			"anonymous": false,
			"inputs": [
				{
					"indexed": true,
					"internalType": "address",
					"name": "signer",
					"type": "address"
				},
				{
					"indexed": false,
					"internalType": "bool",
					"name": "isAdmin",
					"type": "bool"
				}
			],
			"name": "AdminUpdated",
			"type": "event"
		},
		{
			"anonymous": false,
			"inputs": [
				{
					"indexed": false,
					"internalType": "uint8",
					"name": "version",
					"type": "uint8"
				}
			],
			"name": "Initialized",
			"type": "event"
		},
		{
			"anonymous": false,
			"inputs": [
				{
					"indexed": true,
					"internalType": "address",
					"name": "authorizingSigner",
					"type": "address"
				},
				{
					"indexed": true,
					"internalType": "address",
					"name": "targetSigner",
					"type": "address"
				},
				{
					"components": [
						{
							"internalType": "address",
							"name": "signer",
							"type": "address"
						},
						{
							"internalType": "uint8",
							"name": "isAdmin",
							"type": "uint8"
						},
						{
							"internalType": "address[]",
							"name": "approvedTargets",
							"type": "address[]"
						},
						{
							"internalType": "uint256",
							"name": "nativeTokenLimitPerTransaction",
							"type": "uint256"
						},
						{
							"internalType": "uint128",
							"name": "permissionStartTimestamp",
							"type": "uint128"
						},
						{
							"internalType": "uint128",
							"name": "permissionEndTimestamp",
							"type": "uint128"
						},
						{
							"internalType": "uint128",
							"name": "reqValidityStartTimestamp",
							"type": "uint128"
						},
						{
							"internalType": "uint128",
							"name": "reqValidityEndTimestamp",
							"type": "uint128"
						},
						{
							"internalType": "bytes32",
							"name": "uid",
							"type": "bytes32"
						}
					],
					"indexed": false,
					"internalType": "struct IAccountPermissions.SignerPermissionRequest",
					"name": "permissions",
					"type": "tuple"
				}
			],
			"name": "SignerPermissionsUpdated",
			"type": "event"
		},
		{
			"inputs": [],
			"name": "entryPoint",
			"outputs": [
				{
					"internalType": "contract IEntryPoint",
					"name": "",
					"type": "address"
				}
			],
			"stateMutability": "view",
			"type": "function"
		},
		{
			"inputs": [],
			"name": "factory",
			"outputs": [
				{
					"internalType": "address",
					"name": "",
					"type": "address"
				}
			],
			"stateMutability": "view",
			"type": "function"
		},
		{
			"inputs": [],
			"name": "getAllActiveSigners",
			"outputs": [
				{
					"components": [
						{
							"internalType": "address",
							"name": "signer",
							"type": "address"
						},
						{
							"internalType": "address[]",
							"name": "approvedTargets",
							"type": "address[]"
						},
						{
							"internalType": "uint256",
							"name": "nativeTokenLimitPerTransaction",
							"type": "uint256"
						},
						{
							"internalType": "uint128",
							"name": "startTimestamp",
							"type": "uint128"
						},
						{
							"internalType": "uint128",
							"name": "endTimestamp",
							"type": "uint128"
						}
					],
					"internalType": "struct IAccountPermissions.SignerPermissions[]",
					"name": "signers",
					"type": "tuple[]"
				}
			],
			"stateMutability": "view",
			"type": "function"
		},
		{
			"inputs": [],
			"name": "getAllAdmins",
			"outputs": [
				{
					"internalType": "address[]",
					"name": "",
					"type": "address[]"
				}
			],
			"stateMutability": "view",
			"type": "function"
		},
		{
			"inputs": [],
			"name": "getAllSigners",
			"outputs": [
				{
					"components": [
						{
							"internalType": "address",
							"name": "signer",
							"type": "address"
						},
						{
							"internalType": "address[]",
							"name": "approvedTargets",
							"type": "address[]"
						},
						{
							"internalType": "uint256",
							"name": "nativeTokenLimitPerTransaction",
							"type": "uint256"
						},
						{
							"internalType": "uint128",
							"name": "startTimestamp",
							"type": "uint128"
						},
						{
							"internalType": "uint128",
							"name": "endTimestamp",
							"type": "uint128"
						}
					],
					"internalType": "struct IAccountPermissions.SignerPermissions[]",
					"name": "signers",
					"type": "tuple[]"
				}
			],
			"stateMutability": "view",
			"type": "function"
		},
		{
			"inputs": [],
			"name": "getNonce",
			"outputs": [
				{
					"internalType": "uint256",
					"name": "",
					"type": "uint256"
				}
			],
			"stateMutability": "view",
			"type": "function"
		},
		{
			"inputs": [
				{
					"internalType": "address",
					"name": "signer",
					"type": "address"
				}
			],
			"name": "getPermissionsForSigner",
			"outputs": [
				{
					"components": [
						{
							"internalType": "address",
							"name": "signer",
							"type": "address"
						},
						{
							"internalType": "address[]",
							"name": "approvedTargets",
							"type": "address[]"
						},
						{
							"internalType": "uint256",
							"name": "nativeTokenLimitPerTransaction",
							"type": "uint256"
						},
						{
							"internalType": "uint128",
							"name": "startTimestamp",
							"type": "uint128"
						},
						{
							"internalType": "uint128",
							"name": "endTimestamp",
							"type": "uint128"
						}
					],
					"internalType": "struct IAccountPermissions.SignerPermissions",
					"name": "",
					"type": "tuple"
				}
			],
			"stateMutability": "view",
			"type": "function"
		},
		{
			"inputs": [
				{
					"internalType": "address",
					"name": "_defaultAdmin",
					"type": "address"
				},
				{
					"internalType": "bytes",
					"name": "_data",
					"type": "bytes"
				}
			],
			"name": "initialize",
			"outputs": [],
			"stateMutability": "nonpayable",
			"type": "function"
		},
		{
			"inputs": [
				{
					"internalType": "address",
					"name": "signer",
					"type": "address"
				}
			],
			"name": "isActiveSigner",
			"outputs": [
				{
					"internalType": "bool",
					"name": "",
					"type": "bool"
				}
			],
			"stateMutability": "view",
			"type": "function"
		},
		{
			"inputs": [
				{
					"internalType": "address",
					"name": "_account",
					"type": "address"
				}
			],
			"name": "isAdmin",
			"outputs": [
				{
					"internalType": "bool",
					"name": "",
					"type": "bool"
				}
			],
			"stateMutability": "view",
			"type": "function"
		},
		{
			"inputs": [
				{
					"internalType": "address",
					"name": "_signer",
					"type": "address"
				},
				{
					"components": [
						{
							"internalType": "address",
							"name": "sender",
							"type": "address"
						},
						{
							"internalType": "uint256",
							"name": "nonce",
							"type": "uint256"
						},
						{
							"internalType": "bytes",
							"name": "initCode",
							"type": "bytes"
						},
						{
							"internalType": "bytes",
							"name": "callData",
							"type": "bytes"
						},
						{
							"internalType": "uint256",
							"name": "callGasLimit",
							"type": "uint256"
						},
						{
							"internalType": "uint256",
							"name": "verificationGasLimit",
							"type": "uint256"
						},
						{
							"internalType": "uint256",
							"name": "preVerificationGas",
							"type": "uint256"
						},
						{
							"internalType": "uint256",
							"name": "maxFeePerGas",
							"type": "uint256"
						},
						{
							"internalType": "uint256",
							"name": "maxPriorityFeePerGas",
							"type": "uint256"
						},
						{
							"internalType": "bytes",
							"name": "paymasterAndData",
							"type": "bytes"
						},
						{
							"internalType": "bytes",
							"name": "signature",
							"type": "bytes"
						}
					],
					"internalType": "struct UserOperation",
					"name": "_userOp",
					"type": "tuple"
				}
			],
			"name": "isValidSigner",
			"outputs": [
				{
					"internalType": "bool",
					"name": "",
					"type": "bool"
				}
			],
			"stateMutability": "view",
			"type": "function"
		},
		{
			"inputs": [
				{
					"internalType": "bytes[]",
					"name": "data",
					"type": "bytes[]"
				}
			],
			"name": "multicall",
			"outputs": [
				{
					"internalType": "bytes[]",
					"name": "results",
					"type": "bytes[]"
				}
			],
			"stateMutability": "nonpayable",
			"type": "function"
		},
		{
			"inputs": [
				{
					"internalType": "contract IEntryPoint",
					"name": "_entrypointOverride",
					"type": "address"
				}
			],
			"name": "setEntrypointOverride",
			"outputs": [],
			"stateMutability": "nonpayable",
			"type": "function"
		},
		{
			"inputs": [
				{
					"components": [
						{
							"internalType": "address",
							"name": "signer",
							"type": "address"
						},
						{
							"internalType": "uint8",
							"name": "isAdmin",
							"type": "uint8"
						},
						{
							"internalType": "address[]",
							"name": "approvedTargets",
							"type": "address[]"
						},
						{
							"internalType": "uint256",
							"name": "nativeTokenLimitPerTransaction",
							"type": "uint256"
						},
						{
							"internalType": "uint128",
							"name": "permissionStartTimestamp",
							"type": "uint128"
						},
						{
							"internalType": "uint128",
							"name": "permissionEndTimestamp",
							"type": "uint128"
						},
						{
							"internalType": "uint128",
							"name": "reqValidityStartTimestamp",
							"type": "uint128"
						},
						{
							"internalType": "uint128",
							"name": "reqValidityEndTimestamp",
							"type": "uint128"
						},
						{
							"internalType": "bytes32",
							"name": "uid",
							"type": "bytes32"
						}
					],
					"internalType": "struct IAccountPermissions.SignerPermissionRequest",
					"name": "_req",
					"type": "tuple"
				},
				{
					"internalType": "bytes",
					"name": "_signature",
					"type": "bytes"
				}
			],
			"name": "setPermissionsForSigner",
			"outputs": [],
			"stateMutability": "nonpayable",
			"type": "function"
		},
		{
			"inputs": [
				{
					"components": [
						{
							"internalType": "address",
							"name": "sender",
							"type": "address"
						},
						{
							"internalType": "uint256",
							"name": "nonce",
							"type": "uint256"
						},
						{
							"internalType": "bytes",
							"name": "initCode",
							"type": "bytes"
						},
						{
							"internalType": "bytes",
							"name": "callData",
							"type": "bytes"
						},
						{
							"internalType": "uint256",
							"name": "callGasLimit",
							"type": "uint256"
						},
						{
							"internalType": "uint256",
							"name": "verificationGasLimit",
							"type": "uint256"
						},
						{
							"internalType": "uint256",
							"name": "preVerificationGas",
							"type": "uint256"
						},
						{
							"internalType": "uint256",
							"name": "maxFeePerGas",
							"type": "uint256"
						},
						{
							"internalType": "uint256",
							"name": "maxPriorityFeePerGas",
							"type": "uint256"
						},
						{
							"internalType": "bytes",
							"name": "paymasterAndData",
							"type": "bytes"
						},
						{
							"internalType": "bytes",
							"name": "signature",
							"type": "bytes"
						}
					],
					"internalType": "struct UserOperation",
					"name": "userOp",
					"type": "tuple"
				},
				{
					"internalType": "bytes32",
					"name": "userOpHash",
					"type": "bytes32"
				},
				{
					"internalType": "uint256",
					"name": "missingAccountFunds",
					"type": "uint256"
				}
			],
			"name": "validateUserOp",
			"outputs": [
				{
					"internalType": "uint256",
					"name": "validationData",
					"type": "uint256"
				}
			],
			"stateMutability": "nonpayable",
			"type": "function"
		},
		{
			"inputs": [
				{
					"components": [
						{
							"internalType": "address",
							"name": "signer",
							"type": "address"
						},
						{
							"internalType": "uint8",
							"name": "isAdmin",
							"type": "uint8"
						},
						{
							"internalType": "address[]",
							"name": "approvedTargets",
							"type": "address[]"
						},
						{
							"internalType": "uint256",
							"name": "nativeTokenLimitPerTransaction",
							"type": "uint256"
						},
						{
							"internalType": "uint128",
							"name": "permissionStartTimestamp",
							"type": "uint128"
						},
						{
							"internalType": "uint128",
							"name": "permissionEndTimestamp",
							"type": "uint128"
						},
						{
							"internalType": "uint128",
							"name": "reqValidityStartTimestamp",
							"type": "uint128"
						},
						{
							"internalType": "uint128",
							"name": "reqValidityEndTimestamp",
							"type": "uint128"
						},
						{
							"internalType": "bytes32",
							"name": "uid",
							"type": "bytes32"
						}
					],
					"internalType": "struct IAccountPermissions.SignerPermissionRequest",
					"name": "req",
					"type": "tuple"
				},
				{
					"internalType": "bytes",
					"name": "signature",
					"type": "bytes"
				}
			],
			"name": "verifySignerPermissionRequest",
			"outputs": [
				{
					"internalType": "bool",
					"name": "success",
					"type": "bool"
				},
				{
					"internalType": "address",
					"name": "signer",
					"type": "address"
				}
			],
			"stateMutability": "view",
			"type": "function"
		}
	]
}