{
	"data": {
		"bytecode": {
			"linkReferences": {},
			"object": "61018060405234801562000011575f80fd5b506040516200605c3803806200605c833981810160405281019062000037919062000400565b81816040518060400160405280600781526020017f4163636f756e74000000000000000000000000000000000000000000000000008152506040518060400160405280600181526020017f31000000000000000000000000000000000000000000000000000000000000008152505f828051906020012090505f828051906020012090505f7f8b73c3c69bb8fe3d512ecc4cf759cc79239f7b179b0ffacaa9a75d522b39400f90508260e081815250508161010081815250504660a081815250506200010b818484620001d860201b60201c565b608081815250503073ffffffffffffffffffffffffffffffffffffffff1660c08173ffffffffffffffffffffffffffffffffffffffff16815250508061012081815250505050505050620001646200021360201b60201c565b8073ffffffffffffffffffffffffffffffffffffffff166101408173ffffffffffffffffffffffffffffffffffffffff16815250508173ffffffffffffffffffffffffffffffffffffffff166101608173ffffffffffffffffffffffffffffffffffffffff168152505050505050620005c1565b5f8383834630604051602001620001f49594939291906200048a565b6040516020818303038152906040528051906020012090509392505050565b5f620002246200031560201b60201c565b5f015f9054906101000a900460ff1690505f620002466200031560201b60201c565b5f0160019054906101000a900460ff16905080156200029c576040517f08c379a0000000000000000000000000000000000000000000000000000000008152600401620002939062000569565b60405180910390fd5b60ff80168260ff161015620003115760ff620002bd6200031560201b60201c565b5f015f6101000a81548160ff021916908360ff1602179055507f7f26b83ff96e1f2b6a682f133852f6798a09c465da95921460cefb384740249860ff604051620003089190620005a6565b60405180910390a15b5050565b5f620003266200032b60201b60201c565b905090565b5f807f322cf19c484104d3b1a9c2982ebae869ede3fa5f6c4703ca41b9a48c76ee03005f1b90508091505090565b5f80fd5b5f73ffffffffffffffffffffffffffffffffffffffff82169050919050565b5f62000388826200035d565b9050919050565b5f6200039b826200037c565b9050919050565b620003ad816200038f565b8114620003b8575f80fd5b50565b5f81519050620003cb81620003a2565b92915050565b620003dc816200037c565b8114620003e7575f80fd5b50565b5f81519050620003fa81620003d1565b92915050565b5f806040838503121562000419576200041862000359565b5b5f6200042885828601620003bb565b92505060206200043b85828601620003ea565b9150509250929050565b5f819050919050565b620004598162000445565b82525050565b5f819050919050565b62000473816200045f565b82525050565b62000484816200037c565b82525050565b5f60a0820190506200049f5f8301886200044e565b620004ae60208301876200044e565b620004bd60408301866200044e565b620004cc606083018562000468565b620004db608083018462000479565b9695505050505050565b5f82825260208201905092915050565b7f496e697469616c697a61626c653a20636f6e747261637420697320696e6974695f8201527f616c697a696e6700000000000000000000000000000000000000000000000000602082015250565b5f62000551602783620004e5565b91506200055e82620004f5565b604082019050919050565b5f6020820190508181035f830152620005828162000543565b9050919050565b5f60ff82169050919050565b620005a08162000589565b82525050565b5f602082019050620005bb5f83018462000595565b92915050565b60805160a05160c05160e05161010051610120516101405161016051615a0e6200064e5f395f61179901525f818161054401528181610ae901528181611814015281816123be015281816124020152818161249a015281816125ad01526125eb01525f61305f01525f6130a101525f61308001525f612fb501525f61300b01525f6130340152615a0e5ff3fe60806040526004361061010c575f3560e01c8063b0d691fe11610094578063d087d28811610063578063d087d2881461045f578063d1f5789414610489578063d42f2f35146104b1578063e9523c97146104db578063f15d424e146105055761010d565b8063b0d691fe146103a7578063b76464d5146103d1578063c45a0155146103f9578063ce0b6013146104235761010d565b80635892e236116100db5780635892e236146102a05780637dff5a79146102c85780638b52d72314610304578063a9082d841461032e578063ac9650d81461036b5761010d565b80631dd756c5146101c257806324d7806c146101fe5780633a871cdd1461023a5780634a00cc48146102765761010d565b5b5f8036905003156101c0575f6101455f357fffffffff0000000000000000000000000000000000000000000000000000000016610541565b90505f73ffffffffffffffffffffffffffffffffffffffff168173ffffffffffffffffffffffffffffffffffffffff16036101b5576040517f08c379a00000000000000000000000000000000000000000000000000000000081526004016101ac90613341565b60405180910390fd5b6101be816105e1565b505b005b3480156101cd575f80fd5b506101e860048036038101906101e391906133ed565b610600565b6040516101f59190613461565b60405180910390f35b348015610209575f80fd5b50610224600480360381019061021f919061347a565b610a58565b6040516102319190613461565b60405180910390f35b348015610245575f80fd5b50610260600480360381019061025b919061350b565b610ab3565b60405161026d9190613586565b60405180910390f35b348015610281575f80fd5b5061028a610ae5565b60405161029791906138b7565b60405180910390f35b3480156102ab575f80fd5b506102c660048036038101906102c19190613957565b610b7c565b005b3480156102d3575f80fd5b506102ee60048036038101906102e9919061347a565b6110b9565b6040516102fb9190613461565b60405180910390f35b34801561030f575f80fd5b50610318611245565b6040516103259190613bdf565b60405180910390f35b348015610339575f80fd5b50610354600480360381019061034f9190613957565b6115ca565b604051610362929190613c0e565b60405180910390f35b348015610376575f80fd5b50610391600480360381019061038c9190613c8a565b611629565b60405161039e9190613de2565b60405180910390f35b3480156103b2575f80fd5b506103bb61172d565b6040516103c89190613e5d565b60405180910390f35b3480156103dc575f80fd5b506103f760048036038101906103f29190613eb1565b6117bf565b005b348015610404575f80fd5b5061040d611812565b60405161041a9190613edc565b60405180910390f35b34801561042e575f80fd5b5061044960048036038101906104449190613f1f565b610541565b6040516104569190613edc565b60405180910390f35b34801561046a575f80fd5b50610473611836565b6040516104809190613586565b60405180910390f35b348015610494575f80fd5b506104af60048036038101906104aa9190613f4a565b6118bd565b005b3480156104bc575f80fd5b506104c5611a83565b6040516104d29190613bdf565b60405180910390f35b3480156104e6575f80fd5b506104ef611d01565b6040516104fc9190614013565b60405180910390f35b348015610510575f80fd5b5061052b6004803603810190610526919061347a565b611d1a565b60405161053891906140a6565b60405180910390f35b5f7f000000000000000000000000000000000000000000000000000000000000000073ffffffffffffffffffffffffffffffffffffffff1663ce0b6013836040518263ffffffff1660e01b815260040161059b91906140d5565b602060405180830381865afa1580156105b6573d5f803e3d5ffd5b505050506040513d601f19601f820116820180604052508101906105da9190614102565b9050919050565b365f80375f80365f845af43d5f803e805f81146105fc573d5ff35b3d5ffd5b5f610609611ed3565b6004015f8473ffffffffffffffffffffffffffffffffffffffff1673ffffffffffffffffffffffffffffffffffffffff1681526020019081526020015f205f9054906101000a900460ff16156106625760019050610a52565b5f61066b611ed3565b6005015f8573ffffffffffffffffffffffffffffffffffffffff1673ffffffffffffffffffffffffffffffffffffffff1681526020019081526020015f206040518060600160405290815f8201548152602001600182015f9054906101000a90046fffffffffffffffffffffffffffffffff166fffffffffffffffffffffffffffffffff166fffffffffffffffffffffffffffffffff1681526020016001820160109054906101000a90046fffffffffffffffffffffffffffffffff166fffffffffffffffffffffffffffffffff166fffffffffffffffffffffffffffffffff168152505090505f61075b611ed3565b6006015f8673ffffffffffffffffffffffffffffffffffffffff1673ffffffffffffffffffffffffffffffffffffffff1681526020019081526020015f2090504282602001516fffffffffffffffffffffffffffffffff1611806107d5575081604001516fffffffffffffffffffffffffffffffff164210155b806107e757505f6107e582611ee1565b145b156107f6575f92505050610a52565b5f61080f85806060019061080a9190614139565b611ef4565b90505f600161081d84611ee1565b14801561086757505f73ffffffffffffffffffffffffffffffffffffffff1661084f5f85611f6290919063ffffffff16565b73ffffffffffffffffffffffffffffffffffffffff16145b905063b61d27f660e01b7bffffffffffffffffffffffffffffffffffffffffffffffffffffffff1916827bffffffffffffffffffffffffffffffffffffffffffffffffffffffff19160361091e575f806108cf8880606001906108ca9190614139565b611f79565b91509150826108fe576108eb828661200f90919063ffffffff16565b6108fd575f9650505050505050610a52565b5b80865f01511015610917575f9650505050505050610a52565b5050610a49565b6347e1da2a60e01b7bffffffffffffffffffffffffffffffffffffffffffffffffffffffff1916827bffffffffffffffffffffffffffffffffffffffffffffffffffffffff191603610a3c575f8061098488806060019061097f9190614139565b61203c565b5091509150826109e8575f5b82518110156109e6576109c68382815181106109af576109ae61419b565b5b60200260200101518761200f90919063ffffffff16565b6109d9575f975050505050505050610a52565b8080600101915050610990565b505b5f5b8251811015610a3457818181518110610a0657610a0561419b565b5b6020026020010151875f01511015610a27575f975050505050505050610a52565b80806001019150506109ea565b505050610a48565b5f945050505050610a52565b5b60019450505050505b92915050565b5f610a61611ed3565b6004015f8373ffffffffffffffffffffffffffffffffffffffff1673ffffffffffffffffffffffffffffffffffffffff1681526020019081526020015f205f9054906101000a900460ff169050919050565b5f610abc6120bb565b610ac68484612132565b9050610ad58460200135612317565b610ade8261231a565b9392505050565b60607f000000000000000000000000000000000000000000000000000000000000000073ffffffffffffffffffffffffffffffffffffffff16634a00cc486040518163ffffffff1660e01b81526004015f60405180830381865afa158015610b4f573d5f803e3d5ffd5b505050506040513d5f823e3d601f19601f82011682018060405250810190610b779190614641565b905090565b5f835f016020810190610b8f919061347a565b9050428460c0016020810190610ba591906146b2565b6fffffffffffffffffffffffffffffffff1611158015610be857508360e0016020810190610bd391906146b2565b6fffffffffffffffffffffffffffffffff1642105b610c27576040517f08c379a0000000000000000000000000000000000000000000000000000000008152600401610c1e90614727565b60405180910390fd5b5f80610c348686866115ca565b9150915081610c78576040517f08c379a0000000000000000000000000000000000000000000000000000000008152600401610c6f9061478f565b60405180910390fd5b6001610c82611ed3565b6007015f88610100013581526020019081526020015f205f6101000a81548160ff0219169083151502179055505f866020016020810190610cc391906147e3565b60ff161115610cfb575f6001876020016020810190610ce291906147e3565b60ff16149050610cf284826123b1565b505050506110b4565b610d0483610a58565b15610d44576040517f08c379a0000000000000000000000000000000000000000000000000000000008152600401610d3b90614858565b60405180910390fd5b610d6183610d50611ed3565b60020161253190919063ffffffff16565b50604051806060016040528087606001358152602001876080016020810190610d8a91906146b2565b6fffffffffffffffffffffffffffffffff1681526020018760a0016020810190610db491906146b2565b6fffffffffffffffffffffffffffffffff16815250610dd1611ed3565b6005015f8573ffffffffffffffffffffffffffffffffffffffff1673ffffffffffffffffffffffffffffffffffffffff1681526020019081526020015f205f820151815f01556020820151816001015f6101000a8154816fffffffffffffffffffffffffffffffff02191690836fffffffffffffffffffffffffffffffff16021790555060408201518160010160106101000a8154816fffffffffffffffffffffffffffffffff02191690836fffffffffffffffffffffffffffffffff1602179055509050505f610ee6610ea3611ed3565b6006015f8673ffffffffffffffffffffffffffffffffffffffff1673ffffffffffffffffffffffffffffffffffffffff1681526020019081526020015f2061255e565b90505f815190505f5b81811015610f7e57610f69838281518110610f0d57610f0c61419b565b5b6020026020010151610f1d611ed3565b6006015f8973ffffffffffffffffffffffffffffffffffffffff1673ffffffffffffffffffffffffffffffffffffffff1681526020019081526020015f2061257d90919063ffffffff16565b50600181610f7791906148a3565b9050610eef565b50878060400190610f8f91906148d6565b905090505f5b8181101561103f5761102a898060400190610fb091906148d6565b83818110610fc157610fc061419b565b5b9050602002016020810190610fd6919061347a565b610fde611ed3565b6006015f8973ffffffffffffffffffffffffffffffffffffffff1673ffffffffffffffffffffffffffffffffffffffff1681526020019081526020015f2061253190919063ffffffff16565b5060018161103891906148a3565b9050610f95565b50611049886125aa565b8473ffffffffffffffffffffffffffffffffffffffff168373ffffffffffffffffffffffffffffffffffffffff167ff21d10c26e35863a8df291aca54181ee8c4a3bc8e00246c3f7a5a14b69d826a78a6040516110a69190614bae565b60405180910390a350505050505b505050565b5f806110c3611ed3565b6005015f8473ffffffffffffffffffffffffffffffffffffffff1673ffffffffffffffffffffffffffffffffffffffff1681526020019081526020015f206040518060600160405290815f8201548152602001600182015f9054906101000a90046fffffffffffffffffffffffffffffffff166fffffffffffffffffffffffffffffffff166fffffffffffffffffffffffffffffffff1681526020016001820160109054906101000a90046fffffffffffffffffffffffffffffffff166fffffffffffffffffffffffffffffffff166fffffffffffffffffffffffffffffffff168152505090504281602001516fffffffffffffffffffffffffffffffff16111580156111e5575080604001516fffffffffffffffffffffffffffffffff1642105b801561123d57505f61123b6111f8611ed3565b6006015f8673ffffffffffffffffffffffffffffffffffffffff1673ffffffffffffffffffffffffffffffffffffffff1681526020019081526020015f20611ee1565b115b915050919050565b60605f61125b611253611ed3565b60020161255e565b90505f815190505f805b8281101561130b576112908482815181106112835761128261419b565b5b60200260200101516110b9565b156112a85781806112a090614bce565b9250506112f7565b5f8482815181106112bc576112bb61419b565b5b602002602001019073ffffffffffffffffffffffffffffffffffffffff16908173ffffffffffffffffffffffffffffffffffffffff16815250505b60018161130491906148a3565b9050611265565b508067ffffffffffffffff811115611326576113256141c8565b5b60405190808252806020026020018201604052801561135f57816020015b61134c613282565b8152602001906001900390816113445790505b5093505f805b838110156115c2575f73ffffffffffffffffffffffffffffffffffffffff168582815181106113975761139661419b565b5b602002602001015173ffffffffffffffffffffffffffffffffffffffff16146115ae575f8582815181106113ce576113cd61419b565b5b602002602001015190505f6113e1611ed3565b6005015f8373ffffffffffffffffffffffffffffffffffffffff1673ffffffffffffffffffffffffffffffffffffffff1681526020019081526020015f206040518060600160405290815f8201548152602001600182015f9054906101000a90046fffffffffffffffffffffffffffffffff166fffffffffffffffffffffffffffffffff166fffffffffffffffffffffffffffffffff1681526020016001820160109054906101000a90046fffffffffffffffffffffffffffffffff166fffffffffffffffffffffffffffffffff166fffffffffffffffffffffffffffffffff168152505090506040518060a001604052808373ffffffffffffffffffffffffffffffffffffffff16815260200161153d6114fa611ed3565b6006015f8673ffffffffffffffffffffffffffffffffffffffff1673ffffffffffffffffffffffffffffffffffffffff1681526020019081526020015f2061255e565b8152602001825f0151815260200182602001516fffffffffffffffffffffffffffffffff16815260200182604001516fffffffffffffffffffffffffffffffff1681525088858061158d90614bce565b9650815181106115a05761159f61419b565b5b602002602001018190525050505b6001816115bb91906148a3565b9050611365565b505050505090565b5f806115df6115d886612691565b8585612796565b90506115e9611ed3565b6007015f86610100013581526020019081526020015f205f9054906101000a900460ff1615801561161f575061161e81610a58565b5b9150935093915050565b60608282905067ffffffffffffffff811115611648576116476141c8565b5b60405190808252806020026020018201604052801561167b57816020015b60608152602001906001900390816116665790505b5090505f5b83839050811015611726576116fb308585848181106116a2576116a161419b565b5b90506020028101906116b49190614139565b8080601f0160208091040260200160405190810160405280939291908181526020018383808284375f81840152601f19601f82011690508083019250505050505050612805565b82828151811061170e5761170d61419b565b5b60200260200101819052508080600101915050611680565b5092915050565b5f80611737612832565b5f015f9054906101000a900473ffffffffffffffffffffffffffffffffffffffff1690505f73ffffffffffffffffffffffffffffffffffffffff168173ffffffffffffffffffffffffffffffffffffffff161461179757809150506117bc565b7f00000000000000000000000000000000000000000000000000000000000000009150505b90565b6117c7612860565b806117d0612832565b5f015f6101000a81548173ffffffffffffffffffffffffffffffffffffffff021916908373ffffffffffffffffffffffffffffffffffffffff16021790555050565b7f000000000000000000000000000000000000000000000000000000000000000081565b5f61183f61172d565b73ffffffffffffffffffffffffffffffffffffffff166335567e1a305f6040518363ffffffff1660e01b8152600401611879929190614c71565b602060405180830381865afa158015611894573d5f803e3d5ffd5b505050506040513d601f19601f820116820180604052508101906118b89190614cac565b905090565b5f6118c66128aa565b5f015f9054906101000a900460ff1690505f6118e06128aa565b5f0160019054906101000a900460ff1690505f81159050808015611907575060018360ff16105b806119275750611916306128b8565b158015611926575060018360ff16145b5b611966576040517f08c379a000000000000000000000000000000000000000000000000000000000815260040161195d90614d47565b60405180910390fd5b60016119706128aa565b5f015f6101000a81548160ff021916908360ff16021790555080156119b35760016119996128aa565b5f0160016101000a81548160ff0219169083151502179055505b611a008686868080601f0160208091040260200160405190810160405280939291908181526020018383808284375f81840152601f19601f820116905080830192505050505050506128da565b611a08612832565b60010181905550611a1a8660016123b1565b8015611a7b575f611a296128aa565b5f0160016101000a81548160ff0219169083151502179055507f7f26b83ff96e1f2b6a682f133852f6798a09c465da95921460cefb38474024986001604051611a729190614d9e565b60405180910390a15b505050505050565b60605f611a99611a91611ed3565b60020161255e565b90505f815190508067ffffffffffffffff811115611aba57611ab96141c8565b5b604051908082528060200260200182016040528015611af357816020015b611ae0613282565b815260200190600190039081611ad85790505b5092505f5b81811015611cfb575f838281518110611b1457611b1361419b565b5b602002602001015190505f611b27611ed3565b6005015f8373ffffffffffffffffffffffffffffffffffffffff1673ffffffffffffffffffffffffffffffffffffffff1681526020019081526020015f206040518060600160405290815f8201548152602001600182015f9054906101000a90046fffffffffffffffffffffffffffffffff166fffffffffffffffffffffffffffffffff166fffffffffffffffffffffffffffffffff1681526020016001820160109054906101000a90046fffffffffffffffffffffffffffffffff166fffffffffffffffffffffffffffffffff166fffffffffffffffffffffffffffffffff168152505090506040518060a001604052808373ffffffffffffffffffffffffffffffffffffffff168152602001611c83611c40611ed3565b6006015f8673ffffffffffffffffffffffffffffffffffffffff1673ffffffffffffffffffffffffffffffffffffffff1681526020019081526020015f2061255e565b8152602001825f0151815260200182602001516fffffffffffffffffffffffffffffffff16815260200182604001516fffffffffffffffffffffffffffffffff16815250868481518110611cda57611cd961419b565b5b60200260200101819052505050600181611cf491906148a3565b9050611af8565b50505090565b6060611d15611d0e611ed3565b5f0161255e565b905090565b611d22613282565b5f611d2b611ed3565b6005015f8473ffffffffffffffffffffffffffffffffffffffff1673ffffffffffffffffffffffffffffffffffffffff1681526020019081526020015f206040518060600160405290815f8201548152602001600182015f9054906101000a90046fffffffffffffffffffffffffffffffff166fffffffffffffffffffffffffffffffff166fffffffffffffffffffffffffffffffff1681526020016001820160109054906101000a90046fffffffffffffffffffffffffffffffff166fffffffffffffffffffffffffffffffff166fffffffffffffffffffffffffffffffff168152505090506040518060a001604052808473ffffffffffffffffffffffffffffffffffffffff168152602001611e87611e44611ed3565b6006015f8773ffffffffffffffffffffffffffffffffffffffff1673ffffffffffffffffffffffffffffffffffffffff1681526020019081526020015f2061255e565b8152602001825f0151815260200182602001516fffffffffffffffffffffffffffffffff16815260200182604001516fffffffffffffffffffffffffffffffff16815250915050919050565b5f611edc61290c565b905090565b5f611eed825f0161293a565b9050919050565b5f6004838390501015611f3c576040517f08c379a0000000000000000000000000000000000000000000000000000000008152600401611f3390614e01565b60405180910390fd5b82825f90600492611f4f93929190614e27565b90611f5a9190614e77565b905092915050565b5f611f6f835f0183612949565b5f1c905092915050565b5f806044848490501015611fc2576040517f08c379a0000000000000000000000000000000000000000000000000000000008152600401611fb990614e01565b60405180910390fd5b8383600490602492611fd693929190614e27565b810190611fe39190614f10565b91508383602490604492611ff993929190614e27565b8101906120069190614f3b565b90509250929050565b5f612034835f018373ffffffffffffffffffffffffffffffffffffffff165f1b612970565b905092915050565b60608060606064858590501015612088576040517f08c379a000000000000000000000000000000000000000000000000000000000815260040161207f90614e01565b60405180910390fd5b8484600490809261209b93929190614e27565b8101906120a89190615270565b8093508194508295505050509250925092565b6120c361172d565b73ffffffffffffffffffffffffffffffffffffffff163373ffffffffffffffffffffffffffffffffffffffff1614612130576040517f08c379a00000000000000000000000000000000000000000000000000000000081526004016121279061535e565b60405180910390fd5b565b5f8061213d83612990565b90505f6121a5858061014001906121549190614139565b8080601f0160208091040260200160405190810160405280939291908181526020018383808284375f81840152601f19601f82011690508083019250505050505050836129c390919063ffffffff16565b90506121b18186610600565b6121c057600192505050612311565b5f6121c9611ed3565b6005015f8373ffffffffffffffffffffffffffffffffffffffff1673ffffffffffffffffffffffffffffffffffffffff1681526020019081526020015f206040518060600160405290815f8201548152602001600182015f9054906101000a90046fffffffffffffffffffffffffffffffff166fffffffffffffffffffffffffffffffff166fffffffffffffffffffffffffffffffff1681526020016001820160109054906101000a90046fffffffffffffffffffffffffffffffff166fffffffffffffffffffffffffffffffff166fffffffffffffffffffffffffffffffff168152505090505f816020015190505f8260400151905061230960405180606001604052805f73ffffffffffffffffffffffffffffffffffffffff1681526020018465ffffffffffff1681526020018365ffffffffffff168152506129e8565b955050505050505b92915050565b50565b5f81146123ae575f3373ffffffffffffffffffffffffffffffffffffffff16827fffffffffffffffffffffffffffffffffffffffffffffffffffffffffffffffff90604051612368906153a9565b5f60405180830381858888f193505050503d805f81146123a3576040519150601f19603f3d011682016040523d82523d5f602084013e6123a8565b606091505b50509050505b50565b6123bb8282612a2e565b5f7f000000000000000000000000000000000000000000000000000000000000000073ffffffffffffffffffffffffffffffffffffffff163b111561252d578015612498577f000000000000000000000000000000000000000000000000000000000000000073ffffffffffffffffffffffffffffffffffffffff16630b61e12b83612445612832565b600101546040518363ffffffff1660e01b81526004016124669291906153cc565b5f604051808303815f87803b15801561247d575f80fd5b505af115801561248f573d5f803e3d5ffd5b5050505061252c565b7f000000000000000000000000000000000000000000000000000000000000000073ffffffffffffffffffffffffffffffffffffffff16639387a380836124dd612832565b600101546040518363ffffffff1660e01b81526004016124fe9291906153cc565b5f604051808303815f87803b158015612515575f80fd5b505af1158015612527573d5f803e3d5ffd5b505050505b5b5050565b5f612556835f018373ffffffffffffffffffffffffffffffffffffffff165f1b612b23565b905092915050565b60605f61256c835f01612b8a565b905060608190508092505050919050565b5f6125a2835f018373ffffffffffffffffffffffffffffffffffffffff165f1b612be3565b905092915050565b5f7f000000000000000000000000000000000000000000000000000000000000000073ffffffffffffffffffffffffffffffffffffffff163b111561268e577f000000000000000000000000000000000000000000000000000000000000000073ffffffffffffffffffffffffffffffffffffffff16630b61e12b825f016020810190612637919061347a565b61263f612832565b600101546040518363ffffffff1660e01b81526004016126609291906153cc565b5f604051808303815f87803b158015612677575f80fd5b505af1158015612689573d5f803e3d5ffd5b505050505b50565b60607f3fd4a1a1a267c84185e3b7eecd57c68783c0581d538b9d6e5f23e4670497c1e9825f0160208101906126c6919061347a565b8360200160208101906126d991906147e3565b8480604001906126e991906148d6565b6040516020016126fa92919061547e565b60405160208183030381529060405280519060200120856060013586608001602081019061272891906146b2565b8760a001602081019061273b91906146b2565b8860c001602081019061274e91906146b2565b8960e001602081019061276191906146b2565b8a61010001356040516020016127809a999897969594939291906154b4565b6040516020818303038152906040529050919050565b5f6127fc83838080601f0160208091040260200160405190810160405280939291908181526020018383808284375f81840152601f19601f820116905080830192505050505050506127ee8680519060200120612cdf565b6129c390919063ffffffff16565b90509392505050565b606061282a83836040518060600160405280602781526020016159b260279139612cf8565b905092915050565b5f807f036f52c1827dab135f7fd44ca0bddde297e2f659c710e0ec53e975f22b5483005f1b90508091505090565b61286933610a58565b6128a8576040517f08c379a000000000000000000000000000000000000000000000000000000000815260040161289f90615598565b60405180910390fd5b565b5f6128b3612dd3565b905090565b5f808273ffffffffffffffffffffffffffffffffffffffff163b119050919050565b5f82826040516020016128ee9291906155fe565b60405160208183030381529060405280519060200120905092915050565b5f807f3181e78fc1b109bc611fd2406150bf06e33faa75f71cba12c3e1fd670f2def005f1b90508091505090565b5f815f01805490509050919050565b5f825f01828154811061295f5761295e61419b565b5b905f5260205f200154905092915050565b5f80836001015f8481526020019081526020015f20541415905092915050565b5f7f19457468657265756d205369676e6564204d6573736167653a0a3332000000005f5281601c52603c5f209050919050565b5f805f6129d08585612e01565b915091506129dd81612e4d565b819250505092915050565b5f60d0826020015165ffffffffffff16901b60a0836040015165ffffffffffff16901b835f015173ffffffffffffffffffffffffffffffffffffffff1617179050919050565b80612a37611ed3565b6004015f8473ffffffffffffffffffffffffffffffffffffffff1673ffffffffffffffffffffffffffffffffffffffff1681526020019081526020015f205f6101000a81548160ff0219169083151502179055508015612ab357612aad82612a9d611ed3565b5f0161253190919063ffffffff16565b50612ad1565b612acf82612abf611ed3565b5f0161257d90919063ffffffff16565b505b8173ffffffffffffffffffffffffffffffffffffffff167f235bc17e7930760029e9f4d860a2a8089976de5b381cf8380fc11c1d88a1113382604051612b179190613461565b60405180910390a25050565b5f612b2e8383612970565b612b8057825f0182908060018154018082558091505060019003905f5260205f20015f9091909190915055825f0180549050836001015f8481526020019081526020015f208190555060019050612b84565b5f90505b92915050565b6060815f01805480602002602001604051908101604052809291908181526020018280548015612bd757602002820191905f5260205f20905b815481526020019060010190808311612bc3575b50505050509050919050565b5f80836001015f8481526020019081526020015f205490505f8114612cd4575f600182612c10919061562c565b90505f6001865f0180549050612c26919061562c565b9050818114612c8c575f865f018281548110612c4557612c4461419b565b5b905f5260205f200154905080875f018481548110612c6657612c6561419b565b5b905f5260205f20018190555083876001015f8381526020019081526020015f2081905550505b855f01805480612c9f57612c9e61565f565b5b600190038181905f5260205f20015f90559055856001015f8681526020019081526020015f205f905560019350505050612cd9565b5f9150505b92915050565b5f612cf1612ceb612fb2565b836130cb565b9050919050565b6060612d03846128b8565b8015612d155750612d13336128b8565b155b612d54576040517f08c379a0000000000000000000000000000000000000000000000000000000008152600401612d4b906156d6565b60405180910390fd5b5f808573ffffffffffffffffffffffffffffffffffffffff1685604051612d7b9190615724565b5f60405180830381855af49150503d805f8114612db3576040519150601f19603f3d011682016040523d82523d5f602084013e612db8565b606091505b5091509150612dc882828661310b565b925050509392505050565b5f807f322cf19c484104d3b1a9c2982ebae869ede3fa5f6c4703ca41b9a48c76ee03005f1b90508091505090565b5f806041835103612e3e575f805f602086015192506040860151915060608601515f1a9050612e3287828585613171565b94509450505050612e46565b5f6002915091505b9250929050565b5f6004811115612e6057612e5f61573a565b5b816004811115612e7357612e7261573a565b5b0315612faf5760016004811115612e8d57612e8c61573a565b5b816004811115612ea057612e9f61573a565b5b03612ee0576040517f08c379a0000000000000000000000000000000000000000000000000000000008152600401612ed7906157b1565b60405180910390fd5b60026004811115612ef457612ef361573a565b5b816004811115612f0757612f0661573a565b5b03612f47576040517f08c379a0000000000000000000000000000000000000000000000000000000008152600401612f3e90615819565b60405180910390fd5b60036004811115612f5b57612f5a61573a565b5b816004811115612f6e57612f6d61573a565b5b03612fae576040517f08c379a0000000000000000000000000000000000000000000000000000000008152600401612fa5906158a7565b60405180910390fd5b5b50565b5f7f000000000000000000000000000000000000000000000000000000000000000073ffffffffffffffffffffffffffffffffffffffff163073ffffffffffffffffffffffffffffffffffffffff1614801561302d57507f000000000000000000000000000000000000000000000000000000000000000046145b1561305a577f000000000000000000000000000000000000000000000000000000000000000090506130c8565b6130c57f00000000000000000000000000000000000000000000000000000000000000007f00000000000000000000000000000000000000000000000000000000000000007f0000000000000000000000000000000000000000000000000000000000000000613249565b90505b90565b5f6040517f190100000000000000000000000000000000000000000000000000000000000081528360028201528260228201526042812091505092915050565b6060831561311b5782905061316a565b5f8351111561312d5782518084602001fd5b816040517f08c379a000000000000000000000000000000000000000000000000000000000815260040161316191906158fd565b60405180910390fd5b9392505050565b5f807f7fffffffffffffffffffffffffffffff5d576e7357a4501ddfe92f46681b20a0835f1c11156131a9575f600391509150613240565b5f6001878787876040515f81526020016040526040516131cc949392919061591d565b6020604051602081039080840390855afa1580156131ec573d5f803e3d5ffd5b5050506020604051035190505f73ffffffffffffffffffffffffffffffffffffffff168173ffffffffffffffffffffffffffffffffffffffff1603613238575f60019250925050613240565b805f92509250505b94509492505050565b5f8383834630604051602001613263959493929190615960565b6040516020818303038152906040528051906020012090509392505050565b6040518060a001604052805f73ffffffffffffffffffffffffffffffffffffffff168152602001606081526020015f81526020015f6fffffffffffffffffffffffffffffffff1681526020015f6fffffffffffffffffffffffffffffffff1681525090565b5f82825260208201905092915050565b7f526f757465723a2066756e6374696f6e20646f6573206e6f742065786973742e5f82015250565b5f61332b6020836132e7565b9150613336826132f7565b602082019050919050565b5f6020820190508181035f8301526133588161331f565b9050919050565b5f604051905090565b5f80fd5b5f80fd5b5f73ffffffffffffffffffffffffffffffffffffffff82169050919050565b5f61339982613370565b9050919050565b6133a98161338f565b81146133b3575f80fd5b50565b5f813590506133c4816133a0565b92915050565b5f80fd5b5f61016082840312156133e4576133e36133ca565b5b81905092915050565b5f806040838503121561340357613402613368565b5b5f613410858286016133b6565b925050602083013567ffffffffffffffff8111156134315761343061336c565b5b61343d858286016133ce565b9150509250929050565b5f8115159050919050565b61345b81613447565b82525050565b5f6020820190506134745f830184613452565b92915050565b5f6020828403121561348f5761348e613368565b5b5f61349c848285016133b6565b91505092915050565b5f819050919050565b6134b7816134a5565b81146134c1575f80fd5b50565b5f813590506134d2816134ae565b92915050565b5f819050919050565b6134ea816134d8565b81146134f4575f80fd5b50565b5f81359050613505816134e1565b92915050565b5f805f6060848603121561352257613521613368565b5b5f84013567ffffffffffffffff81111561353f5761353e61336c565b5b61354b868287016133ce565b935050602061355c868287016134c4565b925050604061356d868287016134f7565b9150509250925092565b613580816134d8565b82525050565b5f6020820190506135995f830184613577565b92915050565b5f81519050919050565b5f82825260208201905092915050565b5f819050602082019050919050565b5f81519050919050565b5f82825260208201905092915050565b5f5b838110156135ff5780820151818401526020810190506135e4565b5f8484015250505050565b5f601f19601f8301169050919050565b5f613624826135c8565b61362e81856135d2565b935061363e8185602086016135e2565b6136478161360a565b840191505092915050565b61365b8161338f565b82525050565b5f606083015f8301518482035f86015261367b828261361a565b91505060208301518482036020860152613695828261361a565b91505060408301516136aa6040860182613652565b508091505092915050565b5f81519050919050565b5f82825260208201905092915050565b5f819050602082019050919050565b5f7fffffffff0000000000000000000000000000000000000000000000000000000082169050919050565b613712816136de565b82525050565b5f604083015f83015161372d5f860182613709565b5060208301518482036020860152613745828261361a565b9150508091505092915050565b5f61375d8383613718565b905092915050565b5f602082019050919050565b5f61377b826136b5565b61378581856136bf565b935083602082028501613797856136cf565b805f5b858110156137d257848403895281516137b38582613752565b94506137be83613765565b925060208a0199505060018101905061379a565b50829750879550505050505092915050565b5f604083015f8301518482035f8601526137fe8282613661565b915050602083015184820360208601526138188282613771565b9150508091505092915050565b5f61383083836137e4565b905092915050565b5f602082019050919050565b5f61384e8261359f565b61385881856135a9565b93508360208202850161386a856135b9565b805f5b858110156138a557848403895281516138868582613825565b945061389183613838565b925060208a0199505060018101905061386d565b50829750879550505050505092915050565b5f6020820190508181035f8301526138cf8184613844565b905092915050565b5f61012082840312156138ed576138ec6133ca565b5b81905092915050565b5f80fd5b5f80fd5b5f80fd5b5f8083601f840112613917576139166138f6565b5b8235905067ffffffffffffffff811115613934576139336138fa565b5b6020830191508360018202830111156139505761394f6138fe565b5b9250929050565b5f805f6040848603121561396e5761396d613368565b5b5f84013567ffffffffffffffff81111561398b5761398a61336c565b5b613997868287016138d7565b935050602084013567ffffffffffffffff8111156139b8576139b761336c565b5b6139c486828701613902565b92509250509250925092565b5f81519050919050565b5f82825260208201905092915050565b5f819050602082019050919050565b5f81519050919050565b5f82825260208201905092915050565b5f819050602082019050919050565b5f613a2d8383613652565b60208301905092915050565b5f602082019050919050565b5f613a4f826139f9565b613a598185613a03565b9350613a6483613a13565b805f5b83811015613a94578151613a7b8882613a22565b9750613a8683613a39565b925050600181019050613a67565b5085935050505092915050565b613aaa816134d8565b82525050565b5f6fffffffffffffffffffffffffffffffff82169050919050565b613ad481613ab0565b82525050565b5f60a083015f830151613aef5f860182613652565b5060208301518482036020860152613b078282613a45565b9150506040830151613b1c6040860182613aa1565b506060830151613b2f6060860182613acb565b506080830151613b426080860182613acb565b508091505092915050565b5f613b588383613ada565b905092915050565b5f602082019050919050565b5f613b76826139d0565b613b8081856139da565b935083602082028501613b92856139ea565b805f5b85811015613bcd5784840389528151613bae8582613b4d565b9450613bb983613b60565b925060208a01995050600181019050613b95565b50829750879550505050505092915050565b5f6020820190508181035f830152613bf78184613b6c565b905092915050565b613c088161338f565b82525050565b5f604082019050613c215f830185613452565b613c2e6020830184613bff565b9392505050565b5f8083601f840112613c4a57613c496138f6565b5b8235905067ffffffffffffffff811115613c6757613c666138fa565b5b602083019150836020820283011115613c8357613c826138fe565b5b9250929050565b5f8060208385031215613ca057613c9f613368565b5b5f83013567ffffffffffffffff811115613cbd57613cbc61336c565b5b613cc985828601613c35565b92509250509250929050565b5f81519050919050565b5f82825260208201905092915050565b5f819050602082019050919050565b5f81519050919050565b5f82825260208201905092915050565b5f613d2282613cfe565b613d2c8185613d08565b9350613d3c8185602086016135e2565b613d458161360a565b840191505092915050565b5f613d5b8383613d18565b905092915050565b5f602082019050919050565b5f613d7982613cd5565b613d838185613cdf565b935083602082028501613d9585613cef565b805f5b85811015613dd05784840389528151613db18582613d50565b9450613dbc83613d63565b925060208a01995050600181019050613d98565b50829750879550505050505092915050565b5f6020820190508181035f830152613dfa8184613d6f565b905092915050565b5f819050919050565b5f613e25613e20613e1b84613370565b613e02565b613370565b9050919050565b5f613e3682613e0b565b9050919050565b5f613e4782613e2c565b9050919050565b613e5781613e3d565b82525050565b5f602082019050613e705f830184613e4e565b92915050565b5f613e808261338f565b9050919050565b613e9081613e76565b8114613e9a575f80fd5b50565b5f81359050613eab81613e87565b92915050565b5f60208284031215613ec657613ec5613368565b5b5f613ed384828501613e9d565b91505092915050565b5f602082019050613eef5f830184613bff565b92915050565b613efe816136de565b8114613f08575f80fd5b50565b5f81359050613f1981613ef5565b92915050565b5f60208284031215613f3457613f33613368565b5b5f613f4184828501613f0b565b91505092915050565b5f805f60408486031215613f6157613f60613368565b5b5f613f6e868287016133b6565b935050602084013567ffffffffffffffff811115613f8f57613f8e61336c565b5b613f9b86828701613902565b92509250509250925092565b5f82825260208201905092915050565b5f613fc1826139f9565b613fcb8185613fa7565b9350613fd683613a13565b805f5b83811015614006578151613fed8882613a22565b9750613ff883613a39565b925050600181019050613fd9565b5085935050505092915050565b5f6020820190508181035f83015261402b8184613fb7565b905092915050565b5f60a083015f8301516140485f860182613652565b50602083015184820360208601526140608282613a45565b91505060408301516140756040860182613aa1565b5060608301516140886060860182613acb565b50608083015161409b6080860182613acb565b508091505092915050565b5f6020820190508181035f8301526140be8184614033565b905092915050565b6140cf816136de565b82525050565b5f6020820190506140e85f8301846140c6565b92915050565b5f815190506140fc816133a0565b92915050565b5f6020828403121561411757614116613368565b5b5f614124848285016140ee565b91505092915050565b5f80fd5b5f80fd5b5f80fd5b5f80833560016020038436030381126141555761415461412d565b5b80840192508235915067ffffffffffffffff82111561417757614176614131565b5b60208301925060018202360383131561419357614192614135565b5b509250929050565b7f4e487b71000000000000000000000000000000000000000000000000000000005f52603260045260245ffd5b7f4e487b71000000000000000000000000000000000000000000000000000000005f52604160045260245ffd5b6141fe8261360a565b810181811067ffffffffffffffff8211171561421d5761421c6141c8565b5b80604052505050565b5f61422f61335f565b905061423b82826141f5565b919050565b5f67ffffffffffffffff82111561425a576142596141c8565b5b602082029050602081019050919050565b5f80fd5b5f80fd5b5f80fd5b5f67ffffffffffffffff821115614291576142906141c8565b5b61429a8261360a565b9050602081019050919050565b5f6142b96142b484614277565b614226565b9050828152602081018484840111156142d5576142d4614273565b5b6142e08482856135e2565b509392505050565b5f82601f8301126142fc576142fb6138f6565b5b815161430c8482602086016142a7565b91505092915050565b5f6060828403121561432a5761432961426b565b5b6143346060614226565b90505f82015167ffffffffffffffff8111156143535761435261426f565b5b61435f848285016142e8565b5f83015250602082015167ffffffffffffffff8111156143825761438161426f565b5b61438e848285016142e8565b60208301525060406143a2848285016140ee565b60408301525092915050565b5f67ffffffffffffffff8211156143c8576143c76141c8565b5b602082029050602081019050919050565b5f815190506143e781613ef5565b92915050565b5f604082840312156144025761440161426b565b5b61440c6040614226565b90505f61441b848285016143d9565b5f83015250602082015167ffffffffffffffff81111561443e5761443d61426f565b5b61444a848285016142e8565b60208301525092915050565b5f614468614463846143ae565b614226565b9050808382526020820190506020840283018581111561448b5761448a6138fe565b5b835b818110156144d257805167ffffffffffffffff8111156144b0576144af6138f6565b5b8086016144bd89826143ed565b8552602085019450505060208101905061448d565b5050509392505050565b5f82601f8301126144f0576144ef6138f6565b5b8151614500848260208601614456565b91505092915050565b5f6040828403121561451e5761451d61426b565b5b6145286040614226565b90505f82015167ffffffffffffffff8111156145475761454661426f565b5b61455384828501614315565b5f83015250602082015167ffffffffffffffff8111156145765761457561426f565b5b614582848285016144dc565b60208301525092915050565b5f6145a061459b84614240565b614226565b905080838252602082019050602084028301858111156145c3576145c26138fe565b5b835b8181101561460a57805167ffffffffffffffff8111156145e8576145e76138f6565b5b8086016145f58982614509565b855260208501945050506020810190506145c5565b5050509392505050565b5f82601f830112614628576146276138f6565b5b815161463884826020860161458e565b91505092915050565b5f6020828403121561465657614655613368565b5b5f82015167ffffffffffffffff8111156146735761467261336c565b5b61467f84828501614614565b91505092915050565b61469181613ab0565b811461469b575f80fd5b50565b5f813590506146ac81614688565b92915050565b5f602082840312156146c7576146c6613368565b5b5f6146d48482850161469e565b91505092915050565b7f21706572696f64000000000000000000000000000000000000000000000000005f82015250565b5f6147116007836132e7565b915061471c826146dd565b602082019050919050565b5f6020820190508181035f83015261473e81614705565b9050919050565b7f21736967000000000000000000000000000000000000000000000000000000005f82015250565b5f6147796004836132e7565b915061478482614745565b602082019050919050565b5f6020820190508181035f8301526147a68161476d565b9050919050565b5f60ff82169050919050565b6147c2816147ad565b81146147cc575f80fd5b50565b5f813590506147dd816147b9565b92915050565b5f602082840312156147f8576147f7613368565b5b5f614805848285016147cf565b91505092915050565b7f61646d696e0000000000000000000000000000000000000000000000000000005f82015250565b5f6148426005836132e7565b915061484d8261480e565b602082019050919050565b5f6020820190508181035f83015261486f81614836565b9050919050565b7f4e487b71000000000000000000000000000000000000000000000000000000005f52601160045260245ffd5b5f6148ad826134d8565b91506148b8836134d8565b92508282019050808211156148d0576148cf614876565b5b92915050565b5f80833560016020038436030381126148f2576148f161412d565b5b80840192508235915067ffffffffffffffff82111561491457614913614131565b5b6020830192506020820236038313156149305761492f614135565b5b509250929050565b5f61494660208401846133b6565b905092915050565b5f61495c60208401846147cf565b905092915050565b61496d816147ad565b82525050565b5f80fd5b5f80fd5b5f80fd5b5f808335600160200384360303811261499b5761499a61497b565b5b83810192508235915060208301925067ffffffffffffffff8211156149c3576149c2614973565b5b6020820236038313156149d9576149d8614977565b5b509250929050565b5f819050919050565b5f602082019050919050565b5f614a018385613a03565b9350614a0c826149e1565b805f5b85811015614a4457614a218284614938565b614a2b8882613a22565b9750614a36836149ea565b925050600181019050614a0f565b5085925050509392505050565b5f614a5f60208401846134f7565b905092915050565b5f614a75602084018461469e565b905092915050565b5f614a8b60208401846134c4565b905092915050565b614a9c816134a5565b82525050565b5f6101208301614ab45f840184614938565b614ac05f860182613652565b50614ace602084018461494e565b614adb6020860182614964565b50614ae9604084018461497f565b8583036040870152614afc8382846149f6565b92505050614b0d6060840184614a51565b614b1a6060860182613aa1565b50614b286080840184614a67565b614b356080860182613acb565b50614b4360a0840184614a67565b614b5060a0860182613acb565b50614b5e60c0840184614a67565b614b6b60c0860182613acb565b50614b7960e0840184614a67565b614b8660e0860182613acb565b50614b95610100840184614a7d565b614ba3610100860182614a93565b508091505092915050565b5f6020820190508181035f830152614bc68184614aa2565b905092915050565b5f614bd8826134d8565b91507fffffffffffffffffffffffffffffffffffffffffffffffffffffffffffffffff8203614c0a57614c09614876565b5b600182019050919050565b5f819050919050565b5f77ffffffffffffffffffffffffffffffffffffffffffffffff82169050919050565b5f614c5b614c56614c5184614c15565b613e02565b614c1e565b9050919050565b614c6b81614c41565b82525050565b5f604082019050614c845f830185613bff565b614c916020830184614c62565b9392505050565b5f81519050614ca6816134e1565b92915050565b5f60208284031215614cc157614cc0613368565b5b5f614cce84828501614c98565b91505092915050565b7f496e697469616c697a61626c653a20636f6e747261637420697320616c7265615f8201527f647920696e697469616c697a6564000000000000000000000000000000000000602082015250565b5f614d31602e836132e7565b9150614d3c82614cd7565b604082019050919050565b5f6020820190508181035f830152614d5e81614d25565b9050919050565b5f819050919050565b5f614d88614d83614d7e84614d65565b613e02565b6147ad565b9050919050565b614d9881614d6e565b82525050565b5f602082019050614db15f830184614d8f565b92915050565b7f21446174610000000000000000000000000000000000000000000000000000005f82015250565b5f614deb6005836132e7565b9150614df682614db7565b602082019050919050565b5f6020820190508181035f830152614e1881614ddf565b9050919050565b5f80fd5b5f80fd5b5f8085851115614e3a57614e39614e1f565b5b83861115614e4b57614e4a614e23565b5b6001850283019150848603905094509492505050565b5f82905092915050565b5f82821b905092915050565b5f614e828383614e61565b82614e8d81356136de565b92506004821015614ecd57614ec87fffffffff0000000000000000000000000000000000000000000000000000000083600403600802614e6b565b831692505b505092915050565b5f614edf82613370565b9050919050565b614eef81614ed5565b8114614ef9575f80fd5b50565b5f81359050614f0a81614ee6565b92915050565b5f60208284031215614f2557614f24613368565b5b5f614f3284828501614efc565b91505092915050565b5f60208284031215614f5057614f4f613368565b5b5f614f5d848285016134f7565b91505092915050565b5f67ffffffffffffffff821115614f8057614f7f6141c8565b5b602082029050602081019050919050565b5f614fa3614f9e84614f66565b614226565b90508083825260208201905060208402830185811115614fc657614fc56138fe565b5b835b81811015614fef5780614fdb88826133b6565b845260208401935050602081019050614fc8565b5050509392505050565b5f82601f83011261500d5761500c6138f6565b5b813561501d848260208601614f91565b91505092915050565b5f67ffffffffffffffff8211156150405761503f6141c8565b5b602082029050602081019050919050565b5f61506361505e84615026565b614226565b90508083825260208201905060208402830185811115615086576150856138fe565b5b835b818110156150af578061509b88826134f7565b845260208401935050602081019050615088565b5050509392505050565b5f82601f8301126150cd576150cc6138f6565b5b81356150dd848260208601615051565b91505092915050565b5f67ffffffffffffffff821115615100576150ff6141c8565b5b602082029050602081019050919050565b5f67ffffffffffffffff82111561512b5761512a6141c8565b5b6151348261360a565b9050602081019050919050565b828183375f83830152505050565b5f61516161515c84615111565b614226565b90508281526020810184848401111561517d5761517c614273565b5b615188848285615141565b509392505050565b5f82601f8301126151a4576151a36138f6565b5b81356151b484826020860161514f565b91505092915050565b5f6151cf6151ca846150e6565b614226565b905080838252602082019050602084028301858111156151f2576151f16138fe565b5b835b8181101561523957803567ffffffffffffffff811115615217576152166138f6565b5b8086016152248982615190565b855260208501945050506020810190506151f4565b5050509392505050565b5f82601f830112615257576152566138f6565b5b81356152678482602086016151bd565b91505092915050565b5f805f6060848603121561528757615286613368565b5b5f84013567ffffffffffffffff8111156152a4576152a361336c565b5b6152b086828701614ff9565b935050602084013567ffffffffffffffff8111156152d1576152d061336c565b5b6152dd868287016150b9565b925050604084013567ffffffffffffffff8111156152fe576152fd61336c565b5b61530a86828701615243565b9150509250925092565b7f6163636f756e743a206e6f742066726f6d20456e747279506f696e74000000005f82015250565b5f615348601c836132e7565b915061535382615314565b602082019050919050565b5f6020820190508181035f8301526153758161533c565b9050919050565b5f81905092915050565b50565b5f6153945f8361537c565b915061539f82615386565b5f82019050919050565b5f6153b382615389565b9150819050919050565b6153c6816134a5565b82525050565b5f6040820190506153df5f830185613bff565b6153ec60208301846153bd565b9392505050565b5f81905092915050565b6154068161338f565b82525050565b5f61541783836153fd565b60208301905092915050565b5f61542e83856153f3565b9350615439826149e1565b805f5b858110156154715761544e8284614938565b615458888261540c565b9750615463836149ea565b92505060018101905061543c565b5085925050509392505050565b5f61548a828486615423565b91508190509392505050565b61549f816147ad565b82525050565b6154ae81613ab0565b82525050565b5f610140820190506154c85f83018d6153bd565b6154d5602083018c613bff565b6154e2604083018b615496565b6154ef606083018a6153bd565b6154fc6080830189613577565b61550960a08301886154a5565b61551660c08301876154a5565b61552360e08301866154a5565b6155316101008301856154a5565b61553f6101208301846153bd565b9b9a5050505050505050505050565b7f2161646d696e00000000000000000000000000000000000000000000000000005f82015250565b5f6155826006836132e7565b915061558d8261554e565b602082019050919050565b5f6020820190508181035f8301526155af81615576565b9050919050565b5f82825260208201905092915050565b5f6155d082613cfe565b6155da81856155b6565b93506155ea8185602086016135e2565b6155f38161360a565b840191505092915050565b5f6040820190506156115f830185613bff565b818103602083015261562381846155c6565b90509392505050565b5f615636826134d8565b9150615641836134d8565b925082820390508181111561565957615658614876565b5b92915050565b7f4e487b71000000000000000000000000000000000000000000000000000000005f52603160045260245ffd5b7f416464726573733a20696e76616c69642064656c65676174652063616c6c00005f82015250565b5f6156c0601e836132e7565b91506156cb8261568c565b602082019050919050565b5f6020820190508181035f8301526156ed816156b4565b9050919050565b5f6156fe82613cfe565b615708818561537c565b93506157188185602086016135e2565b80840191505092915050565b5f61572f82846156f4565b915081905092915050565b7f4e487b71000000000000000000000000000000000000000000000000000000005f52602160045260245ffd5b7f45434453413a20696e76616c6964207369676e617475726500000000000000005f82015250565b5f61579b6018836132e7565b91506157a682615767565b602082019050919050565b5f6020820190508181035f8301526157c88161578f565b9050919050565b7f45434453413a20696e76616c6964207369676e6174757265206c656e677468005f82015250565b5f615803601f836132e7565b915061580e826157cf565b602082019050919050565b5f6020820190508181035f830152615830816157f7565b9050919050565b7f45434453413a20696e76616c6964207369676e6174757265202773272076616c5f8201527f7565000000000000000000000000000000000000000000000000000000000000602082015250565b5f6158916022836132e7565b915061589c82615837565b604082019050919050565b5f6020820190508181035f8301526158be81615885565b9050919050565b5f6158cf826135c8565b6158d981856132e7565b93506158e98185602086016135e2565b6158f28161360a565b840191505092915050565b5f6020820190508181035f83015261591581846158c5565b905092915050565b5f6080820190506159305f8301876153bd565b61593d6020830186615496565b61594a60408301856153bd565b61595760608301846153bd565b95945050505050565b5f60a0820190506159735f8301886153bd565b61598060208301876153bd565b61598d60408301866153bd565b61599a6060830185613577565b6159a76080830184613bff565b969550505050505056fe416464726573733a206c6f772d6c6576656c2064656c65676174652063616c6c206661696c6564a2646970667358221220349a31dc7e891e8ee618d290f01504b998b87f4a16c2166b200732bdc8cb558464736f6c63430008180033",
			"opcodes": "PUSH2 0x180 PUSH1 0x40 MSTORE CALLVALUE DUP1 ISZERO PUSH3 0x11 JUMPI PUSH0 DUP1 REVERT JUMPDEST POP PUSH1 0x40 MLOAD PUSH3 0x605C CODESIZE SUB DUP1 PUSH3 0x605C DUP4 CODECOPY DUP2 DUP2 ADD PUSH1 0x40 MSTORE DUP2 ADD SWAP1 PUSH3 0x37 SWAP2 SWAP1 PUSH3 0x400 JUMP JUMPDEST DUP2 DUP2 PUSH1 0x40 MLOAD DUP1 PUSH1 0x40 ADD PUSH1 0x40 MSTORE DUP1 PUSH1 0x7 DUP2 MSTORE PUSH1 0x20 ADD PUSH32 0x4163636F756E7400000000000000000000000000000000000000000000000000 DUP2 MSTORE POP PUSH1 0x40 MLOAD DUP1 PUSH1 0x40 ADD PUSH1 0x40 MSTORE DUP1 PUSH1 0x1 DUP2 MSTORE PUSH1 0x20 ADD PUSH32 0x3100000000000000000000000000000000000000000000000000000000000000 DUP2 MSTORE POP PUSH0 DUP3 DUP1 MLOAD SWAP1 PUSH1 0x20 ADD KECCAK256 SWAP1 POP PUSH0 DUP3 DUP1 MLOAD SWAP1 PUSH1 0x20 ADD KECCAK256 SWAP1 POP PUSH0 PUSH32 0x8B73C3C69BB8FE3D512ECC4CF759CC79239F7B179B0FFACAA9A75D522B39400F SWAP1 POP DUP3 PUSH1 0xE0 DUP2 DUP2 MSTORE POP POP DUP2 PUSH2 0x100 DUP2 DUP2 MSTORE POP POP CHAINID PUSH1 0xA0 DUP2 DUP2 MSTORE POP POP PUSH3 0x10B DUP2 DUP5 DUP5 PUSH3 0x1D8 PUSH1 0x20 SHL PUSH1 0x20 SHR JUMP JUMPDEST PUSH1 0x80 DUP2 DUP2 MSTORE POP POP ADDRESS PUSH20 0xFFFFFFFFFFFFFFFFFFFFFFFFFFFFFFFFFFFFFFFF AND PUSH1 0xC0 DUP2 PUSH20 0xFFFFFFFFFFFFFFFFFFFFFFFFFFFFFFFFFFFFFFFF AND DUP2 MSTORE POP POP DUP1 PUSH2 0x120 DUP2 DUP2 MSTORE POP POP POP POP POP POP POP PUSH3 0x164 PUSH3 0x213 PUSH1 0x20 SHL PUSH1 0x20 SHR JUMP JUMPDEST DUP1 PUSH20 0xFFFFFFFFFFFFFFFFFFFFFFFFFFFFFFFFFFFFFFFF AND PUSH2 0x140 DUP2 PUSH20 0xFFFFFFFFFFFFFFFFFFFFFFFFFFFFFFFFFFFFFFFF AND DUP2 MSTORE POP POP DUP2 PUSH20 0xFFFFFFFFFFFFFFFFFFFFFFFFFFFFFFFFFFFFFFFF AND PUSH2 0x160 DUP2 PUSH20 0xFFFFFFFFFFFFFFFFFFFFFFFFFFFFFFFFFFFFFFFF AND DUP2 MSTORE POP POP POP POP POP POP PUSH3 0x5C1 JUMP JUMPDEST PUSH0 DUP4 DUP4 DUP4 CHAINID ADDRESS PUSH1 0x40 MLOAD PUSH1 0x20 ADD PUSH3 0x1F4 SWAP6 SWAP5 SWAP4 SWAP3 SWAP2 SWAP1 PUSH3 0x48A JUMP JUMPDEST PUSH1 0x40 MLOAD PUSH1 0x20 DUP2 DUP4 SUB SUB DUP2 MSTORE SWAP1 PUSH1 0x40 MSTORE DUP1 MLOAD SWAP1 PUSH1 0x20 ADD KECCAK256 SWAP1 POP SWAP4 SWAP3 POP POP POP JUMP JUMPDEST PUSH0 PUSH3 0x224 PUSH3 0x315 PUSH1 0x20 SHL PUSH1 0x20 SHR JUMP JUMPDEST PUSH0 ADD PUSH0 SWAP1 SLOAD SWAP1 PUSH2 0x100 EXP SWAP1 DIV PUSH1 0xFF AND SWAP1 POP PUSH0 PUSH3 0x246 PUSH3 0x315 PUSH1 0x20 SHL PUSH1 0x20 SHR JUMP JUMPDEST PUSH0 ADD PUSH1 0x1 SWAP1 SLOAD SWAP1 PUSH2 0x100 EXP SWAP1 DIV PUSH1 0xFF AND SWAP1 POP DUP1 ISZERO PUSH3 0x29C JUMPI PUSH1 0x40 MLOAD PUSH32 0x8C379A000000000000000000000000000000000000000000000000000000000 DUP2 MSTORE PUSH1 0x4 ADD PUSH3 0x293 SWAP1 PUSH3 0x569 JUMP JUMPDEST PUSH1 0x40 MLOAD DUP1 SWAP2 SUB SWAP1 REVERT JUMPDEST PUSH1 0xFF DUP1 AND DUP3 PUSH1 0xFF AND LT ISZERO PUSH3 0x311 JUMPI PUSH1 0xFF PUSH3 0x2BD PUSH3 0x315 PUSH1 0x20 SHL PUSH1 0x20 SHR JUMP JUMPDEST PUSH0 ADD PUSH0 PUSH2 0x100 EXP DUP2 SLOAD DUP2 PUSH1 0xFF MUL NOT AND SWAP1 DUP4 PUSH1 0xFF AND MUL OR SWAP1 SSTORE POP PUSH32 0x7F26B83FF96E1F2B6A682F133852F6798A09C465DA95921460CEFB3847402498 PUSH1 0xFF PUSH1 0x40 MLOAD PUSH3 0x308 SWAP2 SWAP1 PUSH3 0x5A6 JUMP JUMPDEST PUSH1 0x40 MLOAD DUP1 SWAP2 SUB SWAP1 LOG1 JUMPDEST POP POP JUMP JUMPDEST PUSH0 PUSH3 0x326 PUSH3 0x32B PUSH1 0x20 SHL PUSH1 0x20 SHR JUMP JUMPDEST SWAP1 POP SWAP1 JUMP JUMPDEST PUSH0 DUP1 PUSH32 0x322CF19C484104D3B1A9C2982EBAE869EDE3FA5F6C4703CA41B9A48C76EE0300 PUSH0 SHL SWAP1 POP DUP1 SWAP2 POP POP SWAP1 JUMP JUMPDEST PUSH0 DUP1 REVERT JUMPDEST PUSH0 PUSH20 0xFFFFFFFFFFFFFFFFFFFFFFFFFFFFFFFFFFFFFFFF DUP3 AND SWAP1 POP SWAP2 SWAP1 POP JUMP JUMPDEST PUSH0 PUSH3 0x388 DUP3 PUSH3 0x35D JUMP JUMPDEST SWAP1 POP SWAP2 SWAP1 POP JUMP JUMPDEST PUSH0 PUSH3 0x39B DUP3 PUSH3 0x37C JUMP JUMPDEST SWAP1 POP SWAP2 SWAP1 POP JUMP JUMPDEST PUSH3 0x3AD DUP2 PUSH3 0x38F JUMP JUMPDEST DUP2 EQ PUSH3 0x3B8 JUMPI PUSH0 DUP1 REVERT JUMPDEST POP JUMP JUMPDEST PUSH0 DUP2 MLOAD SWAP1 POP PUSH3 0x3CB DUP2 PUSH3 0x3A2 JUMP JUMPDEST SWAP3 SWAP2 POP POP JUMP JUMPDEST PUSH3 0x3DC DUP2 PUSH3 0x37C JUMP JUMPDEST DUP2 EQ PUSH3 0x3E7 JUMPI PUSH0 DUP1 REVERT JUMPDEST POP JUMP JUMPDEST PUSH0 DUP2 MLOAD SWAP1 POP PUSH3 0x3FA DUP2 PUSH3 0x3D1 JUMP JUMPDEST SWAP3 SWAP2 POP POP JUMP JUMPDEST PUSH0 DUP1 PUSH1 0x40 DUP4 DUP6 SUB SLT ISZERO PUSH3 0x419 JUMPI PUSH3 0x418 PUSH3 0x359 JUMP JUMPDEST JUMPDEST PUSH0 PUSH3 0x428 DUP6 DUP3 DUP7 ADD PUSH3 0x3BB JUMP JUMPDEST SWAP3 POP POP PUSH1 0x20 PUSH3 0x43B DUP6 DUP3 DUP7 ADD PUSH3 0x3EA JUMP JUMPDEST SWAP2 POP POP SWAP3 POP SWAP3 SWAP1 POP JUMP JUMPDEST PUSH0 DUP2 SWAP1 POP SWAP2 SWAP1 POP JUMP JUMPDEST PUSH3 0x459 DUP2 PUSH3 0x445 JUMP JUMPDEST DUP3 MSTORE POP POP JUMP JUMPDEST PUSH0 DUP2 SWAP1 POP SWAP2 SWAP1 POP JUMP JUMPDEST PUSH3 0x473 DUP2 PUSH3 0x45F JUMP JUMPDEST DUP3 MSTORE POP POP JUMP JUMPDEST PUSH3 0x484 DUP2 PUSH3 0x37C JUMP JUMPDEST DUP3 MSTORE POP POP JUMP JUMPDEST PUSH0 PUSH1 0xA0 DUP3 ADD SWAP1 POP PUSH3 0x49F PUSH0 DUP4 ADD DUP9 PUSH3 0x44E JUMP JUMPDEST PUSH3 0x4AE PUSH1 0x20 DUP4 ADD DUP8 PUSH3 0x44E JUMP JUMPDEST PUSH3 0x4BD PUSH1 0x40 DUP4 ADD DUP7 PUSH3 0x44E JUMP JUMPDEST PUSH3 0x4CC PUSH1 0x60 DUP4 ADD DUP6 PUSH3 0x468 JUMP JUMPDEST PUSH3 0x4DB PUSH1 0x80 DUP4 ADD DUP5 PUSH3 0x479 JUMP JUMPDEST SWAP7 SWAP6 POP POP POP POP POP POP JUMP JUMPDEST PUSH0 DUP3 DUP3 MSTORE PUSH1 0x20 DUP3 ADD SWAP1 POP SWAP3 SWAP2 POP POP JUMP JUMPDEST PUSH32 0x496E697469616C697A61626C653A20636F6E747261637420697320696E697469 PUSH0 DUP3 ADD MSTORE PUSH32 0x616C697A696E6700000000000000000000000000000000000000000000000000 PUSH1 0x20 DUP3 ADD MSTORE POP JUMP JUMPDEST PUSH0 PUSH3 0x551 PUSH1 0x27 DUP4 PUSH3 0x4E5 JUMP JUMPDEST SWAP2 POP PUSH3 0x55E DUP3 PUSH3 0x4F5 JUMP JUMPDEST PUSH1 0x40 DUP3 ADD SWAP1 POP SWAP2 SWAP1 POP JUMP JUMPDEST PUSH0 PUSH1 0x20 DUP3 ADD SWAP1 POP DUP2 DUP2 SUB PUSH0 DUP4 ADD MSTORE PUSH3 0x582 DUP2 PUSH3 0x543 JUMP JUMPDEST SWAP1 POP SWAP2 SWAP1 POP JUMP JUMPDEST PUSH0 PUSH1 0xFF DUP3 AND SWAP1 POP SWAP2 SWAP1 POP JUMP JUMPDEST PUSH3 0x5A0 DUP2 PUSH3 0x589 JUMP JUMPDEST DUP3 MSTORE POP POP JUMP JUMPDEST PUSH0 PUSH1 0x20 DUP3 ADD SWAP1 POP PUSH3 0x5BB PUSH0 DUP4 ADD DUP5 PUSH3 0x595 JUMP JUMPDEST SWAP3 SWAP2 POP POP JUMP JUMPDEST PUSH1 0x80 MLOAD PUSH1 0xA0 MLOAD PUSH1 0xC0 MLOAD PUSH1 0xE0 MLOAD PUSH2 0x100 MLOAD PUSH2 0x120 MLOAD PUSH2 0x140 MLOAD PUSH2 0x160 MLOAD PUSH2 0x5A0E PUSH3 0x64E PUSH0 CODECOPY PUSH0 PUSH2 0x1799 ADD MSTORE PUSH0 DUP2 DUP2 PUSH2 0x544 ADD MSTORE DUP2 DUP2 PUSH2 0xAE9 ADD MSTORE DUP2 DUP2 PUSH2 0x1814 ADD MSTORE DUP2 DUP2 PUSH2 0x23BE ADD MSTORE DUP2 DUP2 PUSH2 0x2402 ADD MSTORE DUP2 DUP2 PUSH2 0x249A ADD MSTORE DUP2 DUP2 PUSH2 0x25AD ADD MSTORE PUSH2 0x25EB ADD MSTORE PUSH0 PUSH2 0x305F ADD MSTORE PUSH0 PUSH2 0x30A1 ADD MSTORE PUSH0 PUSH2 0x3080 ADD MSTORE PUSH0 PUSH2 0x2FB5 ADD MSTORE PUSH0 PUSH2 0x300B ADD MSTORE PUSH0 PUSH2 0x3034 ADD MSTORE PUSH2 0x5A0E PUSH0 RETURN INVALID PUSH1 0x80 PUSH1 0x40 MSTORE PUSH1 0x4 CALLDATASIZE LT PUSH2 0x10C JUMPI PUSH0 CALLDATALOAD PUSH1 0xE0 SHR DUP1 PUSH4 0xB0D691FE GT PUSH2 0x94 JUMPI DUP1 PUSH4 0xD087D288 GT PUSH2 0x63 JUMPI DUP1 PUSH4 0xD087D288 EQ PUSH2 0x45F JUMPI DUP1 PUSH4 0xD1F57894 EQ PUSH2 0x489 JUMPI DUP1 PUSH4 0xD42F2F35 EQ PUSH2 0x4B1 JUMPI DUP1 PUSH4 0xE9523C97 EQ PUSH2 0x4DB JUMPI DUP1 PUSH4 0xF15D424E EQ PUSH2 0x505 JUMPI PUSH2 0x10D JUMP JUMPDEST DUP1 PUSH4 0xB0D691FE EQ PUSH2 0x3A7 JUMPI DUP1 PUSH4 0xB76464D5 EQ PUSH2 0x3D1 JUMPI DUP1 PUSH4 0xC45A0155 EQ PUSH2 0x3F9 JUMPI DUP1 PUSH4 0xCE0B6013 EQ PUSH2 0x423 JUMPI PUSH2 0x10D JUMP JUMPDEST DUP1 PUSH4 0x5892E236 GT PUSH2 0xDB JUMPI DUP1 PUSH4 0x5892E236 EQ PUSH2 0x2A0 JUMPI DUP1 PUSH4 0x7DFF5A79 EQ PUSH2 0x2C8 JUMPI DUP1 PUSH4 0x8B52D723 EQ PUSH2 0x304 JUMPI DUP1 PUSH4 0xA9082D84 EQ PUSH2 0x32E JUMPI DUP1 PUSH4 0xAC9650D8 EQ PUSH2 0x36B JUMPI PUSH2 0x10D JUMP JUMPDEST DUP1 PUSH4 0x1DD756C5 EQ PUSH2 0x1C2 JUMPI DUP1 PUSH4 0x24D7806C EQ PUSH2 0x1FE JUMPI DUP1 PUSH4 0x3A871CDD EQ PUSH2 0x23A JUMPI DUP1 PUSH4 0x4A00CC48 EQ PUSH2 0x276 JUMPI PUSH2 0x10D JUMP JUMPDEST JUMPDEST PUSH0 DUP1 CALLDATASIZE SWAP1 POP SUB ISZERO PUSH2 0x1C0 JUMPI PUSH0 PUSH2 0x145 PUSH0 CALLDATALOAD PUSH32 0xFFFFFFFF00000000000000000000000000000000000000000000000000000000 AND PUSH2 0x541 JUMP JUMPDEST SWAP1 POP PUSH0 PUSH20 0xFFFFFFFFFFFFFFFFFFFFFFFFFFFFFFFFFFFFFFFF AND DUP2 PUSH20 0xFFFFFFFFFFFFFFFFFFFFFFFFFFFFFFFFFFFFFFFF AND SUB PUSH2 0x1B5 JUMPI PUSH1 0x40 MLOAD PUSH32 0x8C379A000000000000000000000000000000000000000000000000000000000 DUP2 MSTORE PUSH1 0x4 ADD PUSH2 0x1AC SWAP1 PUSH2 0x3341 JUMP JUMPDEST PUSH1 0x40 MLOAD DUP1 SWAP2 SUB SWAP1 REVERT JUMPDEST PUSH2 0x1BE DUP2 PUSH2 0x5E1 JUMP JUMPDEST POP JUMPDEST STOP JUMPDEST CALLVALUE DUP1 ISZERO PUSH2 0x1CD JUMPI PUSH0 DUP1 REVERT JUMPDEST POP PUSH2 0x1E8 PUSH1 0x4 DUP1 CALLDATASIZE SUB DUP2 ADD SWAP1 PUSH2 0x1E3 SWAP2 SWAP1 PUSH2 0x33ED JUMP JUMPDEST PUSH2 0x600 JUMP JUMPDEST PUSH1 0x40 MLOAD PUSH2 0x1F5 SWAP2 SWAP1 PUSH2 0x3461 JUMP JUMPDEST PUSH1 0x40 MLOAD DUP1 SWAP2 SUB SWAP1 RETURN JUMPDEST CALLVALUE DUP1 ISZERO PUSH2 0x209 JUMPI PUSH0 DUP1 REVERT JUMPDEST POP PUSH2 0x224 PUSH1 0x4 DUP1 CALLDATASIZE SUB DUP2 ADD SWAP1 PUSH2 0x21F SWAP2 SWAP1 PUSH2 0x347A JUMP JUMPDEST PUSH2 0xA58 JUMP JUMPDEST PUSH1 0x40 MLOAD PUSH2 0x231 SWAP2 SWAP1 PUSH2 0x3461 JUMP JUMPDEST PUSH1 0x40 MLOAD DUP1 SWAP2 SUB SWAP1 RETURN JUMPDEST CALLVALUE DUP1 ISZERO PUSH2 0x245 JUMPI PUSH0 DUP1 REVERT JUMPDEST POP PUSH2 0x260 PUSH1 0x4 DUP1 CALLDATASIZE SUB DUP2 ADD SWAP1 PUSH2 0x25B SWAP2 SWAP1 PUSH2 0x350B JUMP JUMPDEST PUSH2 0xAB3 JUMP JUMPDEST PUSH1 0x40 MLOAD PUSH2 0x26D SWAP2 SWAP1 PUSH2 0x3586 JUMP JUMPDEST PUSH1 0x40 MLOAD DUP1 SWAP2 SUB SWAP1 RETURN JUMPDEST CALLVALUE DUP1 ISZERO PUSH2 0x281 JUMPI PUSH0 DUP1 REVERT JUMPDEST POP PUSH2 0x28A PUSH2 0xAE5 JUMP JUMPDEST PUSH1 0x40 MLOAD PUSH2 0x297 SWAP2 SWAP1 PUSH2 0x38B7 JUMP JUMPDEST PUSH1 0x40 MLOAD DUP1 SWAP2 SUB SWAP1 RETURN JUMPDEST CALLVALUE DUP1 ISZERO PUSH2 0x2AB JUMPI PUSH0 DUP1 REVERT JUMPDEST POP PUSH2 0x2C6 PUSH1 0x4 DUP1 CALLDATASIZE SUB DUP2 ADD SWAP1 PUSH2 0x2C1 SWAP2 SWAP1 PUSH2 0x3957 JUMP JUMPDEST PUSH2 0xB7C JUMP JUMPDEST STOP JUMPDEST CALLVALUE DUP1 ISZERO PUSH2 0x2D3 JUMPI PUSH0 DUP1 REVERT JUMPDEST POP PUSH2 0x2EE PUSH1 0x4 DUP1 CALLDATASIZE SUB DUP2 ADD SWAP1 PUSH2 0x2E9 SWAP2 SWAP1 PUSH2 0x347A JUMP JUMPDEST PUSH2 0x10B9 JUMP JUMPDEST PUSH1 0x40 MLOAD PUSH2 0x2FB SWAP2 SWAP1 PUSH2 0x3461 JUMP JUMPDEST PUSH1 0x40 MLOAD DUP1 SWAP2 SUB SWAP1 RETURN JUMPDEST CALLVALUE DUP1 ISZERO PUSH2 0x30F JUMPI PUSH0 DUP1 REVERT JUMPDEST POP PUSH2 0x318 PUSH2 0x1245 JUMP JUMPDEST PUSH1 0x40 MLOAD PUSH2 0x325 SWAP2 SWAP1 PUSH2 0x3BDF JUMP JUMPDEST PUSH1 0x40 MLOAD DUP1 SWAP2 SUB SWAP1 RETURN JUMPDEST CALLVALUE DUP1 ISZERO PUSH2 0x339 JUMPI PUSH0 DUP1 REVERT JUMPDEST POP PUSH2 0x354 PUSH1 0x4 DUP1 CALLDATASIZE SUB DUP2 ADD SWAP1 PUSH2 0x34F SWAP2 SWAP1 PUSH2 0x3957 JUMP JUMPDEST PUSH2 0x15CA JUMP JUMPDEST PUSH1 0x40 MLOAD PUSH2 0x362 SWAP3 SWAP2 SWAP1 PUSH2 0x3C0E JUMP JUMPDEST PUSH1 0x40 MLOAD DUP1 SWAP2 SUB SWAP1 RETURN JUMPDEST CALLVALUE DUP1 ISZERO PUSH2 0x376 JUMPI PUSH0 DUP1 REVERT JUMPDEST POP PUSH2 0x391 PUSH1 0x4 DUP1 CALLDATASIZE SUB DUP2 ADD SWAP1 PUSH2 0x38C SWAP2 SWAP1 PUSH2 0x3C8A JUMP JUMPDEST PUSH2 0x1629 JUMP JUMPDEST PUSH1 0x40 MLOAD PUSH2 0x39E SWAP2 SWAP1 PUSH2 0x3DE2 JUMP JUMPDEST PUSH1 0x40 MLOAD DUP1 SWAP2 SUB SWAP1 RETURN JUMPDEST CALLVALUE DUP1 ISZERO PUSH2 0x3B2 JUMPI PUSH0 DUP1 REVERT JUMPDEST POP PUSH2 0x3BB PUSH2 0x172D JUMP JUMPDEST PUSH1 0x40 MLOAD PUSH2 0x3C8 SWAP2 SWAP1 PUSH2 0x3E5D JUMP JUMPDEST PUSH1 0x40 MLOAD DUP1 SWAP2 SUB SWAP1 RETURN JUMPDEST CALLVALUE DUP1 ISZERO PUSH2 0x3DC JUMPI PUSH0 DUP1 REVERT JUMPDEST POP PUSH2 0x3F7 PUSH1 0x4 DUP1 CALLDATASIZE SUB DUP2 ADD SWAP1 PUSH2 0x3F2 SWAP2 SWAP1 PUSH2 0x3EB1 JUMP JUMPDEST PUSH2 0x17BF JUMP JUMPDEST STOP JUMPDEST CALLVALUE DUP1 ISZERO PUSH2 0x404 JUMPI PUSH0 DUP1 REVERT JUMPDEST POP PUSH2 0x40D PUSH2 0x1812 JUMP JUMPDEST PUSH1 0x40 MLOAD PUSH2 0x41A SWAP2 SWAP1 PUSH2 0x3EDC JUMP JUMPDEST PUSH1 0x40 MLOAD DUP1 SWAP2 SUB SWAP1 RETURN JUMPDEST CALLVALUE DUP1 ISZERO PUSH2 0x42E JUMPI PUSH0 DUP1 REVERT JUMPDEST POP PUSH2 0x449 PUSH1 0x4 DUP1 CALLDATASIZE SUB DUP2 ADD SWAP1 PUSH2 0x444 SWAP2 SWAP1 PUSH2 0x3F1F JUMP JUMPDEST PUSH2 0x541 JUMP JUMPDEST PUSH1 0x40 MLOAD PUSH2 0x456 SWAP2 SWAP1 PUSH2 0x3EDC JUMP JUMPDEST PUSH1 0x40 MLOAD DUP1 SWAP2 SUB SWAP1 RETURN JUMPDEST CALLVALUE DUP1 ISZERO PUSH2 0x46A JUMPI PUSH0 DUP1 REVERT JUMPDEST POP PUSH2 0x473 PUSH2 0x1836 JUMP JUMPDEST PUSH1 0x40 MLOAD PUSH2 0x480 SWAP2 SWAP1 PUSH2 0x3586 JUMP JUMPDEST PUSH1 0x40 MLOAD DUP1 SWAP2 SUB SWAP1 RETURN JUMPDEST CALLVALUE DUP1 ISZERO PUSH2 0x494 JUMPI PUSH0 DUP1 REVERT JUMPDEST POP PUSH2 0x4AF PUSH1 0x4 DUP1 CALLDATASIZE SUB DUP2 ADD SWAP1 PUSH2 0x4AA SWAP2 SWAP1 PUSH2 0x3F4A JUMP JUMPDEST PUSH2 0x18BD JUMP JUMPDEST STOP JUMPDEST CALLVALUE DUP1 ISZERO PUSH2 0x4BC JUMPI PUSH0 DUP1 REVERT JUMPDEST POP PUSH2 0x4C5 PUSH2 0x1A83 JUMP JUMPDEST PUSH1 0x40 MLOAD PUSH2 0x4D2 SWAP2 SWAP1 PUSH2 0x3BDF JUMP JUMPDEST PUSH1 0x40 MLOAD DUP1 SWAP2 SUB SWAP1 RETURN JUMPDEST CALLVALUE DUP1 ISZERO PUSH2 0x4E6 JUMPI PUSH0 DUP1 REVERT JUMPDEST POP PUSH2 0x4EF PUSH2 0x1D01 JUMP JUMPDEST PUSH1 0x40 MLOAD PUSH2 0x4FC SWAP2 SWAP1 PUSH2 0x4013 JUMP JUMPDEST PUSH1 0x40 MLOAD DUP1 SWAP2 SUB SWAP1 RETURN JUMPDEST CALLVALUE DUP1 ISZERO PUSH2 0x510 JUMPI PUSH0 DUP1 REVERT JUMPDEST POP PUSH2 0x52B PUSH1 0x4 DUP1 CALLDATASIZE SUB DUP2 ADD SWAP1 PUSH2 0x526 SWAP2 SWAP1 PUSH2 0x347A JUMP JUMPDEST PUSH2 0x1D1A JUMP JUMPDEST PUSH1 0x40 MLOAD PUSH2 0x538 SWAP2 SWAP1 PUSH2 0x40A6 JUMP JUMPDEST PUSH1 0x40 MLOAD DUP1 SWAP2 SUB SWAP1 RETURN JUMPDEST PUSH0 PUSH32 0x0 PUSH20 0xFFFFFFFFFFFFFFFFFFFFFFFFFFFFFFFFFFFFFFFF AND PUSH4 0xCE0B6013 DUP4 PUSH1 0x40 MLOAD DUP3 PUSH4 0xFFFFFFFF AND PUSH1 0xE0 SHL DUP2 MSTORE PUSH1 0x4 ADD PUSH2 0x59B SWAP2 SWAP1 PUSH2 0x40D5 JUMP JUMPDEST PUSH1 0x20 PUSH1 0x40 MLOAD DUP1 DUP4 SUB DUP2 DUP7 GAS STATICCALL ISZERO DUP1 ISZERO PUSH2 0x5B6 JUMPI RETURNDATASIZE PUSH0 DUP1 RETURNDATACOPY RETURNDATASIZE PUSH0 REVERT JUMPDEST POP POP POP POP PUSH1 0x40 MLOAD RETURNDATASIZE PUSH1 0x1F NOT PUSH1 0x1F DUP3 ADD AND DUP3 ADD DUP1 PUSH1 0x40 MSTORE POP DUP2 ADD SWAP1 PUSH2 0x5DA SWAP2 SWAP1 PUSH2 0x4102 JUMP JUMPDEST SWAP1 POP SWAP2 SWAP1 POP JUMP JUMPDEST CALLDATASIZE PUSH0 DUP1 CALLDATACOPY PUSH0 DUP1 CALLDATASIZE PUSH0 DUP5 GAS DELEGATECALL RETURNDATASIZE PUSH0 DUP1 RETURNDATACOPY DUP1 PUSH0 DUP2 EQ PUSH2 0x5FC JUMPI RETURNDATASIZE PUSH0 RETURN JUMPDEST RETURNDATASIZE PUSH0 REVERT JUMPDEST PUSH0 PUSH2 0x609 PUSH2 0x1ED3 JUMP JUMPDEST PUSH1 0x4 ADD PUSH0 DUP5 PUSH20 0xFFFFFFFFFFFFFFFFFFFFFFFFFFFFFFFFFFFFFFFF AND PUSH20 0xFFFFFFFFFFFFFFFFFFFFFFFFFFFFFFFFFFFFFFFF AND DUP2 MSTORE PUSH1 0x20 ADD SWAP1 DUP2 MSTORE PUSH1 0x20 ADD PUSH0 KECCAK256 PUSH0 SWAP1 SLOAD SWAP1 PUSH2 0x100 EXP SWAP1 DIV PUSH1 0xFF AND ISZERO PUSH2 0x662 JUMPI PUSH1 0x1 SWAP1 POP PUSH2 0xA52 JUMP JUMPDEST PUSH0 PUSH2 0x66B PUSH2 0x1ED3 JUMP JUMPDEST PUSH1 0x5 ADD PUSH0 DUP6 PUSH20 0xFFFFFFFFFFFFFFFFFFFFFFFFFFFFFFFFFFFFFFFF AND PUSH20 0xFFFFFFFFFFFFFFFFFFFFFFFFFFFFFFFFFFFFFFFF AND DUP2 MSTORE PUSH1 0x20 ADD SWAP1 DUP2 MSTORE PUSH1 0x20 ADD PUSH0 KECCAK256 PUSH1 0x40 MLOAD DUP1 PUSH1 0x60 ADD PUSH1 0x40 MSTORE SWAP1 DUP2 PUSH0 DUP3 ADD SLOAD DUP2 MSTORE PUSH1 0x20 ADD PUSH1 0x1 DUP3 ADD PUSH0 SWAP1 SLOAD SWAP1 PUSH2 0x100 EXP SWAP1 DIV PUSH16 0xFFFFFFFFFFFFFFFFFFFFFFFFFFFFFFFF AND PUSH16 0xFFFFFFFFFFFFFFFFFFFFFFFFFFFFFFFF AND PUSH16 0xFFFFFFFFFFFFFFFFFFFFFFFFFFFFFFFF AND DUP2 MSTORE PUSH1 0x20 ADD PUSH1 0x1 DUP3 ADD PUSH1 0x10 SWAP1 SLOAD SWAP1 PUSH2 0x100 EXP SWAP1 DIV PUSH16 0xFFFFFFFFFFFFFFFFFFFFFFFFFFFFFFFF AND PUSH16 0xFFFFFFFFFFFFFFFFFFFFFFFFFFFFFFFF AND PUSH16 0xFFFFFFFFFFFFFFFFFFFFFFFFFFFFFFFF AND DUP2 MSTORE POP POP SWAP1 POP PUSH0 PUSH2 0x75B PUSH2 0x1ED3 JUMP JUMPDEST PUSH1 0x6 ADD PUSH0 DUP7 PUSH20 0xFFFFFFFFFFFFFFFFFFFFFFFFFFFFFFFFFFFFFFFF AND PUSH20 0xFFFFFFFFFFFFFFFFFFFFFFFFFFFFFFFFFFFFFFFF AND DUP2 MSTORE PUSH1 0x20 ADD SWAP1 DUP2 MSTORE PUSH1 0x20 ADD PUSH0 KECCAK256 SWAP1 POP TIMESTAMP DUP3 PUSH1 0x20 ADD MLOAD PUSH16 0xFFFFFFFFFFFFFFFFFFFFFFFFFFFFFFFF AND GT DUP1 PUSH2 0x7D5 JUMPI POP DUP2 PUSH1 0x40 ADD MLOAD PUSH16 0xFFFFFFFFFFFFFFFFFFFFFFFFFFFFFFFF AND TIMESTAMP LT ISZERO JUMPDEST DUP1 PUSH2 0x7E7 JUMPI POP PUSH0 PUSH2 0x7E5 DUP3 PUSH2 0x1EE1 JUMP JUMPDEST EQ JUMPDEST ISZERO PUSH2 0x7F6 JUMPI PUSH0 SWAP3 POP POP POP PUSH2 0xA52 JUMP JUMPDEST PUSH0 PUSH2 0x80F DUP6 DUP1 PUSH1 0x60 ADD SWAP1 PUSH2 0x80A SWAP2 SWAP1 PUSH2 0x4139 JUMP JUMPDEST PUSH2 0x1EF4 JUMP JUMPDEST SWAP1 POP PUSH0 PUSH1 0x1 PUSH2 0x81D DUP5 PUSH2 0x1EE1 JUMP JUMPDEST EQ DUP1 ISZERO PUSH2 0x867 JUMPI POP PUSH0 PUSH20 0xFFFFFFFFFFFFFFFFFFFFFFFFFFFFFFFFFFFFFFFF AND PUSH2 0x84F PUSH0 DUP6 PUSH2 0x1F62 SWAP1 SWAP2 SWAP1 PUSH4 0xFFFFFFFF AND JUMP JUMPDEST PUSH20 0xFFFFFFFFFFFFFFFFFFFFFFFFFFFFFFFFFFFFFFFF AND EQ JUMPDEST SWAP1 POP PUSH4 0xB61D27F6 PUSH1 0xE0 SHL PUSH28 0xFFFFFFFFFFFFFFFFFFFFFFFFFFFFFFFFFFFFFFFFFFFFFFFFFFFFFFFF NOT AND DUP3 PUSH28 0xFFFFFFFFFFFFFFFFFFFFFFFFFFFFFFFFFFFFFFFFFFFFFFFFFFFFFFFF NOT AND SUB PUSH2 0x91E JUMPI PUSH0 DUP1 PUSH2 0x8CF DUP9 DUP1 PUSH1 0x60 ADD SWAP1 PUSH2 0x8CA SWAP2 SWAP1 PUSH2 0x4139 JUMP JUMPDEST PUSH2 0x1F79 JUMP JUMPDEST SWAP2 POP SWAP2 POP DUP3 PUSH2 0x8FE JUMPI PUSH2 0x8EB DUP3 DUP7 PUSH2 0x200F SWAP1 SWAP2 SWAP1 PUSH4 0xFFFFFFFF AND JUMP JUMPDEST PUSH2 0x8FD JUMPI PUSH0 SWAP7 POP POP POP POP POP POP POP PUSH2 0xA52 JUMP JUMPDEST JUMPDEST DUP1 DUP7 PUSH0 ADD MLOAD LT ISZERO PUSH2 0x917 JUMPI PUSH0 SWAP7 POP POP POP POP POP POP POP PUSH2 0xA52 JUMP JUMPDEST POP POP PUSH2 0xA49 JUMP JUMPDEST PUSH4 0x47E1DA2A PUSH1 0xE0 SHL PUSH28 0xFFFFFFFFFFFFFFFFFFFFFFFFFFFFFFFFFFFFFFFFFFFFFFFFFFFFFFFF NOT AND DUP3 PUSH28 0xFFFFFFFFFFFFFFFFFFFFFFFFFFFFFFFFFFFFFFFFFFFFFFFFFFFFFFFF NOT AND SUB PUSH2 0xA3C JUMPI PUSH0 DUP1 PUSH2 0x984 DUP9 DUP1 PUSH1 0x60 ADD SWAP1 PUSH2 0x97F SWAP2 SWAP1 PUSH2 0x4139 JUMP JUMPDEST PUSH2 0x203C JUMP JUMPDEST POP SWAP2 POP SWAP2 POP DUP3 PUSH2 0x9E8 JUMPI PUSH0 JUMPDEST DUP3 MLOAD DUP2 LT ISZERO PUSH2 0x9E6 JUMPI PUSH2 0x9C6 DUP4 DUP3 DUP2 MLOAD DUP2 LT PUSH2 0x9AF JUMPI PUSH2 0x9AE PUSH2 0x419B JUMP JUMPDEST JUMPDEST PUSH1 0x20 MUL PUSH1 0x20 ADD ADD MLOAD DUP8 PUSH2 0x200F SWAP1 SWAP2 SWAP1 PUSH4 0xFFFFFFFF AND JUMP JUMPDEST PUSH2 0x9D9 JUMPI PUSH0 SWAP8 POP POP POP POP POP POP POP POP PUSH2 0xA52 JUMP JUMPDEST DUP1 DUP1 PUSH1 0x1 ADD SWAP2 POP POP PUSH2 0x990 JUMP JUMPDEST POP JUMPDEST PUSH0 JUMPDEST DUP3 MLOAD DUP2 LT ISZERO PUSH2 0xA34 JUMPI DUP2 DUP2 DUP2 MLOAD DUP2 LT PUSH2 0xA06 JUMPI PUSH2 0xA05 PUSH2 0x419B JUMP JUMPDEST JUMPDEST PUSH1 0x20 MUL PUSH1 0x20 ADD ADD MLOAD DUP8 PUSH0 ADD MLOAD LT ISZERO PUSH2 0xA27 JUMPI PUSH0 SWAP8 POP POP POP POP POP POP POP POP PUSH2 0xA52 JUMP JUMPDEST DUP1 DUP1 PUSH1 0x1 ADD SWAP2 POP POP PUSH2 0x9EA JUMP JUMPDEST POP POP POP PUSH2 0xA48 JUMP JUMPDEST PUSH0 SWAP5 POP POP POP POP POP PUSH2 0xA52 JUMP JUMPDEST JUMPDEST PUSH1 0x1 SWAP5 POP POP POP POP POP JUMPDEST SWAP3 SWAP2 POP POP JUMP JUMPDEST PUSH0 PUSH2 0xA61 PUSH2 0x1ED3 JUMP JUMPDEST PUSH1 0x4 ADD PUSH0 DUP4 PUSH20 0xFFFFFFFFFFFFFFFFFFFFFFFFFFFFFFFFFFFFFFFF AND PUSH20 0xFFFFFFFFFFFFFFFFFFFFFFFFFFFFFFFFFFFFFFFF AND DUP2 MSTORE PUSH1 0x20 ADD SWAP1 DUP2 MSTORE PUSH1 0x20 ADD PUSH0 KECCAK256 PUSH0 SWAP1 SLOAD SWAP1 PUSH2 0x100 EXP SWAP1 DIV PUSH1 0xFF AND SWAP1 POP SWAP2 SWAP1 POP JUMP JUMPDEST PUSH0 PUSH2 0xABC PUSH2 0x20BB JUMP JUMPDEST PUSH2 0xAC6 DUP5 DUP5 PUSH2 0x2132 JUMP JUMPDEST SWAP1 POP PUSH2 0xAD5 DUP5 PUSH1 0x20 ADD CALLDATALOAD PUSH2 0x2317 JUMP JUMPDEST PUSH2 0xADE DUP3 PUSH2 0x231A JUMP JUMPDEST SWAP4 SWAP3 POP POP POP JUMP JUMPDEST PUSH1 0x60 PUSH32 0x0 PUSH20 0xFFFFFFFFFFFFFFFFFFFFFFFFFFFFFFFFFFFFFFFF AND PUSH4 0x4A00CC48 PUSH1 0x40 MLOAD DUP2 PUSH4 0xFFFFFFFF AND PUSH1 0xE0 SHL DUP2 MSTORE PUSH1 0x4 ADD PUSH0 PUSH1 0x40 MLOAD DUP1 DUP4 SUB DUP2 DUP7 GAS STATICCALL ISZERO DUP1 ISZERO PUSH2 0xB4F JUMPI RETURNDATASIZE PUSH0 DUP1 RETURNDATACOPY RETURNDATASIZE PUSH0 REVERT JUMPDEST POP POP POP POP PUSH1 0x40 MLOAD RETURNDATASIZE PUSH0 DUP3 RETURNDATACOPY RETURNDATASIZE PUSH1 0x1F NOT PUSH1 0x1F DUP3 ADD AND DUP3 ADD DUP1 PUSH1 0x40 MSTORE POP DUP2 ADD SWAP1 PUSH2 0xB77 SWAP2 SWAP1 PUSH2 0x4641 JUMP JUMPDEST SWAP1 POP SWAP1 JUMP JUMPDEST PUSH0 DUP4 PUSH0 ADD PUSH1 0x20 DUP2 ADD SWAP1 PUSH2 0xB8F SWAP2 SWAP1 PUSH2 0x347A JUMP JUMPDEST SWAP1 POP TIMESTAMP DUP5 PUSH1 0xC0 ADD PUSH1 0x20 DUP2 ADD SWAP1 PUSH2 0xBA5 SWAP2 SWAP1 PUSH2 0x46B2 JUMP JUMPDEST PUSH16 0xFFFFFFFFFFFFFFFFFFFFFFFFFFFFFFFF AND GT ISZERO DUP1 ISZERO PUSH2 0xBE8 JUMPI POP DUP4 PUSH1 0xE0 ADD PUSH1 0x20 DUP2 ADD SWAP1 PUSH2 0xBD3 SWAP2 SWAP1 PUSH2 0x46B2 JUMP JUMPDEST PUSH16 0xFFFFFFFFFFFFFFFFFFFFFFFFFFFFFFFF AND TIMESTAMP LT JUMPDEST PUSH2 0xC27 JUMPI PUSH1 0x40 MLOAD PUSH32 0x8C379A000000000000000000000000000000000000000000000000000000000 DUP2 MSTORE PUSH1 0x4 ADD PUSH2 0xC1E SWAP1 PUSH2 0x4727 JUMP JUMPDEST PUSH1 0x40 MLOAD DUP1 SWAP2 SUB SWAP1 REVERT JUMPDEST PUSH0 DUP1 PUSH2 0xC34 DUP7 DUP7 DUP7 PUSH2 0x15CA JUMP JUMPDEST SWAP2 POP SWAP2 POP DUP2 PUSH2 0xC78 JUMPI PUSH1 0x40 MLOAD PUSH32 0x8C379A000000000000000000000000000000000000000000000000000000000 DUP2 MSTORE PUSH1 0x4 ADD PUSH2 0xC6F SWAP1 PUSH2 0x478F JUMP JUMPDEST PUSH1 0x40 MLOAD DUP1 SWAP2 SUB SWAP1 REVERT JUMPDEST PUSH1 0x1 PUSH2 0xC82 PUSH2 0x1ED3 JUMP JUMPDEST PUSH1 0x7 ADD PUSH0 DUP9 PUSH2 0x100 ADD CALLDATALOAD DUP2 MSTORE PUSH1 0x20 ADD SWAP1 DUP2 MSTORE PUSH1 0x20 ADD PUSH0 KECCAK256 PUSH0 PUSH2 0x100 EXP DUP2 SLOAD DUP2 PUSH1 0xFF MUL NOT AND SWAP1 DUP4 ISZERO ISZERO MUL OR SWAP1 SSTORE POP PUSH0 DUP7 PUSH1 0x20 ADD PUSH1 0x20 DUP2 ADD SWAP1 PUSH2 0xCC3 SWAP2 SWAP1 PUSH2 0x47E3 JUMP JUMPDEST PUSH1 0xFF AND GT ISZERO PUSH2 0xCFB JUMPI PUSH0 PUSH1 0x1 DUP8 PUSH1 0x20 ADD PUSH1 0x20 DUP2 ADD SWAP1 PUSH2 0xCE2 SWAP2 SWAP1 PUSH2 0x47E3 JUMP JUMPDEST PUSH1 0xFF AND EQ SWAP1 POP PUSH2 0xCF2 DUP5 DUP3 PUSH2 0x23B1 JUMP JUMPDEST POP POP POP POP PUSH2 0x10B4 JUMP JUMPDEST PUSH2 0xD04 DUP4 PUSH2 0xA58 JUMP JUMPDEST ISZERO PUSH2 0xD44 JUMPI PUSH1 0x40 MLOAD PUSH32 0x8C379A000000000000000000000000000000000000000000000000000000000 DUP2 MSTORE PUSH1 0x4 ADD PUSH2 0xD3B SWAP1 PUSH2 0x4858 JUMP JUMPDEST PUSH1 0x40 MLOAD DUP1 SWAP2 SUB SWAP1 REVERT JUMPDEST PUSH2 0xD61 DUP4 PUSH2 0xD50 PUSH2 0x1ED3 JUMP JUMPDEST PUSH1 0x2 ADD PUSH2 0x2531 SWAP1 SWAP2 SWAP1 PUSH4 0xFFFFFFFF AND JUMP JUMPDEST POP PUSH1 0x40 MLOAD DUP1 PUSH1 0x60 ADD PUSH1 0x40 MSTORE DUP1 DUP8 PUSH1 0x60 ADD CALLDATALOAD DUP2 MSTORE PUSH1 0x20 ADD DUP8 PUSH1 0x80 ADD PUSH1 0x20 DUP2 ADD SWAP1 PUSH2 0xD8A SWAP2 SWAP1 PUSH2 0x46B2 JUMP JUMPDEST PUSH16 0xFFFFFFFFFFFFFFFFFFFFFFFFFFFFFFFF AND DUP2 MSTORE PUSH1 0x20 ADD DUP8 PUSH1 0xA0 ADD PUSH1 0x20 DUP2 ADD SWAP1 PUSH2 0xDB4 SWAP2 SWAP1 PUSH2 0x46B2 JUMP JUMPDEST PUSH16 0xFFFFFFFFFFFFFFFFFFFFFFFFFFFFFFFF AND DUP2 MSTORE POP PUSH2 0xDD1 PUSH2 0x1ED3 JUMP JUMPDEST PUSH1 0x5 ADD PUSH0 DUP6 PUSH20 0xFFFFFFFFFFFFFFFFFFFFFFFFFFFFFFFFFFFFFFFF AND PUSH20 0xFFFFFFFFFFFFFFFFFFFFFFFFFFFFFFFFFFFFFFFF AND DUP2 MSTORE PUSH1 0x20 ADD SWAP1 DUP2 MSTORE PUSH1 0x20 ADD PUSH0 KECCAK256 PUSH0 DUP3 ADD MLOAD DUP2 PUSH0 ADD SSTORE PUSH1 0x20 DUP3 ADD MLOAD DUP2 PUSH1 0x1 ADD PUSH0 PUSH2 0x100 EXP DUP2 SLOAD DUP2 PUSH16 0xFFFFFFFFFFFFFFFFFFFFFFFFFFFFFFFF MUL NOT AND SWAP1 DUP4 PUSH16 0xFFFFFFFFFFFFFFFFFFFFFFFFFFFFFFFF AND MUL OR SWAP1 SSTORE POP PUSH1 0x40 DUP3 ADD MLOAD DUP2 PUSH1 0x1 ADD PUSH1 0x10 PUSH2 0x100 EXP DUP2 SLOAD DUP2 PUSH16 0xFFFFFFFFFFFFFFFFFFFFFFFFFFFFFFFF MUL NOT AND SWAP1 DUP4 PUSH16 0xFFFFFFFFFFFFFFFFFFFFFFFFFFFFFFFF AND MUL OR SWAP1 SSTORE POP SWAP1 POP POP PUSH0 PUSH2 0xEE6 PUSH2 0xEA3 PUSH2 0x1ED3 JUMP JUMPDEST PUSH1 0x6 ADD PUSH0 DUP7 PUSH20 0xFFFFFFFFFFFFFFFFFFFFFFFFFFFFFFFFFFFFFFFF AND PUSH20 0xFFFFFFFFFFFFFFFFFFFFFFFFFFFFFFFFFFFFFFFF AND DUP2 MSTORE PUSH1 0x20 ADD SWAP1 DUP2 MSTORE PUSH1 0x20 ADD PUSH0 KECCAK256 PUSH2 0x255E JUMP JUMPDEST SWAP1 POP PUSH0 DUP2 MLOAD SWAP1 POP PUSH0 JUMPDEST DUP2 DUP2 LT ISZERO PUSH2 0xF7E JUMPI PUSH2 0xF69 DUP4 DUP3 DUP2 MLOAD DUP2 LT PUSH2 0xF0D JUMPI PUSH2 0xF0C PUSH2 0x419B JUMP JUMPDEST JUMPDEST PUSH1 0x20 MUL PUSH1 0x20 ADD ADD MLOAD PUSH2 0xF1D PUSH2 0x1ED3 JUMP JUMPDEST PUSH1 0x6 ADD PUSH0 DUP10 PUSH20 0xFFFFFFFFFFFFFFFFFFFFFFFFFFFFFFFFFFFFFFFF AND PUSH20 0xFFFFFFFFFFFFFFFFFFFFFFFFFFFFFFFFFFFFFFFF AND DUP2 MSTORE PUSH1 0x20 ADD SWAP1 DUP2 MSTORE PUSH1 0x20 ADD PUSH0 KECCAK256 PUSH2 0x257D SWAP1 SWAP2 SWAP1 PUSH4 0xFFFFFFFF AND JUMP JUMPDEST POP PUSH1 0x1 DUP2 PUSH2 0xF77 SWAP2 SWAP1 PUSH2 0x48A3 JUMP JUMPDEST SWAP1 POP PUSH2 0xEEF JUMP JUMPDEST POP DUP8 DUP1 PUSH1 0x40 ADD SWAP1 PUSH2 0xF8F SWAP2 SWAP1 PUSH2 0x48D6 JUMP JUMPDEST SWAP1 POP SWAP1 POP PUSH0 JUMPDEST DUP2 DUP2 LT ISZERO PUSH2 0x103F JUMPI PUSH2 0x102A DUP10 DUP1 PUSH1 0x40 ADD SWAP1 PUSH2 0xFB0 SWAP2 SWAP1 PUSH2 0x48D6 JUMP JUMPDEST DUP4 DUP2 DUP2 LT PUSH2 0xFC1 JUMPI PUSH2 0xFC0 PUSH2 0x419B JUMP JUMPDEST JUMPDEST SWAP1 POP PUSH1 0x20 MUL ADD PUSH1 0x20 DUP2 ADD SWAP1 PUSH2 0xFD6 SWAP2 SWAP1 PUSH2 0x347A JUMP JUMPDEST PUSH2 0xFDE PUSH2 0x1ED3 JUMP JUMPDEST PUSH1 0x6 ADD PUSH0 DUP10 PUSH20 0xFFFFFFFFFFFFFFFFFFFFFFFFFFFFFFFFFFFFFFFF AND PUSH20 0xFFFFFFFFFFFFFFFFFFFFFFFFFFFFFFFFFFFFFFFF AND DUP2 MSTORE PUSH1 0x20 ADD SWAP1 DUP2 MSTORE PUSH1 0x20 ADD PUSH0 KECCAK256 PUSH2 0x2531 SWAP1 SWAP2 SWAP1 PUSH4 0xFFFFFFFF AND JUMP JUMPDEST POP PUSH1 0x1 DUP2 PUSH2 0x1038 SWAP2 SWAP1 PUSH2 0x48A3 JUMP JUMPDEST SWAP1 POP PUSH2 0xF95 JUMP JUMPDEST POP PUSH2 0x1049 DUP9 PUSH2 0x25AA JUMP JUMPDEST DUP5 PUSH20 0xFFFFFFFFFFFFFFFFFFFFFFFFFFFFFFFFFFFFFFFF AND DUP4 PUSH20 0xFFFFFFFFFFFFFFFFFFFFFFFFFFFFFFFFFFFFFFFF AND PUSH32 0xF21D10C26E35863A8DF291ACA54181EE8C4A3BC8E00246C3F7A5A14B69D826A7 DUP11 PUSH1 0x40 MLOAD PUSH2 0x10A6 SWAP2 SWAP1 PUSH2 0x4BAE JUMP JUMPDEST PUSH1 0x40 MLOAD DUP1 SWAP2 SUB SWAP1 LOG3 POP POP POP POP POP JUMPDEST POP POP POP JUMP JUMPDEST PUSH0 DUP1 PUSH2 0x10C3 PUSH2 0x1ED3 JUMP JUMPDEST PUSH1 0x5 ADD PUSH0 DUP5 PUSH20 0xFFFFFFFFFFFFFFFFFFFFFFFFFFFFFFFFFFFFFFFF AND PUSH20 0xFFFFFFFFFFFFFFFFFFFFFFFFFFFFFFFFFFFFFFFF AND DUP2 MSTORE PUSH1 0x20 ADD SWAP1 DUP2 MSTORE PUSH1 0x20 ADD PUSH0 KECCAK256 PUSH1 0x40 MLOAD DUP1 PUSH1 0x60 ADD PUSH1 0x40 MSTORE SWAP1 DUP2 PUSH0 DUP3 ADD SLOAD DUP2 MSTORE PUSH1 0x20 ADD PUSH1 0x1 DUP3 ADD PUSH0 SWAP1 SLOAD SWAP1 PUSH2 0x100 EXP SWAP1 DIV PUSH16 0xFFFFFFFFFFFFFFFFFFFFFFFFFFFFFFFF AND PUSH16 0xFFFFFFFFFFFFFFFFFFFFFFFFFFFFFFFF AND PUSH16 0xFFFFFFFFFFFFFFFFFFFFFFFFFFFFFFFF AND DUP2 MSTORE PUSH1 0x20 ADD PUSH1 0x1 DUP3 ADD PUSH1 0x10 SWAP1 SLOAD SWAP1 PUSH2 0x100 EXP SWAP1 DIV PUSH16 0xFFFFFFFFFFFFFFFFFFFFFFFFFFFFFFFF AND PUSH16 0xFFFFFFFFFFFFFFFFFFFFFFFFFFFFFFFF AND PUSH16 0xFFFFFFFFFFFFFFFFFFFFFFFFFFFFFFFF AND DUP2 MSTORE POP POP SWAP1 POP TIMESTAMP DUP2 PUSH1 0x20 ADD MLOAD PUSH16 0xFFFFFFFFFFFFFFFFFFFFFFFFFFFFFFFF AND GT ISZERO DUP1 ISZERO PUSH2 0x11E5 JUMPI POP DUP1 PUSH1 0x40 ADD MLOAD PUSH16 0xFFFFFFFFFFFFFFFFFFFFFFFFFFFFFFFF AND TIMESTAMP LT JUMPDEST DUP1 ISZERO PUSH2 0x123D JUMPI POP PUSH0 PUSH2 0x123B PUSH2 0x11F8 PUSH2 0x1ED3 JUMP JUMPDEST PUSH1 0x6 ADD PUSH0 DUP7 PUSH20 0xFFFFFFFFFFFFFFFFFFFFFFFFFFFFFFFFFFFFFFFF AND PUSH20 0xFFFFFFFFFFFFFFFFFFFFFFFFFFFFFFFFFFFFFFFF AND DUP2 MSTORE PUSH1 0x20 ADD SWAP1 DUP2 MSTORE PUSH1 0x20 ADD PUSH0 KECCAK256 PUSH2 0x1EE1 JUMP JUMPDEST GT JUMPDEST SWAP2 POP POP SWAP2 SWAP1 POP JUMP JUMPDEST PUSH1 0x60 PUSH0 PUSH2 0x125B PUSH2 0x1253 PUSH2 0x1ED3 JUMP JUMPDEST PUSH1 0x2 ADD PUSH2 0x255E JUMP JUMPDEST SWAP1 POP PUSH0 DUP2 MLOAD SWAP1 POP PUSH0 DUP1 JUMPDEST DUP3 DUP2 LT ISZERO PUSH2 0x130B JUMPI PUSH2 0x1290 DUP5 DUP3 DUP2 MLOAD DUP2 LT PUSH2 0x1283 JUMPI PUSH2 0x1282 PUSH2 0x419B JUMP JUMPDEST JUMPDEST PUSH1 0x20 MUL PUSH1 0x20 ADD ADD MLOAD PUSH2 0x10B9 JUMP JUMPDEST ISZERO PUSH2 0x12A8 JUMPI DUP2 DUP1 PUSH2 0x12A0 SWAP1 PUSH2 0x4BCE JUMP JUMPDEST SWAP3 POP POP PUSH2 0x12F7 JUMP JUMPDEST PUSH0 DUP5 DUP3 DUP2 MLOAD DUP2 LT PUSH2 0x12BC JUMPI PUSH2 0x12BB PUSH2 0x419B JUMP JUMPDEST JUMPDEST PUSH1 0x20 MUL PUSH1 0x20 ADD ADD SWAP1 PUSH20 0xFFFFFFFFFFFFFFFFFFFFFFFFFFFFFFFFFFFFFFFF AND SWAP1 DUP2 PUSH20 0xFFFFFFFFFFFFFFFFFFFFFFFFFFFFFFFFFFFFFFFF AND DUP2 MSTORE POP POP JUMPDEST PUSH1 0x1 DUP2 PUSH2 0x1304 SWAP2 SWAP1 PUSH2 0x48A3 JUMP JUMPDEST SWAP1 POP PUSH2 0x1265 JUMP JUMPDEST POP DUP1 PUSH8 0xFFFFFFFFFFFFFFFF DUP2 GT ISZERO PUSH2 0x1326 JUMPI PUSH2 0x1325 PUSH2 0x41C8 JUMP JUMPDEST JUMPDEST PUSH1 0x40 MLOAD SWAP1 DUP1 DUP3 MSTORE DUP1 PUSH1 0x20 MUL PUSH1 0x20 ADD DUP3 ADD PUSH1 0x40 MSTORE DUP1 ISZERO PUSH2 0x135F JUMPI DUP2 PUSH1 0x20 ADD JUMPDEST PUSH2 0x134C PUSH2 0x3282 JUMP JUMPDEST DUP2 MSTORE PUSH1 0x20 ADD SWAP1 PUSH1 0x1 SWAP1 SUB SWAP1 DUP2 PUSH2 0x1344 JUMPI SWAP1 POP JUMPDEST POP SWAP4 POP PUSH0 DUP1 JUMPDEST DUP4 DUP2 LT ISZERO PUSH2 0x15C2 JUMPI PUSH0 PUSH20 0xFFFFFFFFFFFFFFFFFFFFFFFFFFFFFFFFFFFFFFFF AND DUP6 DUP3 DUP2 MLOAD DUP2 LT PUSH2 0x1397 JUMPI PUSH2 0x1396 PUSH2 0x419B JUMP JUMPDEST JUMPDEST PUSH1 0x20 MUL PUSH1 0x20 ADD ADD MLOAD PUSH20 0xFFFFFFFFFFFFFFFFFFFFFFFFFFFFFFFFFFFFFFFF AND EQ PUSH2 0x15AE JUMPI PUSH0 DUP6 DUP3 DUP2 MLOAD DUP2 LT PUSH2 0x13CE JUMPI PUSH2 0x13CD PUSH2 0x419B JUMP JUMPDEST JUMPDEST PUSH1 0x20 MUL PUSH1 0x20 ADD ADD MLOAD SWAP1 POP PUSH0 PUSH2 0x13E1 PUSH2 0x1ED3 JUMP JUMPDEST PUSH1 0x5 ADD PUSH0 DUP4 PUSH20 0xFFFFFFFFFFFFFFFFFFFFFFFFFFFFFFFFFFFFFFFF AND PUSH20 0xFFFFFFFFFFFFFFFFFFFFFFFFFFFFFFFFFFFFFFFF AND DUP2 MSTORE PUSH1 0x20 ADD SWAP1 DUP2 MSTORE PUSH1 0x20 ADD PUSH0 KECCAK256 PUSH1 0x40 MLOAD DUP1 PUSH1 0x60 ADD PUSH1 0x40 MSTORE SWAP1 DUP2 PUSH0 DUP3 ADD SLOAD DUP2 MSTORE PUSH1 0x20 ADD PUSH1 0x1 DUP3 ADD PUSH0 SWAP1 SLOAD SWAP1 PUSH2 0x100 EXP SWAP1 DIV PUSH16 0xFFFFFFFFFFFFFFFFFFFFFFFFFFFFFFFF AND PUSH16 0xFFFFFFFFFFFFFFFFFFFFFFFFFFFFFFFF AND PUSH16 0xFFFFFFFFFFFFFFFFFFFFFFFFFFFFFFFF AND DUP2 MSTORE PUSH1 0x20 ADD PUSH1 0x1 DUP3 ADD PUSH1 0x10 SWAP1 SLOAD SWAP1 PUSH2 0x100 EXP SWAP1 DIV PUSH16 0xFFFFFFFFFFFFFFFFFFFFFFFFFFFFFFFF AND PUSH16 0xFFFFFFFFFFFFFFFFFFFFFFFFFFFFFFFF AND PUSH16 0xFFFFFFFFFFFFFFFFFFFFFFFFFFFFFFFF AND DUP2 MSTORE POP POP SWAP1 POP PUSH1 0x40 MLOAD DUP1 PUSH1 0xA0 ADD PUSH1 0x40 MSTORE DUP1 DUP4 PUSH20 0xFFFFFFFFFFFFFFFFFFFFFFFFFFFFFFFFFFFFFFFF AND DUP2 MSTORE PUSH1 0x20 ADD PUSH2 0x153D PUSH2 0x14FA PUSH2 0x1ED3 JUMP JUMPDEST PUSH1 0x6 ADD PUSH0 DUP7 PUSH20 0xFFFFFFFFFFFFFFFFFFFFFFFFFFFFFFFFFFFFFFFF AND PUSH20 0xFFFFFFFFFFFFFFFFFFFFFFFFFFFFFFFFFFFFFFFF AND DUP2 MSTORE PUSH1 0x20 ADD SWAP1 DUP2 MSTORE PUSH1 0x20 ADD PUSH0 KECCAK256 PUSH2 0x255E JUMP JUMPDEST DUP2 MSTORE PUSH1 0x20 ADD DUP3 PUSH0 ADD MLOAD DUP2 MSTORE PUSH1 0x20 ADD DUP3 PUSH1 0x20 ADD MLOAD PUSH16 0xFFFFFFFFFFFFFFFFFFFFFFFFFFFFFFFF AND DUP2 MSTORE PUSH1 0x20 ADD DUP3 PUSH1 0x40 ADD MLOAD PUSH16 0xFFFFFFFFFFFFFFFFFFFFFFFFFFFFFFFF AND DUP2 MSTORE POP DUP9 DUP6 DUP1 PUSH2 0x158D SWAP1 PUSH2 0x4BCE JUMP JUMPDEST SWAP7 POP DUP2 MLOAD DUP2 LT PUSH2 0x15A0 JUMPI PUSH2 0x159F PUSH2 0x419B JUMP JUMPDEST JUMPDEST PUSH1 0x20 MUL PUSH1 0x20 ADD ADD DUP2 SWAP1 MSTORE POP POP POP JUMPDEST PUSH1 0x1 DUP2 PUSH2 0x15BB SWAP2 SWAP1 PUSH2 0x48A3 JUMP JUMPDEST SWAP1 POP PUSH2 0x1365 JUMP JUMPDEST POP POP POP POP POP SWAP1 JUMP JUMPDEST PUSH0 DUP1 PUSH2 0x15DF PUSH2 0x15D8 DUP7 PUSH2 0x2691 JUMP JUMPDEST DUP6 DUP6 PUSH2 0x2796 JUMP JUMPDEST SWAP1 POP PUSH2 0x15E9 PUSH2 0x1ED3 JUMP JUMPDEST PUSH1 0x7 ADD PUSH0 DUP7 PUSH2 0x100 ADD CALLDATALOAD DUP2 MSTORE PUSH1 0x20 ADD SWAP1 DUP2 MSTORE PUSH1 0x20 ADD PUSH0 KECCAK256 PUSH0 SWAP1 SLOAD SWAP1 PUSH2 0x100 EXP SWAP1 DIV PUSH1 0xFF AND ISZERO DUP1 ISZERO PUSH2 0x161F JUMPI POP PUSH2 0x161E DUP2 PUSH2 0xA58 JUMP JUMPDEST JUMPDEST SWAP2 POP SWAP4 POP SWAP4 SWAP2 POP POP JUMP JUMPDEST PUSH1 0x60 DUP3 DUP3 SWAP1 POP PUSH8 0xFFFFFFFFFFFFFFFF DUP2 GT ISZERO PUSH2 0x1648 JUMPI PUSH2 0x1647 PUSH2 0x41C8 JUMP JUMPDEST JUMPDEST PUSH1 0x40 MLOAD SWAP1 DUP1 DUP3 MSTORE DUP1 PUSH1 0x20 MUL PUSH1 0x20 ADD DUP3 ADD PUSH1 0x40 MSTORE DUP1 ISZERO PUSH2 0x167B JUMPI DUP2 PUSH1 0x20 ADD JUMPDEST PUSH1 0x60 DUP2 MSTORE PUSH1 0x20 ADD SWAP1 PUSH1 0x1 SWAP1 SUB SWAP1 DUP2 PUSH2 0x1666 JUMPI SWAP1 POP JUMPDEST POP SWAP1 POP PUSH0 JUMPDEST DUP4 DUP4 SWAP1 POP DUP2 LT ISZERO PUSH2 0x1726 JUMPI PUSH2 0x16FB ADDRESS DUP6 DUP6 DUP5 DUP2 DUP2 LT PUSH2 0x16A2 JUMPI PUSH2 0x16A1 PUSH2 0x419B JUMP JUMPDEST JUMPDEST SWAP1 POP PUSH1 0x20 MUL DUP2 ADD SWAP1 PUSH2 0x16B4 SWAP2 SWAP1 PUSH2 0x4139 JUMP JUMPDEST DUP1 DUP1 PUSH1 0x1F ADD PUSH1 0x20 DUP1 SWAP2 DIV MUL PUSH1 0x20 ADD PUSH1 0x40 MLOAD SWAP1 DUP2 ADD PUSH1 0x40 MSTORE DUP1 SWAP4 SWAP3 SWAP2 SWAP1 DUP2 DUP2 MSTORE PUSH1 0x20 ADD DUP4 DUP4 DUP1 DUP3 DUP5 CALLDATACOPY PUSH0 DUP2 DUP5 ADD MSTORE PUSH1 0x1F NOT PUSH1 0x1F DUP3 ADD AND SWAP1 POP DUP1 DUP4 ADD SWAP3 POP POP POP POP POP POP POP PUSH2 0x2805 JUMP JUMPDEST DUP3 DUP3 DUP2 MLOAD DUP2 LT PUSH2 0x170E JUMPI PUSH2 0x170D PUSH2 0x419B JUMP JUMPDEST JUMPDEST PUSH1 0x20 MUL PUSH1 0x20 ADD ADD DUP2 SWAP1 MSTORE POP DUP1 DUP1 PUSH1 0x1 ADD SWAP2 POP POP PUSH2 0x1680 JUMP JUMPDEST POP SWAP3 SWAP2 POP POP JUMP JUMPDEST PUSH0 DUP1 PUSH2 0x1737 PUSH2 0x2832 JUMP JUMPDEST PUSH0 ADD PUSH0 SWAP1 SLOAD SWAP1 PUSH2 0x100 EXP SWAP1 DIV PUSH20 0xFFFFFFFFFFFFFFFFFFFFFFFFFFFFFFFFFFFFFFFF AND SWAP1 POP PUSH0 PUSH20 0xFFFFFFFFFFFFFFFFFFFFFFFFFFFFFFFFFFFFFFFF AND DUP2 PUSH20 0xFFFFFFFFFFFFFFFFFFFFFFFFFFFFFFFFFFFFFFFF AND EQ PUSH2 0x1797 JUMPI DUP1 SWAP2 POP POP PUSH2 0x17BC JUMP JUMPDEST PUSH32 0x0 SWAP2 POP POP JUMPDEST SWAP1 JUMP JUMPDEST PUSH2 0x17C7 PUSH2 0x2860 JUMP JUMPDEST DUP1 PUSH2 0x17D0 PUSH2 0x2832 JUMP JUMPDEST PUSH0 ADD PUSH0 PUSH2 0x100 EXP DUP2 SLOAD DUP2 PUSH20 0xFFFFFFFFFFFFFFFFFFFFFFFFFFFFFFFFFFFFFFFF MUL NOT AND SWAP1 DUP4 PUSH20 0xFFFFFFFFFFFFFFFFFFFFFFFFFFFFFFFFFFFFFFFF AND MUL OR SWAP1 SSTORE POP POP JUMP JUMPDEST PUSH32 0x0 DUP2 JUMP JUMPDEST PUSH0 PUSH2 0x183F PUSH2 0x172D JUMP JUMPDEST PUSH20 0xFFFFFFFFFFFFFFFFFFFFFFFFFFFFFFFFFFFFFFFF AND PUSH4 0x35567E1A ADDRESS PUSH0 PUSH1 0x40 MLOAD DUP4 PUSH4 0xFFFFFFFF AND PUSH1 0xE0 SHL DUP2 MSTORE PUSH1 0x4 ADD PUSH2 0x1879 SWAP3 SWAP2 SWAP1 PUSH2 0x4C71 JUMP JUMPDEST PUSH1 0x20 PUSH1 0x40 MLOAD DUP1 DUP4 SUB DUP2 DUP7 GAS STATICCALL ISZERO DUP1 ISZERO PUSH2 0x1894 JUMPI RETURNDATASIZE PUSH0 DUP1 RETURNDATACOPY RETURNDATASIZE PUSH0 REVERT JUMPDEST POP POP POP POP PUSH1 0x40 MLOAD RETURNDATASIZE PUSH1 0x1F NOT PUSH1 0x1F DUP3 ADD AND DUP3 ADD DUP1 PUSH1 0x40 MSTORE POP DUP2 ADD SWAP1 PUSH2 0x18B8 SWAP2 SWAP1 PUSH2 0x4CAC JUMP JUMPDEST SWAP1 POP SWAP1 JUMP JUMPDEST PUSH0 PUSH2 0x18C6 PUSH2 0x28AA JUMP JUMPDEST PUSH0 ADD PUSH0 SWAP1 SLOAD SWAP1 PUSH2 0x100 EXP SWAP1 DIV PUSH1 0xFF AND SWAP1 POP PUSH0 PUSH2 0x18E0 PUSH2 0x28AA JUMP JUMPDEST PUSH0 ADD PUSH1 0x1 SWAP1 SLOAD SWAP1 PUSH2 0x100 EXP SWAP1 DIV PUSH1 0xFF AND SWAP1 POP PUSH0 DUP2 ISZERO SWAP1 POP DUP1 DUP1 ISZERO PUSH2 0x1907 JUMPI POP PUSH1 0x1 DUP4 PUSH1 0xFF AND LT JUMPDEST DUP1 PUSH2 0x1927 JUMPI POP PUSH2 0x1916 ADDRESS PUSH2 0x28B8 JUMP JUMPDEST ISZERO DUP1 ISZERO PUSH2 0x1926 JUMPI POP PUSH1 0x1 DUP4 PUSH1 0xFF AND EQ JUMPDEST JUMPDEST PUSH2 0x1966 JUMPI PUSH1 0x40 MLOAD PUSH32 0x8C379A000000000000000000000000000000000000000000000000000000000 DUP2 MSTORE PUSH1 0x4 ADD PUSH2 0x195D SWAP1 PUSH2 0x4D47 JUMP JUMPDEST PUSH1 0x40 MLOAD DUP1 SWAP2 SUB SWAP1 REVERT JUMPDEST PUSH1 0x1 PUSH2 0x1970 PUSH2 0x28AA JUMP JUMPDEST PUSH0 ADD PUSH0 PUSH2 0x100 EXP DUP2 SLOAD DUP2 PUSH1 0xFF MUL NOT AND SWAP1 DUP4 PUSH1 0xFF AND MUL OR SWAP1 SSTORE POP DUP1 ISZERO PUSH2 0x19B3 JUMPI PUSH1 0x1 PUSH2 0x1999 PUSH2 0x28AA JUMP JUMPDEST PUSH0 ADD PUSH1 0x1 PUSH2 0x100 EXP DUP2 SLOAD DUP2 PUSH1 0xFF MUL NOT AND SWAP1 DUP4 ISZERO ISZERO MUL OR SWAP1 SSTORE POP JUMPDEST PUSH2 0x1A00 DUP7 DUP7 DUP7 DUP1 DUP1 PUSH1 0x1F ADD PUSH1 0x20 DUP1 SWAP2 DIV MUL PUSH1 0x20 ADD PUSH1 0x40 MLOAD SWAP1 DUP2 ADD PUSH1 0x40 MSTORE DUP1 SWAP4 SWAP3 SWAP2 SWAP1 DUP2 DUP2 MSTORE PUSH1 0x20 ADD DUP4 DUP4 DUP1 DUP3 DUP5 CALLDATACOPY PUSH0 DUP2 DUP5 ADD MSTORE PUSH1 0x1F NOT PUSH1 0x1F DUP3 ADD AND SWAP1 POP DUP1 DUP4 ADD SWAP3 POP POP POP POP POP POP POP PUSH2 0x28DA JUMP JUMPDEST PUSH2 0x1A08 PUSH2 0x2832 JUMP JUMPDEST PUSH1 0x1 ADD DUP2 SWAP1 SSTORE POP PUSH2 0x1A1A DUP7 PUSH1 0x1 PUSH2 0x23B1 JUMP JUMPDEST DUP1 ISZERO PUSH2 0x1A7B JUMPI PUSH0 PUSH2 0x1A29 PUSH2 0x28AA JUMP JUMPDEST PUSH0 ADD PUSH1 0x1 PUSH2 0x100 EXP DUP2 SLOAD DUP2 PUSH1 0xFF MUL NOT AND SWAP1 DUP4 ISZERO ISZERO MUL OR SWAP1 SSTORE POP PUSH32 0x7F26B83FF96E1F2B6A682F133852F6798A09C465DA95921460CEFB3847402498 PUSH1 0x1 PUSH1 0x40 MLOAD PUSH2 0x1A72 SWAP2 SWAP1 PUSH2 0x4D9E JUMP JUMPDEST PUSH1 0x40 MLOAD DUP1 SWAP2 SUB SWAP1 LOG1 JUMPDEST POP POP POP POP POP POP JUMP JUMPDEST PUSH1 0x60 PUSH0 PUSH2 0x1A99 PUSH2 0x1A91 PUSH2 0x1ED3 JUMP JUMPDEST PUSH1 0x2 ADD PUSH2 0x255E JUMP JUMPDEST SWAP1 POP PUSH0 DUP2 MLOAD SWAP1 POP DUP1 PUSH8 0xFFFFFFFFFFFFFFFF DUP2 GT ISZERO PUSH2 0x1ABA JUMPI PUSH2 0x1AB9 PUSH2 0x41C8 JUMP JUMPDEST JUMPDEST PUSH1 0x40 MLOAD SWAP1 DUP1 DUP3 MSTORE DUP1 PUSH1 0x20 MUL PUSH1 0x20 ADD DUP3 ADD PUSH1 0x40 MSTORE DUP1 ISZERO PUSH2 0x1AF3 JUMPI DUP2 PUSH1 0x20 ADD JUMPDEST PUSH2 0x1AE0 PUSH2 0x3282 JUMP JUMPDEST DUP2 MSTORE PUSH1 0x20 ADD SWAP1 PUSH1 0x1 SWAP1 SUB SWAP1 DUP2 PUSH2 0x1AD8 JUMPI SWAP1 POP JUMPDEST POP SWAP3 POP PUSH0 JUMPDEST DUP2 DUP2 LT ISZERO PUSH2 0x1CFB JUMPI PUSH0 DUP4 DUP3 DUP2 MLOAD DUP2 LT PUSH2 0x1B14 JUMPI PUSH2 0x1B13 PUSH2 0x419B JUMP JUMPDEST JUMPDEST PUSH1 0x20 MUL PUSH1 0x20 ADD ADD MLOAD SWAP1 POP PUSH0 PUSH2 0x1B27 PUSH2 0x1ED3 JUMP JUMPDEST PUSH1 0x5 ADD PUSH0 DUP4 PUSH20 0xFFFFFFFFFFFFFFFFFFFFFFFFFFFFFFFFFFFFFFFF AND PUSH20 0xFFFFFFFFFFFFFFFFFFFFFFFFFFFFFFFFFFFFFFFF AND DUP2 MSTORE PUSH1 0x20 ADD SWAP1 DUP2 MSTORE PUSH1 0x20 ADD PUSH0 KECCAK256 PUSH1 0x40 MLOAD DUP1 PUSH1 0x60 ADD PUSH1 0x40 MSTORE SWAP1 DUP2 PUSH0 DUP3 ADD SLOAD DUP2 MSTORE PUSH1 0x20 ADD PUSH1 0x1 DUP3 ADD PUSH0 SWAP1 SLOAD SWAP1 PUSH2 0x100 EXP SWAP1 DIV PUSH16 0xFFFFFFFFFFFFFFFFFFFFFFFFFFFFFFFF AND PUSH16 0xFFFFFFFFFFFFFFFFFFFFFFFFFFFFFFFF AND PUSH16 0xFFFFFFFFFFFFFFFFFFFFFFFFFFFFFFFF AND DUP2 MSTORE PUSH1 0x20 ADD PUSH1 0x1 DUP3 ADD PUSH1 0x10 SWAP1 SLOAD SWAP1 PUSH2 0x100 EXP SWAP1 DIV PUSH16 0xFFFFFFFFFFFFFFFFFFFFFFFFFFFFFFFF AND PUSH16 0xFFFFFFFFFFFFFFFFFFFFFFFFFFFFFFFF AND PUSH16 0xFFFFFFFFFFFFFFFFFFFFFFFFFFFFFFFF AND DUP2 MSTORE POP POP SWAP1 POP PUSH1 0x40 MLOAD DUP1 PUSH1 0xA0 ADD PUSH1 0x40 MSTORE DUP1 DUP4 PUSH20 0xFFFFFFFFFFFFFFFFFFFFFFFFFFFFFFFFFFFFFFFF AND DUP2 MSTORE PUSH1 0x20 ADD PUSH2 0x1C83 PUSH2 0x1C40 PUSH2 0x1ED3 JUMP JUMPDEST PUSH1 0x6 ADD PUSH0 DUP7 PUSH20 0xFFFFFFFFFFFFFFFFFFFFFFFFFFFFFFFFFFFFFFFF AND PUSH20 0xFFFFFFFFFFFFFFFFFFFFFFFFFFFFFFFFFFFFFFFF AND DUP2 MSTORE PUSH1 0x20 ADD SWAP1 DUP2 MSTORE PUSH1 0x20 ADD PUSH0 KECCAK256 PUSH2 0x255E JUMP JUMPDEST DUP2 MSTORE PUSH1 0x20 ADD DUP3 PUSH0 ADD MLOAD DUP2 MSTORE PUSH1 0x20 ADD DUP3 PUSH1 0x20 ADD MLOAD PUSH16 0xFFFFFFFFFFFFFFFFFFFFFFFFFFFFFFFF AND DUP2 MSTORE PUSH1 0x20 ADD DUP3 PUSH1 0x40 ADD MLOAD PUSH16 0xFFFFFFFFFFFFFFFFFFFFFFFFFFFFFFFF AND DUP2 MSTORE POP DUP7 DUP5 DUP2 MLOAD DUP2 LT PUSH2 0x1CDA JUMPI PUSH2 0x1CD9 PUSH2 0x419B JUMP JUMPDEST JUMPDEST PUSH1 0x20 MUL PUSH1 0x20 ADD ADD DUP2 SWAP1 MSTORE POP POP POP PUSH1 0x1 DUP2 PUSH2 0x1CF4 SWAP2 SWAP1 PUSH2 0x48A3 JUMP JUMPDEST SWAP1 POP PUSH2 0x1AF8 JUMP JUMPDEST POP POP POP SWAP1 JUMP JUMPDEST PUSH1 0x60 PUSH2 0x1D15 PUSH2 0x1D0E PUSH2 0x1ED3 JUMP JUMPDEST PUSH0 ADD PUSH2 0x255E JUMP JUMPDEST SWAP1 POP SWAP1 JUMP JUMPDEST PUSH2 0x1D22 PUSH2 0x3282 JUMP JUMPDEST PUSH0 PUSH2 0x1D2B PUSH2 0x1ED3 JUMP JUMPDEST PUSH1 0x5 ADD PUSH0 DUP5 PUSH20 0xFFFFFFFFFFFFFFFFFFFFFFFFFFFFFFFFFFFFFFFF AND PUSH20 0xFFFFFFFFFFFFFFFFFFFFFFFFFFFFFFFFFFFFFFFF AND DUP2 MSTORE PUSH1 0x20 ADD SWAP1 DUP2 MSTORE PUSH1 0x20 ADD PUSH0 KECCAK256 PUSH1 0x40 MLOAD DUP1 PUSH1 0x60 ADD PUSH1 0x40 MSTORE SWAP1 DUP2 PUSH0 DUP3 ADD SLOAD DUP2 MSTORE PUSH1 0x20 ADD PUSH1 0x1 DUP3 ADD PUSH0 SWAP1 SLOAD SWAP1 PUSH2 0x100 EXP SWAP1 DIV PUSH16 0xFFFFFFFFFFFFFFFFFFFFFFFFFFFFFFFF AND PUSH16 0xFFFFFFFFFFFFFFFFFFFFFFFFFFFFFFFF AND PUSH16 0xFFFFFFFFFFFFFFFFFFFFFFFFFFFFFFFF AND DUP2 MSTORE PUSH1 0x20 ADD PUSH1 0x1 DUP3 ADD PUSH1 0x10 SWAP1 SLOAD SWAP1 PUSH2 0x100 EXP SWAP1 DIV PUSH16 0xFFFFFFFFFFFFFFFFFFFFFFFFFFFFFFFF AND PUSH16 0xFFFFFFFFFFFFFFFFFFFFFFFFFFFFFFFF AND PUSH16 0xFFFFFFFFFFFFFFFFFFFFFFFFFFFFFFFF AND DUP2 MSTORE POP POP SWAP1 POP PUSH1 0x40 MLOAD DUP1 PUSH1 0xA0 ADD PUSH1 0x40 MSTORE DUP1 DUP5 PUSH20 0xFFFFFFFFFFFFFFFFFFFFFFFFFFFFFFFFFFFFFFFF AND DUP2 MSTORE PUSH1 0x20 ADD PUSH2 0x1E87 PUSH2 0x1E44 PUSH2 0x1ED3 JUMP JUMPDEST PUSH1 0x6 ADD PUSH0 DUP8 PUSH20 0xFFFFFFFFFFFFFFFFFFFFFFFFFFFFFFFFFFFFFFFF AND PUSH20 0xFFFFFFFFFFFFFFFFFFFFFFFFFFFFFFFFFFFFFFFF AND DUP2 MSTORE PUSH1 0x20 ADD SWAP1 DUP2 MSTORE PUSH1 0x20 ADD PUSH0 KECCAK256 PUSH2 0x255E JUMP JUMPDEST DUP2 MSTORE PUSH1 0x20 ADD DUP3 PUSH0 ADD MLOAD DUP2 MSTORE PUSH1 0x20 ADD DUP3 PUSH1 0x20 ADD MLOAD PUSH16 0xFFFFFFFFFFFFFFFFFFFFFFFFFFFFFFFF AND DUP2 MSTORE PUSH1 0x20 ADD DUP3 PUSH1 0x40 ADD MLOAD PUSH16 0xFFFFFFFFFFFFFFFFFFFFFFFFFFFFFFFF AND DUP2 MSTORE POP SWAP2 POP POP SWAP2 SWAP1 POP JUMP JUMPDEST PUSH0 PUSH2 0x1EDC PUSH2 0x290C JUMP JUMPDEST SWAP1 POP SWAP1 JUMP JUMPDEST PUSH0 PUSH2 0x1EED DUP3 PUSH0 ADD PUSH2 0x293A JUMP JUMPDEST SWAP1 POP SWAP2 SWAP1 POP JUMP JUMPDEST PUSH0 PUSH1 0x4 DUP4 DUP4 SWAP1 POP LT ISZERO PUSH2 0x1F3C JUMPI PUSH1 0x40 MLOAD PUSH32 0x8C379A000000000000000000000000000000000000000000000000000000000 DUP2 MSTORE PUSH1 0x4 ADD PUSH2 0x1F33 SWAP1 PUSH2 0x4E01 JUMP JUMPDEST PUSH1 0x40 MLOAD DUP1 SWAP2 SUB SWAP1 REVERT JUMPDEST DUP3 DUP3 PUSH0 SWAP1 PUSH1 0x4 SWAP3 PUSH2 0x1F4F SWAP4 SWAP3 SWAP2 SWAP1 PUSH2 0x4E27 JUMP JUMPDEST SWAP1 PUSH2 0x1F5A SWAP2 SWAP1 PUSH2 0x4E77 JUMP JUMPDEST SWAP1 POP SWAP3 SWAP2 POP POP JUMP JUMPDEST PUSH0 PUSH2 0x1F6F DUP4 PUSH0 ADD DUP4 PUSH2 0x2949 JUMP JUMPDEST PUSH0 SHR SWAP1 POP SWAP3 SWAP2 POP POP JUMP JUMPDEST PUSH0 DUP1 PUSH1 0x44 DUP5 DUP5 SWAP1 POP LT ISZERO PUSH2 0x1FC2 JUMPI PUSH1 0x40 MLOAD PUSH32 0x8C379A000000000000000000000000000000000000000000000000000000000 DUP2 MSTORE PUSH1 0x4 ADD PUSH2 0x1FB9 SWAP1 PUSH2 0x4E01 JUMP JUMPDEST PUSH1 0x40 MLOAD DUP1 SWAP2 SUB SWAP1 REVERT JUMPDEST DUP4 DUP4 PUSH1 0x4 SWAP1 PUSH1 0x24 SWAP3 PUSH2 0x1FD6 SWAP4 SWAP3 SWAP2 SWAP1 PUSH2 0x4E27 JUMP JUMPDEST DUP2 ADD SWAP1 PUSH2 0x1FE3 SWAP2 SWAP1 PUSH2 0x4F10 JUMP JUMPDEST SWAP2 POP DUP4 DUP4 PUSH1 0x24 SWAP1 PUSH1 0x44 SWAP3 PUSH2 0x1FF9 SWAP4 SWAP3 SWAP2 SWAP1 PUSH2 0x4E27 JUMP JUMPDEST DUP2 ADD SWAP1 PUSH2 0x2006 SWAP2 SWAP1 PUSH2 0x4F3B JUMP JUMPDEST SWAP1 POP SWAP3 POP SWAP3 SWAP1 POP JUMP JUMPDEST PUSH0 PUSH2 0x2034 DUP4 PUSH0 ADD DUP4 PUSH20 0xFFFFFFFFFFFFFFFFFFFFFFFFFFFFFFFFFFFFFFFF AND PUSH0 SHL PUSH2 0x2970 JUMP JUMPDEST SWAP1 POP SWAP3 SWAP2 POP POP JUMP JUMPDEST PUSH1 0x60 DUP1 PUSH1 0x60 PUSH1 0x64 DUP6 DUP6 SWAP1 POP LT ISZERO PUSH2 0x2088 JUMPI PUSH1 0x40 MLOAD PUSH32 0x8C379A000000000000000000000000000000000000000000000000000000000 DUP2 MSTORE PUSH1 0x4 ADD PUSH2 0x207F SWAP1 PUSH2 0x4E01 JUMP JUMPDEST PUSH1 0x40 MLOAD DUP1 SWAP2 SUB SWAP1 REVERT JUMPDEST DUP5 DUP5 PUSH1 0x4 SWAP1 DUP1 SWAP3 PUSH2 0x209B SWAP4 SWAP3 SWAP2 SWAP1 PUSH2 0x4E27 JUMP JUMPDEST DUP2 ADD SWAP1 PUSH2 0x20A8 SWAP2 SWAP1 PUSH2 0x5270 JUMP JUMPDEST DUP1 SWAP4 POP DUP2 SWAP5 POP DUP3 SWAP6 POP POP POP POP SWAP3 POP SWAP3 POP SWAP3 JUMP JUMPDEST PUSH2 0x20C3 PUSH2 0x172D JUMP JUMPDEST PUSH20 0xFFFFFFFFFFFFFFFFFFFFFFFFFFFFFFFFFFFFFFFF AND CALLER PUSH20 0xFFFFFFFFFFFFFFFFFFFFFFFFFFFFFFFFFFFFFFFF AND EQ PUSH2 0x2130 JUMPI PUSH1 0x40 MLOAD PUSH32 0x8C379A000000000000000000000000000000000000000000000000000000000 DUP2 MSTORE PUSH1 0x4 ADD PUSH2 0x2127 SWAP1 PUSH2 0x535E JUMP JUMPDEST PUSH1 0x40 MLOAD DUP1 SWAP2 SUB SWAP1 REVERT JUMPDEST JUMP JUMPDEST PUSH0 DUP1 PUSH2 0x213D DUP4 PUSH2 0x2990 JUMP JUMPDEST SWAP1 POP PUSH0 PUSH2 0x21A5 DUP6 DUP1 PUSH2 0x140 ADD SWAP1 PUSH2 0x2154 SWAP2 SWAP1 PUSH2 0x4139 JUMP JUMPDEST DUP1 DUP1 PUSH1 0x1F ADD PUSH1 0x20 DUP1 SWAP2 DIV MUL PUSH1 0x20 ADD PUSH1 0x40 MLOAD SWAP1 DUP2 ADD PUSH1 0x40 MSTORE DUP1 SWAP4 SWAP3 SWAP2 SWAP1 DUP2 DUP2 MSTORE PUSH1 0x20 ADD DUP4 DUP4 DUP1 DUP3 DUP5 CALLDATACOPY PUSH0 DUP2 DUP5 ADD MSTORE PUSH1 0x1F NOT PUSH1 0x1F DUP3 ADD AND SWAP1 POP DUP1 DUP4 ADD SWAP3 POP POP POP POP POP POP POP DUP4 PUSH2 0x29C3 SWAP1 SWAP2 SWAP1 PUSH4 0xFFFFFFFF AND JUMP JUMPDEST SWAP1 POP PUSH2 0x21B1 DUP2 DUP7 PUSH2 0x600 JUMP JUMPDEST PUSH2 0x21C0 JUMPI PUSH1 0x1 SWAP3 POP POP POP PUSH2 0x2311 JUMP JUMPDEST PUSH0 PUSH2 0x21C9 PUSH2 0x1ED3 JUMP JUMPDEST PUSH1 0x5 ADD PUSH0 DUP4 PUSH20 0xFFFFFFFFFFFFFFFFFFFFFFFFFFFFFFFFFFFFFFFF AND PUSH20 0xFFFFFFFFFFFFFFFFFFFFFFFFFFFFFFFFFFFFFFFF AND DUP2 MSTORE PUSH1 0x20 ADD SWAP1 DUP2 MSTORE PUSH1 0x20 ADD PUSH0 KECCAK256 PUSH1 0x40 MLOAD DUP1 PUSH1 0x60 ADD PUSH1 0x40 MSTORE SWAP1 DUP2 PUSH0 DUP3 ADD SLOAD DUP2 MSTORE PUSH1 0x20 ADD PUSH1 0x1 DUP3 ADD PUSH0 SWAP1 SLOAD SWAP1 PUSH2 0x100 EXP SWAP1 DIV PUSH16 0xFFFFFFFFFFFFFFFFFFFFFFFFFFFFFFFF AND PUSH16 0xFFFFFFFFFFFFFFFFFFFFFFFFFFFFFFFF AND PUSH16 0xFFFFFFFFFFFFFFFFFFFFFFFFFFFFFFFF AND DUP2 MSTORE PUSH1 0x20 ADD PUSH1 0x1 DUP3 ADD PUSH1 0x10 SWAP1 SLOAD SWAP1 PUSH2 0x100 EXP SWAP1 DIV PUSH16 0xFFFFFFFFFFFFFFFFFFFFFFFFFFFFFFFF AND PUSH16 0xFFFFFFFFFFFFFFFFFFFFFFFFFFFFFFFF AND PUSH16 0xFFFFFFFFFFFFFFFFFFFFFFFFFFFFFFFF AND DUP2 MSTORE POP POP SWAP1 POP PUSH0 DUP2 PUSH1 0x20 ADD MLOAD SWAP1 POP PUSH0 DUP3 PUSH1 0x40 ADD MLOAD SWAP1 POP PUSH2 0x2309 PUSH1 0x40 MLOAD DUP1 PUSH1 0x60 ADD PUSH1 0x40 MSTORE DUP1 PUSH0 PUSH20 0xFFFFFFFFFFFFFFFFFFFFFFFFFFFFFFFFFFFFFFFF AND DUP2 MSTORE PUSH1 0x20 ADD DUP5 PUSH6 0xFFFFFFFFFFFF AND DUP2 MSTORE PUSH1 0x20 ADD DUP4 PUSH6 0xFFFFFFFFFFFF AND DUP2 MSTORE POP PUSH2 0x29E8 JUMP JUMPDEST SWAP6 POP POP POP POP POP POP JUMPDEST SWAP3 SWAP2 POP POP JUMP JUMPDEST POP JUMP JUMPDEST PUSH0 DUP2 EQ PUSH2 0x23AE JUMPI PUSH0 CALLER PUSH20 0xFFFFFFFFFFFFFFFFFFFFFFFFFFFFFFFFFFFFFFFF AND DUP3 PUSH32 0xFFFFFFFFFFFFFFFFFFFFFFFFFFFFFFFFFFFFFFFFFFFFFFFFFFFFFFFFFFFFFFFF SWAP1 PUSH1 0x40 MLOAD PUSH2 0x2368 SWAP1 PUSH2 0x53A9 JUMP JUMPDEST PUSH0 PUSH1 0x40 MLOAD DUP1 DUP4 SUB DUP2 DUP6 DUP9 DUP9 CALL SWAP4 POP POP POP POP RETURNDATASIZE DUP1 PUSH0 DUP2 EQ PUSH2 0x23A3 JUMPI PUSH1 0x40 MLOAD SWAP2 POP PUSH1 0x1F NOT PUSH1 0x3F RETURNDATASIZE ADD AND DUP3 ADD PUSH1 0x40 MSTORE RETURNDATASIZE DUP3 MSTORE RETURNDATASIZE PUSH0 PUSH1 0x20 DUP5 ADD RETURNDATACOPY PUSH2 0x23A8 JUMP JUMPDEST PUSH1 0x60 SWAP2 POP JUMPDEST POP POP SWAP1 POP POP JUMPDEST POP JUMP JUMPDEST PUSH2 0x23BB DUP3 DUP3 PUSH2 0x2A2E JUMP JUMPDEST PUSH0 PUSH32 0x0 PUSH20 0xFFFFFFFFFFFFFFFFFFFFFFFFFFFFFFFFFFFFFFFF AND EXTCODESIZE GT ISZERO PUSH2 0x252D JUMPI DUP1 ISZERO PUSH2 0x2498 JUMPI PUSH32 0x0 PUSH20 0xFFFFFFFFFFFFFFFFFFFFFFFFFFFFFFFFFFFFFFFF AND PUSH4 0xB61E12B DUP4 PUSH2 0x2445 PUSH2 0x2832 JUMP JUMPDEST PUSH1 0x1 ADD SLOAD PUSH1 0x40 MLOAD DUP4 PUSH4 0xFFFFFFFF AND PUSH1 0xE0 SHL DUP2 MSTORE PUSH1 0x4 ADD PUSH2 0x2466 SWAP3 SWAP2 SWAP1 PUSH2 0x53CC JUMP JUMPDEST PUSH0 PUSH1 0x40 MLOAD DUP1 DUP4 SUB DUP2 PUSH0 DUP8 DUP1 EXTCODESIZE ISZERO DUP1 ISZERO PUSH2 0x247D JUMPI PUSH0 DUP1 REVERT JUMPDEST POP GAS CALL ISZERO DUP1 ISZERO PUSH2 0x248F JUMPI RETURNDATASIZE PUSH0 DUP1 RETURNDATACOPY RETURNDATASIZE PUSH0 REVERT JUMPDEST POP POP POP POP PUSH2 0x252C JUMP JUMPDEST PUSH32 0x0 PUSH20 0xFFFFFFFFFFFFFFFFFFFFFFFFFFFFFFFFFFFFFFFF AND PUSH4 0x9387A380 DUP4 PUSH2 0x24DD PUSH2 0x2832 JUMP JUMPDEST PUSH1 0x1 ADD SLOAD PUSH1 0x40 MLOAD DUP4 PUSH4 0xFFFFFFFF AND PUSH1 0xE0 SHL DUP2 MSTORE PUSH1 0x4 ADD PUSH2 0x24FE SWAP3 SWAP2 SWAP1 PUSH2 0x53CC JUMP JUMPDEST PUSH0 PUSH1 0x40 MLOAD DUP1 DUP4 SUB DUP2 PUSH0 DUP8 DUP1 EXTCODESIZE ISZERO DUP1 ISZERO PUSH2 0x2515 JUMPI PUSH0 DUP1 REVERT JUMPDEST POP GAS CALL ISZERO DUP1 ISZERO PUSH2 0x2527 JUMPI RETURNDATASIZE PUSH0 DUP1 RETURNDATACOPY RETURNDATASIZE PUSH0 REVERT JUMPDEST POP POP POP POP JUMPDEST JUMPDEST POP POP JUMP JUMPDEST PUSH0 PUSH2 0x2556 DUP4 PUSH0 ADD DUP4 PUSH20 0xFFFFFFFFFFFFFFFFFFFFFFFFFFFFFFFFFFFFFFFF AND PUSH0 SHL PUSH2 0x2B23 JUMP JUMPDEST SWAP1 POP SWAP3 SWAP2 POP POP JUMP JUMPDEST PUSH1 0x60 PUSH0 PUSH2 0x256C DUP4 PUSH0 ADD PUSH2 0x2B8A JUMP JUMPDEST SWAP1 POP PUSH1 0x60 DUP2 SWAP1 POP DUP1 SWAP3 POP POP POP SWAP2 SWAP1 POP JUMP JUMPDEST PUSH0 PUSH2 0x25A2 DUP4 PUSH0 ADD DUP4 PUSH20 0xFFFFFFFFFFFFFFFFFFFFFFFFFFFFFFFFFFFFFFFF AND PUSH0 SHL PUSH2 0x2BE3 JUMP JUMPDEST SWAP1 POP SWAP3 SWAP2 POP POP JUMP JUMPDEST PUSH0 PUSH32 0x0 PUSH20 0xFFFFFFFFFFFFFFFFFFFFFFFFFFFFFFFFFFFFFFFF AND EXTCODESIZE GT ISZERO PUSH2 0x268E JUMPI PUSH32 0x0 PUSH20 0xFFFFFFFFFFFFFFFFFFFFFFFFFFFFFFFFFFFFFFFF AND PUSH4 0xB61E12B DUP3 PUSH0 ADD PUSH1 0x20 DUP2 ADD SWAP1 PUSH2 0x2637 SWAP2 SWAP1 PUSH2 0x347A JUMP JUMPDEST PUSH2 0x263F PUSH2 0x2832 JUMP JUMPDEST PUSH1 0x1 ADD SLOAD PUSH1 0x40 MLOAD DUP4 PUSH4 0xFFFFFFFF AND PUSH1 0xE0 SHL DUP2 MSTORE PUSH1 0x4 ADD PUSH2 0x2660 SWAP3 SWAP2 SWAP1 PUSH2 0x53CC JUMP JUMPDEST PUSH0 PUSH1 0x40 MLOAD DUP1 DUP4 SUB DUP2 PUSH0 DUP8 DUP1 EXTCODESIZE ISZERO DUP1 ISZERO PUSH2 0x2677 JUMPI PUSH0 DUP1 REVERT JUMPDEST POP GAS CALL ISZERO DUP1 ISZERO PUSH2 0x2689 JUMPI RETURNDATASIZE PUSH0 DUP1 RETURNDATACOPY RETURNDATASIZE PUSH0 REVERT JUMPDEST POP POP POP POP JUMPDEST POP JUMP JUMPDEST PUSH1 0x60 PUSH32 0x3FD4A1A1A267C84185E3B7EECD57C68783C0581D538B9D6E5F23E4670497C1E9 DUP3 PUSH0 ADD PUSH1 0x20 DUP2 ADD SWAP1 PUSH2 0x26C6 SWAP2 SWAP1 PUSH2 0x347A JUMP JUMPDEST DUP4 PUSH1 0x20 ADD PUSH1 0x20 DUP2 ADD SWAP1 PUSH2 0x26D9 SWAP2 SWAP1 PUSH2 0x47E3 JUMP JUMPDEST DUP5 DUP1 PUSH1 0x40 ADD SWAP1 PUSH2 0x26E9 SWAP2 SWAP1 PUSH2 0x48D6 JUMP JUMPDEST PUSH1 0x40 MLOAD PUSH1 0x20 ADD PUSH2 0x26FA SWAP3 SWAP2 SWAP1 PUSH2 0x547E JUMP JUMPDEST PUSH1 0x40 MLOAD PUSH1 0x20 DUP2 DUP4 SUB SUB DUP2 MSTORE SWAP1 PUSH1 0x40 MSTORE DUP1 MLOAD SWAP1 PUSH1 0x20 ADD KECCAK256 DUP6 PUSH1 0x60 ADD CALLDATALOAD DUP7 PUSH1 0x80 ADD PUSH1 0x20 DUP2 ADD SWAP1 PUSH2 0x2728 SWAP2 SWAP1 PUSH2 0x46B2 JUMP JUMPDEST DUP8 PUSH1 0xA0 ADD PUSH1 0x20 DUP2 ADD SWAP1 PUSH2 0x273B SWAP2 SWAP1 PUSH2 0x46B2 JUMP JUMPDEST DUP9 PUSH1 0xC0 ADD PUSH1 0x20 DUP2 ADD SWAP1 PUSH2 0x274E SWAP2 SWAP1 PUSH2 0x46B2 JUMP JUMPDEST DUP10 PUSH1 0xE0 ADD PUSH1 0x20 DUP2 ADD SWAP1 PUSH2 0x2761 SWAP2 SWAP1 PUSH2 0x46B2 JUMP JUMPDEST DUP11 PUSH2 0x100 ADD CALLDATALOAD PUSH1 0x40 MLOAD PUSH1 0x20 ADD PUSH2 0x2780 SWAP11 SWAP10 SWAP9 SWAP8 SWAP7 SWAP6 SWAP5 SWAP4 SWAP3 SWAP2 SWAP1 PUSH2 0x54B4 JUMP JUMPDEST PUSH1 0x40 MLOAD PUSH1 0x20 DUP2 DUP4 SUB SUB DUP2 MSTORE SWAP1 PUSH1 0x40 MSTORE SWAP1 POP SWAP2 SWAP1 POP JUMP JUMPDEST PUSH0 PUSH2 0x27FC DUP4 DUP4 DUP1 DUP1 PUSH1 0x1F ADD PUSH1 0x20 DUP1 SWAP2 DIV MUL PUSH1 0x20 ADD PUSH1 0x40 MLOAD SWAP1 DUP2 ADD PUSH1 0x40 MSTORE DUP1 SWAP4 SWAP3 SWAP2 SWAP1 DUP2 DUP2 MSTORE PUSH1 0x20 ADD DUP4 DUP4 DUP1 DUP3 DUP5 CALLDATACOPY PUSH0 DUP2 DUP5 ADD MSTORE PUSH1 0x1F NOT PUSH1 0x1F DUP3 ADD AND SWAP1 POP DUP1 DUP4 ADD SWAP3 POP POP POP POP POP POP POP PUSH2 0x27EE DUP7 DUP1 MLOAD SWAP1 PUSH1 0x20 ADD KECCAK256 PUSH2 0x2CDF JUMP JUMPDEST PUSH2 0x29C3 SWAP1 SWAP2 SWAP1 PUSH4 0xFFFFFFFF AND JUMP JUMPDEST SWAP1 POP SWAP4 SWAP3 POP POP POP JUMP JUMPDEST PUSH1 0x60 PUSH2 0x282A DUP4 DUP4 PUSH1 0x40 MLOAD DUP1 PUSH1 0x60 ADD PUSH1 0x40 MSTORE DUP1 PUSH1 0x27 DUP2 MSTORE PUSH1 0x20 ADD PUSH2 0x59B2 PUSH1 0x27 SWAP2 CODECOPY PUSH2 0x2CF8 JUMP JUMPDEST SWAP1 POP SWAP3 SWAP2 POP POP JUMP JUMPDEST PUSH0 DUP1 PUSH32 0x36F52C1827DAB135F7FD44CA0BDDDE297E2F659C710E0EC53E975F22B548300 PUSH0 SHL SWAP1 POP DUP1 SWAP2 POP POP SWAP1 JUMP JUMPDEST PUSH2 0x2869 CALLER PUSH2 0xA58 JUMP JUMPDEST PUSH2 0x28A8 JUMPI PUSH1 0x40 MLOAD PUSH32 0x8C379A000000000000000000000000000000000000000000000000000000000 DUP2 MSTORE PUSH1 0x4 ADD PUSH2 0x289F SWAP1 PUSH2 0x5598 JUMP JUMPDEST PUSH1 0x40 MLOAD DUP1 SWAP2 SUB SWAP1 REVERT JUMPDEST JUMP JUMPDEST PUSH0 PUSH2 0x28B3 PUSH2 0x2DD3 JUMP JUMPDEST SWAP1 POP SWAP1 JUMP JUMPDEST PUSH0 DUP1 DUP3 PUSH20 0xFFFFFFFFFFFFFFFFFFFFFFFFFFFFFFFFFFFFFFFF AND EXTCODESIZE GT SWAP1 POP SWAP2 SWAP1 POP JUMP JUMPDEST PUSH0 DUP3 DUP3 PUSH1 0x40 MLOAD PUSH1 0x20 ADD PUSH2 0x28EE SWAP3 SWAP2 SWAP1 PUSH2 0x55FE JUMP JUMPDEST PUSH1 0x40 MLOAD PUSH1 0x20 DUP2 DUP4 SUB SUB DUP2 MSTORE SWAP1 PUSH1 0x40 MSTORE DUP1 MLOAD SWAP1 PUSH1 0x20 ADD KECCAK256 SWAP1 POP SWAP3 SWAP2 POP POP JUMP JUMPDEST PUSH0 DUP1 PUSH32 0x3181E78FC1B109BC611FD2406150BF06E33FAA75F71CBA12C3E1FD670F2DEF00 PUSH0 SHL SWAP1 POP DUP1 SWAP2 POP POP SWAP1 JUMP JUMPDEST PUSH0 DUP2 PUSH0 ADD DUP1 SLOAD SWAP1 POP SWAP1 POP SWAP2 SWAP1 POP JUMP JUMPDEST PUSH0 DUP3 PUSH0 ADD DUP3 DUP2 SLOAD DUP2 LT PUSH2 0x295F JUMPI PUSH2 0x295E PUSH2 0x419B JUMP JUMPDEST JUMPDEST SWAP1 PUSH0 MSTORE PUSH1 0x20 PUSH0 KECCAK256 ADD SLOAD SWAP1 POP SWAP3 SWAP2 POP POP JUMP JUMPDEST PUSH0 DUP1 DUP4 PUSH1 0x1 ADD PUSH0 DUP5 DUP2 MSTORE PUSH1 0x20 ADD SWAP1 DUP2 MSTORE PUSH1 0x20 ADD PUSH0 KECCAK256 SLOAD EQ ISZERO SWAP1 POP SWAP3 SWAP2 POP POP JUMP JUMPDEST PUSH0 PUSH32 0x19457468657265756D205369676E6564204D6573736167653A0A333200000000 PUSH0 MSTORE DUP2 PUSH1 0x1C MSTORE PUSH1 0x3C PUSH0 KECCAK256 SWAP1 POP SWAP2 SWAP1 POP JUMP JUMPDEST PUSH0 DUP1 PUSH0 PUSH2 0x29D0 DUP6 DUP6 PUSH2 0x2E01 JUMP JUMPDEST SWAP2 POP SWAP2 POP PUSH2 0x29DD DUP2 PUSH2 0x2E4D JUMP JUMPDEST DUP2 SWAP3 POP POP POP SWAP3 SWAP2 POP POP JUMP JUMPDEST PUSH0 PUSH1 0xD0 DUP3 PUSH1 0x20 ADD MLOAD PUSH6 0xFFFFFFFFFFFF AND SWAP1 SHL PUSH1 0xA0 DUP4 PUSH1 0x40 ADD MLOAD PUSH6 0xFFFFFFFFFFFF AND SWAP1 SHL DUP4 PUSH0 ADD MLOAD PUSH20 0xFFFFFFFFFFFFFFFFFFFFFFFFFFFFFFFFFFFFFFFF AND OR OR SWAP1 POP SWAP2 SWAP1 POP JUMP JUMPDEST DUP1 PUSH2 0x2A37 PUSH2 0x1ED3 JUMP JUMPDEST PUSH1 0x4 ADD PUSH0 DUP5 PUSH20 0xFFFFFFFFFFFFFFFFFFFFFFFFFFFFFFFFFFFFFFFF AND PUSH20 0xFFFFFFFFFFFFFFFFFFFFFFFFFFFFFFFFFFFFFFFF AND DUP2 MSTORE PUSH1 0x20 ADD SWAP1 DUP2 MSTORE PUSH1 0x20 ADD PUSH0 KECCAK256 PUSH0 PUSH2 0x100 EXP DUP2 SLOAD DUP2 PUSH1 0xFF MUL NOT AND SWAP1 DUP4 ISZERO ISZERO MUL OR SWAP1 SSTORE POP DUP1 ISZERO PUSH2 0x2AB3 JUMPI PUSH2 0x2AAD DUP3 PUSH2 0x2A9D PUSH2 0x1ED3 JUMP JUMPDEST PUSH0 ADD PUSH2 0x2531 SWAP1 SWAP2 SWAP1 PUSH4 0xFFFFFFFF AND JUMP JUMPDEST POP PUSH2 0x2AD1 JUMP JUMPDEST PUSH2 0x2ACF DUP3 PUSH2 0x2ABF PUSH2 0x1ED3 JUMP JUMPDEST PUSH0 ADD PUSH2 0x257D SWAP1 SWAP2 SWAP1 PUSH4 0xFFFFFFFF AND JUMP JUMPDEST POP JUMPDEST DUP2 PUSH20 0xFFFFFFFFFFFFFFFFFFFFFFFFFFFFFFFFFFFFFFFF AND PUSH32 0x235BC17E7930760029E9F4D860A2A8089976DE5B381CF8380FC11C1D88A11133 DUP3 PUSH1 0x40 MLOAD PUSH2 0x2B17 SWAP2 SWAP1 PUSH2 0x3461 JUMP JUMPDEST PUSH1 0x40 MLOAD DUP1 SWAP2 SUB SWAP1 LOG2 POP POP JUMP JUMPDEST PUSH0 PUSH2 0x2B2E DUP4 DUP4 PUSH2 0x2970 JUMP JUMPDEST PUSH2 0x2B80 JUMPI DUP3 PUSH0 ADD DUP3 SWAP1 DUP1 PUSH1 0x1 DUP2 SLOAD ADD DUP1 DUP3 SSTORE DUP1 SWAP2 POP POP PUSH1 0x1 SWAP1 SUB SWAP1 PUSH0 MSTORE PUSH1 0x20 PUSH0 KECCAK256 ADD PUSH0 SWAP1 SWAP2 SWAP1 SWAP2 SWAP1 SWAP2 POP SSTORE DUP3 PUSH0 ADD DUP1 SLOAD SWAP1 POP DUP4 PUSH1 0x1 ADD PUSH0 DUP5 DUP2 MSTORE PUSH1 0x20 ADD SWAP1 DUP2 MSTORE PUSH1 0x20 ADD PUSH0 KECCAK256 DUP2 SWAP1 SSTORE POP PUSH1 0x1 SWAP1 POP PUSH2 0x2B84 JUMP JUMPDEST PUSH0 SWAP1 POP JUMPDEST SWAP3 SWAP2 POP POP JUMP JUMPDEST PUSH1 0x60 DUP2 PUSH0 ADD DUP1 SLOAD DUP1 PUSH1 0x20 MUL PUSH1 0x20 ADD PUSH1 0x40 MLOAD SWAP1 DUP2 ADD PUSH1 0x40 MSTORE DUP1 SWAP3 SWAP2 SWAP1 DUP2 DUP2 MSTORE PUSH1 0x20 ADD DUP3 DUP1 SLOAD DUP1 ISZERO PUSH2 0x2BD7 JUMPI PUSH1 0x20 MUL DUP3 ADD SWAP2 SWAP1 PUSH0 MSTORE PUSH1 0x20 PUSH0 KECCAK256 SWAP1 JUMPDEST DUP2 SLOAD DUP2 MSTORE PUSH1 0x20 ADD SWAP1 PUSH1 0x1 ADD SWAP1 DUP1 DUP4 GT PUSH2 0x2BC3 JUMPI JUMPDEST POP POP POP POP POP SWAP1 POP SWAP2 SWAP1 POP JUMP JUMPDEST PUSH0 DUP1 DUP4 PUSH1 0x1 ADD PUSH0 DUP5 DUP2 MSTORE PUSH1 0x20 ADD SWAP1 DUP2 MSTORE PUSH1 0x20 ADD PUSH0 KECCAK256 SLOAD SWAP1 POP PUSH0 DUP2 EQ PUSH2 0x2CD4 JUMPI PUSH0 PUSH1 0x1 DUP3 PUSH2 0x2C10 SWAP2 SWAP1 PUSH2 0x562C JUMP JUMPDEST SWAP1 POP PUSH0 PUSH1 0x1 DUP7 PUSH0 ADD DUP1 SLOAD SWAP1 POP PUSH2 0x2C26 SWAP2 SWAP1 PUSH2 0x562C JUMP JUMPDEST SWAP1 POP DUP2 DUP2 EQ PUSH2 0x2C8C JUMPI PUSH0 DUP7 PUSH0 ADD DUP3 DUP2 SLOAD DUP2 LT PUSH2 0x2C45 JUMPI PUSH2 0x2C44 PUSH2 0x419B JUMP JUMPDEST JUMPDEST SWAP1 PUSH0 MSTORE PUSH1 0x20 PUSH0 KECCAK256 ADD SLOAD SWAP1 POP DUP1 DUP8 PUSH0 ADD DUP5 DUP2 SLOAD DUP2 LT PUSH2 0x2C66 JUMPI PUSH2 0x2C65 PUSH2 0x419B JUMP JUMPDEST JUMPDEST SWAP1 PUSH0 MSTORE PUSH1 0x20 PUSH0 KECCAK256 ADD DUP2 SWAP1 SSTORE POP DUP4 DUP8 PUSH1 0x1 ADD PUSH0 DUP4 DUP2 MSTORE PUSH1 0x20 ADD SWAP1 DUP2 MSTORE PUSH1 0x20 ADD PUSH0 KECCAK256 DUP2 SWAP1 SSTORE POP POP JUMPDEST DUP6 PUSH0 ADD DUP1 SLOAD DUP1 PUSH2 0x2C9F JUMPI PUSH2 0x2C9E PUSH2 0x565F JUMP JUMPDEST JUMPDEST PUSH1 0x1 SWAP1 SUB DUP2 DUP2 SWAP1 PUSH0 MSTORE PUSH1 0x20 PUSH0 KECCAK256 ADD PUSH0 SWAP1 SSTORE SWAP1 SSTORE DUP6 PUSH1 0x1 ADD PUSH0 DUP7 DUP2 MSTORE PUSH1 0x20 ADD SWAP1 DUP2 MSTORE PUSH1 0x20 ADD PUSH0 KECCAK256 PUSH0 SWAP1 SSTORE PUSH1 0x1 SWAP4 POP POP POP POP PUSH2 0x2CD9 JUMP JUMPDEST PUSH0 SWAP2 POP POP JUMPDEST SWAP3 SWAP2 POP POP JUMP JUMPDEST PUSH0 PUSH2 0x2CF1 PUSH2 0x2CEB PUSH2 0x2FB2 JUMP JUMPDEST DUP4 PUSH2 0x30CB JUMP JUMPDEST SWAP1 POP SWAP2 SWAP1 POP JUMP JUMPDEST PUSH1 0x60 PUSH2 0x2D03 DUP5 PUSH2 0x28B8 JUMP JUMPDEST DUP1 ISZERO PUSH2 0x2D15 JUMPI POP PUSH2 0x2D13 CALLER PUSH2 0x28B8 JUMP JUMPDEST ISZERO JUMPDEST PUSH2 0x2D54 JUMPI PUSH1 0x40 MLOAD PUSH32 0x8C379A000000000000000000000000000000000000000000000000000000000 DUP2 MSTORE PUSH1 0x4 ADD PUSH2 0x2D4B SWAP1 PUSH2 0x56D6 JUMP JUMPDEST PUSH1 0x40 MLOAD DUP1 SWAP2 SUB SWAP1 REVERT JUMPDEST PUSH0 DUP1 DUP6 PUSH20 0xFFFFFFFFFFFFFFFFFFFFFFFFFFFFFFFFFFFFFFFF AND DUP6 PUSH1 0x40 MLOAD PUSH2 0x2D7B SWAP2 SWAP1 PUSH2 0x5724 JUMP JUMPDEST PUSH0 PUSH1 0x40 MLOAD DUP1 DUP4 SUB DUP2 DUP6 GAS DELEGATECALL SWAP2 POP POP RETURNDATASIZE DUP1 PUSH0 DUP2 EQ PUSH2 0x2DB3 JUMPI PUSH1 0x40 MLOAD SWAP2 POP PUSH1 0x1F NOT PUSH1 0x3F RETURNDATASIZE ADD AND DUP3 ADD PUSH1 0x40 MSTORE RETURNDATASIZE DUP3 MSTORE RETURNDATASIZE PUSH0 PUSH1 0x20 DUP5 ADD RETURNDATACOPY PUSH2 0x2DB8 JUMP JUMPDEST PUSH1 0x60 SWAP2 POP JUMPDEST POP SWAP2 POP SWAP2 POP PUSH2 0x2DC8 DUP3 DUP3 DUP7 PUSH2 0x310B JUMP JUMPDEST SWAP3 POP POP POP SWAP4 SWAP3 POP POP POP JUMP JUMPDEST PUSH0 DUP1 PUSH32 0x322CF19C484104D3B1A9C2982EBAE869EDE3FA5F6C4703CA41B9A48C76EE0300 PUSH0 SHL SWAP1 POP DUP1 SWAP2 POP POP SWAP1 JUMP JUMPDEST PUSH0 DUP1 PUSH1 0x41 DUP4 MLOAD SUB PUSH2 0x2E3E JUMPI PUSH0 DUP1 PUSH0 PUSH1 0x20 DUP7 ADD MLOAD SWAP3 POP PUSH1 0x40 DUP7 ADD MLOAD SWAP2 POP PUSH1 0x60 DUP7 ADD MLOAD PUSH0 BYTE SWAP1 POP PUSH2 0x2E32 DUP8 DUP3 DUP6 DUP6 PUSH2 0x3171 JUMP JUMPDEST SWAP5 POP SWAP5 POP POP POP POP PUSH2 0x2E46 JUMP JUMPDEST PUSH0 PUSH1 0x2 SWAP2 POP SWAP2 POP JUMPDEST SWAP3 POP SWAP3 SWAP1 POP JUMP JUMPDEST PUSH0 PUSH1 0x4 DUP2 GT ISZERO PUSH2 0x2E60 JUMPI PUSH2 0x2E5F PUSH2 0x573A JUMP JUMPDEST JUMPDEST DUP2 PUSH1 0x4 DUP2 GT ISZERO PUSH2 0x2E73 JUMPI PUSH2 0x2E72 PUSH2 0x573A JUMP JUMPDEST JUMPDEST SUB ISZERO PUSH2 0x2FAF JUMPI PUSH1 0x1 PUSH1 0x4 DUP2 GT ISZERO PUSH2 0x2E8D JUMPI PUSH2 0x2E8C PUSH2 0x573A JUMP JUMPDEST JUMPDEST DUP2 PUSH1 0x4 DUP2 GT ISZERO PUSH2 0x2EA0 JUMPI PUSH2 0x2E9F PUSH2 0x573A JUMP JUMPDEST JUMPDEST SUB PUSH2 0x2EE0 JUMPI PUSH1 0x40 MLOAD PUSH32 0x8C379A000000000000000000000000000000000000000000000000000000000 DUP2 MSTORE PUSH1 0x4 ADD PUSH2 0x2ED7 SWAP1 PUSH2 0x57B1 JUMP JUMPDEST PUSH1 0x40 MLOAD DUP1 SWAP2 SUB SWAP1 REVERT JUMPDEST PUSH1 0x2 PUSH1 0x4 DUP2 GT ISZERO PUSH2 0x2EF4 JUMPI PUSH2 0x2EF3 PUSH2 0x573A JUMP JUMPDEST JUMPDEST DUP2 PUSH1 0x4 DUP2 GT ISZERO PUSH2 0x2F07 JUMPI PUSH2 0x2F06 PUSH2 0x573A JUMP JUMPDEST JUMPDEST SUB PUSH2 0x2F47 JUMPI PUSH1 0x40 MLOAD PUSH32 0x8C379A000000000000000000000000000000000000000000000000000000000 DUP2 MSTORE PUSH1 0x4 ADD PUSH2 0x2F3E SWAP1 PUSH2 0x5819 JUMP JUMPDEST PUSH1 0x40 MLOAD DUP1 SWAP2 SUB SWAP1 REVERT JUMPDEST PUSH1 0x3 PUSH1 0x4 DUP2 GT ISZERO PUSH2 0x2F5B JUMPI PUSH2 0x2F5A PUSH2 0x573A JUMP JUMPDEST JUMPDEST DUP2 PUSH1 0x4 DUP2 GT ISZERO PUSH2 0x2F6E JUMPI PUSH2 0x2F6D PUSH2 0x573A JUMP JUMPDEST JUMPDEST SUB PUSH2 0x2FAE JUMPI PUSH1 0x40 MLOAD PUSH32 0x8C379A000000000000000000000000000000000000000000000000000000000 DUP2 MSTORE PUSH1 0x4 ADD PUSH2 0x2FA5 SWAP1 PUSH2 0x58A7 JUMP JUMPDEST PUSH1 0x40 MLOAD DUP1 SWAP2 SUB SWAP1 REVERT JUMPDEST JUMPDEST POP JUMP JUMPDEST PUSH0 PUSH32 0x0 PUSH20 0xFFFFFFFFFFFFFFFFFFFFFFFFFFFFFFFFFFFFFFFF AND ADDRESS PUSH20 0xFFFFFFFFFFFFFFFFFFFFFFFFFFFFFFFFFFFFFFFF AND EQ DUP1 ISZERO PUSH2 0x302D JUMPI POP PUSH32 0x0 CHAINID EQ JUMPDEST ISZERO PUSH2 0x305A JUMPI PUSH32 0x0 SWAP1 POP PUSH2 0x30C8 JUMP JUMPDEST PUSH2 0x30C5 PUSH32 0x0 PUSH32 0x0 PUSH32 0x0 PUSH2 0x3249 JUMP JUMPDEST SWAP1 POP JUMPDEST SWAP1 JUMP JUMPDEST PUSH0 PUSH1 0x40 MLOAD PUSH32 0x1901000000000000000000000000000000000000000000000000000000000000 DUP2 MSTORE DUP4 PUSH1 0x2 DUP3 ADD MSTORE DUP3 PUSH1 0x22 DUP3 ADD MSTORE PUSH1 0x42 DUP2 KECCAK256 SWAP2 POP POP SWAP3 SWAP2 POP POP JUMP JUMPDEST PUSH1 0x60 DUP4 ISZERO PUSH2 0x311B JUMPI DUP3 SWAP1 POP PUSH2 0x316A JUMP JUMPDEST PUSH0 DUP4 MLOAD GT ISZERO PUSH2 0x312D JUMPI DUP3 MLOAD DUP1 DUP5 PUSH1 0x20 ADD REVERT JUMPDEST DUP2 PUSH1 0x40 MLOAD PUSH32 0x8C379A000000000000000000000000000000000000000000000000000000000 DUP2 MSTORE PUSH1 0x4 ADD PUSH2 0x3161 SWAP2 SWAP1 PUSH2 0x58FD JUMP JUMPDEST PUSH1 0x40 MLOAD DUP1 SWAP2 SUB SWAP1 REVERT JUMPDEST SWAP4 SWAP3 POP POP POP JUMP JUMPDEST PUSH0 DUP1 PUSH32 0x7FFFFFFFFFFFFFFFFFFFFFFFFFFFFFFF5D576E7357A4501DDFE92F46681B20A0 DUP4 PUSH0 SHR GT ISZERO PUSH2 0x31A9 JUMPI PUSH0 PUSH1 0x3 SWAP2 POP SWAP2 POP PUSH2 0x3240 JUMP JUMPDEST PUSH0 PUSH1 0x1 DUP8 DUP8 DUP8 DUP8 PUSH1 0x40 MLOAD PUSH0 DUP2 MSTORE PUSH1 0x20 ADD PUSH1 0x40 MSTORE PUSH1 0x40 MLOAD PUSH2 0x31CC SWAP5 SWAP4 SWAP3 SWAP2 SWAP1 PUSH2 0x591D JUMP JUMPDEST PUSH1 0x20 PUSH1 0x40 MLOAD PUSH1 0x20 DUP2 SUB SWAP1 DUP1 DUP5 SUB SWAP1 DUP6 GAS STATICCALL ISZERO DUP1 ISZERO PUSH2 0x31EC JUMPI RETURNDATASIZE PUSH0 DUP1 RETURNDATACOPY RETURNDATASIZE PUSH0 REVERT JUMPDEST POP POP POP PUSH1 0x20 PUSH1 0x40 MLOAD SUB MLOAD SWAP1 POP PUSH0 PUSH20 0xFFFFFFFFFFFFFFFFFFFFFFFFFFFFFFFFFFFFFFFF AND DUP2 PUSH20 0xFFFFFFFFFFFFFFFFFFFFFFFFFFFFFFFFFFFFFFFF AND SUB PUSH2 0x3238 JUMPI PUSH0 PUSH1 0x1 SWAP3 POP SWAP3 POP POP PUSH2 0x3240 JUMP JUMPDEST DUP1 PUSH0 SWAP3 POP SWAP3 POP POP JUMPDEST SWAP5 POP SWAP5 SWAP3 POP POP POP JUMP JUMPDEST PUSH0 DUP4 DUP4 DUP4 CHAINID ADDRESS PUSH1 0x40 MLOAD PUSH1 0x20 ADD PUSH2 0x3263 SWAP6 SWAP5 SWAP4 SWAP3 SWAP2 SWAP1 PUSH2 0x5960 JUMP JUMPDEST PUSH1 0x40 MLOAD PUSH1 0x20 DUP2 DUP4 SUB SUB DUP2 MSTORE SWAP1 PUSH1 0x40 MSTORE DUP1 MLOAD SWAP1 PUSH1 0x20 ADD KECCAK256 SWAP1 POP SWAP4 SWAP3 POP POP POP JUMP JUMPDEST PUSH1 0x40 MLOAD DUP1 PUSH1 0xA0 ADD PUSH1 0x40 MSTORE DUP1 PUSH0 PUSH20 0xFFFFFFFFFFFFFFFFFFFFFFFFFFFFFFFFFFFFFFFF AND DUP2 MSTORE PUSH1 0x20 ADD PUSH1 0x60 DUP2 MSTORE PUSH1 0x20 ADD PUSH0 DUP2 MSTORE PUSH1 0x20 ADD PUSH0 PUSH16 0xFFFFFFFFFFFFFFFFFFFFFFFFFFFFFFFF AND DUP2 MSTORE PUSH1 0x20 ADD PUSH0 PUSH16 0xFFFFFFFFFFFFFFFFFFFFFFFFFFFFFFFF AND DUP2 MSTORE POP SWAP1 JUMP JUMPDEST PUSH0 DUP3 DUP3 MSTORE PUSH1 0x20 DUP3 ADD SWAP1 POP SWAP3 SWAP2 POP POP JUMP JUMPDEST PUSH32 0x526F757465723A2066756E6374696F6E20646F6573206E6F742065786973742E PUSH0 DUP3 ADD MSTORE POP JUMP JUMPDEST PUSH0 PUSH2 0x332B PUSH1 0x20 DUP4 PUSH2 0x32E7 JUMP JUMPDEST SWAP2 POP PUSH2 0x3336 DUP3 PUSH2 0x32F7 JUMP JUMPDEST PUSH1 0x20 DUP3 ADD SWAP1 POP SWAP2 SWAP1 POP JUMP JUMPDEST PUSH0 PUSH1 0x20 DUP3 ADD SWAP1 POP DUP2 DUP2 SUB PUSH0 DUP4 ADD MSTORE PUSH2 0x3358 DUP2 PUSH2 0x331F JUMP JUMPDEST SWAP1 POP SWAP2 SWAP1 POP JUMP JUMPDEST PUSH0 PUSH1 0x40 MLOAD SWAP1 POP SWAP1 JUMP JUMPDEST PUSH0 DUP1 REVERT JUMPDEST PUSH0 DUP1 REVERT JUMPDEST PUSH0 PUSH20 0xFFFFFFFFFFFFFFFFFFFFFFFFFFFFFFFFFFFFFFFF DUP3 AND SWAP1 POP SWAP2 SWAP1 POP JUMP JUMPDEST PUSH0 PUSH2 0x3399 DUP3 PUSH2 0x3370 JUMP JUMPDEST SWAP1 POP SWAP2 SWAP1 POP JUMP JUMPDEST PUSH2 0x33A9 DUP2 PUSH2 0x338F JUMP JUMPDEST DUP2 EQ PUSH2 0x33B3 JUMPI PUSH0 DUP1 REVERT JUMPDEST POP JUMP JUMPDEST PUSH0 DUP2 CALLDATALOAD SWAP1 POP PUSH2 0x33C4 DUP2 PUSH2 0x33A0 JUMP JUMPDEST SWAP3 SWAP2 POP POP JUMP JUMPDEST PUSH0 DUP1 REVERT JUMPDEST PUSH0 PUSH2 0x160 DUP3 DUP5 SUB SLT ISZERO PUSH2 0x33E4 JUMPI PUSH2 0x33E3 PUSH2 0x33CA JUMP JUMPDEST JUMPDEST DUP2 SWAP1 POP SWAP3 SWAP2 POP POP JUMP JUMPDEST PUSH0 DUP1 PUSH1 0x40 DUP4 DUP6 SUB SLT ISZERO PUSH2 0x3403 JUMPI PUSH2 0x3402 PUSH2 0x3368 JUMP JUMPDEST JUMPDEST PUSH0 PUSH2 0x3410 DUP6 DUP3 DUP7 ADD PUSH2 0x33B6 JUMP JUMPDEST SWAP3 POP POP PUSH1 0x20 DUP4 ADD CALLDATALOAD PUSH8 0xFFFFFFFFFFFFFFFF DUP2 GT ISZERO PUSH2 0x3431 JUMPI PUSH2 0x3430 PUSH2 0x336C JUMP JUMPDEST JUMPDEST PUSH2 0x343D DUP6 DUP3 DUP7 ADD PUSH2 0x33CE JUMP JUMPDEST SWAP2 POP POP SWAP3 POP SWAP3 SWAP1 POP JUMP JUMPDEST PUSH0 DUP2 ISZERO ISZERO SWAP1 POP SWAP2 SWAP1 POP JUMP JUMPDEST PUSH2 0x345B DUP2 PUSH2 0x3447 JUMP JUMPDEST DUP3 MSTORE POP POP JUMP JUMPDEST PUSH0 PUSH1 0x20 DUP3 ADD SWAP1 POP PUSH2 0x3474 PUSH0 DUP4 ADD DUP5 PUSH2 0x3452 JUMP JUMPDEST SWAP3 SWAP2 POP POP JUMP JUMPDEST PUSH0 PUSH1 0x20 DUP3 DUP5 SUB SLT ISZERO PUSH2 0x348F JUMPI PUSH2 0x348E PUSH2 0x3368 JUMP JUMPDEST JUMPDEST PUSH0 PUSH2 0x349C DUP5 DUP3 DUP6 ADD PUSH2 0x33B6 JUMP JUMPDEST SWAP2 POP POP SWAP3 SWAP2 POP POP JUMP JUMPDEST PUSH0 DUP2 SWAP1 POP SWAP2 SWAP1 POP JUMP JUMPDEST PUSH2 0x34B7 DUP2 PUSH2 0x34A5 JUMP JUMPDEST DUP2 EQ PUSH2 0x34C1 JUMPI PUSH0 DUP1 REVERT JUMPDEST POP JUMP JUMPDEST PUSH0 DUP2 CALLDATALOAD SWAP1 POP PUSH2 0x34D2 DUP2 PUSH2 0x34AE JUMP JUMPDEST SWAP3 SWAP2 POP POP JUMP JUMPDEST PUSH0 DUP2 SWAP1 POP SWAP2 SWAP1 POP JUMP JUMPDEST PUSH2 0x34EA DUP2 PUSH2 0x34D8 JUMP JUMPDEST DUP2 EQ PUSH2 0x34F4 JUMPI PUSH0 DUP1 REVERT JUMPDEST POP JUMP JUMPDEST PUSH0 DUP2 CALLDATALOAD SWAP1 POP PUSH2 0x3505 DUP2 PUSH2 0x34E1 JUMP JUMPDEST SWAP3 SWAP2 POP POP JUMP JUMPDEST PUSH0 DUP1 PUSH0 PUSH1 0x60 DUP5 DUP7 SUB SLT ISZERO PUSH2 0x3522 JUMPI PUSH2 0x3521 PUSH2 0x3368 JUMP JUMPDEST JUMPDEST PUSH0 DUP5 ADD CALLDATALOAD PUSH8 0xFFFFFFFFFFFFFFFF DUP2 GT ISZERO PUSH2 0x353F JUMPI PUSH2 0x353E PUSH2 0x336C JUMP JUMPDEST JUMPDEST PUSH2 0x354B DUP7 DUP3 DUP8 ADD PUSH2 0x33CE JUMP JUMPDEST SWAP4 POP POP PUSH1 0x20 PUSH2 0x355C DUP7 DUP3 DUP8 ADD PUSH2 0x34C4 JUMP JUMPDEST SWAP3 POP POP PUSH1 0x40 PUSH2 0x356D DUP7 DUP3 DUP8 ADD PUSH2 0x34F7 JUMP JUMPDEST SWAP2 POP POP SWAP3 POP SWAP3 POP SWAP3 JUMP JUMPDEST PUSH2 0x3580 DUP2 PUSH2 0x34D8 JUMP JUMPDEST DUP3 MSTORE POP POP JUMP JUMPDEST PUSH0 PUSH1 0x20 DUP3 ADD SWAP1 POP PUSH2 0x3599 PUSH0 DUP4 ADD DUP5 PUSH2 0x3577 JUMP JUMPDEST SWAP3 SWAP2 POP POP JUMP JUMPDEST PUSH0 DUP2 MLOAD SWAP1 POP SWAP2 SWAP1 POP JUMP JUMPDEST PUSH0 DUP3 DUP3 MSTORE PUSH1 0x20 DUP3 ADD SWAP1 POP SWAP3 SWAP2 POP POP JUMP JUMPDEST PUSH0 DUP2 SWAP1 POP PUSH1 0x20 DUP3 ADD SWAP1 POP SWAP2 SWAP1 POP JUMP JUMPDEST PUSH0 DUP2 MLOAD SWAP1 POP SWAP2 SWAP1 POP JUMP JUMPDEST PUSH0 DUP3 DUP3 MSTORE PUSH1 0x20 DUP3 ADD SWAP1 POP SWAP3 SWAP2 POP POP JUMP JUMPDEST PUSH0 JUMPDEST DUP4 DUP2 LT ISZERO PUSH2 0x35FF JUMPI DUP1 DUP3 ADD MLOAD DUP2 DUP5 ADD MSTORE PUSH1 0x20 DUP2 ADD SWAP1 POP PUSH2 0x35E4 JUMP JUMPDEST PUSH0 DUP5 DUP5 ADD MSTORE POP POP POP POP JUMP JUMPDEST PUSH0 PUSH1 0x1F NOT PUSH1 0x1F DUP4 ADD AND SWAP1 POP SWAP2 SWAP1 POP JUMP JUMPDEST PUSH0 PUSH2 0x3624 DUP3 PUSH2 0x35C8 JUMP JUMPDEST PUSH2 0x362E DUP2 DUP6 PUSH2 0x35D2 JUMP JUMPDEST SWAP4 POP PUSH2 0x363E DUP2 DUP6 PUSH1 0x20 DUP7 ADD PUSH2 0x35E2 JUMP JUMPDEST PUSH2 0x3647 DUP2 PUSH2 0x360A JUMP JUMPDEST DUP5 ADD SWAP2 POP POP SWAP3 SWAP2 POP POP JUMP JUMPDEST PUSH2 0x365B DUP2 PUSH2 0x338F JUMP JUMPDEST DUP3 MSTORE POP POP JUMP JUMPDEST PUSH0 PUSH1 0x60 DUP4 ADD PUSH0 DUP4 ADD MLOAD DUP5 DUP3 SUB PUSH0 DUP7 ADD MSTORE PUSH2 0x367B DUP3 DUP3 PUSH2 0x361A JUMP JUMPDEST SWAP2 POP POP PUSH1 0x20 DUP4 ADD MLOAD DUP5 DUP3 SUB PUSH1 0x20 DUP7 ADD MSTORE PUSH2 0x3695 DUP3 DUP3 PUSH2 0x361A JUMP JUMPDEST SWAP2 POP POP PUSH1 0x40 DUP4 ADD MLOAD PUSH2 0x36AA PUSH1 0x40 DUP7 ADD DUP3 PUSH2 0x3652 JUMP JUMPDEST POP DUP1 SWAP2 POP POP SWAP3 SWAP2 POP POP JUMP JUMPDEST PUSH0 DUP2 MLOAD SWAP1 POP SWAP2 SWAP1 POP JUMP JUMPDEST PUSH0 DUP3 DUP3 MSTORE PUSH1 0x20 DUP3 ADD SWAP1 POP SWAP3 SWAP2 POP POP JUMP JUMPDEST PUSH0 DUP2 SWAP1 POP PUSH1 0x20 DUP3 ADD SWAP1 POP SWAP2 SWAP1 POP JUMP JUMPDEST PUSH0 PUSH32 0xFFFFFFFF00000000000000000000000000000000000000000000000000000000 DUP3 AND SWAP1 POP SWAP2 SWAP1 POP JUMP JUMPDEST PUSH2 0x3712 DUP2 PUSH2 0x36DE JUMP JUMPDEST DUP3 MSTORE POP POP JUMP JUMPDEST PUSH0 PUSH1 0x40 DUP4 ADD PUSH0 DUP4 ADD MLOAD PUSH2 0x372D PUSH0 DUP7 ADD DUP3 PUSH2 0x3709 JUMP JUMPDEST POP PUSH1 0x20 DUP4 ADD MLOAD DUP5 DUP3 SUB PUSH1 0x20 DUP7 ADD MSTORE PUSH2 0x3745 DUP3 DUP3 PUSH2 0x361A JUMP JUMPDEST SWAP2 POP POP DUP1 SWAP2 POP POP SWAP3 SWAP2 POP POP JUMP JUMPDEST PUSH0 PUSH2 0x375D DUP4 DUP4 PUSH2 0x3718 JUMP JUMPDEST SWAP1 POP SWAP3 SWAP2 POP POP JUMP JUMPDEST PUSH0 PUSH1 0x20 DUP3 ADD SWAP1 POP SWAP2 SWAP1 POP JUMP JUMPDEST PUSH0 PUSH2 0x377B DUP3 PUSH2 0x36B5 JUMP JUMPDEST PUSH2 0x3785 DUP2 DUP6 PUSH2 0x36BF JUMP JUMPDEST SWAP4 POP DUP4 PUSH1 0x20 DUP3 MUL DUP6 ADD PUSH2 0x3797 DUP6 PUSH2 0x36CF JUMP JUMPDEST DUP1 PUSH0 JUMPDEST DUP6 DUP2 LT ISZERO PUSH2 0x37D2 JUMPI DUP5 DUP5 SUB DUP10 MSTORE DUP2 MLOAD PUSH2 0x37B3 DUP6 DUP3 PUSH2 0x3752 JUMP JUMPDEST SWAP5 POP PUSH2 0x37BE DUP4 PUSH2 0x3765 JUMP JUMPDEST SWAP3 POP PUSH1 0x20 DUP11 ADD SWAP10 POP POP PUSH1 0x1 DUP2 ADD SWAP1 POP PUSH2 0x379A JUMP JUMPDEST POP DUP3 SWAP8 POP DUP8 SWAP6 POP POP POP POP POP POP SWAP3 SWAP2 POP POP JUMP JUMPDEST PUSH0 PUSH1 0x40 DUP4 ADD PUSH0 DUP4 ADD MLOAD DUP5 DUP3 SUB PUSH0 DUP7 ADD MSTORE PUSH2 0x37FE DUP3 DUP3 PUSH2 0x3661 JUMP JUMPDEST SWAP2 POP POP PUSH1 0x20 DUP4 ADD MLOAD DUP5 DUP3 SUB PUSH1 0x20 DUP7 ADD MSTORE PUSH2 0x3818 DUP3 DUP3 PUSH2 0x3771 JUMP JUMPDEST SWAP2 POP POP DUP1 SWAP2 POP POP SWAP3 SWAP2 POP POP JUMP JUMPDEST PUSH0 PUSH2 0x3830 DUP4 DUP4 PUSH2 0x37E4 JUMP JUMPDEST SWAP1 POP SWAP3 SWAP2 POP POP JUMP JUMPDEST PUSH0 PUSH1 0x20 DUP3 ADD SWAP1 POP SWAP2 SWAP1 POP JUMP JUMPDEST PUSH0 PUSH2 0x384E DUP3 PUSH2 0x359F JUMP JUMPDEST PUSH2 0x3858 DUP2 DUP6 PUSH2 0x35A9 JUMP JUMPDEST SWAP4 POP DUP4 PUSH1 0x20 DUP3 MUL DUP6 ADD PUSH2 0x386A DUP6 PUSH2 0x35B9 JUMP JUMPDEST DUP1 PUSH0 JUMPDEST DUP6 DUP2 LT ISZERO PUSH2 0x38A5 JUMPI DUP5 DUP5 SUB DUP10 MSTORE DUP2 MLOAD PUSH2 0x3886 DUP6 DUP3 PUSH2 0x3825 JUMP JUMPDEST SWAP5 POP PUSH2 0x3891 DUP4 PUSH2 0x3838 JUMP JUMPDEST SWAP3 POP PUSH1 0x20 DUP11 ADD SWAP10 POP POP PUSH1 0x1 DUP2 ADD SWAP1 POP PUSH2 0x386D JUMP JUMPDEST POP DUP3 SWAP8 POP DUP8 SWAP6 POP POP POP POP POP POP SWAP3 SWAP2 POP POP JUMP JUMPDEST PUSH0 PUSH1 0x20 DUP3 ADD SWAP1 POP DUP2 DUP2 SUB PUSH0 DUP4 ADD MSTORE PUSH2 0x38CF DUP2 DUP5 PUSH2 0x3844 JUMP JUMPDEST SWAP1 POP SWAP3 SWAP2 POP POP JUMP JUMPDEST PUSH0 PUSH2 0x120 DUP3 DUP5 SUB SLT ISZERO PUSH2 0x38ED JUMPI PUSH2 0x38EC PUSH2 0x33CA JUMP JUMPDEST JUMPDEST DUP2 SWAP1 POP SWAP3 SWAP2 POP POP JUMP JUMPDEST PUSH0 DUP1 REVERT JUMPDEST PUSH0 DUP1 REVERT JUMPDEST PUSH0 DUP1 REVERT JUMPDEST PUSH0 DUP1 DUP4 PUSH1 0x1F DUP5 ADD SLT PUSH2 0x3917 JUMPI PUSH2 0x3916 PUSH2 0x38F6 JUMP JUMPDEST JUMPDEST DUP3 CALLDATALOAD SWAP1 POP PUSH8 0xFFFFFFFFFFFFFFFF DUP2 GT ISZERO PUSH2 0x3934 JUMPI PUSH2 0x3933 PUSH2 0x38FA JUMP JUMPDEST JUMPDEST PUSH1 0x20 DUP4 ADD SWAP2 POP DUP4 PUSH1 0x1 DUP3 MUL DUP4 ADD GT ISZERO PUSH2 0x3950 JUMPI PUSH2 0x394F PUSH2 0x38FE JUMP JUMPDEST JUMPDEST SWAP3 POP SWAP3 SWAP1 POP JUMP JUMPDEST PUSH0 DUP1 PUSH0 PUSH1 0x40 DUP5 DUP7 SUB SLT ISZERO PUSH2 0x396E JUMPI PUSH2 0x396D PUSH2 0x3368 JUMP JUMPDEST JUMPDEST PUSH0 DUP5 ADD CALLDATALOAD PUSH8 0xFFFFFFFFFFFFFFFF DUP2 GT ISZERO PUSH2 0x398B JUMPI PUSH2 0x398A PUSH2 0x336C JUMP JUMPDEST JUMPDEST PUSH2 0x3997 DUP7 DUP3 DUP8 ADD PUSH2 0x38D7 JUMP JUMPDEST SWAP4 POP POP PUSH1 0x20 DUP5 ADD CALLDATALOAD PUSH8 0xFFFFFFFFFFFFFFFF DUP2 GT ISZERO PUSH2 0x39B8 JUMPI PUSH2 0x39B7 PUSH2 0x336C JUMP JUMPDEST JUMPDEST PUSH2 0x39C4 DUP7 DUP3 DUP8 ADD PUSH2 0x3902 JUMP JUMPDEST SWAP3 POP SWAP3 POP POP SWAP3 POP SWAP3 POP SWAP3 JUMP JUMPDEST PUSH0 DUP2 MLOAD SWAP1 POP SWAP2 SWAP1 POP JUMP JUMPDEST PUSH0 DUP3 DUP3 MSTORE PUSH1 0x20 DUP3 ADD SWAP1 POP SWAP3 SWAP2 POP POP JUMP JUMPDEST PUSH0 DUP2 SWAP1 POP PUSH1 0x20 DUP3 ADD SWAP1 POP SWAP2 SWAP1 POP JUMP JUMPDEST PUSH0 DUP2 MLOAD SWAP1 POP SWAP2 SWAP1 POP JUMP JUMPDEST PUSH0 DUP3 DUP3 MSTORE PUSH1 0x20 DUP3 ADD SWAP1 POP SWAP3 SWAP2 POP POP JUMP JUMPDEST PUSH0 DUP2 SWAP1 POP PUSH1 0x20 DUP3 ADD SWAP1 POP SWAP2 SWAP1 POP JUMP JUMPDEST PUSH0 PUSH2 0x3A2D DUP4 DUP4 PUSH2 0x3652 JUMP JUMPDEST PUSH1 0x20 DUP4 ADD SWAP1 POP SWAP3 SWAP2 POP POP JUMP JUMPDEST PUSH0 PUSH1 0x20 DUP3 ADD SWAP1 POP SWAP2 SWAP1 POP JUMP JUMPDEST PUSH0 PUSH2 0x3A4F DUP3 PUSH2 0x39F9 JUMP JUMPDEST PUSH2 0x3A59 DUP2 DUP6 PUSH2 0x3A03 JUMP JUMPDEST SWAP4 POP PUSH2 0x3A64 DUP4 PUSH2 0x3A13 JUMP JUMPDEST DUP1 PUSH0 JUMPDEST DUP4 DUP2 LT ISZERO PUSH2 0x3A94 JUMPI DUP2 MLOAD PUSH2 0x3A7B DUP9 DUP3 PUSH2 0x3A22 JUMP JUMPDEST SWAP8 POP PUSH2 0x3A86 DUP4 PUSH2 0x3A39 JUMP JUMPDEST SWAP3 POP POP PUSH1 0x1 DUP2 ADD SWAP1 POP PUSH2 0x3A67 JUMP JUMPDEST POP DUP6 SWAP4 POP POP POP POP SWAP3 SWAP2 POP POP JUMP JUMPDEST PUSH2 0x3AAA DUP2 PUSH2 0x34D8 JUMP JUMPDEST DUP3 MSTORE POP POP JUMP JUMPDEST PUSH0 PUSH16 0xFFFFFFFFFFFFFFFFFFFFFFFFFFFFFFFF DUP3 AND SWAP1 POP SWAP2 SWAP1 POP JUMP JUMPDEST PUSH2 0x3AD4 DUP2 PUSH2 0x3AB0 JUMP JUMPDEST DUP3 MSTORE POP POP JUMP JUMPDEST PUSH0 PUSH1 0xA0 DUP4 ADD PUSH0 DUP4 ADD MLOAD PUSH2 0x3AEF PUSH0 DUP7 ADD DUP3 PUSH2 0x3652 JUMP JUMPDEST POP PUSH1 0x20 DUP4 ADD MLOAD DUP5 DUP3 SUB PUSH1 0x20 DUP7 ADD MSTORE PUSH2 0x3B07 DUP3 DUP3 PUSH2 0x3A45 JUMP JUMPDEST SWAP2 POP POP PUSH1 0x40 DUP4 ADD MLOAD PUSH2 0x3B1C PUSH1 0x40 DUP7 ADD DUP3 PUSH2 0x3AA1 JUMP JUMPDEST POP PUSH1 0x60 DUP4 ADD MLOAD PUSH2 0x3B2F PUSH1 0x60 DUP7 ADD DUP3 PUSH2 0x3ACB JUMP JUMPDEST POP PUSH1 0x80 DUP4 ADD MLOAD PUSH2 0x3B42 PUSH1 0x80 DUP7 ADD DUP3 PUSH2 0x3ACB JUMP JUMPDEST POP DUP1 SWAP2 POP POP SWAP3 SWAP2 POP POP JUMP JUMPDEST PUSH0 PUSH2 0x3B58 DUP4 DUP4 PUSH2 0x3ADA JUMP JUMPDEST SWAP1 POP SWAP3 SWAP2 POP POP JUMP JUMPDEST PUSH0 PUSH1 0x20 DUP3 ADD SWAP1 POP SWAP2 SWAP1 POP JUMP JUMPDEST PUSH0 PUSH2 0x3B76 DUP3 PUSH2 0x39D0 JUMP JUMPDEST PUSH2 0x3B80 DUP2 DUP6 PUSH2 0x39DA JUMP JUMPDEST SWAP4 POP DUP4 PUSH1 0x20 DUP3 MUL DUP6 ADD PUSH2 0x3B92 DUP6 PUSH2 0x39EA JUMP JUMPDEST DUP1 PUSH0 JUMPDEST DUP6 DUP2 LT ISZERO PUSH2 0x3BCD JUMPI DUP5 DUP5 SUB DUP10 MSTORE DUP2 MLOAD PUSH2 0x3BAE DUP6 DUP3 PUSH2 0x3B4D JUMP JUMPDEST SWAP5 POP PUSH2 0x3BB9 DUP4 PUSH2 0x3B60 JUMP JUMPDEST SWAP3 POP PUSH1 0x20 DUP11 ADD SWAP10 POP POP PUSH1 0x1 DUP2 ADD SWAP1 POP PUSH2 0x3B95 JUMP JUMPDEST POP DUP3 SWAP8 POP DUP8 SWAP6 POP POP POP POP POP POP SWAP3 SWAP2 POP POP JUMP JUMPDEST PUSH0 PUSH1 0x20 DUP3 ADD SWAP1 POP DUP2 DUP2 SUB PUSH0 DUP4 ADD MSTORE PUSH2 0x3BF7 DUP2 DUP5 PUSH2 0x3B6C JUMP JUMPDEST SWAP1 POP SWAP3 SWAP2 POP POP JUMP JUMPDEST PUSH2 0x3C08 DUP2 PUSH2 0x338F JUMP JUMPDEST DUP3 MSTORE POP POP JUMP JUMPDEST PUSH0 PUSH1 0x40 DUP3 ADD SWAP1 POP PUSH2 0x3C21 PUSH0 DUP4 ADD DUP6 PUSH2 0x3452 JUMP JUMPDEST PUSH2 0x3C2E PUSH1 0x20 DUP4 ADD DUP5 PUSH2 0x3BFF JUMP JUMPDEST SWAP4 SWAP3 POP POP POP JUMP JUMPDEST PUSH0 DUP1 DUP4 PUSH1 0x1F DUP5 ADD SLT PUSH2 0x3C4A JUMPI PUSH2 0x3C49 PUSH2 0x38F6 JUMP JUMPDEST JUMPDEST DUP3 CALLDATALOAD SWAP1 POP PUSH8 0xFFFFFFFFFFFFFFFF DUP2 GT ISZERO PUSH2 0x3C67 JUMPI PUSH2 0x3C66 PUSH2 0x38FA JUMP JUMPDEST JUMPDEST PUSH1 0x20 DUP4 ADD SWAP2 POP DUP4 PUSH1 0x20 DUP3 MUL DUP4 ADD GT ISZERO PUSH2 0x3C83 JUMPI PUSH2 0x3C82 PUSH2 0x38FE JUMP JUMPDEST JUMPDEST SWAP3 POP SWAP3 SWAP1 POP JUMP JUMPDEST PUSH0 DUP1 PUSH1 0x20 DUP4 DUP6 SUB SLT ISZERO PUSH2 0x3CA0 JUMPI PUSH2 0x3C9F PUSH2 0x3368 JUMP JUMPDEST JUMPDEST PUSH0 DUP4 ADD CALLDATALOAD PUSH8 0xFFFFFFFFFFFFFFFF DUP2 GT ISZERO PUSH2 0x3CBD JUMPI PUSH2 0x3CBC PUSH2 0x336C JUMP JUMPDEST JUMPDEST PUSH2 0x3CC9 DUP6 DUP3 DUP7 ADD PUSH2 0x3C35 JUMP JUMPDEST SWAP3 POP SWAP3 POP POP SWAP3 POP SWAP3 SWAP1 POP JUMP JUMPDEST PUSH0 DUP2 MLOAD SWAP1 POP SWAP2 SWAP1 POP JUMP JUMPDEST PUSH0 DUP3 DUP3 MSTORE PUSH1 0x20 DUP3 ADD SWAP1 POP SWAP3 SWAP2 POP POP JUMP JUMPDEST PUSH0 DUP2 SWAP1 POP PUSH1 0x20 DUP3 ADD SWAP1 POP SWAP2 SWAP1 POP JUMP JUMPDEST PUSH0 DUP2 MLOAD SWAP1 POP SWAP2 SWAP1 POP JUMP JUMPDEST PUSH0 DUP3 DUP3 MSTORE PUSH1 0x20 DUP3 ADD SWAP1 POP SWAP3 SWAP2 POP POP JUMP JUMPDEST PUSH0 PUSH2 0x3D22 DUP3 PUSH2 0x3CFE JUMP JUMPDEST PUSH2 0x3D2C DUP2 DUP6 PUSH2 0x3D08 JUMP JUMPDEST SWAP4 POP PUSH2 0x3D3C DUP2 DUP6 PUSH1 0x20 DUP7 ADD PUSH2 0x35E2 JUMP JUMPDEST PUSH2 0x3D45 DUP2 PUSH2 0x360A JUMP JUMPDEST DUP5 ADD SWAP2 POP POP SWAP3 SWAP2 POP POP JUMP JUMPDEST PUSH0 PUSH2 0x3D5B DUP4 DUP4 PUSH2 0x3D18 JUMP JUMPDEST SWAP1 POP SWAP3 SWAP2 POP POP JUMP JUMPDEST PUSH0 PUSH1 0x20 DUP3 ADD SWAP1 POP SWAP2 SWAP1 POP JUMP JUMPDEST PUSH0 PUSH2 0x3D79 DUP3 PUSH2 0x3CD5 JUMP JUMPDEST PUSH2 0x3D83 DUP2 DUP6 PUSH2 0x3CDF JUMP JUMPDEST SWAP4 POP DUP4 PUSH1 0x20 DUP3 MUL DUP6 ADD PUSH2 0x3D95 DUP6 PUSH2 0x3CEF JUMP JUMPDEST DUP1 PUSH0 JUMPDEST DUP6 DUP2 LT ISZERO PUSH2 0x3DD0 JUMPI DUP5 DUP5 SUB DUP10 MSTORE DUP2 MLOAD PUSH2 0x3DB1 DUP6 DUP3 PUSH2 0x3D50 JUMP JUMPDEST SWAP5 POP PUSH2 0x3DBC DUP4 PUSH2 0x3D63 JUMP JUMPDEST SWAP3 POP PUSH1 0x20 DUP11 ADD SWAP10 POP POP PUSH1 0x1 DUP2 ADD SWAP1 POP PUSH2 0x3D98 JUMP JUMPDEST POP DUP3 SWAP8 POP DUP8 SWAP6 POP POP POP POP POP POP SWAP3 SWAP2 POP POP JUMP JUMPDEST PUSH0 PUSH1 0x20 DUP3 ADD SWAP1 POP DUP2 DUP2 SUB PUSH0 DUP4 ADD MSTORE PUSH2 0x3DFA DUP2 DUP5 PUSH2 0x3D6F JUMP JUMPDEST SWAP1 POP SWAP3 SWAP2 POP POP JUMP JUMPDEST PUSH0 DUP2 SWAP1 POP SWAP2 SWAP1 POP JUMP JUMPDEST PUSH0 PUSH2 0x3E25 PUSH2 0x3E20 PUSH2 0x3E1B DUP5 PUSH2 0x3370 JUMP JUMPDEST PUSH2 0x3E02 JUMP JUMPDEST PUSH2 0x3370 JUMP JUMPDEST SWAP1 POP SWAP2 SWAP1 POP JUMP JUMPDEST PUSH0 PUSH2 0x3E36 DUP3 PUSH2 0x3E0B JUMP JUMPDEST SWAP1 POP SWAP2 SWAP1 POP JUMP JUMPDEST PUSH0 PUSH2 0x3E47 DUP3 PUSH2 0x3E2C JUMP JUMPDEST SWAP1 POP SWAP2 SWAP1 POP JUMP JUMPDEST PUSH2 0x3E57 DUP2 PUSH2 0x3E3D JUMP JUMPDEST DUP3 MSTORE POP POP JUMP JUMPDEST PUSH0 PUSH1 0x20 DUP3 ADD SWAP1 POP PUSH2 0x3E70 PUSH0 DUP4 ADD DUP5 PUSH2 0x3E4E JUMP JUMPDEST SWAP3 SWAP2 POP POP JUMP JUMPDEST PUSH0 PUSH2 0x3E80 DUP3 PUSH2 0x338F JUMP JUMPDEST SWAP1 POP SWAP2 SWAP1 POP JUMP JUMPDEST PUSH2 0x3E90 DUP2 PUSH2 0x3E76 JUMP JUMPDEST DUP2 EQ PUSH2 0x3E9A JUMPI PUSH0 DUP1 REVERT JUMPDEST POP JUMP JUMPDEST PUSH0 DUP2 CALLDATALOAD SWAP1 POP PUSH2 0x3EAB DUP2 PUSH2 0x3E87 JUMP JUMPDEST SWAP3 SWAP2 POP POP JUMP JUMPDEST PUSH0 PUSH1 0x20 DUP3 DUP5 SUB SLT ISZERO PUSH2 0x3EC6 JUMPI PUSH2 0x3EC5 PUSH2 0x3368 JUMP JUMPDEST JUMPDEST PUSH0 PUSH2 0x3ED3 DUP5 DUP3 DUP6 ADD PUSH2 0x3E9D JUMP JUMPDEST SWAP2 POP POP SWAP3 SWAP2 POP POP JUMP JUMPDEST PUSH0 PUSH1 0x20 DUP3 ADD SWAP1 POP PUSH2 0x3EEF PUSH0 DUP4 ADD DUP5 PUSH2 0x3BFF JUMP JUMPDEST SWAP3 SWAP2 POP POP JUMP JUMPDEST PUSH2 0x3EFE DUP2 PUSH2 0x36DE JUMP JUMPDEST DUP2 EQ PUSH2 0x3F08 JUMPI PUSH0 DUP1 REVERT JUMPDEST POP JUMP JUMPDEST PUSH0 DUP2 CALLDATALOAD SWAP1 POP PUSH2 0x3F19 DUP2 PUSH2 0x3EF5 JUMP JUMPDEST SWAP3 SWAP2 POP POP JUMP JUMPDEST PUSH0 PUSH1 0x20 DUP3 DUP5 SUB SLT ISZERO PUSH2 0x3F34 JUMPI PUSH2 0x3F33 PUSH2 0x3368 JUMP JUMPDEST JUMPDEST PUSH0 PUSH2 0x3F41 DUP5 DUP3 DUP6 ADD PUSH2 0x3F0B JUMP JUMPDEST SWAP2 POP POP SWAP3 SWAP2 POP POP JUMP JUMPDEST PUSH0 DUP1 PUSH0 PUSH1 0x40 DUP5 DUP7 SUB SLT ISZERO PUSH2 0x3F61 JUMPI PUSH2 0x3F60 PUSH2 0x3368 JUMP JUMPDEST JUMPDEST PUSH0 PUSH2 0x3F6E DUP7 DUP3 DUP8 ADD PUSH2 0x33B6 JUMP JUMPDEST SWAP4 POP POP PUSH1 0x20 DUP5 ADD CALLDATALOAD PUSH8 0xFFFFFFFFFFFFFFFF DUP2 GT ISZERO PUSH2 0x3F8F JUMPI PUSH2 0x3F8E PUSH2 0x336C JUMP JUMPDEST JUMPDEST PUSH2 0x3F9B DUP7 DUP3 DUP8 ADD PUSH2 0x3902 JUMP JUMPDEST SWAP3 POP SWAP3 POP POP SWAP3 POP SWAP3 POP SWAP3 JUMP JUMPDEST PUSH0 DUP3 DUP3 MSTORE PUSH1 0x20 DUP3 ADD SWAP1 POP SWAP3 SWAP2 POP POP JUMP JUMPDEST PUSH0 PUSH2 0x3FC1 DUP3 PUSH2 0x39F9 JUMP JUMPDEST PUSH2 0x3FCB DUP2 DUP6 PUSH2 0x3FA7 JUMP JUMPDEST SWAP4 POP PUSH2 0x3FD6 DUP4 PUSH2 0x3A13 JUMP JUMPDEST DUP1 PUSH0 JUMPDEST DUP4 DUP2 LT ISZERO PUSH2 0x4006 JUMPI DUP2 MLOAD PUSH2 0x3FED DUP9 DUP3 PUSH2 0x3A22 JUMP JUMPDEST SWAP8 POP PUSH2 0x3FF8 DUP4 PUSH2 0x3A39 JUMP JUMPDEST SWAP3 POP POP PUSH1 0x1 DUP2 ADD SWAP1 POP PUSH2 0x3FD9 JUMP JUMPDEST POP DUP6 SWAP4 POP POP POP POP SWAP3 SWAP2 POP POP JUMP JUMPDEST PUSH0 PUSH1 0x20 DUP3 ADD SWAP1 POP DUP2 DUP2 SUB PUSH0 DUP4 ADD MSTORE PUSH2 0x402B DUP2 DUP5 PUSH2 0x3FB7 JUMP JUMPDEST SWAP1 POP SWAP3 SWAP2 POP POP JUMP JUMPDEST PUSH0 PUSH1 0xA0 DUP4 ADD PUSH0 DUP4 ADD MLOAD PUSH2 0x4048 PUSH0 DUP7 ADD DUP3 PUSH2 0x3652 JUMP JUMPDEST POP PUSH1 0x20 DUP4 ADD MLOAD DUP5 DUP3 SUB PUSH1 0x20 DUP7 ADD MSTORE PUSH2 0x4060 DUP3 DUP3 PUSH2 0x3A45 JUMP JUMPDEST SWAP2 POP POP PUSH1 0x40 DUP4 ADD MLOAD PUSH2 0x4075 PUSH1 0x40 DUP7 ADD DUP3 PUSH2 0x3AA1 JUMP JUMPDEST POP PUSH1 0x60 DUP4 ADD MLOAD PUSH2 0x4088 PUSH1 0x60 DUP7 ADD DUP3 PUSH2 0x3ACB JUMP JUMPDEST POP PUSH1 0x80 DUP4 ADD MLOAD PUSH2 0x409B PUSH1 0x80 DUP7 ADD DUP3 PUSH2 0x3ACB JUMP JUMPDEST POP DUP1 SWAP2 POP POP SWAP3 SWAP2 POP POP JUMP JUMPDEST PUSH0 PUSH1 0x20 DUP3 ADD SWAP1 POP DUP2 DUP2 SUB PUSH0 DUP4 ADD MSTORE PUSH2 0x40BE DUP2 DUP5 PUSH2 0x4033 JUMP JUMPDEST SWAP1 POP SWAP3 SWAP2 POP POP JUMP JUMPDEST PUSH2 0x40CF DUP2 PUSH2 0x36DE JUMP JUMPDEST DUP3 MSTORE POP POP JUMP JUMPDEST PUSH0 PUSH1 0x20 DUP3 ADD SWAP1 POP PUSH2 0x40E8 PUSH0 DUP4 ADD DUP5 PUSH2 0x40C6 JUMP JUMPDEST SWAP3 SWAP2 POP POP JUMP JUMPDEST PUSH0 DUP2 MLOAD SWAP1 POP PUSH2 0x40FC DUP2 PUSH2 0x33A0 JUMP JUMPDEST SWAP3 SWAP2 POP POP JUMP JUMPDEST PUSH0 PUSH1 0x20 DUP3 DUP5 SUB SLT ISZERO PUSH2 0x4117 JUMPI PUSH2 0x4116 PUSH2 0x3368 JUMP JUMPDEST JUMPDEST PUSH0 PUSH2 0x4124 DUP5 DUP3 DUP6 ADD PUSH2 0x40EE JUMP JUMPDEST SWAP2 POP POP SWAP3 SWAP2 POP POP JUMP JUMPDEST PUSH0 DUP1 REVERT JUMPDEST PUSH0 DUP1 REVERT JUMPDEST PUSH0 DUP1 REVERT JUMPDEST PUSH0 DUP1 DUP4 CALLDATALOAD PUSH1 0x1 PUSH1 0x20 SUB DUP5 CALLDATASIZE SUB SUB DUP2 SLT PUSH2 0x4155 JUMPI PUSH2 0x4154 PUSH2 0x412D JUMP JUMPDEST JUMPDEST DUP1 DUP5 ADD SWAP3 POP DUP3 CALLDATALOAD SWAP2 POP PUSH8 0xFFFFFFFFFFFFFFFF DUP3 GT ISZERO PUSH2 0x4177 JUMPI PUSH2 0x4176 PUSH2 0x4131 JUMP JUMPDEST JUMPDEST PUSH1 0x20 DUP4 ADD SWAP3 POP PUSH1 0x1 DUP3 MUL CALLDATASIZE SUB DUP4 SGT ISZERO PUSH2 0x4193 JUMPI PUSH2 0x4192 PUSH2 0x4135 JUMP JUMPDEST JUMPDEST POP SWAP3 POP SWAP3 SWAP1 POP JUMP JUMPDEST PUSH32 0x4E487B7100000000000000000000000000000000000000000000000000000000 PUSH0 MSTORE PUSH1 0x32 PUSH1 0x4 MSTORE PUSH1 0x24 PUSH0 REVERT JUMPDEST PUSH32 0x4E487B7100000000000000000000000000000000000000000000000000000000 PUSH0 MSTORE PUSH1 0x41 PUSH1 0x4 MSTORE PUSH1 0x24 PUSH0 REVERT JUMPDEST PUSH2 0x41FE DUP3 PUSH2 0x360A JUMP JUMPDEST DUP2 ADD DUP2 DUP2 LT PUSH8 0xFFFFFFFFFFFFFFFF DUP3 GT OR ISZERO PUSH2 0x421D JUMPI PUSH2 0x421C PUSH2 0x41C8 JUMP JUMPDEST JUMPDEST DUP1 PUSH1 0x40 MSTORE POP POP POP JUMP JUMPDEST PUSH0 PUSH2 0x422F PUSH2 0x335F JUMP JUMPDEST SWAP1 POP PUSH2 0x423B DUP3 DUP3 PUSH2 0x41F5 JUMP JUMPDEST SWAP2 SWAP1 POP JUMP JUMPDEST PUSH0 PUSH8 0xFFFFFFFFFFFFFFFF DUP3 GT ISZERO PUSH2 0x425A JUMPI PUSH2 0x4259 PUSH2 0x41C8 JUMP JUMPDEST JUMPDEST PUSH1 0x20 DUP3 MUL SWAP1 POP PUSH1 0x20 DUP2 ADD SWAP1 POP SWAP2 SWAP1 POP JUMP JUMPDEST PUSH0 DUP1 REVERT JUMPDEST PUSH0 DUP1 REVERT JUMPDEST PUSH0 DUP1 REVERT JUMPDEST PUSH0 PUSH8 0xFFFFFFFFFFFFFFFF DUP3 GT ISZERO PUSH2 0x4291 JUMPI PUSH2 0x4290 PUSH2 0x41C8 JUMP JUMPDEST JUMPDEST PUSH2 0x429A DUP3 PUSH2 0x360A JUMP JUMPDEST SWAP1 POP PUSH1 0x20 DUP2 ADD SWAP1 POP SWAP2 SWAP1 POP JUMP JUMPDEST PUSH0 PUSH2 0x42B9 PUSH2 0x42B4 DUP5 PUSH2 0x4277 JUMP JUMPDEST PUSH2 0x4226 JUMP JUMPDEST SWAP1 POP DUP3 DUP2 MSTORE PUSH1 0x20 DUP2 ADD DUP5 DUP5 DUP5 ADD GT ISZERO PUSH2 0x42D5 JUMPI PUSH2 0x42D4 PUSH2 0x4273 JUMP JUMPDEST JUMPDEST PUSH2 0x42E0 DUP5 DUP3 DUP6 PUSH2 0x35E2 JUMP JUMPDEST POP SWAP4 SWAP3 POP POP POP JUMP JUMPDEST PUSH0 DUP3 PUSH1 0x1F DUP4 ADD SLT PUSH2 0x42FC JUMPI PUSH2 0x42FB PUSH2 0x38F6 JUMP JUMPDEST JUMPDEST DUP2 MLOAD PUSH2 0x430C DUP5 DUP3 PUSH1 0x20 DUP7 ADD PUSH2 0x42A7 JUMP JUMPDEST SWAP2 POP POP SWAP3 SWAP2 POP POP JUMP JUMPDEST PUSH0 PUSH1 0x60 DUP3 DUP5 SUB SLT ISZERO PUSH2 0x432A JUMPI PUSH2 0x4329 PUSH2 0x426B JUMP JUMPDEST JUMPDEST PUSH2 0x4334 PUSH1 0x60 PUSH2 0x4226 JUMP JUMPDEST SWAP1 POP PUSH0 DUP3 ADD MLOAD PUSH8 0xFFFFFFFFFFFFFFFF DUP2 GT ISZERO PUSH2 0x4353 JUMPI PUSH2 0x4352 PUSH2 0x426F JUMP JUMPDEST JUMPDEST PUSH2 0x435F DUP5 DUP3 DUP6 ADD PUSH2 0x42E8 JUMP JUMPDEST PUSH0 DUP4 ADD MSTORE POP PUSH1 0x20 DUP3 ADD MLOAD PUSH8 0xFFFFFFFFFFFFFFFF DUP2 GT ISZERO PUSH2 0x4382 JUMPI PUSH2 0x4381 PUSH2 0x426F JUMP JUMPDEST JUMPDEST PUSH2 0x438E DUP5 DUP3 DUP6 ADD PUSH2 0x42E8 JUMP JUMPDEST PUSH1 0x20 DUP4 ADD MSTORE POP PUSH1 0x40 PUSH2 0x43A2 DUP5 DUP3 DUP6 ADD PUSH2 0x40EE JUMP JUMPDEST PUSH1 0x40 DUP4 ADD MSTORE POP SWAP3 SWAP2 POP POP JUMP JUMPDEST PUSH0 PUSH8 0xFFFFFFFFFFFFFFFF DUP3 GT ISZERO PUSH2 0x43C8 JUMPI PUSH2 0x43C7 PUSH2 0x41C8 JUMP JUMPDEST JUMPDEST PUSH1 0x20 DUP3 MUL SWAP1 POP PUSH1 0x20 DUP2 ADD SWAP1 POP SWAP2 SWAP1 POP JUMP JUMPDEST PUSH0 DUP2 MLOAD SWAP1 POP PUSH2 0x43E7 DUP2 PUSH2 0x3EF5 JUMP JUMPDEST SWAP3 SWAP2 POP POP JUMP JUMPDEST PUSH0 PUSH1 0x40 DUP3 DUP5 SUB SLT ISZERO PUSH2 0x4402 JUMPI PUSH2 0x4401 PUSH2 0x426B JUMP JUMPDEST JUMPDEST PUSH2 0x440C PUSH1 0x40 PUSH2 0x4226 JUMP JUMPDEST SWAP1 POP PUSH0 PUSH2 0x441B DUP5 DUP3 DUP6 ADD PUSH2 0x43D9 JUMP JUMPDEST PUSH0 DUP4 ADD MSTORE POP PUSH1 0x20 DUP3 ADD MLOAD PUSH8 0xFFFFFFFFFFFFFFFF DUP2 GT ISZERO PUSH2 0x443E JUMPI PUSH2 0x443D PUSH2 0x426F JUMP JUMPDEST JUMPDEST PUSH2 0x444A DUP5 DUP3 DUP6 ADD PUSH2 0x42E8 JUMP JUMPDEST PUSH1 0x20 DUP4 ADD MSTORE POP SWAP3 SWAP2 POP POP JUMP JUMPDEST PUSH0 PUSH2 0x4468 PUSH2 0x4463 DUP5 PUSH2 0x43AE JUMP JUMPDEST PUSH2 0x4226 JUMP JUMPDEST SWAP1 POP DUP1 DUP4 DUP3 MSTORE PUSH1 0x20 DUP3 ADD SWAP1 POP PUSH1 0x20 DUP5 MUL DUP4 ADD DUP6 DUP2 GT ISZERO PUSH2 0x448B JUMPI PUSH2 0x448A PUSH2 0x38FE JUMP JUMPDEST JUMPDEST DUP4 JUMPDEST DUP2 DUP2 LT ISZERO PUSH2 0x44D2 JUMPI DUP1 MLOAD PUSH8 0xFFFFFFFFFFFFFFFF DUP2 GT ISZERO PUSH2 0x44B0 JUMPI PUSH2 0x44AF PUSH2 0x38F6 JUMP JUMPDEST JUMPDEST DUP1 DUP7 ADD PUSH2 0x44BD DUP10 DUP3 PUSH2 0x43ED JUMP JUMPDEST DUP6 MSTORE PUSH1 0x20 DUP6 ADD SWAP5 POP POP POP PUSH1 0x20 DUP2 ADD SWAP1 POP PUSH2 0x448D JUMP JUMPDEST POP POP POP SWAP4 SWAP3 POP POP POP JUMP JUMPDEST PUSH0 DUP3 PUSH1 0x1F DUP4 ADD SLT PUSH2 0x44F0 JUMPI PUSH2 0x44EF PUSH2 0x38F6 JUMP JUMPDEST JUMPDEST DUP2 MLOAD PUSH2 0x4500 DUP5 DUP3 PUSH1 0x20 DUP7 ADD PUSH2 0x4456 JUMP JUMPDEST SWAP2 POP POP SWAP3 SWAP2 POP POP JUMP JUMPDEST PUSH0 PUSH1 0x40 DUP3 DUP5 SUB SLT ISZERO PUSH2 0x451E JUMPI PUSH2 0x451D PUSH2 0x426B JUMP JUMPDEST JUMPDEST PUSH2 0x4528 PUSH1 0x40 PUSH2 0x4226 JUMP JUMPDEST SWAP1 POP PUSH0 DUP3 ADD MLOAD PUSH8 0xFFFFFFFFFFFFFFFF DUP2 GT ISZERO PUSH2 0x4547 JUMPI PUSH2 0x4546 PUSH2 0x426F JUMP JUMPDEST JUMPDEST PUSH2 0x4553 DUP5 DUP3 DUP6 ADD PUSH2 0x4315 JUMP JUMPDEST PUSH0 DUP4 ADD MSTORE POP PUSH1 0x20 DUP3 ADD MLOAD PUSH8 0xFFFFFFFFFFFFFFFF DUP2 GT ISZERO PUSH2 0x4576 JUMPI PUSH2 0x4575 PUSH2 0x426F JUMP JUMPDEST JUMPDEST PUSH2 0x4582 DUP5 DUP3 DUP6 ADD PUSH2 0x44DC JUMP JUMPDEST PUSH1 0x20 DUP4 ADD MSTORE POP SWAP3 SWAP2 POP POP JUMP JUMPDEST PUSH0 PUSH2 0x45A0 PUSH2 0x459B DUP5 PUSH2 0x4240 JUMP JUMPDEST PUSH2 0x4226 JUMP JUMPDEST SWAP1 POP DUP1 DUP4 DUP3 MSTORE PUSH1 0x20 DUP3 ADD SWAP1 POP PUSH1 0x20 DUP5 MUL DUP4 ADD DUP6 DUP2 GT ISZERO PUSH2 0x45C3 JUMPI PUSH2 0x45C2 PUSH2 0x38FE JUMP JUMPDEST JUMPDEST DUP4 JUMPDEST DUP2 DUP2 LT ISZERO PUSH2 0x460A JUMPI DUP1 MLOAD PUSH8 0xFFFFFFFFFFFFFFFF DUP2 GT ISZERO PUSH2 0x45E8 JUMPI PUSH2 0x45E7 PUSH2 0x38F6 JUMP JUMPDEST JUMPDEST DUP1 DUP7 ADD PUSH2 0x45F5 DUP10 DUP3 PUSH2 0x4509 JUMP JUMPDEST DUP6 MSTORE PUSH1 0x20 DUP6 ADD SWAP5 POP POP POP PUSH1 0x20 DUP2 ADD SWAP1 POP PUSH2 0x45C5 JUMP JUMPDEST POP POP POP SWAP4 SWAP3 POP POP POP JUMP JUMPDEST PUSH0 DUP3 PUSH1 0x1F DUP4 ADD SLT PUSH2 0x4628 JUMPI PUSH2 0x4627 PUSH2 0x38F6 JUMP JUMPDEST JUMPDEST DUP2 MLOAD PUSH2 0x4638 DUP5 DUP3 PUSH1 0x20 DUP7 ADD PUSH2 0x458E JUMP JUMPDEST SWAP2 POP POP SWAP3 SWAP2 POP POP JUMP JUMPDEST PUSH0 PUSH1 0x20 DUP3 DUP5 SUB SLT ISZERO PUSH2 0x4656 JUMPI PUSH2 0x4655 PUSH2 0x3368 JUMP JUMPDEST JUMPDEST PUSH0 DUP3 ADD MLOAD PUSH8 0xFFFFFFFFFFFFFFFF DUP2 GT ISZERO PUSH2 0x4673 JUMPI PUSH2 0x4672 PUSH2 0x336C JUMP JUMPDEST JUMPDEST PUSH2 0x467F DUP5 DUP3 DUP6 ADD PUSH2 0x4614 JUMP JUMPDEST SWAP2 POP POP SWAP3 SWAP2 POP POP JUMP JUMPDEST PUSH2 0x4691 DUP2 PUSH2 0x3AB0 JUMP JUMPDEST DUP2 EQ PUSH2 0x469B JUMPI PUSH0 DUP1 REVERT JUMPDEST POP JUMP JUMPDEST PUSH0 DUP2 CALLDATALOAD SWAP1 POP PUSH2 0x46AC DUP2 PUSH2 0x4688 JUMP JUMPDEST SWAP3 SWAP2 POP POP JUMP JUMPDEST PUSH0 PUSH1 0x20 DUP3 DUP5 SUB SLT ISZERO PUSH2 0x46C7 JUMPI PUSH2 0x46C6 PUSH2 0x3368 JUMP JUMPDEST JUMPDEST PUSH0 PUSH2 0x46D4 DUP5 DUP3 DUP6 ADD PUSH2 0x469E JUMP JUMPDEST SWAP2 POP POP SWAP3 SWAP2 POP POP JUMP JUMPDEST PUSH32 0x21706572696F6400000000000000000000000000000000000000000000000000 PUSH0 DUP3 ADD MSTORE POP JUMP JUMPDEST PUSH0 PUSH2 0x4711 PUSH1 0x7 DUP4 PUSH2 0x32E7 JUMP JUMPDEST SWAP2 POP PUSH2 0x471C DUP3 PUSH2 0x46DD JUMP JUMPDEST PUSH1 0x20 DUP3 ADD SWAP1 POP SWAP2 SWAP1 POP JUMP JUMPDEST PUSH0 PUSH1 0x20 DUP3 ADD SWAP1 POP DUP2 DUP2 SUB PUSH0 DUP4 ADD MSTORE PUSH2 0x473E DUP2 PUSH2 0x4705 JUMP JUMPDEST SWAP1 POP SWAP2 SWAP1 POP JUMP JUMPDEST PUSH32 0x2173696700000000000000000000000000000000000000000000000000000000 PUSH0 DUP3 ADD MSTORE POP JUMP JUMPDEST PUSH0 PUSH2 0x4779 PUSH1 0x4 DUP4 PUSH2 0x32E7 JUMP JUMPDEST SWAP2 POP PUSH2 0x4784 DUP3 PUSH2 0x4745 JUMP JUMPDEST PUSH1 0x20 DUP3 ADD SWAP1 POP SWAP2 SWAP1 POP JUMP JUMPDEST PUSH0 PUSH1 0x20 DUP3 ADD SWAP1 POP DUP2 DUP2 SUB PUSH0 DUP4 ADD MSTORE PUSH2 0x47A6 DUP2 PUSH2 0x476D JUMP JUMPDEST SWAP1 POP SWAP2 SWAP1 POP JUMP JUMPDEST PUSH0 PUSH1 0xFF DUP3 AND SWAP1 POP SWAP2 SWAP1 POP JUMP JUMPDEST PUSH2 0x47C2 DUP2 PUSH2 0x47AD JUMP JUMPDEST DUP2 EQ PUSH2 0x47CC JUMPI PUSH0 DUP1 REVERT JUMPDEST POP JUMP JUMPDEST PUSH0 DUP2 CALLDATALOAD SWAP1 POP PUSH2 0x47DD DUP2 PUSH2 0x47B9 JUMP JUMPDEST SWAP3 SWAP2 POP POP JUMP JUMPDEST PUSH0 PUSH1 0x20 DUP3 DUP5 SUB SLT ISZERO PUSH2 0x47F8 JUMPI PUSH2 0x47F7 PUSH2 0x3368 JUMP JUMPDEST JUMPDEST PUSH0 PUSH2 0x4805 DUP5 DUP3 DUP6 ADD PUSH2 0x47CF JUMP JUMPDEST SWAP2 POP POP SWAP3 SWAP2 POP POP JUMP JUMPDEST PUSH32 0x61646D696E000000000000000000000000000000000000000000000000000000 PUSH0 DUP3 ADD MSTORE POP JUMP JUMPDEST PUSH0 PUSH2 0x4842 PUSH1 0x5 DUP4 PUSH2 0x32E7 JUMP JUMPDEST SWAP2 POP PUSH2 0x484D DUP3 PUSH2 0x480E JUMP JUMPDEST PUSH1 0x20 DUP3 ADD SWAP1 POP SWAP2 SWAP1 POP JUMP JUMPDEST PUSH0 PUSH1 0x20 DUP3 ADD SWAP1 POP DUP2 DUP2 SUB PUSH0 DUP4 ADD MSTORE PUSH2 0x486F DUP2 PUSH2 0x4836 JUMP JUMPDEST SWAP1 POP SWAP2 SWAP1 POP JUMP JUMPDEST PUSH32 0x4E487B7100000000000000000000000000000000000000000000000000000000 PUSH0 MSTORE PUSH1 0x11 PUSH1 0x4 MSTORE PUSH1 0x24 PUSH0 REVERT JUMPDEST PUSH0 PUSH2 0x48AD DUP3 PUSH2 0x34D8 JUMP JUMPDEST SWAP2 POP PUSH2 0x48B8 DUP4 PUSH2 0x34D8 JUMP JUMPDEST SWAP3 POP DUP3 DUP3 ADD SWAP1 POP DUP1 DUP3 GT ISZERO PUSH2 0x48D0 JUMPI PUSH2 0x48CF PUSH2 0x4876 JUMP JUMPDEST JUMPDEST SWAP3 SWAP2 POP POP JUMP JUMPDEST PUSH0 DUP1 DUP4 CALLDATALOAD PUSH1 0x1 PUSH1 0x20 SUB DUP5 CALLDATASIZE SUB SUB DUP2 SLT PUSH2 0x48F2 JUMPI PUSH2 0x48F1 PUSH2 0x412D JUMP JUMPDEST JUMPDEST DUP1 DUP5 ADD SWAP3 POP DUP3 CALLDATALOAD SWAP2 POP PUSH8 0xFFFFFFFFFFFFFFFF DUP3 GT ISZERO PUSH2 0x4914 JUMPI PUSH2 0x4913 PUSH2 0x4131 JUMP JUMPDEST JUMPDEST PUSH1 0x20 DUP4 ADD SWAP3 POP PUSH1 0x20 DUP3 MUL CALLDATASIZE SUB DUP4 SGT ISZERO PUSH2 0x4930 JUMPI PUSH2 0x492F PUSH2 0x4135 JUMP JUMPDEST JUMPDEST POP SWAP3 POP SWAP3 SWAP1 POP JUMP JUMPDEST PUSH0 PUSH2 0x4946 PUSH1 0x20 DUP5 ADD DUP5 PUSH2 0x33B6 JUMP JUMPDEST SWAP1 POP SWAP3 SWAP2 POP POP JUMP JUMPDEST PUSH0 PUSH2 0x495C PUSH1 0x20 DUP5 ADD DUP5 PUSH2 0x47CF JUMP JUMPDEST SWAP1 POP SWAP3 SWAP2 POP POP JUMP JUMPDEST PUSH2 0x496D DUP2 PUSH2 0x47AD JUMP JUMPDEST DUP3 MSTORE POP POP JUMP JUMPDEST PUSH0 DUP1 REVERT JUMPDEST PUSH0 DUP1 REVERT JUMPDEST PUSH0 DUP1 REVERT JUMPDEST PUSH0 DUP1 DUP4 CALLDATALOAD PUSH1 0x1 PUSH1 0x20 SUB DUP5 CALLDATASIZE SUB SUB DUP2 SLT PUSH2 0x499B JUMPI PUSH2 0x499A PUSH2 0x497B JUMP JUMPDEST JUMPDEST DUP4 DUP2 ADD SWAP3 POP DUP3 CALLDATALOAD SWAP2 POP PUSH1 0x20 DUP4 ADD SWAP3 POP PUSH8 0xFFFFFFFFFFFFFFFF DUP3 GT ISZERO PUSH2 0x49C3 JUMPI PUSH2 0x49C2 PUSH2 0x4973 JUMP JUMPDEST JUMPDEST PUSH1 0x20 DUP3 MUL CALLDATASIZE SUB DUP4 SGT ISZERO PUSH2 0x49D9 JUMPI PUSH2 0x49D8 PUSH2 0x4977 JUMP JUMPDEST JUMPDEST POP SWAP3 POP SWAP3 SWAP1 POP JUMP JUMPDEST PUSH0 DUP2 SWAP1 POP SWAP2 SWAP1 POP JUMP JUMPDEST PUSH0 PUSH1 0x20 DUP3 ADD SWAP1 POP SWAP2 SWAP1 POP JUMP JUMPDEST PUSH0 PUSH2 0x4A01 DUP4 DUP6 PUSH2 0x3A03 JUMP JUMPDEST SWAP4 POP PUSH2 0x4A0C DUP3 PUSH2 0x49E1 JUMP JUMPDEST DUP1 PUSH0 JUMPDEST DUP6 DUP2 LT ISZERO PUSH2 0x4A44 JUMPI PUSH2 0x4A21 DUP3 DUP5 PUSH2 0x4938 JUMP JUMPDEST PUSH2 0x4A2B DUP9 DUP3 PUSH2 0x3A22 JUMP JUMPDEST SWAP8 POP PUSH2 0x4A36 DUP4 PUSH2 0x49EA JUMP JUMPDEST SWAP3 POP POP PUSH1 0x1 DUP2 ADD SWAP1 POP PUSH2 0x4A0F JUMP JUMPDEST POP DUP6 SWAP3 POP POP POP SWAP4 SWAP3 POP POP POP JUMP JUMPDEST PUSH0 PUSH2 0x4A5F PUSH1 0x20 DUP5 ADD DUP5 PUSH2 0x34F7 JUMP JUMPDEST SWAP1 POP SWAP3 SWAP2 POP POP JUMP JUMPDEST PUSH0 PUSH2 0x4A75 PUSH1 0x20 DUP5 ADD DUP5 PUSH2 0x469E JUMP JUMPDEST SWAP1 POP SWAP3 SWAP2 POP POP JUMP JUMPDEST PUSH0 PUSH2 0x4A8B PUSH1 0x20 DUP5 ADD DUP5 PUSH2 0x34C4 JUMP JUMPDEST SWAP1 POP SWAP3 SWAP2 POP POP JUMP JUMPDEST PUSH2 0x4A9C DUP2 PUSH2 0x34A5 JUMP JUMPDEST DUP3 MSTORE POP POP JUMP JUMPDEST PUSH0 PUSH2 0x120 DUP4 ADD PUSH2 0x4AB4 PUSH0 DUP5 ADD DUP5 PUSH2 0x4938 JUMP JUMPDEST PUSH2 0x4AC0 PUSH0 DUP7 ADD DUP3 PUSH2 0x3652 JUMP JUMPDEST POP PUSH2 0x4ACE PUSH1 0x20 DUP5 ADD DUP5 PUSH2 0x494E JUMP JUMPDEST PUSH2 0x4ADB PUSH1 0x20 DUP7 ADD DUP3 PUSH2 0x4964 JUMP JUMPDEST POP PUSH2 0x4AE9 PUSH1 0x40 DUP5 ADD DUP5 PUSH2 0x497F JUMP JUMPDEST DUP6 DUP4 SUB PUSH1 0x40 DUP8 ADD MSTORE PUSH2 0x4AFC DUP4 DUP3 DUP5 PUSH2 0x49F6 JUMP JUMPDEST SWAP3 POP POP POP PUSH2 0x4B0D PUSH1 0x60 DUP5 ADD DUP5 PUSH2 0x4A51 JUMP JUMPDEST PUSH2 0x4B1A PUSH1 0x60 DUP7 ADD DUP3 PUSH2 0x3AA1 JUMP JUMPDEST POP PUSH2 0x4B28 PUSH1 0x80 DUP5 ADD DUP5 PUSH2 0x4A67 JUMP JUMPDEST PUSH2 0x4B35 PUSH1 0x80 DUP7 ADD DUP3 PUSH2 0x3ACB JUMP JUMPDEST POP PUSH2 0x4B43 PUSH1 0xA0 DUP5 ADD DUP5 PUSH2 0x4A67 JUMP JUMPDEST PUSH2 0x4B50 PUSH1 0xA0 DUP7 ADD DUP3 PUSH2 0x3ACB JUMP JUMPDEST POP PUSH2 0x4B5E PUSH1 0xC0 DUP5 ADD DUP5 PUSH2 0x4A67 JUMP JUMPDEST PUSH2 0x4B6B PUSH1 0xC0 DUP7 ADD DUP3 PUSH2 0x3ACB JUMP JUMPDEST POP PUSH2 0x4B79 PUSH1 0xE0 DUP5 ADD DUP5 PUSH2 0x4A67 JUMP JUMPDEST PUSH2 0x4B86 PUSH1 0xE0 DUP7 ADD DUP3 PUSH2 0x3ACB JUMP JUMPDEST POP PUSH2 0x4B95 PUSH2 0x100 DUP5 ADD DUP5 PUSH2 0x4A7D JUMP JUMPDEST PUSH2 0x4BA3 PUSH2 0x100 DUP7 ADD DUP3 PUSH2 0x4A93 JUMP JUMPDEST POP DUP1 SWAP2 POP POP SWAP3 SWAP2 POP POP JUMP JUMPDEST PUSH0 PUSH1 0x20 DUP3 ADD SWAP1 POP DUP2 DUP2 SUB PUSH0 DUP4 ADD MSTORE PUSH2 0x4BC6 DUP2 DUP5 PUSH2 0x4AA2 JUMP JUMPDEST SWAP1 POP SWAP3 SWAP2 POP POP JUMP JUMPDEST PUSH0 PUSH2 0x4BD8 DUP3 PUSH2 0x34D8 JUMP JUMPDEST SWAP2 POP PUSH32 0xFFFFFFFFFFFFFFFFFFFFFFFFFFFFFFFFFFFFFFFFFFFFFFFFFFFFFFFFFFFFFFFF DUP3 SUB PUSH2 0x4C0A JUMPI PUSH2 0x4C09 PUSH2 0x4876 JUMP JUMPDEST JUMPDEST PUSH1 0x1 DUP3 ADD SWAP1 POP SWAP2 SWAP1 POP JUMP JUMPDEST PUSH0 DUP2 SWAP1 POP SWAP2 SWAP1 POP JUMP JUMPDEST PUSH0 PUSH24 0xFFFFFFFFFFFFFFFFFFFFFFFFFFFFFFFFFFFFFFFFFFFFFFFF DUP3 AND SWAP1 POP SWAP2 SWAP1 POP JUMP JUMPDEST PUSH0 PUSH2 0x4C5B PUSH2 0x4C56 PUSH2 0x4C51 DUP5 PUSH2 0x4C15 JUMP JUMPDEST PUSH2 0x3E02 JUMP JUMPDEST PUSH2 0x4C1E JUMP JUMPDEST SWAP1 POP SWAP2 SWAP1 POP JUMP JUMPDEST PUSH2 0x4C6B DUP2 PUSH2 0x4C41 JUMP JUMPDEST DUP3 MSTORE POP POP JUMP JUMPDEST PUSH0 PUSH1 0x40 DUP3 ADD SWAP1 POP PUSH2 0x4C84 PUSH0 DUP4 ADD DUP6 PUSH2 0x3BFF JUMP JUMPDEST PUSH2 0x4C91 PUSH1 0x20 DUP4 ADD DUP5 PUSH2 0x4C62 JUMP JUMPDEST SWAP4 SWAP3 POP POP POP JUMP JUMPDEST PUSH0 DUP2 MLOAD SWAP1 POP PUSH2 0x4CA6 DUP2 PUSH2 0x34E1 JUMP JUMPDEST SWAP3 SWAP2 POP POP JUMP JUMPDEST PUSH0 PUSH1 0x20 DUP3 DUP5 SUB SLT ISZERO PUSH2 0x4CC1 JUMPI PUSH2 0x4CC0 PUSH2 0x3368 JUMP JUMPDEST JUMPDEST PUSH0 PUSH2 0x4CCE DUP5 DUP3 DUP6 ADD PUSH2 0x4C98 JUMP JUMPDEST SWAP2 POP POP SWAP3 SWAP2 POP POP JUMP JUMPDEST PUSH32 0x496E697469616C697A61626C653A20636F6E747261637420697320616C726561 PUSH0 DUP3 ADD MSTORE PUSH32 0x647920696E697469616C697A6564000000000000000000000000000000000000 PUSH1 0x20 DUP3 ADD MSTORE POP JUMP JUMPDEST PUSH0 PUSH2 0x4D31 PUSH1 0x2E DUP4 PUSH2 0x32E7 JUMP JUMPDEST SWAP2 POP PUSH2 0x4D3C DUP3 PUSH2 0x4CD7 JUMP JUMPDEST PUSH1 0x40 DUP3 ADD SWAP1 POP SWAP2 SWAP1 POP JUMP JUMPDEST PUSH0 PUSH1 0x20 DUP3 ADD SWAP1 POP DUP2 DUP2 SUB PUSH0 DUP4 ADD MSTORE PUSH2 0x4D5E DUP2 PUSH2 0x4D25 JUMP JUMPDEST SWAP1 POP SWAP2 SWAP1 POP JUMP JUMPDEST PUSH0 DUP2 SWAP1 POP SWAP2 SWAP1 POP JUMP JUMPDEST PUSH0 PUSH2 0x4D88 PUSH2 0x4D83 PUSH2 0x4D7E DUP5 PUSH2 0x4D65 JUMP JUMPDEST PUSH2 0x3E02 JUMP JUMPDEST PUSH2 0x47AD JUMP JUMPDEST SWAP1 POP SWAP2 SWAP1 POP JUMP JUMPDEST PUSH2 0x4D98 DUP2 PUSH2 0x4D6E JUMP JUMPDEST DUP3 MSTORE POP POP JUMP JUMPDEST PUSH0 PUSH1 0x20 DUP3 ADD SWAP1 POP PUSH2 0x4DB1 PUSH0 DUP4 ADD DUP5 PUSH2 0x4D8F JUMP JUMPDEST SWAP3 SWAP2 POP POP JUMP JUMPDEST PUSH32 0x2144617461000000000000000000000000000000000000000000000000000000 PUSH0 DUP3 ADD MSTORE POP JUMP JUMPDEST PUSH0 PUSH2 0x4DEB PUSH1 0x5 DUP4 PUSH2 0x32E7 JUMP JUMPDEST SWAP2 POP PUSH2 0x4DF6 DUP3 PUSH2 0x4DB7 JUMP JUMPDEST PUSH1 0x20 DUP3 ADD SWAP1 POP SWAP2 SWAP1 POP JUMP JUMPDEST PUSH0 PUSH1 0x20 DUP3 ADD SWAP1 POP DUP2 DUP2 SUB PUSH0 DUP4 ADD MSTORE PUSH2 0x4E18 DUP2 PUSH2 0x4DDF JUMP JUMPDEST SWAP1 POP SWAP2 SWAP1 POP JUMP JUMPDEST PUSH0 DUP1 REVERT JUMPDEST PUSH0 DUP1 REVERT JUMPDEST PUSH0 DUP1 DUP6 DUP6 GT ISZERO PUSH2 0x4E3A JUMPI PUSH2 0x4E39 PUSH2 0x4E1F JUMP JUMPDEST JUMPDEST DUP4 DUP7 GT ISZERO PUSH2 0x4E4B JUMPI PUSH2 0x4E4A PUSH2 0x4E23 JUMP JUMPDEST JUMPDEST PUSH1 0x1 DUP6 MUL DUP4 ADD SWAP2 POP DUP5 DUP7 SUB SWAP1 POP SWAP5 POP SWAP5 SWAP3 POP POP POP JUMP JUMPDEST PUSH0 DUP3 SWAP1 POP SWAP3 SWAP2 POP POP JUMP JUMPDEST PUSH0 DUP3 DUP3 SHL SWAP1 POP SWAP3 SWAP2 POP POP JUMP JUMPDEST PUSH0 PUSH2 0x4E82 DUP4 DUP4 PUSH2 0x4E61 JUMP JUMPDEST DUP3 PUSH2 0x4E8D DUP2 CALLDATALOAD PUSH2 0x36DE JUMP JUMPDEST SWAP3 POP PUSH1 0x4 DUP3 LT ISZERO PUSH2 0x4ECD JUMPI PUSH2 0x4EC8 PUSH32 0xFFFFFFFF00000000000000000000000000000000000000000000000000000000 DUP4 PUSH1 0x4 SUB PUSH1 0x8 MUL PUSH2 0x4E6B JUMP JUMPDEST DUP4 AND SWAP3 POP JUMPDEST POP POP SWAP3 SWAP2 POP POP JUMP JUMPDEST PUSH0 PUSH2 0x4EDF DUP3 PUSH2 0x3370 JUMP JUMPDEST SWAP1 POP SWAP2 SWAP1 POP JUMP JUMPDEST PUSH2 0x4EEF DUP2 PUSH2 0x4ED5 JUMP JUMPDEST DUP2 EQ PUSH2 0x4EF9 JUMPI PUSH0 DUP1 REVERT JUMPDEST POP JUMP JUMPDEST PUSH0 DUP2 CALLDATALOAD SWAP1 POP PUSH2 0x4F0A DUP2 PUSH2 0x4EE6 JUMP JUMPDEST SWAP3 SWAP2 POP POP JUMP JUMPDEST PUSH0 PUSH1 0x20 DUP3 DUP5 SUB SLT ISZERO PUSH2 0x4F25 JUMPI PUSH2 0x4F24 PUSH2 0x3368 JUMP JUMPDEST JUMPDEST PUSH0 PUSH2 0x4F32 DUP5 DUP3 DUP6 ADD PUSH2 0x4EFC JUMP JUMPDEST SWAP2 POP POP SWAP3 SWAP2 POP POP JUMP JUMPDEST PUSH0 PUSH1 0x20 DUP3 DUP5 SUB SLT ISZERO PUSH2 0x4F50 JUMPI PUSH2 0x4F4F PUSH2 0x3368 JUMP JUMPDEST JUMPDEST PUSH0 PUSH2 0x4F5D DUP5 DUP3 DUP6 ADD PUSH2 0x34F7 JUMP JUMPDEST SWAP2 POP POP SWAP3 SWAP2 POP POP JUMP JUMPDEST PUSH0 PUSH8 0xFFFFFFFFFFFFFFFF DUP3 GT ISZERO PUSH2 0x4F80 JUMPI PUSH2 0x4F7F PUSH2 0x41C8 JUMP JUMPDEST JUMPDEST PUSH1 0x20 DUP3 MUL SWAP1 POP PUSH1 0x20 DUP2 ADD SWAP1 POP SWAP2 SWAP1 POP JUMP JUMPDEST PUSH0 PUSH2 0x4FA3 PUSH2 0x4F9E DUP5 PUSH2 0x4F66 JUMP JUMPDEST PUSH2 0x4226 JUMP JUMPDEST SWAP1 POP DUP1 DUP4 DUP3 MSTORE PUSH1 0x20 DUP3 ADD SWAP1 POP PUSH1 0x20 DUP5 MUL DUP4 ADD DUP6 DUP2 GT ISZERO PUSH2 0x4FC6 JUMPI PUSH2 0x4FC5 PUSH2 0x38FE JUMP JUMPDEST JUMPDEST DUP4 JUMPDEST DUP2 DUP2 LT ISZERO PUSH2 0x4FEF JUMPI DUP1 PUSH2 0x4FDB DUP9 DUP3 PUSH2 0x33B6 JUMP JUMPDEST DUP5 MSTORE PUSH1 0x20 DUP5 ADD SWAP4 POP POP PUSH1 0x20 DUP2 ADD SWAP1 POP PUSH2 0x4FC8 JUMP JUMPDEST POP POP POP SWAP4 SWAP3 POP POP POP JUMP JUMPDEST PUSH0 DUP3 PUSH1 0x1F DUP4 ADD SLT PUSH2 0x500D JUMPI PUSH2 0x500C PUSH2 0x38F6 JUMP JUMPDEST JUMPDEST DUP2 CALLDATALOAD PUSH2 0x501D DUP5 DUP3 PUSH1 0x20 DUP7 ADD PUSH2 0x4F91 JUMP JUMPDEST SWAP2 POP POP SWAP3 SWAP2 POP POP JUMP JUMPDEST PUSH0 PUSH8 0xFFFFFFFFFFFFFFFF DUP3 GT ISZERO PUSH2 0x5040 JUMPI PUSH2 0x503F PUSH2 0x41C8 JUMP JUMPDEST JUMPDEST PUSH1 0x20 DUP3 MUL SWAP1 POP PUSH1 0x20 DUP2 ADD SWAP1 POP SWAP2 SWAP1 POP JUMP JUMPDEST PUSH0 PUSH2 0x5063 PUSH2 0x505E DUP5 PUSH2 0x5026 JUMP JUMPDEST PUSH2 0x4226 JUMP JUMPDEST SWAP1 POP DUP1 DUP4 DUP3 MSTORE PUSH1 0x20 DUP3 ADD SWAP1 POP PUSH1 0x20 DUP5 MUL DUP4 ADD DUP6 DUP2 GT ISZERO PUSH2 0x5086 JUMPI PUSH2 0x5085 PUSH2 0x38FE JUMP JUMPDEST JUMPDEST DUP4 JUMPDEST DUP2 DUP2 LT ISZERO PUSH2 0x50AF JUMPI DUP1 PUSH2 0x509B DUP9 DUP3 PUSH2 0x34F7 JUMP JUMPDEST DUP5 MSTORE PUSH1 0x20 DUP5 ADD SWAP4 POP POP PUSH1 0x20 DUP2 ADD SWAP1 POP PUSH2 0x5088 JUMP JUMPDEST POP POP POP SWAP4 SWAP3 POP POP POP JUMP JUMPDEST PUSH0 DUP3 PUSH1 0x1F DUP4 ADD SLT PUSH2 0x50CD JUMPI PUSH2 0x50CC PUSH2 0x38F6 JUMP JUMPDEST JUMPDEST DUP2 CALLDATALOAD PUSH2 0x50DD DUP5 DUP3 PUSH1 0x20 DUP7 ADD PUSH2 0x5051 JUMP JUMPDEST SWAP2 POP POP SWAP3 SWAP2 POP POP JUMP JUMPDEST PUSH0 PUSH8 0xFFFFFFFFFFFFFFFF DUP3 GT ISZERO PUSH2 0x5100 JUMPI PUSH2 0x50FF PUSH2 0x41C8 JUMP JUMPDEST JUMPDEST PUSH1 0x20 DUP3 MUL SWAP1 POP PUSH1 0x20 DUP2 ADD SWAP1 POP SWAP2 SWAP1 POP JUMP JUMPDEST PUSH0 PUSH8 0xFFFFFFFFFFFFFFFF DUP3 GT ISZERO PUSH2 0x512B JUMPI PUSH2 0x512A PUSH2 0x41C8 JUMP JUMPDEST JUMPDEST PUSH2 0x5134 DUP3 PUSH2 0x360A JUMP JUMPDEST SWAP1 POP PUSH1 0x20 DUP2 ADD SWAP1 POP SWAP2 SWAP1 POP JUMP JUMPDEST DUP3 DUP2 DUP4 CALLDATACOPY PUSH0 DUP4 DUP4 ADD MSTORE POP POP POP JUMP JUMPDEST PUSH0 PUSH2 0x5161 PUSH2 0x515C DUP5 PUSH2 0x5111 JUMP JUMPDEST PUSH2 0x4226 JUMP JUMPDEST SWAP1 POP DUP3 DUP2 MSTORE PUSH1 0x20 DUP2 ADD DUP5 DUP5 DUP5 ADD GT ISZERO PUSH2 0x517D JUMPI PUSH2 0x517C PUSH2 0x4273 JUMP JUMPDEST JUMPDEST PUSH2 0x5188 DUP5 DUP3 DUP6 PUSH2 0x5141 JUMP JUMPDEST POP SWAP4 SWAP3 POP POP POP JUMP JUMPDEST PUSH0 DUP3 PUSH1 0x1F DUP4 ADD SLT PUSH2 0x51A4 JUMPI PUSH2 0x51A3 PUSH2 0x38F6 JUMP JUMPDEST JUMPDEST DUP2 CALLDATALOAD PUSH2 0x51B4 DUP5 DUP3 PUSH1 0x20 DUP7 ADD PUSH2 0x514F JUMP JUMPDEST SWAP2 POP POP SWAP3 SWAP2 POP POP JUMP JUMPDEST PUSH0 PUSH2 0x51CF PUSH2 0x51CA DUP5 PUSH2 0x50E6 JUMP JUMPDEST PUSH2 0x4226 JUMP JUMPDEST SWAP1 POP DUP1 DUP4 DUP3 MSTORE PUSH1 0x20 DUP3 ADD SWAP1 POP PUSH1 0x20 DUP5 MUL DUP4 ADD DUP6 DUP2 GT ISZERO PUSH2 0x51F2 JUMPI PUSH2 0x51F1 PUSH2 0x38FE JUMP JUMPDEST JUMPDEST DUP4 JUMPDEST DUP2 DUP2 LT ISZERO PUSH2 0x5239 JUMPI DUP1 CALLDATALOAD PUSH8 0xFFFFFFFFFFFFFFFF DUP2 GT ISZERO PUSH2 0x5217 JUMPI PUSH2 0x5216 PUSH2 0x38F6 JUMP JUMPDEST JUMPDEST DUP1 DUP7 ADD PUSH2 0x5224 DUP10 DUP3 PUSH2 0x5190 JUMP JUMPDEST DUP6 MSTORE PUSH1 0x20 DUP6 ADD SWAP5 POP POP POP PUSH1 0x20 DUP2 ADD SWAP1 POP PUSH2 0x51F4 JUMP JUMPDEST POP POP POP SWAP4 SWAP3 POP POP POP JUMP JUMPDEST PUSH0 DUP3 PUSH1 0x1F DUP4 ADD SLT PUSH2 0x5257 JUMPI PUSH2 0x5256 PUSH2 0x38F6 JUMP JUMPDEST JUMPDEST DUP2 CALLDATALOAD PUSH2 0x5267 DUP5 DUP3 PUSH1 0x20 DUP7 ADD PUSH2 0x51BD JUMP JUMPDEST SWAP2 POP POP SWAP3 SWAP2 POP POP JUMP JUMPDEST PUSH0 DUP1 PUSH0 PUSH1 0x60 DUP5 DUP7 SUB SLT ISZERO PUSH2 0x5287 JUMPI PUSH2 0x5286 PUSH2 0x3368 JUMP JUMPDEST JUMPDEST PUSH0 DUP5 ADD CALLDATALOAD PUSH8 0xFFFFFFFFFFFFFFFF DUP2 GT ISZERO PUSH2 0x52A4 JUMPI PUSH2 0x52A3 PUSH2 0x336C JUMP JUMPDEST JUMPDEST PUSH2 0x52B0 DUP7 DUP3 DUP8 ADD PUSH2 0x4FF9 JUMP JUMPDEST SWAP4 POP POP PUSH1 0x20 DUP5 ADD CALLDATALOAD PUSH8 0xFFFFFFFFFFFFFFFF DUP2 GT ISZERO PUSH2 0x52D1 JUMPI PUSH2 0x52D0 PUSH2 0x336C JUMP JUMPDEST JUMPDEST PUSH2 0x52DD DUP7 DUP3 DUP8 ADD PUSH2 0x50B9 JUMP JUMPDEST SWAP3 POP POP PUSH1 0x40 DUP5 ADD CALLDATALOAD PUSH8 0xFFFFFFFFFFFFFFFF DUP2 GT ISZERO PUSH2 0x52FE JUMPI PUSH2 0x52FD PUSH2 0x336C JUMP JUMPDEST JUMPDEST PUSH2 0x530A DUP7 DUP3 DUP8 ADD PUSH2 0x5243 JUMP JUMPDEST SWAP2 POP POP SWAP3 POP SWAP3 POP SWAP3 JUMP JUMPDEST PUSH32 0x6163636F756E743A206E6F742066726F6D20456E747279506F696E7400000000 PUSH0 DUP3 ADD MSTORE POP JUMP JUMPDEST PUSH0 PUSH2 0x5348 PUSH1 0x1C DUP4 PUSH2 0x32E7 JUMP JUMPDEST SWAP2 POP PUSH2 0x5353 DUP3 PUSH2 0x5314 JUMP JUMPDEST PUSH1 0x20 DUP3 ADD SWAP1 POP SWAP2 SWAP1 POP JUMP JUMPDEST PUSH0 PUSH1 0x20 DUP3 ADD SWAP1 POP DUP2 DUP2 SUB PUSH0 DUP4 ADD MSTORE PUSH2 0x5375 DUP2 PUSH2 0x533C JUMP JUMPDEST SWAP1 POP SWAP2 SWAP1 POP JUMP JUMPDEST PUSH0 DUP2 SWAP1 POP SWAP3 SWAP2 POP POP JUMP JUMPDEST POP JUMP JUMPDEST PUSH0 PUSH2 0x5394 PUSH0 DUP4 PUSH2 0x537C JUMP JUMPDEST SWAP2 POP PUSH2 0x539F DUP3 PUSH2 0x5386 JUMP JUMPDEST PUSH0 DUP3 ADD SWAP1 POP SWAP2 SWAP1 POP JUMP JUMPDEST PUSH0 PUSH2 0x53B3 DUP3 PUSH2 0x5389 JUMP JUMPDEST SWAP2 POP DUP2 SWAP1 POP SWAP2 SWAP1 POP JUMP JUMPDEST PUSH2 0x53C6 DUP2 PUSH2 0x34A5 JUMP JUMPDEST DUP3 MSTORE POP POP JUMP JUMPDEST PUSH0 PUSH1 0x40 DUP3 ADD SWAP1 POP PUSH2 0x53DF PUSH0 DUP4 ADD DUP6 PUSH2 0x3BFF JUMP JUMPDEST PUSH2 0x53EC PUSH1 0x20 DUP4 ADD DUP5 PUSH2 0x53BD JUMP JUMPDEST SWAP4 SWAP3 POP POP POP JUMP JUMPDEST PUSH0 DUP2 SWAP1 POP SWAP3 SWAP2 POP POP JUMP JUMPDEST PUSH2 0x5406 DUP2 PUSH2 0x338F JUMP JUMPDEST DUP3 MSTORE POP POP JUMP JUMPDEST PUSH0 PUSH2 0x5417 DUP4 DUP4 PUSH2 0x53FD JUMP JUMPDEST PUSH1 0x20 DUP4 ADD SWAP1 POP SWAP3 SWAP2 POP POP JUMP JUMPDEST PUSH0 PUSH2 0x542E DUP4 DUP6 PUSH2 0x53F3 JUMP JUMPDEST SWAP4 POP PUSH2 0x5439 DUP3 PUSH2 0x49E1 JUMP JUMPDEST DUP1 PUSH0 JUMPDEST DUP6 DUP2 LT ISZERO PUSH2 0x5471 JUMPI PUSH2 0x544E DUP3 DUP5 PUSH2 0x4938 JUMP JUMPDEST PUSH2 0x5458 DUP9 DUP3 PUSH2 0x540C JUMP JUMPDEST SWAP8 POP PUSH2 0x5463 DUP4 PUSH2 0x49EA JUMP JUMPDEST SWAP3 POP POP PUSH1 0x1 DUP2 ADD SWAP1 POP PUSH2 0x543C JUMP JUMPDEST POP DUP6 SWAP3 POP POP POP SWAP4 SWAP3 POP POP POP JUMP JUMPDEST PUSH0 PUSH2 0x548A DUP3 DUP5 DUP7 PUSH2 0x5423 JUMP JUMPDEST SWAP2 POP DUP2 SWAP1 POP SWAP4 SWAP3 POP POP POP JUMP JUMPDEST PUSH2 0x549F DUP2 PUSH2 0x47AD JUMP JUMPDEST DUP3 MSTORE POP POP JUMP JUMPDEST PUSH2 0x54AE DUP2 PUSH2 0x3AB0 JUMP JUMPDEST DUP3 MSTORE POP POP JUMP JUMPDEST PUSH0 PUSH2 0x140 DUP3 ADD SWAP1 POP PUSH2 0x54C8 PUSH0 DUP4 ADD DUP14 PUSH2 0x53BD JUMP JUMPDEST PUSH2 0x54D5 PUSH1 0x20 DUP4 ADD DUP13 PUSH2 0x3BFF JUMP JUMPDEST PUSH2 0x54E2 PUSH1 0x40 DUP4 ADD DUP12 PUSH2 0x5496 JUMP JUMPDEST PUSH2 0x54EF PUSH1 0x60 DUP4 ADD DUP11 PUSH2 0x53BD JUMP JUMPDEST PUSH2 0x54FC PUSH1 0x80 DUP4 ADD DUP10 PUSH2 0x3577 JUMP JUMPDEST PUSH2 0x5509 PUSH1 0xA0 DUP4 ADD DUP9 PUSH2 0x54A5 JUMP JUMPDEST PUSH2 0x5516 PUSH1 0xC0 DUP4 ADD DUP8 PUSH2 0x54A5 JUMP JUMPDEST PUSH2 0x5523 PUSH1 0xE0 DUP4 ADD DUP7 PUSH2 0x54A5 JUMP JUMPDEST PUSH2 0x5531 PUSH2 0x100 DUP4 ADD DUP6 PUSH2 0x54A5 JUMP JUMPDEST PUSH2 0x553F PUSH2 0x120 DUP4 ADD DUP5 PUSH2 0x53BD JUMP JUMPDEST SWAP12 SWAP11 POP POP POP POP POP POP POP POP POP POP POP JUMP JUMPDEST PUSH32 0x2161646D696E0000000000000000000000000000000000000000000000000000 PUSH0 DUP3 ADD MSTORE POP JUMP JUMPDEST PUSH0 PUSH2 0x5582 PUSH1 0x6 DUP4 PUSH2 0x32E7 JUMP JUMPDEST SWAP2 POP PUSH2 0x558D DUP3 PUSH2 0x554E JUMP JUMPDEST PUSH1 0x20 DUP3 ADD SWAP1 POP SWAP2 SWAP1 POP JUMP JUMPDEST PUSH0 PUSH1 0x20 DUP3 ADD SWAP1 POP DUP2 DUP2 SUB PUSH0 DUP4 ADD MSTORE PUSH2 0x55AF DUP2 PUSH2 0x5576 JUMP JUMPDEST SWAP1 POP SWAP2 SWAP1 POP JUMP JUMPDEST PUSH0 DUP3 DUP3 MSTORE PUSH1 0x20 DUP3 ADD SWAP1 POP SWAP3 SWAP2 POP POP JUMP JUMPDEST PUSH0 PUSH2 0x55D0 DUP3 PUSH2 0x3CFE JUMP JUMPDEST PUSH2 0x55DA DUP2 DUP6 PUSH2 0x55B6 JUMP JUMPDEST SWAP4 POP PUSH2 0x55EA DUP2 DUP6 PUSH1 0x20 DUP7 ADD PUSH2 0x35E2 JUMP JUMPDEST PUSH2 0x55F3 DUP2 PUSH2 0x360A JUMP JUMPDEST DUP5 ADD SWAP2 POP POP SWAP3 SWAP2 POP POP JUMP JUMPDEST PUSH0 PUSH1 0x40 DUP3 ADD SWAP1 POP PUSH2 0x5611 PUSH0 DUP4 ADD DUP6 PUSH2 0x3BFF JUMP JUMPDEST DUP2 DUP2 SUB PUSH1 0x20 DUP4 ADD MSTORE PUSH2 0x5623 DUP2 DUP5 PUSH2 0x55C6 JUMP JUMPDEST SWAP1 POP SWAP4 SWAP3 POP POP POP JUMP JUMPDEST PUSH0 PUSH2 0x5636 DUP3 PUSH2 0x34D8 JUMP JUMPDEST SWAP2 POP PUSH2 0x5641 DUP4 PUSH2 0x34D8 JUMP JUMPDEST SWAP3 POP DUP3 DUP3 SUB SWAP1 POP DUP2 DUP2 GT ISZERO PUSH2 0x5659 JUMPI PUSH2 0x5658 PUSH2 0x4876 JUMP JUMPDEST JUMPDEST SWAP3 SWAP2 POP POP JUMP JUMPDEST PUSH32 0x4E487B7100000000000000000000000000000000000000000000000000000000 PUSH0 MSTORE PUSH1 0x31 PUSH1 0x4 MSTORE PUSH1 0x24 PUSH0 REVERT JUMPDEST PUSH32 0x416464726573733A20696E76616C69642064656C65676174652063616C6C0000 PUSH0 DUP3 ADD MSTORE POP JUMP JUMPDEST PUSH0 PUSH2 0x56C0 PUSH1 0x1E DUP4 PUSH2 0x32E7 JUMP JUMPDEST SWAP2 POP PUSH2 0x56CB DUP3 PUSH2 0x568C JUMP JUMPDEST PUSH1 0x20 DUP3 ADD SWAP1 POP SWAP2 SWAP1 POP JUMP JUMPDEST PUSH0 PUSH1 0x20 DUP3 ADD SWAP1 POP DUP2 DUP2 SUB PUSH0 DUP4 ADD MSTORE PUSH2 0x56ED DUP2 PUSH2 0x56B4 JUMP JUMPDEST SWAP1 POP SWAP2 SWAP1 POP JUMP JUMPDEST PUSH0 PUSH2 0x56FE DUP3 PUSH2 0x3CFE JUMP JUMPDEST PUSH2 0x5708 DUP2 DUP6 PUSH2 0x537C JUMP JUMPDEST SWAP4 POP PUSH2 0x5718 DUP2 DUP6 PUSH1 0x20 DUP7 ADD PUSH2 0x35E2 JUMP JUMPDEST DUP1 DUP5 ADD SWAP2 POP POP SWAP3 SWAP2 POP POP JUMP JUMPDEST PUSH0 PUSH2 0x572F DUP3 DUP5 PUSH2 0x56F4 JUMP JUMPDEST SWAP2 POP DUP2 SWAP1 POP SWAP3 SWAP2 POP POP JUMP JUMPDEST PUSH32 0x4E487B7100000000000000000000000000000000000000000000000000000000 PUSH0 MSTORE PUSH1 0x21 PUSH1 0x4 MSTORE PUSH1 0x24 PUSH0 REVERT JUMPDEST PUSH32 0x45434453413A20696E76616C6964207369676E61747572650000000000000000 PUSH0 DUP3 ADD MSTORE POP JUMP JUMPDEST PUSH0 PUSH2 0x579B PUSH1 0x18 DUP4 PUSH2 0x32E7 JUMP JUMPDEST SWAP2 POP PUSH2 0x57A6 DUP3 PUSH2 0x5767 JUMP JUMPDEST PUSH1 0x20 DUP3 ADD SWAP1 POP SWAP2 SWAP1 POP JUMP JUMPDEST PUSH0 PUSH1 0x20 DUP3 ADD SWAP1 POP DUP2 DUP2 SUB PUSH0 DUP4 ADD MSTORE PUSH2 0x57C8 DUP2 PUSH2 0x578F JUMP JUMPDEST SWAP1 POP SWAP2 SWAP1 POP JUMP JUMPDEST PUSH32 0x45434453413A20696E76616C6964207369676E6174757265206C656E67746800 PUSH0 DUP3 ADD MSTORE POP JUMP JUMPDEST PUSH0 PUSH2 0x5803 PUSH1 0x1F DUP4 PUSH2 0x32E7 JUMP JUMPDEST SWAP2 POP PUSH2 0x580E DUP3 PUSH2 0x57CF JUMP JUMPDEST PUSH1 0x20 DUP3 ADD SWAP1 POP SWAP2 SWAP1 POP JUMP JUMPDEST PUSH0 PUSH1 0x20 DUP3 ADD SWAP1 POP DUP2 DUP2 SUB PUSH0 DUP4 ADD MSTORE PUSH2 0x5830 DUP2 PUSH2 0x57F7 JUMP JUMPDEST SWAP1 POP SWAP2 SWAP1 POP JUMP JUMPDEST PUSH32 0x45434453413A20696E76616C6964207369676E6174757265202773272076616C PUSH0 DUP3 ADD MSTORE PUSH32 0x7565000000000000000000000000000000000000000000000000000000000000 PUSH1 0x20 DUP3 ADD MSTORE POP JUMP JUMPDEST PUSH0 PUSH2 0x5891 PUSH1 0x22 DUP4 PUSH2 0x32E7 JUMP JUMPDEST SWAP2 POP PUSH2 0x589C DUP3 PUSH2 0x5837 JUMP JUMPDEST PUSH1 0x40 DUP3 ADD SWAP1 POP SWAP2 SWAP1 POP JUMP JUMPDEST PUSH0 PUSH1 0x20 DUP3 ADD SWAP1 POP DUP2 DUP2 SUB PUSH0 DUP4 ADD MSTORE PUSH2 0x58BE DUP2 PUSH2 0x5885 JUMP JUMPDEST SWAP1 POP SWAP2 SWAP1 POP JUMP JUMPDEST PUSH0 PUSH2 0x58CF DUP3 PUSH2 0x35C8 JUMP JUMPDEST PUSH2 0x58D9 DUP2 DUP6 PUSH2 0x32E7 JUMP JUMPDEST SWAP4 POP PUSH2 0x58E9 DUP2 DUP6 PUSH1 0x20 DUP7 ADD PUSH2 0x35E2 JUMP JUMPDEST PUSH2 0x58F2 DUP2 PUSH2 0x360A JUMP JUMPDEST DUP5 ADD SWAP2 POP POP SWAP3 SWAP2 POP POP JUMP JUMPDEST PUSH0 PUSH1 0x20 DUP3 ADD SWAP1 POP DUP2 DUP2 SUB PUSH0 DUP4 ADD MSTORE PUSH2 0x5915 DUP2 DUP5 PUSH2 0x58C5 JUMP JUMPDEST SWAP1 POP SWAP3 SWAP2 POP POP JUMP JUMPDEST PUSH0 PUSH1 0x80 DUP3 ADD SWAP1 POP PUSH2 0x5930 PUSH0 DUP4 ADD DUP8 PUSH2 0x53BD JUMP JUMPDEST PUSH2 0x593D PUSH1 0x20 DUP4 ADD DUP7 PUSH2 0x5496 JUMP JUMPDEST PUSH2 0x594A PUSH1 0x40 DUP4 ADD DUP6 PUSH2 0x53BD JUMP JUMPDEST PUSH2 0x5957 PUSH1 0x60 DUP4 ADD DUP5 PUSH2 0x53BD JUMP JUMPDEST SWAP6 SWAP5 POP POP POP POP POP JUMP JUMPDEST PUSH0 PUSH1 0xA0 DUP3 ADD SWAP1 POP PUSH2 0x5973 PUSH0 DUP4 ADD DUP9 PUSH2 0x53BD JUMP JUMPDEST PUSH2 0x5980 PUSH1 0x20 DUP4 ADD DUP8 PUSH2 0x53BD JUMP JUMPDEST PUSH2 0x598D PUSH1 0x40 DUP4 ADD DUP7 PUSH2 0x53BD JUMP JUMPDEST PUSH2 0x599A PUSH1 0x60 DUP4 ADD DUP6 PUSH2 0x3577 JUMP JUMPDEST PUSH2 0x59A7 PUSH1 0x80 DUP4 ADD DUP5 PUSH2 0x3BFF JUMP JUMPDEST SWAP7 SWAP6 POP POP POP POP POP POP JUMP INVALID COINBASE PUSH5 0x6472657373 GASPRICE KECCAK256 PUSH13 0x6F772D6C6576656C2064656C65 PUSH8 0x6174652063616C6C KECCAK256 PUSH7 0x61696C6564A264 PUSH10 0x70667358221220349A31 0xDC PUSH31 0x891E8EE618D290F01504B998B87F4A16C2166B200732BDC8CB558464736F6C PUSH4 0x43000818 STOP CALLER "
		},
		"gasEstimates": {
			"creation": {
				"codeDepositCost": "4610800",
				"executionCost": "infinite",
				"totalCost": "infinite"
			},
			"external": {
				"": "infinite",
				"entryPoint()": "infinite",
				"factory()": "infinite",
				"getAllActiveSigners()": "infinite",
				"getAllAdmins()": "infinite",
				"getAllExtensions()": "infinite",
				"getAllSigners()": "infinite",
				"getImplementationForFunction(bytes4)": "infinite",
				"getNonce()": "infinite",
				"getPermissionsForSigner(address)": "infinite",
				"initialize(address,bytes)": "infinite",
				"isActiveSigner(address)": "infinite",
				"isAdmin(address)": "3008",
				"isValidSigner(address,(address,uint256,bytes,bytes,uint256,uint256,uint256,uint256,uint256,bytes,bytes))": "infinite",
				"multicall(bytes[])": "infinite",
				"setEntrypointOverride(address)": "27256",
				"setPermissionsForSigner((address,uint8,address[],uint256,uint128,uint128,uint128,uint128,bytes32),bytes)": "infinite",
				"validateUserOp((address,uint256,bytes,bytes,uint256,uint256,uint256,uint256,uint256,bytes,bytes),bytes32,uint256)": "infinite",
				"verifySignerPermissionRequest((address,uint8,address[],uint256,uint128,uint128,uint128,uint128,bytes32),bytes)": "infinite"
			}
		},
		"methodIdentifiers": {
			"entryPoint()": "b0d691fe",
			"factory()": "c45a0155",
			"getAllActiveSigners()": "8b52d723",
			"getAllAdmins()": "e9523c97",
			"getAllExtensions()": "4a00cc48",
			"getAllSigners()": "d42f2f35",
			"getImplementationForFunction(bytes4)": "ce0b6013",
			"getNonce()": "d087d288",
			"getPermissionsForSigner(address)": "f15d424e",
			"initialize(address,bytes)": "d1f57894",
			"isActiveSigner(address)": "7dff5a79",
			"isAdmin(address)": "24d7806c",
			"isValidSigner(address,(address,uint256,bytes,bytes,uint256,uint256,uint256,uint256,uint256,bytes,bytes))": "1dd756c5",
			"multicall(bytes[])": "ac9650d8",
			"setEntrypointOverride(address)": "b76464d5",
			"setPermissionsForSigner((address,uint8,address[],uint256,uint128,uint128,uint128,uint128,bytes32),bytes)": "5892e236",
			"validateUserOp((address,uint256,bytes,bytes,uint256,uint256,uint256,uint256,uint256,bytes,bytes),bytes32,uint256)": "3a871cdd",
			"verifySignerPermissionRequest((address,uint8,address[],uint256,uint128,uint128,uint128,uint128,bytes32),bytes)": "a9082d84"
		}
	},
	"abi": [
		{
			"inputs": [
				{
					"internalType": "contract IEntryPoint",
					"name": "_entrypoint",
					"type": "address"
				},
				{
					"internalType": "address",
					"name": "_factory",
					"type": "address"
				}
			],
			"stateMutability": "nonpayable",
			"type": "constructor"
		},
		{
			"anonymous": false,
			"inputs": [
				{
					"indexed": true,
					"internalType": "address",
					"name": "signer",
					"type": "address"
				},
				{
					"indexed": false,
					"internalType": "bool",
					"name": "isAdmin",
					"type": "bool"
				}
			],
			"name": "AdminUpdated",
			"type": "event"
		},
		{
			"anonymous": false,
			"inputs": [
				{
					"indexed": false,
					"internalType": "uint8",
					"name": "version",
					"type": "uint8"
				}
			],
			"name": "Initialized",
			"type": "event"
		},
		{
			"anonymous": false,
			"inputs": [
				{
					"indexed": true,
					"internalType": "address",
					"name": "authorizingSigner",
					"type": "address"
				},
				{
					"indexed": true,
					"internalType": "address",
					"name": "targetSigner",
					"type": "address"
				},
				{
					"components": [
						{
							"internalType": "address",
							"name": "signer",
							"type": "address"
						},
						{
							"internalType": "uint8",
							"name": "isAdmin",
							"type": "uint8"
						},
						{
							"internalType": "address[]",
							"name": "approvedTargets",
							"type": "address[]"
						},
						{
							"internalType": "uint256",
							"name": "nativeTokenLimitPerTransaction",
							"type": "uint256"
						},
						{
							"internalType": "uint128",
							"name": "permissionStartTimestamp",
							"type": "uint128"
						},
						{
							"internalType": "uint128",
							"name": "permissionEndTimestamp",
							"type": "uint128"
						},
						{
							"internalType": "uint128",
							"name": "reqValidityStartTimestamp",
							"type": "uint128"
						},
						{
							"internalType": "uint128",
							"name": "reqValidityEndTimestamp",
							"type": "uint128"
						},
						{
							"internalType": "bytes32",
							"name": "uid",
							"type": "bytes32"
						}
					],
					"indexed": false,
					"internalType": "struct IAccountPermissions.SignerPermissionRequest",
					"name": "permissions",
					"type": "tuple"
				}
			],
			"name": "SignerPermissionsUpdated",
			"type": "event"
		},
		{
			"stateMutability": "payable",
			"type": "fallback"
		},
		{
			"inputs": [],
			"name": "entryPoint",
			"outputs": [
				{
					"internalType": "contract IEntryPoint",
					"name": "",
					"type": "address"
				}
			],
			"stateMutability": "view",
			"type": "function"
		},
		{
			"inputs": [],
			"name": "factory",
			"outputs": [
				{
					"internalType": "address",
					"name": "",
					"type": "address"
				}
			],
			"stateMutability": "view",
			"type": "function"
		},
		{
			"inputs": [],
			"name": "getAllActiveSigners",
			"outputs": [
				{
					"components": [
						{
							"internalType": "address",
							"name": "signer",
							"type": "address"
						},
						{
							"internalType": "address[]",
							"name": "approvedTargets",
							"type": "address[]"
						},
						{
							"internalType": "uint256",
							"name": "nativeTokenLimitPerTransaction",
							"type": "uint256"
						},
						{
							"internalType": "uint128",
							"name": "startTimestamp",
							"type": "uint128"
						},
						{
							"internalType": "uint128",
							"name": "endTimestamp",
							"type": "uint128"
						}
					],
					"internalType": "struct IAccountPermissions.SignerPermissions[]",
					"name": "signers",
					"type": "tuple[]"
				}
			],
			"stateMutability": "view",
			"type": "function"
		},
		{
			"inputs": [],
			"name": "getAllAdmins",
			"outputs": [
				{
					"internalType": "address[]",
					"name": "",
					"type": "address[]"
				}
			],
			"stateMutability": "view",
			"type": "function"
		},
		{
			"inputs": [],
			"name": "getAllExtensions",
			"outputs": [
				{
					"components": [
						{
							"components": [
								{
									"internalType": "string",
									"name": "name",
									"type": "string"
								},
								{
									"internalType": "string",
									"name": "metadataURI",
									"type": "string"
								},
								{
									"internalType": "address",
									"name": "implementation",
									"type": "address"
								}
							],
							"internalType": "struct IExtension.ExtensionMetadata",
							"name": "metadata",
							"type": "tuple"
						},
						{
							"components": [
								{
									"internalType": "bytes4",
									"name": "functionSelector",
									"type": "bytes4"
								},
								{
									"internalType": "string",
									"name": "functionSignature",
									"type": "string"
								}
							],
							"internalType": "struct IExtension.ExtensionFunction[]",
							"name": "functions",
							"type": "tuple[]"
						}
					],
					"internalType": "struct IExtension.Extension[]",
					"name": "",
					"type": "tuple[]"
				}
			],
			"stateMutability": "view",
			"type": "function"
		},
		{
			"inputs": [],
			"name": "getAllSigners",
			"outputs": [
				{
					"components": [
						{
							"internalType": "address",
							"name": "signer",
							"type": "address"
						},
						{
							"internalType": "address[]",
							"name": "approvedTargets",
							"type": "address[]"
						},
						{
							"internalType": "uint256",
							"name": "nativeTokenLimitPerTransaction",
							"type": "uint256"
						},
						{
							"internalType": "uint128",
							"name": "startTimestamp",
							"type": "uint128"
						},
						{
							"internalType": "uint128",
							"name": "endTimestamp",
							"type": "uint128"
						}
					],
					"internalType": "struct IAccountPermissions.SignerPermissions[]",
					"name": "signers",
					"type": "tuple[]"
				}
			],
			"stateMutability": "view",
			"type": "function"
		},
		{
			"inputs": [
				{
					"internalType": "bytes4",
					"name": "_functionSelector",
					"type": "bytes4"
				}
			],
			"name": "getImplementationForFunction",
			"outputs": [
				{
					"internalType": "address",
					"name": "",
					"type": "address"
				}
			],
			"stateMutability": "view",
			"type": "function"
		},
		{
			"inputs": [],
			"name": "getNonce",
			"outputs": [
				{
					"internalType": "uint256",
					"name": "",
					"type": "uint256"
				}
			],
			"stateMutability": "view",
			"type": "function"
		},
		{
			"inputs": [
				{
					"internalType": "address",
					"name": "signer",
					"type": "address"
				}
			],
			"name": "getPermissionsForSigner",
			"outputs": [
				{
					"components": [
						{
							"internalType": "address",
							"name": "signer",
							"type": "address"
						},
						{
							"internalType": "address[]",
							"name": "approvedTargets",
							"type": "address[]"
						},
						{
							"internalType": "uint256",
							"name": "nativeTokenLimitPerTransaction",
							"type": "uint256"
						},
						{
							"internalType": "uint128",
							"name": "startTimestamp",
							"type": "uint128"
						},
						{
							"internalType": "uint128",
							"name": "endTimestamp",
							"type": "uint128"
						}
					],
					"internalType": "struct IAccountPermissions.SignerPermissions",
					"name": "",
					"type": "tuple"
				}
			],
			"stateMutability": "view",
			"type": "function"
		},
		{
			"inputs": [
				{
					"internalType": "address",
					"name": "_defaultAdmin",
					"type": "address"
				},
				{
					"internalType": "bytes",
					"name": "_data",
					"type": "bytes"
				}
			],
			"name": "initialize",
			"outputs": [],
			"stateMutability": "nonpayable",
			"type": "function"
		},
		{
			"inputs": [
				{
					"internalType": "address",
					"name": "signer",
					"type": "address"
				}
			],
			"name": "isActiveSigner",
			"outputs": [
				{
					"internalType": "bool",
					"name": "",
					"type": "bool"
				}
			],
			"stateMutability": "view",
			"type": "function"
		},
		{
			"inputs": [
				{
					"internalType": "address",
					"name": "_account",
					"type": "address"
				}
			],
			"name": "isAdmin",
			"outputs": [
				{
					"internalType": "bool",
					"name": "",
					"type": "bool"
				}
			],
			"stateMutability": "view",
			"type": "function"
		},
		{
			"inputs": [
				{
					"internalType": "address",
					"name": "_signer",
					"type": "address"
				},
				{
					"components": [
						{
							"internalType": "address",
							"name": "sender",
							"type": "address"
						},
						{
							"internalType": "uint256",
							"name": "nonce",
							"type": "uint256"
						},
						{
							"internalType": "bytes",
							"name": "initCode",
							"type": "bytes"
						},
						{
							"internalType": "bytes",
							"name": "callData",
							"type": "bytes"
						},
						{
							"internalType": "uint256",
							"name": "callGasLimit",
							"type": "uint256"
						},
						{
							"internalType": "uint256",
							"name": "verificationGasLimit",
							"type": "uint256"
						},
						{
							"internalType": "uint256",
							"name": "preVerificationGas",
							"type": "uint256"
						},
						{
							"internalType": "uint256",
							"name": "maxFeePerGas",
							"type": "uint256"
						},
						{
							"internalType": "uint256",
							"name": "maxPriorityFeePerGas",
							"type": "uint256"
						},
						{
							"internalType": "bytes",
							"name": "paymasterAndData",
							"type": "bytes"
						},
						{
							"internalType": "bytes",
							"name": "signature",
							"type": "bytes"
						}
					],
					"internalType": "struct UserOperation",
					"name": "_userOp",
					"type": "tuple"
				}
			],
			"name": "isValidSigner",
			"outputs": [
				{
					"internalType": "bool",
					"name": "",
					"type": "bool"
				}
			],
			"stateMutability": "view",
			"type": "function"
		},
		{
			"inputs": [
				{
					"internalType": "bytes[]",
					"name": "data",
					"type": "bytes[]"
				}
			],
			"name": "multicall",
			"outputs": [
				{
					"internalType": "bytes[]",
					"name": "results",
					"type": "bytes[]"
				}
			],
			"stateMutability": "nonpayable",
			"type": "function"
		},
		{
			"inputs": [
				{
					"internalType": "contract IEntryPoint",
					"name": "_entrypointOverride",
					"type": "address"
				}
			],
			"name": "setEntrypointOverride",
			"outputs": [],
			"stateMutability": "nonpayable",
			"type": "function"
		},
		{
			"inputs": [
				{
					"components": [
						{
							"internalType": "address",
							"name": "signer",
							"type": "address"
						},
						{
							"internalType": "uint8",
							"name": "isAdmin",
							"type": "uint8"
						},
						{
							"internalType": "address[]",
							"name": "approvedTargets",
							"type": "address[]"
						},
						{
							"internalType": "uint256",
							"name": "nativeTokenLimitPerTransaction",
							"type": "uint256"
						},
						{
							"internalType": "uint128",
							"name": "permissionStartTimestamp",
							"type": "uint128"
						},
						{
							"internalType": "uint128",
							"name": "permissionEndTimestamp",
							"type": "uint128"
						},
						{
							"internalType": "uint128",
							"name": "reqValidityStartTimestamp",
							"type": "uint128"
						},
						{
							"internalType": "uint128",
							"name": "reqValidityEndTimestamp",
							"type": "uint128"
						},
						{
							"internalType": "bytes32",
							"name": "uid",
							"type": "bytes32"
						}
					],
					"internalType": "struct IAccountPermissions.SignerPermissionRequest",
					"name": "_req",
					"type": "tuple"
				},
				{
					"internalType": "bytes",
					"name": "_signature",
					"type": "bytes"
				}
			],
			"name": "setPermissionsForSigner",
			"outputs": [],
			"stateMutability": "nonpayable",
			"type": "function"
		},
		{
			"inputs": [
				{
					"components": [
						{
							"internalType": "address",
							"name": "sender",
							"type": "address"
						},
						{
							"internalType": "uint256",
							"name": "nonce",
							"type": "uint256"
						},
						{
							"internalType": "bytes",
							"name": "initCode",
							"type": "bytes"
						},
						{
							"internalType": "bytes",
							"name": "callData",
							"type": "bytes"
						},
						{
							"internalType": "uint256",
							"name": "callGasLimit",
							"type": "uint256"
						},
						{
							"internalType": "uint256",
							"name": "verificationGasLimit",
							"type": "uint256"
						},
						{
							"internalType": "uint256",
							"name": "preVerificationGas",
							"type": "uint256"
						},
						{
							"internalType": "uint256",
							"name": "maxFeePerGas",
							"type": "uint256"
						},
						{
							"internalType": "uint256",
							"name": "maxPriorityFeePerGas",
							"type": "uint256"
						},
						{
							"internalType": "bytes",
							"name": "paymasterAndData",
							"type": "bytes"
						},
						{
							"internalType": "bytes",
							"name": "signature",
							"type": "bytes"
						}
					],
					"internalType": "struct UserOperation",
					"name": "userOp",
					"type": "tuple"
				},
				{
					"internalType": "bytes32",
					"name": "userOpHash",
					"type": "bytes32"
				},
				{
					"internalType": "uint256",
					"name": "missingAccountFunds",
					"type": "uint256"
				}
			],
			"name": "validateUserOp",
			"outputs": [
				{
					"internalType": "uint256",
					"name": "validationData",
					"type": "uint256"
				}
			],
			"stateMutability": "nonpayable",
			"type": "function"
		},
		{
			"inputs": [
				{
					"components": [
						{
							"internalType": "address",
							"name": "signer",
							"type": "address"
						},
						{
							"internalType": "uint8",
							"name": "isAdmin",
							"type": "uint8"
						},
						{
							"internalType": "address[]",
							"name": "approvedTargets",
							"type": "address[]"
						},
						{
							"internalType": "uint256",
							"name": "nativeTokenLimitPerTransaction",
							"type": "uint256"
						},
						{
							"internalType": "uint128",
							"name": "permissionStartTimestamp",
							"type": "uint128"
						},
						{
							"internalType": "uint128",
							"name": "permissionEndTimestamp",
							"type": "uint128"
						},
						{
							"internalType": "uint128",
							"name": "reqValidityStartTimestamp",
							"type": "uint128"
						},
						{
							"internalType": "uint128",
							"name": "reqValidityEndTimestamp",
							"type": "uint128"
						},
						{
							"internalType": "bytes32",
							"name": "uid",
							"type": "bytes32"
						}
					],
					"internalType": "struct IAccountPermissions.SignerPermissionRequest",
					"name": "req",
					"type": "tuple"
				},
				{
					"internalType": "bytes",
					"name": "signature",
					"type": "bytes"
				}
			],
			"name": "verifySignerPermissionRequest",
			"outputs": [
				{
					"internalType": "bool",
					"name": "success",
					"type": "bool"
				},
				{
					"internalType": "address",
					"name": "signer",
					"type": "address"
				}
			],
			"stateMutability": "view",
			"type": "function"
		}
	]
}