{
	"data": {
		"bytecode": {
			"linkReferences": {},
			"object": "60e06040523480156300000011575f80fd5b50604051630000fb67380380630000fb678339818101604052810190630000003b91906300001905565b808230604051630000004e906300001244565b630000005d9291906300001a0f565b604051809103905ff0801580156300000078573d5f803e3d5ffd5b50838173ffffffffffffffffffffffffffffffffffffffff1660808173ffffffffffffffffffffffffffffffffffffffff16815250508073ffffffffffffffffffffffffffffffffffffffff1660a08173ffffffffffffffffffffffffffffffffffffffff168152505050505f8082511115630000013c5763000001038263000001f160201b60201c565b630000013982604051602001630000011d91906300001d5f565b60405160208183030381529060405263000002aa60201b60201c565b90505b8073ffffffffffffffffffffffffffffffffffffffff1660c08173ffffffffffffffffffffffffffffffffffffffff168152505050506300000184630000035b60201b60201c565b630000019a5f801b8463000003de60201b60201c565b5f7f55add213c41f3851b4506717b8af695a4256979dff496dcaae7789f6121331aa905063000001d2818563000003de60201b60201c565b63000001e68182630000040a60201b60201c565b50505050630000268a565b5f815190505f600190505f5b82811015630000025e57630000023a84828151811063000002255763000002246300001d83565b5b6020026020010151630000048f60201b60201c565b91508115630000025e57600181630000025591906300001de6565b905063000001fd565b508063000002a5576040517f08c379a0000000000000000000000000000000000000000000000000000000008152600401630000029c906300001e89565b60405180910390fd5b505050565b5f8063000002e28360405160200163000002c691906300001f37565b604051602081830303815290604052630000082060201b60201c565b90508051602082015ff091505f73ffffffffffffffffffffffffffffffffffffffff168273ffffffffffffffffffffffffffffffffffffffff16036300000355576040517f08d4abb600000000000000000000000000000000000000000000000000000000815260040160405180910390fd5b50919050565b5f73ffffffffffffffffffffffffffffffffffffffff1660c05173ffffffffffffffffffffffffffffffffffffffff16031563000003dc575f63000003a960c051630000085060201b60201c565b90505f8180602001905181019063000003c491906300001f60565b905063000003d981630000088f60201b60201c565b50505b565b63000003f282826300000adb60201b60201c565b630000040682826300000bc160201b60201c565b5050565b5f630000041d6300000d0860201b60201c565b6001015f8481526020019081526020015f205490508163000004456300000d0860201b60201c565b6001015f8581526020019081526020015f20819055508181847fbd79b86ffe0ab8e8776151514217cd7cacd52c909f66475c3af44e129f0b00ff60405160405180910390a4505050565b5f80825f01515f01515111801563000004ed575063000004b56300000d2060201b60201c565b600101825f01515f015160405163000004d091906300001ff3565b90815260200160405180910390205f9054906101000a900460ff16155b8015630000052e57505f73ffffffffffffffffffffffffffffffffffffffff16825f01516040015173ffffffffffffffffffffffffffffffffffffffff1614155b9050600163000005446300000d2060201b60201c565b600101835f01515f0151604051630000055f91906300001ff3565b90815260200160405180910390205f6101000a81548160ff021916908315150217905550806300000594575f9050630000081b565b5f82602001515190505f5b8181101563000008185782156300000818575f8460200151828151811063000005cf5763000005ce6300001d83565b5b602002602001015190505f8060e01b7bffffffffffffffffffffffffffffffffffffffffffffffffffffffff1916825f01517bffffffffffffffffffffffffffffffffffffffffffffffffffffffff191603630000068a57604051602001630000063a90630000205f565b6040516020818303038152906040528051906020012082602001516040516020016300000669919063000020c9565b60405160208183030381529060405280519060200120141590506300000700565b816020015160405160200163000006a391906300001ff3565b604051602081830303815290604052805190602001207bffffffffffffffffffffffffffffffffffffffffffffffffffffffff1916825f01517bffffffffffffffffffffffffffffffffffffffffffffffffffffffff1916141590505b80158015630000077e5750630000071d6300000d2060201b60201c565b5f015f835f01517bffffffffffffffffffffffffffffffffffffffffffffffffffffffff19167bffffffffffffffffffffffffffffffffffffffffffffffffffffffff191681526020019081526020015f205f9054906101000a900460ff16155b9450600163000007946300000d2060201b60201c565b5f015f845f01517bffffffffffffffffffffffffffffffffffffffffffffffffffffffff19167bffffffffffffffffffffffffffffffffffffffffffffffffffffffff191681526020019081526020015f205f6101000a81548160ff0219169083151502179055505050600181630000080f91906300001de6565b9050630000059f565b50505b919050565b6060815182604051602001630000083a92919063000021e0565b6040516020818303038152906040529050919050565b606063000008888260017fffffffffffffffffffffffffffffffffffffffffffffffffffffffffffffffff6300000d8860201b60201c565b9050919050565b5f5b81518110156300000ad7575f82828151811063000008b65763000008b56300001d83565b5b6020026020010151905063000008f0815f01515f015163000008de6300000e8260201b60201c565b5f016300000e9a60201b90919060201c565b50630000090e815f01515f0151825f01516300000eb760201b60201c565b5f81602001515190505f5b818110156300000a415763000009356300000e8260201b60201c565b600201835f01515f0151604051630000095091906300001ff3565b908152602001604051809103902060030183602001518281518110630000097e57630000097d6300001d83565b5b6020026020010151908060018154018082558091505060019003905f5260205f2090600202015f909190919091505f820151815f015f6101000a81548163ffffffff021916908360e01c0217905550602082015181600101908163000009e691906300002472565b5050506300000a27836020015182815181106300000a0b576300000a0a6300001d83565b5b60200260200101515f0151845f01516300000f6e60201b60201c565b6001816300000a3891906300001de6565b90506300000919565b50815f01516040015173ffffffffffffffffffffffffffffffffffffffff16825f01515f01516040516300000a7891906300001ff3565b60405180910390207fbb37a605de78ba6bc667aeaf438d0aae8247e6f48a8fad23730e4fbbb480abf3846040516300000ab3919063000025b4565b60405180910390a350506001816300000ace91906300001de6565b90506300000891565b5050565b60016300000aef6300000d0860201b60201c565b5f015f8481526020019081526020015f205f8373ffffffffffffffffffffffffffffffffffffffff1673ffffffffffffffffffffffffffffffffffffffff1681526020019081526020015f205f6101000a81548160ff0219169083151502179055506300000b63630000105060201b60201c565b73ffffffffffffffffffffffffffffffffffffffff168173ffffffffffffffffffffffffffffffffffffffff16837f2f8788117e7eff1d82e926ec794901d17c78024a50270940304540a733656f0d60405160405180910390a45050565b5f6300000bd4630000105760201b60201c565b5f015f8481526020019081526020015f205f0154905060016300000bfe630000105760201b60201c565b5f015f8581526020019081526020015f205f015f8282546300000c2391906300001de6565b92505081905550816300000c3d630000105760201b60201c565b5f015f8581526020019081526020015f206001015f8381526020019081526020015f205f6101000a81548173ffffffffffffffffffffffffffffffffffffffff021916908373ffffffffffffffffffffffffffffffffffffffff160217905550806300000cb0630000105760201b60201c565b5f015f8581526020019081526020015f206002015f8473ffffffffffffffffffffffffffffffffffffffff1673ffffffffffffffffffffffffffffffffffffffff1681526020019081526020015f2081905550505050565b5f6300000d1b630000106f60201b60201c565b905090565b5f8060017f11c19c8d567686e9e4073585fe511ac02fcfc0ce76ceba4592185bf5bec3cd1f5f1c6300000d55919063000025d8565b6040516020016300000d699190630000262c565b6040516020818303038152906040528051906020012090508091505090565b60605f6300000d9e85630000109d60201b60201c565b90505f81036300000dc25760405180602001604052805f8152509150506300000e7b565b808411156300000de55760405180602001604052805f8152509150506300000e7b565b838310156300000e34578084846040517f2c4a89fa0000000000000000000000000000000000000000000000000000000081526004016300000e2b939291906300002649565b60405180910390fd5b5f84840390505f85830390505f8282106300000e5257826300000e54565b815b90506040519450601f19601f60208301011685016040528085528087602087018a3c505050505b9392505050565b5f6300000e9563000010a760201b60201c565b905090565b5f6300000eaf8383630000110f60201b60201c565b905092915050565b806300000eca6300000e8260201b60201c565b600201836040516300000edf91906300001ff3565b90815260200160405180910390205f015f820151815f0190816300000f0691906300002472565b5060208201518160010190816300000f2091906300002472565b506040820151816002015f6101000a81548173ffffffffffffffffffffffffffffffffffffffff021916908373ffffffffffffffffffffffffffffffffffffffff1602179055509050505050565b806300000f816300000e8260201b60201c565b6003015f847bffffffffffffffffffffffffffffffffffffffffffffffffffffffff19167bffffffffffffffffffffffffffffffffffffffffffffffffffffffff191681526020019081526020015f205f820151815f0190816300000fe891906300002472565b506020820151816001019081630000100291906300002472565b506040820151816002015f6101000a81548173ffffffffffffffffffffffffffffffffffffffff021916908373ffffffffffffffffffffffffffffffffffffffff1602179055509050505050565b5f33905090565b5f630000106a63000011a560201b60201c565b905090565b5f807f0a7b0f5c59907924802379ebe98cdc23e2ee7820f63d30126e10b3752010e5005f1b90508091505090565b5f813b9050919050565b5f8060017f775b9fab5634a62bb2a682c067408edbed43efd726183d2e2af744334d47acb75f1c63000010dc919063000025d8565b60405160200163000010f09190630000262c565b6040516020818303038152906040528051906020012090508091505090565b5f63000011248383630000121360201b60201c565b630000119b57825f0182908060018154018082558091505060019003905f5260205f20015f909190919091509081630000116091906300002472565b50825f01805490508360010183604051630000117e91906300001ff3565b90815260200160405180910390208190555060019050630000119f565b5f90505b92915050565b5f8060ff5f1b1960017f0c4ba382c0009cf238e4c1ca1a52f51c61e6248a70bdfb34e5ed49d5578a5c0c5f1c63000011df919063000025d8565b60405160200163000011f39190630000262c565b604051602081830303815290604052805190602001201690508091505090565b5f808360010183604051630000122b91906300001ff3565b9081526020016040518091039020541415905092915050565b61605c806300009b0b83390190565b5f604051905090565b5f80fd5b5f80fd5b5f73ffffffffffffffffffffffffffffffffffffffff82169050919050565b5f6300001291826300001264565b9050919050565b63000012a5816300001283565b811463000012b1575f80fd5b50565b5f8151905063000012c6816300001298565b92915050565b5f63000012da826300001283565b9050919050565b63000012ee8163000012cc565b811463000012fa575f80fd5b50565b5f81519050630000130f8163000012e1565b92915050565b5f80fd5b5f601f19601f8301169050919050565b7f4e487b71000000000000000000000000000000000000000000000000000000005f52604160045260245ffd5b6300001363826300001319565b810181811067ffffffffffffffff8211171563000013885763000013876300001329565b5b80604052505050565b5f630000139e6300001253565b905063000013ae82826300001356565b919050565b5f67ffffffffffffffff82111563000013d35763000013d26300001329565b5b602082029050602081019050919050565b5f80fd5b5f80fd5b5f80fd5b5f80fd5b5f67ffffffffffffffff82111563000014145763000014136300001329565b5b6300001421826300001319565b9050602081019050919050565b5f5b83811015630000144f5780820151818401526020810190506300001430565b5f8484015250505050565b5f6300001474630000146d8463000013f4565b6300001391565b905082815260208101848484011115630000149657630000149563000013f0565b5b63000014a5848285630000142e565b509392505050565b5f82601f83011263000014c75763000014c66300001315565b5b815163000014db848260208601630000145a565b91505092915050565b5f6060828403121563000014ff5763000014fe63000013e8565b5b630000150d60606300001391565b90505f82015167ffffffffffffffff811115630000153257630000153163000013ec565b5b63000015428482850163000014ad565b5f83015250602082015167ffffffffffffffff811115630000156b57630000156a63000013ec565b5b630000157b8482850163000014ad565b602083015250604063000015938482850163000012b4565b60408301525092915050565b5f67ffffffffffffffff82111563000015bf5763000015be6300001329565b5b602082029050602081019050919050565b5f7fffffffff0000000000000000000000000000000000000000000000000000000082169050919050565b63000016088163000015d0565b81146300001614575f80fd5b50565b5f8151905063000016298163000015fb565b92915050565b5f60408284031215630000164a57630000164963000013e8565b5b630000165860406300001391565b90505f630000166b848285016300001617565b5f83015250602082015167ffffffffffffffff811115630000169457630000169363000013ec565b5b63000016a48482850163000014ad565b60208301525092915050565b5f63000016ca63000016c384630000159f565b6300001391565b9050808382526020820190506020840283018581111563000016f35763000016f263000013e4565b5b835b81811015630000174857805167ffffffffffffffff811115630000172057630000171f6300001315565b5b80860163000017318982630000162f565b8552602085019450505060208101905063000016f5565b5050509392505050565b5f82601f830112630000176c57630000176b6300001315565b5b8151630000178084826020860163000016b0565b91505092915050565b5f6040828403121563000017a45763000017a363000013e8565b5b63000017b260406300001391565b90505f82015167ffffffffffffffff81111563000017d75763000017d663000013ec565b5b63000017e78482850163000014e4565b5f83015250602082015167ffffffffffffffff811115630000181057630000180f63000013ec565b5b6300001820848285016300001752565b60208301525092915050565b5f6300001846630000183f8463000013b3565b6300001391565b90508083825260208201905060208402830185811115630000186f57630000186e63000013e4565b5b835b8181101563000018c457805167ffffffffffffffff811115630000189c57630000189b6300001315565b5b80860163000018ad89826300001789565b855260208501945050506020810190506300001871565b5050509392505050565b5f82601f83011263000018e85763000018e76300001315565b5b815163000018fc848260208601630000182c565b91505092915050565b5f805f606084860312156300001922576300001921630000125c565b5b5f63000019338682870163000012b4565b935050602063000019488682870163000012fd565b925050604084015167ffffffffffffffff811115630000196f57630000196e6300001260565b5b630000197f8682870163000018ce565b9150509250925092565b5f819050919050565b5f63000019b863000019b163000019aa846300001264565b6300001989565b6300001264565b9050919050565b5f63000019cd826300001992565b9050919050565b5f63000019e28263000019bf565b9050919050565b63000019f68163000019d4565b82525050565b6300001a09816300001283565b82525050565b5f6040820190506300001a265f83018563000019e9565b6300001a37602083018463000019fc565b9392505050565b5f81519050919050565b5f82825260208201905092915050565b5f819050602082019050919050565b5f81519050919050565b5f82825260208201905092915050565b5f6300001a8f826300001a67565b6300001a9d81856300001a71565b93506300001ab1818560208601630000142e565b6300001abe816300001319565b840191505092915050565b6300001ad6816300001283565b82525050565b5f606083015f8301518482035f8601526300001afa82826300001a81565b915050602083015184820360208601526300001b1882826300001a81565b91505060408301516300001b3160408601826300001ac9565b508091505092915050565b5f81519050919050565b5f82825260208201905092915050565b5f819050602082019050919050565b6300001b728163000015d0565b82525050565b5f604083015f8301516300001b915f8601826300001b65565b50602083015184820360208601526300001bad82826300001a81565b9150508091505092915050565b5f6300001bc983836300001b78565b905092915050565b5f602082019050919050565b5f6300001beb826300001b3c565b6300001bf981856300001b46565b9350836020820285016300001c0f856300001b56565b805f5b858110156300001c5657848403895281516300001c3185826300001bba565b94506300001c40836300001bd1565b925060208a019950506001810190506300001c12565b50829750879550505050505092915050565b5f604083015f8301518482035f8601526300001c8682826300001adc565b915050602083015184820360208601526300001ca482826300001bdd565b9150508091505092915050565b5f6300001cc083836300001c68565b905092915050565b5f602082019050919050565b5f6300001ce2826300001a3e565b6300001cf081856300001a48565b9350836020820285016300001d06856300001a58565b805f5b858110156300001d4d57848403895281516300001d2885826300001cb1565b94506300001d37836300001cc8565b925060208a019950506001810190506300001d09565b50829750879550505050505092915050565b5f6020820190508181035f8301526300001d7b81846300001cd4565b905092915050565b7f4e487b71000000000000000000000000000000000000000000000000000000005f52603260045260245ffd5b5f819050919050565b7f4e487b71000000000000000000000000000000000000000000000000000000005f52601160045260245ffd5b5f6300001df4826300001db0565b91506300001e03836300001db0565b92508282019050808211156300001e21576300001e206300001db9565b5b92915050565b5f82825260208201905092915050565b7f42617365526f757465723a20696e76616c696420657874656e73696f6e2e00005f82015250565b5f6300001e6f601e836300001e27565b91506300001e7e826300001e37565b602082019050919050565b5f6020820190508181035f8301526300001ea4816300001e5f565b9050919050565b5f81905092915050565b5f8082015250565b5f6300001ecd6001836300001eab565b91506300001edc826300001eb5565b600182019050919050565b5f81519050919050565b5f81905092915050565b5f6300001f09826300001ee7565b6300001f1781856300001ef1565b93506300001f2b818560208601630000142e565b80840191505092915050565b5f6300001f45826300001ebd565b91506300001f5582846300001efb565b915081905092915050565b5f602082840312156300001f7b576300001f7a630000125c565b5b5f82015167ffffffffffffffff8111156300001f9e576300001f9d6300001260565b5b6300001fae8482850163000018ce565b91505092915050565b5f6300001fc5826300001a67565b6300001fd381856300001eab565b93506300001fe7818560208601630000142e565b80840191505092915050565b5f630000200282846300001fb7565b915081905092915050565b7f72656365697665282900000000000000000000000000000000000000000000005f82015250565b5f63000020456009836300001e27565b9150630000205482630000200d565b602082019050919050565b5f6020820190508181035f830152630000207a816300002035565b9050919050565b5f630000208f826300001a67565b630000209d81856300001e27565b935063000020b1818560208601630000142e565b63000020be816300001319565b840191505092915050565b5f6020820190508181035f83015263000020e581846300002081565b905092915050565b7f63000000000000000000000000000000000000000000000000000000000000005f82015250565b5f63000021256001836300001eab565b915063000021348263000020ed565b600182019050919050565b5f63ffffffff82169050919050565b5f8160e01b9050919050565b5f630000216882630000214e565b9050919050565b6300002188630000218182630000213f565b630000215a565b82525050565b7f80600e6000396000f300000000000000000000000000000000000000000000005f82015250565b5f63000021c66009836300001eab565b915063000021d582630000218e565b600982019050919050565b5f63000021ee826300002115565b915063000021fe8285630000216f565b60048201915063000022118263000021b6565b9150630000222182846300001efb565b91508190509392505050565b7f4e487b71000000000000000000000000000000000000000000000000000000005f52602260045260245ffd5b5f6002820490506001821680630000227357607f821691505b602082108103630000228c57630000228b630000222d565b5b50919050565b5f819050815f5260205f209050919050565b5f6020601f8301049050919050565b5f82821b905092915050565b5f6008830263000022f27fffffffffffffffffffffffffffffffffffffffffffffffffffffffffffffffff8263000022b3565b6300002300868363000022b3565b95508019841693508086168417925050509392505050565b5f630000233e63000023376300002330846300001db0565b6300001989565b6300001db0565b9050919050565b5f819050919050565b630000235b836300002318565b6300002377630000236d826300002345565b84845463000022bf565b825550505050565b5f90565b630000238f630000237f565b630000239e818484630000234e565b505050565b5b8181101563000023c95763000023bc5f826300002383565b60018101905063000023a4565b5050565b601f82111563000024225763000023e5816300002292565b63000023f28463000022a4565b810160208510156300002403578190505b630000241f63000024158563000022a4565b83018263000023a3565b50505b505050565b5f82821c905092915050565b5f63000024465f19846008026300002427565b1980831691505092915050565b5f630000246283836300002433565b9150826002028217905092915050565b630000247f826300001a67565b67ffffffffffffffff811115630000249e57630000249d6300001329565b5b63000024ac8254630000225a565b63000024bb82828563000023cd565b5f60209050601f83116001811463000024f6575f841563000024de578287015190505b63000024ec85826300002453565b8655506300002563565b601f1984166300002508866300002292565b5f5b82811015630000253357848901518255600182019150602085019450602081019050630000250a565b86831015630000255657848901516300002552601f8916826300002433565b8355505b6001600288020188555050505b505050505050565b5f604083015f8301518482035f860152630000258982826300001adc565b9150506020830151848203602086015263000025a782826300001bdd565b9150508091505092915050565b5f6020820190508181035f83015263000025d08184630000256b565b905092915050565b5f63000025e6826300001db0565b915063000025f5836300001db0565b925082820390508181111563000026135763000026126300001db9565b5b92915050565b6300002626816300001db0565b82525050565b5f60208201905063000026435f8301846300002619565b92915050565b5f60608201905063000026605f8301866300002619565b630000267160208301856300002619565b630000268260408301846300002619565b949350505050565b60805160a05160c05161743963000026d25f395f610f8a01525f81816118a90152611c3901525f8181610af70152818161123501528181611b83015261200301526174395ff3fe608060405260043610610207575f3560e01c80639387a38011610117578063c3c5a5471161009f578063d8fd8f441161006e578063d8fd8f441461086b578063e05688fe146108a7578063e68a7c3b146108cf578063e8a3d4851461090b578063ee7d2adf1461093557610208565b8063c3c5a5471461078f578063ca15c873146107cb578063ce0b601314610807578063d547741f1461084357610208565b8063a32fa5b3116100e6578063a32fa5b314610689578063a65d69d4146106c5578063ac9650d8146106ef578063c0562f6d1461072b578063c22707ee1461075357610208565b80639387a380146105d3578063938e3d7b146105fb578063a0dbaefd14610623578063a217fddf1461065f57610208565b8063463c48641161019a57806383a03f8c1161016957806383a03f8c146104cf5780638856a113146104f75780638878ed331461051f5780639010d07c1461055b57806391d148541461059757610208565b8063463c4864146104295780634a00cc4814610453578063512cf9141461047d57806358451f97146104a557610208565b8063248a9ca3116101d6578063248a9ca3146103755780632f2ff15d146103b157806336568abe146103d9578063429eed801461040157610208565b806308e93d0a146102bd5780630b61e12b146102e75780630e6254fd1461030f57806311464fbe1461034b57610208565b5b5f8036905003156102bb575f6102405f357fffffffff000000000000000000000000000000000000000000000000000000001661095d565b90505f73ffffffffffffffffffffffffffffffffffffffff168173ffffffffffffffffffffffffffffffffffffffff16036102b0576040517f08c379a00000000000000000000000000000000000000000000000000000000081526004016102a790614fa4565b60405180910390fd5b6102b981610972565b505b005b3480156102c8575f80fd5b506102d1610991565b6040516102de91906150a9565b60405180910390f35b3480156102f2575f80fd5b5061030d60048036038101906103089190615137565b6109a1565b005b34801561031a575f80fd5b5061033560048036038101906103309190615175565b610aa7565b60405161034291906150a9565b60405180910390f35b348015610356575f80fd5b5061035f610af5565b60405161036c91906151af565b60405180910390f35b348015610380575f80fd5b5061039b600480360381019061039691906151c8565b610b19565b6040516103a89190615202565b60405180910390f35b3480156103bc575f80fd5b506103d760048036038101906103d2919061521b565b610b3c565b005b3480156103e4575f80fd5b506103ff60048036038101906103fa919061521b565b610c16565b005b34801561040c575f80fd5b50610427600480360381019061042291906153ea565b610c99565b005b348015610434575f80fd5b5061043d610f88565b60405161044a91906151af565b60405180910390f35b34801561045e575f80fd5b50610467610fac565b6040516104749190615712565b60405180910390f35b348015610488575f80fd5b506104a3600480360381019061049e91906153ea565b611083565b005b3480156104b0575f80fd5b506104b96110d8565b6040516104c6919061574a565b60405180910390f35b3480156104da575f80fd5b506104f560048036038101906104f091906151c8565b6110e7565b005b348015610502575f80fd5b5061051d600480360381019061051891906157d4565b61118a565b005b34801561052a575f80fd5b50610545600480360381019061054091906158a7565b6111df565b60405161055291906151af565b60405180910390f35b348015610566575f80fd5b50610581600480360381019061057c919061592e565b611264565b60405161058e91906151af565b60405180910390f35b3480156105a2575f80fd5b506105bd60048036038101906105b8919061521b565b61141f565b6040516105ca9190615986565b60405180910390f35b3480156105de575f80fd5b506105f960048036038101906105f49190615137565b611489565b005b348015610606575f80fd5b50610621600480360381019061061c919061599f565b61158f565b005b34801561062e575f80fd5b50610649600480360381019061064491906159e6565b6115e2565b6040516106569190615a65565b60405180910390f35b34801561066a575f80fd5b506106736117c8565b6040516106809190615202565b60405180910390f35b348015610694575f80fd5b506106af60048036038101906106aa919061521b565b6117ce565b6040516106bc9190615986565b60405180910390f35b3480156106d0575f80fd5b506106d96118a7565b6040516106e691906151af565b60405180910390f35b3480156106fa575f80fd5b5061071560048036038101906107109190615ada565b6118cb565b6040516107229190615c32565b60405180910390f35b348015610736575f80fd5b50610751600480360381019061074c9190615e4e565b6119cf565b005b34801561075e575f80fd5b506107796004803603810190610774919061599f565b611a22565b6040516107869190615ed6565b60405180910390f35b34801561079a575f80fd5b506107b560048036038101906107b09190615175565b611a3a565b6040516107c29190615986565b60405180910390f35b3480156107d6575f80fd5b506107f160048036038101906107ec91906151c8565b611a55565b6040516107fe919061574a565b60405180910390f35b348015610812575f80fd5b5061082d600480360381019061082891906159e6565b61095d565b60405161083a91906151af565b60405180910390f35b34801561084e575f80fd5b506108696004803603810190610864919061521b565b611b46565b005b348015610876575f80fd5b50610891600480360381019061088c91906158a7565b611b7f565b60405161089e91906151af565b60405180910390f35b3480156108b2575f80fd5b506108cd60048036038101906108c89190615e4e565b611d51565b005b3480156108da575f80fd5b506108f560048036038101906108f09190615ef6565b611da4565b60405161090291906150a9565b60405180910390f35b348015610916575f80fd5b5061091f611ef2565b60405161092c9190615f6c565b60405180910390f35b348015610940575f80fd5b5061095b6004803603810190610956919061599f565b611f8a565b005b5f610967826115e2565b604001519050919050565b365f80375f80365f845af43d5f803e805f811461098d573d5ff35b3d5ffd5b606061099c5f611fdd565b905090565b5f3390506109af8183611ffc565b6109ee576040517f08c379a00000000000000000000000000000000000000000000000000000000081526004016109e590615fd6565b60405180910390fd5b5f610a3e8260025f8773ffffffffffffffffffffffffffffffffffffffff1673ffffffffffffffffffffffffffffffffffffffff1681526020019081526020015f2061206290919063ffffffff16565b90508015610aa1578373ffffffffffffffffffffffffffffffffffffffff168273ffffffffffffffffffffffffffffffffffffffff167f12146497b3b826918ec47f0cac7272a09ed06b30c16c030e99ec48ff5dd60b4760405160405180910390a35b50505050565b6060610aee60025f8473ffffffffffffffffffffffffffffffffffffffff1673ffffffffffffffffffffffffffffffffffffffff1681526020019081526020015f20611fdd565b9050919050565b7f000000000000000000000000000000000000000000000000000000000000000081565b5f610b2261208f565b6001015f8381526020019081526020015f20549050919050565b610b67610b4761208f565b6001015f8481526020019081526020015f2054610b6261209d565b6120a4565b610b6f61208f565b5f015f8381526020019081526020015f205f8273ffffffffffffffffffffffffffffffffffffffff1673ffffffffffffffffffffffffffffffffffffffff1681526020019081526020015f205f9054906101000a900460ff1615610c08576040517f08c379a0000000000000000000000000000000000000000000000000000000008152600401610bff9061603e565b60405180910390fd5b610c128282612197565b5050565b8073ffffffffffffffffffffffffffffffffffffffff16610c3561209d565b73ffffffffffffffffffffffffffffffffffffffff1614610c8b576040517f08c379a0000000000000000000000000000000000000000000000000000000008152600401610c82906160a6565b60405180910390fd5b610c9582826121af565b5050565b610ca16121c7565b610ce0576040517f08c379a0000000000000000000000000000000000000000000000000000000008152600401610cd79061610e565b60405180910390fd5b610cea82826121f7565b610d29576040517f08c379a0000000000000000000000000000000000000000000000000000000008152600401610d209061619c565b60405180910390fd5b5f610d32612344565b6003015f837bffffffffffffffffffffffffffffffffffffffffffffffffffffffff19167bffffffffffffffffffffffffffffffffffffffffffffffffffffffff191681526020019081526020015f206040518060600160405290815f82018054610d9c906161e7565b80601f0160208091040260200160405190810160405280929190818152602001828054610dc8906161e7565b8015610e135780601f10610dea57610100808354040283529160200191610e13565b820191905f5260205f20905b815481529060010190602001808311610df657829003601f168201915b50505050508152602001600182018054610e2c906161e7565b80601f0160208091040260200160405190810160405280929190818152602001828054610e58906161e7565b8015610ea35780601f10610e7a57610100808354040283529160200191610ea3565b820191905f5260205f20905b815481529060010190602001808311610e8657829003601f168201915b50505050508152602001600282015f9054906101000a900473ffffffffffffffffffffffffffffffffffffffff1673ffffffffffffffffffffffffffffffffffffffff1673ffffffffffffffffffffffffffffffffffffffff16815250509050610f0d8383612352565b610f168261269c565b817bffffffffffffffffffffffffffffffffffffffffffffffffffffffff191683604051610f449190616251565b60405180910390207fbb931a9651175c9c82f86afbf6ad37a9141aa8d1d42bf798739be245a12e4e8883604051610f7b9190615a65565b60405180910390a3505050565b7f000000000000000000000000000000000000000000000000000000000000000081565b60605f610fc1610fba612344565b5f0161273d565b90505f815190508067ffffffffffffffff811115610fe257610fe1615271565b5b60405190808252806020026020018201604052801561101b57816020015b611008614e40565b8152602001906001900390816110005790505b5092505f5b8181101561107d5761104b83828151811061103e5761103d616267565b5b602002602001015161274f565b84828151811061105e5761105d616267565b5b602002602001018190525060018161107691906162c1565b9050611020565b50505090565b61108b6121c7565b6110ca576040517f08c379a00000000000000000000000000000000000000000000000000000000081526004016110c19061610e565b60405180910390fd5b6110d48282610c99565b5050565b5f6110e25f612a56565b905090565b5f3390506110f58183611ffc565b611134576040517f08c379a000000000000000000000000000000000000000000000000000000000815260040161112b90615fd6565b60405180910390fd5b611147815f61206290919063ffffffff16565b611186576040517f08c379a000000000000000000000000000000000000000000000000000000000815260040161117d90616364565b60405180910390fd5b5050565b6111926121c7565b6111d1576040517f08c379a00000000000000000000000000000000000000000000000000000000081526004016111c89061610e565b60405180910390fd5b6111db8282612a69565b5050565b5f8061122e8585858080601f0160208091040260200160405190810160405280939291908181526020018383808284375f81840152601f19601f82011690508083019250505050505050612ceb565b905061125a7f000000000000000000000000000000000000000000000000000000000000000082612d1d565b9150509392505050565b5f8061126e612d31565b5f015f8581526020019081526020015f205f015490505f805f90505b82811015611415575f73ffffffffffffffffffffffffffffffffffffffff166112b1612d31565b5f015f8881526020019081526020015f206001015f8381526020019081526020015f205f9054906101000a900473ffffffffffffffffffffffffffffffffffffffff1673ffffffffffffffffffffffffffffffffffffffff161461137f5784820361136b5761131e612d31565b5f015f8781526020019081526020015f206001015f8281526020019081526020015f205f9054906101000a900473ffffffffffffffffffffffffffffffffffffffff169350505050611419565b60018261137891906162c1565b9150611401565b611389865f61141f565b80156113eb5750611398612d31565b5f015f8781526020019081526020015f206002015f8073ffffffffffffffffffffffffffffffffffffffff1673ffffffffffffffffffffffffffffffffffffffff1681526020019081526020015f205481145b15611400576001826113fd91906162c1565b91505b5b60018161140e91906162c1565b905061128a565b5050505b92915050565b5f61142861208f565b5f015f8481526020019081526020015f205f8373ffffffffffffffffffffffffffffffffffffffff1673ffffffffffffffffffffffffffffffffffffffff1681526020019081526020015f205f9054906101000a900460ff16905092915050565b5f3390506114978183611ffc565b6114d6576040517f08c379a00000000000000000000000000000000000000000000000000000000081526004016114cd90615fd6565b60405180910390fd5b5f6115268260025f8773ffffffffffffffffffffffffffffffffffffffff1673ffffffffffffffffffffffffffffffffffffffff1681526020019081526020015f20612d3f90919063ffffffff16565b90508015611589578373ffffffffffffffffffffffffffffffffffffffff168273ffffffffffffffffffffffffffffffffffffffff167f98d1ebbe00ae92a5de96a0f49742a8afa89f42363592bc2e7cfaaed68b45e7a660405160405180910390a35b50505050565b611597612d6c565b6115d6576040517f08c379a00000000000000000000000000000000000000000000000000000000081526004016115cd906163cc565b60405180910390fd5b6115df81612d7e565b50565b6115ea614e60565b6115f2612344565b6003015f837bffffffffffffffffffffffffffffffffffffffffffffffffffffffff19167bffffffffffffffffffffffffffffffffffffffffffffffffffffffff191681526020019081526020015f206040518060600160405290815f8201805461165c906161e7565b80601f0160208091040260200160405190810160405280929190818152602001828054611688906161e7565b80156116d35780601f106116aa576101008083540402835291602001916116d3565b820191905f5260205f20905b8154815290600101906020018083116116b657829003601f168201915b505050505081526020016001820180546116ec906161e7565b80601f0160208091040260200160405190810160405280929190818152602001828054611718906161e7565b80156117635780601f1061173a57610100808354040283529160200191611763565b820191905f5260205f20905b81548152906001019060200180831161174657829003601f168201915b50505050508152602001600282015f9054906101000a900473ffffffffffffffffffffffffffffffffffffffff1673ffffffffffffffffffffffffffffffffffffffff1673ffffffffffffffffffffffffffffffffffffffff16815250509050919050565b5f801b81565b5f6117d761208f565b5f015f8481526020019081526020015f205f8073ffffffffffffffffffffffffffffffffffffffff1673ffffffffffffffffffffffffffffffffffffffff1681526020019081526020015f205f9054906101000a900460ff1661189c5761183c61208f565b5f015f8481526020019081526020015f205f8373ffffffffffffffffffffffffffffffffffffffff1673ffffffffffffffffffffffffffffffffffffffff1681526020019081526020015f205f9054906101000a900460ff1690506118a1565b600190505b92915050565b7f000000000000000000000000000000000000000000000000000000000000000081565b60608282905067ffffffffffffffff8111156118ea576118e9615271565b5b60405190808252806020026020018201604052801561191d57816020015b60608152602001906001900390816119085790505b5090505f5b838390508110156119c85761199d3085858481811061194457611943616267565b5b905060200281019061195691906163f6565b8080601f0160208091040260200160405190810160405280939291908181526020018383808284375f81840152601f19601f82011690508083019250505050505050612e67565b8282815181106119b0576119af616267565b5b60200260200101819052508080600101915050611922565b5092915050565b6119d76121c7565b611a16576040517f08c379a0000000000000000000000000000000000000000000000000000000008152600401611a0d9061610e565b60405180910390fd5b611a1f81612e94565b50565b611a2a614e40565b611a338261274f565b9050919050565b5f611a4e825f612ff790919063ffffffff16565b9050919050565b5f80611a5f612d31565b5f015f8481526020019081526020015f205f015490505f5b81811015611b20575f73ffffffffffffffffffffffffffffffffffffffff16611a9e612d31565b5f015f8681526020019081526020015f206001015f8381526020019081526020015f205f9054906101000a900473ffffffffffffffffffffffffffffffffffffffff1673ffffffffffffffffffffffffffffffffffffffff1614611b0c57600183611b0991906162c1565b92505b600181611b1991906162c1565b9050611a77565b50611b2b835f61141f565b15611b4057600182611b3d91906162c1565b91505b50919050565b611b71611b5161208f565b6001015f8481526020019081526020015f2054611b6c61209d565b6120a4565b611b7b82826121af565b5050565b5f807f000000000000000000000000000000000000000000000000000000000000000090505f611bf28686868080601f0160208091040260200160405190810160405280939291908181526020018383808284375f81840152601f19601f82011690508083019250505050505050612ceb565b90505f611bff8383612d1d565b90505f8173ffffffffffffffffffffffffffffffffffffffff163b1115611c2b57809350505050611d4a565b611c358383613024565b90507f000000000000000000000000000000000000000000000000000000000000000073ffffffffffffffffffffffffffffffffffffffff163373ffffffffffffffffffffffffffffffffffffffff1614611cdd57611c9d815f61206290919063ffffffff16565b611cdc576040517f08c379a0000000000000000000000000000000000000000000000000000000008152600401611cd390616364565b60405180910390fd5b5b611ce9818888886130dc565b8673ffffffffffffffffffffffffffffffffffffffff168173ffffffffffffffffffffffffffffffffffffffff167fac631f3001b55ea1509cf3d7e74898f85392a61a76e8149181ae1259622dabc860405160405180910390a38093505050505b9392505050565b611d596121c7565b611d98576040517f08c379a0000000000000000000000000000000000000000000000000000000008152600401611d8f9061610e565b60405180910390fd5b611da18161314c565b50565b60608183108015611dbd5750611db95f612a56565b8211155b611dfc576040517f08c379a0000000000000000000000000000000000000000000000000000000008152600401611df3906164c8565b60405180910390fd5b5f8383611e0991906164e6565b90508383611e1791906164e6565b67ffffffffffffffff811115611e3057611e2f615271565b5b604051908082528060200260200182016040528015611e5e5781602001602082028036833780820191505090505b5091505f5b81811015611eea57611e898582611e7a91906162c1565b5f6132a090919063ffffffff16565b838281518110611e9c57611e9b616267565b5b602002602001019073ffffffffffffffffffffffffffffffffffffffff16908173ffffffffffffffffffffffffffffffffffffffff1681525050600181611ee391906162c1565b9050611e63565b505092915050565b6060611efc6132b7565b5f018054611f09906161e7565b80601f0160208091040260200160405190810160405280929190818152602001828054611f35906161e7565b8015611f805780601f10611f5757610100808354040283529160200191611f80565b820191905f5260205f20905b815481529060010190602001808311611f6357829003601f168201915b5050505050905090565b611f926121c7565b611fd1576040517f08c379a0000000000000000000000000000000000000000000000000000000008152600401611fc89061610e565b60405180910390fd5b611fda816132c5565b50565b60605f611feb835f0161366b565b905060608190508092505050919050565b5f806120287f000000000000000000000000000000000000000000000000000000000000000084612d1d565b90508073ffffffffffffffffffffffffffffffffffffffff168473ffffffffffffffffffffffffffffffffffffffff161491505092915050565b5f612087835f018373ffffffffffffffffffffffffffffffffffffffff165f1b6136c4565b905092915050565b5f61209861372b565b905090565b5f33905090565b6120ac61208f565b5f015f8381526020019081526020015f205f8273ffffffffffffffffffffffffffffffffffffffff1673ffffffffffffffffffffffffffffffffffffffff1681526020019081526020015f205f9054906101000a900460ff166121935761212a8173ffffffffffffffffffffffffffffffffffffffff166014613759565b612137835f1c6020613759565b6040516020016121489291906165ad565b6040516020818303038152906040526040517f08c379a000000000000000000000000000000000000000000000000000000000815260040161218a9190615f6c565b60405180910390fd5b5050565b6121a1828261398e565b6121ab8282613a60565b5050565b6121b98282613b7b565b6121c38282613c4e565b5050565b5f6121f27f55add213c41f3851b4506717b8af695a4256979dff496dcaae7789f6121331aa3361141f565b905090565b5f61221483612204612344565b5f01613d5590919063ffffffff16565b612253576040517f08c379a000000000000000000000000000000000000000000000000000000000815260040161224a90616656565b60405180910390fd5b826040516020016122649190615f6c565b60405160208183030381529060405280519060200120612282612344565b6003015f847bffffffffffffffffffffffffffffffffffffffffffffffffffffffff19167bffffffffffffffffffffffffffffffffffffffffffffffffffffffff191681526020019081526020015f205f016040516020016122e49190616707565b604051602081830303815290604052805190602001201461233a576040517f08c379a000000000000000000000000000000000000000000000000000000000815260040161233190616797565b60405180910390fd5b6001905092915050565b5f61234d613d68565b905090565b5f61235b612344565b6002018360405161236c9190616251565b9081526020016040518091039020600301805480602002602001604051908101604052809291908181526020015f905b828210156124af578382905f5260205f2090600202016040518060400160405290815f82015f9054906101000a900460e01b7bffffffffffffffffffffffffffffffffffffffffffffffffffffffff19167bffffffffffffffffffffffffffffffffffffffffffffffffffffffff19168152602001600182018054612420906161e7565b80601f016020809104026020016040519081016040528092919081815260200182805461244c906161e7565b80156124975780601f1061246e57610100808354040283529160200191612497565b820191905f5260205f20905b81548152906001019060200180831161247a57829003601f168201915b5050505050815250508152602001906001019061239c565b5050505090505f815190505f5b8181101561269557837bffffffffffffffffffffffffffffffffffffffffffffffffffffffff19168382815181106124f7576124f6616267565b5b60200260200101515f01517bffffffffffffffffffffffffffffffffffffffffffffffffffffffff1916036126815761252e612344565b6002018560405161253f9190616251565b908152602001604051809103902060030160018361255d91906164e6565b8154811061256e5761256d616267565b5b905f5260205f209060020201612582612344565b600201866040516125939190616251565b908152602001604051809103902060030182815481106125b6576125b5616267565b5b905f5260205f2090600202015f82015f9054906101000a900460e01b815f015f6101000a81548163ffffffff021916908360e01c0217905550600182018160010190816126039190616955565b5090505061260f612344565b600201856040516126209190616251565b908152602001604051809103902060030180548061264157612640616a3a565b5b600190038181905f5260205f2090600202015f8082015f6101000a81549063ffffffff0219169055600182015f6126789190614e96565b50509055612695565b60018161268e91906162c1565b90506124bc565b5050505050565b6126a4612344565b6003015f827bffffffffffffffffffffffffffffffffffffffffffffffffffffffff19167bffffffffffffffffffffffffffffffffffffffffffffffffffffffff191681526020019081526020015f205f8082015f6127039190614e96565b600182015f6127129190614e96565b600282015f6101000a81549073ffffffffffffffffffffffffffffffffffffffff0219169055505050565b606061274882613dc8565b9050919050565b612757614e40565b61275f612344565b600201826040516127709190616251565b90815260200160405180910390206040518060400160405290815f82016040518060600160405290815f820180546127a7906161e7565b80601f01602080910402602001604051908101604052809291908181526020018280546127d3906161e7565b801561281e5780601f106127f55761010080835404028352916020019161281e565b820191905f5260205f20905b81548152906001019060200180831161280157829003601f168201915b50505050508152602001600182018054612837906161e7565b80601f0160208091040260200160405190810160405280929190818152602001828054612863906161e7565b80156128ae5780601f10612885576101008083540402835291602001916128ae565b820191905f5260205f20905b81548152906001019060200180831161289157829003601f168201915b50505050508152602001600282015f9054906101000a900473ffffffffffffffffffffffffffffffffffffffff1673ffffffffffffffffffffffffffffffffffffffff1673ffffffffffffffffffffffffffffffffffffffff1681525050815260200160038201805480602002602001604051908101604052809291908181526020015f905b82821015612a47578382905f5260205f2090600202016040518060400160405290815f82015f9054906101000a900460e01b7bffffffffffffffffffffffffffffffffffffffffffffffffffffffff19167bffffffffffffffffffffffffffffffffffffffffffffffffffffffff191681526020016001820180546129b8906161e7565b80601f01602080910402602001604051908101604052809291908181526020018280546129e4906161e7565b8015612a2f5780601f10612a0657610100808354040283529160200191612a2f565b820191905f5260205f20905b815481529060010190602001808311612a1257829003601f168201915b50505050508152505081526020019060010190612934565b50505050815250509050919050565b5f612a62825f01613e9f565b9050919050565b612a738282613eae565b612ab2576040517f08c379a0000000000000000000000000000000000000000000000000000000008152600401612aa990616ad7565b60405180910390fd5b612abc8282613f14565b5f612ac5612344565b60020183604051612ad69190616251565b90815260200160405180910390205f016040518060600160405290815f82018054612b00906161e7565b80601f0160208091040260200160405190810160405280929190818152602001828054612b2c906161e7565b8015612b775780601f10612b4e57610100808354040283529160200191612b77565b820191905f5260205f20905b815481529060010190602001808311612b5a57829003601f168201915b50505050508152602001600182018054612b90906161e7565b80601f0160208091040260200160405190810160405280929190818152602001828054612bbc906161e7565b8015612c075780601f10612bde57610100808354040283529160200191612c07565b820191905f5260205f20905b815481529060010190602001808311612bea57829003601f168201915b50505050508152602001600282015f9054906101000a900473ffffffffffffffffffffffffffffffffffffffff1673ffffffffffffffffffffffffffffffffffffffff1673ffffffffffffffffffffffffffffffffffffffff16815250509050612c74825f0151826141e6565b815f01517bffffffffffffffffffffffffffffffffffffffffffffffffffffffff191683604051612ca59190616251565b60405180910390207f681115194e519bda23de4da5218f3bc38f5585eab7c6b7d5fa66caa4602f574d8484604051612cde929190616b2f565b60405180910390a3505050565b5f8282604051602001612cff929190616bac565b60405160208183030381529060405280519060200120905092915050565b5f612d298383306142b6565b905092915050565b5f612d3a614316565b905090565b5f612d64835f018373ffffffffffffffffffffffffffffffffffffffff165f1b61437c565b905092915050565b5f612d795f801b3361141f565b905090565b5f612d876132b7565b5f018054612d94906161e7565b80601f0160208091040260200160405190810160405280929190818152602001828054612dc0906161e7565b8015612e0b5780601f10612de257610100808354040283529160200191612e0b565b820191905f5260205f20905b815481529060010190602001808311612dee57829003601f168201915b5050505050905081612e1b6132b7565b5f019081612e299190616bda565b507fc9c7c3fe08b88b4df9d4d47ef47d2c43d55c025a0ba88ca442580ed9e7348a168183604051612e5b929190616ca9565b60405180910390a15050565b6060612e8c83836040518060600160405280602781526020016173dd60279139614478565b905092915050565b612e9d81614553565b612edc576040517f08c379a0000000000000000000000000000000000000000000000000000000008152600401612ed390616d4e565b60405180910390fd5b612eef815f01515f0151825f0151614633565b612efe815f01515f01516146d4565b5f81602001515190505f5b81811015612f8157612f3f835f01515f015184602001518381518110612f3257612f31616267565b5b6020026020010151613f14565b612f6d83602001518281518110612f5957612f58616267565b5b60200260200101515f0151845f01516141e6565b600181612f7a91906162c1565b9050612f09565b50815f01516040015173ffffffffffffffffffffffffffffffffffffffff16825f01515f0151604051612fb49190616251565b60405180910390207f5f1ef2b136db521971a88818ce904a8e310082338afdc100212a31270664215884604051612feb9190615ed6565b60405180910390a35050565b5f61301c835f018373ffffffffffffffffffffffffffffffffffffffff165f1b6148b6565b905092915050565b5f763d602d80600a3d3981f3363d3d373d3d3d363d730000008360601b60e81c175f526e5af43d82803e903d91602b57fd5bf38360781b1760205281603760095ff590505f73ffffffffffffffffffffffffffffffffffffffff168173ffffffffffffffffffffffffffffffffffffffff16036130d6576040517f08c379a00000000000000000000000000000000000000000000000000000000081526004016130cd90616db6565b60405180910390fd5b92915050565b8373ffffffffffffffffffffffffffffffffffffffff1663d1f578948484846040518463ffffffff1660e01b815260040161311993929190616e00565b5f604051808303815f87803b158015613130575f80fd5b505af1158015613142573d5f803e3d5ffd5b5050505050505050565b613155816148d6565b613194576040517f08c379a000000000000000000000000000000000000000000000000000000000815260040161318b90616ea0565b60405180910390fd5b6131a7815f01515f0151825f0151614633565b5f81602001515190505f5b8181101561322a576131e8835f01515f0151846020015183815181106131db576131da616267565b5b6020026020010151613f14565b6132168360200151828151811061320257613201616267565b5b60200260200101515f0151845f01516141e6565b60018161322391906162c1565b90506131b2565b50815f01516040015173ffffffffffffffffffffffffffffffffffffffff16825f01515f015160405161325d9190616251565b60405180910390207fbb37a605de78ba6bc667aeaf438d0aae8247e6f48a8fad23730e4fbbb480abf3846040516132949190615ed6565b60405180910390a35050565b5f6132ad835f01836149ff565b5f1c905092915050565b5f6132c0614a26565b905090565b6132ce81614a54565b61330d576040517f08c379a000000000000000000000000000000000000000000000000000000000815260040161330490616f2e565b60405180910390fd5b5f613316612344565b600201826040516133279190616251565b90815260200160405180910390206040518060400160405290815f82016040518060600160405290815f8201805461335e906161e7565b80601f016020809104026020016040519081016040528092919081815260200182805461338a906161e7565b80156133d55780601f106133ac576101008083540402835291602001916133d5565b820191905f5260205f20905b8154815290600101906020018083116133b857829003601f168201915b505050505081526020016001820180546133ee906161e7565b80601f016020809104026020016040519081016040528092919081815260200182805461341a906161e7565b80156134655780601f1061343c57610100808354040283529160200191613465565b820191905f5260205f20905b81548152906001019060200180831161344857829003601f168201915b50505050508152602001600282015f9054906101000a900473ffffffffffffffffffffffffffffffffffffffff1673ffffffffffffffffffffffffffffffffffffffff1673ffffffffffffffffffffffffffffffffffffffff1681525050815260200160038201805480602002602001604051908101604052809291908181526020015f905b828210156135fe578382905f5260205f2090600202016040518060400160405290815f82015f9054906101000a900460e01b7bffffffffffffffffffffffffffffffffffffffffffffffffffffffff19167bffffffffffffffffffffffffffffffffffffffffffffffffffffffff1916815260200160018201805461356f906161e7565b80601f016020809104026020016040519081016040528092919081815260200182805461359b906161e7565b80156135e65780601f106135bd576101008083540402835291602001916135e6565b820191905f5260205f20905b8154815290600101906020018083116135c957829003601f168201915b505050505081525050815260200190600101906134eb565b5050505081525050905061361182614ab9565b61361a826146d4565b816040516136289190616251565b60405180910390207f3169a23cec9ad1a25ab59bbe00ecf8973dd840c745775ea8877041ef5ce65bcc8260405161365f9190615ed6565b60405180910390a25050565b6060815f018054806020026020016040519081016040528092919081815260200182805480156136b857602002820191905f5260205f20905b8154815260200190600101908083116136a4575b50505050509050919050565b5f6136cf83836148b6565b61372157825f0182908060018154018082558091505060019003905f5260205f20015f9091909190915055825f0180549050836001015f8481526020019081526020015f208190555060019050613725565b5f90505b92915050565b5f807f0a7b0f5c59907924802379ebe98cdc23e2ee7820f63d30126e10b3752010e5005f1b90508091505090565b60605f600283600261376b9190616f4c565b61377591906162c1565b67ffffffffffffffff81111561378e5761378d615271565b5b6040519080825280601f01601f1916602001820160405280156137c05781602001600182028036833780820191505090505b5090507f3000000000000000000000000000000000000000000000000000000000000000815f815181106137f7576137f6616267565b5b60200101907effffffffffffffffffffffffffffffffffffffffffffffffffffffffffffff191690815f1a9053507f78000000000000000000000000000000000000000000000000000000000000008160018151811061385a57613859616267565b5b60200101907effffffffffffffffffffffffffffffffffffffffffffffffffffffffffffff191690815f1a9053505f60018460026138989190616f4c565b6138a291906162c1565b90505b6001811115613941577f3031323334353637383961626364656600000000000000000000000000000000600f8616601081106138e4576138e3616267565b5b1a60f81b8282815181106138fb576138fa616267565b5b60200101907effffffffffffffffffffffffffffffffffffffffffffffffffffffffffffff191690815f1a905350600485901c94508061393a90616f8d565b90506138a5565b505f8414613984576040517f08c379a000000000000000000000000000000000000000000000000000000000815260040161397b90616ffe565b60405180910390fd5b8091505092915050565b600161399861208f565b5f015f8481526020019081526020015f205f8373ffffffffffffffffffffffffffffffffffffffff1673ffffffffffffffffffffffffffffffffffffffff1681526020019081526020015f205f6101000a81548160ff021916908315150217905550613a0261209d565b73ffffffffffffffffffffffffffffffffffffffff168173ffffffffffffffffffffffffffffffffffffffff16837f2f8788117e7eff1d82e926ec794901d17c78024a50270940304540a733656f0d60405160405180910390a45050565b5f613a69612d31565b5f015f8481526020019081526020015f205f015490506001613a89612d31565b5f015f8581526020019081526020015f205f015f828254613aaa91906162c1565b9250508190555081613aba612d31565b5f015f8581526020019081526020015f206001015f8381526020019081526020015f205f6101000a81548173ffffffffffffffffffffffffffffffffffffffff021916908373ffffffffffffffffffffffffffffffffffffffff16021790555080613b23612d31565b5f015f8581526020019081526020015f206002015f8473ffffffffffffffffffffffffffffffffffffffff1673ffffffffffffffffffffffffffffffffffffffff1681526020019081526020015f2081905550505050565b613b8582826120a4565b613b8d61208f565b5f015f8381526020019081526020015f205f8273ffffffffffffffffffffffffffffffffffffffff1673ffffffffffffffffffffffffffffffffffffffff1681526020019081526020015f205f6101000a81549060ff0219169055613bf061209d565b73ffffffffffffffffffffffffffffffffffffffff168173ffffffffffffffffffffffffffffffffffffffff16837ff6391f5c32d9c69d2a47ea670b442974b53935d1edc7fd64eb21e047a839171b60405160405180910390a45050565b5f613c57612d31565b5f015f8481526020019081526020015f206002015f8373ffffffffffffffffffffffffffffffffffffffff1673ffffffffffffffffffffffffffffffffffffffff1681526020019081526020015f20549050613cb1612d31565b5f015f8481526020019081526020015f206001015f8281526020019081526020015f205f6101000a81549073ffffffffffffffffffffffffffffffffffffffff0219169055613cfe612d31565b5f015f8481526020019081526020015f206002015f8373ffffffffffffffffffffffffffffffffffffffff1673ffffffffffffffffffffffffffffffffffffffff1681526020019081526020015f205f9055505050565b5f613d608383614b2b565b905092915050565b5f8060017f775b9fab5634a62bb2a682c067408edbed43efd726183d2e2af744334d47acb75f1c613d9991906164e6565b604051602001613da9919061574a565b6040516020818303038152906040528051906020012090508091505090565b6060815f01805480602002602001604051908101604052809291908181526020015f905b82821015613e94578382905f5260205f20018054613e09906161e7565b80601f0160208091040260200160405190810160405280929190818152602001828054613e35906161e7565b8015613e805780601f10613e5757610100808354040283529160200191613e80565b820191905f5260205f20905b815481529060010190602001808311613e6357829003601f168201915b505050505081526020019060010190613dec565b505050509050919050565b5f815f01805490509050919050565b5f613ecb83613ebb612344565b5f01613d5590919063ffffffff16565b613f0a576040517f08c379a0000000000000000000000000000000000000000000000000000000008152600401613f0190616656565b60405180910390fd5b6001905092915050565b5f8060e01b7bffffffffffffffffffffffffffffffffffffffffffffffffffffffff1916825f01517bffffffffffffffffffffffffffffffffffffffffffffffffffffffff191603613fb957604051602001613f6f90617066565b604051602081830303815290604052805190602001208260200151604051602001613f9a9190615f6c565b604051602081830303815290604052805190602001201415905061402b565b8160200151604051602001613fce9190616251565b604051602081830303815290604052805190602001207bffffffffffffffffffffffffffffffffffffffffffffffffffffffff1916825f01517bffffffffffffffffffffffffffffffffffffffffffffffffffffffff1916141590505b801561406c576040517f08c379a0000000000000000000000000000000000000000000000000000000008152600401614063906170f4565b60405180910390fd5b5f73ffffffffffffffffffffffffffffffffffffffff1661408b612344565b6003015f845f01517bffffffffffffffffffffffffffffffffffffffffffffffffffffffff19167bffffffffffffffffffffffffffffffffffffffffffffffffffffffff191681526020019081526020015f206002015f9054906101000a900473ffffffffffffffffffffffffffffffffffffffff1673ffffffffffffffffffffffffffffffffffffffff1614614157576040517f08c379a000000000000000000000000000000000000000000000000000000000815260040161414e90617182565b60405180910390fd5b61415f612344565b600201836040516141709190616251565b908152602001604051809103902060030182908060018154018082558091505060019003905f5260205f2090600202015f909190919091505f820151815f015f6101000a81548163ffffffff021916908360e01c021790555060208201518160010190816141de9190616bda565b505050505050565b806141ef612344565b6003015f847bffffffffffffffffffffffffffffffffffffffffffffffffffffffff19167bffffffffffffffffffffffffffffffffffffffffffffffffffffffff191681526020019081526020015f205f820151815f0190816142529190616bda565b5060208201518160010190816142689190616bda565b506040820151816002015f6101000a81548173ffffffffffffffffffffffffffffffffffffffff021916908373ffffffffffffffffffffffffffffffffffffffff1602179055509050505050565b5f6040518260388201526f5af43d82803e903d91602b57fd5bf3ff6024820152846014820152733d602d80600a3d3981f3363d3d373d3d3d363d7381528360588201526037600c8201206078820152605560438201209150509392505050565b5f8060ff5f1b1960017f0c4ba382c0009cf238e4c1ca1a52f51c61e6248a70bdfb34e5ed49d5578a5c0c5f1c61434c91906164e6565b60405160200161435c919061574a565b604051602081830303815290604052805190602001201690508091505090565b5f80836001015f8481526020019081526020015f205490505f811461446d575f6001826143a991906164e6565b90505f6001865f01805490506143bf91906164e6565b9050818114614425575f865f0182815481106143de576143dd616267565b5b905f5260205f200154905080875f0184815481106143ff576143fe616267565b5b905f5260205f20018190555083876001015f8381526020019081526020015f2081905550505b855f0180548061443857614437616a3a565b5b600190038181905f5260205f20015f90559055856001015f8681526020019081526020015f205f905560019350505050614472565b5f9150505b92915050565b606061448384614b58565b8015614495575061449333614b58565b155b6144d4576040517f08c379a00000000000000000000000000000000000000000000000000000000081526004016144cb906171ea565b60405180910390fd5b5f808573ffffffffffffffffffffffffffffffffffffffff16856040516144fb9190617242565b5f60405180830381855af49150503d805f8114614533576040519150601f19603f3d011682016040523d82523d5f602084013e614538565b606091505b5091509150614548828286614b7a565b925050509392505050565b5f614576825f01515f0151614566612344565b5f01613d5590919063ffffffff16565b6145b5576040517f08c379a00000000000000000000000000000000000000000000000000000000081526004016145ac90616656565b60405180910390fd5b5f73ffffffffffffffffffffffffffffffffffffffff16825f01516040015173ffffffffffffffffffffffffffffffffffffffff160361462a576040517f08c379a0000000000000000000000000000000000000000000000000000000008152600401614621906172c8565b60405180910390fd5b60019050919050565b8061463c612344565b6002018360405161464d9190616251565b90815260200160405180910390205f015f820151815f0190816146709190616bda565b5060208201518160010190816146869190616bda565b506040820151816002015f6101000a81548173ffffffffffffffffffffffffffffffffffffffff021916908373ffffffffffffffffffffffffffffffffffffffff1602179055509050505050565b5f6146dd612344565b600201826040516146ee9190616251565b9081526020016040518091039020600301805480602002602001604051908101604052809291908181526020015f905b82821015614831578382905f5260205f2090600202016040518060400160405290815f82015f9054906101000a900460e01b7bffffffffffffffffffffffffffffffffffffffffffffffffffffffff19167bffffffffffffffffffffffffffffffffffffffffffffffffffffffff191681526020016001820180546147a2906161e7565b80601f01602080910402602001604051908101604052809291908181526020018280546147ce906161e7565b80156148195780601f106147f057610100808354040283529160200191614819565b820191905f5260205f20905b8154815290600101906020018083116147fc57829003601f168201915b5050505050815250508152602001906001019061471e565b50505050905061483f612344565b600201826040516148509190616251565b90815260200160405180910390206003015f61486c9190614ed3565b5f5b81518110156148b15761489d82828151811061488d5761488c616267565b5b60200260200101515f015161269c565b6001816148aa91906162c1565b905061486e565b505050565b5f80836001015f8481526020019081526020015f20541415905092915050565b5f80825f01515f01515111614920576040517f08c379a000000000000000000000000000000000000000000000000000000000815260040161491790617330565b60405180910390fd5b614942825f01515f0151614932612344565b5f01614be090919063ffffffff16565b614981576040517f08c379a0000000000000000000000000000000000000000000000000000000008152600401614978906173be565b60405180910390fd5b5f73ffffffffffffffffffffffffffffffffffffffff16825f01516040015173ffffffffffffffffffffffffffffffffffffffff16036149f6576040517f08c379a00000000000000000000000000000000000000000000000000000000081526004016149ed906172c8565b60405180910390fd5b60019050919050565b5f825f018281548110614a1557614a14616267565b5b905f5260205f200154905092915050565b5f807f4bc804ba64359c0e35e5ed5d90ee596ecaa49a3a930ddcb1470ea0dd625da9005f1b90508091505090565b5f614a7182614a61612344565b5f01614bf390919063ffffffff16565b614ab0576040517f08c379a0000000000000000000000000000000000000000000000000000000008152600401614aa790616656565b60405180910390fd5b60019050919050565b614ac1612344565b60020181604051614ad29190616251565b90815260200160405180910390205f015f8082015f614af19190614e96565b600182015f614b009190614e96565b600282015f6101000a81549073ffffffffffffffffffffffffffffffffffffffff0219169055505050565b5f808360010183604051614b3f9190616251565b9081526020016040518091039020541415905092915050565b5f808273ffffffffffffffffffffffffffffffffffffffff163b119050919050565b60608315614b8a57829050614bd9565b5f83511115614b9c5782518084602001fd5b816040517f08c379a0000000000000000000000000000000000000000000000000000000008152600401614bd09190615f6c565b60405180910390fd5b9392505050565b5f614beb8383614c06565b905092915050565b5f614bfe8383614c86565b905092915050565b5f614c118383614b2b565b614c7c57825f0182908060018154018082558091505060019003905f5260205f20015f909190919091509081614c479190616bda565b50825f01805490508360010183604051614c619190616251565b90815260200160405180910390208190555060019050614c80565b5f90505b92915050565b5f808360010183604051614c9a9190616251565b90815260200160405180910390205490505f8114614e35575f600182614cc091906164e6565b90505f6001865f0180549050614cd691906164e6565b9050818114614dd8575f865f018281548110614cf557614cf4616267565b5b905f5260205f20018054614d08906161e7565b80601f0160208091040260200160405190810160405280929190818152602001828054614d34906161e7565b8015614d7f5780601f10614d5657610100808354040283529160200191614d7f565b820191905f5260205f20905b815481529060010190602001808311614d6257829003601f168201915b5050505050905080875f018481548110614d9c57614d9b616267565b5b905f5260205f20019081614db09190616bda565b50838760010182604051614dc49190616251565b908152602001604051809103902081905550505b855f01805480614deb57614dea616a3a565b5b600190038181905f5260205f20015f614e049190614e96565b90558560010185604051614e189190616251565b90815260200160405180910390205f905560019350505050614e3a565b5f9150505b92915050565b6040518060400160405280614e53614e60565b8152602001606081525090565b604051806060016040528060608152602001606081526020015f73ffffffffffffffffffffffffffffffffffffffff1681525090565b508054614ea2906161e7565b5f825580601f10614eb35750614ed0565b601f0160209004905f5260205f2090810190614ecf9190614ef4565b5b50565b5080545f8255600202905f5260205f2090810190614ef19190614f0f565b50565b5b80821115614f0b575f815f905550600101614ef5565b5090565b5b80821115614f46575f8082015f6101000a81549063ffffffff0219169055600182015f614f3d9190614e96565b50600201614f10565b5090565b5f82825260208201905092915050565b7f526f757465723a2066756e6374696f6e20646f6573206e6f742065786973742e5f82015250565b5f614f8e602083614f4a565b9150614f9982614f5a565b602082019050919050565b5f6020820190508181035f830152614fbb81614f82565b9050919050565b5f81519050919050565b5f82825260208201905092915050565b5f819050602082019050919050565b5f73ffffffffffffffffffffffffffffffffffffffff82169050919050565b5f61501482614feb565b9050919050565b6150248161500a565b82525050565b5f615035838361501b565b60208301905092915050565b5f602082019050919050565b5f61505782614fc2565b6150618185614fcc565b935061506c83614fdc565b805f5b8381101561509c578151615083888261502a565b975061508e83615041565b92505060018101905061506f565b5085935050505092915050565b5f6020820190508181035f8301526150c1818461504d565b905092915050565b5f604051905090565b5f80fd5b5f80fd5b6150e38161500a565b81146150ed575f80fd5b50565b5f813590506150fe816150da565b92915050565b5f819050919050565b61511681615104565b8114615120575f80fd5b50565b5f813590506151318161510d565b92915050565b5f806040838503121561514d5761514c6150d2565b5b5f61515a858286016150f0565b925050602061516b85828601615123565b9150509250929050565b5f6020828403121561518a576151896150d2565b5b5f615197848285016150f0565b91505092915050565b6151a98161500a565b82525050565b5f6020820190506151c25f8301846151a0565b92915050565b5f602082840312156151dd576151dc6150d2565b5b5f6151ea84828501615123565b91505092915050565b6151fc81615104565b82525050565b5f6020820190506152155f8301846151f3565b92915050565b5f8060408385031215615231576152306150d2565b5b5f61523e85828601615123565b925050602061524f858286016150f0565b9150509250929050565b5f80fd5b5f80fd5b5f601f19601f8301169050919050565b7f4e487b71000000000000000000000000000000000000000000000000000000005f52604160045260245ffd5b6152a782615261565b810181811067ffffffffffffffff821117156152c6576152c5615271565b5b80604052505050565b5f6152d86150c9565b90506152e4828261529e565b919050565b5f67ffffffffffffffff82111561530357615302615271565b5b61530c82615261565b9050602081019050919050565b828183375f83830152505050565b5f615339615334846152e9565b6152cf565b9050828152602081018484840111156153555761535461525d565b5b615360848285615319565b509392505050565b5f82601f83011261537c5761537b615259565b5b813561538c848260208601615327565b91505092915050565b5f7fffffffff0000000000000000000000000000000000000000000000000000000082169050919050565b6153c981615395565b81146153d3575f80fd5b50565b5f813590506153e4816153c0565b92915050565b5f8060408385031215615400576153ff6150d2565b5b5f83013567ffffffffffffffff81111561541d5761541c6150d6565b5b61542985828601615368565b925050602061543a858286016153d6565b9150509250929050565b5f81519050919050565b5f82825260208201905092915050565b5f819050602082019050919050565b5f81519050919050565b5f82825260208201905092915050565b5f5b838110156154a4578082015181840152602081019050615489565b5f8484015250505050565b5f6154b98261546d565b6154c38185615477565b93506154d3818560208601615487565b6154dc81615261565b840191505092915050565b5f606083015f8301518482035f86015261550182826154af565b9150506020830151848203602086015261551b82826154af565b9150506040830151615530604086018261501b565b508091505092915050565b5f81519050919050565b5f82825260208201905092915050565b5f819050602082019050919050565b61556d81615395565b82525050565b5f604083015f8301516155885f860182615564565b50602083015184820360208601526155a082826154af565b9150508091505092915050565b5f6155b88383615573565b905092915050565b5f602082019050919050565b5f6155d68261553b565b6155e08185615545565b9350836020820285016155f285615555565b805f5b8581101561562d578484038952815161560e85826155ad565b9450615619836155c0565b925060208a019950506001810190506155f5565b50829750879550505050505092915050565b5f604083015f8301518482035f86015261565982826154e7565b9150506020830151848203602086015261567382826155cc565b9150508091505092915050565b5f61568b838361563f565b905092915050565b5f602082019050919050565b5f6156a982615444565b6156b3818561544e565b9350836020820285016156c58561545e565b805f5b8581101561570057848403895281516156e18582615680565b94506156ec83615693565b925060208a019950506001810190506156c8565b50829750879550505050505092915050565b5f6020820190508181035f83015261572a818461569f565b905092915050565b5f819050919050565b61574481615732565b82525050565b5f60208201905061575d5f83018461573b565b92915050565b5f80fd5b5f80fd5b5f604082840312156157805761577f615763565b5b61578a60406152cf565b90505f615799848285016153d6565b5f83015250602082013567ffffffffffffffff8111156157bc576157bb615767565b5b6157c884828501615368565b60208301525092915050565b5f80604083850312156157ea576157e96150d2565b5b5f83013567ffffffffffffffff811115615807576158066150d6565b5b61581385828601615368565b925050602083013567ffffffffffffffff811115615834576158336150d6565b5b6158408582860161576b565b9150509250929050565b5f80fd5b5f80fd5b5f8083601f84011261586757615866615259565b5b8235905067ffffffffffffffff8111156158845761588361584a565b5b6020830191508360018202830111156158a05761589f61584e565b5b9250929050565b5f805f604084860312156158be576158bd6150d2565b5b5f6158cb868287016150f0565b935050602084013567ffffffffffffffff8111156158ec576158eb6150d6565b5b6158f886828701615852565b92509250509250925092565b61590d81615732565b8114615917575f80fd5b50565b5f8135905061592881615904565b92915050565b5f8060408385031215615944576159436150d2565b5b5f61595185828601615123565b92505060206159628582860161591a565b9150509250929050565b5f8115159050919050565b6159808161596c565b82525050565b5f6020820190506159995f830184615977565b92915050565b5f602082840312156159b4576159b36150d2565b5b5f82013567ffffffffffffffff8111156159d1576159d06150d6565b5b6159dd84828501615368565b91505092915050565b5f602082840312156159fb576159fa6150d2565b5b5f615a08848285016153d6565b91505092915050565b5f606083015f8301518482035f860152615a2b82826154af565b91505060208301518482036020860152615a4582826154af565b9150506040830151615a5a604086018261501b565b508091505092915050565b5f6020820190508181035f830152615a7d8184615a11565b905092915050565b5f8083601f840112615a9a57615a99615259565b5b8235905067ffffffffffffffff811115615ab757615ab661584a565b5b602083019150836020820283011115615ad357615ad261584e565b5b9250929050565b5f8060208385031215615af057615aef6150d2565b5b5f83013567ffffffffffffffff811115615b0d57615b0c6150d6565b5b615b1985828601615a85565b92509250509250929050565b5f81519050919050565b5f82825260208201905092915050565b5f819050602082019050919050565b5f81519050919050565b5f82825260208201905092915050565b5f615b7282615b4e565b615b7c8185615b58565b9350615b8c818560208601615487565b615b9581615261565b840191505092915050565b5f615bab8383615b68565b905092915050565b5f602082019050919050565b5f615bc982615b25565b615bd38185615b2f565b935083602082028501615be585615b3f565b805f5b85811015615c205784840389528151615c018582615ba0565b9450615c0c83615bb3565b925060208a01995050600181019050615be8565b50829750879550505050505092915050565b5f6020820190508181035f830152615c4a8184615bbf565b905092915050565b5f60608284031215615c6757615c66615763565b5b615c7160606152cf565b90505f82013567ffffffffffffffff811115615c9057615c8f615767565b5b615c9c84828501615368565b5f83015250602082013567ffffffffffffffff811115615cbf57615cbe615767565b5b615ccb84828501615368565b6020830152506040615cdf848285016150f0565b60408301525092915050565b5f67ffffffffffffffff821115615d0557615d04615271565b5b602082029050602081019050919050565b5f615d28615d2384615ceb565b6152cf565b90508083825260208201905060208402830185811115615d4b57615d4a61584e565b5b835b81811015615d9257803567ffffffffffffffff811115615d7057615d6f615259565b5b808601615d7d898261576b565b85526020850194505050602081019050615d4d565b5050509392505050565b5f82601f830112615db057615daf615259565b5b8135615dc0848260208601615d16565b91505092915050565b5f60408284031215615dde57615ddd615763565b5b615de860406152cf565b90505f82013567ffffffffffffffff811115615e0757615e06615767565b5b615e1384828501615c52565b5f83015250602082013567ffffffffffffffff811115615e3657615e35615767565b5b615e4284828501615d9c565b60208301525092915050565b5f60208284031215615e6357615e626150d2565b5b5f82013567ffffffffffffffff811115615e8057615e7f6150d6565b5b615e8c84828501615dc9565b91505092915050565b5f604083015f8301518482035f860152615eaf82826154e7565b91505060208301518482036020860152615ec982826155cc565b9150508091505092915050565b5f6020820190508181035f830152615eee8184615e95565b905092915050565b5f8060408385031215615f0c57615f0b6150d2565b5b5f615f198582860161591a565b9250506020615f2a8582860161591a565b9150509250929050565b5f615f3e8261546d565b615f488185614f4a565b9350615f58818560208601615487565b615f6181615261565b840191505092915050565b5f6020820190508181035f830152615f848184615f34565b905092915050565b7f4163636f756e74466163746f72793a206e6f7420616e206163636f756e742e005f82015250565b5f615fc0601f83614f4a565b9150615fcb82615f8c565b602082019050919050565b5f6020820190508181035f830152615fed81615fb4565b9050919050565b7f43616e206f6e6c79206772616e7420746f206e6f6e20686f6c646572730000005f82015250565b5f616028601d83614f4a565b915061603382615ff4565b602082019050919050565b5f6020820190508181035f8301526160558161601c565b9050919050565b7f43616e206f6e6c792072656e6f756e636520666f722073656c660000000000005f82015250565b5f616090601a83614f4a565b915061609b8261605c565b602082019050919050565b5f6020820190508181035f8301526160bd81616084565b9050919050565b7f457874656e73696f6e4d616e616765723a20756e617574686f72697a65642e005f82015250565b5f6160f8601f83614f4a565b9150616103826160c4565b602082019050919050565b5f6020820190508181035f830152616125816160ec565b9050919050565b7f457874656e73696f6e4d616e616765723a2063616e6e6f742072656d6f7665205f8201527f66756e6374696f6e2066726f6d20657874656e73696f6e2e0000000000000000602082015250565b5f616186603883614f4a565b91506161918261612c565b604082019050919050565b5f6020820190508181035f8301526161b38161617a565b9050919050565b7f4e487b71000000000000000000000000000000000000000000000000000000005f52602260045260245ffd5b5f60028204905060018216806161fe57607f821691505b602082108103616211576162106161ba565b5b50919050565b5f81905092915050565b5f61622b8261546d565b6162358185616217565b9350616245818560208601615487565b80840191505092915050565b5f61625c8284616221565b915081905092915050565b7f4e487b71000000000000000000000000000000000000000000000000000000005f52603260045260245ffd5b7f4e487b71000000000000000000000000000000000000000000000000000000005f52601160045260245ffd5b5f6162cb82615732565b91506162d683615732565b92508282019050808211156162ee576162ed616294565b5b92915050565b7f4163636f756e74466163746f72793a206163636f756e7420616c7265616479205f8201527f7265676973746572656400000000000000000000000000000000000000000000602082015250565b5f61634e602a83614f4a565b9150616359826162f4565b604082019050919050565b5f6020820190508181035f83015261637b81616342565b9050919050565b7f4e6f7420617574686f72697a65640000000000000000000000000000000000005f82015250565b5f6163b6600e83614f4a565b91506163c182616382565b602082019050919050565b5f6020820190508181035f8301526163e3816163aa565b9050919050565b5f80fd5b5f80fd5b5f80fd5b5f8083356001602003843603038112616412576164116163ea565b5b80840192508235915067ffffffffffffffff821115616434576164336163ee565b5b6020830192506001820236038313156164505761644f6163f2565b5b509250929050565b7f426173654163636f756e74466163746f72793a20696e76616c696420696e64695f8201527f6365730000000000000000000000000000000000000000000000000000000000602082015250565b5f6164b2602383614f4a565b91506164bd82616458565b604082019050919050565b5f6020820190508181035f8301526164df816164a6565b9050919050565b5f6164f082615732565b91506164fb83615732565b925082820390508181111561651357616512616294565b5b92915050565b7f5065726d697373696f6e733a206163636f756e742000000000000000000000005f82015250565b5f61654d601583616217565b915061655882616519565b601582019050919050565b7f206973206d697373696e6720726f6c65200000000000000000000000000000005f82015250565b5f616597601183616217565b91506165a282616563565b601182019050919050565b5f6165b782616541565b91506165c38285616221565b91506165ce8261658b565b91506165da8284616221565b91508190509392505050565b7f457874656e73696f6e4d616e616765723a20657874656e73696f6e20646f65735f8201527f206e6f742065786973742e000000000000000000000000000000000000000000602082015250565b5f616640602b83614f4a565b915061664b826165e6565b604082019050919050565b5f6020820190508181035f83015261666d81616634565b9050919050565b5f819050815f5260205f209050919050565b5f8154616692816161e7565b61669c8186614f4a565b9450600182165f81146166b657600181146166cc576166fe565b60ff1983168652811515602002860193506166fe565b6166d585616674565b5f5b838110156166f6578154818901526001820191506020810190506166d7565b808801955050505b50505092915050565b5f6020820190508181035f83015261671f8184616686565b905092915050565b7f457874656e73696f6e4d616e616765723a20696e636f727265637420657874655f8201527f6e73696f6e2e0000000000000000000000000000000000000000000000000000602082015250565b5f616781602683614f4a565b915061678c82616727565b604082019050919050565b5f6020820190508181035f8301526167ae81616775565b9050919050565b5f815490506167c3816161e7565b9050919050565b5f6020601f8301049050919050565b5f82821b905092915050565b5f600883026168147fffffffffffffffffffffffffffffffffffffffffffffffffffffffffffffffff826167d9565b61681e86836167d9565b95508019841693508086168417925050509392505050565b5f819050919050565b5f61685961685461684f84615732565b616836565b615732565b9050919050565b5f819050919050565b6168728361683f565b61688661687e82616860565b8484546167e5565b825550505050565b5f90565b61689a61688e565b6168a5818484616869565b505050565b5b818110156168c8576168bd5f82616892565b6001810190506168ab565b5050565b601f82111561690d576168de81616674565b6168e7846167ca565b810160208510156168f6578190505b61690a616902856167ca565b8301826168aa565b50505b505050565b5f82821c905092915050565b5f61692d5f1984600802616912565b1980831691505092915050565b5f616945838361691e565b9150826002028217905092915050565b818103616963575050616a38565b61696c826167b5565b67ffffffffffffffff81111561698557616984615271565b5b61698f82546161e7565b61699a8282856168cc565b5f601f8311600181146169c7575f84156169b5578287015490505b6169bf858261693a565b865550616a31565b601f1984166169d587616674565b96506169e086616674565b5f5b82811015616a07578489015482556001820191506001850194506020810190506169e2565b86831015616a245784890154616a20601f89168261691e565b8355505b6001600288020188555050505b5050505050505b565b7f4e487b71000000000000000000000000000000000000000000000000000000005f52603160045260245ffd5b7f457874656e73696f6e4d616e616765723a2063616e6e6f742053746f72653a205f8201527f66756e6374696f6e20666f7220657874656e73696f6e2e000000000000000000602082015250565b5f616ac1603783614f4a565b9150616acc82616a67565b604082019050919050565b5f6020820190508181035f830152616aee81616ab5565b9050919050565b5f604083015f830151616b0a5f860182615564565b5060208301518482036020860152616b2282826154af565b9150508091505092915050565b5f6040820190508181035f830152616b478185616af5565b90508181036020830152616b5b8184615a11565b90509392505050565b5f82825260208201905092915050565b5f616b7e82615b4e565b616b888185616b64565b9350616b98818560208601615487565b616ba181615261565b840191505092915050565b5f604082019050616bbf5f8301856151a0565b8181036020830152616bd18184616b74565b90509392505050565b616be38261546d565b67ffffffffffffffff811115616bfc57616bfb615271565b5b616c0682546161e7565b616c118282856168cc565b5f60209050601f831160018114616c42575f8415616c30578287015190505b616c3a858261693a565b865550616ca1565b601f198416616c5086616674565b5f5b82811015616c7757848901518255600182019150602085019450602081019050616c52565b86831015616c945784890151616c90601f89168261691e565b8355505b6001600288020188555050505b505050505050565b5f6040820190508181035f830152616cc18185615f34565b90508181036020830152616cd58184615f34565b90509392505050565b7f457874656e73696f6e4d616e616765723a2063616e6e6f74207265706c6163655f8201527f20657874656e73696f6e2e000000000000000000000000000000000000000000602082015250565b5f616d38602b83614f4a565b9150616d4382616cde565b604082019050919050565b5f6020820190508181035f830152616d6581616d2c565b9050919050565b7f455243313136373a2063726561746532206661696c65640000000000000000005f82015250565b5f616da0601783614f4a565b9150616dab82616d6c565b602082019050919050565b5f6020820190508181035f830152616dcd81616d94565b9050919050565b5f616ddf8385616b64565b9350616dec838584615319565b616df583615261565b840190509392505050565b5f604082019050616e135f8301866151a0565b8181036020830152616e26818486616dd4565b9050949350505050565b7f457874656e73696f6e4d616e616765723a2063616e6e6f7420616464206578745f8201527f656e73696f6e2e00000000000000000000000000000000000000000000000000602082015250565b5f616e8a602783614f4a565b9150616e9582616e30565b604082019050919050565b5f6020820190508181035f830152616eb781616e7e565b9050919050565b7f457874656e73696f6e4d616e616765723a2063616e6e6f742072656d6f7665205f8201527f657874656e73696f6e2e00000000000000000000000000000000000000000000602082015250565b5f616f18602a83614f4a565b9150616f2382616ebe565b604082019050919050565b5f6020820190508181035f830152616f4581616f0c565b9050919050565b5f616f5682615732565b9150616f6183615732565b9250828202616f6f81615732565b91508282048414831517616f8657616f85616294565b5b5092915050565b5f616f9782615732565b91505f8203616fa957616fa8616294565b5b600182039050919050565b7f537472696e67733a20686578206c656e67746820696e73756666696369656e745f82015250565b5f616fe8602083614f4a565b9150616ff382616fb4565b602082019050919050565b5f6020820190508181035f83015261701581616fdc565b9050919050565b7f72656365697665282900000000000000000000000000000000000000000000005f82015250565b5f617050600983614f4a565b915061705b8261701c565b602082019050919050565b5f6020820190508181035f83015261707d81617044565b9050919050565b7f457874656e73696f6e4d616e616765723a20666e2073656c6563746f7220616e5f8201527f64207369676e6174757265206d69736d617463682e0000000000000000000000602082015250565b5f6170de603583614f4a565b91506170e982617084565b604082019050919050565b5f6020820190508181035f83015261710b816170d2565b9050919050565b7f457874656e73696f6e4d616e616765723a2066756e6374696f6e20696d706c205f8201527f616c7265616479206578697374732e0000000000000000000000000000000000602082015250565b5f61716c602f83614f4a565b915061717782617112565b604082019050919050565b5f6020820190508181035f83015261719981617160565b9050919050565b7f416464726573733a20696e76616c69642064656c65676174652063616c6c00005f82015250565b5f6171d4601e83614f4a565b91506171df826171a0565b602082019050919050565b5f6020820190508181035f830152617201816171c8565b9050919050565b5f81905092915050565b5f61721c82615b4e565b6172268185617208565b9350617236818560208601615487565b80840191505092915050565b5f61724d8284617212565b915081905092915050565b7f457874656e73696f6e4d616e616765723a20616464696e6720657874656e73695f8201527f6f6e20776974686f757420696d706c656d656e746174696f6e2e000000000000602082015250565b5f6172b2603a83614f4a565b91506172bd82617258565b604082019050919050565b5f6020820190508181035f8301526172df816172a6565b9050919050565b7f457874656e73696f6e4d616e616765723a20656d707479206e616d652e0000005f82015250565b5f61731a601d83614f4a565b9150617325826172e6565b602082019050919050565b5f6020820190508181035f8301526173478161730e565b9050919050565b7f457874656e73696f6e4d616e616765723a20657874656e73696f6e20616c72655f8201527f616479206578697374732e000000000000000000000000000000000000000000602082015250565b5f6173a8602b83614f4a565b91506173b38261734e565b604082019050919050565b5f6020820190508181035f8301526173d58161739c565b905091905056fe416464726573733a206c6f772d6c6576656c2064656c65676174652063616c6c206661696c6564a264697066735822122064d639044f4a7a34cc5f982ad2425d06fa01e1ce70195e667e79bbfd76f5caf364736f6c6343000818003361018060405234801562000011575f80fd5b506040516200605c3803806200605c833981810160405281019062000037919062000400565b81816040518060400160405280600781526020017f4163636f756e74000000000000000000000000000000000000000000000000008152506040518060400160405280600181526020017f31000000000000000000000000000000000000000000000000000000000000008152505f828051906020012090505f828051906020012090505f7f8b73c3c69bb8fe3d512ecc4cf759cc79239f7b179b0ffacaa9a75d522b39400f90508260e081815250508161010081815250504660a081815250506200010b818484620001d860201b60201c565b608081815250503073ffffffffffffffffffffffffffffffffffffffff1660c08173ffffffffffffffffffffffffffffffffffffffff16815250508061012081815250505050505050620001646200021360201b60201c565b8073ffffffffffffffffffffffffffffffffffffffff166101408173ffffffffffffffffffffffffffffffffffffffff16815250508173ffffffffffffffffffffffffffffffffffffffff166101608173ffffffffffffffffffffffffffffffffffffffff168152505050505050620005c1565b5f8383834630604051602001620001f49594939291906200048a565b6040516020818303038152906040528051906020012090509392505050565b5f620002246200031560201b60201c565b5f015f9054906101000a900460ff1690505f620002466200031560201b60201c565b5f0160019054906101000a900460ff16905080156200029c576040517f08c379a0000000000000000000000000000000000000000000000000000000008152600401620002939062000569565b60405180910390fd5b60ff80168260ff161015620003115760ff620002bd6200031560201b60201c565b5f015f6101000a81548160ff021916908360ff1602179055507f7f26b83ff96e1f2b6a682f133852f6798a09c465da95921460cefb384740249860ff604051620003089190620005a6565b60405180910390a15b5050565b5f620003266200032b60201b60201c565b905090565b5f807f322cf19c484104d3b1a9c2982ebae869ede3fa5f6c4703ca41b9a48c76ee03005f1b90508091505090565b5f80fd5b5f73ffffffffffffffffffffffffffffffffffffffff82169050919050565b5f62000388826200035d565b9050919050565b5f6200039b826200037c565b9050919050565b620003ad816200038f565b8114620003b8575f80fd5b50565b5f81519050620003cb81620003a2565b92915050565b620003dc816200037c565b8114620003e7575f80fd5b50565b5f81519050620003fa81620003d1565b92915050565b5f806040838503121562000419576200041862000359565b5b5f6200042885828601620003bb565b92505060206200043b85828601620003ea565b9150509250929050565b5f819050919050565b620004598162000445565b82525050565b5f819050919050565b62000473816200045f565b82525050565b62000484816200037c565b82525050565b5f60a0820190506200049f5f8301886200044e565b620004ae60208301876200044e565b620004bd60408301866200044e565b620004cc606083018562000468565b620004db608083018462000479565b9695505050505050565b5f82825260208201905092915050565b7f496e697469616c697a61626c653a20636f6e747261637420697320696e6974695f8201527f616c697a696e6700000000000000000000000000000000000000000000000000602082015250565b5f62000551602783620004e5565b91506200055e82620004f5565b604082019050919050565b5f6020820190508181035f830152620005828162000543565b9050919050565b5f60ff82169050919050565b620005a08162000589565b82525050565b5f602082019050620005bb5f83018462000595565b92915050565b60805160a05160c05160e05161010051610120516101405161016051615a0e6200064e5f395f61179901525f818161054401528181610ae901528181611814015281816123be015281816124020152818161249a015281816125ad01526125eb01525f61305f01525f6130a101525f61308001525f612fb501525f61300b01525f6130340152615a0e5ff3fe60806040526004361061010c575f3560e01c8063b0d691fe11610094578063d087d28811610063578063d087d2881461045f578063d1f5789414610489578063d42f2f35146104b1578063e9523c97146104db578063f15d424e146105055761010d565b8063b0d691fe146103a7578063b76464d5146103d1578063c45a0155146103f9578063ce0b6013146104235761010d565b80635892e236116100db5780635892e236146102a05780637dff5a79146102c85780638b52d72314610304578063a9082d841461032e578063ac9650d81461036b5761010d565b80631dd756c5146101c257806324d7806c146101fe5780633a871cdd1461023a5780634a00cc48146102765761010d565b5b5f8036905003156101c0575f6101455f357fffffffff0000000000000000000000000000000000000000000000000000000016610541565b90505f73ffffffffffffffffffffffffffffffffffffffff168173ffffffffffffffffffffffffffffffffffffffff16036101b5576040517f08c379a00000000000000000000000000000000000000000000000000000000081526004016101ac90613341565b60405180910390fd5b6101be816105e1565b505b005b3480156101cd575f80fd5b506101e860048036038101906101e391906133ed565b610600565b6040516101f59190613461565b60405180910390f35b348015610209575f80fd5b50610224600480360381019061021f919061347a565b610a58565b6040516102319190613461565b60405180910390f35b348015610245575f80fd5b50610260600480360381019061025b919061350b565b610ab3565b60405161026d9190613586565b60405180910390f35b348015610281575f80fd5b5061028a610ae5565b60405161029791906138b7565b60405180910390f35b3480156102ab575f80fd5b506102c660048036038101906102c19190613957565b610b7c565b005b3480156102d3575f80fd5b506102ee60048036038101906102e9919061347a565b6110b9565b6040516102fb9190613461565b60405180910390f35b34801561030f575f80fd5b50610318611245565b6040516103259190613bdf565b60405180910390f35b348015610339575f80fd5b50610354600480360381019061034f9190613957565b6115ca565b604051610362929190613c0e565b60405180910390f35b348015610376575f80fd5b50610391600480360381019061038c9190613c8a565b611629565b60405161039e9190613de2565b60405180910390f35b3480156103b2575f80fd5b506103bb61172d565b6040516103c89190613e5d565b60405180910390f35b3480156103dc575f80fd5b506103f760048036038101906103f29190613eb1565b6117bf565b005b348015610404575f80fd5b5061040d611812565b60405161041a9190613edc565b60405180910390f35b34801561042e575f80fd5b5061044960048036038101906104449190613f1f565b610541565b6040516104569190613edc565b60405180910390f35b34801561046a575f80fd5b50610473611836565b6040516104809190613586565b60405180910390f35b348015610494575f80fd5b506104af60048036038101906104aa9190613f4a565b6118bd565b005b3480156104bc575f80fd5b506104c5611a83565b6040516104d29190613bdf565b60405180910390f35b3480156104e6575f80fd5b506104ef611d01565b6040516104fc9190614013565b60405180910390f35b348015610510575f80fd5b5061052b6004803603810190610526919061347a565b611d1a565b60405161053891906140a6565b60405180910390f35b5f7f000000000000000000000000000000000000000000000000000000000000000073ffffffffffffffffffffffffffffffffffffffff1663ce0b6013836040518263ffffffff1660e01b815260040161059b91906140d5565b602060405180830381865afa1580156105b6573d5f803e3d5ffd5b505050506040513d601f19601f820116820180604052508101906105da9190614102565b9050919050565b365f80375f80365f845af43d5f803e805f81146105fc573d5ff35b3d5ffd5b5f610609611ed3565b6004015f8473ffffffffffffffffffffffffffffffffffffffff1673ffffffffffffffffffffffffffffffffffffffff1681526020019081526020015f205f9054906101000a900460ff16156106625760019050610a52565b5f61066b611ed3565b6005015f8573ffffffffffffffffffffffffffffffffffffffff1673ffffffffffffffffffffffffffffffffffffffff1681526020019081526020015f206040518060600160405290815f8201548152602001600182015f9054906101000a90046fffffffffffffffffffffffffffffffff166fffffffffffffffffffffffffffffffff166fffffffffffffffffffffffffffffffff1681526020016001820160109054906101000a90046fffffffffffffffffffffffffffffffff166fffffffffffffffffffffffffffffffff166fffffffffffffffffffffffffffffffff168152505090505f61075b611ed3565b6006015f8673ffffffffffffffffffffffffffffffffffffffff1673ffffffffffffffffffffffffffffffffffffffff1681526020019081526020015f2090504282602001516fffffffffffffffffffffffffffffffff1611806107d5575081604001516fffffffffffffffffffffffffffffffff164210155b806107e757505f6107e582611ee1565b145b156107f6575f92505050610a52565b5f61080f85806060019061080a9190614139565b611ef4565b90505f600161081d84611ee1565b14801561086757505f73ffffffffffffffffffffffffffffffffffffffff1661084f5f85611f6290919063ffffffff16565b73ffffffffffffffffffffffffffffffffffffffff16145b905063b61d27f660e01b7bffffffffffffffffffffffffffffffffffffffffffffffffffffffff1916827bffffffffffffffffffffffffffffffffffffffffffffffffffffffff19160361091e575f806108cf8880606001906108ca9190614139565b611f79565b91509150826108fe576108eb828661200f90919063ffffffff16565b6108fd575f9650505050505050610a52565b5b80865f01511015610917575f9650505050505050610a52565b5050610a49565b6347e1da2a60e01b7bffffffffffffffffffffffffffffffffffffffffffffffffffffffff1916827bffffffffffffffffffffffffffffffffffffffffffffffffffffffff191603610a3c575f8061098488806060019061097f9190614139565b61203c565b5091509150826109e8575f5b82518110156109e6576109c68382815181106109af576109ae61419b565b5b60200260200101518761200f90919063ffffffff16565b6109d9575f975050505050505050610a52565b8080600101915050610990565b505b5f5b8251811015610a3457818181518110610a0657610a0561419b565b5b6020026020010151875f01511015610a27575f975050505050505050610a52565b80806001019150506109ea565b505050610a48565b5f945050505050610a52565b5b60019450505050505b92915050565b5f610a61611ed3565b6004015f8373ffffffffffffffffffffffffffffffffffffffff1673ffffffffffffffffffffffffffffffffffffffff1681526020019081526020015f205f9054906101000a900460ff169050919050565b5f610abc6120bb565b610ac68484612132565b9050610ad58460200135612317565b610ade8261231a565b9392505050565b60607f000000000000000000000000000000000000000000000000000000000000000073ffffffffffffffffffffffffffffffffffffffff16634a00cc486040518163ffffffff1660e01b81526004015f60405180830381865afa158015610b4f573d5f803e3d5ffd5b505050506040513d5f823e3d601f19601f82011682018060405250810190610b779190614641565b905090565b5f835f016020810190610b8f919061347a565b9050428460c0016020810190610ba591906146b2565b6fffffffffffffffffffffffffffffffff1611158015610be857508360e0016020810190610bd391906146b2565b6fffffffffffffffffffffffffffffffff1642105b610c27576040517f08c379a0000000000000000000000000000000000000000000000000000000008152600401610c1e90614727565b60405180910390fd5b5f80610c348686866115ca565b9150915081610c78576040517f08c379a0000000000000000000000000000000000000000000000000000000008152600401610c6f9061478f565b60405180910390fd5b6001610c82611ed3565b6007015f88610100013581526020019081526020015f205f6101000a81548160ff0219169083151502179055505f866020016020810190610cc391906147e3565b60ff161115610cfb575f6001876020016020810190610ce291906147e3565b60ff16149050610cf284826123b1565b505050506110b4565b610d0483610a58565b15610d44576040517f08c379a0000000000000000000000000000000000000000000000000000000008152600401610d3b90614858565b60405180910390fd5b610d6183610d50611ed3565b60020161253190919063ffffffff16565b50604051806060016040528087606001358152602001876080016020810190610d8a91906146b2565b6fffffffffffffffffffffffffffffffff1681526020018760a0016020810190610db491906146b2565b6fffffffffffffffffffffffffffffffff16815250610dd1611ed3565b6005015f8573ffffffffffffffffffffffffffffffffffffffff1673ffffffffffffffffffffffffffffffffffffffff1681526020019081526020015f205f820151815f01556020820151816001015f6101000a8154816fffffffffffffffffffffffffffffffff02191690836fffffffffffffffffffffffffffffffff16021790555060408201518160010160106101000a8154816fffffffffffffffffffffffffffffffff02191690836fffffffffffffffffffffffffffffffff1602179055509050505f610ee6610ea3611ed3565b6006015f8673ffffffffffffffffffffffffffffffffffffffff1673ffffffffffffffffffffffffffffffffffffffff1681526020019081526020015f2061255e565b90505f815190505f5b81811015610f7e57610f69838281518110610f0d57610f0c61419b565b5b6020026020010151610f1d611ed3565b6006015f8973ffffffffffffffffffffffffffffffffffffffff1673ffffffffffffffffffffffffffffffffffffffff1681526020019081526020015f2061257d90919063ffffffff16565b50600181610f7791906148a3565b9050610eef565b50878060400190610f8f91906148d6565b905090505f5b8181101561103f5761102a898060400190610fb091906148d6565b83818110610fc157610fc061419b565b5b9050602002016020810190610fd6919061347a565b610fde611ed3565b6006015f8973ffffffffffffffffffffffffffffffffffffffff1673ffffffffffffffffffffffffffffffffffffffff1681526020019081526020015f2061253190919063ffffffff16565b5060018161103891906148a3565b9050610f95565b50611049886125aa565b8473ffffffffffffffffffffffffffffffffffffffff168373ffffffffffffffffffffffffffffffffffffffff167ff21d10c26e35863a8df291aca54181ee8c4a3bc8e00246c3f7a5a14b69d826a78a6040516110a69190614bae565b60405180910390a350505050505b505050565b5f806110c3611ed3565b6005015f8473ffffffffffffffffffffffffffffffffffffffff1673ffffffffffffffffffffffffffffffffffffffff1681526020019081526020015f206040518060600160405290815f8201548152602001600182015f9054906101000a90046fffffffffffffffffffffffffffffffff166fffffffffffffffffffffffffffffffff166fffffffffffffffffffffffffffffffff1681526020016001820160109054906101000a90046fffffffffffffffffffffffffffffffff166fffffffffffffffffffffffffffffffff166fffffffffffffffffffffffffffffffff168152505090504281602001516fffffffffffffffffffffffffffffffff16111580156111e5575080604001516fffffffffffffffffffffffffffffffff1642105b801561123d57505f61123b6111f8611ed3565b6006015f8673ffffffffffffffffffffffffffffffffffffffff1673ffffffffffffffffffffffffffffffffffffffff1681526020019081526020015f20611ee1565b115b915050919050565b60605f61125b611253611ed3565b60020161255e565b90505f815190505f805b8281101561130b576112908482815181106112835761128261419b565b5b60200260200101516110b9565b156112a85781806112a090614bce565b9250506112f7565b5f8482815181106112bc576112bb61419b565b5b602002602001019073ffffffffffffffffffffffffffffffffffffffff16908173ffffffffffffffffffffffffffffffffffffffff16815250505b60018161130491906148a3565b9050611265565b508067ffffffffffffffff811115611326576113256141c8565b5b60405190808252806020026020018201604052801561135f57816020015b61134c613282565b8152602001906001900390816113445790505b5093505f805b838110156115c2575f73ffffffffffffffffffffffffffffffffffffffff168582815181106113975761139661419b565b5b602002602001015173ffffffffffffffffffffffffffffffffffffffff16146115ae575f8582815181106113ce576113cd61419b565b5b602002602001015190505f6113e1611ed3565b6005015f8373ffffffffffffffffffffffffffffffffffffffff1673ffffffffffffffffffffffffffffffffffffffff1681526020019081526020015f206040518060600160405290815f8201548152602001600182015f9054906101000a90046fffffffffffffffffffffffffffffffff166fffffffffffffffffffffffffffffffff166fffffffffffffffffffffffffffffffff1681526020016001820160109054906101000a90046fffffffffffffffffffffffffffffffff166fffffffffffffffffffffffffffffffff166fffffffffffffffffffffffffffffffff168152505090506040518060a001604052808373ffffffffffffffffffffffffffffffffffffffff16815260200161153d6114fa611ed3565b6006015f8673ffffffffffffffffffffffffffffffffffffffff1673ffffffffffffffffffffffffffffffffffffffff1681526020019081526020015f2061255e565b8152602001825f0151815260200182602001516fffffffffffffffffffffffffffffffff16815260200182604001516fffffffffffffffffffffffffffffffff1681525088858061158d90614bce565b9650815181106115a05761159f61419b565b5b602002602001018190525050505b6001816115bb91906148a3565b9050611365565b505050505090565b5f806115df6115d886612691565b8585612796565b90506115e9611ed3565b6007015f86610100013581526020019081526020015f205f9054906101000a900460ff1615801561161f575061161e81610a58565b5b9150935093915050565b60608282905067ffffffffffffffff811115611648576116476141c8565b5b60405190808252806020026020018201604052801561167b57816020015b60608152602001906001900390816116665790505b5090505f5b83839050811015611726576116fb308585848181106116a2576116a161419b565b5b90506020028101906116b49190614139565b8080601f0160208091040260200160405190810160405280939291908181526020018383808284375f81840152601f19601f82011690508083019250505050505050612805565b82828151811061170e5761170d61419b565b5b60200260200101819052508080600101915050611680565b5092915050565b5f80611737612832565b5f015f9054906101000a900473ffffffffffffffffffffffffffffffffffffffff1690505f73ffffffffffffffffffffffffffffffffffffffff168173ffffffffffffffffffffffffffffffffffffffff161461179757809150506117bc565b7f00000000000000000000000000000000000000000000000000000000000000009150505b90565b6117c7612860565b806117d0612832565b5f015f6101000a81548173ffffffffffffffffffffffffffffffffffffffff021916908373ffffffffffffffffffffffffffffffffffffffff16021790555050565b7f000000000000000000000000000000000000000000000000000000000000000081565b5f61183f61172d565b73ffffffffffffffffffffffffffffffffffffffff166335567e1a305f6040518363ffffffff1660e01b8152600401611879929190614c71565b602060405180830381865afa158015611894573d5f803e3d5ffd5b505050506040513d601f19601f820116820180604052508101906118b89190614cac565b905090565b5f6118c66128aa565b5f015f9054906101000a900460ff1690505f6118e06128aa565b5f0160019054906101000a900460ff1690505f81159050808015611907575060018360ff16105b806119275750611916306128b8565b158015611926575060018360ff16145b5b611966576040517f08c379a000000000000000000000000000000000000000000000000000000000815260040161195d90614d47565b60405180910390fd5b60016119706128aa565b5f015f6101000a81548160ff021916908360ff16021790555080156119b35760016119996128aa565b5f0160016101000a81548160ff0219169083151502179055505b611a008686868080601f0160208091040260200160405190810160405280939291908181526020018383808284375f81840152601f19601f820116905080830192505050505050506128da565b611a08612832565b60010181905550611a1a8660016123b1565b8015611a7b575f611a296128aa565b5f0160016101000a81548160ff0219169083151502179055507f7f26b83ff96e1f2b6a682f133852f6798a09c465da95921460cefb38474024986001604051611a729190614d9e565b60405180910390a15b505050505050565b60605f611a99611a91611ed3565b60020161255e565b90505f815190508067ffffffffffffffff811115611aba57611ab96141c8565b5b604051908082528060200260200182016040528015611af357816020015b611ae0613282565b815260200190600190039081611ad85790505b5092505f5b81811015611cfb575f838281518110611b1457611b1361419b565b5b602002602001015190505f611b27611ed3565b6005015f8373ffffffffffffffffffffffffffffffffffffffff1673ffffffffffffffffffffffffffffffffffffffff1681526020019081526020015f206040518060600160405290815f8201548152602001600182015f9054906101000a90046fffffffffffffffffffffffffffffffff166fffffffffffffffffffffffffffffffff166fffffffffffffffffffffffffffffffff1681526020016001820160109054906101000a90046fffffffffffffffffffffffffffffffff166fffffffffffffffffffffffffffffffff166fffffffffffffffffffffffffffffffff168152505090506040518060a001604052808373ffffffffffffffffffffffffffffffffffffffff168152602001611c83611c40611ed3565b6006015f8673ffffffffffffffffffffffffffffffffffffffff1673ffffffffffffffffffffffffffffffffffffffff1681526020019081526020015f2061255e565b8152602001825f0151815260200182602001516fffffffffffffffffffffffffffffffff16815260200182604001516fffffffffffffffffffffffffffffffff16815250868481518110611cda57611cd961419b565b5b60200260200101819052505050600181611cf491906148a3565b9050611af8565b50505090565b6060611d15611d0e611ed3565b5f0161255e565b905090565b611d22613282565b5f611d2b611ed3565b6005015f8473ffffffffffffffffffffffffffffffffffffffff1673ffffffffffffffffffffffffffffffffffffffff1681526020019081526020015f206040518060600160405290815f8201548152602001600182015f9054906101000a90046fffffffffffffffffffffffffffffffff166fffffffffffffffffffffffffffffffff166fffffffffffffffffffffffffffffffff1681526020016001820160109054906101000a90046fffffffffffffffffffffffffffffffff166fffffffffffffffffffffffffffffffff166fffffffffffffffffffffffffffffffff168152505090506040518060a001604052808473ffffffffffffffffffffffffffffffffffffffff168152602001611e87611e44611ed3565b6006015f8773ffffffffffffffffffffffffffffffffffffffff1673ffffffffffffffffffffffffffffffffffffffff1681526020019081526020015f2061255e565b8152602001825f0151815260200182602001516fffffffffffffffffffffffffffffffff16815260200182604001516fffffffffffffffffffffffffffffffff16815250915050919050565b5f611edc61290c565b905090565b5f611eed825f0161293a565b9050919050565b5f6004838390501015611f3c576040517f08c379a0000000000000000000000000000000000000000000000000000000008152600401611f3390614e01565b60405180910390fd5b82825f90600492611f4f93929190614e27565b90611f5a9190614e77565b905092915050565b5f611f6f835f0183612949565b5f1c905092915050565b5f806044848490501015611fc2576040517f08c379a0000000000000000000000000000000000000000000000000000000008152600401611fb990614e01565b60405180910390fd5b8383600490602492611fd693929190614e27565b810190611fe39190614f10565b91508383602490604492611ff993929190614e27565b8101906120069190614f3b565b90509250929050565b5f612034835f018373ffffffffffffffffffffffffffffffffffffffff165f1b612970565b905092915050565b60608060606064858590501015612088576040517f08c379a000000000000000000000000000000000000000000000000000000000815260040161207f90614e01565b60405180910390fd5b8484600490809261209b93929190614e27565b8101906120a89190615270565b8093508194508295505050509250925092565b6120c361172d565b73ffffffffffffffffffffffffffffffffffffffff163373ffffffffffffffffffffffffffffffffffffffff1614612130576040517f08c379a00000000000000000000000000000000000000000000000000000000081526004016121279061535e565b60405180910390fd5b565b5f8061213d83612990565b90505f6121a5858061014001906121549190614139565b8080601f0160208091040260200160405190810160405280939291908181526020018383808284375f81840152601f19601f82011690508083019250505050505050836129c390919063ffffffff16565b90506121b18186610600565b6121c057600192505050612311565b5f6121c9611ed3565b6005015f8373ffffffffffffffffffffffffffffffffffffffff1673ffffffffffffffffffffffffffffffffffffffff1681526020019081526020015f206040518060600160405290815f8201548152602001600182015f9054906101000a90046fffffffffffffffffffffffffffffffff166fffffffffffffffffffffffffffffffff166fffffffffffffffffffffffffffffffff1681526020016001820160109054906101000a90046fffffffffffffffffffffffffffffffff166fffffffffffffffffffffffffffffffff166fffffffffffffffffffffffffffffffff168152505090505f816020015190505f8260400151905061230960405180606001604052805f73ffffffffffffffffffffffffffffffffffffffff1681526020018465ffffffffffff1681526020018365ffffffffffff168152506129e8565b955050505050505b92915050565b50565b5f81146123ae575f3373ffffffffffffffffffffffffffffffffffffffff16827fffffffffffffffffffffffffffffffffffffffffffffffffffffffffffffffff90604051612368906153a9565b5f60405180830381858888f193505050503d805f81146123a3576040519150601f19603f3d011682016040523d82523d5f602084013e6123a8565b606091505b50509050505b50565b6123bb8282612a2e565b5f7f000000000000000000000000000000000000000000000000000000000000000073ffffffffffffffffffffffffffffffffffffffff163b111561252d578015612498577f000000000000000000000000000000000000000000000000000000000000000073ffffffffffffffffffffffffffffffffffffffff16630b61e12b83612445612832565b600101546040518363ffffffff1660e01b81526004016124669291906153cc565b5f604051808303815f87803b15801561247d575f80fd5b505af115801561248f573d5f803e3d5ffd5b5050505061252c565b7f000000000000000000000000000000000000000000000000000000000000000073ffffffffffffffffffffffffffffffffffffffff16639387a380836124dd612832565b600101546040518363ffffffff1660e01b81526004016124fe9291906153cc565b5f604051808303815f87803b158015612515575f80fd5b505af1158015612527573d5f803e3d5ffd5b505050505b5b5050565b5f612556835f018373ffffffffffffffffffffffffffffffffffffffff165f1b612b23565b905092915050565b60605f61256c835f01612b8a565b905060608190508092505050919050565b5f6125a2835f018373ffffffffffffffffffffffffffffffffffffffff165f1b612be3565b905092915050565b5f7f000000000000000000000000000000000000000000000000000000000000000073ffffffffffffffffffffffffffffffffffffffff163b111561268e577f000000000000000000000000000000000000000000000000000000000000000073ffffffffffffffffffffffffffffffffffffffff16630b61e12b825f016020810190612637919061347a565b61263f612832565b600101546040518363ffffffff1660e01b81526004016126609291906153cc565b5f604051808303815f87803b158015612677575f80fd5b505af1158015612689573d5f803e3d5ffd5b505050505b50565b60607f3fd4a1a1a267c84185e3b7eecd57c68783c0581d538b9d6e5f23e4670497c1e9825f0160208101906126c6919061347a565b8360200160208101906126d991906147e3565b8480604001906126e991906148d6565b6040516020016126fa92919061547e565b60405160208183030381529060405280519060200120856060013586608001602081019061272891906146b2565b8760a001602081019061273b91906146b2565b8860c001602081019061274e91906146b2565b8960e001602081019061276191906146b2565b8a61010001356040516020016127809a999897969594939291906154b4565b6040516020818303038152906040529050919050565b5f6127fc83838080601f0160208091040260200160405190810160405280939291908181526020018383808284375f81840152601f19601f820116905080830192505050505050506127ee8680519060200120612cdf565b6129c390919063ffffffff16565b90509392505050565b606061282a83836040518060600160405280602781526020016159b260279139612cf8565b905092915050565b5f807f036f52c1827dab135f7fd44ca0bddde297e2f659c710e0ec53e975f22b5483005f1b90508091505090565b61286933610a58565b6128a8576040517f08c379a000000000000000000000000000000000000000000000000000000000815260040161289f90615598565b60405180910390fd5b565b5f6128b3612dd3565b905090565b5f808273ffffffffffffffffffffffffffffffffffffffff163b119050919050565b5f82826040516020016128ee9291906155fe565b60405160208183030381529060405280519060200120905092915050565b5f807f3181e78fc1b109bc611fd2406150bf06e33faa75f71cba12c3e1fd670f2def005f1b90508091505090565b5f815f01805490509050919050565b5f825f01828154811061295f5761295e61419b565b5b905f5260205f200154905092915050565b5f80836001015f8481526020019081526020015f20541415905092915050565b5f7f19457468657265756d205369676e6564204d6573736167653a0a3332000000005f5281601c52603c5f209050919050565b5f805f6129d08585612e01565b915091506129dd81612e4d565b819250505092915050565b5f60d0826020015165ffffffffffff16901b60a0836040015165ffffffffffff16901b835f015173ffffffffffffffffffffffffffffffffffffffff1617179050919050565b80612a37611ed3565b6004015f8473ffffffffffffffffffffffffffffffffffffffff1673ffffffffffffffffffffffffffffffffffffffff1681526020019081526020015f205f6101000a81548160ff0219169083151502179055508015612ab357612aad82612a9d611ed3565b5f0161253190919063ffffffff16565b50612ad1565b612acf82612abf611ed3565b5f0161257d90919063ffffffff16565b505b8173ffffffffffffffffffffffffffffffffffffffff167f235bc17e7930760029e9f4d860a2a8089976de5b381cf8380fc11c1d88a1113382604051612b179190613461565b60405180910390a25050565b5f612b2e8383612970565b612b8057825f0182908060018154018082558091505060019003905f5260205f20015f9091909190915055825f0180549050836001015f8481526020019081526020015f208190555060019050612b84565b5f90505b92915050565b6060815f01805480602002602001604051908101604052809291908181526020018280548015612bd757602002820191905f5260205f20905b815481526020019060010190808311612bc3575b50505050509050919050565b5f80836001015f8481526020019081526020015f205490505f8114612cd4575f600182612c10919061562c565b90505f6001865f0180549050612c26919061562c565b9050818114612c8c575f865f018281548110612c4557612c4461419b565b5b905f5260205f200154905080875f018481548110612c6657612c6561419b565b5b905f5260205f20018190555083876001015f8381526020019081526020015f2081905550505b855f01805480612c9f57612c9e61565f565b5b600190038181905f5260205f20015f90559055856001015f8681526020019081526020015f205f905560019350505050612cd9565b5f9150505b92915050565b5f612cf1612ceb612fb2565b836130cb565b9050919050565b6060612d03846128b8565b8015612d155750612d13336128b8565b155b612d54576040517f08c379a0000000000000000000000000000000000000000000000000000000008152600401612d4b906156d6565b60405180910390fd5b5f808573ffffffffffffffffffffffffffffffffffffffff1685604051612d7b9190615724565b5f60405180830381855af49150503d805f8114612db3576040519150601f19603f3d011682016040523d82523d5f602084013e612db8565b606091505b5091509150612dc882828661310b565b925050509392505050565b5f807f322cf19c484104d3b1a9c2982ebae869ede3fa5f6c4703ca41b9a48c76ee03005f1b90508091505090565b5f806041835103612e3e575f805f602086015192506040860151915060608601515f1a9050612e3287828585613171565b94509450505050612e46565b5f6002915091505b9250929050565b5f6004811115612e6057612e5f61573a565b5b816004811115612e7357612e7261573a565b5b0315612faf5760016004811115612e8d57612e8c61573a565b5b816004811115612ea057612e9f61573a565b5b03612ee0576040517f08c379a0000000000000000000000000000000000000000000000000000000008152600401612ed7906157b1565b60405180910390fd5b60026004811115612ef457612ef361573a565b5b816004811115612f0757612f0661573a565b5b03612f47576040517f08c379a0000000000000000000000000000000000000000000000000000000008152600401612f3e90615819565b60405180910390fd5b60036004811115612f5b57612f5a61573a565b5b816004811115612f6e57612f6d61573a565b5b03612fae576040517f08c379a0000000000000000000000000000000000000000000000000000000008152600401612fa5906158a7565b60405180910390fd5b5b50565b5f7f000000000000000000000000000000000000000000000000000000000000000073ffffffffffffffffffffffffffffffffffffffff163073ffffffffffffffffffffffffffffffffffffffff1614801561302d57507f000000000000000000000000000000000000000000000000000000000000000046145b1561305a577f000000000000000000000000000000000000000000000000000000000000000090506130c8565b6130c57f00000000000000000000000000000000000000000000000000000000000000007f00000000000000000000000000000000000000000000000000000000000000007f0000000000000000000000000000000000000000000000000000000000000000613249565b90505b90565b5f6040517f190100000000000000000000000000000000000000000000000000000000000081528360028201528260228201526042812091505092915050565b6060831561311b5782905061316a565b5f8351111561312d5782518084602001fd5b816040517f08c379a000000000000000000000000000000000000000000000000000000000815260040161316191906158fd565b60405180910390fd5b9392505050565b5f807f7fffffffffffffffffffffffffffffff5d576e7357a4501ddfe92f46681b20a0835f1c11156131a9575f600391509150613240565b5f6001878787876040515f81526020016040526040516131cc949392919061591d565b6020604051602081039080840390855afa1580156131ec573d5f803e3d5ffd5b5050506020604051035190505f73ffffffffffffffffffffffffffffffffffffffff168173ffffffffffffffffffffffffffffffffffffffff1603613238575f60019250925050613240565b805f92509250505b94509492505050565b5f8383834630604051602001613263959493929190615960565b6040516020818303038152906040528051906020012090509392505050565b6040518060a001604052805f73ffffffffffffffffffffffffffffffffffffffff168152602001606081526020015f81526020015f6fffffffffffffffffffffffffffffffff1681526020015f6fffffffffffffffffffffffffffffffff1681525090565b5f82825260208201905092915050565b7f526f757465723a2066756e6374696f6e20646f6573206e6f742065786973742e5f82015250565b5f61332b6020836132e7565b9150613336826132f7565b602082019050919050565b5f6020820190508181035f8301526133588161331f565b9050919050565b5f604051905090565b5f80fd5b5f80fd5b5f73ffffffffffffffffffffffffffffffffffffffff82169050919050565b5f61339982613370565b9050919050565b6133a98161338f565b81146133b3575f80fd5b50565b5f813590506133c4816133a0565b92915050565b5f80fd5b5f61016082840312156133e4576133e36133ca565b5b81905092915050565b5f806040838503121561340357613402613368565b5b5f613410858286016133b6565b925050602083013567ffffffffffffffff8111156134315761343061336c565b5b61343d858286016133ce565b9150509250929050565b5f8115159050919050565b61345b81613447565b82525050565b5f6020820190506134745f830184613452565b92915050565b5f6020828403121561348f5761348e613368565b5b5f61349c848285016133b6565b91505092915050565b5f819050919050565b6134b7816134a5565b81146134c1575f80fd5b50565b5f813590506134d2816134ae565b92915050565b5f819050919050565b6134ea816134d8565b81146134f4575f80fd5b50565b5f81359050613505816134e1565b92915050565b5f805f6060848603121561352257613521613368565b5b5f84013567ffffffffffffffff81111561353f5761353e61336c565b5b61354b868287016133ce565b935050602061355c868287016134c4565b925050604061356d868287016134f7565b9150509250925092565b613580816134d8565b82525050565b5f6020820190506135995f830184613577565b92915050565b5f81519050919050565b5f82825260208201905092915050565b5f819050602082019050919050565b5f81519050919050565b5f82825260208201905092915050565b5f5b838110156135ff5780820151818401526020810190506135e4565b5f8484015250505050565b5f601f19601f8301169050919050565b5f613624826135c8565b61362e81856135d2565b935061363e8185602086016135e2565b6136478161360a565b840191505092915050565b61365b8161338f565b82525050565b5f606083015f8301518482035f86015261367b828261361a565b91505060208301518482036020860152613695828261361a565b91505060408301516136aa6040860182613652565b508091505092915050565b5f81519050919050565b5f82825260208201905092915050565b5f819050602082019050919050565b5f7fffffffff0000000000000000000000000000000000000000000000000000000082169050919050565b613712816136de565b82525050565b5f604083015f83015161372d5f860182613709565b5060208301518482036020860152613745828261361a565b9150508091505092915050565b5f61375d8383613718565b905092915050565b5f602082019050919050565b5f61377b826136b5565b61378581856136bf565b935083602082028501613797856136cf565b805f5b858110156137d257848403895281516137b38582613752565b94506137be83613765565b925060208a0199505060018101905061379a565b50829750879550505050505092915050565b5f604083015f8301518482035f8601526137fe8282613661565b915050602083015184820360208601526138188282613771565b9150508091505092915050565b5f61383083836137e4565b905092915050565b5f602082019050919050565b5f61384e8261359f565b61385881856135a9565b93508360208202850161386a856135b9565b805f5b858110156138a557848403895281516138868582613825565b945061389183613838565b925060208a0199505060018101905061386d565b50829750879550505050505092915050565b5f6020820190508181035f8301526138cf8184613844565b905092915050565b5f61012082840312156138ed576138ec6133ca565b5b81905092915050565b5f80fd5b5f80fd5b5f80fd5b5f8083601f840112613917576139166138f6565b5b8235905067ffffffffffffffff811115613934576139336138fa565b5b6020830191508360018202830111156139505761394f6138fe565b5b9250929050565b5f805f6040848603121561396e5761396d613368565b5b5f84013567ffffffffffffffff81111561398b5761398a61336c565b5b613997868287016138d7565b935050602084013567ffffffffffffffff8111156139b8576139b761336c565b5b6139c486828701613902565b92509250509250925092565b5f81519050919050565b5f82825260208201905092915050565b5f819050602082019050919050565b5f81519050919050565b5f82825260208201905092915050565b5f819050602082019050919050565b5f613a2d8383613652565b60208301905092915050565b5f602082019050919050565b5f613a4f826139f9565b613a598185613a03565b9350613a6483613a13565b805f5b83811015613a94578151613a7b8882613a22565b9750613a8683613a39565b925050600181019050613a67565b5085935050505092915050565b613aaa816134d8565b82525050565b5f6fffffffffffffffffffffffffffffffff82169050919050565b613ad481613ab0565b82525050565b5f60a083015f830151613aef5f860182613652565b5060208301518482036020860152613b078282613a45565b9150506040830151613b1c6040860182613aa1565b506060830151613b2f6060860182613acb565b506080830151613b426080860182613acb565b508091505092915050565b5f613b588383613ada565b905092915050565b5f602082019050919050565b5f613b76826139d0565b613b8081856139da565b935083602082028501613b92856139ea565b805f5b85811015613bcd5784840389528151613bae8582613b4d565b9450613bb983613b60565b925060208a01995050600181019050613b95565b50829750879550505050505092915050565b5f6020820190508181035f830152613bf78184613b6c565b905092915050565b613c088161338f565b82525050565b5f604082019050613c215f830185613452565b613c2e6020830184613bff565b9392505050565b5f8083601f840112613c4a57613c496138f6565b5b8235905067ffffffffffffffff811115613c6757613c666138fa565b5b602083019150836020820283011115613c8357613c826138fe565b5b9250929050565b5f8060208385031215613ca057613c9f613368565b5b5f83013567ffffffffffffffff811115613cbd57613cbc61336c565b5b613cc985828601613c35565b92509250509250929050565b5f81519050919050565b5f82825260208201905092915050565b5f819050602082019050919050565b5f81519050919050565b5f82825260208201905092915050565b5f613d2282613cfe565b613d2c8185613d08565b9350613d3c8185602086016135e2565b613d458161360a565b840191505092915050565b5f613d5b8383613d18565b905092915050565b5f602082019050919050565b5f613d7982613cd5565b613d838185613cdf565b935083602082028501613d9585613cef565b805f5b85811015613dd05784840389528151613db18582613d50565b9450613dbc83613d63565b925060208a01995050600181019050613d98565b50829750879550505050505092915050565b5f6020820190508181035f830152613dfa8184613d6f565b905092915050565b5f819050919050565b5f613e25613e20613e1b84613370565b613e02565b613370565b9050919050565b5f613e3682613e0b565b9050919050565b5f613e4782613e2c565b9050919050565b613e5781613e3d565b82525050565b5f602082019050613e705f830184613e4e565b92915050565b5f613e808261338f565b9050919050565b613e9081613e76565b8114613e9a575f80fd5b50565b5f81359050613eab81613e87565b92915050565b5f60208284031215613ec657613ec5613368565b5b5f613ed384828501613e9d565b91505092915050565b5f602082019050613eef5f830184613bff565b92915050565b613efe816136de565b8114613f08575f80fd5b50565b5f81359050613f1981613ef5565b92915050565b5f60208284031215613f3457613f33613368565b5b5f613f4184828501613f0b565b91505092915050565b5f805f60408486031215613f6157613f60613368565b5b5f613f6e868287016133b6565b935050602084013567ffffffffffffffff811115613f8f57613f8e61336c565b5b613f9b86828701613902565b92509250509250925092565b5f82825260208201905092915050565b5f613fc1826139f9565b613fcb8185613fa7565b9350613fd683613a13565b805f5b83811015614006578151613fed8882613a22565b9750613ff883613a39565b925050600181019050613fd9565b5085935050505092915050565b5f6020820190508181035f83015261402b8184613fb7565b905092915050565b5f60a083015f8301516140485f860182613652565b50602083015184820360208601526140608282613a45565b91505060408301516140756040860182613aa1565b5060608301516140886060860182613acb565b50608083015161409b6080860182613acb565b508091505092915050565b5f6020820190508181035f8301526140be8184614033565b905092915050565b6140cf816136de565b82525050565b5f6020820190506140e85f8301846140c6565b92915050565b5f815190506140fc816133a0565b92915050565b5f6020828403121561411757614116613368565b5b5f614124848285016140ee565b91505092915050565b5f80fd5b5f80fd5b5f80fd5b5f80833560016020038436030381126141555761415461412d565b5b80840192508235915067ffffffffffffffff82111561417757614176614131565b5b60208301925060018202360383131561419357614192614135565b5b509250929050565b7f4e487b71000000000000000000000000000000000000000000000000000000005f52603260045260245ffd5b7f4e487b71000000000000000000000000000000000000000000000000000000005f52604160045260245ffd5b6141fe8261360a565b810181811067ffffffffffffffff8211171561421d5761421c6141c8565b5b80604052505050565b5f61422f61335f565b905061423b82826141f5565b919050565b5f67ffffffffffffffff82111561425a576142596141c8565b5b602082029050602081019050919050565b5f80fd5b5f80fd5b5f80fd5b5f67ffffffffffffffff821115614291576142906141c8565b5b61429a8261360a565b9050602081019050919050565b5f6142b96142b484614277565b614226565b9050828152602081018484840111156142d5576142d4614273565b5b6142e08482856135e2565b509392505050565b5f82601f8301126142fc576142fb6138f6565b5b815161430c8482602086016142a7565b91505092915050565b5f6060828403121561432a5761432961426b565b5b6143346060614226565b90505f82015167ffffffffffffffff8111156143535761435261426f565b5b61435f848285016142e8565b5f83015250602082015167ffffffffffffffff8111156143825761438161426f565b5b61438e848285016142e8565b60208301525060406143a2848285016140ee565b60408301525092915050565b5f67ffffffffffffffff8211156143c8576143c76141c8565b5b602082029050602081019050919050565b5f815190506143e781613ef5565b92915050565b5f604082840312156144025761440161426b565b5b61440c6040614226565b90505f61441b848285016143d9565b5f83015250602082015167ffffffffffffffff81111561443e5761443d61426f565b5b61444a848285016142e8565b60208301525092915050565b5f614468614463846143ae565b614226565b9050808382526020820190506020840283018581111561448b5761448a6138fe565b5b835b818110156144d257805167ffffffffffffffff8111156144b0576144af6138f6565b5b8086016144bd89826143ed565b8552602085019450505060208101905061448d565b5050509392505050565b5f82601f8301126144f0576144ef6138f6565b5b8151614500848260208601614456565b91505092915050565b5f6040828403121561451e5761451d61426b565b5b6145286040614226565b90505f82015167ffffffffffffffff8111156145475761454661426f565b5b61455384828501614315565b5f83015250602082015167ffffffffffffffff8111156145765761457561426f565b5b614582848285016144dc565b60208301525092915050565b5f6145a061459b84614240565b614226565b905080838252602082019050602084028301858111156145c3576145c26138fe565b5b835b8181101561460a57805167ffffffffffffffff8111156145e8576145e76138f6565b5b8086016145f58982614509565b855260208501945050506020810190506145c5565b5050509392505050565b5f82601f830112614628576146276138f6565b5b815161463884826020860161458e565b91505092915050565b5f6020828403121561465657614655613368565b5b5f82015167ffffffffffffffff8111156146735761467261336c565b5b61467f84828501614614565b91505092915050565b61469181613ab0565b811461469b575f80fd5b50565b5f813590506146ac81614688565b92915050565b5f602082840312156146c7576146c6613368565b5b5f6146d48482850161469e565b91505092915050565b7f21706572696f64000000000000000000000000000000000000000000000000005f82015250565b5f6147116007836132e7565b915061471c826146dd565b602082019050919050565b5f6020820190508181035f83015261473e81614705565b9050919050565b7f21736967000000000000000000000000000000000000000000000000000000005f82015250565b5f6147796004836132e7565b915061478482614745565b602082019050919050565b5f6020820190508181035f8301526147a68161476d565b9050919050565b5f60ff82169050919050565b6147c2816147ad565b81146147cc575f80fd5b50565b5f813590506147dd816147b9565b92915050565b5f602082840312156147f8576147f7613368565b5b5f614805848285016147cf565b91505092915050565b7f61646d696e0000000000000000000000000000000000000000000000000000005f82015250565b5f6148426005836132e7565b915061484d8261480e565b602082019050919050565b5f6020820190508181035f83015261486f81614836565b9050919050565b7f4e487b71000000000000000000000000000000000000000000000000000000005f52601160045260245ffd5b5f6148ad826134d8565b91506148b8836134d8565b92508282019050808211156148d0576148cf614876565b5b92915050565b5f80833560016020038436030381126148f2576148f161412d565b5b80840192508235915067ffffffffffffffff82111561491457614913614131565b5b6020830192506020820236038313156149305761492f614135565b5b509250929050565b5f61494660208401846133b6565b905092915050565b5f61495c60208401846147cf565b905092915050565b61496d816147ad565b82525050565b5f80fd5b5f80fd5b5f80fd5b5f808335600160200384360303811261499b5761499a61497b565b5b83810192508235915060208301925067ffffffffffffffff8211156149c3576149c2614973565b5b6020820236038313156149d9576149d8614977565b5b509250929050565b5f819050919050565b5f602082019050919050565b5f614a018385613a03565b9350614a0c826149e1565b805f5b85811015614a4457614a218284614938565b614a2b8882613a22565b9750614a36836149ea565b925050600181019050614a0f565b5085925050509392505050565b5f614a5f60208401846134f7565b905092915050565b5f614a75602084018461469e565b905092915050565b5f614a8b60208401846134c4565b905092915050565b614a9c816134a5565b82525050565b5f6101208301614ab45f840184614938565b614ac05f860182613652565b50614ace602084018461494e565b614adb6020860182614964565b50614ae9604084018461497f565b8583036040870152614afc8382846149f6565b92505050614b0d6060840184614a51565b614b1a6060860182613aa1565b50614b286080840184614a67565b614b356080860182613acb565b50614b4360a0840184614a67565b614b5060a0860182613acb565b50614b5e60c0840184614a67565b614b6b60c0860182613acb565b50614b7960e0840184614a67565b614b8660e0860182613acb565b50614b95610100840184614a7d565b614ba3610100860182614a93565b508091505092915050565b5f6020820190508181035f830152614bc68184614aa2565b905092915050565b5f614bd8826134d8565b91507fffffffffffffffffffffffffffffffffffffffffffffffffffffffffffffffff8203614c0a57614c09614876565b5b600182019050919050565b5f819050919050565b5f77ffffffffffffffffffffffffffffffffffffffffffffffff82169050919050565b5f614c5b614c56614c5184614c15565b613e02565b614c1e565b9050919050565b614c6b81614c41565b82525050565b5f604082019050614c845f830185613bff565b614c916020830184614c62565b9392505050565b5f81519050614ca6816134e1565b92915050565b5f60208284031215614cc157614cc0613368565b5b5f614cce84828501614c98565b91505092915050565b7f496e697469616c697a61626c653a20636f6e747261637420697320616c7265615f8201527f647920696e697469616c697a6564000000000000000000000000000000000000602082015250565b5f614d31602e836132e7565b9150614d3c82614cd7565b604082019050919050565b5f6020820190508181035f830152614d5e81614d25565b9050919050565b5f819050919050565b5f614d88614d83614d7e84614d65565b613e02565b6147ad565b9050919050565b614d9881614d6e565b82525050565b5f602082019050614db15f830184614d8f565b92915050565b7f21446174610000000000000000000000000000000000000000000000000000005f82015250565b5f614deb6005836132e7565b9150614df682614db7565b602082019050919050565b5f6020820190508181035f830152614e1881614ddf565b9050919050565b5f80fd5b5f80fd5b5f8085851115614e3a57614e39614e1f565b5b83861115614e4b57614e4a614e23565b5b6001850283019150848603905094509492505050565b5f82905092915050565b5f82821b905092915050565b5f614e828383614e61565b82614e8d81356136de565b92506004821015614ecd57614ec87fffffffff0000000000000000000000000000000000000000000000000000000083600403600802614e6b565b831692505b505092915050565b5f614edf82613370565b9050919050565b614eef81614ed5565b8114614ef9575f80fd5b50565b5f81359050614f0a81614ee6565b92915050565b5f60208284031215614f2557614f24613368565b5b5f614f3284828501614efc565b91505092915050565b5f60208284031215614f5057614f4f613368565b5b5f614f5d848285016134f7565b91505092915050565b5f67ffffffffffffffff821115614f8057614f7f6141c8565b5b602082029050602081019050919050565b5f614fa3614f9e84614f66565b614226565b90508083825260208201905060208402830185811115614fc657614fc56138fe565b5b835b81811015614fef5780614fdb88826133b6565b845260208401935050602081019050614fc8565b5050509392505050565b5f82601f83011261500d5761500c6138f6565b5b813561501d848260208601614f91565b91505092915050565b5f67ffffffffffffffff8211156150405761503f6141c8565b5b602082029050602081019050919050565b5f61506361505e84615026565b614226565b90508083825260208201905060208402830185811115615086576150856138fe565b5b835b818110156150af578061509b88826134f7565b845260208401935050602081019050615088565b5050509392505050565b5f82601f8301126150cd576150cc6138f6565b5b81356150dd848260208601615051565b91505092915050565b5f67ffffffffffffffff821115615100576150ff6141c8565b5b602082029050602081019050919050565b5f67ffffffffffffffff82111561512b5761512a6141c8565b5b6151348261360a565b9050602081019050919050565b828183375f83830152505050565b5f61516161515c84615111565b614226565b90508281526020810184848401111561517d5761517c614273565b5b615188848285615141565b509392505050565b5f82601f8301126151a4576151a36138f6565b5b81356151b484826020860161514f565b91505092915050565b5f6151cf6151ca846150e6565b614226565b905080838252602082019050602084028301858111156151f2576151f16138fe565b5b835b8181101561523957803567ffffffffffffffff811115615217576152166138f6565b5b8086016152248982615190565b855260208501945050506020810190506151f4565b5050509392505050565b5f82601f830112615257576152566138f6565b5b81356152678482602086016151bd565b91505092915050565b5f805f6060848603121561528757615286613368565b5b5f84013567ffffffffffffffff8111156152a4576152a361336c565b5b6152b086828701614ff9565b935050602084013567ffffffffffffffff8111156152d1576152d061336c565b5b6152dd868287016150b9565b925050604084013567ffffffffffffffff8111156152fe576152fd61336c565b5b61530a86828701615243565b9150509250925092565b7f6163636f756e743a206e6f742066726f6d20456e747279506f696e74000000005f82015250565b5f615348601c836132e7565b915061535382615314565b602082019050919050565b5f6020820190508181035f8301526153758161533c565b9050919050565b5f81905092915050565b50565b5f6153945f8361537c565b915061539f82615386565b5f82019050919050565b5f6153b382615389565b9150819050919050565b6153c6816134a5565b82525050565b5f6040820190506153df5f830185613bff565b6153ec60208301846153bd565b9392505050565b5f81905092915050565b6154068161338f565b82525050565b5f61541783836153fd565b60208301905092915050565b5f61542e83856153f3565b9350615439826149e1565b805f5b858110156154715761544e8284614938565b615458888261540c565b9750615463836149ea565b92505060018101905061543c565b5085925050509392505050565b5f61548a828486615423565b91508190509392505050565b61549f816147ad565b82525050565b6154ae81613ab0565b82525050565b5f610140820190506154c85f83018d6153bd565b6154d5602083018c613bff565b6154e2604083018b615496565b6154ef606083018a6153bd565b6154fc6080830189613577565b61550960a08301886154a5565b61551660c08301876154a5565b61552360e08301866154a5565b6155316101008301856154a5565b61553f6101208301846153bd565b9b9a5050505050505050505050565b7f2161646d696e00000000000000000000000000000000000000000000000000005f82015250565b5f6155826006836132e7565b915061558d8261554e565b602082019050919050565b5f6020820190508181035f8301526155af81615576565b9050919050565b5f82825260208201905092915050565b5f6155d082613cfe565b6155da81856155b6565b93506155ea8185602086016135e2565b6155f38161360a565b840191505092915050565b5f6040820190506156115f830185613bff565b818103602083015261562381846155c6565b90509392505050565b5f615636826134d8565b9150615641836134d8565b925082820390508181111561565957615658614876565b5b92915050565b7f4e487b71000000000000000000000000000000000000000000000000000000005f52603160045260245ffd5b7f416464726573733a20696e76616c69642064656c65676174652063616c6c00005f82015250565b5f6156c0601e836132e7565b91506156cb8261568c565b602082019050919050565b5f6020820190508181035f8301526156ed816156b4565b9050919050565b5f6156fe82613cfe565b615708818561537c565b93506157188185602086016135e2565b80840191505092915050565b5f61572f82846156f4565b915081905092915050565b7f4e487b71000000000000000000000000000000000000000000000000000000005f52602160045260245ffd5b7f45434453413a20696e76616c6964207369676e617475726500000000000000005f82015250565b5f61579b6018836132e7565b91506157a682615767565b602082019050919050565b5f6020820190508181035f8301526157c88161578f565b9050919050565b7f45434453413a20696e76616c6964207369676e6174757265206c656e677468005f82015250565b5f615803601f836132e7565b915061580e826157cf565b602082019050919050565b5f6020820190508181035f830152615830816157f7565b9050919050565b7f45434453413a20696e76616c6964207369676e6174757265202773272076616c5f8201527f7565000000000000000000000000000000000000000000000000000000000000602082015250565b5f6158916022836132e7565b915061589c82615837565b604082019050919050565b5f6020820190508181035f8301526158be81615885565b9050919050565b5f6158cf826135c8565b6158d981856132e7565b93506158e98185602086016135e2565b6158f28161360a565b840191505092915050565b5f6020820190508181035f83015261591581846158c5565b905092915050565b5f6080820190506159305f8301876153bd565b61593d6020830186615496565b61594a60408301856153bd565b61595760608301846153bd565b95945050505050565b5f60a0820190506159735f8301886153bd565b61598060208301876153bd565b61598d60408301866153bd565b61599a6060830185613577565b6159a76080830184613bff565b969550505050505056fe416464726573733a206c6f772d6c6576656c2064656c65676174652063616c6c206661696c6564a2646970667358221220349a31dc7e891e8ee618d290f01504b998b87f4a16c2166b200732bdc8cb558464736f6c63430008180033",
			"opcodes": "PUSH1 0xE0 PUSH1 0x40 MSTORE CALLVALUE DUP1 ISZERO PUSH4 0x11 JUMPI PUSH0 DUP1 REVERT JUMPDEST POP PUSH1 0x40 MLOAD PUSH4 0xFB67 CODESIZE SUB DUP1 PUSH4 0xFB67 DUP4 CODECOPY DUP2 DUP2 ADD PUSH1 0x40 MSTORE DUP2 ADD SWAP1 PUSH4 0x3B SWAP2 SWAP1 PUSH4 0x1905 JUMP JUMPDEST DUP1 DUP3 ADDRESS PUSH1 0x40 MLOAD PUSH4 0x4E SWAP1 PUSH4 0x1244 JUMP JUMPDEST PUSH4 0x5D SWAP3 SWAP2 SWAP1 PUSH4 0x1A0F JUMP JUMPDEST PUSH1 0x40 MLOAD DUP1 SWAP2 SUB SWAP1 PUSH0 CREATE DUP1 ISZERO DUP1 ISZERO PUSH4 0x78 JUMPI RETURNDATASIZE PUSH0 DUP1 RETURNDATACOPY RETURNDATASIZE PUSH0 REVERT JUMPDEST POP DUP4 DUP2 PUSH20 0xFFFFFFFFFFFFFFFFFFFFFFFFFFFFFFFFFFFFFFFF AND PUSH1 0x80 DUP2 PUSH20 0xFFFFFFFFFFFFFFFFFFFFFFFFFFFFFFFFFFFFFFFF AND DUP2 MSTORE POP POP DUP1 PUSH20 0xFFFFFFFFFFFFFFFFFFFFFFFFFFFFFFFFFFFFFFFF AND PUSH1 0xA0 DUP2 PUSH20 0xFFFFFFFFFFFFFFFFFFFFFFFFFFFFFFFFFFFFFFFF AND DUP2 MSTORE POP POP POP POP PUSH0 DUP1 DUP3 MLOAD GT ISZERO PUSH4 0x13C JUMPI PUSH4 0x103 DUP3 PUSH4 0x1F1 PUSH1 0x20 SHL PUSH1 0x20 SHR JUMP JUMPDEST PUSH4 0x139 DUP3 PUSH1 0x40 MLOAD PUSH1 0x20 ADD PUSH4 0x11D SWAP2 SWAP1 PUSH4 0x1D5F JUMP JUMPDEST PUSH1 0x40 MLOAD PUSH1 0x20 DUP2 DUP4 SUB SUB DUP2 MSTORE SWAP1 PUSH1 0x40 MSTORE PUSH4 0x2AA PUSH1 0x20 SHL PUSH1 0x20 SHR JUMP JUMPDEST SWAP1 POP JUMPDEST DUP1 PUSH20 0xFFFFFFFFFFFFFFFFFFFFFFFFFFFFFFFFFFFFFFFF AND PUSH1 0xC0 DUP2 PUSH20 0xFFFFFFFFFFFFFFFFFFFFFFFFFFFFFFFFFFFFFFFF AND DUP2 MSTORE POP POP POP POP PUSH4 0x184 PUSH4 0x35B PUSH1 0x20 SHL PUSH1 0x20 SHR JUMP JUMPDEST PUSH4 0x19A PUSH0 DUP1 SHL DUP5 PUSH4 0x3DE PUSH1 0x20 SHL PUSH1 0x20 SHR JUMP JUMPDEST PUSH0 PUSH32 0x55ADD213C41F3851B4506717B8AF695A4256979DFF496DCAAE7789F6121331AA SWAP1 POP PUSH4 0x1D2 DUP2 DUP6 PUSH4 0x3DE PUSH1 0x20 SHL PUSH1 0x20 SHR JUMP JUMPDEST PUSH4 0x1E6 DUP2 DUP3 PUSH4 0x40A PUSH1 0x20 SHL PUSH1 0x20 SHR JUMP JUMPDEST POP POP POP POP PUSH4 0x268A JUMP JUMPDEST PUSH0 DUP2 MLOAD SWAP1 POP PUSH0 PUSH1 0x1 SWAP1 POP PUSH0 JUMPDEST DUP3 DUP2 LT ISZERO PUSH4 0x25E JUMPI PUSH4 0x23A DUP5 DUP3 DUP2 MLOAD DUP2 LT PUSH4 0x225 JUMPI PUSH4 0x224 PUSH4 0x1D83 JUMP JUMPDEST JUMPDEST PUSH1 0x20 MUL PUSH1 0x20 ADD ADD MLOAD PUSH4 0x48F PUSH1 0x20 SHL PUSH1 0x20 SHR JUMP JUMPDEST SWAP2 POP DUP2 ISZERO PUSH4 0x25E JUMPI PUSH1 0x1 DUP2 PUSH4 0x255 SWAP2 SWAP1 PUSH4 0x1DE6 JUMP JUMPDEST SWAP1 POP PUSH4 0x1FD JUMP JUMPDEST POP DUP1 PUSH4 0x2A5 JUMPI PUSH1 0x40 MLOAD PUSH32 0x8C379A000000000000000000000000000000000000000000000000000000000 DUP2 MSTORE PUSH1 0x4 ADD PUSH4 0x29C SWAP1 PUSH4 0x1E89 JUMP JUMPDEST PUSH1 0x40 MLOAD DUP1 SWAP2 SUB SWAP1 REVERT JUMPDEST POP POP POP JUMP JUMPDEST PUSH0 DUP1 PUSH4 0x2E2 DUP4 PUSH1 0x40 MLOAD PUSH1 0x20 ADD PUSH4 0x2C6 SWAP2 SWAP1 PUSH4 0x1F37 JUMP JUMPDEST PUSH1 0x40 MLOAD PUSH1 0x20 DUP2 DUP4 SUB SUB DUP2 MSTORE SWAP1 PUSH1 0x40 MSTORE PUSH4 0x820 PUSH1 0x20 SHL PUSH1 0x20 SHR JUMP JUMPDEST SWAP1 POP DUP1 MLOAD PUSH1 0x20 DUP3 ADD PUSH0 CREATE SWAP2 POP PUSH0 PUSH20 0xFFFFFFFFFFFFFFFFFFFFFFFFFFFFFFFFFFFFFFFF AND DUP3 PUSH20 0xFFFFFFFFFFFFFFFFFFFFFFFFFFFFFFFFFFFFFFFF AND SUB PUSH4 0x355 JUMPI PUSH1 0x40 MLOAD PUSH32 0x8D4ABB600000000000000000000000000000000000000000000000000000000 DUP2 MSTORE PUSH1 0x4 ADD PUSH1 0x40 MLOAD DUP1 SWAP2 SUB SWAP1 REVERT JUMPDEST POP SWAP2 SWAP1 POP JUMP JUMPDEST PUSH0 PUSH20 0xFFFFFFFFFFFFFFFFFFFFFFFFFFFFFFFFFFFFFFFF AND PUSH1 0xC0 MLOAD PUSH20 0xFFFFFFFFFFFFFFFFFFFFFFFFFFFFFFFFFFFFFFFF AND SUB ISZERO PUSH4 0x3DC JUMPI PUSH0 PUSH4 0x3A9 PUSH1 0xC0 MLOAD PUSH4 0x850 PUSH1 0x20 SHL PUSH1 0x20 SHR JUMP JUMPDEST SWAP1 POP PUSH0 DUP2 DUP1 PUSH1 0x20 ADD SWAP1 MLOAD DUP2 ADD SWAP1 PUSH4 0x3C4 SWAP2 SWAP1 PUSH4 0x1F60 JUMP JUMPDEST SWAP1 POP PUSH4 0x3D9 DUP2 PUSH4 0x88F PUSH1 0x20 SHL PUSH1 0x20 SHR JUMP JUMPDEST POP POP JUMPDEST JUMP JUMPDEST PUSH4 0x3F2 DUP3 DUP3 PUSH4 0xADB PUSH1 0x20 SHL PUSH1 0x20 SHR JUMP JUMPDEST PUSH4 0x406 DUP3 DUP3 PUSH4 0xBC1 PUSH1 0x20 SHL PUSH1 0x20 SHR JUMP JUMPDEST POP POP JUMP JUMPDEST PUSH0 PUSH4 0x41D PUSH4 0xD08 PUSH1 0x20 SHL PUSH1 0x20 SHR JUMP JUMPDEST PUSH1 0x1 ADD PUSH0 DUP5 DUP2 MSTORE PUSH1 0x20 ADD SWAP1 DUP2 MSTORE PUSH1 0x20 ADD PUSH0 KECCAK256 SLOAD SWAP1 POP DUP2 PUSH4 0x445 PUSH4 0xD08 PUSH1 0x20 SHL PUSH1 0x20 SHR JUMP JUMPDEST PUSH1 0x1 ADD PUSH0 DUP6 DUP2 MSTORE PUSH1 0x20 ADD SWAP1 DUP2 MSTORE PUSH1 0x20 ADD PUSH0 KECCAK256 DUP2 SWAP1 SSTORE POP DUP2 DUP2 DUP5 PUSH32 0xBD79B86FFE0AB8E8776151514217CD7CACD52C909F66475C3AF44E129F0B00FF PUSH1 0x40 MLOAD PUSH1 0x40 MLOAD DUP1 SWAP2 SUB SWAP1 LOG4 POP POP POP JUMP JUMPDEST PUSH0 DUP1 DUP3 PUSH0 ADD MLOAD PUSH0 ADD MLOAD MLOAD GT DUP1 ISZERO PUSH4 0x4ED JUMPI POP PUSH4 0x4B5 PUSH4 0xD20 PUSH1 0x20 SHL PUSH1 0x20 SHR JUMP JUMPDEST PUSH1 0x1 ADD DUP3 PUSH0 ADD MLOAD PUSH0 ADD MLOAD PUSH1 0x40 MLOAD PUSH4 0x4D0 SWAP2 SWAP1 PUSH4 0x1FF3 JUMP JUMPDEST SWAP1 DUP2 MSTORE PUSH1 0x20 ADD PUSH1 0x40 MLOAD DUP1 SWAP2 SUB SWAP1 KECCAK256 PUSH0 SWAP1 SLOAD SWAP1 PUSH2 0x100 EXP SWAP1 DIV PUSH1 0xFF AND ISZERO JUMPDEST DUP1 ISZERO PUSH4 0x52E JUMPI POP PUSH0 PUSH20 0xFFFFFFFFFFFFFFFFFFFFFFFFFFFFFFFFFFFFFFFF AND DUP3 PUSH0 ADD MLOAD PUSH1 0x40 ADD MLOAD PUSH20 0xFFFFFFFFFFFFFFFFFFFFFFFFFFFFFFFFFFFFFFFF AND EQ ISZERO JUMPDEST SWAP1 POP PUSH1 0x1 PUSH4 0x544 PUSH4 0xD20 PUSH1 0x20 SHL PUSH1 0x20 SHR JUMP JUMPDEST PUSH1 0x1 ADD DUP4 PUSH0 ADD MLOAD PUSH0 ADD MLOAD PUSH1 0x40 MLOAD PUSH4 0x55F SWAP2 SWAP1 PUSH4 0x1FF3 JUMP JUMPDEST SWAP1 DUP2 MSTORE PUSH1 0x20 ADD PUSH1 0x40 MLOAD DUP1 SWAP2 SUB SWAP1 KECCAK256 PUSH0 PUSH2 0x100 EXP DUP2 SLOAD DUP2 PUSH1 0xFF MUL NOT AND SWAP1 DUP4 ISZERO ISZERO MUL OR SWAP1 SSTORE POP DUP1 PUSH4 0x594 JUMPI PUSH0 SWAP1 POP PUSH4 0x81B JUMP JUMPDEST PUSH0 DUP3 PUSH1 0x20 ADD MLOAD MLOAD SWAP1 POP PUSH0 JUMPDEST DUP2 DUP2 LT ISZERO PUSH4 0x818 JUMPI DUP3 ISZERO PUSH4 0x818 JUMPI PUSH0 DUP5 PUSH1 0x20 ADD MLOAD DUP3 DUP2 MLOAD DUP2 LT PUSH4 0x5CF JUMPI PUSH4 0x5CE PUSH4 0x1D83 JUMP JUMPDEST JUMPDEST PUSH1 0x20 MUL PUSH1 0x20 ADD ADD MLOAD SWAP1 POP PUSH0 DUP1 PUSH1 0xE0 SHL PUSH28 0xFFFFFFFFFFFFFFFFFFFFFFFFFFFFFFFFFFFFFFFFFFFFFFFFFFFFFFFF NOT AND DUP3 PUSH0 ADD MLOAD PUSH28 0xFFFFFFFFFFFFFFFFFFFFFFFFFFFFFFFFFFFFFFFFFFFFFFFFFFFFFFFF NOT AND SUB PUSH4 0x68A JUMPI PUSH1 0x40 MLOAD PUSH1 0x20 ADD PUSH4 0x63A SWAP1 PUSH4 0x205F JUMP JUMPDEST PUSH1 0x40 MLOAD PUSH1 0x20 DUP2 DUP4 SUB SUB DUP2 MSTORE SWAP1 PUSH1 0x40 MSTORE DUP1 MLOAD SWAP1 PUSH1 0x20 ADD KECCAK256 DUP3 PUSH1 0x20 ADD MLOAD PUSH1 0x40 MLOAD PUSH1 0x20 ADD PUSH4 0x669 SWAP2 SWAP1 PUSH4 0x20C9 JUMP JUMPDEST PUSH1 0x40 MLOAD PUSH1 0x20 DUP2 DUP4 SUB SUB DUP2 MSTORE SWAP1 PUSH1 0x40 MSTORE DUP1 MLOAD SWAP1 PUSH1 0x20 ADD KECCAK256 EQ ISZERO SWAP1 POP PUSH4 0x700 JUMP JUMPDEST DUP2 PUSH1 0x20 ADD MLOAD PUSH1 0x40 MLOAD PUSH1 0x20 ADD PUSH4 0x6A3 SWAP2 SWAP1 PUSH4 0x1FF3 JUMP JUMPDEST PUSH1 0x40 MLOAD PUSH1 0x20 DUP2 DUP4 SUB SUB DUP2 MSTORE SWAP1 PUSH1 0x40 MSTORE DUP1 MLOAD SWAP1 PUSH1 0x20 ADD KECCAK256 PUSH28 0xFFFFFFFFFFFFFFFFFFFFFFFFFFFFFFFFFFFFFFFFFFFFFFFFFFFFFFFF NOT AND DUP3 PUSH0 ADD MLOAD PUSH28 0xFFFFFFFFFFFFFFFFFFFFFFFFFFFFFFFFFFFFFFFFFFFFFFFFFFFFFFFF NOT AND EQ ISZERO SWAP1 POP JUMPDEST DUP1 ISZERO DUP1 ISZERO PUSH4 0x77E JUMPI POP PUSH4 0x71D PUSH4 0xD20 PUSH1 0x20 SHL PUSH1 0x20 SHR JUMP JUMPDEST PUSH0 ADD PUSH0 DUP4 PUSH0 ADD MLOAD PUSH28 0xFFFFFFFFFFFFFFFFFFFFFFFFFFFFFFFFFFFFFFFFFFFFFFFFFFFFFFFF NOT AND PUSH28 0xFFFFFFFFFFFFFFFFFFFFFFFFFFFFFFFFFFFFFFFFFFFFFFFFFFFFFFFF NOT AND DUP2 MSTORE PUSH1 0x20 ADD SWAP1 DUP2 MSTORE PUSH1 0x20 ADD PUSH0 KECCAK256 PUSH0 SWAP1 SLOAD SWAP1 PUSH2 0x100 EXP SWAP1 DIV PUSH1 0xFF AND ISZERO JUMPDEST SWAP5 POP PUSH1 0x1 PUSH4 0x794 PUSH4 0xD20 PUSH1 0x20 SHL PUSH1 0x20 SHR JUMP JUMPDEST PUSH0 ADD PUSH0 DUP5 PUSH0 ADD MLOAD PUSH28 0xFFFFFFFFFFFFFFFFFFFFFFFFFFFFFFFFFFFFFFFFFFFFFFFFFFFFFFFF NOT AND PUSH28 0xFFFFFFFFFFFFFFFFFFFFFFFFFFFFFFFFFFFFFFFFFFFFFFFFFFFFFFFF NOT AND DUP2 MSTORE PUSH1 0x20 ADD SWAP1 DUP2 MSTORE PUSH1 0x20 ADD PUSH0 KECCAK256 PUSH0 PUSH2 0x100 EXP DUP2 SLOAD DUP2 PUSH1 0xFF MUL NOT AND SWAP1 DUP4 ISZERO ISZERO MUL OR SWAP1 SSTORE POP POP POP PUSH1 0x1 DUP2 PUSH4 0x80F SWAP2 SWAP1 PUSH4 0x1DE6 JUMP JUMPDEST SWAP1 POP PUSH4 0x59F JUMP JUMPDEST POP POP JUMPDEST SWAP2 SWAP1 POP JUMP JUMPDEST PUSH1 0x60 DUP2 MLOAD DUP3 PUSH1 0x40 MLOAD PUSH1 0x20 ADD PUSH4 0x83A SWAP3 SWAP2 SWAP1 PUSH4 0x21E0 JUMP JUMPDEST PUSH1 0x40 MLOAD PUSH1 0x20 DUP2 DUP4 SUB SUB DUP2 MSTORE SWAP1 PUSH1 0x40 MSTORE SWAP1 POP SWAP2 SWAP1 POP JUMP JUMPDEST PUSH1 0x60 PUSH4 0x888 DUP3 PUSH1 0x1 PUSH32 0xFFFFFFFFFFFFFFFFFFFFFFFFFFFFFFFFFFFFFFFFFFFFFFFFFFFFFFFFFFFFFFFF PUSH4 0xD88 PUSH1 0x20 SHL PUSH1 0x20 SHR JUMP JUMPDEST SWAP1 POP SWAP2 SWAP1 POP JUMP JUMPDEST PUSH0 JUMPDEST DUP2 MLOAD DUP2 LT ISZERO PUSH4 0xAD7 JUMPI PUSH0 DUP3 DUP3 DUP2 MLOAD DUP2 LT PUSH4 0x8B6 JUMPI PUSH4 0x8B5 PUSH4 0x1D83 JUMP JUMPDEST JUMPDEST PUSH1 0x20 MUL PUSH1 0x20 ADD ADD MLOAD SWAP1 POP PUSH4 0x8F0 DUP2 PUSH0 ADD MLOAD PUSH0 ADD MLOAD PUSH4 0x8DE PUSH4 0xE82 PUSH1 0x20 SHL PUSH1 0x20 SHR JUMP JUMPDEST PUSH0 ADD PUSH4 0xE9A PUSH1 0x20 SHL SWAP1 SWAP2 SWAP1 PUSH1 0x20 SHR JUMP JUMPDEST POP PUSH4 0x90E DUP2 PUSH0 ADD MLOAD PUSH0 ADD MLOAD DUP3 PUSH0 ADD MLOAD PUSH4 0xEB7 PUSH1 0x20 SHL PUSH1 0x20 SHR JUMP JUMPDEST PUSH0 DUP2 PUSH1 0x20 ADD MLOAD MLOAD SWAP1 POP PUSH0 JUMPDEST DUP2 DUP2 LT ISZERO PUSH4 0xA41 JUMPI PUSH4 0x935 PUSH4 0xE82 PUSH1 0x20 SHL PUSH1 0x20 SHR JUMP JUMPDEST PUSH1 0x2 ADD DUP4 PUSH0 ADD MLOAD PUSH0 ADD MLOAD PUSH1 0x40 MLOAD PUSH4 0x950 SWAP2 SWAP1 PUSH4 0x1FF3 JUMP JUMPDEST SWAP1 DUP2 MSTORE PUSH1 0x20 ADD PUSH1 0x40 MLOAD DUP1 SWAP2 SUB SWAP1 KECCAK256 PUSH1 0x3 ADD DUP4 PUSH1 0x20 ADD MLOAD DUP3 DUP2 MLOAD DUP2 LT PUSH4 0x97E JUMPI PUSH4 0x97D PUSH4 0x1D83 JUMP JUMPDEST JUMPDEST PUSH1 0x20 MUL PUSH1 0x20 ADD ADD MLOAD SWAP1 DUP1 PUSH1 0x1 DUP2 SLOAD ADD DUP1 DUP3 SSTORE DUP1 SWAP2 POP POP PUSH1 0x1 SWAP1 SUB SWAP1 PUSH0 MSTORE PUSH1 0x20 PUSH0 KECCAK256 SWAP1 PUSH1 0x2 MUL ADD PUSH0 SWAP1 SWAP2 SWAP1 SWAP2 SWAP1 SWAP2 POP PUSH0 DUP3 ADD MLOAD DUP2 PUSH0 ADD PUSH0 PUSH2 0x100 EXP DUP2 SLOAD DUP2 PUSH4 0xFFFFFFFF MUL NOT AND SWAP1 DUP4 PUSH1 0xE0 SHR MUL OR SWAP1 SSTORE POP PUSH1 0x20 DUP3 ADD MLOAD DUP2 PUSH1 0x1 ADD SWAP1 DUP2 PUSH4 0x9E6 SWAP2 SWAP1 PUSH4 0x2472 JUMP JUMPDEST POP POP POP PUSH4 0xA27 DUP4 PUSH1 0x20 ADD MLOAD DUP3 DUP2 MLOAD DUP2 LT PUSH4 0xA0B JUMPI PUSH4 0xA0A PUSH4 0x1D83 JUMP JUMPDEST JUMPDEST PUSH1 0x20 MUL PUSH1 0x20 ADD ADD MLOAD PUSH0 ADD MLOAD DUP5 PUSH0 ADD MLOAD PUSH4 0xF6E PUSH1 0x20 SHL PUSH1 0x20 SHR JUMP JUMPDEST PUSH1 0x1 DUP2 PUSH4 0xA38 SWAP2 SWAP1 PUSH4 0x1DE6 JUMP JUMPDEST SWAP1 POP PUSH4 0x919 JUMP JUMPDEST POP DUP2 PUSH0 ADD MLOAD PUSH1 0x40 ADD MLOAD PUSH20 0xFFFFFFFFFFFFFFFFFFFFFFFFFFFFFFFFFFFFFFFF AND DUP3 PUSH0 ADD MLOAD PUSH0 ADD MLOAD PUSH1 0x40 MLOAD PUSH4 0xA78 SWAP2 SWAP1 PUSH4 0x1FF3 JUMP JUMPDEST PUSH1 0x40 MLOAD DUP1 SWAP2 SUB SWAP1 KECCAK256 PUSH32 0xBB37A605DE78BA6BC667AEAF438D0AAE8247E6F48A8FAD23730E4FBBB480ABF3 DUP5 PUSH1 0x40 MLOAD PUSH4 0xAB3 SWAP2 SWAP1 PUSH4 0x25B4 JUMP JUMPDEST PUSH1 0x40 MLOAD DUP1 SWAP2 SUB SWAP1 LOG3 POP POP PUSH1 0x1 DUP2 PUSH4 0xACE SWAP2 SWAP1 PUSH4 0x1DE6 JUMP JUMPDEST SWAP1 POP PUSH4 0x891 JUMP JUMPDEST POP POP JUMP JUMPDEST PUSH1 0x1 PUSH4 0xAEF PUSH4 0xD08 PUSH1 0x20 SHL PUSH1 0x20 SHR JUMP JUMPDEST PUSH0 ADD PUSH0 DUP5 DUP2 MSTORE PUSH1 0x20 ADD SWAP1 DUP2 MSTORE PUSH1 0x20 ADD PUSH0 KECCAK256 PUSH0 DUP4 PUSH20 0xFFFFFFFFFFFFFFFFFFFFFFFFFFFFFFFFFFFFFFFF AND PUSH20 0xFFFFFFFFFFFFFFFFFFFFFFFFFFFFFFFFFFFFFFFF AND DUP2 MSTORE PUSH1 0x20 ADD SWAP1 DUP2 MSTORE PUSH1 0x20 ADD PUSH0 KECCAK256 PUSH0 PUSH2 0x100 EXP DUP2 SLOAD DUP2 PUSH1 0xFF MUL NOT AND SWAP1 DUP4 ISZERO ISZERO MUL OR SWAP1 SSTORE POP PUSH4 0xB63 PUSH4 0x1050 PUSH1 0x20 SHL PUSH1 0x20 SHR JUMP JUMPDEST PUSH20 0xFFFFFFFFFFFFFFFFFFFFFFFFFFFFFFFFFFFFFFFF AND DUP2 PUSH20 0xFFFFFFFFFFFFFFFFFFFFFFFFFFFFFFFFFFFFFFFF AND DUP4 PUSH32 0x2F8788117E7EFF1D82E926EC794901D17C78024A50270940304540A733656F0D PUSH1 0x40 MLOAD PUSH1 0x40 MLOAD DUP1 SWAP2 SUB SWAP1 LOG4 POP POP JUMP JUMPDEST PUSH0 PUSH4 0xBD4 PUSH4 0x1057 PUSH1 0x20 SHL PUSH1 0x20 SHR JUMP JUMPDEST PUSH0 ADD PUSH0 DUP5 DUP2 MSTORE PUSH1 0x20 ADD SWAP1 DUP2 MSTORE PUSH1 0x20 ADD PUSH0 KECCAK256 PUSH0 ADD SLOAD SWAP1 POP PUSH1 0x1 PUSH4 0xBFE PUSH4 0x1057 PUSH1 0x20 SHL PUSH1 0x20 SHR JUMP JUMPDEST PUSH0 ADD PUSH0 DUP6 DUP2 MSTORE PUSH1 0x20 ADD SWAP1 DUP2 MSTORE PUSH1 0x20 ADD PUSH0 KECCAK256 PUSH0 ADD PUSH0 DUP3 DUP3 SLOAD PUSH4 0xC23 SWAP2 SWAP1 PUSH4 0x1DE6 JUMP JUMPDEST SWAP3 POP POP DUP2 SWAP1 SSTORE POP DUP2 PUSH4 0xC3D PUSH4 0x1057 PUSH1 0x20 SHL PUSH1 0x20 SHR JUMP JUMPDEST PUSH0 ADD PUSH0 DUP6 DUP2 MSTORE PUSH1 0x20 ADD SWAP1 DUP2 MSTORE PUSH1 0x20 ADD PUSH0 KECCAK256 PUSH1 0x1 ADD PUSH0 DUP4 DUP2 MSTORE PUSH1 0x20 ADD SWAP1 DUP2 MSTORE PUSH1 0x20 ADD PUSH0 KECCAK256 PUSH0 PUSH2 0x100 EXP DUP2 SLOAD DUP2 PUSH20 0xFFFFFFFFFFFFFFFFFFFFFFFFFFFFFFFFFFFFFFFF MUL NOT AND SWAP1 DUP4 PUSH20 0xFFFFFFFFFFFFFFFFFFFFFFFFFFFFFFFFFFFFFFFF AND MUL OR SWAP1 SSTORE POP DUP1 PUSH4 0xCB0 PUSH4 0x1057 PUSH1 0x20 SHL PUSH1 0x20 SHR JUMP JUMPDEST PUSH0 ADD PUSH0 DUP6 DUP2 MSTORE PUSH1 0x20 ADD SWAP1 DUP2 MSTORE PUSH1 0x20 ADD PUSH0 KECCAK256 PUSH1 0x2 ADD PUSH0 DUP5 PUSH20 0xFFFFFFFFFFFFFFFFFFFFFFFFFFFFFFFFFFFFFFFF AND PUSH20 0xFFFFFFFFFFFFFFFFFFFFFFFFFFFFFFFFFFFFFFFF AND DUP2 MSTORE PUSH1 0x20 ADD SWAP1 DUP2 MSTORE PUSH1 0x20 ADD PUSH0 KECCAK256 DUP2 SWAP1 SSTORE POP POP POP POP JUMP JUMPDEST PUSH0 PUSH4 0xD1B PUSH4 0x106F PUSH1 0x20 SHL PUSH1 0x20 SHR JUMP JUMPDEST SWAP1 POP SWAP1 JUMP JUMPDEST PUSH0 DUP1 PUSH1 0x1 PUSH32 0x11C19C8D567686E9E4073585FE511AC02FCFC0CE76CEBA4592185BF5BEC3CD1F PUSH0 SHR PUSH4 0xD55 SWAP2 SWAP1 PUSH4 0x25D8 JUMP JUMPDEST PUSH1 0x40 MLOAD PUSH1 0x20 ADD PUSH4 0xD69 SWAP2 SWAP1 PUSH4 0x262C JUMP JUMPDEST PUSH1 0x40 MLOAD PUSH1 0x20 DUP2 DUP4 SUB SUB DUP2 MSTORE SWAP1 PUSH1 0x40 MSTORE DUP1 MLOAD SWAP1 PUSH1 0x20 ADD KECCAK256 SWAP1 POP DUP1 SWAP2 POP POP SWAP1 JUMP JUMPDEST PUSH1 0x60 PUSH0 PUSH4 0xD9E DUP6 PUSH4 0x109D PUSH1 0x20 SHL PUSH1 0x20 SHR JUMP JUMPDEST SWAP1 POP PUSH0 DUP2 SUB PUSH4 0xDC2 JUMPI PUSH1 0x40 MLOAD DUP1 PUSH1 0x20 ADD PUSH1 0x40 MSTORE DUP1 PUSH0 DUP2 MSTORE POP SWAP2 POP POP PUSH4 0xE7B JUMP JUMPDEST DUP1 DUP5 GT ISZERO PUSH4 0xDE5 JUMPI PUSH1 0x40 MLOAD DUP1 PUSH1 0x20 ADD PUSH1 0x40 MSTORE DUP1 PUSH0 DUP2 MSTORE POP SWAP2 POP POP PUSH4 0xE7B JUMP JUMPDEST DUP4 DUP4 LT ISZERO PUSH4 0xE34 JUMPI DUP1 DUP5 DUP5 PUSH1 0x40 MLOAD PUSH32 0x2C4A89FA00000000000000000000000000000000000000000000000000000000 DUP2 MSTORE PUSH1 0x4 ADD PUSH4 0xE2B SWAP4 SWAP3 SWAP2 SWAP1 PUSH4 0x2649 JUMP JUMPDEST PUSH1 0x40 MLOAD DUP1 SWAP2 SUB SWAP1 REVERT JUMPDEST PUSH0 DUP5 DUP5 SUB SWAP1 POP PUSH0 DUP6 DUP4 SUB SWAP1 POP PUSH0 DUP3 DUP3 LT PUSH4 0xE52 JUMPI DUP3 PUSH4 0xE54 JUMP JUMPDEST DUP2 JUMPDEST SWAP1 POP PUSH1 0x40 MLOAD SWAP5 POP PUSH1 0x1F NOT PUSH1 0x1F PUSH1 0x20 DUP4 ADD ADD AND DUP6 ADD PUSH1 0x40 MSTORE DUP1 DUP6 MSTORE DUP1 DUP8 PUSH1 0x20 DUP8 ADD DUP11 EXTCODECOPY POP POP POP POP JUMPDEST SWAP4 SWAP3 POP POP POP JUMP JUMPDEST PUSH0 PUSH4 0xE95 PUSH4 0x10A7 PUSH1 0x20 SHL PUSH1 0x20 SHR JUMP JUMPDEST SWAP1 POP SWAP1 JUMP JUMPDEST PUSH0 PUSH4 0xEAF DUP4 DUP4 PUSH4 0x110F PUSH1 0x20 SHL PUSH1 0x20 SHR JUMP JUMPDEST SWAP1 POP SWAP3 SWAP2 POP POP JUMP JUMPDEST DUP1 PUSH4 0xECA PUSH4 0xE82 PUSH1 0x20 SHL PUSH1 0x20 SHR JUMP JUMPDEST PUSH1 0x2 ADD DUP4 PUSH1 0x40 MLOAD PUSH4 0xEDF SWAP2 SWAP1 PUSH4 0x1FF3 JUMP JUMPDEST SWAP1 DUP2 MSTORE PUSH1 0x20 ADD PUSH1 0x40 MLOAD DUP1 SWAP2 SUB SWAP1 KECCAK256 PUSH0 ADD PUSH0 DUP3 ADD MLOAD DUP2 PUSH0 ADD SWAP1 DUP2 PUSH4 0xF06 SWAP2 SWAP1 PUSH4 0x2472 JUMP JUMPDEST POP PUSH1 0x20 DUP3 ADD MLOAD DUP2 PUSH1 0x1 ADD SWAP1 DUP2 PUSH4 0xF20 SWAP2 SWAP1 PUSH4 0x2472 JUMP JUMPDEST POP PUSH1 0x40 DUP3 ADD MLOAD DUP2 PUSH1 0x2 ADD PUSH0 PUSH2 0x100 EXP DUP2 SLOAD DUP2 PUSH20 0xFFFFFFFFFFFFFFFFFFFFFFFFFFFFFFFFFFFFFFFF MUL NOT AND SWAP1 DUP4 PUSH20 0xFFFFFFFFFFFFFFFFFFFFFFFFFFFFFFFFFFFFFFFF AND MUL OR SWAP1 SSTORE POP SWAP1 POP POP POP POP JUMP JUMPDEST DUP1 PUSH4 0xF81 PUSH4 0xE82 PUSH1 0x20 SHL PUSH1 0x20 SHR JUMP JUMPDEST PUSH1 0x3 ADD PUSH0 DUP5 PUSH28 0xFFFFFFFFFFFFFFFFFFFFFFFFFFFFFFFFFFFFFFFFFFFFFFFFFFFFFFFF NOT AND PUSH28 0xFFFFFFFFFFFFFFFFFFFFFFFFFFFFFFFFFFFFFFFFFFFFFFFFFFFFFFFF NOT AND DUP2 MSTORE PUSH1 0x20 ADD SWAP1 DUP2 MSTORE PUSH1 0x20 ADD PUSH0 KECCAK256 PUSH0 DUP3 ADD MLOAD DUP2 PUSH0 ADD SWAP1 DUP2 PUSH4 0xFE8 SWAP2 SWAP1 PUSH4 0x2472 JUMP JUMPDEST POP PUSH1 0x20 DUP3 ADD MLOAD DUP2 PUSH1 0x1 ADD SWAP1 DUP2 PUSH4 0x1002 SWAP2 SWAP1 PUSH4 0x2472 JUMP JUMPDEST POP PUSH1 0x40 DUP3 ADD MLOAD DUP2 PUSH1 0x2 ADD PUSH0 PUSH2 0x100 EXP DUP2 SLOAD DUP2 PUSH20 0xFFFFFFFFFFFFFFFFFFFFFFFFFFFFFFFFFFFFFFFF MUL NOT AND SWAP1 DUP4 PUSH20 0xFFFFFFFFFFFFFFFFFFFFFFFFFFFFFFFFFFFFFFFF AND MUL OR SWAP1 SSTORE POP SWAP1 POP POP POP POP JUMP JUMPDEST PUSH0 CALLER SWAP1 POP SWAP1 JUMP JUMPDEST PUSH0 PUSH4 0x106A PUSH4 0x11A5 PUSH1 0x20 SHL PUSH1 0x20 SHR JUMP JUMPDEST SWAP1 POP SWAP1 JUMP JUMPDEST PUSH0 DUP1 PUSH32 0xA7B0F5C59907924802379EBE98CDC23E2EE7820F63D30126E10B3752010E500 PUSH0 SHL SWAP1 POP DUP1 SWAP2 POP POP SWAP1 JUMP JUMPDEST PUSH0 DUP2 EXTCODESIZE SWAP1 POP SWAP2 SWAP1 POP JUMP JUMPDEST PUSH0 DUP1 PUSH1 0x1 PUSH32 0x775B9FAB5634A62BB2A682C067408EDBED43EFD726183D2E2AF744334D47ACB7 PUSH0 SHR PUSH4 0x10DC SWAP2 SWAP1 PUSH4 0x25D8 JUMP JUMPDEST PUSH1 0x40 MLOAD PUSH1 0x20 ADD PUSH4 0x10F0 SWAP2 SWAP1 PUSH4 0x262C JUMP JUMPDEST PUSH1 0x40 MLOAD PUSH1 0x20 DUP2 DUP4 SUB SUB DUP2 MSTORE SWAP1 PUSH1 0x40 MSTORE DUP1 MLOAD SWAP1 PUSH1 0x20 ADD KECCAK256 SWAP1 POP DUP1 SWAP2 POP POP SWAP1 JUMP JUMPDEST PUSH0 PUSH4 0x1124 DUP4 DUP4 PUSH4 0x1213 PUSH1 0x20 SHL PUSH1 0x20 SHR JUMP JUMPDEST PUSH4 0x119B JUMPI DUP3 PUSH0 ADD DUP3 SWAP1 DUP1 PUSH1 0x1 DUP2 SLOAD ADD DUP1 DUP3 SSTORE DUP1 SWAP2 POP POP PUSH1 0x1 SWAP1 SUB SWAP1 PUSH0 MSTORE PUSH1 0x20 PUSH0 KECCAK256 ADD PUSH0 SWAP1 SWAP2 SWAP1 SWAP2 SWAP1 SWAP2 POP SWAP1 DUP2 PUSH4 0x1160 SWAP2 SWAP1 PUSH4 0x2472 JUMP JUMPDEST POP DUP3 PUSH0 ADD DUP1 SLOAD SWAP1 POP DUP4 PUSH1 0x1 ADD DUP4 PUSH1 0x40 MLOAD PUSH4 0x117E SWAP2 SWAP1 PUSH4 0x1FF3 JUMP JUMPDEST SWAP1 DUP2 MSTORE PUSH1 0x20 ADD PUSH1 0x40 MLOAD DUP1 SWAP2 SUB SWAP1 KECCAK256 DUP2 SWAP1 SSTORE POP PUSH1 0x1 SWAP1 POP PUSH4 0x119F JUMP JUMPDEST PUSH0 SWAP1 POP JUMPDEST SWAP3 SWAP2 POP POP JUMP JUMPDEST PUSH0 DUP1 PUSH1 0xFF PUSH0 SHL NOT PUSH1 0x1 PUSH32 0xC4BA382C0009CF238E4C1CA1A52F51C61E6248A70BDFB34E5ED49D5578A5C0C PUSH0 SHR PUSH4 0x11DF SWAP2 SWAP1 PUSH4 0x25D8 JUMP JUMPDEST PUSH1 0x40 MLOAD PUSH1 0x20 ADD PUSH4 0x11F3 SWAP2 SWAP1 PUSH4 0x262C JUMP JUMPDEST PUSH1 0x40 MLOAD PUSH1 0x20 DUP2 DUP4 SUB SUB DUP2 MSTORE SWAP1 PUSH1 0x40 MSTORE DUP1 MLOAD SWAP1 PUSH1 0x20 ADD KECCAK256 AND SWAP1 POP DUP1 SWAP2 POP POP SWAP1 JUMP JUMPDEST PUSH0 DUP1 DUP4 PUSH1 0x1 ADD DUP4 PUSH1 0x40 MLOAD PUSH4 0x122B SWAP2 SWAP1 PUSH4 0x1FF3 JUMP JUMPDEST SWAP1 DUP2 MSTORE PUSH1 0x20 ADD PUSH1 0x40 MLOAD DUP1 SWAP2 SUB SWAP1 KECCAK256 SLOAD EQ ISZERO SWAP1 POP SWAP3 SWAP2 POP POP JUMP JUMPDEST PUSH2 0x605C DUP1 PUSH4 0x9B0B DUP4 CODECOPY ADD SWAP1 JUMP JUMPDEST PUSH0 PUSH1 0x40 MLOAD SWAP1 POP SWAP1 JUMP JUMPDEST PUSH0 DUP1 REVERT JUMPDEST PUSH0 DUP1 REVERT JUMPDEST PUSH0 PUSH20 0xFFFFFFFFFFFFFFFFFFFFFFFFFFFFFFFFFFFFFFFF DUP3 AND SWAP1 POP SWAP2 SWAP1 POP JUMP JUMPDEST PUSH0 PUSH4 0x1291 DUP3 PUSH4 0x1264 JUMP JUMPDEST SWAP1 POP SWAP2 SWAP1 POP JUMP JUMPDEST PUSH4 0x12A5 DUP2 PUSH4 0x1283 JUMP JUMPDEST DUP2 EQ PUSH4 0x12B1 JUMPI PUSH0 DUP1 REVERT JUMPDEST POP JUMP JUMPDEST PUSH0 DUP2 MLOAD SWAP1 POP PUSH4 0x12C6 DUP2 PUSH4 0x1298 JUMP JUMPDEST SWAP3 SWAP2 POP POP JUMP JUMPDEST PUSH0 PUSH4 0x12DA DUP3 PUSH4 0x1283 JUMP JUMPDEST SWAP1 POP SWAP2 SWAP1 POP JUMP JUMPDEST PUSH4 0x12EE DUP2 PUSH4 0x12CC JUMP JUMPDEST DUP2 EQ PUSH4 0x12FA JUMPI PUSH0 DUP1 REVERT JUMPDEST POP JUMP JUMPDEST PUSH0 DUP2 MLOAD SWAP1 POP PUSH4 0x130F DUP2 PUSH4 0x12E1 JUMP JUMPDEST SWAP3 SWAP2 POP POP JUMP JUMPDEST PUSH0 DUP1 REVERT JUMPDEST PUSH0 PUSH1 0x1F NOT PUSH1 0x1F DUP4 ADD AND SWAP1 POP SWAP2 SWAP1 POP JUMP JUMPDEST PUSH32 0x4E487B7100000000000000000000000000000000000000000000000000000000 PUSH0 MSTORE PUSH1 0x41 PUSH1 0x4 MSTORE PUSH1 0x24 PUSH0 REVERT JUMPDEST PUSH4 0x1363 DUP3 PUSH4 0x1319 JUMP JUMPDEST DUP2 ADD DUP2 DUP2 LT PUSH8 0xFFFFFFFFFFFFFFFF DUP3 GT OR ISZERO PUSH4 0x1388 JUMPI PUSH4 0x1387 PUSH4 0x1329 JUMP JUMPDEST JUMPDEST DUP1 PUSH1 0x40 MSTORE POP POP POP JUMP JUMPDEST PUSH0 PUSH4 0x139E PUSH4 0x1253 JUMP JUMPDEST SWAP1 POP PUSH4 0x13AE DUP3 DUP3 PUSH4 0x1356 JUMP JUMPDEST SWAP2 SWAP1 POP JUMP JUMPDEST PUSH0 PUSH8 0xFFFFFFFFFFFFFFFF DUP3 GT ISZERO PUSH4 0x13D3 JUMPI PUSH4 0x13D2 PUSH4 0x1329 JUMP JUMPDEST JUMPDEST PUSH1 0x20 DUP3 MUL SWAP1 POP PUSH1 0x20 DUP2 ADD SWAP1 POP SWAP2 SWAP1 POP JUMP JUMPDEST PUSH0 DUP1 REVERT JUMPDEST PUSH0 DUP1 REVERT JUMPDEST PUSH0 DUP1 REVERT JUMPDEST PUSH0 DUP1 REVERT JUMPDEST PUSH0 PUSH8 0xFFFFFFFFFFFFFFFF DUP3 GT ISZERO PUSH4 0x1414 JUMPI PUSH4 0x1413 PUSH4 0x1329 JUMP JUMPDEST JUMPDEST PUSH4 0x1421 DUP3 PUSH4 0x1319 JUMP JUMPDEST SWAP1 POP PUSH1 0x20 DUP2 ADD SWAP1 POP SWAP2 SWAP1 POP JUMP JUMPDEST PUSH0 JUMPDEST DUP4 DUP2 LT ISZERO PUSH4 0x144F JUMPI DUP1 DUP3 ADD MLOAD DUP2 DUP5 ADD MSTORE PUSH1 0x20 DUP2 ADD SWAP1 POP PUSH4 0x1430 JUMP JUMPDEST PUSH0 DUP5 DUP5 ADD MSTORE POP POP POP POP JUMP JUMPDEST PUSH0 PUSH4 0x1474 PUSH4 0x146D DUP5 PUSH4 0x13F4 JUMP JUMPDEST PUSH4 0x1391 JUMP JUMPDEST SWAP1 POP DUP3 DUP2 MSTORE PUSH1 0x20 DUP2 ADD DUP5 DUP5 DUP5 ADD GT ISZERO PUSH4 0x1496 JUMPI PUSH4 0x1495 PUSH4 0x13F0 JUMP JUMPDEST JUMPDEST PUSH4 0x14A5 DUP5 DUP3 DUP6 PUSH4 0x142E JUMP JUMPDEST POP SWAP4 SWAP3 POP POP POP JUMP JUMPDEST PUSH0 DUP3 PUSH1 0x1F DUP4 ADD SLT PUSH4 0x14C7 JUMPI PUSH4 0x14C6 PUSH4 0x1315 JUMP JUMPDEST JUMPDEST DUP2 MLOAD PUSH4 0x14DB DUP5 DUP3 PUSH1 0x20 DUP7 ADD PUSH4 0x145A JUMP JUMPDEST SWAP2 POP POP SWAP3 SWAP2 POP POP JUMP JUMPDEST PUSH0 PUSH1 0x60 DUP3 DUP5 SUB SLT ISZERO PUSH4 0x14FF JUMPI PUSH4 0x14FE PUSH4 0x13E8 JUMP JUMPDEST JUMPDEST PUSH4 0x150D PUSH1 0x60 PUSH4 0x1391 JUMP JUMPDEST SWAP1 POP PUSH0 DUP3 ADD MLOAD PUSH8 0xFFFFFFFFFFFFFFFF DUP2 GT ISZERO PUSH4 0x1532 JUMPI PUSH4 0x1531 PUSH4 0x13EC JUMP JUMPDEST JUMPDEST PUSH4 0x1542 DUP5 DUP3 DUP6 ADD PUSH4 0x14AD JUMP JUMPDEST PUSH0 DUP4 ADD MSTORE POP PUSH1 0x20 DUP3 ADD MLOAD PUSH8 0xFFFFFFFFFFFFFFFF DUP2 GT ISZERO PUSH4 0x156B JUMPI PUSH4 0x156A PUSH4 0x13EC JUMP JUMPDEST JUMPDEST PUSH4 0x157B DUP5 DUP3 DUP6 ADD PUSH4 0x14AD JUMP JUMPDEST PUSH1 0x20 DUP4 ADD MSTORE POP PUSH1 0x40 PUSH4 0x1593 DUP5 DUP3 DUP6 ADD PUSH4 0x12B4 JUMP JUMPDEST PUSH1 0x40 DUP4 ADD MSTORE POP SWAP3 SWAP2 POP POP JUMP JUMPDEST PUSH0 PUSH8 0xFFFFFFFFFFFFFFFF DUP3 GT ISZERO PUSH4 0x15BF JUMPI PUSH4 0x15BE PUSH4 0x1329 JUMP JUMPDEST JUMPDEST PUSH1 0x20 DUP3 MUL SWAP1 POP PUSH1 0x20 DUP2 ADD SWAP1 POP SWAP2 SWAP1 POP JUMP JUMPDEST PUSH0 PUSH32 0xFFFFFFFF00000000000000000000000000000000000000000000000000000000 DUP3 AND SWAP1 POP SWAP2 SWAP1 POP JUMP JUMPDEST PUSH4 0x1608 DUP2 PUSH4 0x15D0 JUMP JUMPDEST DUP2 EQ PUSH4 0x1614 JUMPI PUSH0 DUP1 REVERT JUMPDEST POP JUMP JUMPDEST PUSH0 DUP2 MLOAD SWAP1 POP PUSH4 0x1629 DUP2 PUSH4 0x15FB JUMP JUMPDEST SWAP3 SWAP2 POP POP JUMP JUMPDEST PUSH0 PUSH1 0x40 DUP3 DUP5 SUB SLT ISZERO PUSH4 0x164A JUMPI PUSH4 0x1649 PUSH4 0x13E8 JUMP JUMPDEST JUMPDEST PUSH4 0x1658 PUSH1 0x40 PUSH4 0x1391 JUMP JUMPDEST SWAP1 POP PUSH0 PUSH4 0x166B DUP5 DUP3 DUP6 ADD PUSH4 0x1617 JUMP JUMPDEST PUSH0 DUP4 ADD MSTORE POP PUSH1 0x20 DUP3 ADD MLOAD PUSH8 0xFFFFFFFFFFFFFFFF DUP2 GT ISZERO PUSH4 0x1694 JUMPI PUSH4 0x1693 PUSH4 0x13EC JUMP JUMPDEST JUMPDEST PUSH4 0x16A4 DUP5 DUP3 DUP6 ADD PUSH4 0x14AD JUMP JUMPDEST PUSH1 0x20 DUP4 ADD MSTORE POP SWAP3 SWAP2 POP POP JUMP JUMPDEST PUSH0 PUSH4 0x16CA PUSH4 0x16C3 DUP5 PUSH4 0x159F JUMP JUMPDEST PUSH4 0x1391 JUMP JUMPDEST SWAP1 POP DUP1 DUP4 DUP3 MSTORE PUSH1 0x20 DUP3 ADD SWAP1 POP PUSH1 0x20 DUP5 MUL DUP4 ADD DUP6 DUP2 GT ISZERO PUSH4 0x16F3 JUMPI PUSH4 0x16F2 PUSH4 0x13E4 JUMP JUMPDEST JUMPDEST DUP4 JUMPDEST DUP2 DUP2 LT ISZERO PUSH4 0x1748 JUMPI DUP1 MLOAD PUSH8 0xFFFFFFFFFFFFFFFF DUP2 GT ISZERO PUSH4 0x1720 JUMPI PUSH4 0x171F PUSH4 0x1315 JUMP JUMPDEST JUMPDEST DUP1 DUP7 ADD PUSH4 0x1731 DUP10 DUP3 PUSH4 0x162F JUMP JUMPDEST DUP6 MSTORE PUSH1 0x20 DUP6 ADD SWAP5 POP POP POP PUSH1 0x20 DUP2 ADD SWAP1 POP PUSH4 0x16F5 JUMP JUMPDEST POP POP POP SWAP4 SWAP3 POP POP POP JUMP JUMPDEST PUSH0 DUP3 PUSH1 0x1F DUP4 ADD SLT PUSH4 0x176C JUMPI PUSH4 0x176B PUSH4 0x1315 JUMP JUMPDEST JUMPDEST DUP2 MLOAD PUSH4 0x1780 DUP5 DUP3 PUSH1 0x20 DUP7 ADD PUSH4 0x16B0 JUMP JUMPDEST SWAP2 POP POP SWAP3 SWAP2 POP POP JUMP JUMPDEST PUSH0 PUSH1 0x40 DUP3 DUP5 SUB SLT ISZERO PUSH4 0x17A4 JUMPI PUSH4 0x17A3 PUSH4 0x13E8 JUMP JUMPDEST JUMPDEST PUSH4 0x17B2 PUSH1 0x40 PUSH4 0x1391 JUMP JUMPDEST SWAP1 POP PUSH0 DUP3 ADD MLOAD PUSH8 0xFFFFFFFFFFFFFFFF DUP2 GT ISZERO PUSH4 0x17D7 JUMPI PUSH4 0x17D6 PUSH4 0x13EC JUMP JUMPDEST JUMPDEST PUSH4 0x17E7 DUP5 DUP3 DUP6 ADD PUSH4 0x14E4 JUMP JUMPDEST PUSH0 DUP4 ADD MSTORE POP PUSH1 0x20 DUP3 ADD MLOAD PUSH8 0xFFFFFFFFFFFFFFFF DUP2 GT ISZERO PUSH4 0x1810 JUMPI PUSH4 0x180F PUSH4 0x13EC JUMP JUMPDEST JUMPDEST PUSH4 0x1820 DUP5 DUP3 DUP6 ADD PUSH4 0x1752 JUMP JUMPDEST PUSH1 0x20 DUP4 ADD MSTORE POP SWAP3 SWAP2 POP POP JUMP JUMPDEST PUSH0 PUSH4 0x1846 PUSH4 0x183F DUP5 PUSH4 0x13B3 JUMP JUMPDEST PUSH4 0x1391 JUMP JUMPDEST SWAP1 POP DUP1 DUP4 DUP3 MSTORE PUSH1 0x20 DUP3 ADD SWAP1 POP PUSH1 0x20 DUP5 MUL DUP4 ADD DUP6 DUP2 GT ISZERO PUSH4 0x186F JUMPI PUSH4 0x186E PUSH4 0x13E4 JUMP JUMPDEST JUMPDEST DUP4 JUMPDEST DUP2 DUP2 LT ISZERO PUSH4 0x18C4 JUMPI DUP1 MLOAD PUSH8 0xFFFFFFFFFFFFFFFF DUP2 GT ISZERO PUSH4 0x189C JUMPI PUSH4 0x189B PUSH4 0x1315 JUMP JUMPDEST JUMPDEST DUP1 DUP7 ADD PUSH4 0x18AD DUP10 DUP3 PUSH4 0x1789 JUMP JUMPDEST DUP6 MSTORE PUSH1 0x20 DUP6 ADD SWAP5 POP POP POP PUSH1 0x20 DUP2 ADD SWAP1 POP PUSH4 0x1871 JUMP JUMPDEST POP POP POP SWAP4 SWAP3 POP POP POP JUMP JUMPDEST PUSH0 DUP3 PUSH1 0x1F DUP4 ADD SLT PUSH4 0x18E8 JUMPI PUSH4 0x18E7 PUSH4 0x1315 JUMP JUMPDEST JUMPDEST DUP2 MLOAD PUSH4 0x18FC DUP5 DUP3 PUSH1 0x20 DUP7 ADD PUSH4 0x182C JUMP JUMPDEST SWAP2 POP POP SWAP3 SWAP2 POP POP JUMP JUMPDEST PUSH0 DUP1 PUSH0 PUSH1 0x60 DUP5 DUP7 SUB SLT ISZERO PUSH4 0x1922 JUMPI PUSH4 0x1921 PUSH4 0x125C JUMP JUMPDEST JUMPDEST PUSH0 PUSH4 0x1933 DUP7 DUP3 DUP8 ADD PUSH4 0x12B4 JUMP JUMPDEST SWAP4 POP POP PUSH1 0x20 PUSH4 0x1948 DUP7 DUP3 DUP8 ADD PUSH4 0x12FD JUMP JUMPDEST SWAP3 POP POP PUSH1 0x40 DUP5 ADD MLOAD PUSH8 0xFFFFFFFFFFFFFFFF DUP2 GT ISZERO PUSH4 0x196F JUMPI PUSH4 0x196E PUSH4 0x1260 JUMP JUMPDEST JUMPDEST PUSH4 0x197F DUP7 DUP3 DUP8 ADD PUSH4 0x18CE JUMP JUMPDEST SWAP2 POP POP SWAP3 POP SWAP3 POP SWAP3 JUMP JUMPDEST PUSH0 DUP2 SWAP1 POP SWAP2 SWAP1 POP JUMP JUMPDEST PUSH0 PUSH4 0x19B8 PUSH4 0x19B1 PUSH4 0x19AA DUP5 PUSH4 0x1264 JUMP JUMPDEST PUSH4 0x1989 JUMP JUMPDEST PUSH4 0x1264 JUMP JUMPDEST SWAP1 POP SWAP2 SWAP1 POP JUMP JUMPDEST PUSH0 PUSH4 0x19CD DUP3 PUSH4 0x1992 JUMP JUMPDEST SWAP1 POP SWAP2 SWAP1 POP JUMP JUMPDEST PUSH0 PUSH4 0x19E2 DUP3 PUSH4 0x19BF JUMP JUMPDEST SWAP1 POP SWAP2 SWAP1 POP JUMP JUMPDEST PUSH4 0x19F6 DUP2 PUSH4 0x19D4 JUMP JUMPDEST DUP3 MSTORE POP POP JUMP JUMPDEST PUSH4 0x1A09 DUP2 PUSH4 0x1283 JUMP JUMPDEST DUP3 MSTORE POP POP JUMP JUMPDEST PUSH0 PUSH1 0x40 DUP3 ADD SWAP1 POP PUSH4 0x1A26 PUSH0 DUP4 ADD DUP6 PUSH4 0x19E9 JUMP JUMPDEST PUSH4 0x1A37 PUSH1 0x20 DUP4 ADD DUP5 PUSH4 0x19FC JUMP JUMPDEST SWAP4 SWAP3 POP POP POP JUMP JUMPDEST PUSH0 DUP2 MLOAD SWAP1 POP SWAP2 SWAP1 POP JUMP JUMPDEST PUSH0 DUP3 DUP3 MSTORE PUSH1 0x20 DUP3 ADD SWAP1 POP SWAP3 SWAP2 POP POP JUMP JUMPDEST PUSH0 DUP2 SWAP1 POP PUSH1 0x20 DUP3 ADD SWAP1 POP SWAP2 SWAP1 POP JUMP JUMPDEST PUSH0 DUP2 MLOAD SWAP1 POP SWAP2 SWAP1 POP JUMP JUMPDEST PUSH0 DUP3 DUP3 MSTORE PUSH1 0x20 DUP3 ADD SWAP1 POP SWAP3 SWAP2 POP POP JUMP JUMPDEST PUSH0 PUSH4 0x1A8F DUP3 PUSH4 0x1A67 JUMP JUMPDEST PUSH4 0x1A9D DUP2 DUP6 PUSH4 0x1A71 JUMP JUMPDEST SWAP4 POP PUSH4 0x1AB1 DUP2 DUP6 PUSH1 0x20 DUP7 ADD PUSH4 0x142E JUMP JUMPDEST PUSH4 0x1ABE DUP2 PUSH4 0x1319 JUMP JUMPDEST DUP5 ADD SWAP2 POP POP SWAP3 SWAP2 POP POP JUMP JUMPDEST PUSH4 0x1AD6 DUP2 PUSH4 0x1283 JUMP JUMPDEST DUP3 MSTORE POP POP JUMP JUMPDEST PUSH0 PUSH1 0x60 DUP4 ADD PUSH0 DUP4 ADD MLOAD DUP5 DUP3 SUB PUSH0 DUP7 ADD MSTORE PUSH4 0x1AFA DUP3 DUP3 PUSH4 0x1A81 JUMP JUMPDEST SWAP2 POP POP PUSH1 0x20 DUP4 ADD MLOAD DUP5 DUP3 SUB PUSH1 0x20 DUP7 ADD MSTORE PUSH4 0x1B18 DUP3 DUP3 PUSH4 0x1A81 JUMP JUMPDEST SWAP2 POP POP PUSH1 0x40 DUP4 ADD MLOAD PUSH4 0x1B31 PUSH1 0x40 DUP7 ADD DUP3 PUSH4 0x1AC9 JUMP JUMPDEST POP DUP1 SWAP2 POP POP SWAP3 SWAP2 POP POP JUMP JUMPDEST PUSH0 DUP2 MLOAD SWAP1 POP SWAP2 SWAP1 POP JUMP JUMPDEST PUSH0 DUP3 DUP3 MSTORE PUSH1 0x20 DUP3 ADD SWAP1 POP SWAP3 SWAP2 POP POP JUMP JUMPDEST PUSH0 DUP2 SWAP1 POP PUSH1 0x20 DUP3 ADD SWAP1 POP SWAP2 SWAP1 POP JUMP JUMPDEST PUSH4 0x1B72 DUP2 PUSH4 0x15D0 JUMP JUMPDEST DUP3 MSTORE POP POP JUMP JUMPDEST PUSH0 PUSH1 0x40 DUP4 ADD PUSH0 DUP4 ADD MLOAD PUSH4 0x1B91 PUSH0 DUP7 ADD DUP3 PUSH4 0x1B65 JUMP JUMPDEST POP PUSH1 0x20 DUP4 ADD MLOAD DUP5 DUP3 SUB PUSH1 0x20 DUP7 ADD MSTORE PUSH4 0x1BAD DUP3 DUP3 PUSH4 0x1A81 JUMP JUMPDEST SWAP2 POP POP DUP1 SWAP2 POP POP SWAP3 SWAP2 POP POP JUMP JUMPDEST PUSH0 PUSH4 0x1BC9 DUP4 DUP4 PUSH4 0x1B78 JUMP JUMPDEST SWAP1 POP SWAP3 SWAP2 POP POP JUMP JUMPDEST PUSH0 PUSH1 0x20 DUP3 ADD SWAP1 POP SWAP2 SWAP1 POP JUMP JUMPDEST PUSH0 PUSH4 0x1BEB DUP3 PUSH4 0x1B3C JUMP JUMPDEST PUSH4 0x1BF9 DUP2 DUP6 PUSH4 0x1B46 JUMP JUMPDEST SWAP4 POP DUP4 PUSH1 0x20 DUP3 MUL DUP6 ADD PUSH4 0x1C0F DUP6 PUSH4 0x1B56 JUMP JUMPDEST DUP1 PUSH0 JUMPDEST DUP6 DUP2 LT ISZERO PUSH4 0x1C56 JUMPI DUP5 DUP5 SUB DUP10 MSTORE DUP2 MLOAD PUSH4 0x1C31 DUP6 DUP3 PUSH4 0x1BBA JUMP JUMPDEST SWAP5 POP PUSH4 0x1C40 DUP4 PUSH4 0x1BD1 JUMP JUMPDEST SWAP3 POP PUSH1 0x20 DUP11 ADD SWAP10 POP POP PUSH1 0x1 DUP2 ADD SWAP1 POP PUSH4 0x1C12 JUMP JUMPDEST POP DUP3 SWAP8 POP DUP8 SWAP6 POP POP POP POP POP POP SWAP3 SWAP2 POP POP JUMP JUMPDEST PUSH0 PUSH1 0x40 DUP4 ADD PUSH0 DUP4 ADD MLOAD DUP5 DUP3 SUB PUSH0 DUP7 ADD MSTORE PUSH4 0x1C86 DUP3 DUP3 PUSH4 0x1ADC JUMP JUMPDEST SWAP2 POP POP PUSH1 0x20 DUP4 ADD MLOAD DUP5 DUP3 SUB PUSH1 0x20 DUP7 ADD MSTORE PUSH4 0x1CA4 DUP3 DUP3 PUSH4 0x1BDD JUMP JUMPDEST SWAP2 POP POP DUP1 SWAP2 POP POP SWAP3 SWAP2 POP POP JUMP JUMPDEST PUSH0 PUSH4 0x1CC0 DUP4 DUP4 PUSH4 0x1C68 JUMP JUMPDEST SWAP1 POP SWAP3 SWAP2 POP POP JUMP JUMPDEST PUSH0 PUSH1 0x20 DUP3 ADD SWAP1 POP SWAP2 SWAP1 POP JUMP JUMPDEST PUSH0 PUSH4 0x1CE2 DUP3 PUSH4 0x1A3E JUMP JUMPDEST PUSH4 0x1CF0 DUP2 DUP6 PUSH4 0x1A48 JUMP JUMPDEST SWAP4 POP DUP4 PUSH1 0x20 DUP3 MUL DUP6 ADD PUSH4 0x1D06 DUP6 PUSH4 0x1A58 JUMP JUMPDEST DUP1 PUSH0 JUMPDEST DUP6 DUP2 LT ISZERO PUSH4 0x1D4D JUMPI DUP5 DUP5 SUB DUP10 MSTORE DUP2 MLOAD PUSH4 0x1D28 DUP6 DUP3 PUSH4 0x1CB1 JUMP JUMPDEST SWAP5 POP PUSH4 0x1D37 DUP4 PUSH4 0x1CC8 JUMP JUMPDEST SWAP3 POP PUSH1 0x20 DUP11 ADD SWAP10 POP POP PUSH1 0x1 DUP2 ADD SWAP1 POP PUSH4 0x1D09 JUMP JUMPDEST POP DUP3 SWAP8 POP DUP8 SWAP6 POP POP POP POP POP POP SWAP3 SWAP2 POP POP JUMP JUMPDEST PUSH0 PUSH1 0x20 DUP3 ADD SWAP1 POP DUP2 DUP2 SUB PUSH0 DUP4 ADD MSTORE PUSH4 0x1D7B DUP2 DUP5 PUSH4 0x1CD4 JUMP JUMPDEST SWAP1 POP SWAP3 SWAP2 POP POP JUMP JUMPDEST PUSH32 0x4E487B7100000000000000000000000000000000000000000000000000000000 PUSH0 MSTORE PUSH1 0x32 PUSH1 0x4 MSTORE PUSH1 0x24 PUSH0 REVERT JUMPDEST PUSH0 DUP2 SWAP1 POP SWAP2 SWAP1 POP JUMP JUMPDEST PUSH32 0x4E487B7100000000000000000000000000000000000000000000000000000000 PUSH0 MSTORE PUSH1 0x11 PUSH1 0x4 MSTORE PUSH1 0x24 PUSH0 REVERT JUMPDEST PUSH0 PUSH4 0x1DF4 DUP3 PUSH4 0x1DB0 JUMP JUMPDEST SWAP2 POP PUSH4 0x1E03 DUP4 PUSH4 0x1DB0 JUMP JUMPDEST SWAP3 POP DUP3 DUP3 ADD SWAP1 POP DUP1 DUP3 GT ISZERO PUSH4 0x1E21 JUMPI PUSH4 0x1E20 PUSH4 0x1DB9 JUMP JUMPDEST JUMPDEST SWAP3 SWAP2 POP POP JUMP JUMPDEST PUSH0 DUP3 DUP3 MSTORE PUSH1 0x20 DUP3 ADD SWAP1 POP SWAP3 SWAP2 POP POP JUMP JUMPDEST PUSH32 0x42617365526F757465723A20696E76616C696420657874656E73696F6E2E0000 PUSH0 DUP3 ADD MSTORE POP JUMP JUMPDEST PUSH0 PUSH4 0x1E6F PUSH1 0x1E DUP4 PUSH4 0x1E27 JUMP JUMPDEST SWAP2 POP PUSH4 0x1E7E DUP3 PUSH4 0x1E37 JUMP JUMPDEST PUSH1 0x20 DUP3 ADD SWAP1 POP SWAP2 SWAP1 POP JUMP JUMPDEST PUSH0 PUSH1 0x20 DUP3 ADD SWAP1 POP DUP2 DUP2 SUB PUSH0 DUP4 ADD MSTORE PUSH4 0x1EA4 DUP2 PUSH4 0x1E5F JUMP JUMPDEST SWAP1 POP SWAP2 SWAP1 POP JUMP JUMPDEST PUSH0 DUP2 SWAP1 POP SWAP3 SWAP2 POP POP JUMP JUMPDEST PUSH0 DUP1 DUP3 ADD MSTORE POP JUMP JUMPDEST PUSH0 PUSH4 0x1ECD PUSH1 0x1 DUP4 PUSH4 0x1EAB JUMP JUMPDEST SWAP2 POP PUSH4 0x1EDC DUP3 PUSH4 0x1EB5 JUMP JUMPDEST PUSH1 0x1 DUP3 ADD SWAP1 POP SWAP2 SWAP1 POP JUMP JUMPDEST PUSH0 DUP2 MLOAD SWAP1 POP SWAP2 SWAP1 POP JUMP JUMPDEST PUSH0 DUP2 SWAP1 POP SWAP3 SWAP2 POP POP JUMP JUMPDEST PUSH0 PUSH4 0x1F09 DUP3 PUSH4 0x1EE7 JUMP JUMPDEST PUSH4 0x1F17 DUP2 DUP6 PUSH4 0x1EF1 JUMP JUMPDEST SWAP4 POP PUSH4 0x1F2B DUP2 DUP6 PUSH1 0x20 DUP7 ADD PUSH4 0x142E JUMP JUMPDEST DUP1 DUP5 ADD SWAP2 POP POP SWAP3 SWAP2 POP POP JUMP JUMPDEST PUSH0 PUSH4 0x1F45 DUP3 PUSH4 0x1EBD JUMP JUMPDEST SWAP2 POP PUSH4 0x1F55 DUP3 DUP5 PUSH4 0x1EFB JUMP JUMPDEST SWAP2 POP DUP2 SWAP1 POP SWAP3 SWAP2 POP POP JUMP JUMPDEST PUSH0 PUSH1 0x20 DUP3 DUP5 SUB SLT ISZERO PUSH4 0x1F7B JUMPI PUSH4 0x1F7A PUSH4 0x125C JUMP JUMPDEST JUMPDEST PUSH0 DUP3 ADD MLOAD PUSH8 0xFFFFFFFFFFFFFFFF DUP2 GT ISZERO PUSH4 0x1F9E JUMPI PUSH4 0x1F9D PUSH4 0x1260 JUMP JUMPDEST JUMPDEST PUSH4 0x1FAE DUP5 DUP3 DUP6 ADD PUSH4 0x18CE JUMP JUMPDEST SWAP2 POP POP SWAP3 SWAP2 POP POP JUMP JUMPDEST PUSH0 PUSH4 0x1FC5 DUP3 PUSH4 0x1A67 JUMP JUMPDEST PUSH4 0x1FD3 DUP2 DUP6 PUSH4 0x1EAB JUMP JUMPDEST SWAP4 POP PUSH4 0x1FE7 DUP2 DUP6 PUSH1 0x20 DUP7 ADD PUSH4 0x142E JUMP JUMPDEST DUP1 DUP5 ADD SWAP2 POP POP SWAP3 SWAP2 POP POP JUMP JUMPDEST PUSH0 PUSH4 0x2002 DUP3 DUP5 PUSH4 0x1FB7 JUMP JUMPDEST SWAP2 POP DUP2 SWAP1 POP SWAP3 SWAP2 POP POP JUMP JUMPDEST PUSH32 0x7265636569766528290000000000000000000000000000000000000000000000 PUSH0 DUP3 ADD MSTORE POP JUMP JUMPDEST PUSH0 PUSH4 0x2045 PUSH1 0x9 DUP4 PUSH4 0x1E27 JUMP JUMPDEST SWAP2 POP PUSH4 0x2054 DUP3 PUSH4 0x200D JUMP JUMPDEST PUSH1 0x20 DUP3 ADD SWAP1 POP SWAP2 SWAP1 POP JUMP JUMPDEST PUSH0 PUSH1 0x20 DUP3 ADD SWAP1 POP DUP2 DUP2 SUB PUSH0 DUP4 ADD MSTORE PUSH4 0x207A DUP2 PUSH4 0x2035 JUMP JUMPDEST SWAP1 POP SWAP2 SWAP1 POP JUMP JUMPDEST PUSH0 PUSH4 0x208F DUP3 PUSH4 0x1A67 JUMP JUMPDEST PUSH4 0x209D DUP2 DUP6 PUSH4 0x1E27 JUMP JUMPDEST SWAP4 POP PUSH4 0x20B1 DUP2 DUP6 PUSH1 0x20 DUP7 ADD PUSH4 0x142E JUMP JUMPDEST PUSH4 0x20BE DUP2 PUSH4 0x1319 JUMP JUMPDEST DUP5 ADD SWAP2 POP POP SWAP3 SWAP2 POP POP JUMP JUMPDEST PUSH0 PUSH1 0x20 DUP3 ADD SWAP1 POP DUP2 DUP2 SUB PUSH0 DUP4 ADD MSTORE PUSH4 0x20E5 DUP2 DUP5 PUSH4 0x2081 JUMP JUMPDEST SWAP1 POP SWAP3 SWAP2 POP POP JUMP JUMPDEST PUSH32 0x6300000000000000000000000000000000000000000000000000000000000000 PUSH0 DUP3 ADD MSTORE POP JUMP JUMPDEST PUSH0 PUSH4 0x2125 PUSH1 0x1 DUP4 PUSH4 0x1EAB JUMP JUMPDEST SWAP2 POP PUSH4 0x2134 DUP3 PUSH4 0x20ED JUMP JUMPDEST PUSH1 0x1 DUP3 ADD SWAP1 POP SWAP2 SWAP1 POP JUMP JUMPDEST PUSH0 PUSH4 0xFFFFFFFF DUP3 AND SWAP1 POP SWAP2 SWAP1 POP JUMP JUMPDEST PUSH0 DUP2 PUSH1 0xE0 SHL SWAP1 POP SWAP2 SWAP1 POP JUMP JUMPDEST PUSH0 PUSH4 0x2168 DUP3 PUSH4 0x214E JUMP JUMPDEST SWAP1 POP SWAP2 SWAP1 POP JUMP JUMPDEST PUSH4 0x2188 PUSH4 0x2181 DUP3 PUSH4 0x213F JUMP JUMPDEST PUSH4 0x215A JUMP JUMPDEST DUP3 MSTORE POP POP JUMP JUMPDEST PUSH32 0x80600E6000396000F30000000000000000000000000000000000000000000000 PUSH0 DUP3 ADD MSTORE POP JUMP JUMPDEST PUSH0 PUSH4 0x21C6 PUSH1 0x9 DUP4 PUSH4 0x1EAB JUMP JUMPDEST SWAP2 POP PUSH4 0x21D5 DUP3 PUSH4 0x218E JUMP JUMPDEST PUSH1 0x9 DUP3 ADD SWAP1 POP SWAP2 SWAP1 POP JUMP JUMPDEST PUSH0 PUSH4 0x21EE DUP3 PUSH4 0x2115 JUMP JUMPDEST SWAP2 POP PUSH4 0x21FE DUP3 DUP6 PUSH4 0x216F JUMP JUMPDEST PUSH1 0x4 DUP3 ADD SWAP2 POP PUSH4 0x2211 DUP3 PUSH4 0x21B6 JUMP JUMPDEST SWAP2 POP PUSH4 0x2221 DUP3 DUP5 PUSH4 0x1EFB JUMP JUMPDEST SWAP2 POP DUP2 SWAP1 POP SWAP4 SWAP3 POP POP POP JUMP JUMPDEST PUSH32 0x4E487B7100000000000000000000000000000000000000000000000000000000 PUSH0 MSTORE PUSH1 0x22 PUSH1 0x4 MSTORE PUSH1 0x24 PUSH0 REVERT JUMPDEST PUSH0 PUSH1 0x2 DUP3 DIV SWAP1 POP PUSH1 0x1 DUP3 AND DUP1 PUSH4 0x2273 JUMPI PUSH1 0x7F DUP3 AND SWAP2 POP JUMPDEST PUSH1 0x20 DUP3 LT DUP2 SUB PUSH4 0x228C JUMPI PUSH4 0x228B PUSH4 0x222D JUMP JUMPDEST JUMPDEST POP SWAP2 SWAP1 POP JUMP JUMPDEST PUSH0 DUP2 SWAP1 POP DUP2 PUSH0 MSTORE PUSH1 0x20 PUSH0 KECCAK256 SWAP1 POP SWAP2 SWAP1 POP JUMP JUMPDEST PUSH0 PUSH1 0x20 PUSH1 0x1F DUP4 ADD DIV SWAP1 POP SWAP2 SWAP1 POP JUMP JUMPDEST PUSH0 DUP3 DUP3 SHL SWAP1 POP SWAP3 SWAP2 POP POP JUMP JUMPDEST PUSH0 PUSH1 0x8 DUP4 MUL PUSH4 0x22F2 PUSH32 0xFFFFFFFFFFFFFFFFFFFFFFFFFFFFFFFFFFFFFFFFFFFFFFFFFFFFFFFFFFFFFFFF DUP3 PUSH4 0x22B3 JUMP JUMPDEST PUSH4 0x2300 DUP7 DUP4 PUSH4 0x22B3 JUMP JUMPDEST SWAP6 POP DUP1 NOT DUP5 AND SWAP4 POP DUP1 DUP7 AND DUP5 OR SWAP3 POP POP POP SWAP4 SWAP3 POP POP POP JUMP JUMPDEST PUSH0 PUSH4 0x233E PUSH4 0x2337 PUSH4 0x2330 DUP5 PUSH4 0x1DB0 JUMP JUMPDEST PUSH4 0x1989 JUMP JUMPDEST PUSH4 0x1DB0 JUMP JUMPDEST SWAP1 POP SWAP2 SWAP1 POP JUMP JUMPDEST PUSH0 DUP2 SWAP1 POP SWAP2 SWAP1 POP JUMP JUMPDEST PUSH4 0x235B DUP4 PUSH4 0x2318 JUMP JUMPDEST PUSH4 0x2377 PUSH4 0x236D DUP3 PUSH4 0x2345 JUMP JUMPDEST DUP5 DUP5 SLOAD PUSH4 0x22BF JUMP JUMPDEST DUP3 SSTORE POP POP POP POP JUMP JUMPDEST PUSH0 SWAP1 JUMP JUMPDEST PUSH4 0x238F PUSH4 0x237F JUMP JUMPDEST PUSH4 0x239E DUP2 DUP5 DUP5 PUSH4 0x234E JUMP JUMPDEST POP POP POP JUMP JUMPDEST JUMPDEST DUP2 DUP2 LT ISZERO PUSH4 0x23C9 JUMPI PUSH4 0x23BC PUSH0 DUP3 PUSH4 0x2383 JUMP JUMPDEST PUSH1 0x1 DUP2 ADD SWAP1 POP PUSH4 0x23A4 JUMP JUMPDEST POP POP JUMP JUMPDEST PUSH1 0x1F DUP3 GT ISZERO PUSH4 0x2422 JUMPI PUSH4 0x23E5 DUP2 PUSH4 0x2292 JUMP JUMPDEST PUSH4 0x23F2 DUP5 PUSH4 0x22A4 JUMP JUMPDEST DUP2 ADD PUSH1 0x20 DUP6 LT ISZERO PUSH4 0x2403 JUMPI DUP2 SWAP1 POP JUMPDEST PUSH4 0x241F PUSH4 0x2415 DUP6 PUSH4 0x22A4 JUMP JUMPDEST DUP4 ADD DUP3 PUSH4 0x23A3 JUMP JUMPDEST POP POP JUMPDEST POP POP POP JUMP JUMPDEST PUSH0 DUP3 DUP3 SHR SWAP1 POP SWAP3 SWAP2 POP POP JUMP JUMPDEST PUSH0 PUSH4 0x2446 PUSH0 NOT DUP5 PUSH1 0x8 MUL PUSH4 0x2427 JUMP JUMPDEST NOT DUP1 DUP4 AND SWAP2 POP POP SWAP3 SWAP2 POP POP JUMP JUMPDEST PUSH0 PUSH4 0x2462 DUP4 DUP4 PUSH4 0x2433 JUMP JUMPDEST SWAP2 POP DUP3 PUSH1 0x2 MUL DUP3 OR SWAP1 POP SWAP3 SWAP2 POP POP JUMP JUMPDEST PUSH4 0x247F DUP3 PUSH4 0x1A67 JUMP JUMPDEST PUSH8 0xFFFFFFFFFFFFFFFF DUP2 GT ISZERO PUSH4 0x249E JUMPI PUSH4 0x249D PUSH4 0x1329 JUMP JUMPDEST JUMPDEST PUSH4 0x24AC DUP3 SLOAD PUSH4 0x225A JUMP JUMPDEST PUSH4 0x24BB DUP3 DUP3 DUP6 PUSH4 0x23CD JUMP JUMPDEST PUSH0 PUSH1 0x20 SWAP1 POP PUSH1 0x1F DUP4 GT PUSH1 0x1 DUP2 EQ PUSH4 0x24F6 JUMPI PUSH0 DUP5 ISZERO PUSH4 0x24DE JUMPI DUP3 DUP8 ADD MLOAD SWAP1 POP JUMPDEST PUSH4 0x24EC DUP6 DUP3 PUSH4 0x2453 JUMP JUMPDEST DUP7 SSTORE POP PUSH4 0x2563 JUMP JUMPDEST PUSH1 0x1F NOT DUP5 AND PUSH4 0x2508 DUP7 PUSH4 0x2292 JUMP JUMPDEST PUSH0 JUMPDEST DUP3 DUP2 LT ISZERO PUSH4 0x2533 JUMPI DUP5 DUP10 ADD MLOAD DUP3 SSTORE PUSH1 0x1 DUP3 ADD SWAP2 POP PUSH1 0x20 DUP6 ADD SWAP5 POP PUSH1 0x20 DUP2 ADD SWAP1 POP PUSH4 0x250A JUMP JUMPDEST DUP7 DUP4 LT ISZERO PUSH4 0x2556 JUMPI DUP5 DUP10 ADD MLOAD PUSH4 0x2552 PUSH1 0x1F DUP10 AND DUP3 PUSH4 0x2433 JUMP JUMPDEST DUP4 SSTORE POP JUMPDEST PUSH1 0x1 PUSH1 0x2 DUP9 MUL ADD DUP9 SSTORE POP POP POP JUMPDEST POP POP POP POP POP POP JUMP JUMPDEST PUSH0 PUSH1 0x40 DUP4 ADD PUSH0 DUP4 ADD MLOAD DUP5 DUP3 SUB PUSH0 DUP7 ADD MSTORE PUSH4 0x2589 DUP3 DUP3 PUSH4 0x1ADC JUMP JUMPDEST SWAP2 POP POP PUSH1 0x20 DUP4 ADD MLOAD DUP5 DUP3 SUB PUSH1 0x20 DUP7 ADD MSTORE PUSH4 0x25A7 DUP3 DUP3 PUSH4 0x1BDD JUMP JUMPDEST SWAP2 POP POP DUP1 SWAP2 POP POP SWAP3 SWAP2 POP POP JUMP JUMPDEST PUSH0 PUSH1 0x20 DUP3 ADD SWAP1 POP DUP2 DUP2 SUB PUSH0 DUP4 ADD MSTORE PUSH4 0x25D0 DUP2 DUP5 PUSH4 0x256B JUMP JUMPDEST SWAP1 POP SWAP3 SWAP2 POP POP JUMP JUMPDEST PUSH0 PUSH4 0x25E6 DUP3 PUSH4 0x1DB0 JUMP JUMPDEST SWAP2 POP PUSH4 0x25F5 DUP4 PUSH4 0x1DB0 JUMP JUMPDEST SWAP3 POP DUP3 DUP3 SUB SWAP1 POP DUP2 DUP2 GT ISZERO PUSH4 0x2613 JUMPI PUSH4 0x2612 PUSH4 0x1DB9 JUMP JUMPDEST JUMPDEST SWAP3 SWAP2 POP POP JUMP JUMPDEST PUSH4 0x2626 DUP2 PUSH4 0x1DB0 JUMP JUMPDEST DUP3 MSTORE POP POP JUMP JUMPDEST PUSH0 PUSH1 0x20 DUP3 ADD SWAP1 POP PUSH4 0x2643 PUSH0 DUP4 ADD DUP5 PUSH4 0x2619 JUMP JUMPDEST SWAP3 SWAP2 POP POP JUMP JUMPDEST PUSH0 PUSH1 0x60 DUP3 ADD SWAP1 POP PUSH4 0x2660 PUSH0 DUP4 ADD DUP7 PUSH4 0x2619 JUMP JUMPDEST PUSH4 0x2671 PUSH1 0x20 DUP4 ADD DUP6 PUSH4 0x2619 JUMP JUMPDEST PUSH4 0x2682 PUSH1 0x40 DUP4 ADD DUP5 PUSH4 0x2619 JUMP JUMPDEST SWAP5 SWAP4 POP POP POP POP JUMP JUMPDEST PUSH1 0x80 MLOAD PUSH1 0xA0 MLOAD PUSH1 0xC0 MLOAD PUSH2 0x7439 PUSH4 0x26D2 PUSH0 CODECOPY PUSH0 PUSH2 0xF8A ADD MSTORE PUSH0 DUP2 DUP2 PUSH2 0x18A9 ADD MSTORE PUSH2 0x1C39 ADD MSTORE PUSH0 DUP2 DUP2 PUSH2 0xAF7 ADD MSTORE DUP2 DUP2 PUSH2 0x1235 ADD MSTORE DUP2 DUP2 PUSH2 0x1B83 ADD MSTORE PUSH2 0x2003 ADD MSTORE PUSH2 0x7439 PUSH0 RETURN INVALID PUSH1 0x80 PUSH1 0x40 MSTORE PUSH1 0x4 CALLDATASIZE LT PUSH2 0x207 JUMPI PUSH0 CALLDATALOAD PUSH1 0xE0 SHR DUP1 PUSH4 0x9387A380 GT PUSH2 0x117 JUMPI DUP1 PUSH4 0xC3C5A547 GT PUSH2 0x9F JUMPI DUP1 PUSH4 0xD8FD8F44 GT PUSH2 0x6E JUMPI DUP1 PUSH4 0xD8FD8F44 EQ PUSH2 0x86B JUMPI DUP1 PUSH4 0xE05688FE EQ PUSH2 0x8A7 JUMPI DUP1 PUSH4 0xE68A7C3B EQ PUSH2 0x8CF JUMPI DUP1 PUSH4 0xE8A3D485 EQ PUSH2 0x90B JUMPI DUP1 PUSH4 0xEE7D2ADF EQ PUSH2 0x935 JUMPI PUSH2 0x208 JUMP JUMPDEST DUP1 PUSH4 0xC3C5A547 EQ PUSH2 0x78F JUMPI DUP1 PUSH4 0xCA15C873 EQ PUSH2 0x7CB JUMPI DUP1 PUSH4 0xCE0B6013 EQ PUSH2 0x807 JUMPI DUP1 PUSH4 0xD547741F EQ PUSH2 0x843 JUMPI PUSH2 0x208 JUMP JUMPDEST DUP1 PUSH4 0xA32FA5B3 GT PUSH2 0xE6 JUMPI DUP1 PUSH4 0xA32FA5B3 EQ PUSH2 0x689 JUMPI DUP1 PUSH4 0xA65D69D4 EQ PUSH2 0x6C5 JUMPI DUP1 PUSH4 0xAC9650D8 EQ PUSH2 0x6EF JUMPI DUP1 PUSH4 0xC0562F6D EQ PUSH2 0x72B JUMPI DUP1 PUSH4 0xC22707EE EQ PUSH2 0x753 JUMPI PUSH2 0x208 JUMP JUMPDEST DUP1 PUSH4 0x9387A380 EQ PUSH2 0x5D3 JUMPI DUP1 PUSH4 0x938E3D7B EQ PUSH2 0x5FB JUMPI DUP1 PUSH4 0xA0DBAEFD EQ PUSH2 0x623 JUMPI DUP1 PUSH4 0xA217FDDF EQ PUSH2 0x65F JUMPI PUSH2 0x208 JUMP JUMPDEST DUP1 PUSH4 0x463C4864 GT PUSH2 0x19A JUMPI DUP1 PUSH4 0x83A03F8C GT PUSH2 0x169 JUMPI DUP1 PUSH4 0x83A03F8C EQ PUSH2 0x4CF JUMPI DUP1 PUSH4 0x8856A113 EQ PUSH2 0x4F7 JUMPI DUP1 PUSH4 0x8878ED33 EQ PUSH2 0x51F JUMPI DUP1 PUSH4 0x9010D07C EQ PUSH2 0x55B JUMPI DUP1 PUSH4 0x91D14854 EQ PUSH2 0x597 JUMPI PUSH2 0x208 JUMP JUMPDEST DUP1 PUSH4 0x463C4864 EQ PUSH2 0x429 JUMPI DUP1 PUSH4 0x4A00CC48 EQ PUSH2 0x453 JUMPI DUP1 PUSH4 0x512CF914 EQ PUSH2 0x47D JUMPI DUP1 PUSH4 0x58451F97 EQ PUSH2 0x4A5 JUMPI PUSH2 0x208 JUMP JUMPDEST DUP1 PUSH4 0x248A9CA3 GT PUSH2 0x1D6 JUMPI DUP1 PUSH4 0x248A9CA3 EQ PUSH2 0x375 JUMPI DUP1 PUSH4 0x2F2FF15D EQ PUSH2 0x3B1 JUMPI DUP1 PUSH4 0x36568ABE EQ PUSH2 0x3D9 JUMPI DUP1 PUSH4 0x429EED80 EQ PUSH2 0x401 JUMPI PUSH2 0x208 JUMP JUMPDEST DUP1 PUSH4 0x8E93D0A EQ PUSH2 0x2BD JUMPI DUP1 PUSH4 0xB61E12B EQ PUSH2 0x2E7 JUMPI DUP1 PUSH4 0xE6254FD EQ PUSH2 0x30F JUMPI DUP1 PUSH4 0x11464FBE EQ PUSH2 0x34B JUMPI PUSH2 0x208 JUMP JUMPDEST JUMPDEST PUSH0 DUP1 CALLDATASIZE SWAP1 POP SUB ISZERO PUSH2 0x2BB JUMPI PUSH0 PUSH2 0x240 PUSH0 CALLDATALOAD PUSH32 0xFFFFFFFF00000000000000000000000000000000000000000000000000000000 AND PUSH2 0x95D JUMP JUMPDEST SWAP1 POP PUSH0 PUSH20 0xFFFFFFFFFFFFFFFFFFFFFFFFFFFFFFFFFFFFFFFF AND DUP2 PUSH20 0xFFFFFFFFFFFFFFFFFFFFFFFFFFFFFFFFFFFFFFFF AND SUB PUSH2 0x2B0 JUMPI PUSH1 0x40 MLOAD PUSH32 0x8C379A000000000000000000000000000000000000000000000000000000000 DUP2 MSTORE PUSH1 0x4 ADD PUSH2 0x2A7 SWAP1 PUSH2 0x4FA4 JUMP JUMPDEST PUSH1 0x40 MLOAD DUP1 SWAP2 SUB SWAP1 REVERT JUMPDEST PUSH2 0x2B9 DUP2 PUSH2 0x972 JUMP JUMPDEST POP JUMPDEST STOP JUMPDEST CALLVALUE DUP1 ISZERO PUSH2 0x2C8 JUMPI PUSH0 DUP1 REVERT JUMPDEST POP PUSH2 0x2D1 PUSH2 0x991 JUMP JUMPDEST PUSH1 0x40 MLOAD PUSH2 0x2DE SWAP2 SWAP1 PUSH2 0x50A9 JUMP JUMPDEST PUSH1 0x40 MLOAD DUP1 SWAP2 SUB SWAP1 RETURN JUMPDEST CALLVALUE DUP1 ISZERO PUSH2 0x2F2 JUMPI PUSH0 DUP1 REVERT JUMPDEST POP PUSH2 0x30D PUSH1 0x4 DUP1 CALLDATASIZE SUB DUP2 ADD SWAP1 PUSH2 0x308 SWAP2 SWAP1 PUSH2 0x5137 JUMP JUMPDEST PUSH2 0x9A1 JUMP JUMPDEST STOP JUMPDEST CALLVALUE DUP1 ISZERO PUSH2 0x31A JUMPI PUSH0 DUP1 REVERT JUMPDEST POP PUSH2 0x335 PUSH1 0x4 DUP1 CALLDATASIZE SUB DUP2 ADD SWAP1 PUSH2 0x330 SWAP2 SWAP1 PUSH2 0x5175 JUMP JUMPDEST PUSH2 0xAA7 JUMP JUMPDEST PUSH1 0x40 MLOAD PUSH2 0x342 SWAP2 SWAP1 PUSH2 0x50A9 JUMP JUMPDEST PUSH1 0x40 MLOAD DUP1 SWAP2 SUB SWAP1 RETURN JUMPDEST CALLVALUE DUP1 ISZERO PUSH2 0x356 JUMPI PUSH0 DUP1 REVERT JUMPDEST POP PUSH2 0x35F PUSH2 0xAF5 JUMP JUMPDEST PUSH1 0x40 MLOAD PUSH2 0x36C SWAP2 SWAP1 PUSH2 0x51AF JUMP JUMPDEST PUSH1 0x40 MLOAD DUP1 SWAP2 SUB SWAP1 RETURN JUMPDEST CALLVALUE DUP1 ISZERO PUSH2 0x380 JUMPI PUSH0 DUP1 REVERT JUMPDEST POP PUSH2 0x39B PUSH1 0x4 DUP1 CALLDATASIZE SUB DUP2 ADD SWAP1 PUSH2 0x396 SWAP2 SWAP1 PUSH2 0x51C8 JUMP JUMPDEST PUSH2 0xB19 JUMP JUMPDEST PUSH1 0x40 MLOAD PUSH2 0x3A8 SWAP2 SWAP1 PUSH2 0x5202 JUMP JUMPDEST PUSH1 0x40 MLOAD DUP1 SWAP2 SUB SWAP1 RETURN JUMPDEST CALLVALUE DUP1 ISZERO PUSH2 0x3BC JUMPI PUSH0 DUP1 REVERT JUMPDEST POP PUSH2 0x3D7 PUSH1 0x4 DUP1 CALLDATASIZE SUB DUP2 ADD SWAP1 PUSH2 0x3D2 SWAP2 SWAP1 PUSH2 0x521B JUMP JUMPDEST PUSH2 0xB3C JUMP JUMPDEST STOP JUMPDEST CALLVALUE DUP1 ISZERO PUSH2 0x3E4 JUMPI PUSH0 DUP1 REVERT JUMPDEST POP PUSH2 0x3FF PUSH1 0x4 DUP1 CALLDATASIZE SUB DUP2 ADD SWAP1 PUSH2 0x3FA SWAP2 SWAP1 PUSH2 0x521B JUMP JUMPDEST PUSH2 0xC16 JUMP JUMPDEST STOP JUMPDEST CALLVALUE DUP1 ISZERO PUSH2 0x40C JUMPI PUSH0 DUP1 REVERT JUMPDEST POP PUSH2 0x427 PUSH1 0x4 DUP1 CALLDATASIZE SUB DUP2 ADD SWAP1 PUSH2 0x422 SWAP2 SWAP1 PUSH2 0x53EA JUMP JUMPDEST PUSH2 0xC99 JUMP JUMPDEST STOP JUMPDEST CALLVALUE DUP1 ISZERO PUSH2 0x434 JUMPI PUSH0 DUP1 REVERT JUMPDEST POP PUSH2 0x43D PUSH2 0xF88 JUMP JUMPDEST PUSH1 0x40 MLOAD PUSH2 0x44A SWAP2 SWAP1 PUSH2 0x51AF JUMP JUMPDEST PUSH1 0x40 MLOAD DUP1 SWAP2 SUB SWAP1 RETURN JUMPDEST CALLVALUE DUP1 ISZERO PUSH2 0x45E JUMPI PUSH0 DUP1 REVERT JUMPDEST POP PUSH2 0x467 PUSH2 0xFAC JUMP JUMPDEST PUSH1 0x40 MLOAD PUSH2 0x474 SWAP2 SWAP1 PUSH2 0x5712 JUMP JUMPDEST PUSH1 0x40 MLOAD DUP1 SWAP2 SUB SWAP1 RETURN JUMPDEST CALLVALUE DUP1 ISZERO PUSH2 0x488 JUMPI PUSH0 DUP1 REVERT JUMPDEST POP PUSH2 0x4A3 PUSH1 0x4 DUP1 CALLDATASIZE SUB DUP2 ADD SWAP1 PUSH2 0x49E SWAP2 SWAP1 PUSH2 0x53EA JUMP JUMPDEST PUSH2 0x1083 JUMP JUMPDEST STOP JUMPDEST CALLVALUE DUP1 ISZERO PUSH2 0x4B0 JUMPI PUSH0 DUP1 REVERT JUMPDEST POP PUSH2 0x4B9 PUSH2 0x10D8 JUMP JUMPDEST PUSH1 0x40 MLOAD PUSH2 0x4C6 SWAP2 SWAP1 PUSH2 0x574A JUMP JUMPDEST PUSH1 0x40 MLOAD DUP1 SWAP2 SUB SWAP1 RETURN JUMPDEST CALLVALUE DUP1 ISZERO PUSH2 0x4DA JUMPI PUSH0 DUP1 REVERT JUMPDEST POP PUSH2 0x4F5 PUSH1 0x4 DUP1 CALLDATASIZE SUB DUP2 ADD SWAP1 PUSH2 0x4F0 SWAP2 SWAP1 PUSH2 0x51C8 JUMP JUMPDEST PUSH2 0x10E7 JUMP JUMPDEST STOP JUMPDEST CALLVALUE DUP1 ISZERO PUSH2 0x502 JUMPI PUSH0 DUP1 REVERT JUMPDEST POP PUSH2 0x51D PUSH1 0x4 DUP1 CALLDATASIZE SUB DUP2 ADD SWAP1 PUSH2 0x518 SWAP2 SWAP1 PUSH2 0x57D4 JUMP JUMPDEST PUSH2 0x118A JUMP JUMPDEST STOP JUMPDEST CALLVALUE DUP1 ISZERO PUSH2 0x52A JUMPI PUSH0 DUP1 REVERT JUMPDEST POP PUSH2 0x545 PUSH1 0x4 DUP1 CALLDATASIZE SUB DUP2 ADD SWAP1 PUSH2 0x540 SWAP2 SWAP1 PUSH2 0x58A7 JUMP JUMPDEST PUSH2 0x11DF JUMP JUMPDEST PUSH1 0x40 MLOAD PUSH2 0x552 SWAP2 SWAP1 PUSH2 0x51AF JUMP JUMPDEST PUSH1 0x40 MLOAD DUP1 SWAP2 SUB SWAP1 RETURN JUMPDEST CALLVALUE DUP1 ISZERO PUSH2 0x566 JUMPI PUSH0 DUP1 REVERT JUMPDEST POP PUSH2 0x581 PUSH1 0x4 DUP1 CALLDATASIZE SUB DUP2 ADD SWAP1 PUSH2 0x57C SWAP2 SWAP1 PUSH2 0x592E JUMP JUMPDEST PUSH2 0x1264 JUMP JUMPDEST PUSH1 0x40 MLOAD PUSH2 0x58E SWAP2 SWAP1 PUSH2 0x51AF JUMP JUMPDEST PUSH1 0x40 MLOAD DUP1 SWAP2 SUB SWAP1 RETURN JUMPDEST CALLVALUE DUP1 ISZERO PUSH2 0x5A2 JUMPI PUSH0 DUP1 REVERT JUMPDEST POP PUSH2 0x5BD PUSH1 0x4 DUP1 CALLDATASIZE SUB DUP2 ADD SWAP1 PUSH2 0x5B8 SWAP2 SWAP1 PUSH2 0x521B JUMP JUMPDEST PUSH2 0x141F JUMP JUMPDEST PUSH1 0x40 MLOAD PUSH2 0x5CA SWAP2 SWAP1 PUSH2 0x5986 JUMP JUMPDEST PUSH1 0x40 MLOAD DUP1 SWAP2 SUB SWAP1 RETURN JUMPDEST CALLVALUE DUP1 ISZERO PUSH2 0x5DE JUMPI PUSH0 DUP1 REVERT JUMPDEST POP PUSH2 0x5F9 PUSH1 0x4 DUP1 CALLDATASIZE SUB DUP2 ADD SWAP1 PUSH2 0x5F4 SWAP2 SWAP1 PUSH2 0x5137 JUMP JUMPDEST PUSH2 0x1489 JUMP JUMPDEST STOP JUMPDEST CALLVALUE DUP1 ISZERO PUSH2 0x606 JUMPI PUSH0 DUP1 REVERT JUMPDEST POP PUSH2 0x621 PUSH1 0x4 DUP1 CALLDATASIZE SUB DUP2 ADD SWAP1 PUSH2 0x61C SWAP2 SWAP1 PUSH2 0x599F JUMP JUMPDEST PUSH2 0x158F JUMP JUMPDEST STOP JUMPDEST CALLVALUE DUP1 ISZERO PUSH2 0x62E JUMPI PUSH0 DUP1 REVERT JUMPDEST POP PUSH2 0x649 PUSH1 0x4 DUP1 CALLDATASIZE SUB DUP2 ADD SWAP1 PUSH2 0x644 SWAP2 SWAP1 PUSH2 0x59E6 JUMP JUMPDEST PUSH2 0x15E2 JUMP JUMPDEST PUSH1 0x40 MLOAD PUSH2 0x656 SWAP2 SWAP1 PUSH2 0x5A65 JUMP JUMPDEST PUSH1 0x40 MLOAD DUP1 SWAP2 SUB SWAP1 RETURN JUMPDEST CALLVALUE DUP1 ISZERO PUSH2 0x66A JUMPI PUSH0 DUP1 REVERT JUMPDEST POP PUSH2 0x673 PUSH2 0x17C8 JUMP JUMPDEST PUSH1 0x40 MLOAD PUSH2 0x680 SWAP2 SWAP1 PUSH2 0x5202 JUMP JUMPDEST PUSH1 0x40 MLOAD DUP1 SWAP2 SUB SWAP1 RETURN JUMPDEST CALLVALUE DUP1 ISZERO PUSH2 0x694 JUMPI PUSH0 DUP1 REVERT JUMPDEST POP PUSH2 0x6AF PUSH1 0x4 DUP1 CALLDATASIZE SUB DUP2 ADD SWAP1 PUSH2 0x6AA SWAP2 SWAP1 PUSH2 0x521B JUMP JUMPDEST PUSH2 0x17CE JUMP JUMPDEST PUSH1 0x40 MLOAD PUSH2 0x6BC SWAP2 SWAP1 PUSH2 0x5986 JUMP JUMPDEST PUSH1 0x40 MLOAD DUP1 SWAP2 SUB SWAP1 RETURN JUMPDEST CALLVALUE DUP1 ISZERO PUSH2 0x6D0 JUMPI PUSH0 DUP1 REVERT JUMPDEST POP PUSH2 0x6D9 PUSH2 0x18A7 JUMP JUMPDEST PUSH1 0x40 MLOAD PUSH2 0x6E6 SWAP2 SWAP1 PUSH2 0x51AF JUMP JUMPDEST PUSH1 0x40 MLOAD DUP1 SWAP2 SUB SWAP1 RETURN JUMPDEST CALLVALUE DUP1 ISZERO PUSH2 0x6FA JUMPI PUSH0 DUP1 REVERT JUMPDEST POP PUSH2 0x715 PUSH1 0x4 DUP1 CALLDATASIZE SUB DUP2 ADD SWAP1 PUSH2 0x710 SWAP2 SWAP1 PUSH2 0x5ADA JUMP JUMPDEST PUSH2 0x18CB JUMP JUMPDEST PUSH1 0x40 MLOAD PUSH2 0x722 SWAP2 SWAP1 PUSH2 0x5C32 JUMP JUMPDEST PUSH1 0x40 MLOAD DUP1 SWAP2 SUB SWAP1 RETURN JUMPDEST CALLVALUE DUP1 ISZERO PUSH2 0x736 JUMPI PUSH0 DUP1 REVERT JUMPDEST POP PUSH2 0x751 PUSH1 0x4 DUP1 CALLDATASIZE SUB DUP2 ADD SWAP1 PUSH2 0x74C SWAP2 SWAP1 PUSH2 0x5E4E JUMP JUMPDEST PUSH2 0x19CF JUMP JUMPDEST STOP JUMPDEST CALLVALUE DUP1 ISZERO PUSH2 0x75E JUMPI PUSH0 DUP1 REVERT JUMPDEST POP PUSH2 0x779 PUSH1 0x4 DUP1 CALLDATASIZE SUB DUP2 ADD SWAP1 PUSH2 0x774 SWAP2 SWAP1 PUSH2 0x599F JUMP JUMPDEST PUSH2 0x1A22 JUMP JUMPDEST PUSH1 0x40 MLOAD PUSH2 0x786 SWAP2 SWAP1 PUSH2 0x5ED6 JUMP JUMPDEST PUSH1 0x40 MLOAD DUP1 SWAP2 SUB SWAP1 RETURN JUMPDEST CALLVALUE DUP1 ISZERO PUSH2 0x79A JUMPI PUSH0 DUP1 REVERT JUMPDEST POP PUSH2 0x7B5 PUSH1 0x4 DUP1 CALLDATASIZE SUB DUP2 ADD SWAP1 PUSH2 0x7B0 SWAP2 SWAP1 PUSH2 0x5175 JUMP JUMPDEST PUSH2 0x1A3A JUMP JUMPDEST PUSH1 0x40 MLOAD PUSH2 0x7C2 SWAP2 SWAP1 PUSH2 0x5986 JUMP JUMPDEST PUSH1 0x40 MLOAD DUP1 SWAP2 SUB SWAP1 RETURN JUMPDEST CALLVALUE DUP1 ISZERO PUSH2 0x7D6 JUMPI PUSH0 DUP1 REVERT JUMPDEST POP PUSH2 0x7F1 PUSH1 0x4 DUP1 CALLDATASIZE SUB DUP2 ADD SWAP1 PUSH2 0x7EC SWAP2 SWAP1 PUSH2 0x51C8 JUMP JUMPDEST PUSH2 0x1A55 JUMP JUMPDEST PUSH1 0x40 MLOAD PUSH2 0x7FE SWAP2 SWAP1 PUSH2 0x574A JUMP JUMPDEST PUSH1 0x40 MLOAD DUP1 SWAP2 SUB SWAP1 RETURN JUMPDEST CALLVALUE DUP1 ISZERO PUSH2 0x812 JUMPI PUSH0 DUP1 REVERT JUMPDEST POP PUSH2 0x82D PUSH1 0x4 DUP1 CALLDATASIZE SUB DUP2 ADD SWAP1 PUSH2 0x828 SWAP2 SWAP1 PUSH2 0x59E6 JUMP JUMPDEST PUSH2 0x95D JUMP JUMPDEST PUSH1 0x40 MLOAD PUSH2 0x83A SWAP2 SWAP1 PUSH2 0x51AF JUMP JUMPDEST PUSH1 0x40 MLOAD DUP1 SWAP2 SUB SWAP1 RETURN JUMPDEST CALLVALUE DUP1 ISZERO PUSH2 0x84E JUMPI PUSH0 DUP1 REVERT JUMPDEST POP PUSH2 0x869 PUSH1 0x4 DUP1 CALLDATASIZE SUB DUP2 ADD SWAP1 PUSH2 0x864 SWAP2 SWAP1 PUSH2 0x521B JUMP JUMPDEST PUSH2 0x1B46 JUMP JUMPDEST STOP JUMPDEST CALLVALUE DUP1 ISZERO PUSH2 0x876 JUMPI PUSH0 DUP1 REVERT JUMPDEST POP PUSH2 0x891 PUSH1 0x4 DUP1 CALLDATASIZE SUB DUP2 ADD SWAP1 PUSH2 0x88C SWAP2 SWAP1 PUSH2 0x58A7 JUMP JUMPDEST PUSH2 0x1B7F JUMP JUMPDEST PUSH1 0x40 MLOAD PUSH2 0x89E SWAP2 SWAP1 PUSH2 0x51AF JUMP JUMPDEST PUSH1 0x40 MLOAD DUP1 SWAP2 SUB SWAP1 RETURN JUMPDEST CALLVALUE DUP1 ISZERO PUSH2 0x8B2 JUMPI PUSH0 DUP1 REVERT JUMPDEST POP PUSH2 0x8CD PUSH1 0x4 DUP1 CALLDATASIZE SUB DUP2 ADD SWAP1 PUSH2 0x8C8 SWAP2 SWAP1 PUSH2 0x5E4E JUMP JUMPDEST PUSH2 0x1D51 JUMP JUMPDEST STOP JUMPDEST CALLVALUE DUP1 ISZERO PUSH2 0x8DA JUMPI PUSH0 DUP1 REVERT JUMPDEST POP PUSH2 0x8F5 PUSH1 0x4 DUP1 CALLDATASIZE SUB DUP2 ADD SWAP1 PUSH2 0x8F0 SWAP2 SWAP1 PUSH2 0x5EF6 JUMP JUMPDEST PUSH2 0x1DA4 JUMP JUMPDEST PUSH1 0x40 MLOAD PUSH2 0x902 SWAP2 SWAP1 PUSH2 0x50A9 JUMP JUMPDEST PUSH1 0x40 MLOAD DUP1 SWAP2 SUB SWAP1 RETURN JUMPDEST CALLVALUE DUP1 ISZERO PUSH2 0x916 JUMPI PUSH0 DUP1 REVERT JUMPDEST POP PUSH2 0x91F PUSH2 0x1EF2 JUMP JUMPDEST PUSH1 0x40 MLOAD PUSH2 0x92C SWAP2 SWAP1 PUSH2 0x5F6C JUMP JUMPDEST PUSH1 0x40 MLOAD DUP1 SWAP2 SUB SWAP1 RETURN JUMPDEST CALLVALUE DUP1 ISZERO PUSH2 0x940 JUMPI PUSH0 DUP1 REVERT JUMPDEST POP PUSH2 0x95B PUSH1 0x4 DUP1 CALLDATASIZE SUB DUP2 ADD SWAP1 PUSH2 0x956 SWAP2 SWAP1 PUSH2 0x599F JUMP JUMPDEST PUSH2 0x1F8A JUMP JUMPDEST STOP JUMPDEST PUSH0 PUSH2 0x967 DUP3 PUSH2 0x15E2 JUMP JUMPDEST PUSH1 0x40 ADD MLOAD SWAP1 POP SWAP2 SWAP1 POP JUMP JUMPDEST CALLDATASIZE PUSH0 DUP1 CALLDATACOPY PUSH0 DUP1 CALLDATASIZE PUSH0 DUP5 GAS DELEGATECALL RETURNDATASIZE PUSH0 DUP1 RETURNDATACOPY DUP1 PUSH0 DUP2 EQ PUSH2 0x98D JUMPI RETURNDATASIZE PUSH0 RETURN JUMPDEST RETURNDATASIZE PUSH0 REVERT JUMPDEST PUSH1 0x60 PUSH2 0x99C PUSH0 PUSH2 0x1FDD JUMP JUMPDEST SWAP1 POP SWAP1 JUMP JUMPDEST PUSH0 CALLER SWAP1 POP PUSH2 0x9AF DUP2 DUP4 PUSH2 0x1FFC JUMP JUMPDEST PUSH2 0x9EE JUMPI PUSH1 0x40 MLOAD PUSH32 0x8C379A000000000000000000000000000000000000000000000000000000000 DUP2 MSTORE PUSH1 0x4 ADD PUSH2 0x9E5 SWAP1 PUSH2 0x5FD6 JUMP JUMPDEST PUSH1 0x40 MLOAD DUP1 SWAP2 SUB SWAP1 REVERT JUMPDEST PUSH0 PUSH2 0xA3E DUP3 PUSH1 0x2 PUSH0 DUP8 PUSH20 0xFFFFFFFFFFFFFFFFFFFFFFFFFFFFFFFFFFFFFFFF AND PUSH20 0xFFFFFFFFFFFFFFFFFFFFFFFFFFFFFFFFFFFFFFFF AND DUP2 MSTORE PUSH1 0x20 ADD SWAP1 DUP2 MSTORE PUSH1 0x20 ADD PUSH0 KECCAK256 PUSH2 0x2062 SWAP1 SWAP2 SWAP1 PUSH4 0xFFFFFFFF AND JUMP JUMPDEST SWAP1 POP DUP1 ISZERO PUSH2 0xAA1 JUMPI DUP4 PUSH20 0xFFFFFFFFFFFFFFFFFFFFFFFFFFFFFFFFFFFFFFFF AND DUP3 PUSH20 0xFFFFFFFFFFFFFFFFFFFFFFFFFFFFFFFFFFFFFFFF AND PUSH32 0x12146497B3B826918EC47F0CAC7272A09ED06B30C16C030E99EC48FF5DD60B47 PUSH1 0x40 MLOAD PUSH1 0x40 MLOAD DUP1 SWAP2 SUB SWAP1 LOG3 JUMPDEST POP POP POP POP JUMP JUMPDEST PUSH1 0x60 PUSH2 0xAEE PUSH1 0x2 PUSH0 DUP5 PUSH20 0xFFFFFFFFFFFFFFFFFFFFFFFFFFFFFFFFFFFFFFFF AND PUSH20 0xFFFFFFFFFFFFFFFFFFFFFFFFFFFFFFFFFFFFFFFF AND DUP2 MSTORE PUSH1 0x20 ADD SWAP1 DUP2 MSTORE PUSH1 0x20 ADD PUSH0 KECCAK256 PUSH2 0x1FDD JUMP JUMPDEST SWAP1 POP SWAP2 SWAP1 POP JUMP JUMPDEST PUSH32 0x0 DUP2 JUMP JUMPDEST PUSH0 PUSH2 0xB22 PUSH2 0x208F JUMP JUMPDEST PUSH1 0x1 ADD PUSH0 DUP4 DUP2 MSTORE PUSH1 0x20 ADD SWAP1 DUP2 MSTORE PUSH1 0x20 ADD PUSH0 KECCAK256 SLOAD SWAP1 POP SWAP2 SWAP1 POP JUMP JUMPDEST PUSH2 0xB67 PUSH2 0xB47 PUSH2 0x208F JUMP JUMPDEST PUSH1 0x1 ADD PUSH0 DUP5 DUP2 MSTORE PUSH1 0x20 ADD SWAP1 DUP2 MSTORE PUSH1 0x20 ADD PUSH0 KECCAK256 SLOAD PUSH2 0xB62 PUSH2 0x209D JUMP JUMPDEST PUSH2 0x20A4 JUMP JUMPDEST PUSH2 0xB6F PUSH2 0x208F JUMP JUMPDEST PUSH0 ADD PUSH0 DUP4 DUP2 MSTORE PUSH1 0x20 ADD SWAP1 DUP2 MSTORE PUSH1 0x20 ADD PUSH0 KECCAK256 PUSH0 DUP3 PUSH20 0xFFFFFFFFFFFFFFFFFFFFFFFFFFFFFFFFFFFFFFFF AND PUSH20 0xFFFFFFFFFFFFFFFFFFFFFFFFFFFFFFFFFFFFFFFF AND DUP2 MSTORE PUSH1 0x20 ADD SWAP1 DUP2 MSTORE PUSH1 0x20 ADD PUSH0 KECCAK256 PUSH0 SWAP1 SLOAD SWAP1 PUSH2 0x100 EXP SWAP1 DIV PUSH1 0xFF AND ISZERO PUSH2 0xC08 JUMPI PUSH1 0x40 MLOAD PUSH32 0x8C379A000000000000000000000000000000000000000000000000000000000 DUP2 MSTORE PUSH1 0x4 ADD PUSH2 0xBFF SWAP1 PUSH2 0x603E JUMP JUMPDEST PUSH1 0x40 MLOAD DUP1 SWAP2 SUB SWAP1 REVERT JUMPDEST PUSH2 0xC12 DUP3 DUP3 PUSH2 0x2197 JUMP JUMPDEST POP POP JUMP JUMPDEST DUP1 PUSH20 0xFFFFFFFFFFFFFFFFFFFFFFFFFFFFFFFFFFFFFFFF AND PUSH2 0xC35 PUSH2 0x209D JUMP JUMPDEST PUSH20 0xFFFFFFFFFFFFFFFFFFFFFFFFFFFFFFFFFFFFFFFF AND EQ PUSH2 0xC8B JUMPI PUSH1 0x40 MLOAD PUSH32 0x8C379A000000000000000000000000000000000000000000000000000000000 DUP2 MSTORE PUSH1 0x4 ADD PUSH2 0xC82 SWAP1 PUSH2 0x60A6 JUMP JUMPDEST PUSH1 0x40 MLOAD DUP1 SWAP2 SUB SWAP1 REVERT JUMPDEST PUSH2 0xC95 DUP3 DUP3 PUSH2 0x21AF JUMP JUMPDEST POP POP JUMP JUMPDEST PUSH2 0xCA1 PUSH2 0x21C7 JUMP JUMPDEST PUSH2 0xCE0 JUMPI PUSH1 0x40 MLOAD PUSH32 0x8C379A000000000000000000000000000000000000000000000000000000000 DUP2 MSTORE PUSH1 0x4 ADD PUSH2 0xCD7 SWAP1 PUSH2 0x610E JUMP JUMPDEST PUSH1 0x40 MLOAD DUP1 SWAP2 SUB SWAP1 REVERT JUMPDEST PUSH2 0xCEA DUP3 DUP3 PUSH2 0x21F7 JUMP JUMPDEST PUSH2 0xD29 JUMPI PUSH1 0x40 MLOAD PUSH32 0x8C379A000000000000000000000000000000000000000000000000000000000 DUP2 MSTORE PUSH1 0x4 ADD PUSH2 0xD20 SWAP1 PUSH2 0x619C JUMP JUMPDEST PUSH1 0x40 MLOAD DUP1 SWAP2 SUB SWAP1 REVERT JUMPDEST PUSH0 PUSH2 0xD32 PUSH2 0x2344 JUMP JUMPDEST PUSH1 0x3 ADD PUSH0 DUP4 PUSH28 0xFFFFFFFFFFFFFFFFFFFFFFFFFFFFFFFFFFFFFFFFFFFFFFFFFFFFFFFF NOT AND PUSH28 0xFFFFFFFFFFFFFFFFFFFFFFFFFFFFFFFFFFFFFFFFFFFFFFFFFFFFFFFF NOT AND DUP2 MSTORE PUSH1 0x20 ADD SWAP1 DUP2 MSTORE PUSH1 0x20 ADD PUSH0 KECCAK256 PUSH1 0x40 MLOAD DUP1 PUSH1 0x60 ADD PUSH1 0x40 MSTORE SWAP1 DUP2 PUSH0 DUP3 ADD DUP1 SLOAD PUSH2 0xD9C SWAP1 PUSH2 0x61E7 JUMP JUMPDEST DUP1 PUSH1 0x1F ADD PUSH1 0x20 DUP1 SWAP2 DIV MUL PUSH1 0x20 ADD PUSH1 0x40 MLOAD SWAP1 DUP2 ADD PUSH1 0x40 MSTORE DUP1 SWAP3 SWAP2 SWAP1 DUP2 DUP2 MSTORE PUSH1 0x20 ADD DUP3 DUP1 SLOAD PUSH2 0xDC8 SWAP1 PUSH2 0x61E7 JUMP JUMPDEST DUP1 ISZERO PUSH2 0xE13 JUMPI DUP1 PUSH1 0x1F LT PUSH2 0xDEA JUMPI PUSH2 0x100 DUP1 DUP4 SLOAD DIV MUL DUP4 MSTORE SWAP2 PUSH1 0x20 ADD SWAP2 PUSH2 0xE13 JUMP JUMPDEST DUP3 ADD SWAP2 SWAP1 PUSH0 MSTORE PUSH1 0x20 PUSH0 KECCAK256 SWAP1 JUMPDEST DUP2 SLOAD DUP2 MSTORE SWAP1 PUSH1 0x1 ADD SWAP1 PUSH1 0x20 ADD DUP1 DUP4 GT PUSH2 0xDF6 JUMPI DUP3 SWAP1 SUB PUSH1 0x1F AND DUP3 ADD SWAP2 JUMPDEST POP POP POP POP POP DUP2 MSTORE PUSH1 0x20 ADD PUSH1 0x1 DUP3 ADD DUP1 SLOAD PUSH2 0xE2C SWAP1 PUSH2 0x61E7 JUMP JUMPDEST DUP1 PUSH1 0x1F ADD PUSH1 0x20 DUP1 SWAP2 DIV MUL PUSH1 0x20 ADD PUSH1 0x40 MLOAD SWAP1 DUP2 ADD PUSH1 0x40 MSTORE DUP1 SWAP3 SWAP2 SWAP1 DUP2 DUP2 MSTORE PUSH1 0x20 ADD DUP3 DUP1 SLOAD PUSH2 0xE58 SWAP1 PUSH2 0x61E7 JUMP JUMPDEST DUP1 ISZERO PUSH2 0xEA3 JUMPI DUP1 PUSH1 0x1F LT PUSH2 0xE7A JUMPI PUSH2 0x100 DUP1 DUP4 SLOAD DIV MUL DUP4 MSTORE SWAP2 PUSH1 0x20 ADD SWAP2 PUSH2 0xEA3 JUMP JUMPDEST DUP3 ADD SWAP2 SWAP1 PUSH0 MSTORE PUSH1 0x20 PUSH0 KECCAK256 SWAP1 JUMPDEST DUP2 SLOAD DUP2 MSTORE SWAP1 PUSH1 0x1 ADD SWAP1 PUSH1 0x20 ADD DUP1 DUP4 GT PUSH2 0xE86 JUMPI DUP3 SWAP1 SUB PUSH1 0x1F AND DUP3 ADD SWAP2 JUMPDEST POP POP POP POP POP DUP2 MSTORE PUSH1 0x20 ADD PUSH1 0x2 DUP3 ADD PUSH0 SWAP1 SLOAD SWAP1 PUSH2 0x100 EXP SWAP1 DIV PUSH20 0xFFFFFFFFFFFFFFFFFFFFFFFFFFFFFFFFFFFFFFFF AND PUSH20 0xFFFFFFFFFFFFFFFFFFFFFFFFFFFFFFFFFFFFFFFF AND PUSH20 0xFFFFFFFFFFFFFFFFFFFFFFFFFFFFFFFFFFFFFFFF AND DUP2 MSTORE POP POP SWAP1 POP PUSH2 0xF0D DUP4 DUP4 PUSH2 0x2352 JUMP JUMPDEST PUSH2 0xF16 DUP3 PUSH2 0x269C JUMP JUMPDEST DUP2 PUSH28 0xFFFFFFFFFFFFFFFFFFFFFFFFFFFFFFFFFFFFFFFFFFFFFFFFFFFFFFFF NOT AND DUP4 PUSH1 0x40 MLOAD PUSH2 0xF44 SWAP2 SWAP1 PUSH2 0x6251 JUMP JUMPDEST PUSH1 0x40 MLOAD DUP1 SWAP2 SUB SWAP1 KECCAK256 PUSH32 0xBB931A9651175C9C82F86AFBF6AD37A9141AA8D1D42BF798739BE245A12E4E88 DUP4 PUSH1 0x40 MLOAD PUSH2 0xF7B SWAP2 SWAP1 PUSH2 0x5A65 JUMP JUMPDEST PUSH1 0x40 MLOAD DUP1 SWAP2 SUB SWAP1 LOG3 POP POP POP JUMP JUMPDEST PUSH32 0x0 DUP2 JUMP JUMPDEST PUSH1 0x60 PUSH0 PUSH2 0xFC1 PUSH2 0xFBA PUSH2 0x2344 JUMP JUMPDEST PUSH0 ADD PUSH2 0x273D JUMP JUMPDEST SWAP1 POP PUSH0 DUP2 MLOAD SWAP1 POP DUP1 PUSH8 0xFFFFFFFFFFFFFFFF DUP2 GT ISZERO PUSH2 0xFE2 JUMPI PUSH2 0xFE1 PUSH2 0x5271 JUMP JUMPDEST JUMPDEST PUSH1 0x40 MLOAD SWAP1 DUP1 DUP3 MSTORE DUP1 PUSH1 0x20 MUL PUSH1 0x20 ADD DUP3 ADD PUSH1 0x40 MSTORE DUP1 ISZERO PUSH2 0x101B JUMPI DUP2 PUSH1 0x20 ADD JUMPDEST PUSH2 0x1008 PUSH2 0x4E40 JUMP JUMPDEST DUP2 MSTORE PUSH1 0x20 ADD SWAP1 PUSH1 0x1 SWAP1 SUB SWAP1 DUP2 PUSH2 0x1000 JUMPI SWAP1 POP JUMPDEST POP SWAP3 POP PUSH0 JUMPDEST DUP2 DUP2 LT ISZERO PUSH2 0x107D JUMPI PUSH2 0x104B DUP4 DUP3 DUP2 MLOAD DUP2 LT PUSH2 0x103E JUMPI PUSH2 0x103D PUSH2 0x6267 JUMP JUMPDEST JUMPDEST PUSH1 0x20 MUL PUSH1 0x20 ADD ADD MLOAD PUSH2 0x274F JUMP JUMPDEST DUP5 DUP3 DUP2 MLOAD DUP2 LT PUSH2 0x105E JUMPI PUSH2 0x105D PUSH2 0x6267 JUMP JUMPDEST JUMPDEST PUSH1 0x20 MUL PUSH1 0x20 ADD ADD DUP2 SWAP1 MSTORE POP PUSH1 0x1 DUP2 PUSH2 0x1076 SWAP2 SWAP1 PUSH2 0x62C1 JUMP JUMPDEST SWAP1 POP PUSH2 0x1020 JUMP JUMPDEST POP POP POP SWAP1 JUMP JUMPDEST PUSH2 0x108B PUSH2 0x21C7 JUMP JUMPDEST PUSH2 0x10CA JUMPI PUSH1 0x40 MLOAD PUSH32 0x8C379A000000000000000000000000000000000000000000000000000000000 DUP2 MSTORE PUSH1 0x4 ADD PUSH2 0x10C1 SWAP1 PUSH2 0x610E JUMP JUMPDEST PUSH1 0x40 MLOAD DUP1 SWAP2 SUB SWAP1 REVERT JUMPDEST PUSH2 0x10D4 DUP3 DUP3 PUSH2 0xC99 JUMP JUMPDEST POP POP JUMP JUMPDEST PUSH0 PUSH2 0x10E2 PUSH0 PUSH2 0x2A56 JUMP JUMPDEST SWAP1 POP SWAP1 JUMP JUMPDEST PUSH0 CALLER SWAP1 POP PUSH2 0x10F5 DUP2 DUP4 PUSH2 0x1FFC JUMP JUMPDEST PUSH2 0x1134 JUMPI PUSH1 0x40 MLOAD PUSH32 0x8C379A000000000000000000000000000000000000000000000000000000000 DUP2 MSTORE PUSH1 0x4 ADD PUSH2 0x112B SWAP1 PUSH2 0x5FD6 JUMP JUMPDEST PUSH1 0x40 MLOAD DUP1 SWAP2 SUB SWAP1 REVERT JUMPDEST PUSH2 0x1147 DUP2 PUSH0 PUSH2 0x2062 SWAP1 SWAP2 SWAP1 PUSH4 0xFFFFFFFF AND JUMP JUMPDEST PUSH2 0x1186 JUMPI PUSH1 0x40 MLOAD PUSH32 0x8C379A000000000000000000000000000000000000000000000000000000000 DUP2 MSTORE PUSH1 0x4 ADD PUSH2 0x117D SWAP1 PUSH2 0x6364 JUMP JUMPDEST PUSH1 0x40 MLOAD DUP1 SWAP2 SUB SWAP1 REVERT JUMPDEST POP POP JUMP JUMPDEST PUSH2 0x1192 PUSH2 0x21C7 JUMP JUMPDEST PUSH2 0x11D1 JUMPI PUSH1 0x40 MLOAD PUSH32 0x8C379A000000000000000000000000000000000000000000000000000000000 DUP2 MSTORE PUSH1 0x4 ADD PUSH2 0x11C8 SWAP1 PUSH2 0x610E JUMP JUMPDEST PUSH1 0x40 MLOAD DUP1 SWAP2 SUB SWAP1 REVERT JUMPDEST PUSH2 0x11DB DUP3 DUP3 PUSH2 0x2A69 JUMP JUMPDEST POP POP JUMP JUMPDEST PUSH0 DUP1 PUSH2 0x122E DUP6 DUP6 DUP6 DUP1 DUP1 PUSH1 0x1F ADD PUSH1 0x20 DUP1 SWAP2 DIV MUL PUSH1 0x20 ADD PUSH1 0x40 MLOAD SWAP1 DUP2 ADD PUSH1 0x40 MSTORE DUP1 SWAP4 SWAP3 SWAP2 SWAP1 DUP2 DUP2 MSTORE PUSH1 0x20 ADD DUP4 DUP4 DUP1 DUP3 DUP5 CALLDATACOPY PUSH0 DUP2 DUP5 ADD MSTORE PUSH1 0x1F NOT PUSH1 0x1F DUP3 ADD AND SWAP1 POP DUP1 DUP4 ADD SWAP3 POP POP POP POP POP POP POP PUSH2 0x2CEB JUMP JUMPDEST SWAP1 POP PUSH2 0x125A PUSH32 0x0 DUP3 PUSH2 0x2D1D JUMP JUMPDEST SWAP2 POP POP SWAP4 SWAP3 POP POP POP JUMP JUMPDEST PUSH0 DUP1 PUSH2 0x126E PUSH2 0x2D31 JUMP JUMPDEST PUSH0 ADD PUSH0 DUP6 DUP2 MSTORE PUSH1 0x20 ADD SWAP1 DUP2 MSTORE PUSH1 0x20 ADD PUSH0 KECCAK256 PUSH0 ADD SLOAD SWAP1 POP PUSH0 DUP1 PUSH0 SWAP1 POP JUMPDEST DUP3 DUP2 LT ISZERO PUSH2 0x1415 JUMPI PUSH0 PUSH20 0xFFFFFFFFFFFFFFFFFFFFFFFFFFFFFFFFFFFFFFFF AND PUSH2 0x12B1 PUSH2 0x2D31 JUMP JUMPDEST PUSH0 ADD PUSH0 DUP9 DUP2 MSTORE PUSH1 0x20 ADD SWAP1 DUP2 MSTORE PUSH1 0x20 ADD PUSH0 KECCAK256 PUSH1 0x1 ADD PUSH0 DUP4 DUP2 MSTORE PUSH1 0x20 ADD SWAP1 DUP2 MSTORE PUSH1 0x20 ADD PUSH0 KECCAK256 PUSH0 SWAP1 SLOAD SWAP1 PUSH2 0x100 EXP SWAP1 DIV PUSH20 0xFFFFFFFFFFFFFFFFFFFFFFFFFFFFFFFFFFFFFFFF AND PUSH20 0xFFFFFFFFFFFFFFFFFFFFFFFFFFFFFFFFFFFFFFFF AND EQ PUSH2 0x137F JUMPI DUP5 DUP3 SUB PUSH2 0x136B JUMPI PUSH2 0x131E PUSH2 0x2D31 JUMP JUMPDEST PUSH0 ADD PUSH0 DUP8 DUP2 MSTORE PUSH1 0x20 ADD SWAP1 DUP2 MSTORE PUSH1 0x20 ADD PUSH0 KECCAK256 PUSH1 0x1 ADD PUSH0 DUP3 DUP2 MSTORE PUSH1 0x20 ADD SWAP1 DUP2 MSTORE PUSH1 0x20 ADD PUSH0 KECCAK256 PUSH0 SWAP1 SLOAD SWAP1 PUSH2 0x100 EXP SWAP1 DIV PUSH20 0xFFFFFFFFFFFFFFFFFFFFFFFFFFFFFFFFFFFFFFFF AND SWAP4 POP POP POP POP PUSH2 0x1419 JUMP JUMPDEST PUSH1 0x1 DUP3 PUSH2 0x1378 SWAP2 SWAP1 PUSH2 0x62C1 JUMP JUMPDEST SWAP2 POP PUSH2 0x1401 JUMP JUMPDEST PUSH2 0x1389 DUP7 PUSH0 PUSH2 0x141F JUMP JUMPDEST DUP1 ISZERO PUSH2 0x13EB JUMPI POP PUSH2 0x1398 PUSH2 0x2D31 JUMP JUMPDEST PUSH0 ADD PUSH0 DUP8 DUP2 MSTORE PUSH1 0x20 ADD SWAP1 DUP2 MSTORE PUSH1 0x20 ADD PUSH0 KECCAK256 PUSH1 0x2 ADD PUSH0 DUP1 PUSH20 0xFFFFFFFFFFFFFFFFFFFFFFFFFFFFFFFFFFFFFFFF AND PUSH20 0xFFFFFFFFFFFFFFFFFFFFFFFFFFFFFFFFFFFFFFFF AND DUP2 MSTORE PUSH1 0x20 ADD SWAP1 DUP2 MSTORE PUSH1 0x20 ADD PUSH0 KECCAK256 SLOAD DUP2 EQ JUMPDEST ISZERO PUSH2 0x1400 JUMPI PUSH1 0x1 DUP3 PUSH2 0x13FD SWAP2 SWAP1 PUSH2 0x62C1 JUMP JUMPDEST SWAP2 POP JUMPDEST JUMPDEST PUSH1 0x1 DUP2 PUSH2 0x140E SWAP2 SWAP1 PUSH2 0x62C1 JUMP JUMPDEST SWAP1 POP PUSH2 0x128A JUMP JUMPDEST POP POP POP JUMPDEST SWAP3 SWAP2 POP POP JUMP JUMPDEST PUSH0 PUSH2 0x1428 PUSH2 0x208F JUMP JUMPDEST PUSH0 ADD PUSH0 DUP5 DUP2 MSTORE PUSH1 0x20 ADD SWAP1 DUP2 MSTORE PUSH1 0x20 ADD PUSH0 KECCAK256 PUSH0 DUP4 PUSH20 0xFFFFFFFFFFFFFFFFFFFFFFFFFFFFFFFFFFFFFFFF AND PUSH20 0xFFFFFFFFFFFFFFFFFFFFFFFFFFFFFFFFFFFFFFFF AND DUP2 MSTORE PUSH1 0x20 ADD SWAP1 DUP2 MSTORE PUSH1 0x20 ADD PUSH0 KECCAK256 PUSH0 SWAP1 SLOAD SWAP1 PUSH2 0x100 EXP SWAP1 DIV PUSH1 0xFF AND SWAP1 POP SWAP3 SWAP2 POP POP JUMP JUMPDEST PUSH0 CALLER SWAP1 POP PUSH2 0x1497 DUP2 DUP4 PUSH2 0x1FFC JUMP JUMPDEST PUSH2 0x14D6 JUMPI PUSH1 0x40 MLOAD PUSH32 0x8C379A000000000000000000000000000000000000000000000000000000000 DUP2 MSTORE PUSH1 0x4 ADD PUSH2 0x14CD SWAP1 PUSH2 0x5FD6 JUMP JUMPDEST PUSH1 0x40 MLOAD DUP1 SWAP2 SUB SWAP1 REVERT JUMPDEST PUSH0 PUSH2 0x1526 DUP3 PUSH1 0x2 PUSH0 DUP8 PUSH20 0xFFFFFFFFFFFFFFFFFFFFFFFFFFFFFFFFFFFFFFFF AND PUSH20 0xFFFFFFFFFFFFFFFFFFFFFFFFFFFFFFFFFFFFFFFF AND DUP2 MSTORE PUSH1 0x20 ADD SWAP1 DUP2 MSTORE PUSH1 0x20 ADD PUSH0 KECCAK256 PUSH2 0x2D3F SWAP1 SWAP2 SWAP1 PUSH4 0xFFFFFFFF AND JUMP JUMPDEST SWAP1 POP DUP1 ISZERO PUSH2 0x1589 JUMPI DUP4 PUSH20 0xFFFFFFFFFFFFFFFFFFFFFFFFFFFFFFFFFFFFFFFF AND DUP3 PUSH20 0xFFFFFFFFFFFFFFFFFFFFFFFFFFFFFFFFFFFFFFFF AND PUSH32 0x98D1EBBE00AE92A5DE96A0F49742A8AFA89F42363592BC2E7CFAAED68B45E7A6 PUSH1 0x40 MLOAD PUSH1 0x40 MLOAD DUP1 SWAP2 SUB SWAP1 LOG3 JUMPDEST POP POP POP POP JUMP JUMPDEST PUSH2 0x1597 PUSH2 0x2D6C JUMP JUMPDEST PUSH2 0x15D6 JUMPI PUSH1 0x40 MLOAD PUSH32 0x8C379A000000000000000000000000000000000000000000000000000000000 DUP2 MSTORE PUSH1 0x4 ADD PUSH2 0x15CD SWAP1 PUSH2 0x63CC JUMP JUMPDEST PUSH1 0x40 MLOAD DUP1 SWAP2 SUB SWAP1 REVERT JUMPDEST PUSH2 0x15DF DUP2 PUSH2 0x2D7E JUMP JUMPDEST POP JUMP JUMPDEST PUSH2 0x15EA PUSH2 0x4E60 JUMP JUMPDEST PUSH2 0x15F2 PUSH2 0x2344 JUMP JUMPDEST PUSH1 0x3 ADD PUSH0 DUP4 PUSH28 0xFFFFFFFFFFFFFFFFFFFFFFFFFFFFFFFFFFFFFFFFFFFFFFFFFFFFFFFF NOT AND PUSH28 0xFFFFFFFFFFFFFFFFFFFFFFFFFFFFFFFFFFFFFFFFFFFFFFFFFFFFFFFF NOT AND DUP2 MSTORE PUSH1 0x20 ADD SWAP1 DUP2 MSTORE PUSH1 0x20 ADD PUSH0 KECCAK256 PUSH1 0x40 MLOAD DUP1 PUSH1 0x60 ADD PUSH1 0x40 MSTORE SWAP1 DUP2 PUSH0 DUP3 ADD DUP1 SLOAD PUSH2 0x165C SWAP1 PUSH2 0x61E7 JUMP JUMPDEST DUP1 PUSH1 0x1F ADD PUSH1 0x20 DUP1 SWAP2 DIV MUL PUSH1 0x20 ADD PUSH1 0x40 MLOAD SWAP1 DUP2 ADD PUSH1 0x40 MSTORE DUP1 SWAP3 SWAP2 SWAP1 DUP2 DUP2 MSTORE PUSH1 0x20 ADD DUP3 DUP1 SLOAD PUSH2 0x1688 SWAP1 PUSH2 0x61E7 JUMP JUMPDEST DUP1 ISZERO PUSH2 0x16D3 JUMPI DUP1 PUSH1 0x1F LT PUSH2 0x16AA JUMPI PUSH2 0x100 DUP1 DUP4 SLOAD DIV MUL DUP4 MSTORE SWAP2 PUSH1 0x20 ADD SWAP2 PUSH2 0x16D3 JUMP JUMPDEST DUP3 ADD SWAP2 SWAP1 PUSH0 MSTORE PUSH1 0x20 PUSH0 KECCAK256 SWAP1 JUMPDEST DUP2 SLOAD DUP2 MSTORE SWAP1 PUSH1 0x1 ADD SWAP1 PUSH1 0x20 ADD DUP1 DUP4 GT PUSH2 0x16B6 JUMPI DUP3 SWAP1 SUB PUSH1 0x1F AND DUP3 ADD SWAP2 JUMPDEST POP POP POP POP POP DUP2 MSTORE PUSH1 0x20 ADD PUSH1 0x1 DUP3 ADD DUP1 SLOAD PUSH2 0x16EC SWAP1 PUSH2 0x61E7 JUMP JUMPDEST DUP1 PUSH1 0x1F ADD PUSH1 0x20 DUP1 SWAP2 DIV MUL PUSH1 0x20 ADD PUSH1 0x40 MLOAD SWAP1 DUP2 ADD PUSH1 0x40 MSTORE DUP1 SWAP3 SWAP2 SWAP1 DUP2 DUP2 MSTORE PUSH1 0x20 ADD DUP3 DUP1 SLOAD PUSH2 0x1718 SWAP1 PUSH2 0x61E7 JUMP JUMPDEST DUP1 ISZERO PUSH2 0x1763 JUMPI DUP1 PUSH1 0x1F LT PUSH2 0x173A JUMPI PUSH2 0x100 DUP1 DUP4 SLOAD DIV MUL DUP4 MSTORE SWAP2 PUSH1 0x20 ADD SWAP2 PUSH2 0x1763 JUMP JUMPDEST DUP3 ADD SWAP2 SWAP1 PUSH0 MSTORE PUSH1 0x20 PUSH0 KECCAK256 SWAP1 JUMPDEST DUP2 SLOAD DUP2 MSTORE SWAP1 PUSH1 0x1 ADD SWAP1 PUSH1 0x20 ADD DUP1 DUP4 GT PUSH2 0x1746 JUMPI DUP3 SWAP1 SUB PUSH1 0x1F AND DUP3 ADD SWAP2 JUMPDEST POP POP POP POP POP DUP2 MSTORE PUSH1 0x20 ADD PUSH1 0x2 DUP3 ADD PUSH0 SWAP1 SLOAD SWAP1 PUSH2 0x100 EXP SWAP1 DIV PUSH20 0xFFFFFFFFFFFFFFFFFFFFFFFFFFFFFFFFFFFFFFFF AND PUSH20 0xFFFFFFFFFFFFFFFFFFFFFFFFFFFFFFFFFFFFFFFF AND PUSH20 0xFFFFFFFFFFFFFFFFFFFFFFFFFFFFFFFFFFFFFFFF AND DUP2 MSTORE POP POP SWAP1 POP SWAP2 SWAP1 POP JUMP JUMPDEST PUSH0 DUP1 SHL DUP2 JUMP JUMPDEST PUSH0 PUSH2 0x17D7 PUSH2 0x208F JUMP JUMPDEST PUSH0 ADD PUSH0 DUP5 DUP2 MSTORE PUSH1 0x20 ADD SWAP1 DUP2 MSTORE PUSH1 0x20 ADD PUSH0 KECCAK256 PUSH0 DUP1 PUSH20 0xFFFFFFFFFFFFFFFFFFFFFFFFFFFFFFFFFFFFFFFF AND PUSH20 0xFFFFFFFFFFFFFFFFFFFFFFFFFFFFFFFFFFFFFFFF AND DUP2 MSTORE PUSH1 0x20 ADD SWAP1 DUP2 MSTORE PUSH1 0x20 ADD PUSH0 KECCAK256 PUSH0 SWAP1 SLOAD SWAP1 PUSH2 0x100 EXP SWAP1 DIV PUSH1 0xFF AND PUSH2 0x189C JUMPI PUSH2 0x183C PUSH2 0x208F JUMP JUMPDEST PUSH0 ADD PUSH0 DUP5 DUP2 MSTORE PUSH1 0x20 ADD SWAP1 DUP2 MSTORE PUSH1 0x20 ADD PUSH0 KECCAK256 PUSH0 DUP4 PUSH20 0xFFFFFFFFFFFFFFFFFFFFFFFFFFFFFFFFFFFFFFFF AND PUSH20 0xFFFFFFFFFFFFFFFFFFFFFFFFFFFFFFFFFFFFFFFF AND DUP2 MSTORE PUSH1 0x20 ADD SWAP1 DUP2 MSTORE PUSH1 0x20 ADD PUSH0 KECCAK256 PUSH0 SWAP1 SLOAD SWAP1 PUSH2 0x100 EXP SWAP1 DIV PUSH1 0xFF AND SWAP1 POP PUSH2 0x18A1 JUMP JUMPDEST PUSH1 0x1 SWAP1 POP JUMPDEST SWAP3 SWAP2 POP POP JUMP JUMPDEST PUSH32 0x0 DUP2 JUMP JUMPDEST PUSH1 0x60 DUP3 DUP3 SWAP1 POP PUSH8 0xFFFFFFFFFFFFFFFF DUP2 GT ISZERO PUSH2 0x18EA JUMPI PUSH2 0x18E9 PUSH2 0x5271 JUMP JUMPDEST JUMPDEST PUSH1 0x40 MLOAD SWAP1 DUP1 DUP3 MSTORE DUP1 PUSH1 0x20 MUL PUSH1 0x20 ADD DUP3 ADD PUSH1 0x40 MSTORE DUP1 ISZERO PUSH2 0x191D JUMPI DUP2 PUSH1 0x20 ADD JUMPDEST PUSH1 0x60 DUP2 MSTORE PUSH1 0x20 ADD SWAP1 PUSH1 0x1 SWAP1 SUB SWAP1 DUP2 PUSH2 0x1908 JUMPI SWAP1 POP JUMPDEST POP SWAP1 POP PUSH0 JUMPDEST DUP4 DUP4 SWAP1 POP DUP2 LT ISZERO PUSH2 0x19C8 JUMPI PUSH2 0x199D ADDRESS DUP6 DUP6 DUP5 DUP2 DUP2 LT PUSH2 0x1944 JUMPI PUSH2 0x1943 PUSH2 0x6267 JUMP JUMPDEST JUMPDEST SWAP1 POP PUSH1 0x20 MUL DUP2 ADD SWAP1 PUSH2 0x1956 SWAP2 SWAP1 PUSH2 0x63F6 JUMP JUMPDEST DUP1 DUP1 PUSH1 0x1F ADD PUSH1 0x20 DUP1 SWAP2 DIV MUL PUSH1 0x20 ADD PUSH1 0x40 MLOAD SWAP1 DUP2 ADD PUSH1 0x40 MSTORE DUP1 SWAP4 SWAP3 SWAP2 SWAP1 DUP2 DUP2 MSTORE PUSH1 0x20 ADD DUP4 DUP4 DUP1 DUP3 DUP5 CALLDATACOPY PUSH0 DUP2 DUP5 ADD MSTORE PUSH1 0x1F NOT PUSH1 0x1F DUP3 ADD AND SWAP1 POP DUP1 DUP4 ADD SWAP3 POP POP POP POP POP POP POP PUSH2 0x2E67 JUMP JUMPDEST DUP3 DUP3 DUP2 MLOAD DUP2 LT PUSH2 0x19B0 JUMPI PUSH2 0x19AF PUSH2 0x6267 JUMP JUMPDEST JUMPDEST PUSH1 0x20 MUL PUSH1 0x20 ADD ADD DUP2 SWAP1 MSTORE POP DUP1 DUP1 PUSH1 0x1 ADD SWAP2 POP POP PUSH2 0x1922 JUMP JUMPDEST POP SWAP3 SWAP2 POP POP JUMP JUMPDEST PUSH2 0x19D7 PUSH2 0x21C7 JUMP JUMPDEST PUSH2 0x1A16 JUMPI PUSH1 0x40 MLOAD PUSH32 0x8C379A000000000000000000000000000000000000000000000000000000000 DUP2 MSTORE PUSH1 0x4 ADD PUSH2 0x1A0D SWAP1 PUSH2 0x610E JUMP JUMPDEST PUSH1 0x40 MLOAD DUP1 SWAP2 SUB SWAP1 REVERT JUMPDEST PUSH2 0x1A1F DUP2 PUSH2 0x2E94 JUMP JUMPDEST POP JUMP JUMPDEST PUSH2 0x1A2A PUSH2 0x4E40 JUMP JUMPDEST PUSH2 0x1A33 DUP3 PUSH2 0x274F JUMP JUMPDEST SWAP1 POP SWAP2 SWAP1 POP JUMP JUMPDEST PUSH0 PUSH2 0x1A4E DUP3 PUSH0 PUSH2 0x2FF7 SWAP1 SWAP2 SWAP1 PUSH4 0xFFFFFFFF AND JUMP JUMPDEST SWAP1 POP SWAP2 SWAP1 POP JUMP JUMPDEST PUSH0 DUP1 PUSH2 0x1A5F PUSH2 0x2D31 JUMP JUMPDEST PUSH0 ADD PUSH0 DUP5 DUP2 MSTORE PUSH1 0x20 ADD SWAP1 DUP2 MSTORE PUSH1 0x20 ADD PUSH0 KECCAK256 PUSH0 ADD SLOAD SWAP1 POP PUSH0 JUMPDEST DUP2 DUP2 LT ISZERO PUSH2 0x1B20 JUMPI PUSH0 PUSH20 0xFFFFFFFFFFFFFFFFFFFFFFFFFFFFFFFFFFFFFFFF AND PUSH2 0x1A9E PUSH2 0x2D31 JUMP JUMPDEST PUSH0 ADD PUSH0 DUP7 DUP2 MSTORE PUSH1 0x20 ADD SWAP1 DUP2 MSTORE PUSH1 0x20 ADD PUSH0 KECCAK256 PUSH1 0x1 ADD PUSH0 DUP4 DUP2 MSTORE PUSH1 0x20 ADD SWAP1 DUP2 MSTORE PUSH1 0x20 ADD PUSH0 KECCAK256 PUSH0 SWAP1 SLOAD SWAP1 PUSH2 0x100 EXP SWAP1 DIV PUSH20 0xFFFFFFFFFFFFFFFFFFFFFFFFFFFFFFFFFFFFFFFF AND PUSH20 0xFFFFFFFFFFFFFFFFFFFFFFFFFFFFFFFFFFFFFFFF AND EQ PUSH2 0x1B0C JUMPI PUSH1 0x1 DUP4 PUSH2 0x1B09 SWAP2 SWAP1 PUSH2 0x62C1 JUMP JUMPDEST SWAP3 POP JUMPDEST PUSH1 0x1 DUP2 PUSH2 0x1B19 SWAP2 SWAP1 PUSH2 0x62C1 JUMP JUMPDEST SWAP1 POP PUSH2 0x1A77 JUMP JUMPDEST POP PUSH2 0x1B2B DUP4 PUSH0 PUSH2 0x141F JUMP JUMPDEST ISZERO PUSH2 0x1B40 JUMPI PUSH1 0x1 DUP3 PUSH2 0x1B3D SWAP2 SWAP1 PUSH2 0x62C1 JUMP JUMPDEST SWAP2 POP JUMPDEST POP SWAP2 SWAP1 POP JUMP JUMPDEST PUSH2 0x1B71 PUSH2 0x1B51 PUSH2 0x208F JUMP JUMPDEST PUSH1 0x1 ADD PUSH0 DUP5 DUP2 MSTORE PUSH1 0x20 ADD SWAP1 DUP2 MSTORE PUSH1 0x20 ADD PUSH0 KECCAK256 SLOAD PUSH2 0x1B6C PUSH2 0x209D JUMP JUMPDEST PUSH2 0x20A4 JUMP JUMPDEST PUSH2 0x1B7B DUP3 DUP3 PUSH2 0x21AF JUMP JUMPDEST POP POP JUMP JUMPDEST PUSH0 DUP1 PUSH32 0x0 SWAP1 POP PUSH0 PUSH2 0x1BF2 DUP7 DUP7 DUP7 DUP1 DUP1 PUSH1 0x1F ADD PUSH1 0x20 DUP1 SWAP2 DIV MUL PUSH1 0x20 ADD PUSH1 0x40 MLOAD SWAP1 DUP2 ADD PUSH1 0x40 MSTORE DUP1 SWAP4 SWAP3 SWAP2 SWAP1 DUP2 DUP2 MSTORE PUSH1 0x20 ADD DUP4 DUP4 DUP1 DUP3 DUP5 CALLDATACOPY PUSH0 DUP2 DUP5 ADD MSTORE PUSH1 0x1F NOT PUSH1 0x1F DUP3 ADD AND SWAP1 POP DUP1 DUP4 ADD SWAP3 POP POP POP POP POP POP POP PUSH2 0x2CEB JUMP JUMPDEST SWAP1 POP PUSH0 PUSH2 0x1BFF DUP4 DUP4 PUSH2 0x2D1D JUMP JUMPDEST SWAP1 POP PUSH0 DUP2 PUSH20 0xFFFFFFFFFFFFFFFFFFFFFFFFFFFFFFFFFFFFFFFF AND EXTCODESIZE GT ISZERO PUSH2 0x1C2B JUMPI DUP1 SWAP4 POP POP POP POP PUSH2 0x1D4A JUMP JUMPDEST PUSH2 0x1C35 DUP4 DUP4 PUSH2 0x3024 JUMP JUMPDEST SWAP1 POP PUSH32 0x0 PUSH20 0xFFFFFFFFFFFFFFFFFFFFFFFFFFFFFFFFFFFFFFFF AND CALLER PUSH20 0xFFFFFFFFFFFFFFFFFFFFFFFFFFFFFFFFFFFFFFFF AND EQ PUSH2 0x1CDD JUMPI PUSH2 0x1C9D DUP2 PUSH0 PUSH2 0x2062 SWAP1 SWAP2 SWAP1 PUSH4 0xFFFFFFFF AND JUMP JUMPDEST PUSH2 0x1CDC JUMPI PUSH1 0x40 MLOAD PUSH32 0x8C379A000000000000000000000000000000000000000000000000000000000 DUP2 MSTORE PUSH1 0x4 ADD PUSH2 0x1CD3 SWAP1 PUSH2 0x6364 JUMP JUMPDEST PUSH1 0x40 MLOAD DUP1 SWAP2 SUB SWAP1 REVERT JUMPDEST JUMPDEST PUSH2 0x1CE9 DUP2 DUP9 DUP9 DUP9 PUSH2 0x30DC JUMP JUMPDEST DUP7 PUSH20 0xFFFFFFFFFFFFFFFFFFFFFFFFFFFFFFFFFFFFFFFF AND DUP2 PUSH20 0xFFFFFFFFFFFFFFFFFFFFFFFFFFFFFFFFFFFFFFFF AND PUSH32 0xAC631F3001B55EA1509CF3D7E74898F85392A61A76E8149181AE1259622DABC8 PUSH1 0x40 MLOAD PUSH1 0x40 MLOAD DUP1 SWAP2 SUB SWAP1 LOG3 DUP1 SWAP4 POP POP POP POP JUMPDEST SWAP4 SWAP3 POP POP POP JUMP JUMPDEST PUSH2 0x1D59 PUSH2 0x21C7 JUMP JUMPDEST PUSH2 0x1D98 JUMPI PUSH1 0x40 MLOAD PUSH32 0x8C379A000000000000000000000000000000000000000000000000000000000 DUP2 MSTORE PUSH1 0x4 ADD PUSH2 0x1D8F SWAP1 PUSH2 0x610E JUMP JUMPDEST PUSH1 0x40 MLOAD DUP1 SWAP2 SUB SWAP1 REVERT JUMPDEST PUSH2 0x1DA1 DUP2 PUSH2 0x314C JUMP JUMPDEST POP JUMP JUMPDEST PUSH1 0x60 DUP2 DUP4 LT DUP1 ISZERO PUSH2 0x1DBD JUMPI POP PUSH2 0x1DB9 PUSH0 PUSH2 0x2A56 JUMP JUMPDEST DUP3 GT ISZERO JUMPDEST PUSH2 0x1DFC JUMPI PUSH1 0x40 MLOAD PUSH32 0x8C379A000000000000000000000000000000000000000000000000000000000 DUP2 MSTORE PUSH1 0x4 ADD PUSH2 0x1DF3 SWAP1 PUSH2 0x64C8 JUMP JUMPDEST PUSH1 0x40 MLOAD DUP1 SWAP2 SUB SWAP1 REVERT JUMPDEST PUSH0 DUP4 DUP4 PUSH2 0x1E09 SWAP2 SWAP1 PUSH2 0x64E6 JUMP JUMPDEST SWAP1 POP DUP4 DUP4 PUSH2 0x1E17 SWAP2 SWAP1 PUSH2 0x64E6 JUMP JUMPDEST PUSH8 0xFFFFFFFFFFFFFFFF DUP2 GT ISZERO PUSH2 0x1E30 JUMPI PUSH2 0x1E2F PUSH2 0x5271 JUMP JUMPDEST JUMPDEST PUSH1 0x40 MLOAD SWAP1 DUP1 DUP3 MSTORE DUP1 PUSH1 0x20 MUL PUSH1 0x20 ADD DUP3 ADD PUSH1 0x40 MSTORE DUP1 ISZERO PUSH2 0x1E5E JUMPI DUP2 PUSH1 0x20 ADD PUSH1 0x20 DUP3 MUL DUP1 CALLDATASIZE DUP4 CALLDATACOPY DUP1 DUP3 ADD SWAP2 POP POP SWAP1 POP JUMPDEST POP SWAP2 POP PUSH0 JUMPDEST DUP2 DUP2 LT ISZERO PUSH2 0x1EEA JUMPI PUSH2 0x1E89 DUP6 DUP3 PUSH2 0x1E7A SWAP2 SWAP1 PUSH2 0x62C1 JUMP JUMPDEST PUSH0 PUSH2 0x32A0 SWAP1 SWAP2 SWAP1 PUSH4 0xFFFFFFFF AND JUMP JUMPDEST DUP4 DUP3 DUP2 MLOAD DUP2 LT PUSH2 0x1E9C JUMPI PUSH2 0x1E9B PUSH2 0x6267 JUMP JUMPDEST JUMPDEST PUSH1 0x20 MUL PUSH1 0x20 ADD ADD SWAP1 PUSH20 0xFFFFFFFFFFFFFFFFFFFFFFFFFFFFFFFFFFFFFFFF AND SWAP1 DUP2 PUSH20 0xFFFFFFFFFFFFFFFFFFFFFFFFFFFFFFFFFFFFFFFF AND DUP2 MSTORE POP POP PUSH1 0x1 DUP2 PUSH2 0x1EE3 SWAP2 SWAP1 PUSH2 0x62C1 JUMP JUMPDEST SWAP1 POP PUSH2 0x1E63 JUMP JUMPDEST POP POP SWAP3 SWAP2 POP POP JUMP JUMPDEST PUSH1 0x60 PUSH2 0x1EFC PUSH2 0x32B7 JUMP JUMPDEST PUSH0 ADD DUP1 SLOAD PUSH2 0x1F09 SWAP1 PUSH2 0x61E7 JUMP JUMPDEST DUP1 PUSH1 0x1F ADD PUSH1 0x20 DUP1 SWAP2 DIV MUL PUSH1 0x20 ADD PUSH1 0x40 MLOAD SWAP1 DUP2 ADD PUSH1 0x40 MSTORE DUP1 SWAP3 SWAP2 SWAP1 DUP2 DUP2 MSTORE PUSH1 0x20 ADD DUP3 DUP1 SLOAD PUSH2 0x1F35 SWAP1 PUSH2 0x61E7 JUMP JUMPDEST DUP1 ISZERO PUSH2 0x1F80 JUMPI DUP1 PUSH1 0x1F LT PUSH2 0x1F57 JUMPI PUSH2 0x100 DUP1 DUP4 SLOAD DIV MUL DUP4 MSTORE SWAP2 PUSH1 0x20 ADD SWAP2 PUSH2 0x1F80 JUMP JUMPDEST DUP3 ADD SWAP2 SWAP1 PUSH0 MSTORE PUSH1 0x20 PUSH0 KECCAK256 SWAP1 JUMPDEST DUP2 SLOAD DUP2 MSTORE SWAP1 PUSH1 0x1 ADD SWAP1 PUSH1 0x20 ADD DUP1 DUP4 GT PUSH2 0x1F63 JUMPI DUP3 SWAP1 SUB PUSH1 0x1F AND DUP3 ADD SWAP2 JUMPDEST POP POP POP POP POP SWAP1 POP SWAP1 JUMP JUMPDEST PUSH2 0x1F92 PUSH2 0x21C7 JUMP JUMPDEST PUSH2 0x1FD1 JUMPI PUSH1 0x40 MLOAD PUSH32 0x8C379A000000000000000000000000000000000000000000000000000000000 DUP2 MSTORE PUSH1 0x4 ADD PUSH2 0x1FC8 SWAP1 PUSH2 0x610E JUMP JUMPDEST PUSH1 0x40 MLOAD DUP1 SWAP2 SUB SWAP1 REVERT JUMPDEST PUSH2 0x1FDA DUP2 PUSH2 0x32C5 JUMP JUMPDEST POP JUMP JUMPDEST PUSH1 0x60 PUSH0 PUSH2 0x1FEB DUP4 PUSH0 ADD PUSH2 0x366B JUMP JUMPDEST SWAP1 POP PUSH1 0x60 DUP2 SWAP1 POP DUP1 SWAP3 POP POP POP SWAP2 SWAP1 POP JUMP JUMPDEST PUSH0 DUP1 PUSH2 0x2028 PUSH32 0x0 DUP5 PUSH2 0x2D1D JUMP JUMPDEST SWAP1 POP DUP1 PUSH20 0xFFFFFFFFFFFFFFFFFFFFFFFFFFFFFFFFFFFFFFFF AND DUP5 PUSH20 0xFFFFFFFFFFFFFFFFFFFFFFFFFFFFFFFFFFFFFFFF AND EQ SWAP2 POP POP SWAP3 SWAP2 POP POP JUMP JUMPDEST PUSH0 PUSH2 0x2087 DUP4 PUSH0 ADD DUP4 PUSH20 0xFFFFFFFFFFFFFFFFFFFFFFFFFFFFFFFFFFFFFFFF AND PUSH0 SHL PUSH2 0x36C4 JUMP JUMPDEST SWAP1 POP SWAP3 SWAP2 POP POP JUMP JUMPDEST PUSH0 PUSH2 0x2098 PUSH2 0x372B JUMP JUMPDEST SWAP1 POP SWAP1 JUMP JUMPDEST PUSH0 CALLER SWAP1 POP SWAP1 JUMP JUMPDEST PUSH2 0x20AC PUSH2 0x208F JUMP JUMPDEST PUSH0 ADD PUSH0 DUP4 DUP2 MSTORE PUSH1 0x20 ADD SWAP1 DUP2 MSTORE PUSH1 0x20 ADD PUSH0 KECCAK256 PUSH0 DUP3 PUSH20 0xFFFFFFFFFFFFFFFFFFFFFFFFFFFFFFFFFFFFFFFF AND PUSH20 0xFFFFFFFFFFFFFFFFFFFFFFFFFFFFFFFFFFFFFFFF AND DUP2 MSTORE PUSH1 0x20 ADD SWAP1 DUP2 MSTORE PUSH1 0x20 ADD PUSH0 KECCAK256 PUSH0 SWAP1 SLOAD SWAP1 PUSH2 0x100 EXP SWAP1 DIV PUSH1 0xFF AND PUSH2 0x2193 JUMPI PUSH2 0x212A DUP2 PUSH20 0xFFFFFFFFFFFFFFFFFFFFFFFFFFFFFFFFFFFFFFFF AND PUSH1 0x14 PUSH2 0x3759 JUMP JUMPDEST PUSH2 0x2137 DUP4 PUSH0 SHR PUSH1 0x20 PUSH2 0x3759 JUMP JUMPDEST PUSH1 0x40 MLOAD PUSH1 0x20 ADD PUSH2 0x2148 SWAP3 SWAP2 SWAP1 PUSH2 0x65AD JUMP JUMPDEST PUSH1 0x40 MLOAD PUSH1 0x20 DUP2 DUP4 SUB SUB DUP2 MSTORE SWAP1 PUSH1 0x40 MSTORE PUSH1 0x40 MLOAD PUSH32 0x8C379A000000000000000000000000000000000000000000000000000000000 DUP2 MSTORE PUSH1 0x4 ADD PUSH2 0x218A SWAP2 SWAP1 PUSH2 0x5F6C JUMP JUMPDEST PUSH1 0x40 MLOAD DUP1 SWAP2 SUB SWAP1 REVERT JUMPDEST POP POP JUMP JUMPDEST PUSH2 0x21A1 DUP3 DUP3 PUSH2 0x398E JUMP JUMPDEST PUSH2 0x21AB DUP3 DUP3 PUSH2 0x3A60 JUMP JUMPDEST POP POP JUMP JUMPDEST PUSH2 0x21B9 DUP3 DUP3 PUSH2 0x3B7B JUMP JUMPDEST PUSH2 0x21C3 DUP3 DUP3 PUSH2 0x3C4E JUMP JUMPDEST POP POP JUMP JUMPDEST PUSH0 PUSH2 0x21F2 PUSH32 0x55ADD213C41F3851B4506717B8AF695A4256979DFF496DCAAE7789F6121331AA CALLER PUSH2 0x141F JUMP JUMPDEST SWAP1 POP SWAP1 JUMP JUMPDEST PUSH0 PUSH2 0x2214 DUP4 PUSH2 0x2204 PUSH2 0x2344 JUMP JUMPDEST PUSH0 ADD PUSH2 0x3D55 SWAP1 SWAP2 SWAP1 PUSH4 0xFFFFFFFF AND JUMP JUMPDEST PUSH2 0x2253 JUMPI PUSH1 0x40 MLOAD PUSH32 0x8C379A000000000000000000000000000000000000000000000000000000000 DUP2 MSTORE PUSH1 0x4 ADD PUSH2 0x224A SWAP1 PUSH2 0x6656 JUMP JUMPDEST PUSH1 0x40 MLOAD DUP1 SWAP2 SUB SWAP1 REVERT JUMPDEST DUP3 PUSH1 0x40 MLOAD PUSH1 0x20 ADD PUSH2 0x2264 SWAP2 SWAP1 PUSH2 0x5F6C JUMP JUMPDEST PUSH1 0x40 MLOAD PUSH1 0x20 DUP2 DUP4 SUB SUB DUP2 MSTORE SWAP1 PUSH1 0x40 MSTORE DUP1 MLOAD SWAP1 PUSH1 0x20 ADD KECCAK256 PUSH2 0x2282 PUSH2 0x2344 JUMP JUMPDEST PUSH1 0x3 ADD PUSH0 DUP5 PUSH28 0xFFFFFFFFFFFFFFFFFFFFFFFFFFFFFFFFFFFFFFFFFFFFFFFFFFFFFFFF NOT AND PUSH28 0xFFFFFFFFFFFFFFFFFFFFFFFFFFFFFFFFFFFFFFFFFFFFFFFFFFFFFFFF NOT AND DUP2 MSTORE PUSH1 0x20 ADD SWAP1 DUP2 MSTORE PUSH1 0x20 ADD PUSH0 KECCAK256 PUSH0 ADD PUSH1 0x40 MLOAD PUSH1 0x20 ADD PUSH2 0x22E4 SWAP2 SWAP1 PUSH2 0x6707 JUMP JUMPDEST PUSH1 0x40 MLOAD PUSH1 0x20 DUP2 DUP4 SUB SUB DUP2 MSTORE SWAP1 PUSH1 0x40 MSTORE DUP1 MLOAD SWAP1 PUSH1 0x20 ADD KECCAK256 EQ PUSH2 0x233A JUMPI PUSH1 0x40 MLOAD PUSH32 0x8C379A000000000000000000000000000000000000000000000000000000000 DUP2 MSTORE PUSH1 0x4 ADD PUSH2 0x2331 SWAP1 PUSH2 0x6797 JUMP JUMPDEST PUSH1 0x40 MLOAD DUP1 SWAP2 SUB SWAP1 REVERT JUMPDEST PUSH1 0x1 SWAP1 POP SWAP3 SWAP2 POP POP JUMP JUMPDEST PUSH0 PUSH2 0x234D PUSH2 0x3D68 JUMP JUMPDEST SWAP1 POP SWAP1 JUMP JUMPDEST PUSH0 PUSH2 0x235B PUSH2 0x2344 JUMP JUMPDEST PUSH1 0x2 ADD DUP4 PUSH1 0x40 MLOAD PUSH2 0x236C SWAP2 SWAP1 PUSH2 0x6251 JUMP JUMPDEST SWAP1 DUP2 MSTORE PUSH1 0x20 ADD PUSH1 0x40 MLOAD DUP1 SWAP2 SUB SWAP1 KECCAK256 PUSH1 0x3 ADD DUP1 SLOAD DUP1 PUSH1 0x20 MUL PUSH1 0x20 ADD PUSH1 0x40 MLOAD SWAP1 DUP2 ADD PUSH1 0x40 MSTORE DUP1 SWAP3 SWAP2 SWAP1 DUP2 DUP2 MSTORE PUSH1 0x20 ADD PUSH0 SWAP1 JUMPDEST DUP3 DUP3 LT ISZERO PUSH2 0x24AF JUMPI DUP4 DUP3 SWAP1 PUSH0 MSTORE PUSH1 0x20 PUSH0 KECCAK256 SWAP1 PUSH1 0x2 MUL ADD PUSH1 0x40 MLOAD DUP1 PUSH1 0x40 ADD PUSH1 0x40 MSTORE SWAP1 DUP2 PUSH0 DUP3 ADD PUSH0 SWAP1 SLOAD SWAP1 PUSH2 0x100 EXP SWAP1 DIV PUSH1 0xE0 SHL PUSH28 0xFFFFFFFFFFFFFFFFFFFFFFFFFFFFFFFFFFFFFFFFFFFFFFFFFFFFFFFF NOT AND PUSH28 0xFFFFFFFFFFFFFFFFFFFFFFFFFFFFFFFFFFFFFFFFFFFFFFFFFFFFFFFF NOT AND DUP2 MSTORE PUSH1 0x20 ADD PUSH1 0x1 DUP3 ADD DUP1 SLOAD PUSH2 0x2420 SWAP1 PUSH2 0x61E7 JUMP JUMPDEST DUP1 PUSH1 0x1F ADD PUSH1 0x20 DUP1 SWAP2 DIV MUL PUSH1 0x20 ADD PUSH1 0x40 MLOAD SWAP1 DUP2 ADD PUSH1 0x40 MSTORE DUP1 SWAP3 SWAP2 SWAP1 DUP2 DUP2 MSTORE PUSH1 0x20 ADD DUP3 DUP1 SLOAD PUSH2 0x244C SWAP1 PUSH2 0x61E7 JUMP JUMPDEST DUP1 ISZERO PUSH2 0x2497 JUMPI DUP1 PUSH1 0x1F LT PUSH2 0x246E JUMPI PUSH2 0x100 DUP1 DUP4 SLOAD DIV MUL DUP4 MSTORE SWAP2 PUSH1 0x20 ADD SWAP2 PUSH2 0x2497 JUMP JUMPDEST DUP3 ADD SWAP2 SWAP1 PUSH0 MSTORE PUSH1 0x20 PUSH0 KECCAK256 SWAP1 JUMPDEST DUP2 SLOAD DUP2 MSTORE SWAP1 PUSH1 0x1 ADD SWAP1 PUSH1 0x20 ADD DUP1 DUP4 GT PUSH2 0x247A JUMPI DUP3 SWAP1 SUB PUSH1 0x1F AND DUP3 ADD SWAP2 JUMPDEST POP POP POP POP POP DUP2 MSTORE POP POP DUP2 MSTORE PUSH1 0x20 ADD SWAP1 PUSH1 0x1 ADD SWAP1 PUSH2 0x239C JUMP JUMPDEST POP POP POP POP SWAP1 POP PUSH0 DUP2 MLOAD SWAP1 POP PUSH0 JUMPDEST DUP2 DUP2 LT ISZERO PUSH2 0x2695 JUMPI DUP4 PUSH28 0xFFFFFFFFFFFFFFFFFFFFFFFFFFFFFFFFFFFFFFFFFFFFFFFFFFFFFFFF NOT AND DUP4 DUP3 DUP2 MLOAD DUP2 LT PUSH2 0x24F7 JUMPI PUSH2 0x24F6 PUSH2 0x6267 JUMP JUMPDEST JUMPDEST PUSH1 0x20 MUL PUSH1 0x20 ADD ADD MLOAD PUSH0 ADD MLOAD PUSH28 0xFFFFFFFFFFFFFFFFFFFFFFFFFFFFFFFFFFFFFFFFFFFFFFFFFFFFFFFF NOT AND SUB PUSH2 0x2681 JUMPI PUSH2 0x252E PUSH2 0x2344 JUMP JUMPDEST PUSH1 0x2 ADD DUP6 PUSH1 0x40 MLOAD PUSH2 0x253F SWAP2 SWAP1 PUSH2 0x6251 JUMP JUMPDEST SWAP1 DUP2 MSTORE PUSH1 0x20 ADD PUSH1 0x40 MLOAD DUP1 SWAP2 SUB SWAP1 KECCAK256 PUSH1 0x3 ADD PUSH1 0x1 DUP4 PUSH2 0x255D SWAP2 SWAP1 PUSH2 0x64E6 JUMP JUMPDEST DUP2 SLOAD DUP2 LT PUSH2 0x256E JUMPI PUSH2 0x256D PUSH2 0x6267 JUMP JUMPDEST JUMPDEST SWAP1 PUSH0 MSTORE PUSH1 0x20 PUSH0 KECCAK256 SWAP1 PUSH1 0x2 MUL ADD PUSH2 0x2582 PUSH2 0x2344 JUMP JUMPDEST PUSH1 0x2 ADD DUP7 PUSH1 0x40 MLOAD PUSH2 0x2593 SWAP2 SWAP1 PUSH2 0x6251 JUMP JUMPDEST SWAP1 DUP2 MSTORE PUSH1 0x20 ADD PUSH1 0x40 MLOAD DUP1 SWAP2 SUB SWAP1 KECCAK256 PUSH1 0x3 ADD DUP3 DUP2 SLOAD DUP2 LT PUSH2 0x25B6 JUMPI PUSH2 0x25B5 PUSH2 0x6267 JUMP JUMPDEST JUMPDEST SWAP1 PUSH0 MSTORE PUSH1 0x20 PUSH0 KECCAK256 SWAP1 PUSH1 0x2 MUL ADD PUSH0 DUP3 ADD PUSH0 SWAP1 SLOAD SWAP1 PUSH2 0x100 EXP SWAP1 DIV PUSH1 0xE0 SHL DUP2 PUSH0 ADD PUSH0 PUSH2 0x100 EXP DUP2 SLOAD DUP2 PUSH4 0xFFFFFFFF MUL NOT AND SWAP1 DUP4 PUSH1 0xE0 SHR MUL OR SWAP1 SSTORE POP PUSH1 0x1 DUP3 ADD DUP2 PUSH1 0x1 ADD SWAP1 DUP2 PUSH2 0x2603 SWAP2 SWAP1 PUSH2 0x6955 JUMP JUMPDEST POP SWAP1 POP POP PUSH2 0x260F PUSH2 0x2344 JUMP JUMPDEST PUSH1 0x2 ADD DUP6 PUSH1 0x40 MLOAD PUSH2 0x2620 SWAP2 SWAP1 PUSH2 0x6251 JUMP JUMPDEST SWAP1 DUP2 MSTORE PUSH1 0x20 ADD PUSH1 0x40 MLOAD DUP1 SWAP2 SUB SWAP1 KECCAK256 PUSH1 0x3 ADD DUP1 SLOAD DUP1 PUSH2 0x2641 JUMPI PUSH2 0x2640 PUSH2 0x6A3A JUMP JUMPDEST JUMPDEST PUSH1 0x1 SWAP1 SUB DUP2 DUP2 SWAP1 PUSH0 MSTORE PUSH1 0x20 PUSH0 KECCAK256 SWAP1 PUSH1 0x2 MUL ADD PUSH0 DUP1 DUP3 ADD PUSH0 PUSH2 0x100 EXP DUP2 SLOAD SWAP1 PUSH4 0xFFFFFFFF MUL NOT AND SWAP1 SSTORE PUSH1 0x1 DUP3 ADD PUSH0 PUSH2 0x2678 SWAP2 SWAP1 PUSH2 0x4E96 JUMP JUMPDEST POP POP SWAP1 SSTORE PUSH2 0x2695 JUMP JUMPDEST PUSH1 0x1 DUP2 PUSH2 0x268E SWAP2 SWAP1 PUSH2 0x62C1 JUMP JUMPDEST SWAP1 POP PUSH2 0x24BC JUMP JUMPDEST POP POP POP POP POP JUMP JUMPDEST PUSH2 0x26A4 PUSH2 0x2344 JUMP JUMPDEST PUSH1 0x3 ADD PUSH0 DUP3 PUSH28 0xFFFFFFFFFFFFFFFFFFFFFFFFFFFFFFFFFFFFFFFFFFFFFFFFFFFFFFFF NOT AND PUSH28 0xFFFFFFFFFFFFFFFFFFFFFFFFFFFFFFFFFFFFFFFFFFFFFFFFFFFFFFFF NOT AND DUP2 MSTORE PUSH1 0x20 ADD SWAP1 DUP2 MSTORE PUSH1 0x20 ADD PUSH0 KECCAK256 PUSH0 DUP1 DUP3 ADD PUSH0 PUSH2 0x2703 SWAP2 SWAP1 PUSH2 0x4E96 JUMP JUMPDEST PUSH1 0x1 DUP3 ADD PUSH0 PUSH2 0x2712 SWAP2 SWAP1 PUSH2 0x4E96 JUMP JUMPDEST PUSH1 0x2 DUP3 ADD PUSH0 PUSH2 0x100 EXP DUP2 SLOAD SWAP1 PUSH20 0xFFFFFFFFFFFFFFFFFFFFFFFFFFFFFFFFFFFFFFFF MUL NOT AND SWAP1 SSTORE POP POP POP JUMP JUMPDEST PUSH1 0x60 PUSH2 0x2748 DUP3 PUSH2 0x3DC8 JUMP JUMPDEST SWAP1 POP SWAP2 SWAP1 POP JUMP JUMPDEST PUSH2 0x2757 PUSH2 0x4E40 JUMP JUMPDEST PUSH2 0x275F PUSH2 0x2344 JUMP JUMPDEST PUSH1 0x2 ADD DUP3 PUSH1 0x40 MLOAD PUSH2 0x2770 SWAP2 SWAP1 PUSH2 0x6251 JUMP JUMPDEST SWAP1 DUP2 MSTORE PUSH1 0x20 ADD PUSH1 0x40 MLOAD DUP1 SWAP2 SUB SWAP1 KECCAK256 PUSH1 0x40 MLOAD DUP1 PUSH1 0x40 ADD PUSH1 0x40 MSTORE SWAP1 DUP2 PUSH0 DUP3 ADD PUSH1 0x40 MLOAD DUP1 PUSH1 0x60 ADD PUSH1 0x40 MSTORE SWAP1 DUP2 PUSH0 DUP3 ADD DUP1 SLOAD PUSH2 0x27A7 SWAP1 PUSH2 0x61E7 JUMP JUMPDEST DUP1 PUSH1 0x1F ADD PUSH1 0x20 DUP1 SWAP2 DIV MUL PUSH1 0x20 ADD PUSH1 0x40 MLOAD SWAP1 DUP2 ADD PUSH1 0x40 MSTORE DUP1 SWAP3 SWAP2 SWAP1 DUP2 DUP2 MSTORE PUSH1 0x20 ADD DUP3 DUP1 SLOAD PUSH2 0x27D3 SWAP1 PUSH2 0x61E7 JUMP JUMPDEST DUP1 ISZERO PUSH2 0x281E JUMPI DUP1 PUSH1 0x1F LT PUSH2 0x27F5 JUMPI PUSH2 0x100 DUP1 DUP4 SLOAD DIV MUL DUP4 MSTORE SWAP2 PUSH1 0x20 ADD SWAP2 PUSH2 0x281E JUMP JUMPDEST DUP3 ADD SWAP2 SWAP1 PUSH0 MSTORE PUSH1 0x20 PUSH0 KECCAK256 SWAP1 JUMPDEST DUP2 SLOAD DUP2 MSTORE SWAP1 PUSH1 0x1 ADD SWAP1 PUSH1 0x20 ADD DUP1 DUP4 GT PUSH2 0x2801 JUMPI DUP3 SWAP1 SUB PUSH1 0x1F AND DUP3 ADD SWAP2 JUMPDEST POP POP POP POP POP DUP2 MSTORE PUSH1 0x20 ADD PUSH1 0x1 DUP3 ADD DUP1 SLOAD PUSH2 0x2837 SWAP1 PUSH2 0x61E7 JUMP JUMPDEST DUP1 PUSH1 0x1F ADD PUSH1 0x20 DUP1 SWAP2 DIV MUL PUSH1 0x20 ADD PUSH1 0x40 MLOAD SWAP1 DUP2 ADD PUSH1 0x40 MSTORE DUP1 SWAP3 SWAP2 SWAP1 DUP2 DUP2 MSTORE PUSH1 0x20 ADD DUP3 DUP1 SLOAD PUSH2 0x2863 SWAP1 PUSH2 0x61E7 JUMP JUMPDEST DUP1 ISZERO PUSH2 0x28AE JUMPI DUP1 PUSH1 0x1F LT PUSH2 0x2885 JUMPI PUSH2 0x100 DUP1 DUP4 SLOAD DIV MUL DUP4 MSTORE SWAP2 PUSH1 0x20 ADD SWAP2 PUSH2 0x28AE JUMP JUMPDEST DUP3 ADD SWAP2 SWAP1 PUSH0 MSTORE PUSH1 0x20 PUSH0 KECCAK256 SWAP1 JUMPDEST DUP2 SLOAD DUP2 MSTORE SWAP1 PUSH1 0x1 ADD SWAP1 PUSH1 0x20 ADD DUP1 DUP4 GT PUSH2 0x2891 JUMPI DUP3 SWAP1 SUB PUSH1 0x1F AND DUP3 ADD SWAP2 JUMPDEST POP POP POP POP POP DUP2 MSTORE PUSH1 0x20 ADD PUSH1 0x2 DUP3 ADD PUSH0 SWAP1 SLOAD SWAP1 PUSH2 0x100 EXP SWAP1 DIV PUSH20 0xFFFFFFFFFFFFFFFFFFFFFFFFFFFFFFFFFFFFFFFF AND PUSH20 0xFFFFFFFFFFFFFFFFFFFFFFFFFFFFFFFFFFFFFFFF AND PUSH20 0xFFFFFFFFFFFFFFFFFFFFFFFFFFFFFFFFFFFFFFFF AND DUP2 MSTORE POP POP DUP2 MSTORE PUSH1 0x20 ADD PUSH1 0x3 DUP3 ADD DUP1 SLOAD DUP1 PUSH1 0x20 MUL PUSH1 0x20 ADD PUSH1 0x40 MLOAD SWAP1 DUP2 ADD PUSH1 0x40 MSTORE DUP1 SWAP3 SWAP2 SWAP1 DUP2 DUP2 MSTORE PUSH1 0x20 ADD PUSH0 SWAP1 JUMPDEST DUP3 DUP3 LT ISZERO PUSH2 0x2A47 JUMPI DUP4 DUP3 SWAP1 PUSH0 MSTORE PUSH1 0x20 PUSH0 KECCAK256 SWAP1 PUSH1 0x2 MUL ADD PUSH1 0x40 MLOAD DUP1 PUSH1 0x40 ADD PUSH1 0x40 MSTORE SWAP1 DUP2 PUSH0 DUP3 ADD PUSH0 SWAP1 SLOAD SWAP1 PUSH2 0x100 EXP SWAP1 DIV PUSH1 0xE0 SHL PUSH28 0xFFFFFFFFFFFFFFFFFFFFFFFFFFFFFFFFFFFFFFFFFFFFFFFFFFFFFFFF NOT AND PUSH28 0xFFFFFFFFFFFFFFFFFFFFFFFFFFFFFFFFFFFFFFFFFFFFFFFFFFFFFFFF NOT AND DUP2 MSTORE PUSH1 0x20 ADD PUSH1 0x1 DUP3 ADD DUP1 SLOAD PUSH2 0x29B8 SWAP1 PUSH2 0x61E7 JUMP JUMPDEST DUP1 PUSH1 0x1F ADD PUSH1 0x20 DUP1 SWAP2 DIV MUL PUSH1 0x20 ADD PUSH1 0x40 MLOAD SWAP1 DUP2 ADD PUSH1 0x40 MSTORE DUP1 SWAP3 SWAP2 SWAP1 DUP2 DUP2 MSTORE PUSH1 0x20 ADD DUP3 DUP1 SLOAD PUSH2 0x29E4 SWAP1 PUSH2 0x61E7 JUMP JUMPDEST DUP1 ISZERO PUSH2 0x2A2F JUMPI DUP1 PUSH1 0x1F LT PUSH2 0x2A06 JUMPI PUSH2 0x100 DUP1 DUP4 SLOAD DIV MUL DUP4 MSTORE SWAP2 PUSH1 0x20 ADD SWAP2 PUSH2 0x2A2F JUMP JUMPDEST DUP3 ADD SWAP2 SWAP1 PUSH0 MSTORE PUSH1 0x20 PUSH0 KECCAK256 SWAP1 JUMPDEST DUP2 SLOAD DUP2 MSTORE SWAP1 PUSH1 0x1 ADD SWAP1 PUSH1 0x20 ADD DUP1 DUP4 GT PUSH2 0x2A12 JUMPI DUP3 SWAP1 SUB PUSH1 0x1F AND DUP3 ADD SWAP2 JUMPDEST POP POP POP POP POP DUP2 MSTORE POP POP DUP2 MSTORE PUSH1 0x20 ADD SWAP1 PUSH1 0x1 ADD SWAP1 PUSH2 0x2934 JUMP JUMPDEST POP POP POP POP DUP2 MSTORE POP POP SWAP1 POP SWAP2 SWAP1 POP JUMP JUMPDEST PUSH0 PUSH2 0x2A62 DUP3 PUSH0 ADD PUSH2 0x3E9F JUMP JUMPDEST SWAP1 POP SWAP2 SWAP1 POP JUMP JUMPDEST PUSH2 0x2A73 DUP3 DUP3 PUSH2 0x3EAE JUMP JUMPDEST PUSH2 0x2AB2 JUMPI PUSH1 0x40 MLOAD PUSH32 0x8C379A000000000000000000000000000000000000000000000000000000000 DUP2 MSTORE PUSH1 0x4 ADD PUSH2 0x2AA9 SWAP1 PUSH2 0x6AD7 JUMP JUMPDEST PUSH1 0x40 MLOAD DUP1 SWAP2 SUB SWAP1 REVERT JUMPDEST PUSH2 0x2ABC DUP3 DUP3 PUSH2 0x3F14 JUMP JUMPDEST PUSH0 PUSH2 0x2AC5 PUSH2 0x2344 JUMP JUMPDEST PUSH1 0x2 ADD DUP4 PUSH1 0x40 MLOAD PUSH2 0x2AD6 SWAP2 SWAP1 PUSH2 0x6251 JUMP JUMPDEST SWAP1 DUP2 MSTORE PUSH1 0x20 ADD PUSH1 0x40 MLOAD DUP1 SWAP2 SUB SWAP1 KECCAK256 PUSH0 ADD PUSH1 0x40 MLOAD DUP1 PUSH1 0x60 ADD PUSH1 0x40 MSTORE SWAP1 DUP2 PUSH0 DUP3 ADD DUP1 SLOAD PUSH2 0x2B00 SWAP1 PUSH2 0x61E7 JUMP JUMPDEST DUP1 PUSH1 0x1F ADD PUSH1 0x20 DUP1 SWAP2 DIV MUL PUSH1 0x20 ADD PUSH1 0x40 MLOAD SWAP1 DUP2 ADD PUSH1 0x40 MSTORE DUP1 SWAP3 SWAP2 SWAP1 DUP2 DUP2 MSTORE PUSH1 0x20 ADD DUP3 DUP1 SLOAD PUSH2 0x2B2C SWAP1 PUSH2 0x61E7 JUMP JUMPDEST DUP1 ISZERO PUSH2 0x2B77 JUMPI DUP1 PUSH1 0x1F LT PUSH2 0x2B4E JUMPI PUSH2 0x100 DUP1 DUP4 SLOAD DIV MUL DUP4 MSTORE SWAP2 PUSH1 0x20 ADD SWAP2 PUSH2 0x2B77 JUMP JUMPDEST DUP3 ADD SWAP2 SWAP1 PUSH0 MSTORE PUSH1 0x20 PUSH0 KECCAK256 SWAP1 JUMPDEST DUP2 SLOAD DUP2 MSTORE SWAP1 PUSH1 0x1 ADD SWAP1 PUSH1 0x20 ADD DUP1 DUP4 GT PUSH2 0x2B5A JUMPI DUP3 SWAP1 SUB PUSH1 0x1F AND DUP3 ADD SWAP2 JUMPDEST POP POP POP POP POP DUP2 MSTORE PUSH1 0x20 ADD PUSH1 0x1 DUP3 ADD DUP1 SLOAD PUSH2 0x2B90 SWAP1 PUSH2 0x61E7 JUMP JUMPDEST DUP1 PUSH1 0x1F ADD PUSH1 0x20 DUP1 SWAP2 DIV MUL PUSH1 0x20 ADD PUSH1 0x40 MLOAD SWAP1 DUP2 ADD PUSH1 0x40 MSTORE DUP1 SWAP3 SWAP2 SWAP1 DUP2 DUP2 MSTORE PUSH1 0x20 ADD DUP3 DUP1 SLOAD PUSH2 0x2BBC SWAP1 PUSH2 0x61E7 JUMP JUMPDEST DUP1 ISZERO PUSH2 0x2C07 JUMPI DUP1 PUSH1 0x1F LT PUSH2 0x2BDE JUMPI PUSH2 0x100 DUP1 DUP4 SLOAD DIV MUL DUP4 MSTORE SWAP2 PUSH1 0x20 ADD SWAP2 PUSH2 0x2C07 JUMP JUMPDEST DUP3 ADD SWAP2 SWAP1 PUSH0 MSTORE PUSH1 0x20 PUSH0 KECCAK256 SWAP1 JUMPDEST DUP2 SLOAD DUP2 MSTORE SWAP1 PUSH1 0x1 ADD SWAP1 PUSH1 0x20 ADD DUP1 DUP4 GT PUSH2 0x2BEA JUMPI DUP3 SWAP1 SUB PUSH1 0x1F AND DUP3 ADD SWAP2 JUMPDEST POP POP POP POP POP DUP2 MSTORE PUSH1 0x20 ADD PUSH1 0x2 DUP3 ADD PUSH0 SWAP1 SLOAD SWAP1 PUSH2 0x100 EXP SWAP1 DIV PUSH20 0xFFFFFFFFFFFFFFFFFFFFFFFFFFFFFFFFFFFFFFFF AND PUSH20 0xFFFFFFFFFFFFFFFFFFFFFFFFFFFFFFFFFFFFFFFF AND PUSH20 0xFFFFFFFFFFFFFFFFFFFFFFFFFFFFFFFFFFFFFFFF AND DUP2 MSTORE POP POP SWAP1 POP PUSH2 0x2C74 DUP3 PUSH0 ADD MLOAD DUP3 PUSH2 0x41E6 JUMP JUMPDEST DUP2 PUSH0 ADD MLOAD PUSH28 0xFFFFFFFFFFFFFFFFFFFFFFFFFFFFFFFFFFFFFFFFFFFFFFFFFFFFFFFF NOT AND DUP4 PUSH1 0x40 MLOAD PUSH2 0x2CA5 SWAP2 SWAP1 PUSH2 0x6251 JUMP JUMPDEST PUSH1 0x40 MLOAD DUP1 SWAP2 SUB SWAP1 KECCAK256 PUSH32 0x681115194E519BDA23DE4DA5218F3BC38F5585EAB7C6B7D5FA66CAA4602F574D DUP5 DUP5 PUSH1 0x40 MLOAD PUSH2 0x2CDE SWAP3 SWAP2 SWAP1 PUSH2 0x6B2F JUMP JUMPDEST PUSH1 0x40 MLOAD DUP1 SWAP2 SUB SWAP1 LOG3 POP POP POP JUMP JUMPDEST PUSH0 DUP3 DUP3 PUSH1 0x40 MLOAD PUSH1 0x20 ADD PUSH2 0x2CFF SWAP3 SWAP2 SWAP1 PUSH2 0x6BAC JUMP JUMPDEST PUSH1 0x40 MLOAD PUSH1 0x20 DUP2 DUP4 SUB SUB DUP2 MSTORE SWAP1 PUSH1 0x40 MSTORE DUP1 MLOAD SWAP1 PUSH1 0x20 ADD KECCAK256 SWAP1 POP SWAP3 SWAP2 POP POP JUMP JUMPDEST PUSH0 PUSH2 0x2D29 DUP4 DUP4 ADDRESS PUSH2 0x42B6 JUMP JUMPDEST SWAP1 POP SWAP3 SWAP2 POP POP JUMP JUMPDEST PUSH0 PUSH2 0x2D3A PUSH2 0x4316 JUMP JUMPDEST SWAP1 POP SWAP1 JUMP JUMPDEST PUSH0 PUSH2 0x2D64 DUP4 PUSH0 ADD DUP4 PUSH20 0xFFFFFFFFFFFFFFFFFFFFFFFFFFFFFFFFFFFFFFFF AND PUSH0 SHL PUSH2 0x437C JUMP JUMPDEST SWAP1 POP SWAP3 SWAP2 POP POP JUMP JUMPDEST PUSH0 PUSH2 0x2D79 PUSH0 DUP1 SHL CALLER PUSH2 0x141F JUMP JUMPDEST SWAP1 POP SWAP1 JUMP JUMPDEST PUSH0 PUSH2 0x2D87 PUSH2 0x32B7 JUMP JUMPDEST PUSH0 ADD DUP1 SLOAD PUSH2 0x2D94 SWAP1 PUSH2 0x61E7 JUMP JUMPDEST DUP1 PUSH1 0x1F ADD PUSH1 0x20 DUP1 SWAP2 DIV MUL PUSH1 0x20 ADD PUSH1 0x40 MLOAD SWAP1 DUP2 ADD PUSH1 0x40 MSTORE DUP1 SWAP3 SWAP2 SWAP1 DUP2 DUP2 MSTORE PUSH1 0x20 ADD DUP3 DUP1 SLOAD PUSH2 0x2DC0 SWAP1 PUSH2 0x61E7 JUMP JUMPDEST DUP1 ISZERO PUSH2 0x2E0B JUMPI DUP1 PUSH1 0x1F LT PUSH2 0x2DE2 JUMPI PUSH2 0x100 DUP1 DUP4 SLOAD DIV MUL DUP4 MSTORE SWAP2 PUSH1 0x20 ADD SWAP2 PUSH2 0x2E0B JUMP JUMPDEST DUP3 ADD SWAP2 SWAP1 PUSH0 MSTORE PUSH1 0x20 PUSH0 KECCAK256 SWAP1 JUMPDEST DUP2 SLOAD DUP2 MSTORE SWAP1 PUSH1 0x1 ADD SWAP1 PUSH1 0x20 ADD DUP1 DUP4 GT PUSH2 0x2DEE JUMPI DUP3 SWAP1 SUB PUSH1 0x1F AND DUP3 ADD SWAP2 JUMPDEST POP POP POP POP POP SWAP1 POP DUP2 PUSH2 0x2E1B PUSH2 0x32B7 JUMP JUMPDEST PUSH0 ADD SWAP1 DUP2 PUSH2 0x2E29 SWAP2 SWAP1 PUSH2 0x6BDA JUMP JUMPDEST POP PUSH32 0xC9C7C3FE08B88B4DF9D4D47EF47D2C43D55C025A0BA88CA442580ED9E7348A16 DUP2 DUP4 PUSH1 0x40 MLOAD PUSH2 0x2E5B SWAP3 SWAP2 SWAP1 PUSH2 0x6CA9 JUMP JUMPDEST PUSH1 0x40 MLOAD DUP1 SWAP2 SUB SWAP1 LOG1 POP POP JUMP JUMPDEST PUSH1 0x60 PUSH2 0x2E8C DUP4 DUP4 PUSH1 0x40 MLOAD DUP1 PUSH1 0x60 ADD PUSH1 0x40 MSTORE DUP1 PUSH1 0x27 DUP2 MSTORE PUSH1 0x20 ADD PUSH2 0x73DD PUSH1 0x27 SWAP2 CODECOPY PUSH2 0x4478 JUMP JUMPDEST SWAP1 POP SWAP3 SWAP2 POP POP JUMP JUMPDEST PUSH2 0x2E9D DUP2 PUSH2 0x4553 JUMP JUMPDEST PUSH2 0x2EDC JUMPI PUSH1 0x40 MLOAD PUSH32 0x8C379A000000000000000000000000000000000000000000000000000000000 DUP2 MSTORE PUSH1 0x4 ADD PUSH2 0x2ED3 SWAP1 PUSH2 0x6D4E JUMP JUMPDEST PUSH1 0x40 MLOAD DUP1 SWAP2 SUB SWAP1 REVERT JUMPDEST PUSH2 0x2EEF DUP2 PUSH0 ADD MLOAD PUSH0 ADD MLOAD DUP3 PUSH0 ADD MLOAD PUSH2 0x4633 JUMP JUMPDEST PUSH2 0x2EFE DUP2 PUSH0 ADD MLOAD PUSH0 ADD MLOAD PUSH2 0x46D4 JUMP JUMPDEST PUSH0 DUP2 PUSH1 0x20 ADD MLOAD MLOAD SWAP1 POP PUSH0 JUMPDEST DUP2 DUP2 LT ISZERO PUSH2 0x2F81 JUMPI PUSH2 0x2F3F DUP4 PUSH0 ADD MLOAD PUSH0 ADD MLOAD DUP5 PUSH1 0x20 ADD MLOAD DUP4 DUP2 MLOAD DUP2 LT PUSH2 0x2F32 JUMPI PUSH2 0x2F31 PUSH2 0x6267 JUMP JUMPDEST JUMPDEST PUSH1 0x20 MUL PUSH1 0x20 ADD ADD MLOAD PUSH2 0x3F14 JUMP JUMPDEST PUSH2 0x2F6D DUP4 PUSH1 0x20 ADD MLOAD DUP3 DUP2 MLOAD DUP2 LT PUSH2 0x2F59 JUMPI PUSH2 0x2F58 PUSH2 0x6267 JUMP JUMPDEST JUMPDEST PUSH1 0x20 MUL PUSH1 0x20 ADD ADD MLOAD PUSH0 ADD MLOAD DUP5 PUSH0 ADD MLOAD PUSH2 0x41E6 JUMP JUMPDEST PUSH1 0x1 DUP2 PUSH2 0x2F7A SWAP2 SWAP1 PUSH2 0x62C1 JUMP JUMPDEST SWAP1 POP PUSH2 0x2F09 JUMP JUMPDEST POP DUP2 PUSH0 ADD MLOAD PUSH1 0x40 ADD MLOAD PUSH20 0xFFFFFFFFFFFFFFFFFFFFFFFFFFFFFFFFFFFFFFFF AND DUP3 PUSH0 ADD MLOAD PUSH0 ADD MLOAD PUSH1 0x40 MLOAD PUSH2 0x2FB4 SWAP2 SWAP1 PUSH2 0x6251 JUMP JUMPDEST PUSH1 0x40 MLOAD DUP1 SWAP2 SUB SWAP1 KECCAK256 PUSH32 0x5F1EF2B136DB521971A88818CE904A8E310082338AFDC100212A312706642158 DUP5 PUSH1 0x40 MLOAD PUSH2 0x2FEB SWAP2 SWAP1 PUSH2 0x5ED6 JUMP JUMPDEST PUSH1 0x40 MLOAD DUP1 SWAP2 SUB SWAP1 LOG3 POP POP JUMP JUMPDEST PUSH0 PUSH2 0x301C DUP4 PUSH0 ADD DUP4 PUSH20 0xFFFFFFFFFFFFFFFFFFFFFFFFFFFFFFFFFFFFFFFF AND PUSH0 SHL PUSH2 0x48B6 JUMP JUMPDEST SWAP1 POP SWAP3 SWAP2 POP POP JUMP JUMPDEST PUSH0 PUSH23 0x3D602D80600A3D3981F3363D3D373D3D3D363D73000000 DUP4 PUSH1 0x60 SHL PUSH1 0xE8 SHR OR PUSH0 MSTORE PUSH15 0x5AF43D82803E903D91602B57FD5BF3 DUP4 PUSH1 0x78 SHL OR PUSH1 0x20 MSTORE DUP2 PUSH1 0x37 PUSH1 0x9 PUSH0 CREATE2 SWAP1 POP PUSH0 PUSH20 0xFFFFFFFFFFFFFFFFFFFFFFFFFFFFFFFFFFFFFFFF AND DUP2 PUSH20 0xFFFFFFFFFFFFFFFFFFFFFFFFFFFFFFFFFFFFFFFF AND SUB PUSH2 0x30D6 JUMPI PUSH1 0x40 MLOAD PUSH32 0x8C379A000000000000000000000000000000000000000000000000000000000 DUP2 MSTORE PUSH1 0x4 ADD PUSH2 0x30CD SWAP1 PUSH2 0x6DB6 JUMP JUMPDEST PUSH1 0x40 MLOAD DUP1 SWAP2 SUB SWAP1 REVERT JUMPDEST SWAP3 SWAP2 POP POP JUMP JUMPDEST DUP4 PUSH20 0xFFFFFFFFFFFFFFFFFFFFFFFFFFFFFFFFFFFFFFFF AND PUSH4 0xD1F57894 DUP5 DUP5 DUP5 PUSH1 0x40 MLOAD DUP5 PUSH4 0xFFFFFFFF AND PUSH1 0xE0 SHL DUP2 MSTORE PUSH1 0x4 ADD PUSH2 0x3119 SWAP4 SWAP3 SWAP2 SWAP1 PUSH2 0x6E00 JUMP JUMPDEST PUSH0 PUSH1 0x40 MLOAD DUP1 DUP4 SUB DUP2 PUSH0 DUP8 DUP1 EXTCODESIZE ISZERO DUP1 ISZERO PUSH2 0x3130 JUMPI PUSH0 DUP1 REVERT JUMPDEST POP GAS CALL ISZERO DUP1 ISZERO PUSH2 0x3142 JUMPI RETURNDATASIZE PUSH0 DUP1 RETURNDATACOPY RETURNDATASIZE PUSH0 REVERT JUMPDEST POP POP POP POP POP POP POP POP JUMP JUMPDEST PUSH2 0x3155 DUP2 PUSH2 0x48D6 JUMP JUMPDEST PUSH2 0x3194 JUMPI PUSH1 0x40 MLOAD PUSH32 0x8C379A000000000000000000000000000000000000000000000000000000000 DUP2 MSTORE PUSH1 0x4 ADD PUSH2 0x318B SWAP1 PUSH2 0x6EA0 JUMP JUMPDEST PUSH1 0x40 MLOAD DUP1 SWAP2 SUB SWAP1 REVERT JUMPDEST PUSH2 0x31A7 DUP2 PUSH0 ADD MLOAD PUSH0 ADD MLOAD DUP3 PUSH0 ADD MLOAD PUSH2 0x4633 JUMP JUMPDEST PUSH0 DUP2 PUSH1 0x20 ADD MLOAD MLOAD SWAP1 POP PUSH0 JUMPDEST DUP2 DUP2 LT ISZERO PUSH2 0x322A JUMPI PUSH2 0x31E8 DUP4 PUSH0 ADD MLOAD PUSH0 ADD MLOAD DUP5 PUSH1 0x20 ADD MLOAD DUP4 DUP2 MLOAD DUP2 LT PUSH2 0x31DB JUMPI PUSH2 0x31DA PUSH2 0x6267 JUMP JUMPDEST JUMPDEST PUSH1 0x20 MUL PUSH1 0x20 ADD ADD MLOAD PUSH2 0x3F14 JUMP JUMPDEST PUSH2 0x3216 DUP4 PUSH1 0x20 ADD MLOAD DUP3 DUP2 MLOAD DUP2 LT PUSH2 0x3202 JUMPI PUSH2 0x3201 PUSH2 0x6267 JUMP JUMPDEST JUMPDEST PUSH1 0x20 MUL PUSH1 0x20 ADD ADD MLOAD PUSH0 ADD MLOAD DUP5 PUSH0 ADD MLOAD PUSH2 0x41E6 JUMP JUMPDEST PUSH1 0x1 DUP2 PUSH2 0x3223 SWAP2 SWAP1 PUSH2 0x62C1 JUMP JUMPDEST SWAP1 POP PUSH2 0x31B2 JUMP JUMPDEST POP DUP2 PUSH0 ADD MLOAD PUSH1 0x40 ADD MLOAD PUSH20 0xFFFFFFFFFFFFFFFFFFFFFFFFFFFFFFFFFFFFFFFF AND DUP3 PUSH0 ADD MLOAD PUSH0 ADD MLOAD PUSH1 0x40 MLOAD PUSH2 0x325D SWAP2 SWAP1 PUSH2 0x6251 JUMP JUMPDEST PUSH1 0x40 MLOAD DUP1 SWAP2 SUB SWAP1 KECCAK256 PUSH32 0xBB37A605DE78BA6BC667AEAF438D0AAE8247E6F48A8FAD23730E4FBBB480ABF3 DUP5 PUSH1 0x40 MLOAD PUSH2 0x3294 SWAP2 SWAP1 PUSH2 0x5ED6 JUMP JUMPDEST PUSH1 0x40 MLOAD DUP1 SWAP2 SUB SWAP1 LOG3 POP POP JUMP JUMPDEST PUSH0 PUSH2 0x32AD DUP4 PUSH0 ADD DUP4 PUSH2 0x49FF JUMP JUMPDEST PUSH0 SHR SWAP1 POP SWAP3 SWAP2 POP POP JUMP JUMPDEST PUSH0 PUSH2 0x32C0 PUSH2 0x4A26 JUMP JUMPDEST SWAP1 POP SWAP1 JUMP JUMPDEST PUSH2 0x32CE DUP2 PUSH2 0x4A54 JUMP JUMPDEST PUSH2 0x330D JUMPI PUSH1 0x40 MLOAD PUSH32 0x8C379A000000000000000000000000000000000000000000000000000000000 DUP2 MSTORE PUSH1 0x4 ADD PUSH2 0x3304 SWAP1 PUSH2 0x6F2E JUMP JUMPDEST PUSH1 0x40 MLOAD DUP1 SWAP2 SUB SWAP1 REVERT JUMPDEST PUSH0 PUSH2 0x3316 PUSH2 0x2344 JUMP JUMPDEST PUSH1 0x2 ADD DUP3 PUSH1 0x40 MLOAD PUSH2 0x3327 SWAP2 SWAP1 PUSH2 0x6251 JUMP JUMPDEST SWAP1 DUP2 MSTORE PUSH1 0x20 ADD PUSH1 0x40 MLOAD DUP1 SWAP2 SUB SWAP1 KECCAK256 PUSH1 0x40 MLOAD DUP1 PUSH1 0x40 ADD PUSH1 0x40 MSTORE SWAP1 DUP2 PUSH0 DUP3 ADD PUSH1 0x40 MLOAD DUP1 PUSH1 0x60 ADD PUSH1 0x40 MSTORE SWAP1 DUP2 PUSH0 DUP3 ADD DUP1 SLOAD PUSH2 0x335E SWAP1 PUSH2 0x61E7 JUMP JUMPDEST DUP1 PUSH1 0x1F ADD PUSH1 0x20 DUP1 SWAP2 DIV MUL PUSH1 0x20 ADD PUSH1 0x40 MLOAD SWAP1 DUP2 ADD PUSH1 0x40 MSTORE DUP1 SWAP3 SWAP2 SWAP1 DUP2 DUP2 MSTORE PUSH1 0x20 ADD DUP3 DUP1 SLOAD PUSH2 0x338A SWAP1 PUSH2 0x61E7 JUMP JUMPDEST DUP1 ISZERO PUSH2 0x33D5 JUMPI DUP1 PUSH1 0x1F LT PUSH2 0x33AC JUMPI PUSH2 0x100 DUP1 DUP4 SLOAD DIV MUL DUP4 MSTORE SWAP2 PUSH1 0x20 ADD SWAP2 PUSH2 0x33D5 JUMP JUMPDEST DUP3 ADD SWAP2 SWAP1 PUSH0 MSTORE PUSH1 0x20 PUSH0 KECCAK256 SWAP1 JUMPDEST DUP2 SLOAD DUP2 MSTORE SWAP1 PUSH1 0x1 ADD SWAP1 PUSH1 0x20 ADD DUP1 DUP4 GT PUSH2 0x33B8 JUMPI DUP3 SWAP1 SUB PUSH1 0x1F AND DUP3 ADD SWAP2 JUMPDEST POP POP POP POP POP DUP2 MSTORE PUSH1 0x20 ADD PUSH1 0x1 DUP3 ADD DUP1 SLOAD PUSH2 0x33EE SWAP1 PUSH2 0x61E7 JUMP JUMPDEST DUP1 PUSH1 0x1F ADD PUSH1 0x20 DUP1 SWAP2 DIV MUL PUSH1 0x20 ADD PUSH1 0x40 MLOAD SWAP1 DUP2 ADD PUSH1 0x40 MSTORE DUP1 SWAP3 SWAP2 SWAP1 DUP2 DUP2 MSTORE PUSH1 0x20 ADD DUP3 DUP1 SLOAD PUSH2 0x341A SWAP1 PUSH2 0x61E7 JUMP JUMPDEST DUP1 ISZERO PUSH2 0x3465 JUMPI DUP1 PUSH1 0x1F LT PUSH2 0x343C JUMPI PUSH2 0x100 DUP1 DUP4 SLOAD DIV MUL DUP4 MSTORE SWAP2 PUSH1 0x20 ADD SWAP2 PUSH2 0x3465 JUMP JUMPDEST DUP3 ADD SWAP2 SWAP1 PUSH0 MSTORE PUSH1 0x20 PUSH0 KECCAK256 SWAP1 JUMPDEST DUP2 SLOAD DUP2 MSTORE SWAP1 PUSH1 0x1 ADD SWAP1 PUSH1 0x20 ADD DUP1 DUP4 GT PUSH2 0x3448 JUMPI DUP3 SWAP1 SUB PUSH1 0x1F AND DUP3 ADD SWAP2 JUMPDEST POP POP POP POP POP DUP2 MSTORE PUSH1 0x20 ADD PUSH1 0x2 DUP3 ADD PUSH0 SWAP1 SLOAD SWAP1 PUSH2 0x100 EXP SWAP1 DIV PUSH20 0xFFFFFFFFFFFFFFFFFFFFFFFFFFFFFFFFFFFFFFFF AND PUSH20 0xFFFFFFFFFFFFFFFFFFFFFFFFFFFFFFFFFFFFFFFF AND PUSH20 0xFFFFFFFFFFFFFFFFFFFFFFFFFFFFFFFFFFFFFFFF AND DUP2 MSTORE POP POP DUP2 MSTORE PUSH1 0x20 ADD PUSH1 0x3 DUP3 ADD DUP1 SLOAD DUP1 PUSH1 0x20 MUL PUSH1 0x20 ADD PUSH1 0x40 MLOAD SWAP1 DUP2 ADD PUSH1 0x40 MSTORE DUP1 SWAP3 SWAP2 SWAP1 DUP2 DUP2 MSTORE PUSH1 0x20 ADD PUSH0 SWAP1 JUMPDEST DUP3 DUP3 LT ISZERO PUSH2 0x35FE JUMPI DUP4 DUP3 SWAP1 PUSH0 MSTORE PUSH1 0x20 PUSH0 KECCAK256 SWAP1 PUSH1 0x2 MUL ADD PUSH1 0x40 MLOAD DUP1 PUSH1 0x40 ADD PUSH1 0x40 MSTORE SWAP1 DUP2 PUSH0 DUP3 ADD PUSH0 SWAP1 SLOAD SWAP1 PUSH2 0x100 EXP SWAP1 DIV PUSH1 0xE0 SHL PUSH28 0xFFFFFFFFFFFFFFFFFFFFFFFFFFFFFFFFFFFFFFFFFFFFFFFFFFFFFFFF NOT AND PUSH28 0xFFFFFFFFFFFFFFFFFFFFFFFFFFFFFFFFFFFFFFFFFFFFFFFFFFFFFFFF NOT AND DUP2 MSTORE PUSH1 0x20 ADD PUSH1 0x1 DUP3 ADD DUP1 SLOAD PUSH2 0x356F SWAP1 PUSH2 0x61E7 JUMP JUMPDEST DUP1 PUSH1 0x1F ADD PUSH1 0x20 DUP1 SWAP2 DIV MUL PUSH1 0x20 ADD PUSH1 0x40 MLOAD SWAP1 DUP2 ADD PUSH1 0x40 MSTORE DUP1 SWAP3 SWAP2 SWAP1 DUP2 DUP2 MSTORE PUSH1 0x20 ADD DUP3 DUP1 SLOAD PUSH2 0x359B SWAP1 PUSH2 0x61E7 JUMP JUMPDEST DUP1 ISZERO PUSH2 0x35E6 JUMPI DUP1 PUSH1 0x1F LT PUSH2 0x35BD JUMPI PUSH2 0x100 DUP1 DUP4 SLOAD DIV MUL DUP4 MSTORE SWAP2 PUSH1 0x20 ADD SWAP2 PUSH2 0x35E6 JUMP JUMPDEST DUP3 ADD SWAP2 SWAP1 PUSH0 MSTORE PUSH1 0x20 PUSH0 KECCAK256 SWAP1 JUMPDEST DUP2 SLOAD DUP2 MSTORE SWAP1 PUSH1 0x1 ADD SWAP1 PUSH1 0x20 ADD DUP1 DUP4 GT PUSH2 0x35C9 JUMPI DUP3 SWAP1 SUB PUSH1 0x1F AND DUP3 ADD SWAP2 JUMPDEST POP POP POP POP POP DUP2 MSTORE POP POP DUP2 MSTORE PUSH1 0x20 ADD SWAP1 PUSH1 0x1 ADD SWAP1 PUSH2 0x34EB JUMP JUMPDEST POP POP POP POP DUP2 MSTORE POP POP SWAP1 POP PUSH2 0x3611 DUP3 PUSH2 0x4AB9 JUMP JUMPDEST PUSH2 0x361A DUP3 PUSH2 0x46D4 JUMP JUMPDEST DUP2 PUSH1 0x40 MLOAD PUSH2 0x3628 SWAP2 SWAP1 PUSH2 0x6251 JUMP JUMPDEST PUSH1 0x40 MLOAD DUP1 SWAP2 SUB SWAP1 KECCAK256 PUSH32 0x3169A23CEC9AD1A25AB59BBE00ECF8973DD840C745775EA8877041EF5CE65BCC DUP3 PUSH1 0x40 MLOAD PUSH2 0x365F SWAP2 SWAP1 PUSH2 0x5ED6 JUMP JUMPDEST PUSH1 0x40 MLOAD DUP1 SWAP2 SUB SWAP1 LOG2 POP POP JUMP JUMPDEST PUSH1 0x60 DUP2 PUSH0 ADD DUP1 SLOAD DUP1 PUSH1 0x20 MUL PUSH1 0x20 ADD PUSH1 0x40 MLOAD SWAP1 DUP2 ADD PUSH1 0x40 MSTORE DUP1 SWAP3 SWAP2 SWAP1 DUP2 DUP2 MSTORE PUSH1 0x20 ADD DUP3 DUP1 SLOAD DUP1 ISZERO PUSH2 0x36B8 JUMPI PUSH1 0x20 MUL DUP3 ADD SWAP2 SWAP1 PUSH0 MSTORE PUSH1 0x20 PUSH0 KECCAK256 SWAP1 JUMPDEST DUP2 SLOAD DUP2 MSTORE PUSH1 0x20 ADD SWAP1 PUSH1 0x1 ADD SWAP1 DUP1 DUP4 GT PUSH2 0x36A4 JUMPI JUMPDEST POP POP POP POP POP SWAP1 POP SWAP2 SWAP1 POP JUMP JUMPDEST PUSH0 PUSH2 0x36CF DUP4 DUP4 PUSH2 0x48B6 JUMP JUMPDEST PUSH2 0x3721 JUMPI DUP3 PUSH0 ADD DUP3 SWAP1 DUP1 PUSH1 0x1 DUP2 SLOAD ADD DUP1 DUP3 SSTORE DUP1 SWAP2 POP POP PUSH1 0x1 SWAP1 SUB SWAP1 PUSH0 MSTORE PUSH1 0x20 PUSH0 KECCAK256 ADD PUSH0 SWAP1 SWAP2 SWAP1 SWAP2 SWAP1 SWAP2 POP SSTORE DUP3 PUSH0 ADD DUP1 SLOAD SWAP1 POP DUP4 PUSH1 0x1 ADD PUSH0 DUP5 DUP2 MSTORE PUSH1 0x20 ADD SWAP1 DUP2 MSTORE PUSH1 0x20 ADD PUSH0 KECCAK256 DUP2 SWAP1 SSTORE POP PUSH1 0x1 SWAP1 POP PUSH2 0x3725 JUMP JUMPDEST PUSH0 SWAP1 POP JUMPDEST SWAP3 SWAP2 POP POP JUMP JUMPDEST PUSH0 DUP1 PUSH32 0xA7B0F5C59907924802379EBE98CDC23E2EE7820F63D30126E10B3752010E500 PUSH0 SHL SWAP1 POP DUP1 SWAP2 POP POP SWAP1 JUMP JUMPDEST PUSH1 0x60 PUSH0 PUSH1 0x2 DUP4 PUSH1 0x2 PUSH2 0x376B SWAP2 SWAP1 PUSH2 0x6F4C JUMP JUMPDEST PUSH2 0x3775 SWAP2 SWAP1 PUSH2 0x62C1 JUMP JUMPDEST PUSH8 0xFFFFFFFFFFFFFFFF DUP2 GT ISZERO PUSH2 0x378E JUMPI PUSH2 0x378D PUSH2 0x5271 JUMP JUMPDEST JUMPDEST PUSH1 0x40 MLOAD SWAP1 DUP1 DUP3 MSTORE DUP1 PUSH1 0x1F ADD PUSH1 0x1F NOT AND PUSH1 0x20 ADD DUP3 ADD PUSH1 0x40 MSTORE DUP1 ISZERO PUSH2 0x37C0 JUMPI DUP2 PUSH1 0x20 ADD PUSH1 0x1 DUP3 MUL DUP1 CALLDATASIZE DUP4 CALLDATACOPY DUP1 DUP3 ADD SWAP2 POP POP SWAP1 POP JUMPDEST POP SWAP1 POP PUSH32 0x3000000000000000000000000000000000000000000000000000000000000000 DUP2 PUSH0 DUP2 MLOAD DUP2 LT PUSH2 0x37F7 JUMPI PUSH2 0x37F6 PUSH2 0x6267 JUMP JUMPDEST JUMPDEST PUSH1 0x20 ADD ADD SWAP1 PUSH31 0xFFFFFFFFFFFFFFFFFFFFFFFFFFFFFFFFFFFFFFFFFFFFFFFFFFFFFFFFFFFFFF NOT AND SWAP1 DUP2 PUSH0 BYTE SWAP1 MSTORE8 POP PUSH32 0x7800000000000000000000000000000000000000000000000000000000000000 DUP2 PUSH1 0x1 DUP2 MLOAD DUP2 LT PUSH2 0x385A JUMPI PUSH2 0x3859 PUSH2 0x6267 JUMP JUMPDEST JUMPDEST PUSH1 0x20 ADD ADD SWAP1 PUSH31 0xFFFFFFFFFFFFFFFFFFFFFFFFFFFFFFFFFFFFFFFFFFFFFFFFFFFFFFFFFFFFFF NOT AND SWAP1 DUP2 PUSH0 BYTE SWAP1 MSTORE8 POP PUSH0 PUSH1 0x1 DUP5 PUSH1 0x2 PUSH2 0x3898 SWAP2 SWAP1 PUSH2 0x6F4C JUMP JUMPDEST PUSH2 0x38A2 SWAP2 SWAP1 PUSH2 0x62C1 JUMP JUMPDEST SWAP1 POP JUMPDEST PUSH1 0x1 DUP2 GT ISZERO PUSH2 0x3941 JUMPI PUSH32 0x3031323334353637383961626364656600000000000000000000000000000000 PUSH1 0xF DUP7 AND PUSH1 0x10 DUP2 LT PUSH2 0x38E4 JUMPI PUSH2 0x38E3 PUSH2 0x6267 JUMP JUMPDEST JUMPDEST BYTE PUSH1 0xF8 SHL DUP3 DUP3 DUP2 MLOAD DUP2 LT PUSH2 0x38FB JUMPI PUSH2 0x38FA PUSH2 0x6267 JUMP JUMPDEST JUMPDEST PUSH1 0x20 ADD ADD SWAP1 PUSH31 0xFFFFFFFFFFFFFFFFFFFFFFFFFFFFFFFFFFFFFFFFFFFFFFFFFFFFFFFFFFFFFF NOT AND SWAP1 DUP2 PUSH0 BYTE SWAP1 MSTORE8 POP PUSH1 0x4 DUP6 SWAP1 SHR SWAP5 POP DUP1 PUSH2 0x393A SWAP1 PUSH2 0x6F8D JUMP JUMPDEST SWAP1 POP PUSH2 0x38A5 JUMP JUMPDEST POP PUSH0 DUP5 EQ PUSH2 0x3984 JUMPI PUSH1 0x40 MLOAD PUSH32 0x8C379A000000000000000000000000000000000000000000000000000000000 DUP2 MSTORE PUSH1 0x4 ADD PUSH2 0x397B SWAP1 PUSH2 0x6FFE JUMP JUMPDEST PUSH1 0x40 MLOAD DUP1 SWAP2 SUB SWAP1 REVERT JUMPDEST DUP1 SWAP2 POP POP SWAP3 SWAP2 POP POP JUMP JUMPDEST PUSH1 0x1 PUSH2 0x3998 PUSH2 0x208F JUMP JUMPDEST PUSH0 ADD PUSH0 DUP5 DUP2 MSTORE PUSH1 0x20 ADD SWAP1 DUP2 MSTORE PUSH1 0x20 ADD PUSH0 KECCAK256 PUSH0 DUP4 PUSH20 0xFFFFFFFFFFFFFFFFFFFFFFFFFFFFFFFFFFFFFFFF AND PUSH20 0xFFFFFFFFFFFFFFFFFFFFFFFFFFFFFFFFFFFFFFFF AND DUP2 MSTORE PUSH1 0x20 ADD SWAP1 DUP2 MSTORE PUSH1 0x20 ADD PUSH0 KECCAK256 PUSH0 PUSH2 0x100 EXP DUP2 SLOAD DUP2 PUSH1 0xFF MUL NOT AND SWAP1 DUP4 ISZERO ISZERO MUL OR SWAP1 SSTORE POP PUSH2 0x3A02 PUSH2 0x209D JUMP JUMPDEST PUSH20 0xFFFFFFFFFFFFFFFFFFFFFFFFFFFFFFFFFFFFFFFF AND DUP2 PUSH20 0xFFFFFFFFFFFFFFFFFFFFFFFFFFFFFFFFFFFFFFFF AND DUP4 PUSH32 0x2F8788117E7EFF1D82E926EC794901D17C78024A50270940304540A733656F0D PUSH1 0x40 MLOAD PUSH1 0x40 MLOAD DUP1 SWAP2 SUB SWAP1 LOG4 POP POP JUMP JUMPDEST PUSH0 PUSH2 0x3A69 PUSH2 0x2D31 JUMP JUMPDEST PUSH0 ADD PUSH0 DUP5 DUP2 MSTORE PUSH1 0x20 ADD SWAP1 DUP2 MSTORE PUSH1 0x20 ADD PUSH0 KECCAK256 PUSH0 ADD SLOAD SWAP1 POP PUSH1 0x1 PUSH2 0x3A89 PUSH2 0x2D31 JUMP JUMPDEST PUSH0 ADD PUSH0 DUP6 DUP2 MSTORE PUSH1 0x20 ADD SWAP1 DUP2 MSTORE PUSH1 0x20 ADD PUSH0 KECCAK256 PUSH0 ADD PUSH0 DUP3 DUP3 SLOAD PUSH2 0x3AAA SWAP2 SWAP1 PUSH2 0x62C1 JUMP JUMPDEST SWAP3 POP POP DUP2 SWAP1 SSTORE POP DUP2 PUSH2 0x3ABA PUSH2 0x2D31 JUMP JUMPDEST PUSH0 ADD PUSH0 DUP6 DUP2 MSTORE PUSH1 0x20 ADD SWAP1 DUP2 MSTORE PUSH1 0x20 ADD PUSH0 KECCAK256 PUSH1 0x1 ADD PUSH0 DUP4 DUP2 MSTORE PUSH1 0x20 ADD SWAP1 DUP2 MSTORE PUSH1 0x20 ADD PUSH0 KECCAK256 PUSH0 PUSH2 0x100 EXP DUP2 SLOAD DUP2 PUSH20 0xFFFFFFFFFFFFFFFFFFFFFFFFFFFFFFFFFFFFFFFF MUL NOT AND SWAP1 DUP4 PUSH20 0xFFFFFFFFFFFFFFFFFFFFFFFFFFFFFFFFFFFFFFFF AND MUL OR SWAP1 SSTORE POP DUP1 PUSH2 0x3B23 PUSH2 0x2D31 JUMP JUMPDEST PUSH0 ADD PUSH0 DUP6 DUP2 MSTORE PUSH1 0x20 ADD SWAP1 DUP2 MSTORE PUSH1 0x20 ADD PUSH0 KECCAK256 PUSH1 0x2 ADD PUSH0 DUP5 PUSH20 0xFFFFFFFFFFFFFFFFFFFFFFFFFFFFFFFFFFFFFFFF AND PUSH20 0xFFFFFFFFFFFFFFFFFFFFFFFFFFFFFFFFFFFFFFFF AND DUP2 MSTORE PUSH1 0x20 ADD SWAP1 DUP2 MSTORE PUSH1 0x20 ADD PUSH0 KECCAK256 DUP2 SWAP1 SSTORE POP POP POP POP JUMP JUMPDEST PUSH2 0x3B85 DUP3 DUP3 PUSH2 0x20A4 JUMP JUMPDEST PUSH2 0x3B8D PUSH2 0x208F JUMP JUMPDEST PUSH0 ADD PUSH0 DUP4 DUP2 MSTORE PUSH1 0x20 ADD SWAP1 DUP2 MSTORE PUSH1 0x20 ADD PUSH0 KECCAK256 PUSH0 DUP3 PUSH20 0xFFFFFFFFFFFFFFFFFFFFFFFFFFFFFFFFFFFFFFFF AND PUSH20 0xFFFFFFFFFFFFFFFFFFFFFFFFFFFFFFFFFFFFFFFF AND DUP2 MSTORE PUSH1 0x20 ADD SWAP1 DUP2 MSTORE PUSH1 0x20 ADD PUSH0 KECCAK256 PUSH0 PUSH2 0x100 EXP DUP2 SLOAD SWAP1 PUSH1 0xFF MUL NOT AND SWAP1 SSTORE PUSH2 0x3BF0 PUSH2 0x209D JUMP JUMPDEST PUSH20 0xFFFFFFFFFFFFFFFFFFFFFFFFFFFFFFFFFFFFFFFF AND DUP2 PUSH20 0xFFFFFFFFFFFFFFFFFFFFFFFFFFFFFFFFFFFFFFFF AND DUP4 PUSH32 0xF6391F5C32D9C69D2A47EA670B442974B53935D1EDC7FD64EB21E047A839171B PUSH1 0x40 MLOAD PUSH1 0x40 MLOAD DUP1 SWAP2 SUB SWAP1 LOG4 POP POP JUMP JUMPDEST PUSH0 PUSH2 0x3C57 PUSH2 0x2D31 JUMP JUMPDEST PUSH0 ADD PUSH0 DUP5 DUP2 MSTORE PUSH1 0x20 ADD SWAP1 DUP2 MSTORE PUSH1 0x20 ADD PUSH0 KECCAK256 PUSH1 0x2 ADD PUSH0 DUP4 PUSH20 0xFFFFFFFFFFFFFFFFFFFFFFFFFFFFFFFFFFFFFFFF AND PUSH20 0xFFFFFFFFFFFFFFFFFFFFFFFFFFFFFFFFFFFFFFFF AND DUP2 MSTORE PUSH1 0x20 ADD SWAP1 DUP2 MSTORE PUSH1 0x20 ADD PUSH0 KECCAK256 SLOAD SWAP1 POP PUSH2 0x3CB1 PUSH2 0x2D31 JUMP JUMPDEST PUSH0 ADD PUSH0 DUP5 DUP2 MSTORE PUSH1 0x20 ADD SWAP1 DUP2 MSTORE PUSH1 0x20 ADD PUSH0 KECCAK256 PUSH1 0x1 ADD PUSH0 DUP3 DUP2 MSTORE PUSH1 0x20 ADD SWAP1 DUP2 MSTORE PUSH1 0x20 ADD PUSH0 KECCAK256 PUSH0 PUSH2 0x100 EXP DUP2 SLOAD SWAP1 PUSH20 0xFFFFFFFFFFFFFFFFFFFFFFFFFFFFFFFFFFFFFFFF MUL NOT AND SWAP1 SSTORE PUSH2 0x3CFE PUSH2 0x2D31 JUMP JUMPDEST PUSH0 ADD PUSH0 DUP5 DUP2 MSTORE PUSH1 0x20 ADD SWAP1 DUP2 MSTORE PUSH1 0x20 ADD PUSH0 KECCAK256 PUSH1 0x2 ADD PUSH0 DUP4 PUSH20 0xFFFFFFFFFFFFFFFFFFFFFFFFFFFFFFFFFFFFFFFF AND PUSH20 0xFFFFFFFFFFFFFFFFFFFFFFFFFFFFFFFFFFFFFFFF AND DUP2 MSTORE PUSH1 0x20 ADD SWAP1 DUP2 MSTORE PUSH1 0x20 ADD PUSH0 KECCAK256 PUSH0 SWAP1 SSTORE POP POP POP JUMP JUMPDEST PUSH0 PUSH2 0x3D60 DUP4 DUP4 PUSH2 0x4B2B JUMP JUMPDEST SWAP1 POP SWAP3 SWAP2 POP POP JUMP JUMPDEST PUSH0 DUP1 PUSH1 0x1 PUSH32 0x775B9FAB5634A62BB2A682C067408EDBED43EFD726183D2E2AF744334D47ACB7 PUSH0 SHR PUSH2 0x3D99 SWAP2 SWAP1 PUSH2 0x64E6 JUMP JUMPDEST PUSH1 0x40 MLOAD PUSH1 0x20 ADD PUSH2 0x3DA9 SWAP2 SWAP1 PUSH2 0x574A JUMP JUMPDEST PUSH1 0x40 MLOAD PUSH1 0x20 DUP2 DUP4 SUB SUB DUP2 MSTORE SWAP1 PUSH1 0x40 MSTORE DUP1 MLOAD SWAP1 PUSH1 0x20 ADD KECCAK256 SWAP1 POP DUP1 SWAP2 POP POP SWAP1 JUMP JUMPDEST PUSH1 0x60 DUP2 PUSH0 ADD DUP1 SLOAD DUP1 PUSH1 0x20 MUL PUSH1 0x20 ADD PUSH1 0x40 MLOAD SWAP1 DUP2 ADD PUSH1 0x40 MSTORE DUP1 SWAP3 SWAP2 SWAP1 DUP2 DUP2 MSTORE PUSH1 0x20 ADD PUSH0 SWAP1 JUMPDEST DUP3 DUP3 LT ISZERO PUSH2 0x3E94 JUMPI DUP4 DUP3 SWAP1 PUSH0 MSTORE PUSH1 0x20 PUSH0 KECCAK256 ADD DUP1 SLOAD PUSH2 0x3E09 SWAP1 PUSH2 0x61E7 JUMP JUMPDEST DUP1 PUSH1 0x1F ADD PUSH1 0x20 DUP1 SWAP2 DIV MUL PUSH1 0x20 ADD PUSH1 0x40 MLOAD SWAP1 DUP2 ADD PUSH1 0x40 MSTORE DUP1 SWAP3 SWAP2 SWAP1 DUP2 DUP2 MSTORE PUSH1 0x20 ADD DUP3 DUP1 SLOAD PUSH2 0x3E35 SWAP1 PUSH2 0x61E7 JUMP JUMPDEST DUP1 ISZERO PUSH2 0x3E80 JUMPI DUP1 PUSH1 0x1F LT PUSH2 0x3E57 JUMPI PUSH2 0x100 DUP1 DUP4 SLOAD DIV MUL DUP4 MSTORE SWAP2 PUSH1 0x20 ADD SWAP2 PUSH2 0x3E80 JUMP JUMPDEST DUP3 ADD SWAP2 SWAP1 PUSH0 MSTORE PUSH1 0x20 PUSH0 KECCAK256 SWAP1 JUMPDEST DUP2 SLOAD DUP2 MSTORE SWAP1 PUSH1 0x1 ADD SWAP1 PUSH1 0x20 ADD DUP1 DUP4 GT PUSH2 0x3E63 JUMPI DUP3 SWAP1 SUB PUSH1 0x1F AND DUP3 ADD SWAP2 JUMPDEST POP POP POP POP POP DUP2 MSTORE PUSH1 0x20 ADD SWAP1 PUSH1 0x1 ADD SWAP1 PUSH2 0x3DEC JUMP JUMPDEST POP POP POP POP SWAP1 POP SWAP2 SWAP1 POP JUMP JUMPDEST PUSH0 DUP2 PUSH0 ADD DUP1 SLOAD SWAP1 POP SWAP1 POP SWAP2 SWAP1 POP JUMP JUMPDEST PUSH0 PUSH2 0x3ECB DUP4 PUSH2 0x3EBB PUSH2 0x2344 JUMP JUMPDEST PUSH0 ADD PUSH2 0x3D55 SWAP1 SWAP2 SWAP1 PUSH4 0xFFFFFFFF AND JUMP JUMPDEST PUSH2 0x3F0A JUMPI PUSH1 0x40 MLOAD PUSH32 0x8C379A000000000000000000000000000000000000000000000000000000000 DUP2 MSTORE PUSH1 0x4 ADD PUSH2 0x3F01 SWAP1 PUSH2 0x6656 JUMP JUMPDEST PUSH1 0x40 MLOAD DUP1 SWAP2 SUB SWAP1 REVERT JUMPDEST PUSH1 0x1 SWAP1 POP SWAP3 SWAP2 POP POP JUMP JUMPDEST PUSH0 DUP1 PUSH1 0xE0 SHL PUSH28 0xFFFFFFFFFFFFFFFFFFFFFFFFFFFFFFFFFFFFFFFFFFFFFFFFFFFFFFFF NOT AND DUP3 PUSH0 ADD MLOAD PUSH28 0xFFFFFFFFFFFFFFFFFFFFFFFFFFFFFFFFFFFFFFFFFFFFFFFFFFFFFFFF NOT AND SUB PUSH2 0x3FB9 JUMPI PUSH1 0x40 MLOAD PUSH1 0x20 ADD PUSH2 0x3F6F SWAP1 PUSH2 0x7066 JUMP JUMPDEST PUSH1 0x40 MLOAD PUSH1 0x20 DUP2 DUP4 SUB SUB DUP2 MSTORE SWAP1 PUSH1 0x40 MSTORE DUP1 MLOAD SWAP1 PUSH1 0x20 ADD KECCAK256 DUP3 PUSH1 0x20 ADD MLOAD PUSH1 0x40 MLOAD PUSH1 0x20 ADD PUSH2 0x3F9A SWAP2 SWAP1 PUSH2 0x5F6C JUMP JUMPDEST PUSH1 0x40 MLOAD PUSH1 0x20 DUP2 DUP4 SUB SUB DUP2 MSTORE SWAP1 PUSH1 0x40 MSTORE DUP1 MLOAD SWAP1 PUSH1 0x20 ADD KECCAK256 EQ ISZERO SWAP1 POP PUSH2 0x402B JUMP JUMPDEST DUP2 PUSH1 0x20 ADD MLOAD PUSH1 0x40 MLOAD PUSH1 0x20 ADD PUSH2 0x3FCE SWAP2 SWAP1 PUSH2 0x6251 JUMP JUMPDEST PUSH1 0x40 MLOAD PUSH1 0x20 DUP2 DUP4 SUB SUB DUP2 MSTORE SWAP1 PUSH1 0x40 MSTORE DUP1 MLOAD SWAP1 PUSH1 0x20 ADD KECCAK256 PUSH28 0xFFFFFFFFFFFFFFFFFFFFFFFFFFFFFFFFFFFFFFFFFFFFFFFFFFFFFFFF NOT AND DUP3 PUSH0 ADD MLOAD PUSH28 0xFFFFFFFFFFFFFFFFFFFFFFFFFFFFFFFFFFFFFFFFFFFFFFFFFFFFFFFF NOT AND EQ ISZERO SWAP1 POP JUMPDEST DUP1 ISZERO PUSH2 0x406C JUMPI PUSH1 0x40 MLOAD PUSH32 0x8C379A000000000000000000000000000000000000000000000000000000000 DUP2 MSTORE PUSH1 0x4 ADD PUSH2 0x4063 SWAP1 PUSH2 0x70F4 JUMP JUMPDEST PUSH1 0x40 MLOAD DUP1 SWAP2 SUB SWAP1 REVERT JUMPDEST PUSH0 PUSH20 0xFFFFFFFFFFFFFFFFFFFFFFFFFFFFFFFFFFFFFFFF AND PUSH2 0x408B PUSH2 0x2344 JUMP JUMPDEST PUSH1 0x3 ADD PUSH0 DUP5 PUSH0 ADD MLOAD PUSH28 0xFFFFFFFFFFFFFFFFFFFFFFFFFFFFFFFFFFFFFFFFFFFFFFFFFFFFFFFF NOT AND PUSH28 0xFFFFFFFFFFFFFFFFFFFFFFFFFFFFFFFFFFFFFFFFFFFFFFFFFFFFFFFF NOT AND DUP2 MSTORE PUSH1 0x20 ADD SWAP1 DUP2 MSTORE PUSH1 0x20 ADD PUSH0 KECCAK256 PUSH1 0x2 ADD PUSH0 SWAP1 SLOAD SWAP1 PUSH2 0x100 EXP SWAP1 DIV PUSH20 0xFFFFFFFFFFFFFFFFFFFFFFFFFFFFFFFFFFFFFFFF AND PUSH20 0xFFFFFFFFFFFFFFFFFFFFFFFFFFFFFFFFFFFFFFFF AND EQ PUSH2 0x4157 JUMPI PUSH1 0x40 MLOAD PUSH32 0x8C379A000000000000000000000000000000000000000000000000000000000 DUP2 MSTORE PUSH1 0x4 ADD PUSH2 0x414E SWAP1 PUSH2 0x7182 JUMP JUMPDEST PUSH1 0x40 MLOAD DUP1 SWAP2 SUB SWAP1 REVERT JUMPDEST PUSH2 0x415F PUSH2 0x2344 JUMP JUMPDEST PUSH1 0x2 ADD DUP4 PUSH1 0x40 MLOAD PUSH2 0x4170 SWAP2 SWAP1 PUSH2 0x6251 JUMP JUMPDEST SWAP1 DUP2 MSTORE PUSH1 0x20 ADD PUSH1 0x40 MLOAD DUP1 SWAP2 SUB SWAP1 KECCAK256 PUSH1 0x3 ADD DUP3 SWAP1 DUP1 PUSH1 0x1 DUP2 SLOAD ADD DUP1 DUP3 SSTORE DUP1 SWAP2 POP POP PUSH1 0x1 SWAP1 SUB SWAP1 PUSH0 MSTORE PUSH1 0x20 PUSH0 KECCAK256 SWAP1 PUSH1 0x2 MUL ADD PUSH0 SWAP1 SWAP2 SWAP1 SWAP2 SWAP1 SWAP2 POP PUSH0 DUP3 ADD MLOAD DUP2 PUSH0 ADD PUSH0 PUSH2 0x100 EXP DUP2 SLOAD DUP2 PUSH4 0xFFFFFFFF MUL NOT AND SWAP1 DUP4 PUSH1 0xE0 SHR MUL OR SWAP1 SSTORE POP PUSH1 0x20 DUP3 ADD MLOAD DUP2 PUSH1 0x1 ADD SWAP1 DUP2 PUSH2 0x41DE SWAP2 SWAP1 PUSH2 0x6BDA JUMP JUMPDEST POP POP POP POP POP POP JUMP JUMPDEST DUP1 PUSH2 0x41EF PUSH2 0x2344 JUMP JUMPDEST PUSH1 0x3 ADD PUSH0 DUP5 PUSH28 0xFFFFFFFFFFFFFFFFFFFFFFFFFFFFFFFFFFFFFFFFFFFFFFFFFFFFFFFF NOT AND PUSH28 0xFFFFFFFFFFFFFFFFFFFFFFFFFFFFFFFFFFFFFFFFFFFFFFFFFFFFFFFF NOT AND DUP2 MSTORE PUSH1 0x20 ADD SWAP1 DUP2 MSTORE PUSH1 0x20 ADD PUSH0 KECCAK256 PUSH0 DUP3 ADD MLOAD DUP2 PUSH0 ADD SWAP1 DUP2 PUSH2 0x4252 SWAP2 SWAP1 PUSH2 0x6BDA JUMP JUMPDEST POP PUSH1 0x20 DUP3 ADD MLOAD DUP2 PUSH1 0x1 ADD SWAP1 DUP2 PUSH2 0x4268 SWAP2 SWAP1 PUSH2 0x6BDA JUMP JUMPDEST POP PUSH1 0x40 DUP3 ADD MLOAD DUP2 PUSH1 0x2 ADD PUSH0 PUSH2 0x100 EXP DUP2 SLOAD DUP2 PUSH20 0xFFFFFFFFFFFFFFFFFFFFFFFFFFFFFFFFFFFFFFFF MUL NOT AND SWAP1 DUP4 PUSH20 0xFFFFFFFFFFFFFFFFFFFFFFFFFFFFFFFFFFFFFFFF AND MUL OR SWAP1 SSTORE POP SWAP1 POP POP POP POP JUMP JUMPDEST PUSH0 PUSH1 0x40 MLOAD DUP3 PUSH1 0x38 DUP3 ADD MSTORE PUSH16 0x5AF43D82803E903D91602B57FD5BF3FF PUSH1 0x24 DUP3 ADD MSTORE DUP5 PUSH1 0x14 DUP3 ADD MSTORE PUSH20 0x3D602D80600A3D3981F3363D3D373D3D3D363D73 DUP2 MSTORE DUP4 PUSH1 0x58 DUP3 ADD MSTORE PUSH1 0x37 PUSH1 0xC DUP3 ADD KECCAK256 PUSH1 0x78 DUP3 ADD MSTORE PUSH1 0x55 PUSH1 0x43 DUP3 ADD KECCAK256 SWAP2 POP POP SWAP4 SWAP3 POP POP POP JUMP JUMPDEST PUSH0 DUP1 PUSH1 0xFF PUSH0 SHL NOT PUSH1 0x1 PUSH32 0xC4BA382C0009CF238E4C1CA1A52F51C61E6248A70BDFB34E5ED49D5578A5C0C PUSH0 SHR PUSH2 0x434C SWAP2 SWAP1 PUSH2 0x64E6 JUMP JUMPDEST PUSH1 0x40 MLOAD PUSH1 0x20 ADD PUSH2 0x435C SWAP2 SWAP1 PUSH2 0x574A JUMP JUMPDEST PUSH1 0x40 MLOAD PUSH1 0x20 DUP2 DUP4 SUB SUB DUP2 MSTORE SWAP1 PUSH1 0x40 MSTORE DUP1 MLOAD SWAP1 PUSH1 0x20 ADD KECCAK256 AND SWAP1 POP DUP1 SWAP2 POP POP SWAP1 JUMP JUMPDEST PUSH0 DUP1 DUP4 PUSH1 0x1 ADD PUSH0 DUP5 DUP2 MSTORE PUSH1 0x20 ADD SWAP1 DUP2 MSTORE PUSH1 0x20 ADD PUSH0 KECCAK256 SLOAD SWAP1 POP PUSH0 DUP2 EQ PUSH2 0x446D JUMPI PUSH0 PUSH1 0x1 DUP3 PUSH2 0x43A9 SWAP2 SWAP1 PUSH2 0x64E6 JUMP JUMPDEST SWAP1 POP PUSH0 PUSH1 0x1 DUP7 PUSH0 ADD DUP1 SLOAD SWAP1 POP PUSH2 0x43BF SWAP2 SWAP1 PUSH2 0x64E6 JUMP JUMPDEST SWAP1 POP DUP2 DUP2 EQ PUSH2 0x4425 JUMPI PUSH0 DUP7 PUSH0 ADD DUP3 DUP2 SLOAD DUP2 LT PUSH2 0x43DE JUMPI PUSH2 0x43DD PUSH2 0x6267 JUMP JUMPDEST JUMPDEST SWAP1 PUSH0 MSTORE PUSH1 0x20 PUSH0 KECCAK256 ADD SLOAD SWAP1 POP DUP1 DUP8 PUSH0 ADD DUP5 DUP2 SLOAD DUP2 LT PUSH2 0x43FF JUMPI PUSH2 0x43FE PUSH2 0x6267 JUMP JUMPDEST JUMPDEST SWAP1 PUSH0 MSTORE PUSH1 0x20 PUSH0 KECCAK256 ADD DUP2 SWAP1 SSTORE POP DUP4 DUP8 PUSH1 0x1 ADD PUSH0 DUP4 DUP2 MSTORE PUSH1 0x20 ADD SWAP1 DUP2 MSTORE PUSH1 0x20 ADD PUSH0 KECCAK256 DUP2 SWAP1 SSTORE POP POP JUMPDEST DUP6 PUSH0 ADD DUP1 SLOAD DUP1 PUSH2 0x4438 JUMPI PUSH2 0x4437 PUSH2 0x6A3A JUMP JUMPDEST JUMPDEST PUSH1 0x1 SWAP1 SUB DUP2 DUP2 SWAP1 PUSH0 MSTORE PUSH1 0x20 PUSH0 KECCAK256 ADD PUSH0 SWAP1 SSTORE SWAP1 SSTORE DUP6 PUSH1 0x1 ADD PUSH0 DUP7 DUP2 MSTORE PUSH1 0x20 ADD SWAP1 DUP2 MSTORE PUSH1 0x20 ADD PUSH0 KECCAK256 PUSH0 SWAP1 SSTORE PUSH1 0x1 SWAP4 POP POP POP POP PUSH2 0x4472 JUMP JUMPDEST PUSH0 SWAP2 POP POP JUMPDEST SWAP3 SWAP2 POP POP JUMP JUMPDEST PUSH1 0x60 PUSH2 0x4483 DUP5 PUSH2 0x4B58 JUMP JUMPDEST DUP1 ISZERO PUSH2 0x4495 JUMPI POP PUSH2 0x4493 CALLER PUSH2 0x4B58 JUMP JUMPDEST ISZERO JUMPDEST PUSH2 0x44D4 JUMPI PUSH1 0x40 MLOAD PUSH32 0x8C379A000000000000000000000000000000000000000000000000000000000 DUP2 MSTORE PUSH1 0x4 ADD PUSH2 0x44CB SWAP1 PUSH2 0x71EA JUMP JUMPDEST PUSH1 0x40 MLOAD DUP1 SWAP2 SUB SWAP1 REVERT JUMPDEST PUSH0 DUP1 DUP6 PUSH20 0xFFFFFFFFFFFFFFFFFFFFFFFFFFFFFFFFFFFFFFFF AND DUP6 PUSH1 0x40 MLOAD PUSH2 0x44FB SWAP2 SWAP1 PUSH2 0x7242 JUMP JUMPDEST PUSH0 PUSH1 0x40 MLOAD DUP1 DUP4 SUB DUP2 DUP6 GAS DELEGATECALL SWAP2 POP POP RETURNDATASIZE DUP1 PUSH0 DUP2 EQ PUSH2 0x4533 JUMPI PUSH1 0x40 MLOAD SWAP2 POP PUSH1 0x1F NOT PUSH1 0x3F RETURNDATASIZE ADD AND DUP3 ADD PUSH1 0x40 MSTORE RETURNDATASIZE DUP3 MSTORE RETURNDATASIZE PUSH0 PUSH1 0x20 DUP5 ADD RETURNDATACOPY PUSH2 0x4538 JUMP JUMPDEST PUSH1 0x60 SWAP2 POP JUMPDEST POP SWAP2 POP SWAP2 POP PUSH2 0x4548 DUP3 DUP3 DUP7 PUSH2 0x4B7A JUMP JUMPDEST SWAP3 POP POP POP SWAP4 SWAP3 POP POP POP JUMP JUMPDEST PUSH0 PUSH2 0x4576 DUP3 PUSH0 ADD MLOAD PUSH0 ADD MLOAD PUSH2 0x4566 PUSH2 0x2344 JUMP JUMPDEST PUSH0 ADD PUSH2 0x3D55 SWAP1 SWAP2 SWAP1 PUSH4 0xFFFFFFFF AND JUMP JUMPDEST PUSH2 0x45B5 JUMPI PUSH1 0x40 MLOAD PUSH32 0x8C379A000000000000000000000000000000000000000000000000000000000 DUP2 MSTORE PUSH1 0x4 ADD PUSH2 0x45AC SWAP1 PUSH2 0x6656 JUMP JUMPDEST PUSH1 0x40 MLOAD DUP1 SWAP2 SUB SWAP1 REVERT JUMPDEST PUSH0 PUSH20 0xFFFFFFFFFFFFFFFFFFFFFFFFFFFFFFFFFFFFFFFF AND DUP3 PUSH0 ADD MLOAD PUSH1 0x40 ADD MLOAD PUSH20 0xFFFFFFFFFFFFFFFFFFFFFFFFFFFFFFFFFFFFFFFF AND SUB PUSH2 0x462A JUMPI PUSH1 0x40 MLOAD PUSH32 0x8C379A000000000000000000000000000000000000000000000000000000000 DUP2 MSTORE PUSH1 0x4 ADD PUSH2 0x4621 SWAP1 PUSH2 0x72C8 JUMP JUMPDEST PUSH1 0x40 MLOAD DUP1 SWAP2 SUB SWAP1 REVERT JUMPDEST PUSH1 0x1 SWAP1 POP SWAP2 SWAP1 POP JUMP JUMPDEST DUP1 PUSH2 0x463C PUSH2 0x2344 JUMP JUMPDEST PUSH1 0x2 ADD DUP4 PUSH1 0x40 MLOAD PUSH2 0x464D SWAP2 SWAP1 PUSH2 0x6251 JUMP JUMPDEST SWAP1 DUP2 MSTORE PUSH1 0x20 ADD PUSH1 0x40 MLOAD DUP1 SWAP2 SUB SWAP1 KECCAK256 PUSH0 ADD PUSH0 DUP3 ADD MLOAD DUP2 PUSH0 ADD SWAP1 DUP2 PUSH2 0x4670 SWAP2 SWAP1 PUSH2 0x6BDA JUMP JUMPDEST POP PUSH1 0x20 DUP3 ADD MLOAD DUP2 PUSH1 0x1 ADD SWAP1 DUP2 PUSH2 0x4686 SWAP2 SWAP1 PUSH2 0x6BDA JUMP JUMPDEST POP PUSH1 0x40 DUP3 ADD MLOAD DUP2 PUSH1 0x2 ADD PUSH0 PUSH2 0x100 EXP DUP2 SLOAD DUP2 PUSH20 0xFFFFFFFFFFFFFFFFFFFFFFFFFFFFFFFFFFFFFFFF MUL NOT AND SWAP1 DUP4 PUSH20 0xFFFFFFFFFFFFFFFFFFFFFFFFFFFFFFFFFFFFFFFF AND MUL OR SWAP1 SSTORE POP SWAP1 POP POP POP POP JUMP JUMPDEST PUSH0 PUSH2 0x46DD PUSH2 0x2344 JUMP JUMPDEST PUSH1 0x2 ADD DUP3 PUSH1 0x40 MLOAD PUSH2 0x46EE SWAP2 SWAP1 PUSH2 0x6251 JUMP JUMPDEST SWAP1 DUP2 MSTORE PUSH1 0x20 ADD PUSH1 0x40 MLOAD DUP1 SWAP2 SUB SWAP1 KECCAK256 PUSH1 0x3 ADD DUP1 SLOAD DUP1 PUSH1 0x20 MUL PUSH1 0x20 ADD PUSH1 0x40 MLOAD SWAP1 DUP2 ADD PUSH1 0x40 MSTORE DUP1 SWAP3 SWAP2 SWAP1 DUP2 DUP2 MSTORE PUSH1 0x20 ADD PUSH0 SWAP1 JUMPDEST DUP3 DUP3 LT ISZERO PUSH2 0x4831 JUMPI DUP4 DUP3 SWAP1 PUSH0 MSTORE PUSH1 0x20 PUSH0 KECCAK256 SWAP1 PUSH1 0x2 MUL ADD PUSH1 0x40 MLOAD DUP1 PUSH1 0x40 ADD PUSH1 0x40 MSTORE SWAP1 DUP2 PUSH0 DUP3 ADD PUSH0 SWAP1 SLOAD SWAP1 PUSH2 0x100 EXP SWAP1 DIV PUSH1 0xE0 SHL PUSH28 0xFFFFFFFFFFFFFFFFFFFFFFFFFFFFFFFFFFFFFFFFFFFFFFFFFFFFFFFF NOT AND PUSH28 0xFFFFFFFFFFFFFFFFFFFFFFFFFFFFFFFFFFFFFFFFFFFFFFFFFFFFFFFF NOT AND DUP2 MSTORE PUSH1 0x20 ADD PUSH1 0x1 DUP3 ADD DUP1 SLOAD PUSH2 0x47A2 SWAP1 PUSH2 0x61E7 JUMP JUMPDEST DUP1 PUSH1 0x1F ADD PUSH1 0x20 DUP1 SWAP2 DIV MUL PUSH1 0x20 ADD PUSH1 0x40 MLOAD SWAP1 DUP2 ADD PUSH1 0x40 MSTORE DUP1 SWAP3 SWAP2 SWAP1 DUP2 DUP2 MSTORE PUSH1 0x20 ADD DUP3 DUP1 SLOAD PUSH2 0x47CE SWAP1 PUSH2 0x61E7 JUMP JUMPDEST DUP1 ISZERO PUSH2 0x4819 JUMPI DUP1 PUSH1 0x1F LT PUSH2 0x47F0 JUMPI PUSH2 0x100 DUP1 DUP4 SLOAD DIV MUL DUP4 MSTORE SWAP2 PUSH1 0x20 ADD SWAP2 PUSH2 0x4819 JUMP JUMPDEST DUP3 ADD SWAP2 SWAP1 PUSH0 MSTORE PUSH1 0x20 PUSH0 KECCAK256 SWAP1 JUMPDEST DUP2 SLOAD DUP2 MSTORE SWAP1 PUSH1 0x1 ADD SWAP1 PUSH1 0x20 ADD DUP1 DUP4 GT PUSH2 0x47FC JUMPI DUP3 SWAP1 SUB PUSH1 0x1F AND DUP3 ADD SWAP2 JUMPDEST POP POP POP POP POP DUP2 MSTORE POP POP DUP2 MSTORE PUSH1 0x20 ADD SWAP1 PUSH1 0x1 ADD SWAP1 PUSH2 0x471E JUMP JUMPDEST POP POP POP POP SWAP1 POP PUSH2 0x483F PUSH2 0x2344 JUMP JUMPDEST PUSH1 0x2 ADD DUP3 PUSH1 0x40 MLOAD PUSH2 0x4850 SWAP2 SWAP1 PUSH2 0x6251 JUMP JUMPDEST SWAP1 DUP2 MSTORE PUSH1 0x20 ADD PUSH1 0x40 MLOAD DUP1 SWAP2 SUB SWAP1 KECCAK256 PUSH1 0x3 ADD PUSH0 PUSH2 0x486C SWAP2 SWAP1 PUSH2 0x4ED3 JUMP JUMPDEST PUSH0 JUMPDEST DUP2 MLOAD DUP2 LT ISZERO PUSH2 0x48B1 JUMPI PUSH2 0x489D DUP3 DUP3 DUP2 MLOAD DUP2 LT PUSH2 0x488D JUMPI PUSH2 0x488C PUSH2 0x6267 JUMP JUMPDEST JUMPDEST PUSH1 0x20 MUL PUSH1 0x20 ADD ADD MLOAD PUSH0 ADD MLOAD PUSH2 0x269C JUMP JUMPDEST PUSH1 0x1 DUP2 PUSH2 0x48AA SWAP2 SWAP1 PUSH2 0x62C1 JUMP JUMPDEST SWAP1 POP PUSH2 0x486E JUMP JUMPDEST POP POP POP JUMP JUMPDEST PUSH0 DUP1 DUP4 PUSH1 0x1 ADD PUSH0 DUP5 DUP2 MSTORE PUSH1 0x20 ADD SWAP1 DUP2 MSTORE PUSH1 0x20 ADD PUSH0 KECCAK256 SLOAD EQ ISZERO SWAP1 POP SWAP3 SWAP2 POP POP JUMP JUMPDEST PUSH0 DUP1 DUP3 PUSH0 ADD MLOAD PUSH0 ADD MLOAD MLOAD GT PUSH2 0x4920 JUMPI PUSH1 0x40 MLOAD PUSH32 0x8C379A000000000000000000000000000000000000000000000000000000000 DUP2 MSTORE PUSH1 0x4 ADD PUSH2 0x4917 SWAP1 PUSH2 0x7330 JUMP JUMPDEST PUSH1 0x40 MLOAD DUP1 SWAP2 SUB SWAP1 REVERT JUMPDEST PUSH2 0x4942 DUP3 PUSH0 ADD MLOAD PUSH0 ADD MLOAD PUSH2 0x4932 PUSH2 0x2344 JUMP JUMPDEST PUSH0 ADD PUSH2 0x4BE0 SWAP1 SWAP2 SWAP1 PUSH4 0xFFFFFFFF AND JUMP JUMPDEST PUSH2 0x4981 JUMPI PUSH1 0x40 MLOAD PUSH32 0x8C379A000000000000000000000000000000000000000000000000000000000 DUP2 MSTORE PUSH1 0x4 ADD PUSH2 0x4978 SWAP1 PUSH2 0x73BE JUMP JUMPDEST PUSH1 0x40 MLOAD DUP1 SWAP2 SUB SWAP1 REVERT JUMPDEST PUSH0 PUSH20 0xFFFFFFFFFFFFFFFFFFFFFFFFFFFFFFFFFFFFFFFF AND DUP3 PUSH0 ADD MLOAD PUSH1 0x40 ADD MLOAD PUSH20 0xFFFFFFFFFFFFFFFFFFFFFFFFFFFFFFFFFFFFFFFF AND SUB PUSH2 0x49F6 JUMPI PUSH1 0x40 MLOAD PUSH32 0x8C379A000000000000000000000000000000000000000000000000000000000 DUP2 MSTORE PUSH1 0x4 ADD PUSH2 0x49ED SWAP1 PUSH2 0x72C8 JUMP JUMPDEST PUSH1 0x40 MLOAD DUP1 SWAP2 SUB SWAP1 REVERT JUMPDEST PUSH1 0x1 SWAP1 POP SWAP2 SWAP1 POP JUMP JUMPDEST PUSH0 DUP3 PUSH0 ADD DUP3 DUP2 SLOAD DUP2 LT PUSH2 0x4A15 JUMPI PUSH2 0x4A14 PUSH2 0x6267 JUMP JUMPDEST JUMPDEST SWAP1 PUSH0 MSTORE PUSH1 0x20 PUSH0 KECCAK256 ADD SLOAD SWAP1 POP SWAP3 SWAP2 POP POP JUMP JUMPDEST PUSH0 DUP1 PUSH32 0x4BC804BA64359C0E35E5ED5D90EE596ECAA49A3A930DDCB1470EA0DD625DA900 PUSH0 SHL SWAP1 POP DUP1 SWAP2 POP POP SWAP1 JUMP JUMPDEST PUSH0 PUSH2 0x4A71 DUP3 PUSH2 0x4A61 PUSH2 0x2344 JUMP JUMPDEST PUSH0 ADD PUSH2 0x4BF3 SWAP1 SWAP2 SWAP1 PUSH4 0xFFFFFFFF AND JUMP JUMPDEST PUSH2 0x4AB0 JUMPI PUSH1 0x40 MLOAD PUSH32 0x8C379A000000000000000000000000000000000000000000000000000000000 DUP2 MSTORE PUSH1 0x4 ADD PUSH2 0x4AA7 SWAP1 PUSH2 0x6656 JUMP JUMPDEST PUSH1 0x40 MLOAD DUP1 SWAP2 SUB SWAP1 REVERT JUMPDEST PUSH1 0x1 SWAP1 POP SWAP2 SWAP1 POP JUMP JUMPDEST PUSH2 0x4AC1 PUSH2 0x2344 JUMP JUMPDEST PUSH1 0x2 ADD DUP2 PUSH1 0x40 MLOAD PUSH2 0x4AD2 SWAP2 SWAP1 PUSH2 0x6251 JUMP JUMPDEST SWAP1 DUP2 MSTORE PUSH1 0x20 ADD PUSH1 0x40 MLOAD DUP1 SWAP2 SUB SWAP1 KECCAK256 PUSH0 ADD PUSH0 DUP1 DUP3 ADD PUSH0 PUSH2 0x4AF1 SWAP2 SWAP1 PUSH2 0x4E96 JUMP JUMPDEST PUSH1 0x1 DUP3 ADD PUSH0 PUSH2 0x4B00 SWAP2 SWAP1 PUSH2 0x4E96 JUMP JUMPDEST PUSH1 0x2 DUP3 ADD PUSH0 PUSH2 0x100 EXP DUP2 SLOAD SWAP1 PUSH20 0xFFFFFFFFFFFFFFFFFFFFFFFFFFFFFFFFFFFFFFFF MUL NOT AND SWAP1 SSTORE POP POP POP JUMP JUMPDEST PUSH0 DUP1 DUP4 PUSH1 0x1 ADD DUP4 PUSH1 0x40 MLOAD PUSH2 0x4B3F SWAP2 SWAP1 PUSH2 0x6251 JUMP JUMPDEST SWAP1 DUP2 MSTORE PUSH1 0x20 ADD PUSH1 0x40 MLOAD DUP1 SWAP2 SUB SWAP1 KECCAK256 SLOAD EQ ISZERO SWAP1 POP SWAP3 SWAP2 POP POP JUMP JUMPDEST PUSH0 DUP1 DUP3 PUSH20 0xFFFFFFFFFFFFFFFFFFFFFFFFFFFFFFFFFFFFFFFF AND EXTCODESIZE GT SWAP1 POP SWAP2 SWAP1 POP JUMP JUMPDEST PUSH1 0x60 DUP4 ISZERO PUSH2 0x4B8A JUMPI DUP3 SWAP1 POP PUSH2 0x4BD9 JUMP JUMPDEST PUSH0 DUP4 MLOAD GT ISZERO PUSH2 0x4B9C JUMPI DUP3 MLOAD DUP1 DUP5 PUSH1 0x20 ADD REVERT JUMPDEST DUP2 PUSH1 0x40 MLOAD PUSH32 0x8C379A000000000000000000000000000000000000000000000000000000000 DUP2 MSTORE PUSH1 0x4 ADD PUSH2 0x4BD0 SWAP2 SWAP1 PUSH2 0x5F6C JUMP JUMPDEST PUSH1 0x40 MLOAD DUP1 SWAP2 SUB SWAP1 REVERT JUMPDEST SWAP4 SWAP3 POP POP POP JUMP JUMPDEST PUSH0 PUSH2 0x4BEB DUP4 DUP4 PUSH2 0x4C06 JUMP JUMPDEST SWAP1 POP SWAP3 SWAP2 POP POP JUMP JUMPDEST PUSH0 PUSH2 0x4BFE DUP4 DUP4 PUSH2 0x4C86 JUMP JUMPDEST SWAP1 POP SWAP3 SWAP2 POP POP JUMP JUMPDEST PUSH0 PUSH2 0x4C11 DUP4 DUP4 PUSH2 0x4B2B JUMP JUMPDEST PUSH2 0x4C7C JUMPI DUP3 PUSH0 ADD DUP3 SWAP1 DUP1 PUSH1 0x1 DUP2 SLOAD ADD DUP1 DUP3 SSTORE DUP1 SWAP2 POP POP PUSH1 0x1 SWAP1 SUB SWAP1 PUSH0 MSTORE PUSH1 0x20 PUSH0 KECCAK256 ADD PUSH0 SWAP1 SWAP2 SWAP1 SWAP2 SWAP1 SWAP2 POP SWAP1 DUP2 PUSH2 0x4C47 SWAP2 SWAP1 PUSH2 0x6BDA JUMP JUMPDEST POP DUP3 PUSH0 ADD DUP1 SLOAD SWAP1 POP DUP4 PUSH1 0x1 ADD DUP4 PUSH1 0x40 MLOAD PUSH2 0x4C61 SWAP2 SWAP1 PUSH2 0x6251 JUMP JUMPDEST SWAP1 DUP2 MSTORE PUSH1 0x20 ADD PUSH1 0x40 MLOAD DUP1 SWAP2 SUB SWAP1 KECCAK256 DUP2 SWAP1 SSTORE POP PUSH1 0x1 SWAP1 POP PUSH2 0x4C80 JUMP JUMPDEST PUSH0 SWAP1 POP JUMPDEST SWAP3 SWAP2 POP POP JUMP JUMPDEST PUSH0 DUP1 DUP4 PUSH1 0x1 ADD DUP4 PUSH1 0x40 MLOAD PUSH2 0x4C9A SWAP2 SWAP1 PUSH2 0x6251 JUMP JUMPDEST SWAP1 DUP2 MSTORE PUSH1 0x20 ADD PUSH1 0x40 MLOAD DUP1 SWAP2 SUB SWAP1 KECCAK256 SLOAD SWAP1 POP PUSH0 DUP2 EQ PUSH2 0x4E35 JUMPI PUSH0 PUSH1 0x1 DUP3 PUSH2 0x4CC0 SWAP2 SWAP1 PUSH2 0x64E6 JUMP JUMPDEST SWAP1 POP PUSH0 PUSH1 0x1 DUP7 PUSH0 ADD DUP1 SLOAD SWAP1 POP PUSH2 0x4CD6 SWAP2 SWAP1 PUSH2 0x64E6 JUMP JUMPDEST SWAP1 POP DUP2 DUP2 EQ PUSH2 0x4DD8 JUMPI PUSH0 DUP7 PUSH0 ADD DUP3 DUP2 SLOAD DUP2 LT PUSH2 0x4CF5 JUMPI PUSH2 0x4CF4 PUSH2 0x6267 JUMP JUMPDEST JUMPDEST SWAP1 PUSH0 MSTORE PUSH1 0x20 PUSH0 KECCAK256 ADD DUP1 SLOAD PUSH2 0x4D08 SWAP1 PUSH2 0x61E7 JUMP JUMPDEST DUP1 PUSH1 0x1F ADD PUSH1 0x20 DUP1 SWAP2 DIV MUL PUSH1 0x20 ADD PUSH1 0x40 MLOAD SWAP1 DUP2 ADD PUSH1 0x40 MSTORE DUP1 SWAP3 SWAP2 SWAP1 DUP2 DUP2 MSTORE PUSH1 0x20 ADD DUP3 DUP1 SLOAD PUSH2 0x4D34 SWAP1 PUSH2 0x61E7 JUMP JUMPDEST DUP1 ISZERO PUSH2 0x4D7F JUMPI DUP1 PUSH1 0x1F LT PUSH2 0x4D56 JUMPI PUSH2 0x100 DUP1 DUP4 SLOAD DIV MUL DUP4 MSTORE SWAP2 PUSH1 0x20 ADD SWAP2 PUSH2 0x4D7F JUMP JUMPDEST DUP3 ADD SWAP2 SWAP1 PUSH0 MSTORE PUSH1 0x20 PUSH0 KECCAK256 SWAP1 JUMPDEST DUP2 SLOAD DUP2 MSTORE SWAP1 PUSH1 0x1 ADD SWAP1 PUSH1 0x20 ADD DUP1 DUP4 GT PUSH2 0x4D62 JUMPI DUP3 SWAP1 SUB PUSH1 0x1F AND DUP3 ADD SWAP2 JUMPDEST POP POP POP POP POP SWAP1 POP DUP1 DUP8 PUSH0 ADD DUP5 DUP2 SLOAD DUP2 LT PUSH2 0x4D9C JUMPI PUSH2 0x4D9B PUSH2 0x6267 JUMP JUMPDEST JUMPDEST SWAP1 PUSH0 MSTORE PUSH1 0x20 PUSH0 KECCAK256 ADD SWAP1 DUP2 PUSH2 0x4DB0 SWAP2 SWAP1 PUSH2 0x6BDA JUMP JUMPDEST POP DUP4 DUP8 PUSH1 0x1 ADD DUP3 PUSH1 0x40 MLOAD PUSH2 0x4DC4 SWAP2 SWAP1 PUSH2 0x6251 JUMP JUMPDEST SWAP1 DUP2 MSTORE PUSH1 0x20 ADD PUSH1 0x40 MLOAD DUP1 SWAP2 SUB SWAP1 KECCAK256 DUP2 SWAP1 SSTORE POP POP JUMPDEST DUP6 PUSH0 ADD DUP1 SLOAD DUP1 PUSH2 0x4DEB JUMPI PUSH2 0x4DEA PUSH2 0x6A3A JUMP JUMPDEST JUMPDEST PUSH1 0x1 SWAP1 SUB DUP2 DUP2 SWAP1 PUSH0 MSTORE PUSH1 0x20 PUSH0 KECCAK256 ADD PUSH0 PUSH2 0x4E04 SWAP2 SWAP1 PUSH2 0x4E96 JUMP JUMPDEST SWAP1 SSTORE DUP6 PUSH1 0x1 ADD DUP6 PUSH1 0x40 MLOAD PUSH2 0x4E18 SWAP2 SWAP1 PUSH2 0x6251 JUMP JUMPDEST SWAP1 DUP2 MSTORE PUSH1 0x20 ADD PUSH1 0x40 MLOAD DUP1 SWAP2 SUB SWAP1 KECCAK256 PUSH0 SWAP1 SSTORE PUSH1 0x1 SWAP4 POP POP POP POP PUSH2 0x4E3A JUMP JUMPDEST PUSH0 SWAP2 POP POP JUMPDEST SWAP3 SWAP2 POP POP JUMP JUMPDEST PUSH1 0x40 MLOAD DUP1 PUSH1 0x40 ADD PUSH1 0x40 MSTORE DUP1 PUSH2 0x4E53 PUSH2 0x4E60 JUMP JUMPDEST DUP2 MSTORE PUSH1 0x20 ADD PUSH1 0x60 DUP2 MSTORE POP SWAP1 JUMP JUMPDEST PUSH1 0x40 MLOAD DUP1 PUSH1 0x60 ADD PUSH1 0x40 MSTORE DUP1 PUSH1 0x60 DUP2 MSTORE PUSH1 0x20 ADD PUSH1 0x60 DUP2 MSTORE PUSH1 0x20 ADD PUSH0 PUSH20 0xFFFFFFFFFFFFFFFFFFFFFFFFFFFFFFFFFFFFFFFF AND DUP2 MSTORE POP SWAP1 JUMP JUMPDEST POP DUP1 SLOAD PUSH2 0x4EA2 SWAP1 PUSH2 0x61E7 JUMP JUMPDEST PUSH0 DUP3 SSTORE DUP1 PUSH1 0x1F LT PUSH2 0x4EB3 JUMPI POP PUSH2 0x4ED0 JUMP JUMPDEST PUSH1 0x1F ADD PUSH1 0x20 SWAP1 DIV SWAP1 PUSH0 MSTORE PUSH1 0x20 PUSH0 KECCAK256 SWAP1 DUP2 ADD SWAP1 PUSH2 0x4ECF SWAP2 SWAP1 PUSH2 0x4EF4 JUMP JUMPDEST JUMPDEST POP JUMP JUMPDEST POP DUP1 SLOAD PUSH0 DUP3 SSTORE PUSH1 0x2 MUL SWAP1 PUSH0 MSTORE PUSH1 0x20 PUSH0 KECCAK256 SWAP1 DUP2 ADD SWAP1 PUSH2 0x4EF1 SWAP2 SWAP1 PUSH2 0x4F0F JUMP JUMPDEST POP JUMP JUMPDEST JUMPDEST DUP1 DUP3 GT ISZERO PUSH2 0x4F0B JUMPI PUSH0 DUP2 PUSH0 SWAP1 SSTORE POP PUSH1 0x1 ADD PUSH2 0x4EF5 JUMP JUMPDEST POP SWAP1 JUMP JUMPDEST JUMPDEST DUP1 DUP3 GT ISZERO PUSH2 0x4F46 JUMPI PUSH0 DUP1 DUP3 ADD PUSH0 PUSH2 0x100 EXP DUP2 SLOAD SWAP1 PUSH4 0xFFFFFFFF MUL NOT AND SWAP1 SSTORE PUSH1 0x1 DUP3 ADD PUSH0 PUSH2 0x4F3D SWAP2 SWAP1 PUSH2 0x4E96 JUMP JUMPDEST POP PUSH1 0x2 ADD PUSH2 0x4F10 JUMP JUMPDEST POP SWAP1 JUMP JUMPDEST PUSH0 DUP3 DUP3 MSTORE PUSH1 0x20 DUP3 ADD SWAP1 POP SWAP3 SWAP2 POP POP JUMP JUMPDEST PUSH32 0x526F757465723A2066756E6374696F6E20646F6573206E6F742065786973742E PUSH0 DUP3 ADD MSTORE POP JUMP JUMPDEST PUSH0 PUSH2 0x4F8E PUSH1 0x20 DUP4 PUSH2 0x4F4A JUMP JUMPDEST SWAP2 POP PUSH2 0x4F99 DUP3 PUSH2 0x4F5A JUMP JUMPDEST PUSH1 0x20 DUP3 ADD SWAP1 POP SWAP2 SWAP1 POP JUMP JUMPDEST PUSH0 PUSH1 0x20 DUP3 ADD SWAP1 POP DUP2 DUP2 SUB PUSH0 DUP4 ADD MSTORE PUSH2 0x4FBB DUP2 PUSH2 0x4F82 JUMP JUMPDEST SWAP1 POP SWAP2 SWAP1 POP JUMP JUMPDEST PUSH0 DUP2 MLOAD SWAP1 POP SWAP2 SWAP1 POP JUMP JUMPDEST PUSH0 DUP3 DUP3 MSTORE PUSH1 0x20 DUP3 ADD SWAP1 POP SWAP3 SWAP2 POP POP JUMP JUMPDEST PUSH0 DUP2 SWAP1 POP PUSH1 0x20 DUP3 ADD SWAP1 POP SWAP2 SWAP1 POP JUMP JUMPDEST PUSH0 PUSH20 0xFFFFFFFFFFFFFFFFFFFFFFFFFFFFFFFFFFFFFFFF DUP3 AND SWAP1 POP SWAP2 SWAP1 POP JUMP JUMPDEST PUSH0 PUSH2 0x5014 DUP3 PUSH2 0x4FEB JUMP JUMPDEST SWAP1 POP SWAP2 SWAP1 POP JUMP JUMPDEST PUSH2 0x5024 DUP2 PUSH2 0x500A JUMP JUMPDEST DUP3 MSTORE POP POP JUMP JUMPDEST PUSH0 PUSH2 0x5035 DUP4 DUP4 PUSH2 0x501B JUMP JUMPDEST PUSH1 0x20 DUP4 ADD SWAP1 POP SWAP3 SWAP2 POP POP JUMP JUMPDEST PUSH0 PUSH1 0x20 DUP3 ADD SWAP1 POP SWAP2 SWAP1 POP JUMP JUMPDEST PUSH0 PUSH2 0x5057 DUP3 PUSH2 0x4FC2 JUMP JUMPDEST PUSH2 0x5061 DUP2 DUP6 PUSH2 0x4FCC JUMP JUMPDEST SWAP4 POP PUSH2 0x506C DUP4 PUSH2 0x4FDC JUMP JUMPDEST DUP1 PUSH0 JUMPDEST DUP4 DUP2 LT ISZERO PUSH2 0x509C JUMPI DUP2 MLOAD PUSH2 0x5083 DUP9 DUP3 PUSH2 0x502A JUMP JUMPDEST SWAP8 POP PUSH2 0x508E DUP4 PUSH2 0x5041 JUMP JUMPDEST SWAP3 POP POP PUSH1 0x1 DUP2 ADD SWAP1 POP PUSH2 0x506F JUMP JUMPDEST POP DUP6 SWAP4 POP POP POP POP SWAP3 SWAP2 POP POP JUMP JUMPDEST PUSH0 PUSH1 0x20 DUP3 ADD SWAP1 POP DUP2 DUP2 SUB PUSH0 DUP4 ADD MSTORE PUSH2 0x50C1 DUP2 DUP5 PUSH2 0x504D JUMP JUMPDEST SWAP1 POP SWAP3 SWAP2 POP POP JUMP JUMPDEST PUSH0 PUSH1 0x40 MLOAD SWAP1 POP SWAP1 JUMP JUMPDEST PUSH0 DUP1 REVERT JUMPDEST PUSH0 DUP1 REVERT JUMPDEST PUSH2 0x50E3 DUP2 PUSH2 0x500A JUMP JUMPDEST DUP2 EQ PUSH2 0x50ED JUMPI PUSH0 DUP1 REVERT JUMPDEST POP JUMP JUMPDEST PUSH0 DUP2 CALLDATALOAD SWAP1 POP PUSH2 0x50FE DUP2 PUSH2 0x50DA JUMP JUMPDEST SWAP3 SWAP2 POP POP JUMP JUMPDEST PUSH0 DUP2 SWAP1 POP SWAP2 SWAP1 POP JUMP JUMPDEST PUSH2 0x5116 DUP2 PUSH2 0x5104 JUMP JUMPDEST DUP2 EQ PUSH2 0x5120 JUMPI PUSH0 DUP1 REVERT JUMPDEST POP JUMP JUMPDEST PUSH0 DUP2 CALLDATALOAD SWAP1 POP PUSH2 0x5131 DUP2 PUSH2 0x510D JUMP JUMPDEST SWAP3 SWAP2 POP POP JUMP JUMPDEST PUSH0 DUP1 PUSH1 0x40 DUP4 DUP6 SUB SLT ISZERO PUSH2 0x514D JUMPI PUSH2 0x514C PUSH2 0x50D2 JUMP JUMPDEST JUMPDEST PUSH0 PUSH2 0x515A DUP6 DUP3 DUP7 ADD PUSH2 0x50F0 JUMP JUMPDEST SWAP3 POP POP PUSH1 0x20 PUSH2 0x516B DUP6 DUP3 DUP7 ADD PUSH2 0x5123 JUMP JUMPDEST SWAP2 POP POP SWAP3 POP SWAP3 SWAP1 POP JUMP JUMPDEST PUSH0 PUSH1 0x20 DUP3 DUP5 SUB SLT ISZERO PUSH2 0x518A JUMPI PUSH2 0x5189 PUSH2 0x50D2 JUMP JUMPDEST JUMPDEST PUSH0 PUSH2 0x5197 DUP5 DUP3 DUP6 ADD PUSH2 0x50F0 JUMP JUMPDEST SWAP2 POP POP SWAP3 SWAP2 POP POP JUMP JUMPDEST PUSH2 0x51A9 DUP2 PUSH2 0x500A JUMP JUMPDEST DUP3 MSTORE POP POP JUMP JUMPDEST PUSH0 PUSH1 0x20 DUP3 ADD SWAP1 POP PUSH2 0x51C2 PUSH0 DUP4 ADD DUP5 PUSH2 0x51A0 JUMP JUMPDEST SWAP3 SWAP2 POP POP JUMP JUMPDEST PUSH0 PUSH1 0x20 DUP3 DUP5 SUB SLT ISZERO PUSH2 0x51DD JUMPI PUSH2 0x51DC PUSH2 0x50D2 JUMP JUMPDEST JUMPDEST PUSH0 PUSH2 0x51EA DUP5 DUP3 DUP6 ADD PUSH2 0x5123 JUMP JUMPDEST SWAP2 POP POP SWAP3 SWAP2 POP POP JUMP JUMPDEST PUSH2 0x51FC DUP2 PUSH2 0x5104 JUMP JUMPDEST DUP3 MSTORE POP POP JUMP JUMPDEST PUSH0 PUSH1 0x20 DUP3 ADD SWAP1 POP PUSH2 0x5215 PUSH0 DUP4 ADD DUP5 PUSH2 0x51F3 JUMP JUMPDEST SWAP3 SWAP2 POP POP JUMP JUMPDEST PUSH0 DUP1 PUSH1 0x40 DUP4 DUP6 SUB SLT ISZERO PUSH2 0x5231 JUMPI PUSH2 0x5230 PUSH2 0x50D2 JUMP JUMPDEST JUMPDEST PUSH0 PUSH2 0x523E DUP6 DUP3 DUP7 ADD PUSH2 0x5123 JUMP JUMPDEST SWAP3 POP POP PUSH1 0x20 PUSH2 0x524F DUP6 DUP3 DUP7 ADD PUSH2 0x50F0 JUMP JUMPDEST SWAP2 POP POP SWAP3 POP SWAP3 SWAP1 POP JUMP JUMPDEST PUSH0 DUP1 REVERT JUMPDEST PUSH0 DUP1 REVERT JUMPDEST PUSH0 PUSH1 0x1F NOT PUSH1 0x1F DUP4 ADD AND SWAP1 POP SWAP2 SWAP1 POP JUMP JUMPDEST PUSH32 0x4E487B7100000000000000000000000000000000000000000000000000000000 PUSH0 MSTORE PUSH1 0x41 PUSH1 0x4 MSTORE PUSH1 0x24 PUSH0 REVERT JUMPDEST PUSH2 0x52A7 DUP3 PUSH2 0x5261 JUMP JUMPDEST DUP2 ADD DUP2 DUP2 LT PUSH8 0xFFFFFFFFFFFFFFFF DUP3 GT OR ISZERO PUSH2 0x52C6 JUMPI PUSH2 0x52C5 PUSH2 0x5271 JUMP JUMPDEST JUMPDEST DUP1 PUSH1 0x40 MSTORE POP POP POP JUMP JUMPDEST PUSH0 PUSH2 0x52D8 PUSH2 0x50C9 JUMP JUMPDEST SWAP1 POP PUSH2 0x52E4 DUP3 DUP3 PUSH2 0x529E JUMP JUMPDEST SWAP2 SWAP1 POP JUMP JUMPDEST PUSH0 PUSH8 0xFFFFFFFFFFFFFFFF DUP3 GT ISZERO PUSH2 0x5303 JUMPI PUSH2 0x5302 PUSH2 0x5271 JUMP JUMPDEST JUMPDEST PUSH2 0x530C DUP3 PUSH2 0x5261 JUMP JUMPDEST SWAP1 POP PUSH1 0x20 DUP2 ADD SWAP1 POP SWAP2 SWAP1 POP JUMP JUMPDEST DUP3 DUP2 DUP4 CALLDATACOPY PUSH0 DUP4 DUP4 ADD MSTORE POP POP POP JUMP JUMPDEST PUSH0 PUSH2 0x5339 PUSH2 0x5334 DUP5 PUSH2 0x52E9 JUMP JUMPDEST PUSH2 0x52CF JUMP JUMPDEST SWAP1 POP DUP3 DUP2 MSTORE PUSH1 0x20 DUP2 ADD DUP5 DUP5 DUP5 ADD GT ISZERO PUSH2 0x5355 JUMPI PUSH2 0x5354 PUSH2 0x525D JUMP JUMPDEST JUMPDEST PUSH2 0x5360 DUP5 DUP3 DUP6 PUSH2 0x5319 JUMP JUMPDEST POP SWAP4 SWAP3 POP POP POP JUMP JUMPDEST PUSH0 DUP3 PUSH1 0x1F DUP4 ADD SLT PUSH2 0x537C JUMPI PUSH2 0x537B PUSH2 0x5259 JUMP JUMPDEST JUMPDEST DUP2 CALLDATALOAD PUSH2 0x538C DUP5 DUP3 PUSH1 0x20 DUP7 ADD PUSH2 0x5327 JUMP JUMPDEST SWAP2 POP POP SWAP3 SWAP2 POP POP JUMP JUMPDEST PUSH0 PUSH32 0xFFFFFFFF00000000000000000000000000000000000000000000000000000000 DUP3 AND SWAP1 POP SWAP2 SWAP1 POP JUMP JUMPDEST PUSH2 0x53C9 DUP2 PUSH2 0x5395 JUMP JUMPDEST DUP2 EQ PUSH2 0x53D3 JUMPI PUSH0 DUP1 REVERT JUMPDEST POP JUMP JUMPDEST PUSH0 DUP2 CALLDATALOAD SWAP1 POP PUSH2 0x53E4 DUP2 PUSH2 0x53C0 JUMP JUMPDEST SWAP3 SWAP2 POP POP JUMP JUMPDEST PUSH0 DUP1 PUSH1 0x40 DUP4 DUP6 SUB SLT ISZERO PUSH2 0x5400 JUMPI PUSH2 0x53FF PUSH2 0x50D2 JUMP JUMPDEST JUMPDEST PUSH0 DUP4 ADD CALLDATALOAD PUSH8 0xFFFFFFFFFFFFFFFF DUP2 GT ISZERO PUSH2 0x541D JUMPI PUSH2 0x541C PUSH2 0x50D6 JUMP JUMPDEST JUMPDEST PUSH2 0x5429 DUP6 DUP3 DUP7 ADD PUSH2 0x5368 JUMP JUMPDEST SWAP3 POP POP PUSH1 0x20 PUSH2 0x543A DUP6 DUP3 DUP7 ADD PUSH2 0x53D6 JUMP JUMPDEST SWAP2 POP POP SWAP3 POP SWAP3 SWAP1 POP JUMP JUMPDEST PUSH0 DUP2 MLOAD SWAP1 POP SWAP2 SWAP1 POP JUMP JUMPDEST PUSH0 DUP3 DUP3 MSTORE PUSH1 0x20 DUP3 ADD SWAP1 POP SWAP3 SWAP2 POP POP JUMP JUMPDEST PUSH0 DUP2 SWAP1 POP PUSH1 0x20 DUP3 ADD SWAP1 POP SWAP2 SWAP1 POP JUMP JUMPDEST PUSH0 DUP2 MLOAD SWAP1 POP SWAP2 SWAP1 POP JUMP JUMPDEST PUSH0 DUP3 DUP3 MSTORE PUSH1 0x20 DUP3 ADD SWAP1 POP SWAP3 SWAP2 POP POP JUMP JUMPDEST PUSH0 JUMPDEST DUP4 DUP2 LT ISZERO PUSH2 0x54A4 JUMPI DUP1 DUP3 ADD MLOAD DUP2 DUP5 ADD MSTORE PUSH1 0x20 DUP2 ADD SWAP1 POP PUSH2 0x5489 JUMP JUMPDEST PUSH0 DUP5 DUP5 ADD MSTORE POP POP POP POP JUMP JUMPDEST PUSH0 PUSH2 0x54B9 DUP3 PUSH2 0x546D JUMP JUMPDEST PUSH2 0x54C3 DUP2 DUP6 PUSH2 0x5477 JUMP JUMPDEST SWAP4 POP PUSH2 0x54D3 DUP2 DUP6 PUSH1 0x20 DUP7 ADD PUSH2 0x5487 JUMP JUMPDEST PUSH2 0x54DC DUP2 PUSH2 0x5261 JUMP JUMPDEST DUP5 ADD SWAP2 POP POP SWAP3 SWAP2 POP POP JUMP JUMPDEST PUSH0 PUSH1 0x60 DUP4 ADD PUSH0 DUP4 ADD MLOAD DUP5 DUP3 SUB PUSH0 DUP7 ADD MSTORE PUSH2 0x5501 DUP3 DUP3 PUSH2 0x54AF JUMP JUMPDEST SWAP2 POP POP PUSH1 0x20 DUP4 ADD MLOAD DUP5 DUP3 SUB PUSH1 0x20 DUP7 ADD MSTORE PUSH2 0x551B DUP3 DUP3 PUSH2 0x54AF JUMP JUMPDEST SWAP2 POP POP PUSH1 0x40 DUP4 ADD MLOAD PUSH2 0x5530 PUSH1 0x40 DUP7 ADD DUP3 PUSH2 0x501B JUMP JUMPDEST POP DUP1 SWAP2 POP POP SWAP3 SWAP2 POP POP JUMP JUMPDEST PUSH0 DUP2 MLOAD SWAP1 POP SWAP2 SWAP1 POP JUMP JUMPDEST PUSH0 DUP3 DUP3 MSTORE PUSH1 0x20 DUP3 ADD SWAP1 POP SWAP3 SWAP2 POP POP JUMP JUMPDEST PUSH0 DUP2 SWAP1 POP PUSH1 0x20 DUP3 ADD SWAP1 POP SWAP2 SWAP1 POP JUMP JUMPDEST PUSH2 0x556D DUP2 PUSH2 0x5395 JUMP JUMPDEST DUP3 MSTORE POP POP JUMP JUMPDEST PUSH0 PUSH1 0x40 DUP4 ADD PUSH0 DUP4 ADD MLOAD PUSH2 0x5588 PUSH0 DUP7 ADD DUP3 PUSH2 0x5564 JUMP JUMPDEST POP PUSH1 0x20 DUP4 ADD MLOAD DUP5 DUP3 SUB PUSH1 0x20 DUP7 ADD MSTORE PUSH2 0x55A0 DUP3 DUP3 PUSH2 0x54AF JUMP JUMPDEST SWAP2 POP POP DUP1 SWAP2 POP POP SWAP3 SWAP2 POP POP JUMP JUMPDEST PUSH0 PUSH2 0x55B8 DUP4 DUP4 PUSH2 0x5573 JUMP JUMPDEST SWAP1 POP SWAP3 SWAP2 POP POP JUMP JUMPDEST PUSH0 PUSH1 0x20 DUP3 ADD SWAP1 POP SWAP2 SWAP1 POP JUMP JUMPDEST PUSH0 PUSH2 0x55D6 DUP3 PUSH2 0x553B JUMP JUMPDEST PUSH2 0x55E0 DUP2 DUP6 PUSH2 0x5545 JUMP JUMPDEST SWAP4 POP DUP4 PUSH1 0x20 DUP3 MUL DUP6 ADD PUSH2 0x55F2 DUP6 PUSH2 0x5555 JUMP JUMPDEST DUP1 PUSH0 JUMPDEST DUP6 DUP2 LT ISZERO PUSH2 0x562D JUMPI DUP5 DUP5 SUB DUP10 MSTORE DUP2 MLOAD PUSH2 0x560E DUP6 DUP3 PUSH2 0x55AD JUMP JUMPDEST SWAP5 POP PUSH2 0x5619 DUP4 PUSH2 0x55C0 JUMP JUMPDEST SWAP3 POP PUSH1 0x20 DUP11 ADD SWAP10 POP POP PUSH1 0x1 DUP2 ADD SWAP1 POP PUSH2 0x55F5 JUMP JUMPDEST POP DUP3 SWAP8 POP DUP8 SWAP6 POP POP POP POP POP POP SWAP3 SWAP2 POP POP JUMP JUMPDEST PUSH0 PUSH1 0x40 DUP4 ADD PUSH0 DUP4 ADD MLOAD DUP5 DUP3 SUB PUSH0 DUP7 ADD MSTORE PUSH2 0x5659 DUP3 DUP3 PUSH2 0x54E7 JUMP JUMPDEST SWAP2 POP POP PUSH1 0x20 DUP4 ADD MLOAD DUP5 DUP3 SUB PUSH1 0x20 DUP7 ADD MSTORE PUSH2 0x5673 DUP3 DUP3 PUSH2 0x55CC JUMP JUMPDEST SWAP2 POP POP DUP1 SWAP2 POP POP SWAP3 SWAP2 POP POP JUMP JUMPDEST PUSH0 PUSH2 0x568B DUP4 DUP4 PUSH2 0x563F JUMP JUMPDEST SWAP1 POP SWAP3 SWAP2 POP POP JUMP JUMPDEST PUSH0 PUSH1 0x20 DUP3 ADD SWAP1 POP SWAP2 SWAP1 POP JUMP JUMPDEST PUSH0 PUSH2 0x56A9 DUP3 PUSH2 0x5444 JUMP JUMPDEST PUSH2 0x56B3 DUP2 DUP6 PUSH2 0x544E JUMP JUMPDEST SWAP4 POP DUP4 PUSH1 0x20 DUP3 MUL DUP6 ADD PUSH2 0x56C5 DUP6 PUSH2 0x545E JUMP JUMPDEST DUP1 PUSH0 JUMPDEST DUP6 DUP2 LT ISZERO PUSH2 0x5700 JUMPI DUP5 DUP5 SUB DUP10 MSTORE DUP2 MLOAD PUSH2 0x56E1 DUP6 DUP3 PUSH2 0x5680 JUMP JUMPDEST SWAP5 POP PUSH2 0x56EC DUP4 PUSH2 0x5693 JUMP JUMPDEST SWAP3 POP PUSH1 0x20 DUP11 ADD SWAP10 POP POP PUSH1 0x1 DUP2 ADD SWAP1 POP PUSH2 0x56C8 JUMP JUMPDEST POP DUP3 SWAP8 POP DUP8 SWAP6 POP POP POP POP POP POP SWAP3 SWAP2 POP POP JUMP JUMPDEST PUSH0 PUSH1 0x20 DUP3 ADD SWAP1 POP DUP2 DUP2 SUB PUSH0 DUP4 ADD MSTORE PUSH2 0x572A DUP2 DUP5 PUSH2 0x569F JUMP JUMPDEST SWAP1 POP SWAP3 SWAP2 POP POP JUMP JUMPDEST PUSH0 DUP2 SWAP1 POP SWAP2 SWAP1 POP JUMP JUMPDEST PUSH2 0x5744 DUP2 PUSH2 0x5732 JUMP JUMPDEST DUP3 MSTORE POP POP JUMP JUMPDEST PUSH0 PUSH1 0x20 DUP3 ADD SWAP1 POP PUSH2 0x575D PUSH0 DUP4 ADD DUP5 PUSH2 0x573B JUMP JUMPDEST SWAP3 SWAP2 POP POP JUMP JUMPDEST PUSH0 DUP1 REVERT JUMPDEST PUSH0 DUP1 REVERT JUMPDEST PUSH0 PUSH1 0x40 DUP3 DUP5 SUB SLT ISZERO PUSH2 0x5780 JUMPI PUSH2 0x577F PUSH2 0x5763 JUMP JUMPDEST JUMPDEST PUSH2 0x578A PUSH1 0x40 PUSH2 0x52CF JUMP JUMPDEST SWAP1 POP PUSH0 PUSH2 0x5799 DUP5 DUP3 DUP6 ADD PUSH2 0x53D6 JUMP JUMPDEST PUSH0 DUP4 ADD MSTORE POP PUSH1 0x20 DUP3 ADD CALLDATALOAD PUSH8 0xFFFFFFFFFFFFFFFF DUP2 GT ISZERO PUSH2 0x57BC JUMPI PUSH2 0x57BB PUSH2 0x5767 JUMP JUMPDEST JUMPDEST PUSH2 0x57C8 DUP5 DUP3 DUP6 ADD PUSH2 0x5368 JUMP JUMPDEST PUSH1 0x20 DUP4 ADD MSTORE POP SWAP3 SWAP2 POP POP JUMP JUMPDEST PUSH0 DUP1 PUSH1 0x40 DUP4 DUP6 SUB SLT ISZERO PUSH2 0x57EA JUMPI PUSH2 0x57E9 PUSH2 0x50D2 JUMP JUMPDEST JUMPDEST PUSH0 DUP4 ADD CALLDATALOAD PUSH8 0xFFFFFFFFFFFFFFFF DUP2 GT ISZERO PUSH2 0x5807 JUMPI PUSH2 0x5806 PUSH2 0x50D6 JUMP JUMPDEST JUMPDEST PUSH2 0x5813 DUP6 DUP3 DUP7 ADD PUSH2 0x5368 JUMP JUMPDEST SWAP3 POP POP PUSH1 0x20 DUP4 ADD CALLDATALOAD PUSH8 0xFFFFFFFFFFFFFFFF DUP2 GT ISZERO PUSH2 0x5834 JUMPI PUSH2 0x5833 PUSH2 0x50D6 JUMP JUMPDEST JUMPDEST PUSH2 0x5840 DUP6 DUP3 DUP7 ADD PUSH2 0x576B JUMP JUMPDEST SWAP2 POP POP SWAP3 POP SWAP3 SWAP1 POP JUMP JUMPDEST PUSH0 DUP1 REVERT JUMPDEST PUSH0 DUP1 REVERT JUMPDEST PUSH0 DUP1 DUP4 PUSH1 0x1F DUP5 ADD SLT PUSH2 0x5867 JUMPI PUSH2 0x5866 PUSH2 0x5259 JUMP JUMPDEST JUMPDEST DUP3 CALLDATALOAD SWAP1 POP PUSH8 0xFFFFFFFFFFFFFFFF DUP2 GT ISZERO PUSH2 0x5884 JUMPI PUSH2 0x5883 PUSH2 0x584A JUMP JUMPDEST JUMPDEST PUSH1 0x20 DUP4 ADD SWAP2 POP DUP4 PUSH1 0x1 DUP3 MUL DUP4 ADD GT ISZERO PUSH2 0x58A0 JUMPI PUSH2 0x589F PUSH2 0x584E JUMP JUMPDEST JUMPDEST SWAP3 POP SWAP3 SWAP1 POP JUMP JUMPDEST PUSH0 DUP1 PUSH0 PUSH1 0x40 DUP5 DUP7 SUB SLT ISZERO PUSH2 0x58BE JUMPI PUSH2 0x58BD PUSH2 0x50D2 JUMP JUMPDEST JUMPDEST PUSH0 PUSH2 0x58CB DUP7 DUP3 DUP8 ADD PUSH2 0x50F0 JUMP JUMPDEST SWAP4 POP POP PUSH1 0x20 DUP5 ADD CALLDATALOAD PUSH8 0xFFFFFFFFFFFFFFFF DUP2 GT ISZERO PUSH2 0x58EC JUMPI PUSH2 0x58EB PUSH2 0x50D6 JUMP JUMPDEST JUMPDEST PUSH2 0x58F8 DUP7 DUP3 DUP8 ADD PUSH2 0x5852 JUMP JUMPDEST SWAP3 POP SWAP3 POP POP SWAP3 POP SWAP3 POP SWAP3 JUMP JUMPDEST PUSH2 0x590D DUP2 PUSH2 0x5732 JUMP JUMPDEST DUP2 EQ PUSH2 0x5917 JUMPI PUSH0 DUP1 REVERT JUMPDEST POP JUMP JUMPDEST PUSH0 DUP2 CALLDATALOAD SWAP1 POP PUSH2 0x5928 DUP2 PUSH2 0x5904 JUMP JUMPDEST SWAP3 SWAP2 POP POP JUMP JUMPDEST PUSH0 DUP1 PUSH1 0x40 DUP4 DUP6 SUB SLT ISZERO PUSH2 0x5944 JUMPI PUSH2 0x5943 PUSH2 0x50D2 JUMP JUMPDEST JUMPDEST PUSH0 PUSH2 0x5951 DUP6 DUP3 DUP7 ADD PUSH2 0x5123 JUMP JUMPDEST SWAP3 POP POP PUSH1 0x20 PUSH2 0x5962 DUP6 DUP3 DUP7 ADD PUSH2 0x591A JUMP JUMPDEST SWAP2 POP POP SWAP3 POP SWAP3 SWAP1 POP JUMP JUMPDEST PUSH0 DUP2 ISZERO ISZERO SWAP1 POP SWAP2 SWAP1 POP JUMP JUMPDEST PUSH2 0x5980 DUP2 PUSH2 0x596C JUMP JUMPDEST DUP3 MSTORE POP POP JUMP JUMPDEST PUSH0 PUSH1 0x20 DUP3 ADD SWAP1 POP PUSH2 0x5999 PUSH0 DUP4 ADD DUP5 PUSH2 0x5977 JUMP JUMPDEST SWAP3 SWAP2 POP POP JUMP JUMPDEST PUSH0 PUSH1 0x20 DUP3 DUP5 SUB SLT ISZERO PUSH2 0x59B4 JUMPI PUSH2 0x59B3 PUSH2 0x50D2 JUMP JUMPDEST JUMPDEST PUSH0 DUP3 ADD CALLDATALOAD PUSH8 0xFFFFFFFFFFFFFFFF DUP2 GT ISZERO PUSH2 0x59D1 JUMPI PUSH2 0x59D0 PUSH2 0x50D6 JUMP JUMPDEST JUMPDEST PUSH2 0x59DD DUP5 DUP3 DUP6 ADD PUSH2 0x5368 JUMP JUMPDEST SWAP2 POP POP SWAP3 SWAP2 POP POP JUMP JUMPDEST PUSH0 PUSH1 0x20 DUP3 DUP5 SUB SLT ISZERO PUSH2 0x59FB JUMPI PUSH2 0x59FA PUSH2 0x50D2 JUMP JUMPDEST JUMPDEST PUSH0 PUSH2 0x5A08 DUP5 DUP3 DUP6 ADD PUSH2 0x53D6 JUMP JUMPDEST SWAP2 POP POP SWAP3 SWAP2 POP POP JUMP JUMPDEST PUSH0 PUSH1 0x60 DUP4 ADD PUSH0 DUP4 ADD MLOAD DUP5 DUP3 SUB PUSH0 DUP7 ADD MSTORE PUSH2 0x5A2B DUP3 DUP3 PUSH2 0x54AF JUMP JUMPDEST SWAP2 POP POP PUSH1 0x20 DUP4 ADD MLOAD DUP5 DUP3 SUB PUSH1 0x20 DUP7 ADD MSTORE PUSH2 0x5A45 DUP3 DUP3 PUSH2 0x54AF JUMP JUMPDEST SWAP2 POP POP PUSH1 0x40 DUP4 ADD MLOAD PUSH2 0x5A5A PUSH1 0x40 DUP7 ADD DUP3 PUSH2 0x501B JUMP JUMPDEST POP DUP1 SWAP2 POP POP SWAP3 SWAP2 POP POP JUMP JUMPDEST PUSH0 PUSH1 0x20 DUP3 ADD SWAP1 POP DUP2 DUP2 SUB PUSH0 DUP4 ADD MSTORE PUSH2 0x5A7D DUP2 DUP5 PUSH2 0x5A11 JUMP JUMPDEST SWAP1 POP SWAP3 SWAP2 POP POP JUMP JUMPDEST PUSH0 DUP1 DUP4 PUSH1 0x1F DUP5 ADD SLT PUSH2 0x5A9A JUMPI PUSH2 0x5A99 PUSH2 0x5259 JUMP JUMPDEST JUMPDEST DUP3 CALLDATALOAD SWAP1 POP PUSH8 0xFFFFFFFFFFFFFFFF DUP2 GT ISZERO PUSH2 0x5AB7 JUMPI PUSH2 0x5AB6 PUSH2 0x584A JUMP JUMPDEST JUMPDEST PUSH1 0x20 DUP4 ADD SWAP2 POP DUP4 PUSH1 0x20 DUP3 MUL DUP4 ADD GT ISZERO PUSH2 0x5AD3 JUMPI PUSH2 0x5AD2 PUSH2 0x584E JUMP JUMPDEST JUMPDEST SWAP3 POP SWAP3 SWAP1 POP JUMP JUMPDEST PUSH0 DUP1 PUSH1 0x20 DUP4 DUP6 SUB SLT ISZERO PUSH2 0x5AF0 JUMPI PUSH2 0x5AEF PUSH2 0x50D2 JUMP JUMPDEST JUMPDEST PUSH0 DUP4 ADD CALLDATALOAD PUSH8 0xFFFFFFFFFFFFFFFF DUP2 GT ISZERO PUSH2 0x5B0D JUMPI PUSH2 0x5B0C PUSH2 0x50D6 JUMP JUMPDEST JUMPDEST PUSH2 0x5B19 DUP6 DUP3 DUP7 ADD PUSH2 0x5A85 JUMP JUMPDEST SWAP3 POP SWAP3 POP POP SWAP3 POP SWAP3 SWAP1 POP JUMP JUMPDEST PUSH0 DUP2 MLOAD SWAP1 POP SWAP2 SWAP1 POP JUMP JUMPDEST PUSH0 DUP3 DUP3 MSTORE PUSH1 0x20 DUP3 ADD SWAP1 POP SWAP3 SWAP2 POP POP JUMP JUMPDEST PUSH0 DUP2 SWAP1 POP PUSH1 0x20 DUP3 ADD SWAP1 POP SWAP2 SWAP1 POP JUMP JUMPDEST PUSH0 DUP2 MLOAD SWAP1 POP SWAP2 SWAP1 POP JUMP JUMPDEST PUSH0 DUP3 DUP3 MSTORE PUSH1 0x20 DUP3 ADD SWAP1 POP SWAP3 SWAP2 POP POP JUMP JUMPDEST PUSH0 PUSH2 0x5B72 DUP3 PUSH2 0x5B4E JUMP JUMPDEST PUSH2 0x5B7C DUP2 DUP6 PUSH2 0x5B58 JUMP JUMPDEST SWAP4 POP PUSH2 0x5B8C DUP2 DUP6 PUSH1 0x20 DUP7 ADD PUSH2 0x5487 JUMP JUMPDEST PUSH2 0x5B95 DUP2 PUSH2 0x5261 JUMP JUMPDEST DUP5 ADD SWAP2 POP POP SWAP3 SWAP2 POP POP JUMP JUMPDEST PUSH0 PUSH2 0x5BAB DUP4 DUP4 PUSH2 0x5B68 JUMP JUMPDEST SWAP1 POP SWAP3 SWAP2 POP POP JUMP JUMPDEST PUSH0 PUSH1 0x20 DUP3 ADD SWAP1 POP SWAP2 SWAP1 POP JUMP JUMPDEST PUSH0 PUSH2 0x5BC9 DUP3 PUSH2 0x5B25 JUMP JUMPDEST PUSH2 0x5BD3 DUP2 DUP6 PUSH2 0x5B2F JUMP JUMPDEST SWAP4 POP DUP4 PUSH1 0x20 DUP3 MUL DUP6 ADD PUSH2 0x5BE5 DUP6 PUSH2 0x5B3F JUMP JUMPDEST DUP1 PUSH0 JUMPDEST DUP6 DUP2 LT ISZERO PUSH2 0x5C20 JUMPI DUP5 DUP5 SUB DUP10 MSTORE DUP2 MLOAD PUSH2 0x5C01 DUP6 DUP3 PUSH2 0x5BA0 JUMP JUMPDEST SWAP5 POP PUSH2 0x5C0C DUP4 PUSH2 0x5BB3 JUMP JUMPDEST SWAP3 POP PUSH1 0x20 DUP11 ADD SWAP10 POP POP PUSH1 0x1 DUP2 ADD SWAP1 POP PUSH2 0x5BE8 JUMP JUMPDEST POP DUP3 SWAP8 POP DUP8 SWAP6 POP POP POP POP POP POP SWAP3 SWAP2 POP POP JUMP JUMPDEST PUSH0 PUSH1 0x20 DUP3 ADD SWAP1 POP DUP2 DUP2 SUB PUSH0 DUP4 ADD MSTORE PUSH2 0x5C4A DUP2 DUP5 PUSH2 0x5BBF JUMP JUMPDEST SWAP1 POP SWAP3 SWAP2 POP POP JUMP JUMPDEST PUSH0 PUSH1 0x60 DUP3 DUP5 SUB SLT ISZERO PUSH2 0x5C67 JUMPI PUSH2 0x5C66 PUSH2 0x5763 JUMP JUMPDEST JUMPDEST PUSH2 0x5C71 PUSH1 0x60 PUSH2 0x52CF JUMP JUMPDEST SWAP1 POP PUSH0 DUP3 ADD CALLDATALOAD PUSH8 0xFFFFFFFFFFFFFFFF DUP2 GT ISZERO PUSH2 0x5C90 JUMPI PUSH2 0x5C8F PUSH2 0x5767 JUMP JUMPDEST JUMPDEST PUSH2 0x5C9C DUP5 DUP3 DUP6 ADD PUSH2 0x5368 JUMP JUMPDEST PUSH0 DUP4 ADD MSTORE POP PUSH1 0x20 DUP3 ADD CALLDATALOAD PUSH8 0xFFFFFFFFFFFFFFFF DUP2 GT ISZERO PUSH2 0x5CBF JUMPI PUSH2 0x5CBE PUSH2 0x5767 JUMP JUMPDEST JUMPDEST PUSH2 0x5CCB DUP5 DUP3 DUP6 ADD PUSH2 0x5368 JUMP JUMPDEST PUSH1 0x20 DUP4 ADD MSTORE POP PUSH1 0x40 PUSH2 0x5CDF DUP5 DUP3 DUP6 ADD PUSH2 0x50F0 JUMP JUMPDEST PUSH1 0x40 DUP4 ADD MSTORE POP SWAP3 SWAP2 POP POP JUMP JUMPDEST PUSH0 PUSH8 0xFFFFFFFFFFFFFFFF DUP3 GT ISZERO PUSH2 0x5D05 JUMPI PUSH2 0x5D04 PUSH2 0x5271 JUMP JUMPDEST JUMPDEST PUSH1 0x20 DUP3 MUL SWAP1 POP PUSH1 0x20 DUP2 ADD SWAP1 POP SWAP2 SWAP1 POP JUMP JUMPDEST PUSH0 PUSH2 0x5D28 PUSH2 0x5D23 DUP5 PUSH2 0x5CEB JUMP JUMPDEST PUSH2 0x52CF JUMP JUMPDEST SWAP1 POP DUP1 DUP4 DUP3 MSTORE PUSH1 0x20 DUP3 ADD SWAP1 POP PUSH1 0x20 DUP5 MUL DUP4 ADD DUP6 DUP2 GT ISZERO PUSH2 0x5D4B JUMPI PUSH2 0x5D4A PUSH2 0x584E JUMP JUMPDEST JUMPDEST DUP4 JUMPDEST DUP2 DUP2 LT ISZERO PUSH2 0x5D92 JUMPI DUP1 CALLDATALOAD PUSH8 0xFFFFFFFFFFFFFFFF DUP2 GT ISZERO PUSH2 0x5D70 JUMPI PUSH2 0x5D6F PUSH2 0x5259 JUMP JUMPDEST JUMPDEST DUP1 DUP7 ADD PUSH2 0x5D7D DUP10 DUP3 PUSH2 0x576B JUMP JUMPDEST DUP6 MSTORE PUSH1 0x20 DUP6 ADD SWAP5 POP POP POP PUSH1 0x20 DUP2 ADD SWAP1 POP PUSH2 0x5D4D JUMP JUMPDEST POP POP POP SWAP4 SWAP3 POP POP POP JUMP JUMPDEST PUSH0 DUP3 PUSH1 0x1F DUP4 ADD SLT PUSH2 0x5DB0 JUMPI PUSH2 0x5DAF PUSH2 0x5259 JUMP JUMPDEST JUMPDEST DUP2 CALLDATALOAD PUSH2 0x5DC0 DUP5 DUP3 PUSH1 0x20 DUP7 ADD PUSH2 0x5D16 JUMP JUMPDEST SWAP2 POP POP SWAP3 SWAP2 POP POP JUMP JUMPDEST PUSH0 PUSH1 0x40 DUP3 DUP5 SUB SLT ISZERO PUSH2 0x5DDE JUMPI PUSH2 0x5DDD PUSH2 0x5763 JUMP JUMPDEST JUMPDEST PUSH2 0x5DE8 PUSH1 0x40 PUSH2 0x52CF JUMP JUMPDEST SWAP1 POP PUSH0 DUP3 ADD CALLDATALOAD PUSH8 0xFFFFFFFFFFFFFFFF DUP2 GT ISZERO PUSH2 0x5E07 JUMPI PUSH2 0x5E06 PUSH2 0x5767 JUMP JUMPDEST JUMPDEST PUSH2 0x5E13 DUP5 DUP3 DUP6 ADD PUSH2 0x5C52 JUMP JUMPDEST PUSH0 DUP4 ADD MSTORE POP PUSH1 0x20 DUP3 ADD CALLDATALOAD PUSH8 0xFFFFFFFFFFFFFFFF DUP2 GT ISZERO PUSH2 0x5E36 JUMPI PUSH2 0x5E35 PUSH2 0x5767 JUMP JUMPDEST JUMPDEST PUSH2 0x5E42 DUP5 DUP3 DUP6 ADD PUSH2 0x5D9C JUMP JUMPDEST PUSH1 0x20 DUP4 ADD MSTORE POP SWAP3 SWAP2 POP POP JUMP JUMPDEST PUSH0 PUSH1 0x20 DUP3 DUP5 SUB SLT ISZERO PUSH2 0x5E63 JUMPI PUSH2 0x5E62 PUSH2 0x50D2 JUMP JUMPDEST JUMPDEST PUSH0 DUP3 ADD CALLDATALOAD PUSH8 0xFFFFFFFFFFFFFFFF DUP2 GT ISZERO PUSH2 0x5E80 JUMPI PUSH2 0x5E7F PUSH2 0x50D6 JUMP JUMPDEST JUMPDEST PUSH2 0x5E8C DUP5 DUP3 DUP6 ADD PUSH2 0x5DC9 JUMP JUMPDEST SWAP2 POP POP SWAP3 SWAP2 POP POP JUMP JUMPDEST PUSH0 PUSH1 0x40 DUP4 ADD PUSH0 DUP4 ADD MLOAD DUP5 DUP3 SUB PUSH0 DUP7 ADD MSTORE PUSH2 0x5EAF DUP3 DUP3 PUSH2 0x54E7 JUMP JUMPDEST SWAP2 POP POP PUSH1 0x20 DUP4 ADD MLOAD DUP5 DUP3 SUB PUSH1 0x20 DUP7 ADD MSTORE PUSH2 0x5EC9 DUP3 DUP3 PUSH2 0x55CC JUMP JUMPDEST SWAP2 POP POP DUP1 SWAP2 POP POP SWAP3 SWAP2 POP POP JUMP JUMPDEST PUSH0 PUSH1 0x20 DUP3 ADD SWAP1 POP DUP2 DUP2 SUB PUSH0 DUP4 ADD MSTORE PUSH2 0x5EEE DUP2 DUP5 PUSH2 0x5E95 JUMP JUMPDEST SWAP1 POP SWAP3 SWAP2 POP POP JUMP JUMPDEST PUSH0 DUP1 PUSH1 0x40 DUP4 DUP6 SUB SLT ISZERO PUSH2 0x5F0C JUMPI PUSH2 0x5F0B PUSH2 0x50D2 JUMP JUMPDEST JUMPDEST PUSH0 PUSH2 0x5F19 DUP6 DUP3 DUP7 ADD PUSH2 0x591A JUMP JUMPDEST SWAP3 POP POP PUSH1 0x20 PUSH2 0x5F2A DUP6 DUP3 DUP7 ADD PUSH2 0x591A JUMP JUMPDEST SWAP2 POP POP SWAP3 POP SWAP3 SWAP1 POP JUMP JUMPDEST PUSH0 PUSH2 0x5F3E DUP3 PUSH2 0x546D JUMP JUMPDEST PUSH2 0x5F48 DUP2 DUP6 PUSH2 0x4F4A JUMP JUMPDEST SWAP4 POP PUSH2 0x5F58 DUP2 DUP6 PUSH1 0x20 DUP7 ADD PUSH2 0x5487 JUMP JUMPDEST PUSH2 0x5F61 DUP2 PUSH2 0x5261 JUMP JUMPDEST DUP5 ADD SWAP2 POP POP SWAP3 SWAP2 POP POP JUMP JUMPDEST PUSH0 PUSH1 0x20 DUP3 ADD SWAP1 POP DUP2 DUP2 SUB PUSH0 DUP4 ADD MSTORE PUSH2 0x5F84 DUP2 DUP5 PUSH2 0x5F34 JUMP JUMPDEST SWAP1 POP SWAP3 SWAP2 POP POP JUMP JUMPDEST PUSH32 0x4163636F756E74466163746F72793A206E6F7420616E206163636F756E742E00 PUSH0 DUP3 ADD MSTORE POP JUMP JUMPDEST PUSH0 PUSH2 0x5FC0 PUSH1 0x1F DUP4 PUSH2 0x4F4A JUMP JUMPDEST SWAP2 POP PUSH2 0x5FCB DUP3 PUSH2 0x5F8C JUMP JUMPDEST PUSH1 0x20 DUP3 ADD SWAP1 POP SWAP2 SWAP1 POP JUMP JUMPDEST PUSH0 PUSH1 0x20 DUP3 ADD SWAP1 POP DUP2 DUP2 SUB PUSH0 DUP4 ADD MSTORE PUSH2 0x5FED DUP2 PUSH2 0x5FB4 JUMP JUMPDEST SWAP1 POP SWAP2 SWAP1 POP JUMP JUMPDEST PUSH32 0x43616E206F6E6C79206772616E7420746F206E6F6E20686F6C64657273000000 PUSH0 DUP3 ADD MSTORE POP JUMP JUMPDEST PUSH0 PUSH2 0x6028 PUSH1 0x1D DUP4 PUSH2 0x4F4A JUMP JUMPDEST SWAP2 POP PUSH2 0x6033 DUP3 PUSH2 0x5FF4 JUMP JUMPDEST PUSH1 0x20 DUP3 ADD SWAP1 POP SWAP2 SWAP1 POP JUMP JUMPDEST PUSH0 PUSH1 0x20 DUP3 ADD SWAP1 POP DUP2 DUP2 SUB PUSH0 DUP4 ADD MSTORE PUSH2 0x6055 DUP2 PUSH2 0x601C JUMP JUMPDEST SWAP1 POP SWAP2 SWAP1 POP JUMP JUMPDEST PUSH32 0x43616E206F6E6C792072656E6F756E636520666F722073656C66000000000000 PUSH0 DUP3 ADD MSTORE POP JUMP JUMPDEST PUSH0 PUSH2 0x6090 PUSH1 0x1A DUP4 PUSH2 0x4F4A JUMP JUMPDEST SWAP2 POP PUSH2 0x609B DUP3 PUSH2 0x605C JUMP JUMPDEST PUSH1 0x20 DUP3 ADD SWAP1 POP SWAP2 SWAP1 POP JUMP JUMPDEST PUSH0 PUSH1 0x20 DUP3 ADD SWAP1 POP DUP2 DUP2 SUB PUSH0 DUP4 ADD MSTORE PUSH2 0x60BD DUP2 PUSH2 0x6084 JUMP JUMPDEST SWAP1 POP SWAP2 SWAP1 POP JUMP JUMPDEST PUSH32 0x457874656E73696F6E4D616E616765723A20756E617574686F72697A65642E00 PUSH0 DUP3 ADD MSTORE POP JUMP JUMPDEST PUSH0 PUSH2 0x60F8 PUSH1 0x1F DUP4 PUSH2 0x4F4A JUMP JUMPDEST SWAP2 POP PUSH2 0x6103 DUP3 PUSH2 0x60C4 JUMP JUMPDEST PUSH1 0x20 DUP3 ADD SWAP1 POP SWAP2 SWAP1 POP JUMP JUMPDEST PUSH0 PUSH1 0x20 DUP3 ADD SWAP1 POP DUP2 DUP2 SUB PUSH0 DUP4 ADD MSTORE PUSH2 0x6125 DUP2 PUSH2 0x60EC JUMP JUMPDEST SWAP1 POP SWAP2 SWAP1 POP JUMP JUMPDEST PUSH32 0x457874656E73696F6E4D616E616765723A2063616E6E6F742072656D6F766520 PUSH0 DUP3 ADD MSTORE PUSH32 0x66756E6374696F6E2066726F6D20657874656E73696F6E2E0000000000000000 PUSH1 0x20 DUP3 ADD MSTORE POP JUMP JUMPDEST PUSH0 PUSH2 0x6186 PUSH1 0x38 DUP4 PUSH2 0x4F4A JUMP JUMPDEST SWAP2 POP PUSH2 0x6191 DUP3 PUSH2 0x612C JUMP JUMPDEST PUSH1 0x40 DUP3 ADD SWAP1 POP SWAP2 SWAP1 POP JUMP JUMPDEST PUSH0 PUSH1 0x20 DUP3 ADD SWAP1 POP DUP2 DUP2 SUB PUSH0 DUP4 ADD MSTORE PUSH2 0x61B3 DUP2 PUSH2 0x617A JUMP JUMPDEST SWAP1 POP SWAP2 SWAP1 POP JUMP JUMPDEST PUSH32 0x4E487B7100000000000000000000000000000000000000000000000000000000 PUSH0 MSTORE PUSH1 0x22 PUSH1 0x4 MSTORE PUSH1 0x24 PUSH0 REVERT JUMPDEST PUSH0 PUSH1 0x2 DUP3 DIV SWAP1 POP PUSH1 0x1 DUP3 AND DUP1 PUSH2 0x61FE JUMPI PUSH1 0x7F DUP3 AND SWAP2 POP JUMPDEST PUSH1 0x20 DUP3 LT DUP2 SUB PUSH2 0x6211 JUMPI PUSH2 0x6210 PUSH2 0x61BA JUMP JUMPDEST JUMPDEST POP SWAP2 SWAP1 POP JUMP JUMPDEST PUSH0 DUP2 SWAP1 POP SWAP3 SWAP2 POP POP JUMP JUMPDEST PUSH0 PUSH2 0x622B DUP3 PUSH2 0x546D JUMP JUMPDEST PUSH2 0x6235 DUP2 DUP6 PUSH2 0x6217 JUMP JUMPDEST SWAP4 POP PUSH2 0x6245 DUP2 DUP6 PUSH1 0x20 DUP7 ADD PUSH2 0x5487 JUMP JUMPDEST DUP1 DUP5 ADD SWAP2 POP POP SWAP3 SWAP2 POP POP JUMP JUMPDEST PUSH0 PUSH2 0x625C DUP3 DUP5 PUSH2 0x6221 JUMP JUMPDEST SWAP2 POP DUP2 SWAP1 POP SWAP3 SWAP2 POP POP JUMP JUMPDEST PUSH32 0x4E487B7100000000000000000000000000000000000000000000000000000000 PUSH0 MSTORE PUSH1 0x32 PUSH1 0x4 MSTORE PUSH1 0x24 PUSH0 REVERT JUMPDEST PUSH32 0x4E487B7100000000000000000000000000000000000000000000000000000000 PUSH0 MSTORE PUSH1 0x11 PUSH1 0x4 MSTORE PUSH1 0x24 PUSH0 REVERT JUMPDEST PUSH0 PUSH2 0x62CB DUP3 PUSH2 0x5732 JUMP JUMPDEST SWAP2 POP PUSH2 0x62D6 DUP4 PUSH2 0x5732 JUMP JUMPDEST SWAP3 POP DUP3 DUP3 ADD SWAP1 POP DUP1 DUP3 GT ISZERO PUSH2 0x62EE JUMPI PUSH2 0x62ED PUSH2 0x6294 JUMP JUMPDEST JUMPDEST SWAP3 SWAP2 POP POP JUMP JUMPDEST PUSH32 0x4163636F756E74466163746F72793A206163636F756E7420616C726561647920 PUSH0 DUP3 ADD MSTORE PUSH32 0x7265676973746572656400000000000000000000000000000000000000000000 PUSH1 0x20 DUP3 ADD MSTORE POP JUMP JUMPDEST PUSH0 PUSH2 0x634E PUSH1 0x2A DUP4 PUSH2 0x4F4A JUMP JUMPDEST SWAP2 POP PUSH2 0x6359 DUP3 PUSH2 0x62F4 JUMP JUMPDEST PUSH1 0x40 DUP3 ADD SWAP1 POP SWAP2 SWAP1 POP JUMP JUMPDEST PUSH0 PUSH1 0x20 DUP3 ADD SWAP1 POP DUP2 DUP2 SUB PUSH0 DUP4 ADD MSTORE PUSH2 0x637B DUP2 PUSH2 0x6342 JUMP JUMPDEST SWAP1 POP SWAP2 SWAP1 POP JUMP JUMPDEST PUSH32 0x4E6F7420617574686F72697A6564000000000000000000000000000000000000 PUSH0 DUP3 ADD MSTORE POP JUMP JUMPDEST PUSH0 PUSH2 0x63B6 PUSH1 0xE DUP4 PUSH2 0x4F4A JUMP JUMPDEST SWAP2 POP PUSH2 0x63C1 DUP3 PUSH2 0x6382 JUMP JUMPDEST PUSH1 0x20 DUP3 ADD SWAP1 POP SWAP2 SWAP1 POP JUMP JUMPDEST PUSH0 PUSH1 0x20 DUP3 ADD SWAP1 POP DUP2 DUP2 SUB PUSH0 DUP4 ADD MSTORE PUSH2 0x63E3 DUP2 PUSH2 0x63AA JUMP JUMPDEST SWAP1 POP SWAP2 SWAP1 POP JUMP JUMPDEST PUSH0 DUP1 REVERT JUMPDEST PUSH0 DUP1 REVERT JUMPDEST PUSH0 DUP1 REVERT JUMPDEST PUSH0 DUP1 DUP4 CALLDATALOAD PUSH1 0x1 PUSH1 0x20 SUB DUP5 CALLDATASIZE SUB SUB DUP2 SLT PUSH2 0x6412 JUMPI PUSH2 0x6411 PUSH2 0x63EA JUMP JUMPDEST JUMPDEST DUP1 DUP5 ADD SWAP3 POP DUP3 CALLDATALOAD SWAP2 POP PUSH8 0xFFFFFFFFFFFFFFFF DUP3 GT ISZERO PUSH2 0x6434 JUMPI PUSH2 0x6433 PUSH2 0x63EE JUMP JUMPDEST JUMPDEST PUSH1 0x20 DUP4 ADD SWAP3 POP PUSH1 0x1 DUP3 MUL CALLDATASIZE SUB DUP4 SGT ISZERO PUSH2 0x6450 JUMPI PUSH2 0x644F PUSH2 0x63F2 JUMP JUMPDEST JUMPDEST POP SWAP3 POP SWAP3 SWAP1 POP JUMP JUMPDEST PUSH32 0x426173654163636F756E74466163746F72793A20696E76616C696420696E6469 PUSH0 DUP3 ADD MSTORE PUSH32 0x6365730000000000000000000000000000000000000000000000000000000000 PUSH1 0x20 DUP3 ADD MSTORE POP JUMP JUMPDEST PUSH0 PUSH2 0x64B2 PUSH1 0x23 DUP4 PUSH2 0x4F4A JUMP JUMPDEST SWAP2 POP PUSH2 0x64BD DUP3 PUSH2 0x6458 JUMP JUMPDEST PUSH1 0x40 DUP3 ADD SWAP1 POP SWAP2 SWAP1 POP JUMP JUMPDEST PUSH0 PUSH1 0x20 DUP3 ADD SWAP1 POP DUP2 DUP2 SUB PUSH0 DUP4 ADD MSTORE PUSH2 0x64DF DUP2 PUSH2 0x64A6 JUMP JUMPDEST SWAP1 POP SWAP2 SWAP1 POP JUMP JUMPDEST PUSH0 PUSH2 0x64F0 DUP3 PUSH2 0x5732 JUMP JUMPDEST SWAP2 POP PUSH2 0x64FB DUP4 PUSH2 0x5732 JUMP JUMPDEST SWAP3 POP DUP3 DUP3 SUB SWAP1 POP DUP2 DUP2 GT ISZERO PUSH2 0x6513 JUMPI PUSH2 0x6512 PUSH2 0x6294 JUMP JUMPDEST JUMPDEST SWAP3 SWAP2 POP POP JUMP JUMPDEST PUSH32 0x5065726D697373696F6E733A206163636F756E74200000000000000000000000 PUSH0 DUP3 ADD MSTORE POP JUMP JUMPDEST PUSH0 PUSH2 0x654D PUSH1 0x15 DUP4 PUSH2 0x6217 JUMP JUMPDEST SWAP2 POP PUSH2 0x6558 DUP3 PUSH2 0x6519 JUMP JUMPDEST PUSH1 0x15 DUP3 ADD SWAP1 POP SWAP2 SWAP1 POP JUMP JUMPDEST PUSH32 0x206973206D697373696E6720726F6C6520000000000000000000000000000000 PUSH0 DUP3 ADD MSTORE POP JUMP JUMPDEST PUSH0 PUSH2 0x6597 PUSH1 0x11 DUP4 PUSH2 0x6217 JUMP JUMPDEST SWAP2 POP PUSH2 0x65A2 DUP3 PUSH2 0x6563 JUMP JUMPDEST PUSH1 0x11 DUP3 ADD SWAP1 POP SWAP2 SWAP1 POP JUMP JUMPDEST PUSH0 PUSH2 0x65B7 DUP3 PUSH2 0x6541 JUMP JUMPDEST SWAP2 POP PUSH2 0x65C3 DUP3 DUP6 PUSH2 0x6221 JUMP JUMPDEST SWAP2 POP PUSH2 0x65CE DUP3 PUSH2 0x658B JUMP JUMPDEST SWAP2 POP PUSH2 0x65DA DUP3 DUP5 PUSH2 0x6221 JUMP JUMPDEST SWAP2 POP DUP2 SWAP1 POP SWAP4 SWAP3 POP POP POP JUMP JUMPDEST PUSH32 0x457874656E73696F6E4D616E616765723A20657874656E73696F6E20646F6573 PUSH0 DUP3 ADD MSTORE PUSH32 0x206E6F742065786973742E000000000000000000000000000000000000000000 PUSH1 0x20 DUP3 ADD MSTORE POP JUMP JUMPDEST PUSH0 PUSH2 0x6640 PUSH1 0x2B DUP4 PUSH2 0x4F4A JUMP JUMPDEST SWAP2 POP PUSH2 0x664B DUP3 PUSH2 0x65E6 JUMP JUMPDEST PUSH1 0x40 DUP3 ADD SWAP1 POP SWAP2 SWAP1 POP JUMP JUMPDEST PUSH0 PUSH1 0x20 DUP3 ADD SWAP1 POP DUP2 DUP2 SUB PUSH0 DUP4 ADD MSTORE PUSH2 0x666D DUP2 PUSH2 0x6634 JUMP JUMPDEST SWAP1 POP SWAP2 SWAP1 POP JUMP JUMPDEST PUSH0 DUP2 SWAP1 POP DUP2 PUSH0 MSTORE PUSH1 0x20 PUSH0 KECCAK256 SWAP1 POP SWAP2 SWAP1 POP JUMP JUMPDEST PUSH0 DUP2 SLOAD PUSH2 0x6692 DUP2 PUSH2 0x61E7 JUMP JUMPDEST PUSH2 0x669C DUP2 DUP7 PUSH2 0x4F4A JUMP JUMPDEST SWAP5 POP PUSH1 0x1 DUP3 AND PUSH0 DUP2 EQ PUSH2 0x66B6 JUMPI PUSH1 0x1 DUP2 EQ PUSH2 0x66CC JUMPI PUSH2 0x66FE JUMP JUMPDEST PUSH1 0xFF NOT DUP4 AND DUP7 MSTORE DUP2 ISZERO ISZERO PUSH1 0x20 MUL DUP7 ADD SWAP4 POP PUSH2 0x66FE JUMP JUMPDEST PUSH2 0x66D5 DUP6 PUSH2 0x6674 JUMP JUMPDEST PUSH0 JUMPDEST DUP4 DUP2 LT ISZERO PUSH2 0x66F6 JUMPI DUP2 SLOAD DUP2 DUP10 ADD MSTORE PUSH1 0x1 DUP3 ADD SWAP2 POP PUSH1 0x20 DUP2 ADD SWAP1 POP PUSH2 0x66D7 JUMP JUMPDEST DUP1 DUP9 ADD SWAP6 POP POP POP JUMPDEST POP POP POP SWAP3 SWAP2 POP POP JUMP JUMPDEST PUSH0 PUSH1 0x20 DUP3 ADD SWAP1 POP DUP2 DUP2 SUB PUSH0 DUP4 ADD MSTORE PUSH2 0x671F DUP2 DUP5 PUSH2 0x6686 JUMP JUMPDEST SWAP1 POP SWAP3 SWAP2 POP POP JUMP JUMPDEST PUSH32 0x457874656E73696F6E4D616E616765723A20696E636F72726563742065787465 PUSH0 DUP3 ADD MSTORE PUSH32 0x6E73696F6E2E0000000000000000000000000000000000000000000000000000 PUSH1 0x20 DUP3 ADD MSTORE POP JUMP JUMPDEST PUSH0 PUSH2 0x6781 PUSH1 0x26 DUP4 PUSH2 0x4F4A JUMP JUMPDEST SWAP2 POP PUSH2 0x678C DUP3 PUSH2 0x6727 JUMP JUMPDEST PUSH1 0x40 DUP3 ADD SWAP1 POP SWAP2 SWAP1 POP JUMP JUMPDEST PUSH0 PUSH1 0x20 DUP3 ADD SWAP1 POP DUP2 DUP2 SUB PUSH0 DUP4 ADD MSTORE PUSH2 0x67AE DUP2 PUSH2 0x6775 JUMP JUMPDEST SWAP1 POP SWAP2 SWAP1 POP JUMP JUMPDEST PUSH0 DUP2 SLOAD SWAP1 POP PUSH2 0x67C3 DUP2 PUSH2 0x61E7 JUMP JUMPDEST SWAP1 POP SWAP2 SWAP1 POP JUMP JUMPDEST PUSH0 PUSH1 0x20 PUSH1 0x1F DUP4 ADD DIV SWAP1 POP SWAP2 SWAP1 POP JUMP JUMPDEST PUSH0 DUP3 DUP3 SHL SWAP1 POP SWAP3 SWAP2 POP POP JUMP JUMPDEST PUSH0 PUSH1 0x8 DUP4 MUL PUSH2 0x6814 PUSH32 0xFFFFFFFFFFFFFFFFFFFFFFFFFFFFFFFFFFFFFFFFFFFFFFFFFFFFFFFFFFFFFFFF DUP3 PUSH2 0x67D9 JUMP JUMPDEST PUSH2 0x681E DUP7 DUP4 PUSH2 0x67D9 JUMP JUMPDEST SWAP6 POP DUP1 NOT DUP5 AND SWAP4 POP DUP1 DUP7 AND DUP5 OR SWAP3 POP POP POP SWAP4 SWAP3 POP POP POP JUMP JUMPDEST PUSH0 DUP2 SWAP1 POP SWAP2 SWAP1 POP JUMP JUMPDEST PUSH0 PUSH2 0x6859 PUSH2 0x6854 PUSH2 0x684F DUP5 PUSH2 0x5732 JUMP JUMPDEST PUSH2 0x6836 JUMP JUMPDEST PUSH2 0x5732 JUMP JUMPDEST SWAP1 POP SWAP2 SWAP1 POP JUMP JUMPDEST PUSH0 DUP2 SWAP1 POP SWAP2 SWAP1 POP JUMP JUMPDEST PUSH2 0x6872 DUP4 PUSH2 0x683F JUMP JUMPDEST PUSH2 0x6886 PUSH2 0x687E DUP3 PUSH2 0x6860 JUMP JUMPDEST DUP5 DUP5 SLOAD PUSH2 0x67E5 JUMP JUMPDEST DUP3 SSTORE POP POP POP POP JUMP JUMPDEST PUSH0 SWAP1 JUMP JUMPDEST PUSH2 0x689A PUSH2 0x688E JUMP JUMPDEST PUSH2 0x68A5 DUP2 DUP5 DUP5 PUSH2 0x6869 JUMP JUMPDEST POP POP POP JUMP JUMPDEST JUMPDEST DUP2 DUP2 LT ISZERO PUSH2 0x68C8 JUMPI PUSH2 0x68BD PUSH0 DUP3 PUSH2 0x6892 JUMP JUMPDEST PUSH1 0x1 DUP2 ADD SWAP1 POP PUSH2 0x68AB JUMP JUMPDEST POP POP JUMP JUMPDEST PUSH1 0x1F DUP3 GT ISZERO PUSH2 0x690D JUMPI PUSH2 0x68DE DUP2 PUSH2 0x6674 JUMP JUMPDEST PUSH2 0x68E7 DUP5 PUSH2 0x67CA JUMP JUMPDEST DUP2 ADD PUSH1 0x20 DUP6 LT ISZERO PUSH2 0x68F6 JUMPI DUP2 SWAP1 POP JUMPDEST PUSH2 0x690A PUSH2 0x6902 DUP6 PUSH2 0x67CA JUMP JUMPDEST DUP4 ADD DUP3 PUSH2 0x68AA JUMP JUMPDEST POP POP JUMPDEST POP POP POP JUMP JUMPDEST PUSH0 DUP3 DUP3 SHR SWAP1 POP SWAP3 SWAP2 POP POP JUMP JUMPDEST PUSH0 PUSH2 0x692D PUSH0 NOT DUP5 PUSH1 0x8 MUL PUSH2 0x6912 JUMP JUMPDEST NOT DUP1 DUP4 AND SWAP2 POP POP SWAP3 SWAP2 POP POP JUMP JUMPDEST PUSH0 PUSH2 0x6945 DUP4 DUP4 PUSH2 0x691E JUMP JUMPDEST SWAP2 POP DUP3 PUSH1 0x2 MUL DUP3 OR SWAP1 POP SWAP3 SWAP2 POP POP JUMP JUMPDEST DUP2 DUP2 SUB PUSH2 0x6963 JUMPI POP POP PUSH2 0x6A38 JUMP JUMPDEST PUSH2 0x696C DUP3 PUSH2 0x67B5 JUMP JUMPDEST PUSH8 0xFFFFFFFFFFFFFFFF DUP2 GT ISZERO PUSH2 0x6985 JUMPI PUSH2 0x6984 PUSH2 0x5271 JUMP JUMPDEST JUMPDEST PUSH2 0x698F DUP3 SLOAD PUSH2 0x61E7 JUMP JUMPDEST PUSH2 0x699A DUP3 DUP3 DUP6 PUSH2 0x68CC JUMP JUMPDEST PUSH0 PUSH1 0x1F DUP4 GT PUSH1 0x1 DUP2 EQ PUSH2 0x69C7 JUMPI PUSH0 DUP5 ISZERO PUSH2 0x69B5 JUMPI DUP3 DUP8 ADD SLOAD SWAP1 POP JUMPDEST PUSH2 0x69BF DUP6 DUP3 PUSH2 0x693A JUMP JUMPDEST DUP7 SSTORE POP PUSH2 0x6A31 JUMP JUMPDEST PUSH1 0x1F NOT DUP5 AND PUSH2 0x69D5 DUP8 PUSH2 0x6674 JUMP JUMPDEST SWAP7 POP PUSH2 0x69E0 DUP7 PUSH2 0x6674 JUMP JUMPDEST PUSH0 JUMPDEST DUP3 DUP2 LT ISZERO PUSH2 0x6A07 JUMPI DUP5 DUP10 ADD SLOAD DUP3 SSTORE PUSH1 0x1 DUP3 ADD SWAP2 POP PUSH1 0x1 DUP6 ADD SWAP5 POP PUSH1 0x20 DUP2 ADD SWAP1 POP PUSH2 0x69E2 JUMP JUMPDEST DUP7 DUP4 LT ISZERO PUSH2 0x6A24 JUMPI DUP5 DUP10 ADD SLOAD PUSH2 0x6A20 PUSH1 0x1F DUP10 AND DUP3 PUSH2 0x691E JUMP JUMPDEST DUP4 SSTORE POP JUMPDEST PUSH1 0x1 PUSH1 0x2 DUP9 MUL ADD DUP9 SSTORE POP POP POP JUMPDEST POP POP POP POP POP POP JUMPDEST JUMP JUMPDEST PUSH32 0x4E487B7100000000000000000000000000000000000000000000000000000000 PUSH0 MSTORE PUSH1 0x31 PUSH1 0x4 MSTORE PUSH1 0x24 PUSH0 REVERT JUMPDEST PUSH32 0x457874656E73696F6E4D616E616765723A2063616E6E6F742053746F72653A20 PUSH0 DUP3 ADD MSTORE PUSH32 0x66756E6374696F6E20666F7220657874656E73696F6E2E000000000000000000 PUSH1 0x20 DUP3 ADD MSTORE POP JUMP JUMPDEST PUSH0 PUSH2 0x6AC1 PUSH1 0x37 DUP4 PUSH2 0x4F4A JUMP JUMPDEST SWAP2 POP PUSH2 0x6ACC DUP3 PUSH2 0x6A67 JUMP JUMPDEST PUSH1 0x40 DUP3 ADD SWAP1 POP SWAP2 SWAP1 POP JUMP JUMPDEST PUSH0 PUSH1 0x20 DUP3 ADD SWAP1 POP DUP2 DUP2 SUB PUSH0 DUP4 ADD MSTORE PUSH2 0x6AEE DUP2 PUSH2 0x6AB5 JUMP JUMPDEST SWAP1 POP SWAP2 SWAP1 POP JUMP JUMPDEST PUSH0 PUSH1 0x40 DUP4 ADD PUSH0 DUP4 ADD MLOAD PUSH2 0x6B0A PUSH0 DUP7 ADD DUP3 PUSH2 0x5564 JUMP JUMPDEST POP PUSH1 0x20 DUP4 ADD MLOAD DUP5 DUP3 SUB PUSH1 0x20 DUP7 ADD MSTORE PUSH2 0x6B22 DUP3 DUP3 PUSH2 0x54AF JUMP JUMPDEST SWAP2 POP POP DUP1 SWAP2 POP POP SWAP3 SWAP2 POP POP JUMP JUMPDEST PUSH0 PUSH1 0x40 DUP3 ADD SWAP1 POP DUP2 DUP2 SUB PUSH0 DUP4 ADD MSTORE PUSH2 0x6B47 DUP2 DUP6 PUSH2 0x6AF5 JUMP JUMPDEST SWAP1 POP DUP2 DUP2 SUB PUSH1 0x20 DUP4 ADD MSTORE PUSH2 0x6B5B DUP2 DUP5 PUSH2 0x5A11 JUMP JUMPDEST SWAP1 POP SWAP4 SWAP3 POP POP POP JUMP JUMPDEST PUSH0 DUP3 DUP3 MSTORE PUSH1 0x20 DUP3 ADD SWAP1 POP SWAP3 SWAP2 POP POP JUMP JUMPDEST PUSH0 PUSH2 0x6B7E DUP3 PUSH2 0x5B4E JUMP JUMPDEST PUSH2 0x6B88 DUP2 DUP6 PUSH2 0x6B64 JUMP JUMPDEST SWAP4 POP PUSH2 0x6B98 DUP2 DUP6 PUSH1 0x20 DUP7 ADD PUSH2 0x5487 JUMP JUMPDEST PUSH2 0x6BA1 DUP2 PUSH2 0x5261 JUMP JUMPDEST DUP5 ADD SWAP2 POP POP SWAP3 SWAP2 POP POP JUMP JUMPDEST PUSH0 PUSH1 0x40 DUP3 ADD SWAP1 POP PUSH2 0x6BBF PUSH0 DUP4 ADD DUP6 PUSH2 0x51A0 JUMP JUMPDEST DUP2 DUP2 SUB PUSH1 0x20 DUP4 ADD MSTORE PUSH2 0x6BD1 DUP2 DUP5 PUSH2 0x6B74 JUMP JUMPDEST SWAP1 POP SWAP4 SWAP3 POP POP POP JUMP JUMPDEST PUSH2 0x6BE3 DUP3 PUSH2 0x546D JUMP JUMPDEST PUSH8 0xFFFFFFFFFFFFFFFF DUP2 GT ISZERO PUSH2 0x6BFC JUMPI PUSH2 0x6BFB PUSH2 0x5271 JUMP JUMPDEST JUMPDEST PUSH2 0x6C06 DUP3 SLOAD PUSH2 0x61E7 JUMP JUMPDEST PUSH2 0x6C11 DUP3 DUP3 DUP6 PUSH2 0x68CC JUMP JUMPDEST PUSH0 PUSH1 0x20 SWAP1 POP PUSH1 0x1F DUP4 GT PUSH1 0x1 DUP2 EQ PUSH2 0x6C42 JUMPI PUSH0 DUP5 ISZERO PUSH2 0x6C30 JUMPI DUP3 DUP8 ADD MLOAD SWAP1 POP JUMPDEST PUSH2 0x6C3A DUP6 DUP3 PUSH2 0x693A JUMP JUMPDEST DUP7 SSTORE POP PUSH2 0x6CA1 JUMP JUMPDEST PUSH1 0x1F NOT DUP5 AND PUSH2 0x6C50 DUP7 PUSH2 0x6674 JUMP JUMPDEST PUSH0 JUMPDEST DUP3 DUP2 LT ISZERO PUSH2 0x6C77 JUMPI DUP5 DUP10 ADD MLOAD DUP3 SSTORE PUSH1 0x1 DUP3 ADD SWAP2 POP PUSH1 0x20 DUP6 ADD SWAP5 POP PUSH1 0x20 DUP2 ADD SWAP1 POP PUSH2 0x6C52 JUMP JUMPDEST DUP7 DUP4 LT ISZERO PUSH2 0x6C94 JUMPI DUP5 DUP10 ADD MLOAD PUSH2 0x6C90 PUSH1 0x1F DUP10 AND DUP3 PUSH2 0x691E JUMP JUMPDEST DUP4 SSTORE POP JUMPDEST PUSH1 0x1 PUSH1 0x2 DUP9 MUL ADD DUP9 SSTORE POP POP POP JUMPDEST POP POP POP POP POP POP JUMP JUMPDEST PUSH0 PUSH1 0x40 DUP3 ADD SWAP1 POP DUP2 DUP2 SUB PUSH0 DUP4 ADD MSTORE PUSH2 0x6CC1 DUP2 DUP6 PUSH2 0x5F34 JUMP JUMPDEST SWAP1 POP DUP2 DUP2 SUB PUSH1 0x20 DUP4 ADD MSTORE PUSH2 0x6CD5 DUP2 DUP5 PUSH2 0x5F34 JUMP JUMPDEST SWAP1 POP SWAP4 SWAP3 POP POP POP JUMP JUMPDEST PUSH32 0x457874656E73696F6E4D616E616765723A2063616E6E6F74207265706C616365 PUSH0 DUP3 ADD MSTORE PUSH32 0x20657874656E73696F6E2E000000000000000000000000000000000000000000 PUSH1 0x20 DUP3 ADD MSTORE POP JUMP JUMPDEST PUSH0 PUSH2 0x6D38 PUSH1 0x2B DUP4 PUSH2 0x4F4A JUMP JUMPDEST SWAP2 POP PUSH2 0x6D43 DUP3 PUSH2 0x6CDE JUMP JUMPDEST PUSH1 0x40 DUP3 ADD SWAP1 POP SWAP2 SWAP1 POP JUMP JUMPDEST PUSH0 PUSH1 0x20 DUP3 ADD SWAP1 POP DUP2 DUP2 SUB PUSH0 DUP4 ADD MSTORE PUSH2 0x6D65 DUP2 PUSH2 0x6D2C JUMP JUMPDEST SWAP1 POP SWAP2 SWAP1 POP JUMP JUMPDEST PUSH32 0x455243313136373A2063726561746532206661696C6564000000000000000000 PUSH0 DUP3 ADD MSTORE POP JUMP JUMPDEST PUSH0 PUSH2 0x6DA0 PUSH1 0x17 DUP4 PUSH2 0x4F4A JUMP JUMPDEST SWAP2 POP PUSH2 0x6DAB DUP3 PUSH2 0x6D6C JUMP JUMPDEST PUSH1 0x20 DUP3 ADD SWAP1 POP SWAP2 SWAP1 POP JUMP JUMPDEST PUSH0 PUSH1 0x20 DUP3 ADD SWAP1 POP DUP2 DUP2 SUB PUSH0 DUP4 ADD MSTORE PUSH2 0x6DCD DUP2 PUSH2 0x6D94 JUMP JUMPDEST SWAP1 POP SWAP2 SWAP1 POP JUMP JUMPDEST PUSH0 PUSH2 0x6DDF DUP4 DUP6 PUSH2 0x6B64 JUMP JUMPDEST SWAP4 POP PUSH2 0x6DEC DUP4 DUP6 DUP5 PUSH2 0x5319 JUMP JUMPDEST PUSH2 0x6DF5 DUP4 PUSH2 0x5261 JUMP JUMPDEST DUP5 ADD SWAP1 POP SWAP4 SWAP3 POP POP POP JUMP JUMPDEST PUSH0 PUSH1 0x40 DUP3 ADD SWAP1 POP PUSH2 0x6E13 PUSH0 DUP4 ADD DUP7 PUSH2 0x51A0 JUMP JUMPDEST DUP2 DUP2 SUB PUSH1 0x20 DUP4 ADD MSTORE PUSH2 0x6E26 DUP2 DUP5 DUP7 PUSH2 0x6DD4 JUMP JUMPDEST SWAP1 POP SWAP5 SWAP4 POP POP POP POP JUMP JUMPDEST PUSH32 0x457874656E73696F6E4D616E616765723A2063616E6E6F742061646420657874 PUSH0 DUP3 ADD MSTORE PUSH32 0x656E73696F6E2E00000000000000000000000000000000000000000000000000 PUSH1 0x20 DUP3 ADD MSTORE POP JUMP JUMPDEST PUSH0 PUSH2 0x6E8A PUSH1 0x27 DUP4 PUSH2 0x4F4A JUMP JUMPDEST SWAP2 POP PUSH2 0x6E95 DUP3 PUSH2 0x6E30 JUMP JUMPDEST PUSH1 0x40 DUP3 ADD SWAP1 POP SWAP2 SWAP1 POP JUMP JUMPDEST PUSH0 PUSH1 0x20 DUP3 ADD SWAP1 POP DUP2 DUP2 SUB PUSH0 DUP4 ADD MSTORE PUSH2 0x6EB7 DUP2 PUSH2 0x6E7E JUMP JUMPDEST SWAP1 POP SWAP2 SWAP1 POP JUMP JUMPDEST PUSH32 0x457874656E73696F6E4D616E616765723A2063616E6E6F742072656D6F766520 PUSH0 DUP3 ADD MSTORE PUSH32 0x657874656E73696F6E2E00000000000000000000000000000000000000000000 PUSH1 0x20 DUP3 ADD MSTORE POP JUMP JUMPDEST PUSH0 PUSH2 0x6F18 PUSH1 0x2A DUP4 PUSH2 0x4F4A JUMP JUMPDEST SWAP2 POP PUSH2 0x6F23 DUP3 PUSH2 0x6EBE JUMP JUMPDEST PUSH1 0x40 DUP3 ADD SWAP1 POP SWAP2 SWAP1 POP JUMP JUMPDEST PUSH0 PUSH1 0x20 DUP3 ADD SWAP1 POP DUP2 DUP2 SUB PUSH0 DUP4 ADD MSTORE PUSH2 0x6F45 DUP2 PUSH2 0x6F0C JUMP JUMPDEST SWAP1 POP SWAP2 SWAP1 POP JUMP JUMPDEST PUSH0 PUSH2 0x6F56 DUP3 PUSH2 0x5732 JUMP JUMPDEST SWAP2 POP PUSH2 0x6F61 DUP4 PUSH2 0x5732 JUMP JUMPDEST SWAP3 POP DUP3 DUP3 MUL PUSH2 0x6F6F DUP2 PUSH2 0x5732 JUMP JUMPDEST SWAP2 POP DUP3 DUP3 DIV DUP5 EQ DUP4 ISZERO OR PUSH2 0x6F86 JUMPI PUSH2 0x6F85 PUSH2 0x6294 JUMP JUMPDEST JUMPDEST POP SWAP3 SWAP2 POP POP JUMP JUMPDEST PUSH0 PUSH2 0x6F97 DUP3 PUSH2 0x5732 JUMP JUMPDEST SWAP2 POP PUSH0 DUP3 SUB PUSH2 0x6FA9 JUMPI PUSH2 0x6FA8 PUSH2 0x6294 JUMP JUMPDEST JUMPDEST PUSH1 0x1 DUP3 SUB SWAP1 POP SWAP2 SWAP1 POP JUMP JUMPDEST PUSH32 0x537472696E67733A20686578206C656E67746820696E73756666696369656E74 PUSH0 DUP3 ADD MSTORE POP JUMP JUMPDEST PUSH0 PUSH2 0x6FE8 PUSH1 0x20 DUP4 PUSH2 0x4F4A JUMP JUMPDEST SWAP2 POP PUSH2 0x6FF3 DUP3 PUSH2 0x6FB4 JUMP JUMPDEST PUSH1 0x20 DUP3 ADD SWAP1 POP SWAP2 SWAP1 POP JUMP JUMPDEST PUSH0 PUSH1 0x20 DUP3 ADD SWAP1 POP DUP2 DUP2 SUB PUSH0 DUP4 ADD MSTORE PUSH2 0x7015 DUP2 PUSH2 0x6FDC JUMP JUMPDEST SWAP1 POP SWAP2 SWAP1 POP JUMP JUMPDEST PUSH32 0x7265636569766528290000000000000000000000000000000000000000000000 PUSH0 DUP3 ADD MSTORE POP JUMP JUMPDEST PUSH0 PUSH2 0x7050 PUSH1 0x9 DUP4 PUSH2 0x4F4A JUMP JUMPDEST SWAP2 POP PUSH2 0x705B DUP3 PUSH2 0x701C JUMP JUMPDEST PUSH1 0x20 DUP3 ADD SWAP1 POP SWAP2 SWAP1 POP JUMP JUMPDEST PUSH0 PUSH1 0x20 DUP3 ADD SWAP1 POP DUP2 DUP2 SUB PUSH0 DUP4 ADD MSTORE PUSH2 0x707D DUP2 PUSH2 0x7044 JUMP JUMPDEST SWAP1 POP SWAP2 SWAP1 POP JUMP JUMPDEST PUSH32 0x457874656E73696F6E4D616E616765723A20666E2073656C6563746F7220616E PUSH0 DUP3 ADD MSTORE PUSH32 0x64207369676E6174757265206D69736D617463682E0000000000000000000000 PUSH1 0x20 DUP3 ADD MSTORE POP JUMP JUMPDEST PUSH0 PUSH2 0x70DE PUSH1 0x35 DUP4 PUSH2 0x4F4A JUMP JUMPDEST SWAP2 POP PUSH2 0x70E9 DUP3 PUSH2 0x7084 JUMP JUMPDEST PUSH1 0x40 DUP3 ADD SWAP1 POP SWAP2 SWAP1 POP JUMP JUMPDEST PUSH0 PUSH1 0x20 DUP3 ADD SWAP1 POP DUP2 DUP2 SUB PUSH0 DUP4 ADD MSTORE PUSH2 0x710B DUP2 PUSH2 0x70D2 JUMP JUMPDEST SWAP1 POP SWAP2 SWAP1 POP JUMP JUMPDEST PUSH32 0x457874656E73696F6E4D616E616765723A2066756E6374696F6E20696D706C20 PUSH0 DUP3 ADD MSTORE PUSH32 0x616C7265616479206578697374732E0000000000000000000000000000000000 PUSH1 0x20 DUP3 ADD MSTORE POP JUMP JUMPDEST PUSH0 PUSH2 0x716C PUSH1 0x2F DUP4 PUSH2 0x4F4A JUMP JUMPDEST SWAP2 POP PUSH2 0x7177 DUP3 PUSH2 0x7112 JUMP JUMPDEST PUSH1 0x40 DUP3 ADD SWAP1 POP SWAP2 SWAP1 POP JUMP JUMPDEST PUSH0 PUSH1 0x20 DUP3 ADD SWAP1 POP DUP2 DUP2 SUB PUSH0 DUP4 ADD MSTORE PUSH2 0x7199 DUP2 PUSH2 0x7160 JUMP JUMPDEST SWAP1 POP SWAP2 SWAP1 POP JUMP JUMPDEST PUSH32 0x416464726573733A20696E76616C69642064656C65676174652063616C6C0000 PUSH0 DUP3 ADD MSTORE POP JUMP JUMPDEST PUSH0 PUSH2 0x71D4 PUSH1 0x1E DUP4 PUSH2 0x4F4A JUMP JUMPDEST SWAP2 POP PUSH2 0x71DF DUP3 PUSH2 0x71A0 JUMP JUMPDEST PUSH1 0x20 DUP3 ADD SWAP1 POP SWAP2 SWAP1 POP JUMP JUMPDEST PUSH0 PUSH1 0x20 DUP3 ADD SWAP1 POP DUP2 DUP2 SUB PUSH0 DUP4 ADD MSTORE PUSH2 0x7201 DUP2 PUSH2 0x71C8 JUMP JUMPDEST SWAP1 POP SWAP2 SWAP1 POP JUMP JUMPDEST PUSH0 DUP2 SWAP1 POP SWAP3 SWAP2 POP POP JUMP JUMPDEST PUSH0 PUSH2 0x721C DUP3 PUSH2 0x5B4E JUMP JUMPDEST PUSH2 0x7226 DUP2 DUP6 PUSH2 0x7208 JUMP JUMPDEST SWAP4 POP PUSH2 0x7236 DUP2 DUP6 PUSH1 0x20 DUP7 ADD PUSH2 0x5487 JUMP JUMPDEST DUP1 DUP5 ADD SWAP2 POP POP SWAP3 SWAP2 POP POP JUMP JUMPDEST PUSH0 PUSH2 0x724D DUP3 DUP5 PUSH2 0x7212 JUMP JUMPDEST SWAP2 POP DUP2 SWAP1 POP SWAP3 SWAP2 POP POP JUMP JUMPDEST PUSH32 0x457874656E73696F6E4D616E616765723A20616464696E6720657874656E7369 PUSH0 DUP3 ADD MSTORE PUSH32 0x6F6E20776974686F757420696D706C656D656E746174696F6E2E000000000000 PUSH1 0x20 DUP3 ADD MSTORE POP JUMP JUMPDEST PUSH0 PUSH2 0x72B2 PUSH1 0x3A DUP4 PUSH2 0x4F4A JUMP JUMPDEST SWAP2 POP PUSH2 0x72BD DUP3 PUSH2 0x7258 JUMP JUMPDEST PUSH1 0x40 DUP3 ADD SWAP1 POP SWAP2 SWAP1 POP JUMP JUMPDEST PUSH0 PUSH1 0x20 DUP3 ADD SWAP1 POP DUP2 DUP2 SUB PUSH0 DUP4 ADD MSTORE PUSH2 0x72DF DUP2 PUSH2 0x72A6 JUMP JUMPDEST SWAP1 POP SWAP2 SWAP1 POP JUMP JUMPDEST PUSH32 0x457874656E73696F6E4D616E616765723A20656D707479206E616D652E000000 PUSH0 DUP3 ADD MSTORE POP JUMP JUMPDEST PUSH0 PUSH2 0x731A PUSH1 0x1D DUP4 PUSH2 0x4F4A JUMP JUMPDEST SWAP2 POP PUSH2 0x7325 DUP3 PUSH2 0x72E6 JUMP JUMPDEST PUSH1 0x20 DUP3 ADD SWAP1 POP SWAP2 SWAP1 POP JUMP JUMPDEST PUSH0 PUSH1 0x20 DUP3 ADD SWAP1 POP DUP2 DUP2 SUB PUSH0 DUP4 ADD MSTORE PUSH2 0x7347 DUP2 PUSH2 0x730E JUMP JUMPDEST SWAP1 POP SWAP2 SWAP1 POP JUMP JUMPDEST PUSH32 0x457874656E73696F6E4D616E616765723A20657874656E73696F6E20616C7265 PUSH0 DUP3 ADD MSTORE PUSH32 0x616479206578697374732E000000000000000000000000000000000000000000 PUSH1 0x20 DUP3 ADD MSTORE POP JUMP JUMPDEST PUSH0 PUSH2 0x73A8 PUSH1 0x2B DUP4 PUSH2 0x4F4A JUMP JUMPDEST SWAP2 POP PUSH2 0x73B3 DUP3 PUSH2 0x734E JUMP JUMPDEST PUSH1 0x40 DUP3 ADD SWAP1 POP SWAP2 SWAP1 POP JUMP JUMPDEST PUSH0 PUSH1 0x20 DUP3 ADD SWAP1 POP DUP2 DUP2 SUB PUSH0 DUP4 ADD MSTORE PUSH2 0x73D5 DUP2 PUSH2 0x739C JUMP JUMPDEST SWAP1 POP SWAP2 SWAP1 POP JUMP INVALID COINBASE PUSH5 0x6472657373 GASPRICE KECCAK256 PUSH13 0x6F772D6C6576656C2064656C65 PUSH8 0x6174652063616C6C KECCAK256 PUSH7 0x61696C6564A264 PUSH10 0x7066735822122064D639 DIV 0x4F BLOBBASEFEE PUSH27 0x34CC5F982AD2425D06FA01E1CE70195E667E79BBFD76F5CAF36473 PUSH16 0x6C634300081800336101806040523480 ISZERO PUSH3 0x11 JUMPI PUSH0 DUP1 REVERT JUMPDEST POP PUSH1 0x40 MLOAD PUSH3 0x605C CODESIZE SUB DUP1 PUSH3 0x605C DUP4 CODECOPY DUP2 DUP2 ADD PUSH1 0x40 MSTORE DUP2 ADD SWAP1 PUSH3 0x37 SWAP2 SWAP1 PUSH3 0x400 JUMP JUMPDEST DUP2 DUP2 PUSH1 0x40 MLOAD DUP1 PUSH1 0x40 ADD PUSH1 0x40 MSTORE DUP1 PUSH1 0x7 DUP2 MSTORE PUSH1 0x20 ADD PUSH32 0x4163636F756E7400000000000000000000000000000000000000000000000000 DUP2 MSTORE POP PUSH1 0x40 MLOAD DUP1 PUSH1 0x40 ADD PUSH1 0x40 MSTORE DUP1 PUSH1 0x1 DUP2 MSTORE PUSH1 0x20 ADD PUSH32 0x3100000000000000000000000000000000000000000000000000000000000000 DUP2 MSTORE POP PUSH0 DUP3 DUP1 MLOAD SWAP1 PUSH1 0x20 ADD KECCAK256 SWAP1 POP PUSH0 DUP3 DUP1 MLOAD SWAP1 PUSH1 0x20 ADD KECCAK256 SWAP1 POP PUSH0 PUSH32 0x8B73C3C69BB8FE3D512ECC4CF759CC79239F7B179B0FFACAA9A75D522B39400F SWAP1 POP DUP3 PUSH1 0xE0 DUP2 DUP2 MSTORE POP POP DUP2 PUSH2 0x100 DUP2 DUP2 MSTORE POP POP CHAINID PUSH1 0xA0 DUP2 DUP2 MSTORE POP POP PUSH3 0x10B DUP2 DUP5 DUP5 PUSH3 0x1D8 PUSH1 0x20 SHL PUSH1 0x20 SHR JUMP JUMPDEST PUSH1 0x80 DUP2 DUP2 MSTORE POP POP ADDRESS PUSH20 0xFFFFFFFFFFFFFFFFFFFFFFFFFFFFFFFFFFFFFFFF AND PUSH1 0xC0 DUP2 PUSH20 0xFFFFFFFFFFFFFFFFFFFFFFFFFFFFFFFFFFFFFFFF AND DUP2 MSTORE POP POP DUP1 PUSH2 0x120 DUP2 DUP2 MSTORE POP POP POP POP POP POP POP PUSH3 0x164 PUSH3 0x213 PUSH1 0x20 SHL PUSH1 0x20 SHR JUMP JUMPDEST DUP1 PUSH20 0xFFFFFFFFFFFFFFFFFFFFFFFFFFFFFFFFFFFFFFFF AND PUSH2 0x140 DUP2 PUSH20 0xFFFFFFFFFFFFFFFFFFFFFFFFFFFFFFFFFFFFFFFF AND DUP2 MSTORE POP POP DUP2 PUSH20 0xFFFFFFFFFFFFFFFFFFFFFFFFFFFFFFFFFFFFFFFF AND PUSH2 0x160 DUP2 PUSH20 0xFFFFFFFFFFFFFFFFFFFFFFFFFFFFFFFFFFFFFFFF AND DUP2 MSTORE POP POP POP POP POP POP PUSH3 0x5C1 JUMP JUMPDEST PUSH0 DUP4 DUP4 DUP4 CHAINID ADDRESS PUSH1 0x40 MLOAD PUSH1 0x20 ADD PUSH3 0x1F4 SWAP6 SWAP5 SWAP4 SWAP3 SWAP2 SWAP1 PUSH3 0x48A JUMP JUMPDEST PUSH1 0x40 MLOAD PUSH1 0x20 DUP2 DUP4 SUB SUB DUP2 MSTORE SWAP1 PUSH1 0x40 MSTORE DUP1 MLOAD SWAP1 PUSH1 0x20 ADD KECCAK256 SWAP1 POP SWAP4 SWAP3 POP POP POP JUMP JUMPDEST PUSH0 PUSH3 0x224 PUSH3 0x315 PUSH1 0x20 SHL PUSH1 0x20 SHR JUMP JUMPDEST PUSH0 ADD PUSH0 SWAP1 SLOAD SWAP1 PUSH2 0x100 EXP SWAP1 DIV PUSH1 0xFF AND SWAP1 POP PUSH0 PUSH3 0x246 PUSH3 0x315 PUSH1 0x20 SHL PUSH1 0x20 SHR JUMP JUMPDEST PUSH0 ADD PUSH1 0x1 SWAP1 SLOAD SWAP1 PUSH2 0x100 EXP SWAP1 DIV PUSH1 0xFF AND SWAP1 POP DUP1 ISZERO PUSH3 0x29C JUMPI PUSH1 0x40 MLOAD PUSH32 0x8C379A000000000000000000000000000000000000000000000000000000000 DUP2 MSTORE PUSH1 0x4 ADD PUSH3 0x293 SWAP1 PUSH3 0x569 JUMP JUMPDEST PUSH1 0x40 MLOAD DUP1 SWAP2 SUB SWAP1 REVERT JUMPDEST PUSH1 0xFF DUP1 AND DUP3 PUSH1 0xFF AND LT ISZERO PUSH3 0x311 JUMPI PUSH1 0xFF PUSH3 0x2BD PUSH3 0x315 PUSH1 0x20 SHL PUSH1 0x20 SHR JUMP JUMPDEST PUSH0 ADD PUSH0 PUSH2 0x100 EXP DUP2 SLOAD DUP2 PUSH1 0xFF MUL NOT AND SWAP1 DUP4 PUSH1 0xFF AND MUL OR SWAP1 SSTORE POP PUSH32 0x7F26B83FF96E1F2B6A682F133852F6798A09C465DA95921460CEFB3847402498 PUSH1 0xFF PUSH1 0x40 MLOAD PUSH3 0x308 SWAP2 SWAP1 PUSH3 0x5A6 JUMP JUMPDEST PUSH1 0x40 MLOAD DUP1 SWAP2 SUB SWAP1 LOG1 JUMPDEST POP POP JUMP JUMPDEST PUSH0 PUSH3 0x326 PUSH3 0x32B PUSH1 0x20 SHL PUSH1 0x20 SHR JUMP JUMPDEST SWAP1 POP SWAP1 JUMP JUMPDEST PUSH0 DUP1 PUSH32 0x322CF19C484104D3B1A9C2982EBAE869EDE3FA5F6C4703CA41B9A48C76EE0300 PUSH0 SHL SWAP1 POP DUP1 SWAP2 POP POP SWAP1 JUMP JUMPDEST PUSH0 DUP1 REVERT JUMPDEST PUSH0 PUSH20 0xFFFFFFFFFFFFFFFFFFFFFFFFFFFFFFFFFFFFFFFF DUP3 AND SWAP1 POP SWAP2 SWAP1 POP JUMP JUMPDEST PUSH0 PUSH3 0x388 DUP3 PUSH3 0x35D JUMP JUMPDEST SWAP1 POP SWAP2 SWAP1 POP JUMP JUMPDEST PUSH0 PUSH3 0x39B DUP3 PUSH3 0x37C JUMP JUMPDEST SWAP1 POP SWAP2 SWAP1 POP JUMP JUMPDEST PUSH3 0x3AD DUP2 PUSH3 0x38F JUMP JUMPDEST DUP2 EQ PUSH3 0x3B8 JUMPI PUSH0 DUP1 REVERT JUMPDEST POP JUMP JUMPDEST PUSH0 DUP2 MLOAD SWAP1 POP PUSH3 0x3CB DUP2 PUSH3 0x3A2 JUMP JUMPDEST SWAP3 SWAP2 POP POP JUMP JUMPDEST PUSH3 0x3DC DUP2 PUSH3 0x37C JUMP JUMPDEST DUP2 EQ PUSH3 0x3E7 JUMPI PUSH0 DUP1 REVERT JUMPDEST POP JUMP JUMPDEST PUSH0 DUP2 MLOAD SWAP1 POP PUSH3 0x3FA DUP2 PUSH3 0x3D1 JUMP JUMPDEST SWAP3 SWAP2 POP POP JUMP JUMPDEST PUSH0 DUP1 PUSH1 0x40 DUP4 DUP6 SUB SLT ISZERO PUSH3 0x419 JUMPI PUSH3 0x418 PUSH3 0x359 JUMP JUMPDEST JUMPDEST PUSH0 PUSH3 0x428 DUP6 DUP3 DUP7 ADD PUSH3 0x3BB JUMP JUMPDEST SWAP3 POP POP PUSH1 0x20 PUSH3 0x43B DUP6 DUP3 DUP7 ADD PUSH3 0x3EA JUMP JUMPDEST SWAP2 POP POP SWAP3 POP SWAP3 SWAP1 POP JUMP JUMPDEST PUSH0 DUP2 SWAP1 POP SWAP2 SWAP1 POP JUMP JUMPDEST PUSH3 0x459 DUP2 PUSH3 0x445 JUMP JUMPDEST DUP3 MSTORE POP POP JUMP JUMPDEST PUSH0 DUP2 SWAP1 POP SWAP2 SWAP1 POP JUMP JUMPDEST PUSH3 0x473 DUP2 PUSH3 0x45F JUMP JUMPDEST DUP3 MSTORE POP POP JUMP JUMPDEST PUSH3 0x484 DUP2 PUSH3 0x37C JUMP JUMPDEST DUP3 MSTORE POP POP JUMP JUMPDEST PUSH0 PUSH1 0xA0 DUP3 ADD SWAP1 POP PUSH3 0x49F PUSH0 DUP4 ADD DUP9 PUSH3 0x44E JUMP JUMPDEST PUSH3 0x4AE PUSH1 0x20 DUP4 ADD DUP8 PUSH3 0x44E JUMP JUMPDEST PUSH3 0x4BD PUSH1 0x40 DUP4 ADD DUP7 PUSH3 0x44E JUMP JUMPDEST PUSH3 0x4CC PUSH1 0x60 DUP4 ADD DUP6 PUSH3 0x468 JUMP JUMPDEST PUSH3 0x4DB PUSH1 0x80 DUP4 ADD DUP5 PUSH3 0x479 JUMP JUMPDEST SWAP7 SWAP6 POP POP POP POP POP POP JUMP JUMPDEST PUSH0 DUP3 DUP3 MSTORE PUSH1 0x20 DUP3 ADD SWAP1 POP SWAP3 SWAP2 POP POP JUMP JUMPDEST PUSH32 0x496E697469616C697A61626C653A20636F6E747261637420697320696E697469 PUSH0 DUP3 ADD MSTORE PUSH32 0x616C697A696E6700000000000000000000000000000000000000000000000000 PUSH1 0x20 DUP3 ADD MSTORE POP JUMP JUMPDEST PUSH0 PUSH3 0x551 PUSH1 0x27 DUP4 PUSH3 0x4E5 JUMP JUMPDEST SWAP2 POP PUSH3 0x55E DUP3 PUSH3 0x4F5 JUMP JUMPDEST PUSH1 0x40 DUP3 ADD SWAP1 POP SWAP2 SWAP1 POP JUMP JUMPDEST PUSH0 PUSH1 0x20 DUP3 ADD SWAP1 POP DUP2 DUP2 SUB PUSH0 DUP4 ADD MSTORE PUSH3 0x582 DUP2 PUSH3 0x543 JUMP JUMPDEST SWAP1 POP SWAP2 SWAP1 POP JUMP JUMPDEST PUSH0 PUSH1 0xFF DUP3 AND SWAP1 POP SWAP2 SWAP1 POP JUMP JUMPDEST PUSH3 0x5A0 DUP2 PUSH3 0x589 JUMP JUMPDEST DUP3 MSTORE POP POP JUMP JUMPDEST PUSH0 PUSH1 0x20 DUP3 ADD SWAP1 POP PUSH3 0x5BB PUSH0 DUP4 ADD DUP5 PUSH3 0x595 JUMP JUMPDEST SWAP3 SWAP2 POP POP JUMP JUMPDEST PUSH1 0x80 MLOAD PUSH1 0xA0 MLOAD PUSH1 0xC0 MLOAD PUSH1 0xE0 MLOAD PUSH2 0x100 MLOAD PUSH2 0x120 MLOAD PUSH2 0x140 MLOAD PUSH2 0x160 MLOAD PUSH2 0x5A0E PUSH3 0x64E PUSH0 CODECOPY PUSH0 PUSH2 0x1799 ADD MSTORE PUSH0 DUP2 DUP2 PUSH2 0x544 ADD MSTORE DUP2 DUP2 PUSH2 0xAE9 ADD MSTORE DUP2 DUP2 PUSH2 0x1814 ADD MSTORE DUP2 DUP2 PUSH2 0x23BE ADD MSTORE DUP2 DUP2 PUSH2 0x2402 ADD MSTORE DUP2 DUP2 PUSH2 0x249A ADD MSTORE DUP2 DUP2 PUSH2 0x25AD ADD MSTORE PUSH2 0x25EB ADD MSTORE PUSH0 PUSH2 0x305F ADD MSTORE PUSH0 PUSH2 0x30A1 ADD MSTORE PUSH0 PUSH2 0x3080 ADD MSTORE PUSH0 PUSH2 0x2FB5 ADD MSTORE PUSH0 PUSH2 0x300B ADD MSTORE PUSH0 PUSH2 0x3034 ADD MSTORE PUSH2 0x5A0E PUSH0 RETURN INVALID PUSH1 0x80 PUSH1 0x40 MSTORE PUSH1 0x4 CALLDATASIZE LT PUSH2 0x10C JUMPI PUSH0 CALLDATALOAD PUSH1 0xE0 SHR DUP1 PUSH4 0xB0D691FE GT PUSH2 0x94 JUMPI DUP1 PUSH4 0xD087D288 GT PUSH2 0x63 JUMPI DUP1 PUSH4 0xD087D288 EQ PUSH2 0x45F JUMPI DUP1 PUSH4 0xD1F57894 EQ PUSH2 0x489 JUMPI DUP1 PUSH4 0xD42F2F35 EQ PUSH2 0x4B1 JUMPI DUP1 PUSH4 0xE9523C97 EQ PUSH2 0x4DB JUMPI DUP1 PUSH4 0xF15D424E EQ PUSH2 0x505 JUMPI PUSH2 0x10D JUMP JUMPDEST DUP1 PUSH4 0xB0D691FE EQ PUSH2 0x3A7 JUMPI DUP1 PUSH4 0xB76464D5 EQ PUSH2 0x3D1 JUMPI DUP1 PUSH4 0xC45A0155 EQ PUSH2 0x3F9 JUMPI DUP1 PUSH4 0xCE0B6013 EQ PUSH2 0x423 JUMPI PUSH2 0x10D JUMP JUMPDEST DUP1 PUSH4 0x5892E236 GT PUSH2 0xDB JUMPI DUP1 PUSH4 0x5892E236 EQ PUSH2 0x2A0 JUMPI DUP1 PUSH4 0x7DFF5A79 EQ PUSH2 0x2C8 JUMPI DUP1 PUSH4 0x8B52D723 EQ PUSH2 0x304 JUMPI DUP1 PUSH4 0xA9082D84 EQ PUSH2 0x32E JUMPI DUP1 PUSH4 0xAC9650D8 EQ PUSH2 0x36B JUMPI PUSH2 0x10D JUMP JUMPDEST DUP1 PUSH4 0x1DD756C5 EQ PUSH2 0x1C2 JUMPI DUP1 PUSH4 0x24D7806C EQ PUSH2 0x1FE JUMPI DUP1 PUSH4 0x3A871CDD EQ PUSH2 0x23A JUMPI DUP1 PUSH4 0x4A00CC48 EQ PUSH2 0x276 JUMPI PUSH2 0x10D JUMP JUMPDEST JUMPDEST PUSH0 DUP1 CALLDATASIZE SWAP1 POP SUB ISZERO PUSH2 0x1C0 JUMPI PUSH0 PUSH2 0x145 PUSH0 CALLDATALOAD PUSH32 0xFFFFFFFF00000000000000000000000000000000000000000000000000000000 AND PUSH2 0x541 JUMP JUMPDEST SWAP1 POP PUSH0 PUSH20 0xFFFFFFFFFFFFFFFFFFFFFFFFFFFFFFFFFFFFFFFF AND DUP2 PUSH20 0xFFFFFFFFFFFFFFFFFFFFFFFFFFFFFFFFFFFFFFFF AND SUB PUSH2 0x1B5 JUMPI PUSH1 0x40 MLOAD PUSH32 0x8C379A000000000000000000000000000000000000000000000000000000000 DUP2 MSTORE PUSH1 0x4 ADD PUSH2 0x1AC SWAP1 PUSH2 0x3341 JUMP JUMPDEST PUSH1 0x40 MLOAD DUP1 SWAP2 SUB SWAP1 REVERT JUMPDEST PUSH2 0x1BE DUP2 PUSH2 0x5E1 JUMP JUMPDEST POP JUMPDEST STOP JUMPDEST CALLVALUE DUP1 ISZERO PUSH2 0x1CD JUMPI PUSH0 DUP1 REVERT JUMPDEST POP PUSH2 0x1E8 PUSH1 0x4 DUP1 CALLDATASIZE SUB DUP2 ADD SWAP1 PUSH2 0x1E3 SWAP2 SWAP1 PUSH2 0x33ED JUMP JUMPDEST PUSH2 0x600 JUMP JUMPDEST PUSH1 0x40 MLOAD PUSH2 0x1F5 SWAP2 SWAP1 PUSH2 0x3461 JUMP JUMPDEST PUSH1 0x40 MLOAD DUP1 SWAP2 SUB SWAP1 RETURN JUMPDEST CALLVALUE DUP1 ISZERO PUSH2 0x209 JUMPI PUSH0 DUP1 REVERT JUMPDEST POP PUSH2 0x224 PUSH1 0x4 DUP1 CALLDATASIZE SUB DUP2 ADD SWAP1 PUSH2 0x21F SWAP2 SWAP1 PUSH2 0x347A JUMP JUMPDEST PUSH2 0xA58 JUMP JUMPDEST PUSH1 0x40 MLOAD PUSH2 0x231 SWAP2 SWAP1 PUSH2 0x3461 JUMP JUMPDEST PUSH1 0x40 MLOAD DUP1 SWAP2 SUB SWAP1 RETURN JUMPDEST CALLVALUE DUP1 ISZERO PUSH2 0x245 JUMPI PUSH0 DUP1 REVERT JUMPDEST POP PUSH2 0x260 PUSH1 0x4 DUP1 CALLDATASIZE SUB DUP2 ADD SWAP1 PUSH2 0x25B SWAP2 SWAP1 PUSH2 0x350B JUMP JUMPDEST PUSH2 0xAB3 JUMP JUMPDEST PUSH1 0x40 MLOAD PUSH2 0x26D SWAP2 SWAP1 PUSH2 0x3586 JUMP JUMPDEST PUSH1 0x40 MLOAD DUP1 SWAP2 SUB SWAP1 RETURN JUMPDEST CALLVALUE DUP1 ISZERO PUSH2 0x281 JUMPI PUSH0 DUP1 REVERT JUMPDEST POP PUSH2 0x28A PUSH2 0xAE5 JUMP JUMPDEST PUSH1 0x40 MLOAD PUSH2 0x297 SWAP2 SWAP1 PUSH2 0x38B7 JUMP JUMPDEST PUSH1 0x40 MLOAD DUP1 SWAP2 SUB SWAP1 RETURN JUMPDEST CALLVALUE DUP1 ISZERO PUSH2 0x2AB JUMPI PUSH0 DUP1 REVERT JUMPDEST POP PUSH2 0x2C6 PUSH1 0x4 DUP1 CALLDATASIZE SUB DUP2 ADD SWAP1 PUSH2 0x2C1 SWAP2 SWAP1 PUSH2 0x3957 JUMP JUMPDEST PUSH2 0xB7C JUMP JUMPDEST STOP JUMPDEST CALLVALUE DUP1 ISZERO PUSH2 0x2D3 JUMPI PUSH0 DUP1 REVERT JUMPDEST POP PUSH2 0x2EE PUSH1 0x4 DUP1 CALLDATASIZE SUB DUP2 ADD SWAP1 PUSH2 0x2E9 SWAP2 SWAP1 PUSH2 0x347A JUMP JUMPDEST PUSH2 0x10B9 JUMP JUMPDEST PUSH1 0x40 MLOAD PUSH2 0x2FB SWAP2 SWAP1 PUSH2 0x3461 JUMP JUMPDEST PUSH1 0x40 MLOAD DUP1 SWAP2 SUB SWAP1 RETURN JUMPDEST CALLVALUE DUP1 ISZERO PUSH2 0x30F JUMPI PUSH0 DUP1 REVERT JUMPDEST POP PUSH2 0x318 PUSH2 0x1245 JUMP JUMPDEST PUSH1 0x40 MLOAD PUSH2 0x325 SWAP2 SWAP1 PUSH2 0x3BDF JUMP JUMPDEST PUSH1 0x40 MLOAD DUP1 SWAP2 SUB SWAP1 RETURN JUMPDEST CALLVALUE DUP1 ISZERO PUSH2 0x339 JUMPI PUSH0 DUP1 REVERT JUMPDEST POP PUSH2 0x354 PUSH1 0x4 DUP1 CALLDATASIZE SUB DUP2 ADD SWAP1 PUSH2 0x34F SWAP2 SWAP1 PUSH2 0x3957 JUMP JUMPDEST PUSH2 0x15CA JUMP JUMPDEST PUSH1 0x40 MLOAD PUSH2 0x362 SWAP3 SWAP2 SWAP1 PUSH2 0x3C0E JUMP JUMPDEST PUSH1 0x40 MLOAD DUP1 SWAP2 SUB SWAP1 RETURN JUMPDEST CALLVALUE DUP1 ISZERO PUSH2 0x376 JUMPI PUSH0 DUP1 REVERT JUMPDEST POP PUSH2 0x391 PUSH1 0x4 DUP1 CALLDATASIZE SUB DUP2 ADD SWAP1 PUSH2 0x38C SWAP2 SWAP1 PUSH2 0x3C8A JUMP JUMPDEST PUSH2 0x1629 JUMP JUMPDEST PUSH1 0x40 MLOAD PUSH2 0x39E SWAP2 SWAP1 PUSH2 0x3DE2 JUMP JUMPDEST PUSH1 0x40 MLOAD DUP1 SWAP2 SUB SWAP1 RETURN JUMPDEST CALLVALUE DUP1 ISZERO PUSH2 0x3B2 JUMPI PUSH0 DUP1 REVERT JUMPDEST POP PUSH2 0x3BB PUSH2 0x172D JUMP JUMPDEST PUSH1 0x40 MLOAD PUSH2 0x3C8 SWAP2 SWAP1 PUSH2 0x3E5D JUMP JUMPDEST PUSH1 0x40 MLOAD DUP1 SWAP2 SUB SWAP1 RETURN JUMPDEST CALLVALUE DUP1 ISZERO PUSH2 0x3DC JUMPI PUSH0 DUP1 REVERT JUMPDEST POP PUSH2 0x3F7 PUSH1 0x4 DUP1 CALLDATASIZE SUB DUP2 ADD SWAP1 PUSH2 0x3F2 SWAP2 SWAP1 PUSH2 0x3EB1 JUMP JUMPDEST PUSH2 0x17BF JUMP JUMPDEST STOP JUMPDEST CALLVALUE DUP1 ISZERO PUSH2 0x404 JUMPI PUSH0 DUP1 REVERT JUMPDEST POP PUSH2 0x40D PUSH2 0x1812 JUMP JUMPDEST PUSH1 0x40 MLOAD PUSH2 0x41A SWAP2 SWAP1 PUSH2 0x3EDC JUMP JUMPDEST PUSH1 0x40 MLOAD DUP1 SWAP2 SUB SWAP1 RETURN JUMPDEST CALLVALUE DUP1 ISZERO PUSH2 0x42E JUMPI PUSH0 DUP1 REVERT JUMPDEST POP PUSH2 0x449 PUSH1 0x4 DUP1 CALLDATASIZE SUB DUP2 ADD SWAP1 PUSH2 0x444 SWAP2 SWAP1 PUSH2 0x3F1F JUMP JUMPDEST PUSH2 0x541 JUMP JUMPDEST PUSH1 0x40 MLOAD PUSH2 0x456 SWAP2 SWAP1 PUSH2 0x3EDC JUMP JUMPDEST PUSH1 0x40 MLOAD DUP1 SWAP2 SUB SWAP1 RETURN JUMPDEST CALLVALUE DUP1 ISZERO PUSH2 0x46A JUMPI PUSH0 DUP1 REVERT JUMPDEST POP PUSH2 0x473 PUSH2 0x1836 JUMP JUMPDEST PUSH1 0x40 MLOAD PUSH2 0x480 SWAP2 SWAP1 PUSH2 0x3586 JUMP JUMPDEST PUSH1 0x40 MLOAD DUP1 SWAP2 SUB SWAP1 RETURN JUMPDEST CALLVALUE DUP1 ISZERO PUSH2 0x494 JUMPI PUSH0 DUP1 REVERT JUMPDEST POP PUSH2 0x4AF PUSH1 0x4 DUP1 CALLDATASIZE SUB DUP2 ADD SWAP1 PUSH2 0x4AA SWAP2 SWAP1 PUSH2 0x3F4A JUMP JUMPDEST PUSH2 0x18BD JUMP JUMPDEST STOP JUMPDEST CALLVALUE DUP1 ISZERO PUSH2 0x4BC JUMPI PUSH0 DUP1 REVERT JUMPDEST POP PUSH2 0x4C5 PUSH2 0x1A83 JUMP JUMPDEST PUSH1 0x40 MLOAD PUSH2 0x4D2 SWAP2 SWAP1 PUSH2 0x3BDF JUMP JUMPDEST PUSH1 0x40 MLOAD DUP1 SWAP2 SUB SWAP1 RETURN JUMPDEST CALLVALUE DUP1 ISZERO PUSH2 0x4E6 JUMPI PUSH0 DUP1 REVERT JUMPDEST POP PUSH2 0x4EF PUSH2 0x1D01 JUMP JUMPDEST PUSH1 0x40 MLOAD PUSH2 0x4FC SWAP2 SWAP1 PUSH2 0x4013 JUMP JUMPDEST PUSH1 0x40 MLOAD DUP1 SWAP2 SUB SWAP1 RETURN JUMPDEST CALLVALUE DUP1 ISZERO PUSH2 0x510 JUMPI PUSH0 DUP1 REVERT JUMPDEST POP PUSH2 0x52B PUSH1 0x4 DUP1 CALLDATASIZE SUB DUP2 ADD SWAP1 PUSH2 0x526 SWAP2 SWAP1 PUSH2 0x347A JUMP JUMPDEST PUSH2 0x1D1A JUMP JUMPDEST PUSH1 0x40 MLOAD PUSH2 0x538 SWAP2 SWAP1 PUSH2 0x40A6 JUMP JUMPDEST PUSH1 0x40 MLOAD DUP1 SWAP2 SUB SWAP1 RETURN JUMPDEST PUSH0 PUSH32 0x0 PUSH20 0xFFFFFFFFFFFFFFFFFFFFFFFFFFFFFFFFFFFFFFFF AND PUSH4 0xCE0B6013 DUP4 PUSH1 0x40 MLOAD DUP3 PUSH4 0xFFFFFFFF AND PUSH1 0xE0 SHL DUP2 MSTORE PUSH1 0x4 ADD PUSH2 0x59B SWAP2 SWAP1 PUSH2 0x40D5 JUMP JUMPDEST PUSH1 0x20 PUSH1 0x40 MLOAD DUP1 DUP4 SUB DUP2 DUP7 GAS STATICCALL ISZERO DUP1 ISZERO PUSH2 0x5B6 JUMPI RETURNDATASIZE PUSH0 DUP1 RETURNDATACOPY RETURNDATASIZE PUSH0 REVERT JUMPDEST POP POP POP POP PUSH1 0x40 MLOAD RETURNDATASIZE PUSH1 0x1F NOT PUSH1 0x1F DUP3 ADD AND DUP3 ADD DUP1 PUSH1 0x40 MSTORE POP DUP2 ADD SWAP1 PUSH2 0x5DA SWAP2 SWAP1 PUSH2 0x4102 JUMP JUMPDEST SWAP1 POP SWAP2 SWAP1 POP JUMP JUMPDEST CALLDATASIZE PUSH0 DUP1 CALLDATACOPY PUSH0 DUP1 CALLDATASIZE PUSH0 DUP5 GAS DELEGATECALL RETURNDATASIZE PUSH0 DUP1 RETURNDATACOPY DUP1 PUSH0 DUP2 EQ PUSH2 0x5FC JUMPI RETURNDATASIZE PUSH0 RETURN JUMPDEST RETURNDATASIZE PUSH0 REVERT JUMPDEST PUSH0 PUSH2 0x609 PUSH2 0x1ED3 JUMP JUMPDEST PUSH1 0x4 ADD PUSH0 DUP5 PUSH20 0xFFFFFFFFFFFFFFFFFFFFFFFFFFFFFFFFFFFFFFFF AND PUSH20 0xFFFFFFFFFFFFFFFFFFFFFFFFFFFFFFFFFFFFFFFF AND DUP2 MSTORE PUSH1 0x20 ADD SWAP1 DUP2 MSTORE PUSH1 0x20 ADD PUSH0 KECCAK256 PUSH0 SWAP1 SLOAD SWAP1 PUSH2 0x100 EXP SWAP1 DIV PUSH1 0xFF AND ISZERO PUSH2 0x662 JUMPI PUSH1 0x1 SWAP1 POP PUSH2 0xA52 JUMP JUMPDEST PUSH0 PUSH2 0x66B PUSH2 0x1ED3 JUMP JUMPDEST PUSH1 0x5 ADD PUSH0 DUP6 PUSH20 0xFFFFFFFFFFFFFFFFFFFFFFFFFFFFFFFFFFFFFFFF AND PUSH20 0xFFFFFFFFFFFFFFFFFFFFFFFFFFFFFFFFFFFFFFFF AND DUP2 MSTORE PUSH1 0x20 ADD SWAP1 DUP2 MSTORE PUSH1 0x20 ADD PUSH0 KECCAK256 PUSH1 0x40 MLOAD DUP1 PUSH1 0x60 ADD PUSH1 0x40 MSTORE SWAP1 DUP2 PUSH0 DUP3 ADD SLOAD DUP2 MSTORE PUSH1 0x20 ADD PUSH1 0x1 DUP3 ADD PUSH0 SWAP1 SLOAD SWAP1 PUSH2 0x100 EXP SWAP1 DIV PUSH16 0xFFFFFFFFFFFFFFFFFFFFFFFFFFFFFFFF AND PUSH16 0xFFFFFFFFFFFFFFFFFFFFFFFFFFFFFFFF AND PUSH16 0xFFFFFFFFFFFFFFFFFFFFFFFFFFFFFFFF AND DUP2 MSTORE PUSH1 0x20 ADD PUSH1 0x1 DUP3 ADD PUSH1 0x10 SWAP1 SLOAD SWAP1 PUSH2 0x100 EXP SWAP1 DIV PUSH16 0xFFFFFFFFFFFFFFFFFFFFFFFFFFFFFFFF AND PUSH16 0xFFFFFFFFFFFFFFFFFFFFFFFFFFFFFFFF AND PUSH16 0xFFFFFFFFFFFFFFFFFFFFFFFFFFFFFFFF AND DUP2 MSTORE POP POP SWAP1 POP PUSH0 PUSH2 0x75B PUSH2 0x1ED3 JUMP JUMPDEST PUSH1 0x6 ADD PUSH0 DUP7 PUSH20 0xFFFFFFFFFFFFFFFFFFFFFFFFFFFFFFFFFFFFFFFF AND PUSH20 0xFFFFFFFFFFFFFFFFFFFFFFFFFFFFFFFFFFFFFFFF AND DUP2 MSTORE PUSH1 0x20 ADD SWAP1 DUP2 MSTORE PUSH1 0x20 ADD PUSH0 KECCAK256 SWAP1 POP TIMESTAMP DUP3 PUSH1 0x20 ADD MLOAD PUSH16 0xFFFFFFFFFFFFFFFFFFFFFFFFFFFFFFFF AND GT DUP1 PUSH2 0x7D5 JUMPI POP DUP2 PUSH1 0x40 ADD MLOAD PUSH16 0xFFFFFFFFFFFFFFFFFFFFFFFFFFFFFFFF AND TIMESTAMP LT ISZERO JUMPDEST DUP1 PUSH2 0x7E7 JUMPI POP PUSH0 PUSH2 0x7E5 DUP3 PUSH2 0x1EE1 JUMP JUMPDEST EQ JUMPDEST ISZERO PUSH2 0x7F6 JUMPI PUSH0 SWAP3 POP POP POP PUSH2 0xA52 JUMP JUMPDEST PUSH0 PUSH2 0x80F DUP6 DUP1 PUSH1 0x60 ADD SWAP1 PUSH2 0x80A SWAP2 SWAP1 PUSH2 0x4139 JUMP JUMPDEST PUSH2 0x1EF4 JUMP JUMPDEST SWAP1 POP PUSH0 PUSH1 0x1 PUSH2 0x81D DUP5 PUSH2 0x1EE1 JUMP JUMPDEST EQ DUP1 ISZERO PUSH2 0x867 JUMPI POP PUSH0 PUSH20 0xFFFFFFFFFFFFFFFFFFFFFFFFFFFFFFFFFFFFFFFF AND PUSH2 0x84F PUSH0 DUP6 PUSH2 0x1F62 SWAP1 SWAP2 SWAP1 PUSH4 0xFFFFFFFF AND JUMP JUMPDEST PUSH20 0xFFFFFFFFFFFFFFFFFFFFFFFFFFFFFFFFFFFFFFFF AND EQ JUMPDEST SWAP1 POP PUSH4 0xB61D27F6 PUSH1 0xE0 SHL PUSH28 0xFFFFFFFFFFFFFFFFFFFFFFFFFFFFFFFFFFFFFFFFFFFFFFFFFFFFFFFF NOT AND DUP3 PUSH28 0xFFFFFFFFFFFFFFFFFFFFFFFFFFFFFFFFFFFFFFFFFFFFFFFFFFFFFFFF NOT AND SUB PUSH2 0x91E JUMPI PUSH0 DUP1 PUSH2 0x8CF DUP9 DUP1 PUSH1 0x60 ADD SWAP1 PUSH2 0x8CA SWAP2 SWAP1 PUSH2 0x4139 JUMP JUMPDEST PUSH2 0x1F79 JUMP JUMPDEST SWAP2 POP SWAP2 POP DUP3 PUSH2 0x8FE JUMPI PUSH2 0x8EB DUP3 DUP7 PUSH2 0x200F SWAP1 SWAP2 SWAP1 PUSH4 0xFFFFFFFF AND JUMP JUMPDEST PUSH2 0x8FD JUMPI PUSH0 SWAP7 POP POP POP POP POP POP POP PUSH2 0xA52 JUMP JUMPDEST JUMPDEST DUP1 DUP7 PUSH0 ADD MLOAD LT ISZERO PUSH2 0x917 JUMPI PUSH0 SWAP7 POP POP POP POP POP POP POP PUSH2 0xA52 JUMP JUMPDEST POP POP PUSH2 0xA49 JUMP JUMPDEST PUSH4 0x47E1DA2A PUSH1 0xE0 SHL PUSH28 0xFFFFFFFFFFFFFFFFFFFFFFFFFFFFFFFFFFFFFFFFFFFFFFFFFFFFFFFF NOT AND DUP3 PUSH28 0xFFFFFFFFFFFFFFFFFFFFFFFFFFFFFFFFFFFFFFFFFFFFFFFFFFFFFFFF NOT AND SUB PUSH2 0xA3C JUMPI PUSH0 DUP1 PUSH2 0x984 DUP9 DUP1 PUSH1 0x60 ADD SWAP1 PUSH2 0x97F SWAP2 SWAP1 PUSH2 0x4139 JUMP JUMPDEST PUSH2 0x203C JUMP JUMPDEST POP SWAP2 POP SWAP2 POP DUP3 PUSH2 0x9E8 JUMPI PUSH0 JUMPDEST DUP3 MLOAD DUP2 LT ISZERO PUSH2 0x9E6 JUMPI PUSH2 0x9C6 DUP4 DUP3 DUP2 MLOAD DUP2 LT PUSH2 0x9AF JUMPI PUSH2 0x9AE PUSH2 0x419B JUMP JUMPDEST JUMPDEST PUSH1 0x20 MUL PUSH1 0x20 ADD ADD MLOAD DUP8 PUSH2 0x200F SWAP1 SWAP2 SWAP1 PUSH4 0xFFFFFFFF AND JUMP JUMPDEST PUSH2 0x9D9 JUMPI PUSH0 SWAP8 POP POP POP POP POP POP POP POP PUSH2 0xA52 JUMP JUMPDEST DUP1 DUP1 PUSH1 0x1 ADD SWAP2 POP POP PUSH2 0x990 JUMP JUMPDEST POP JUMPDEST PUSH0 JUMPDEST DUP3 MLOAD DUP2 LT ISZERO PUSH2 0xA34 JUMPI DUP2 DUP2 DUP2 MLOAD DUP2 LT PUSH2 0xA06 JUMPI PUSH2 0xA05 PUSH2 0x419B JUMP JUMPDEST JUMPDEST PUSH1 0x20 MUL PUSH1 0x20 ADD ADD MLOAD DUP8 PUSH0 ADD MLOAD LT ISZERO PUSH2 0xA27 JUMPI PUSH0 SWAP8 POP POP POP POP POP POP POP POP PUSH2 0xA52 JUMP JUMPDEST DUP1 DUP1 PUSH1 0x1 ADD SWAP2 POP POP PUSH2 0x9EA JUMP JUMPDEST POP POP POP PUSH2 0xA48 JUMP JUMPDEST PUSH0 SWAP5 POP POP POP POP POP PUSH2 0xA52 JUMP JUMPDEST JUMPDEST PUSH1 0x1 SWAP5 POP POP POP POP POP JUMPDEST SWAP3 SWAP2 POP POP JUMP JUMPDEST PUSH0 PUSH2 0xA61 PUSH2 0x1ED3 JUMP JUMPDEST PUSH1 0x4 ADD PUSH0 DUP4 PUSH20 0xFFFFFFFFFFFFFFFFFFFFFFFFFFFFFFFFFFFFFFFF AND PUSH20 0xFFFFFFFFFFFFFFFFFFFFFFFFFFFFFFFFFFFFFFFF AND DUP2 MSTORE PUSH1 0x20 ADD SWAP1 DUP2 MSTORE PUSH1 0x20 ADD PUSH0 KECCAK256 PUSH0 SWAP1 SLOAD SWAP1 PUSH2 0x100 EXP SWAP1 DIV PUSH1 0xFF AND SWAP1 POP SWAP2 SWAP1 POP JUMP JUMPDEST PUSH0 PUSH2 0xABC PUSH2 0x20BB JUMP JUMPDEST PUSH2 0xAC6 DUP5 DUP5 PUSH2 0x2132 JUMP JUMPDEST SWAP1 POP PUSH2 0xAD5 DUP5 PUSH1 0x20 ADD CALLDATALOAD PUSH2 0x2317 JUMP JUMPDEST PUSH2 0xADE DUP3 PUSH2 0x231A JUMP JUMPDEST SWAP4 SWAP3 POP POP POP JUMP JUMPDEST PUSH1 0x60 PUSH32 0x0 PUSH20 0xFFFFFFFFFFFFFFFFFFFFFFFFFFFFFFFFFFFFFFFF AND PUSH4 0x4A00CC48 PUSH1 0x40 MLOAD DUP2 PUSH4 0xFFFFFFFF AND PUSH1 0xE0 SHL DUP2 MSTORE PUSH1 0x4 ADD PUSH0 PUSH1 0x40 MLOAD DUP1 DUP4 SUB DUP2 DUP7 GAS STATICCALL ISZERO DUP1 ISZERO PUSH2 0xB4F JUMPI RETURNDATASIZE PUSH0 DUP1 RETURNDATACOPY RETURNDATASIZE PUSH0 REVERT JUMPDEST POP POP POP POP PUSH1 0x40 MLOAD RETURNDATASIZE PUSH0 DUP3 RETURNDATACOPY RETURNDATASIZE PUSH1 0x1F NOT PUSH1 0x1F DUP3 ADD AND DUP3 ADD DUP1 PUSH1 0x40 MSTORE POP DUP2 ADD SWAP1 PUSH2 0xB77 SWAP2 SWAP1 PUSH2 0x4641 JUMP JUMPDEST SWAP1 POP SWAP1 JUMP JUMPDEST PUSH0 DUP4 PUSH0 ADD PUSH1 0x20 DUP2 ADD SWAP1 PUSH2 0xB8F SWAP2 SWAP1 PUSH2 0x347A JUMP JUMPDEST SWAP1 POP TIMESTAMP DUP5 PUSH1 0xC0 ADD PUSH1 0x20 DUP2 ADD SWAP1 PUSH2 0xBA5 SWAP2 SWAP1 PUSH2 0x46B2 JUMP JUMPDEST PUSH16 0xFFFFFFFFFFFFFFFFFFFFFFFFFFFFFFFF AND GT ISZERO DUP1 ISZERO PUSH2 0xBE8 JUMPI POP DUP4 PUSH1 0xE0 ADD PUSH1 0x20 DUP2 ADD SWAP1 PUSH2 0xBD3 SWAP2 SWAP1 PUSH2 0x46B2 JUMP JUMPDEST PUSH16 0xFFFFFFFFFFFFFFFFFFFFFFFFFFFFFFFF AND TIMESTAMP LT JUMPDEST PUSH2 0xC27 JUMPI PUSH1 0x40 MLOAD PUSH32 0x8C379A000000000000000000000000000000000000000000000000000000000 DUP2 MSTORE PUSH1 0x4 ADD PUSH2 0xC1E SWAP1 PUSH2 0x4727 JUMP JUMPDEST PUSH1 0x40 MLOAD DUP1 SWAP2 SUB SWAP1 REVERT JUMPDEST PUSH0 DUP1 PUSH2 0xC34 DUP7 DUP7 DUP7 PUSH2 0x15CA JUMP JUMPDEST SWAP2 POP SWAP2 POP DUP2 PUSH2 0xC78 JUMPI PUSH1 0x40 MLOAD PUSH32 0x8C379A000000000000000000000000000000000000000000000000000000000 DUP2 MSTORE PUSH1 0x4 ADD PUSH2 0xC6F SWAP1 PUSH2 0x478F JUMP JUMPDEST PUSH1 0x40 MLOAD DUP1 SWAP2 SUB SWAP1 REVERT JUMPDEST PUSH1 0x1 PUSH2 0xC82 PUSH2 0x1ED3 JUMP JUMPDEST PUSH1 0x7 ADD PUSH0 DUP9 PUSH2 0x100 ADD CALLDATALOAD DUP2 MSTORE PUSH1 0x20 ADD SWAP1 DUP2 MSTORE PUSH1 0x20 ADD PUSH0 KECCAK256 PUSH0 PUSH2 0x100 EXP DUP2 SLOAD DUP2 PUSH1 0xFF MUL NOT AND SWAP1 DUP4 ISZERO ISZERO MUL OR SWAP1 SSTORE POP PUSH0 DUP7 PUSH1 0x20 ADD PUSH1 0x20 DUP2 ADD SWAP1 PUSH2 0xCC3 SWAP2 SWAP1 PUSH2 0x47E3 JUMP JUMPDEST PUSH1 0xFF AND GT ISZERO PUSH2 0xCFB JUMPI PUSH0 PUSH1 0x1 DUP8 PUSH1 0x20 ADD PUSH1 0x20 DUP2 ADD SWAP1 PUSH2 0xCE2 SWAP2 SWAP1 PUSH2 0x47E3 JUMP JUMPDEST PUSH1 0xFF AND EQ SWAP1 POP PUSH2 0xCF2 DUP5 DUP3 PUSH2 0x23B1 JUMP JUMPDEST POP POP POP POP PUSH2 0x10B4 JUMP JUMPDEST PUSH2 0xD04 DUP4 PUSH2 0xA58 JUMP JUMPDEST ISZERO PUSH2 0xD44 JUMPI PUSH1 0x40 MLOAD PUSH32 0x8C379A000000000000000000000000000000000000000000000000000000000 DUP2 MSTORE PUSH1 0x4 ADD PUSH2 0xD3B SWAP1 PUSH2 0x4858 JUMP JUMPDEST PUSH1 0x40 MLOAD DUP1 SWAP2 SUB SWAP1 REVERT JUMPDEST PUSH2 0xD61 DUP4 PUSH2 0xD50 PUSH2 0x1ED3 JUMP JUMPDEST PUSH1 0x2 ADD PUSH2 0x2531 SWAP1 SWAP2 SWAP1 PUSH4 0xFFFFFFFF AND JUMP JUMPDEST POP PUSH1 0x40 MLOAD DUP1 PUSH1 0x60 ADD PUSH1 0x40 MSTORE DUP1 DUP8 PUSH1 0x60 ADD CALLDATALOAD DUP2 MSTORE PUSH1 0x20 ADD DUP8 PUSH1 0x80 ADD PUSH1 0x20 DUP2 ADD SWAP1 PUSH2 0xD8A SWAP2 SWAP1 PUSH2 0x46B2 JUMP JUMPDEST PUSH16 0xFFFFFFFFFFFFFFFFFFFFFFFFFFFFFFFF AND DUP2 MSTORE PUSH1 0x20 ADD DUP8 PUSH1 0xA0 ADD PUSH1 0x20 DUP2 ADD SWAP1 PUSH2 0xDB4 SWAP2 SWAP1 PUSH2 0x46B2 JUMP JUMPDEST PUSH16 0xFFFFFFFFFFFFFFFFFFFFFFFFFFFFFFFF AND DUP2 MSTORE POP PUSH2 0xDD1 PUSH2 0x1ED3 JUMP JUMPDEST PUSH1 0x5 ADD PUSH0 DUP6 PUSH20 0xFFFFFFFFFFFFFFFFFFFFFFFFFFFFFFFFFFFFFFFF AND PUSH20 0xFFFFFFFFFFFFFFFFFFFFFFFFFFFFFFFFFFFFFFFF AND DUP2 MSTORE PUSH1 0x20 ADD SWAP1 DUP2 MSTORE PUSH1 0x20 ADD PUSH0 KECCAK256 PUSH0 DUP3 ADD MLOAD DUP2 PUSH0 ADD SSTORE PUSH1 0x20 DUP3 ADD MLOAD DUP2 PUSH1 0x1 ADD PUSH0 PUSH2 0x100 EXP DUP2 SLOAD DUP2 PUSH16 0xFFFFFFFFFFFFFFFFFFFFFFFFFFFFFFFF MUL NOT AND SWAP1 DUP4 PUSH16 0xFFFFFFFFFFFFFFFFFFFFFFFFFFFFFFFF AND MUL OR SWAP1 SSTORE POP PUSH1 0x40 DUP3 ADD MLOAD DUP2 PUSH1 0x1 ADD PUSH1 0x10 PUSH2 0x100 EXP DUP2 SLOAD DUP2 PUSH16 0xFFFFFFFFFFFFFFFFFFFFFFFFFFFFFFFF MUL NOT AND SWAP1 DUP4 PUSH16 0xFFFFFFFFFFFFFFFFFFFFFFFFFFFFFFFF AND MUL OR SWAP1 SSTORE POP SWAP1 POP POP PUSH0 PUSH2 0xEE6 PUSH2 0xEA3 PUSH2 0x1ED3 JUMP JUMPDEST PUSH1 0x6 ADD PUSH0 DUP7 PUSH20 0xFFFFFFFFFFFFFFFFFFFFFFFFFFFFFFFFFFFFFFFF AND PUSH20 0xFFFFFFFFFFFFFFFFFFFFFFFFFFFFFFFFFFFFFFFF AND DUP2 MSTORE PUSH1 0x20 ADD SWAP1 DUP2 MSTORE PUSH1 0x20 ADD PUSH0 KECCAK256 PUSH2 0x255E JUMP JUMPDEST SWAP1 POP PUSH0 DUP2 MLOAD SWAP1 POP PUSH0 JUMPDEST DUP2 DUP2 LT ISZERO PUSH2 0xF7E JUMPI PUSH2 0xF69 DUP4 DUP3 DUP2 MLOAD DUP2 LT PUSH2 0xF0D JUMPI PUSH2 0xF0C PUSH2 0x419B JUMP JUMPDEST JUMPDEST PUSH1 0x20 MUL PUSH1 0x20 ADD ADD MLOAD PUSH2 0xF1D PUSH2 0x1ED3 JUMP JUMPDEST PUSH1 0x6 ADD PUSH0 DUP10 PUSH20 0xFFFFFFFFFFFFFFFFFFFFFFFFFFFFFFFFFFFFFFFF AND PUSH20 0xFFFFFFFFFFFFFFFFFFFFFFFFFFFFFFFFFFFFFFFF AND DUP2 MSTORE PUSH1 0x20 ADD SWAP1 DUP2 MSTORE PUSH1 0x20 ADD PUSH0 KECCAK256 PUSH2 0x257D SWAP1 SWAP2 SWAP1 PUSH4 0xFFFFFFFF AND JUMP JUMPDEST POP PUSH1 0x1 DUP2 PUSH2 0xF77 SWAP2 SWAP1 PUSH2 0x48A3 JUMP JUMPDEST SWAP1 POP PUSH2 0xEEF JUMP JUMPDEST POP DUP8 DUP1 PUSH1 0x40 ADD SWAP1 PUSH2 0xF8F SWAP2 SWAP1 PUSH2 0x48D6 JUMP JUMPDEST SWAP1 POP SWAP1 POP PUSH0 JUMPDEST DUP2 DUP2 LT ISZERO PUSH2 0x103F JUMPI PUSH2 0x102A DUP10 DUP1 PUSH1 0x40 ADD SWAP1 PUSH2 0xFB0 SWAP2 SWAP1 PUSH2 0x48D6 JUMP JUMPDEST DUP4 DUP2 DUP2 LT PUSH2 0xFC1 JUMPI PUSH2 0xFC0 PUSH2 0x419B JUMP JUMPDEST JUMPDEST SWAP1 POP PUSH1 0x20 MUL ADD PUSH1 0x20 DUP2 ADD SWAP1 PUSH2 0xFD6 SWAP2 SWAP1 PUSH2 0x347A JUMP JUMPDEST PUSH2 0xFDE PUSH2 0x1ED3 JUMP JUMPDEST PUSH1 0x6 ADD PUSH0 DUP10 PUSH20 0xFFFFFFFFFFFFFFFFFFFFFFFFFFFFFFFFFFFFFFFF AND PUSH20 0xFFFFFFFFFFFFFFFFFFFFFFFFFFFFFFFFFFFFFFFF AND DUP2 MSTORE PUSH1 0x20 ADD SWAP1 DUP2 MSTORE PUSH1 0x20 ADD PUSH0 KECCAK256 PUSH2 0x2531 SWAP1 SWAP2 SWAP1 PUSH4 0xFFFFFFFF AND JUMP JUMPDEST POP PUSH1 0x1 DUP2 PUSH2 0x1038 SWAP2 SWAP1 PUSH2 0x48A3 JUMP JUMPDEST SWAP1 POP PUSH2 0xF95 JUMP JUMPDEST POP PUSH2 0x1049 DUP9 PUSH2 0x25AA JUMP JUMPDEST DUP5 PUSH20 0xFFFFFFFFFFFFFFFFFFFFFFFFFFFFFFFFFFFFFFFF AND DUP4 PUSH20 0xFFFFFFFFFFFFFFFFFFFFFFFFFFFFFFFFFFFFFFFF AND PUSH32 0xF21D10C26E35863A8DF291ACA54181EE8C4A3BC8E00246C3F7A5A14B69D826A7 DUP11 PUSH1 0x40 MLOAD PUSH2 0x10A6 SWAP2 SWAP1 PUSH2 0x4BAE JUMP JUMPDEST PUSH1 0x40 MLOAD DUP1 SWAP2 SUB SWAP1 LOG3 POP POP POP POP POP JUMPDEST POP POP POP JUMP JUMPDEST PUSH0 DUP1 PUSH2 0x10C3 PUSH2 0x1ED3 JUMP JUMPDEST PUSH1 0x5 ADD PUSH0 DUP5 PUSH20 0xFFFFFFFFFFFFFFFFFFFFFFFFFFFFFFFFFFFFFFFF AND PUSH20 0xFFFFFFFFFFFFFFFFFFFFFFFFFFFFFFFFFFFFFFFF AND DUP2 MSTORE PUSH1 0x20 ADD SWAP1 DUP2 MSTORE PUSH1 0x20 ADD PUSH0 KECCAK256 PUSH1 0x40 MLOAD DUP1 PUSH1 0x60 ADD PUSH1 0x40 MSTORE SWAP1 DUP2 PUSH0 DUP3 ADD SLOAD DUP2 MSTORE PUSH1 0x20 ADD PUSH1 0x1 DUP3 ADD PUSH0 SWAP1 SLOAD SWAP1 PUSH2 0x100 EXP SWAP1 DIV PUSH16 0xFFFFFFFFFFFFFFFFFFFFFFFFFFFFFFFF AND PUSH16 0xFFFFFFFFFFFFFFFFFFFFFFFFFFFFFFFF AND PUSH16 0xFFFFFFFFFFFFFFFFFFFFFFFFFFFFFFFF AND DUP2 MSTORE PUSH1 0x20 ADD PUSH1 0x1 DUP3 ADD PUSH1 0x10 SWAP1 SLOAD SWAP1 PUSH2 0x100 EXP SWAP1 DIV PUSH16 0xFFFFFFFFFFFFFFFFFFFFFFFFFFFFFFFF AND PUSH16 0xFFFFFFFFFFFFFFFFFFFFFFFFFFFFFFFF AND PUSH16 0xFFFFFFFFFFFFFFFFFFFFFFFFFFFFFFFF AND DUP2 MSTORE POP POP SWAP1 POP TIMESTAMP DUP2 PUSH1 0x20 ADD MLOAD PUSH16 0xFFFFFFFFFFFFFFFFFFFFFFFFFFFFFFFF AND GT ISZERO DUP1 ISZERO PUSH2 0x11E5 JUMPI POP DUP1 PUSH1 0x40 ADD MLOAD PUSH16 0xFFFFFFFFFFFFFFFFFFFFFFFFFFFFFFFF AND TIMESTAMP LT JUMPDEST DUP1 ISZERO PUSH2 0x123D JUMPI POP PUSH0 PUSH2 0x123B PUSH2 0x11F8 PUSH2 0x1ED3 JUMP JUMPDEST PUSH1 0x6 ADD PUSH0 DUP7 PUSH20 0xFFFFFFFFFFFFFFFFFFFFFFFFFFFFFFFFFFFFFFFF AND PUSH20 0xFFFFFFFFFFFFFFFFFFFFFFFFFFFFFFFFFFFFFFFF AND DUP2 MSTORE PUSH1 0x20 ADD SWAP1 DUP2 MSTORE PUSH1 0x20 ADD PUSH0 KECCAK256 PUSH2 0x1EE1 JUMP JUMPDEST GT JUMPDEST SWAP2 POP POP SWAP2 SWAP1 POP JUMP JUMPDEST PUSH1 0x60 PUSH0 PUSH2 0x125B PUSH2 0x1253 PUSH2 0x1ED3 JUMP JUMPDEST PUSH1 0x2 ADD PUSH2 0x255E JUMP JUMPDEST SWAP1 POP PUSH0 DUP2 MLOAD SWAP1 POP PUSH0 DUP1 JUMPDEST DUP3 DUP2 LT ISZERO PUSH2 0x130B JUMPI PUSH2 0x1290 DUP5 DUP3 DUP2 MLOAD DUP2 LT PUSH2 0x1283 JUMPI PUSH2 0x1282 PUSH2 0x419B JUMP JUMPDEST JUMPDEST PUSH1 0x20 MUL PUSH1 0x20 ADD ADD MLOAD PUSH2 0x10B9 JUMP JUMPDEST ISZERO PUSH2 0x12A8 JUMPI DUP2 DUP1 PUSH2 0x12A0 SWAP1 PUSH2 0x4BCE JUMP JUMPDEST SWAP3 POP POP PUSH2 0x12F7 JUMP JUMPDEST PUSH0 DUP5 DUP3 DUP2 MLOAD DUP2 LT PUSH2 0x12BC JUMPI PUSH2 0x12BB PUSH2 0x419B JUMP JUMPDEST JUMPDEST PUSH1 0x20 MUL PUSH1 0x20 ADD ADD SWAP1 PUSH20 0xFFFFFFFFFFFFFFFFFFFFFFFFFFFFFFFFFFFFFFFF AND SWAP1 DUP2 PUSH20 0xFFFFFFFFFFFFFFFFFFFFFFFFFFFFFFFFFFFFFFFF AND DUP2 MSTORE POP POP JUMPDEST PUSH1 0x1 DUP2 PUSH2 0x1304 SWAP2 SWAP1 PUSH2 0x48A3 JUMP JUMPDEST SWAP1 POP PUSH2 0x1265 JUMP JUMPDEST POP DUP1 PUSH8 0xFFFFFFFFFFFFFFFF DUP2 GT ISZERO PUSH2 0x1326 JUMPI PUSH2 0x1325 PUSH2 0x41C8 JUMP JUMPDEST JUMPDEST PUSH1 0x40 MLOAD SWAP1 DUP1 DUP3 MSTORE DUP1 PUSH1 0x20 MUL PUSH1 0x20 ADD DUP3 ADD PUSH1 0x40 MSTORE DUP1 ISZERO PUSH2 0x135F JUMPI DUP2 PUSH1 0x20 ADD JUMPDEST PUSH2 0x134C PUSH2 0x3282 JUMP JUMPDEST DUP2 MSTORE PUSH1 0x20 ADD SWAP1 PUSH1 0x1 SWAP1 SUB SWAP1 DUP2 PUSH2 0x1344 JUMPI SWAP1 POP JUMPDEST POP SWAP4 POP PUSH0 DUP1 JUMPDEST DUP4 DUP2 LT ISZERO PUSH2 0x15C2 JUMPI PUSH0 PUSH20 0xFFFFFFFFFFFFFFFFFFFFFFFFFFFFFFFFFFFFFFFF AND DUP6 DUP3 DUP2 MLOAD DUP2 LT PUSH2 0x1397 JUMPI PUSH2 0x1396 PUSH2 0x419B JUMP JUMPDEST JUMPDEST PUSH1 0x20 MUL PUSH1 0x20 ADD ADD MLOAD PUSH20 0xFFFFFFFFFFFFFFFFFFFFFFFFFFFFFFFFFFFFFFFF AND EQ PUSH2 0x15AE JUMPI PUSH0 DUP6 DUP3 DUP2 MLOAD DUP2 LT PUSH2 0x13CE JUMPI PUSH2 0x13CD PUSH2 0x419B JUMP JUMPDEST JUMPDEST PUSH1 0x20 MUL PUSH1 0x20 ADD ADD MLOAD SWAP1 POP PUSH0 PUSH2 0x13E1 PUSH2 0x1ED3 JUMP JUMPDEST PUSH1 0x5 ADD PUSH0 DUP4 PUSH20 0xFFFFFFFFFFFFFFFFFFFFFFFFFFFFFFFFFFFFFFFF AND PUSH20 0xFFFFFFFFFFFFFFFFFFFFFFFFFFFFFFFFFFFFFFFF AND DUP2 MSTORE PUSH1 0x20 ADD SWAP1 DUP2 MSTORE PUSH1 0x20 ADD PUSH0 KECCAK256 PUSH1 0x40 MLOAD DUP1 PUSH1 0x60 ADD PUSH1 0x40 MSTORE SWAP1 DUP2 PUSH0 DUP3 ADD SLOAD DUP2 MSTORE PUSH1 0x20 ADD PUSH1 0x1 DUP3 ADD PUSH0 SWAP1 SLOAD SWAP1 PUSH2 0x100 EXP SWAP1 DIV PUSH16 0xFFFFFFFFFFFFFFFFFFFFFFFFFFFFFFFF AND PUSH16 0xFFFFFFFFFFFFFFFFFFFFFFFFFFFFFFFF AND PUSH16 0xFFFFFFFFFFFFFFFFFFFFFFFFFFFFFFFF AND DUP2 MSTORE PUSH1 0x20 ADD PUSH1 0x1 DUP3 ADD PUSH1 0x10 SWAP1 SLOAD SWAP1 PUSH2 0x100 EXP SWAP1 DIV PUSH16 0xFFFFFFFFFFFFFFFFFFFFFFFFFFFFFFFF AND PUSH16 0xFFFFFFFFFFFFFFFFFFFFFFFFFFFFFFFF AND PUSH16 0xFFFFFFFFFFFFFFFFFFFFFFFFFFFFFFFF AND DUP2 MSTORE POP POP SWAP1 POP PUSH1 0x40 MLOAD DUP1 PUSH1 0xA0 ADD PUSH1 0x40 MSTORE DUP1 DUP4 PUSH20 0xFFFFFFFFFFFFFFFFFFFFFFFFFFFFFFFFFFFFFFFF AND DUP2 MSTORE PUSH1 0x20 ADD PUSH2 0x153D PUSH2 0x14FA PUSH2 0x1ED3 JUMP JUMPDEST PUSH1 0x6 ADD PUSH0 DUP7 PUSH20 0xFFFFFFFFFFFFFFFFFFFFFFFFFFFFFFFFFFFFFFFF AND PUSH20 0xFFFFFFFFFFFFFFFFFFFFFFFFFFFFFFFFFFFFFFFF AND DUP2 MSTORE PUSH1 0x20 ADD SWAP1 DUP2 MSTORE PUSH1 0x20 ADD PUSH0 KECCAK256 PUSH2 0x255E JUMP JUMPDEST DUP2 MSTORE PUSH1 0x20 ADD DUP3 PUSH0 ADD MLOAD DUP2 MSTORE PUSH1 0x20 ADD DUP3 PUSH1 0x20 ADD MLOAD PUSH16 0xFFFFFFFFFFFFFFFFFFFFFFFFFFFFFFFF AND DUP2 MSTORE PUSH1 0x20 ADD DUP3 PUSH1 0x40 ADD MLOAD PUSH16 0xFFFFFFFFFFFFFFFFFFFFFFFFFFFFFFFF AND DUP2 MSTORE POP DUP9 DUP6 DUP1 PUSH2 0x158D SWAP1 PUSH2 0x4BCE JUMP JUMPDEST SWAP7 POP DUP2 MLOAD DUP2 LT PUSH2 0x15A0 JUMPI PUSH2 0x159F PUSH2 0x419B JUMP JUMPDEST JUMPDEST PUSH1 0x20 MUL PUSH1 0x20 ADD ADD DUP2 SWAP1 MSTORE POP POP POP JUMPDEST PUSH1 0x1 DUP2 PUSH2 0x15BB SWAP2 SWAP1 PUSH2 0x48A3 JUMP JUMPDEST SWAP1 POP PUSH2 0x1365 JUMP JUMPDEST POP POP POP POP POP SWAP1 JUMP JUMPDEST PUSH0 DUP1 PUSH2 0x15DF PUSH2 0x15D8 DUP7 PUSH2 0x2691 JUMP JUMPDEST DUP6 DUP6 PUSH2 0x2796 JUMP JUMPDEST SWAP1 POP PUSH2 0x15E9 PUSH2 0x1ED3 JUMP JUMPDEST PUSH1 0x7 ADD PUSH0 DUP7 PUSH2 0x100 ADD CALLDATALOAD DUP2 MSTORE PUSH1 0x20 ADD SWAP1 DUP2 MSTORE PUSH1 0x20 ADD PUSH0 KECCAK256 PUSH0 SWAP1 SLOAD SWAP1 PUSH2 0x100 EXP SWAP1 DIV PUSH1 0xFF AND ISZERO DUP1 ISZERO PUSH2 0x161F JUMPI POP PUSH2 0x161E DUP2 PUSH2 0xA58 JUMP JUMPDEST JUMPDEST SWAP2 POP SWAP4 POP SWAP4 SWAP2 POP POP JUMP JUMPDEST PUSH1 0x60 DUP3 DUP3 SWAP1 POP PUSH8 0xFFFFFFFFFFFFFFFF DUP2 GT ISZERO PUSH2 0x1648 JUMPI PUSH2 0x1647 PUSH2 0x41C8 JUMP JUMPDEST JUMPDEST PUSH1 0x40 MLOAD SWAP1 DUP1 DUP3 MSTORE DUP1 PUSH1 0x20 MUL PUSH1 0x20 ADD DUP3 ADD PUSH1 0x40 MSTORE DUP1 ISZERO PUSH2 0x167B JUMPI DUP2 PUSH1 0x20 ADD JUMPDEST PUSH1 0x60 DUP2 MSTORE PUSH1 0x20 ADD SWAP1 PUSH1 0x1 SWAP1 SUB SWAP1 DUP2 PUSH2 0x1666 JUMPI SWAP1 POP JUMPDEST POP SWAP1 POP PUSH0 JUMPDEST DUP4 DUP4 SWAP1 POP DUP2 LT ISZERO PUSH2 0x1726 JUMPI PUSH2 0x16FB ADDRESS DUP6 DUP6 DUP5 DUP2 DUP2 LT PUSH2 0x16A2 JUMPI PUSH2 0x16A1 PUSH2 0x419B JUMP JUMPDEST JUMPDEST SWAP1 POP PUSH1 0x20 MUL DUP2 ADD SWAP1 PUSH2 0x16B4 SWAP2 SWAP1 PUSH2 0x4139 JUMP JUMPDEST DUP1 DUP1 PUSH1 0x1F ADD PUSH1 0x20 DUP1 SWAP2 DIV MUL PUSH1 0x20 ADD PUSH1 0x40 MLOAD SWAP1 DUP2 ADD PUSH1 0x40 MSTORE DUP1 SWAP4 SWAP3 SWAP2 SWAP1 DUP2 DUP2 MSTORE PUSH1 0x20 ADD DUP4 DUP4 DUP1 DUP3 DUP5 CALLDATACOPY PUSH0 DUP2 DUP5 ADD MSTORE PUSH1 0x1F NOT PUSH1 0x1F DUP3 ADD AND SWAP1 POP DUP1 DUP4 ADD SWAP3 POP POP POP POP POP POP POP PUSH2 0x2805 JUMP JUMPDEST DUP3 DUP3 DUP2 MLOAD DUP2 LT PUSH2 0x170E JUMPI PUSH2 0x170D PUSH2 0x419B JUMP JUMPDEST JUMPDEST PUSH1 0x20 MUL PUSH1 0x20 ADD ADD DUP2 SWAP1 MSTORE POP DUP1 DUP1 PUSH1 0x1 ADD SWAP2 POP POP PUSH2 0x1680 JUMP JUMPDEST POP SWAP3 SWAP2 POP POP JUMP JUMPDEST PUSH0 DUP1 PUSH2 0x1737 PUSH2 0x2832 JUMP JUMPDEST PUSH0 ADD PUSH0 SWAP1 SLOAD SWAP1 PUSH2 0x100 EXP SWAP1 DIV PUSH20 0xFFFFFFFFFFFFFFFFFFFFFFFFFFFFFFFFFFFFFFFF AND SWAP1 POP PUSH0 PUSH20 0xFFFFFFFFFFFFFFFFFFFFFFFFFFFFFFFFFFFFFFFF AND DUP2 PUSH20 0xFFFFFFFFFFFFFFFFFFFFFFFFFFFFFFFFFFFFFFFF AND EQ PUSH2 0x1797 JUMPI DUP1 SWAP2 POP POP PUSH2 0x17BC JUMP JUMPDEST PUSH32 0x0 SWAP2 POP POP JUMPDEST SWAP1 JUMP JUMPDEST PUSH2 0x17C7 PUSH2 0x2860 JUMP JUMPDEST DUP1 PUSH2 0x17D0 PUSH2 0x2832 JUMP JUMPDEST PUSH0 ADD PUSH0 PUSH2 0x100 EXP DUP2 SLOAD DUP2 PUSH20 0xFFFFFFFFFFFFFFFFFFFFFFFFFFFFFFFFFFFFFFFF MUL NOT AND SWAP1 DUP4 PUSH20 0xFFFFFFFFFFFFFFFFFFFFFFFFFFFFFFFFFFFFFFFF AND MUL OR SWAP1 SSTORE POP POP JUMP JUMPDEST PUSH32 0x0 DUP2 JUMP JUMPDEST PUSH0 PUSH2 0x183F PUSH2 0x172D JUMP JUMPDEST PUSH20 0xFFFFFFFFFFFFFFFFFFFFFFFFFFFFFFFFFFFFFFFF AND PUSH4 0x35567E1A ADDRESS PUSH0 PUSH1 0x40 MLOAD DUP4 PUSH4 0xFFFFFFFF AND PUSH1 0xE0 SHL DUP2 MSTORE PUSH1 0x4 ADD PUSH2 0x1879 SWAP3 SWAP2 SWAP1 PUSH2 0x4C71 JUMP JUMPDEST PUSH1 0x20 PUSH1 0x40 MLOAD DUP1 DUP4 SUB DUP2 DUP7 GAS STATICCALL ISZERO DUP1 ISZERO PUSH2 0x1894 JUMPI RETURNDATASIZE PUSH0 DUP1 RETURNDATACOPY RETURNDATASIZE PUSH0 REVERT JUMPDEST POP POP POP POP PUSH1 0x40 MLOAD RETURNDATASIZE PUSH1 0x1F NOT PUSH1 0x1F DUP3 ADD AND DUP3 ADD DUP1 PUSH1 0x40 MSTORE POP DUP2 ADD SWAP1 PUSH2 0x18B8 SWAP2 SWAP1 PUSH2 0x4CAC JUMP JUMPDEST SWAP1 POP SWAP1 JUMP JUMPDEST PUSH0 PUSH2 0x18C6 PUSH2 0x28AA JUMP JUMPDEST PUSH0 ADD PUSH0 SWAP1 SLOAD SWAP1 PUSH2 0x100 EXP SWAP1 DIV PUSH1 0xFF AND SWAP1 POP PUSH0 PUSH2 0x18E0 PUSH2 0x28AA JUMP JUMPDEST PUSH0 ADD PUSH1 0x1 SWAP1 SLOAD SWAP1 PUSH2 0x100 EXP SWAP1 DIV PUSH1 0xFF AND SWAP1 POP PUSH0 DUP2 ISZERO SWAP1 POP DUP1 DUP1 ISZERO PUSH2 0x1907 JUMPI POP PUSH1 0x1 DUP4 PUSH1 0xFF AND LT JUMPDEST DUP1 PUSH2 0x1927 JUMPI POP PUSH2 0x1916 ADDRESS PUSH2 0x28B8 JUMP JUMPDEST ISZERO DUP1 ISZERO PUSH2 0x1926 JUMPI POP PUSH1 0x1 DUP4 PUSH1 0xFF AND EQ JUMPDEST JUMPDEST PUSH2 0x1966 JUMPI PUSH1 0x40 MLOAD PUSH32 0x8C379A000000000000000000000000000000000000000000000000000000000 DUP2 MSTORE PUSH1 0x4 ADD PUSH2 0x195D SWAP1 PUSH2 0x4D47 JUMP JUMPDEST PUSH1 0x40 MLOAD DUP1 SWAP2 SUB SWAP1 REVERT JUMPDEST PUSH1 0x1 PUSH2 0x1970 PUSH2 0x28AA JUMP JUMPDEST PUSH0 ADD PUSH0 PUSH2 0x100 EXP DUP2 SLOAD DUP2 PUSH1 0xFF MUL NOT AND SWAP1 DUP4 PUSH1 0xFF AND MUL OR SWAP1 SSTORE POP DUP1 ISZERO PUSH2 0x19B3 JUMPI PUSH1 0x1 PUSH2 0x1999 PUSH2 0x28AA JUMP JUMPDEST PUSH0 ADD PUSH1 0x1 PUSH2 0x100 EXP DUP2 SLOAD DUP2 PUSH1 0xFF MUL NOT AND SWAP1 DUP4 ISZERO ISZERO MUL OR SWAP1 SSTORE POP JUMPDEST PUSH2 0x1A00 DUP7 DUP7 DUP7 DUP1 DUP1 PUSH1 0x1F ADD PUSH1 0x20 DUP1 SWAP2 DIV MUL PUSH1 0x20 ADD PUSH1 0x40 MLOAD SWAP1 DUP2 ADD PUSH1 0x40 MSTORE DUP1 SWAP4 SWAP3 SWAP2 SWAP1 DUP2 DUP2 MSTORE PUSH1 0x20 ADD DUP4 DUP4 DUP1 DUP3 DUP5 CALLDATACOPY PUSH0 DUP2 DUP5 ADD MSTORE PUSH1 0x1F NOT PUSH1 0x1F DUP3 ADD AND SWAP1 POP DUP1 DUP4 ADD SWAP3 POP POP POP POP POP POP POP PUSH2 0x28DA JUMP JUMPDEST PUSH2 0x1A08 PUSH2 0x2832 JUMP JUMPDEST PUSH1 0x1 ADD DUP2 SWAP1 SSTORE POP PUSH2 0x1A1A DUP7 PUSH1 0x1 PUSH2 0x23B1 JUMP JUMPDEST DUP1 ISZERO PUSH2 0x1A7B JUMPI PUSH0 PUSH2 0x1A29 PUSH2 0x28AA JUMP JUMPDEST PUSH0 ADD PUSH1 0x1 PUSH2 0x100 EXP DUP2 SLOAD DUP2 PUSH1 0xFF MUL NOT AND SWAP1 DUP4 ISZERO ISZERO MUL OR SWAP1 SSTORE POP PUSH32 0x7F26B83FF96E1F2B6A682F133852F6798A09C465DA95921460CEFB3847402498 PUSH1 0x1 PUSH1 0x40 MLOAD PUSH2 0x1A72 SWAP2 SWAP1 PUSH2 0x4D9E JUMP JUMPDEST PUSH1 0x40 MLOAD DUP1 SWAP2 SUB SWAP1 LOG1 JUMPDEST POP POP POP POP POP POP JUMP JUMPDEST PUSH1 0x60 PUSH0 PUSH2 0x1A99 PUSH2 0x1A91 PUSH2 0x1ED3 JUMP JUMPDEST PUSH1 0x2 ADD PUSH2 0x255E JUMP JUMPDEST SWAP1 POP PUSH0 DUP2 MLOAD SWAP1 POP DUP1 PUSH8 0xFFFFFFFFFFFFFFFF DUP2 GT ISZERO PUSH2 0x1ABA JUMPI PUSH2 0x1AB9 PUSH2 0x41C8 JUMP JUMPDEST JUMPDEST PUSH1 0x40 MLOAD SWAP1 DUP1 DUP3 MSTORE DUP1 PUSH1 0x20 MUL PUSH1 0x20 ADD DUP3 ADD PUSH1 0x40 MSTORE DUP1 ISZERO PUSH2 0x1AF3 JUMPI DUP2 PUSH1 0x20 ADD JUMPDEST PUSH2 0x1AE0 PUSH2 0x3282 JUMP JUMPDEST DUP2 MSTORE PUSH1 0x20 ADD SWAP1 PUSH1 0x1 SWAP1 SUB SWAP1 DUP2 PUSH2 0x1AD8 JUMPI SWAP1 POP JUMPDEST POP SWAP3 POP PUSH0 JUMPDEST DUP2 DUP2 LT ISZERO PUSH2 0x1CFB JUMPI PUSH0 DUP4 DUP3 DUP2 MLOAD DUP2 LT PUSH2 0x1B14 JUMPI PUSH2 0x1B13 PUSH2 0x419B JUMP JUMPDEST JUMPDEST PUSH1 0x20 MUL PUSH1 0x20 ADD ADD MLOAD SWAP1 POP PUSH0 PUSH2 0x1B27 PUSH2 0x1ED3 JUMP JUMPDEST PUSH1 0x5 ADD PUSH0 DUP4 PUSH20 0xFFFFFFFFFFFFFFFFFFFFFFFFFFFFFFFFFFFFFFFF AND PUSH20 0xFFFFFFFFFFFFFFFFFFFFFFFFFFFFFFFFFFFFFFFF AND DUP2 MSTORE PUSH1 0x20 ADD SWAP1 DUP2 MSTORE PUSH1 0x20 ADD PUSH0 KECCAK256 PUSH1 0x40 MLOAD DUP1 PUSH1 0x60 ADD PUSH1 0x40 MSTORE SWAP1 DUP2 PUSH0 DUP3 ADD SLOAD DUP2 MSTORE PUSH1 0x20 ADD PUSH1 0x1 DUP3 ADD PUSH0 SWAP1 SLOAD SWAP1 PUSH2 0x100 EXP SWAP1 DIV PUSH16 0xFFFFFFFFFFFFFFFFFFFFFFFFFFFFFFFF AND PUSH16 0xFFFFFFFFFFFFFFFFFFFFFFFFFFFFFFFF AND PUSH16 0xFFFFFFFFFFFFFFFFFFFFFFFFFFFFFFFF AND DUP2 MSTORE PUSH1 0x20 ADD PUSH1 0x1 DUP3 ADD PUSH1 0x10 SWAP1 SLOAD SWAP1 PUSH2 0x100 EXP SWAP1 DIV PUSH16 0xFFFFFFFFFFFFFFFFFFFFFFFFFFFFFFFF AND PUSH16 0xFFFFFFFFFFFFFFFFFFFFFFFFFFFFFFFF AND PUSH16 0xFFFFFFFFFFFFFFFFFFFFFFFFFFFFFFFF AND DUP2 MSTORE POP POP SWAP1 POP PUSH1 0x40 MLOAD DUP1 PUSH1 0xA0 ADD PUSH1 0x40 MSTORE DUP1 DUP4 PUSH20 0xFFFFFFFFFFFFFFFFFFFFFFFFFFFFFFFFFFFFFFFF AND DUP2 MSTORE PUSH1 0x20 ADD PUSH2 0x1C83 PUSH2 0x1C40 PUSH2 0x1ED3 JUMP JUMPDEST PUSH1 0x6 ADD PUSH0 DUP7 PUSH20 0xFFFFFFFFFFFFFFFFFFFFFFFFFFFFFFFFFFFFFFFF AND PUSH20 0xFFFFFFFFFFFFFFFFFFFFFFFFFFFFFFFFFFFFFFFF AND DUP2 MSTORE PUSH1 0x20 ADD SWAP1 DUP2 MSTORE PUSH1 0x20 ADD PUSH0 KECCAK256 PUSH2 0x255E JUMP JUMPDEST DUP2 MSTORE PUSH1 0x20 ADD DUP3 PUSH0 ADD MLOAD DUP2 MSTORE PUSH1 0x20 ADD DUP3 PUSH1 0x20 ADD MLOAD PUSH16 0xFFFFFFFFFFFFFFFFFFFFFFFFFFFFFFFF AND DUP2 MSTORE PUSH1 0x20 ADD DUP3 PUSH1 0x40 ADD MLOAD PUSH16 0xFFFFFFFFFFFFFFFFFFFFFFFFFFFFFFFF AND DUP2 MSTORE POP DUP7 DUP5 DUP2 MLOAD DUP2 LT PUSH2 0x1CDA JUMPI PUSH2 0x1CD9 PUSH2 0x419B JUMP JUMPDEST JUMPDEST PUSH1 0x20 MUL PUSH1 0x20 ADD ADD DUP2 SWAP1 MSTORE POP POP POP PUSH1 0x1 DUP2 PUSH2 0x1CF4 SWAP2 SWAP1 PUSH2 0x48A3 JUMP JUMPDEST SWAP1 POP PUSH2 0x1AF8 JUMP JUMPDEST POP POP POP SWAP1 JUMP JUMPDEST PUSH1 0x60 PUSH2 0x1D15 PUSH2 0x1D0E PUSH2 0x1ED3 JUMP JUMPDEST PUSH0 ADD PUSH2 0x255E JUMP JUMPDEST SWAP1 POP SWAP1 JUMP JUMPDEST PUSH2 0x1D22 PUSH2 0x3282 JUMP JUMPDEST PUSH0 PUSH2 0x1D2B PUSH2 0x1ED3 JUMP JUMPDEST PUSH1 0x5 ADD PUSH0 DUP5 PUSH20 0xFFFFFFFFFFFFFFFFFFFFFFFFFFFFFFFFFFFFFFFF AND PUSH20 0xFFFFFFFFFFFFFFFFFFFFFFFFFFFFFFFFFFFFFFFF AND DUP2 MSTORE PUSH1 0x20 ADD SWAP1 DUP2 MSTORE PUSH1 0x20 ADD PUSH0 KECCAK256 PUSH1 0x40 MLOAD DUP1 PUSH1 0x60 ADD PUSH1 0x40 MSTORE SWAP1 DUP2 PUSH0 DUP3 ADD SLOAD DUP2 MSTORE PUSH1 0x20 ADD PUSH1 0x1 DUP3 ADD PUSH0 SWAP1 SLOAD SWAP1 PUSH2 0x100 EXP SWAP1 DIV PUSH16 0xFFFFFFFFFFFFFFFFFFFFFFFFFFFFFFFF AND PUSH16 0xFFFFFFFFFFFFFFFFFFFFFFFFFFFFFFFF AND PUSH16 0xFFFFFFFFFFFFFFFFFFFFFFFFFFFFFFFF AND DUP2 MSTORE PUSH1 0x20 ADD PUSH1 0x1 DUP3 ADD PUSH1 0x10 SWAP1 SLOAD SWAP1 PUSH2 0x100 EXP SWAP1 DIV PUSH16 0xFFFFFFFFFFFFFFFFFFFFFFFFFFFFFFFF AND PUSH16 0xFFFFFFFFFFFFFFFFFFFFFFFFFFFFFFFF AND PUSH16 0xFFFFFFFFFFFFFFFFFFFFFFFFFFFFFFFF AND DUP2 MSTORE POP POP SWAP1 POP PUSH1 0x40 MLOAD DUP1 PUSH1 0xA0 ADD PUSH1 0x40 MSTORE DUP1 DUP5 PUSH20 0xFFFFFFFFFFFFFFFFFFFFFFFFFFFFFFFFFFFFFFFF AND DUP2 MSTORE PUSH1 0x20 ADD PUSH2 0x1E87 PUSH2 0x1E44 PUSH2 0x1ED3 JUMP JUMPDEST PUSH1 0x6 ADD PUSH0 DUP8 PUSH20 0xFFFFFFFFFFFFFFFFFFFFFFFFFFFFFFFFFFFFFFFF AND PUSH20 0xFFFFFFFFFFFFFFFFFFFFFFFFFFFFFFFFFFFFFFFF AND DUP2 MSTORE PUSH1 0x20 ADD SWAP1 DUP2 MSTORE PUSH1 0x20 ADD PUSH0 KECCAK256 PUSH2 0x255E JUMP JUMPDEST DUP2 MSTORE PUSH1 0x20 ADD DUP3 PUSH0 ADD MLOAD DUP2 MSTORE PUSH1 0x20 ADD DUP3 PUSH1 0x20 ADD MLOAD PUSH16 0xFFFFFFFFFFFFFFFFFFFFFFFFFFFFFFFF AND DUP2 MSTORE PUSH1 0x20 ADD DUP3 PUSH1 0x40 ADD MLOAD PUSH16 0xFFFFFFFFFFFFFFFFFFFFFFFFFFFFFFFF AND DUP2 MSTORE POP SWAP2 POP POP SWAP2 SWAP1 POP JUMP JUMPDEST PUSH0 PUSH2 0x1EDC PUSH2 0x290C JUMP JUMPDEST SWAP1 POP SWAP1 JUMP JUMPDEST PUSH0 PUSH2 0x1EED DUP3 PUSH0 ADD PUSH2 0x293A JUMP JUMPDEST SWAP1 POP SWAP2 SWAP1 POP JUMP JUMPDEST PUSH0 PUSH1 0x4 DUP4 DUP4 SWAP1 POP LT ISZERO PUSH2 0x1F3C JUMPI PUSH1 0x40 MLOAD PUSH32 0x8C379A000000000000000000000000000000000000000000000000000000000 DUP2 MSTORE PUSH1 0x4 ADD PUSH2 0x1F33 SWAP1 PUSH2 0x4E01 JUMP JUMPDEST PUSH1 0x40 MLOAD DUP1 SWAP2 SUB SWAP1 REVERT JUMPDEST DUP3 DUP3 PUSH0 SWAP1 PUSH1 0x4 SWAP3 PUSH2 0x1F4F SWAP4 SWAP3 SWAP2 SWAP1 PUSH2 0x4E27 JUMP JUMPDEST SWAP1 PUSH2 0x1F5A SWAP2 SWAP1 PUSH2 0x4E77 JUMP JUMPDEST SWAP1 POP SWAP3 SWAP2 POP POP JUMP JUMPDEST PUSH0 PUSH2 0x1F6F DUP4 PUSH0 ADD DUP4 PUSH2 0x2949 JUMP JUMPDEST PUSH0 SHR SWAP1 POP SWAP3 SWAP2 POP POP JUMP JUMPDEST PUSH0 DUP1 PUSH1 0x44 DUP5 DUP5 SWAP1 POP LT ISZERO PUSH2 0x1FC2 JUMPI PUSH1 0x40 MLOAD PUSH32 0x8C379A000000000000000000000000000000000000000000000000000000000 DUP2 MSTORE PUSH1 0x4 ADD PUSH2 0x1FB9 SWAP1 PUSH2 0x4E01 JUMP JUMPDEST PUSH1 0x40 MLOAD DUP1 SWAP2 SUB SWAP1 REVERT JUMPDEST DUP4 DUP4 PUSH1 0x4 SWAP1 PUSH1 0x24 SWAP3 PUSH2 0x1FD6 SWAP4 SWAP3 SWAP2 SWAP1 PUSH2 0x4E27 JUMP JUMPDEST DUP2 ADD SWAP1 PUSH2 0x1FE3 SWAP2 SWAP1 PUSH2 0x4F10 JUMP JUMPDEST SWAP2 POP DUP4 DUP4 PUSH1 0x24 SWAP1 PUSH1 0x44 SWAP3 PUSH2 0x1FF9 SWAP4 SWAP3 SWAP2 SWAP1 PUSH2 0x4E27 JUMP JUMPDEST DUP2 ADD SWAP1 PUSH2 0x2006 SWAP2 SWAP1 PUSH2 0x4F3B JUMP JUMPDEST SWAP1 POP SWAP3 POP SWAP3 SWAP1 POP JUMP JUMPDEST PUSH0 PUSH2 0x2034 DUP4 PUSH0 ADD DUP4 PUSH20 0xFFFFFFFFFFFFFFFFFFFFFFFFFFFFFFFFFFFFFFFF AND PUSH0 SHL PUSH2 0x2970 JUMP JUMPDEST SWAP1 POP SWAP3 SWAP2 POP POP JUMP JUMPDEST PUSH1 0x60 DUP1 PUSH1 0x60 PUSH1 0x64 DUP6 DUP6 SWAP1 POP LT ISZERO PUSH2 0x2088 JUMPI PUSH1 0x40 MLOAD PUSH32 0x8C379A000000000000000000000000000000000000000000000000000000000 DUP2 MSTORE PUSH1 0x4 ADD PUSH2 0x207F SWAP1 PUSH2 0x4E01 JUMP JUMPDEST PUSH1 0x40 MLOAD DUP1 SWAP2 SUB SWAP1 REVERT JUMPDEST DUP5 DUP5 PUSH1 0x4 SWAP1 DUP1 SWAP3 PUSH2 0x209B SWAP4 SWAP3 SWAP2 SWAP1 PUSH2 0x4E27 JUMP JUMPDEST DUP2 ADD SWAP1 PUSH2 0x20A8 SWAP2 SWAP1 PUSH2 0x5270 JUMP JUMPDEST DUP1 SWAP4 POP DUP2 SWAP5 POP DUP3 SWAP6 POP POP POP POP SWAP3 POP SWAP3 POP SWAP3 JUMP JUMPDEST PUSH2 0x20C3 PUSH2 0x172D JUMP JUMPDEST PUSH20 0xFFFFFFFFFFFFFFFFFFFFFFFFFFFFFFFFFFFFFFFF AND CALLER PUSH20 0xFFFFFFFFFFFFFFFFFFFFFFFFFFFFFFFFFFFFFFFF AND EQ PUSH2 0x2130 JUMPI PUSH1 0x40 MLOAD PUSH32 0x8C379A000000000000000000000000000000000000000000000000000000000 DUP2 MSTORE PUSH1 0x4 ADD PUSH2 0x2127 SWAP1 PUSH2 0x535E JUMP JUMPDEST PUSH1 0x40 MLOAD DUP1 SWAP2 SUB SWAP1 REVERT JUMPDEST JUMP JUMPDEST PUSH0 DUP1 PUSH2 0x213D DUP4 PUSH2 0x2990 JUMP JUMPDEST SWAP1 POP PUSH0 PUSH2 0x21A5 DUP6 DUP1 PUSH2 0x140 ADD SWAP1 PUSH2 0x2154 SWAP2 SWAP1 PUSH2 0x4139 JUMP JUMPDEST DUP1 DUP1 PUSH1 0x1F ADD PUSH1 0x20 DUP1 SWAP2 DIV MUL PUSH1 0x20 ADD PUSH1 0x40 MLOAD SWAP1 DUP2 ADD PUSH1 0x40 MSTORE DUP1 SWAP4 SWAP3 SWAP2 SWAP1 DUP2 DUP2 MSTORE PUSH1 0x20 ADD DUP4 DUP4 DUP1 DUP3 DUP5 CALLDATACOPY PUSH0 DUP2 DUP5 ADD MSTORE PUSH1 0x1F NOT PUSH1 0x1F DUP3 ADD AND SWAP1 POP DUP1 DUP4 ADD SWAP3 POP POP POP POP POP POP POP DUP4 PUSH2 0x29C3 SWAP1 SWAP2 SWAP1 PUSH4 0xFFFFFFFF AND JUMP JUMPDEST SWAP1 POP PUSH2 0x21B1 DUP2 DUP7 PUSH2 0x600 JUMP JUMPDEST PUSH2 0x21C0 JUMPI PUSH1 0x1 SWAP3 POP POP POP PUSH2 0x2311 JUMP JUMPDEST PUSH0 PUSH2 0x21C9 PUSH2 0x1ED3 JUMP JUMPDEST PUSH1 0x5 ADD PUSH0 DUP4 PUSH20 0xFFFFFFFFFFFFFFFFFFFFFFFFFFFFFFFFFFFFFFFF AND PUSH20 0xFFFFFFFFFFFFFFFFFFFFFFFFFFFFFFFFFFFFFFFF AND DUP2 MSTORE PUSH1 0x20 ADD SWAP1 DUP2 MSTORE PUSH1 0x20 ADD PUSH0 KECCAK256 PUSH1 0x40 MLOAD DUP1 PUSH1 0x60 ADD PUSH1 0x40 MSTORE SWAP1 DUP2 PUSH0 DUP3 ADD SLOAD DUP2 MSTORE PUSH1 0x20 ADD PUSH1 0x1 DUP3 ADD PUSH0 SWAP1 SLOAD SWAP1 PUSH2 0x100 EXP SWAP1 DIV PUSH16 0xFFFFFFFFFFFFFFFFFFFFFFFFFFFFFFFF AND PUSH16 0xFFFFFFFFFFFFFFFFFFFFFFFFFFFFFFFF AND PUSH16 0xFFFFFFFFFFFFFFFFFFFFFFFFFFFFFFFF AND DUP2 MSTORE PUSH1 0x20 ADD PUSH1 0x1 DUP3 ADD PUSH1 0x10 SWAP1 SLOAD SWAP1 PUSH2 0x100 EXP SWAP1 DIV PUSH16 0xFFFFFFFFFFFFFFFFFFFFFFFFFFFFFFFF AND PUSH16 0xFFFFFFFFFFFFFFFFFFFFFFFFFFFFFFFF AND PUSH16 0xFFFFFFFFFFFFFFFFFFFFFFFFFFFFFFFF AND DUP2 MSTORE POP POP SWAP1 POP PUSH0 DUP2 PUSH1 0x20 ADD MLOAD SWAP1 POP PUSH0 DUP3 PUSH1 0x40 ADD MLOAD SWAP1 POP PUSH2 0x2309 PUSH1 0x40 MLOAD DUP1 PUSH1 0x60 ADD PUSH1 0x40 MSTORE DUP1 PUSH0 PUSH20 0xFFFFFFFFFFFFFFFFFFFFFFFFFFFFFFFFFFFFFFFF AND DUP2 MSTORE PUSH1 0x20 ADD DUP5 PUSH6 0xFFFFFFFFFFFF AND DUP2 MSTORE PUSH1 0x20 ADD DUP4 PUSH6 0xFFFFFFFFFFFF AND DUP2 MSTORE POP PUSH2 0x29E8 JUMP JUMPDEST SWAP6 POP POP POP POP POP POP JUMPDEST SWAP3 SWAP2 POP POP JUMP JUMPDEST POP JUMP JUMPDEST PUSH0 DUP2 EQ PUSH2 0x23AE JUMPI PUSH0 CALLER PUSH20 0xFFFFFFFFFFFFFFFFFFFFFFFFFFFFFFFFFFFFFFFF AND DUP3 PUSH32 0xFFFFFFFFFFFFFFFFFFFFFFFFFFFFFFFFFFFFFFFFFFFFFFFFFFFFFFFFFFFFFFFF SWAP1 PUSH1 0x40 MLOAD PUSH2 0x2368 SWAP1 PUSH2 0x53A9 JUMP JUMPDEST PUSH0 PUSH1 0x40 MLOAD DUP1 DUP4 SUB DUP2 DUP6 DUP9 DUP9 CALL SWAP4 POP POP POP POP RETURNDATASIZE DUP1 PUSH0 DUP2 EQ PUSH2 0x23A3 JUMPI PUSH1 0x40 MLOAD SWAP2 POP PUSH1 0x1F NOT PUSH1 0x3F RETURNDATASIZE ADD AND DUP3 ADD PUSH1 0x40 MSTORE RETURNDATASIZE DUP3 MSTORE RETURNDATASIZE PUSH0 PUSH1 0x20 DUP5 ADD RETURNDATACOPY PUSH2 0x23A8 JUMP JUMPDEST PUSH1 0x60 SWAP2 POP JUMPDEST POP POP SWAP1 POP POP JUMPDEST POP JUMP JUMPDEST PUSH2 0x23BB DUP3 DUP3 PUSH2 0x2A2E JUMP JUMPDEST PUSH0 PUSH32 0x0 PUSH20 0xFFFFFFFFFFFFFFFFFFFFFFFFFFFFFFFFFFFFFFFF AND EXTCODESIZE GT ISZERO PUSH2 0x252D JUMPI DUP1 ISZERO PUSH2 0x2498 JUMPI PUSH32 0x0 PUSH20 0xFFFFFFFFFFFFFFFFFFFFFFFFFFFFFFFFFFFFFFFF AND PUSH4 0xB61E12B DUP4 PUSH2 0x2445 PUSH2 0x2832 JUMP JUMPDEST PUSH1 0x1 ADD SLOAD PUSH1 0x40 MLOAD DUP4 PUSH4 0xFFFFFFFF AND PUSH1 0xE0 SHL DUP2 MSTORE PUSH1 0x4 ADD PUSH2 0x2466 SWAP3 SWAP2 SWAP1 PUSH2 0x53CC JUMP JUMPDEST PUSH0 PUSH1 0x40 MLOAD DUP1 DUP4 SUB DUP2 PUSH0 DUP8 DUP1 EXTCODESIZE ISZERO DUP1 ISZERO PUSH2 0x247D JUMPI PUSH0 DUP1 REVERT JUMPDEST POP GAS CALL ISZERO DUP1 ISZERO PUSH2 0x248F JUMPI RETURNDATASIZE PUSH0 DUP1 RETURNDATACOPY RETURNDATASIZE PUSH0 REVERT JUMPDEST POP POP POP POP PUSH2 0x252C JUMP JUMPDEST PUSH32 0x0 PUSH20 0xFFFFFFFFFFFFFFFFFFFFFFFFFFFFFFFFFFFFFFFF AND PUSH4 0x9387A380 DUP4 PUSH2 0x24DD PUSH2 0x2832 JUMP JUMPDEST PUSH1 0x1 ADD SLOAD PUSH1 0x40 MLOAD DUP4 PUSH4 0xFFFFFFFF AND PUSH1 0xE0 SHL DUP2 MSTORE PUSH1 0x4 ADD PUSH2 0x24FE SWAP3 SWAP2 SWAP1 PUSH2 0x53CC JUMP JUMPDEST PUSH0 PUSH1 0x40 MLOAD DUP1 DUP4 SUB DUP2 PUSH0 DUP8 DUP1 EXTCODESIZE ISZERO DUP1 ISZERO PUSH2 0x2515 JUMPI PUSH0 DUP1 REVERT JUMPDEST POP GAS CALL ISZERO DUP1 ISZERO PUSH2 0x2527 JUMPI RETURNDATASIZE PUSH0 DUP1 RETURNDATACOPY RETURNDATASIZE PUSH0 REVERT JUMPDEST POP POP POP POP JUMPDEST JUMPDEST POP POP JUMP JUMPDEST PUSH0 PUSH2 0x2556 DUP4 PUSH0 ADD DUP4 PUSH20 0xFFFFFFFFFFFFFFFFFFFFFFFFFFFFFFFFFFFFFFFF AND PUSH0 SHL PUSH2 0x2B23 JUMP JUMPDEST SWAP1 POP SWAP3 SWAP2 POP POP JUMP JUMPDEST PUSH1 0x60 PUSH0 PUSH2 0x256C DUP4 PUSH0 ADD PUSH2 0x2B8A JUMP JUMPDEST SWAP1 POP PUSH1 0x60 DUP2 SWAP1 POP DUP1 SWAP3 POP POP POP SWAP2 SWAP1 POP JUMP JUMPDEST PUSH0 PUSH2 0x25A2 DUP4 PUSH0 ADD DUP4 PUSH20 0xFFFFFFFFFFFFFFFFFFFFFFFFFFFFFFFFFFFFFFFF AND PUSH0 SHL PUSH2 0x2BE3 JUMP JUMPDEST SWAP1 POP SWAP3 SWAP2 POP POP JUMP JUMPDEST PUSH0 PUSH32 0x0 PUSH20 0xFFFFFFFFFFFFFFFFFFFFFFFFFFFFFFFFFFFFFFFF AND EXTCODESIZE GT ISZERO PUSH2 0x268E JUMPI PUSH32 0x0 PUSH20 0xFFFFFFFFFFFFFFFFFFFFFFFFFFFFFFFFFFFFFFFF AND PUSH4 0xB61E12B DUP3 PUSH0 ADD PUSH1 0x20 DUP2 ADD SWAP1 PUSH2 0x2637 SWAP2 SWAP1 PUSH2 0x347A JUMP JUMPDEST PUSH2 0x263F PUSH2 0x2832 JUMP JUMPDEST PUSH1 0x1 ADD SLOAD PUSH1 0x40 MLOAD DUP4 PUSH4 0xFFFFFFFF AND PUSH1 0xE0 SHL DUP2 MSTORE PUSH1 0x4 ADD PUSH2 0x2660 SWAP3 SWAP2 SWAP1 PUSH2 0x53CC JUMP JUMPDEST PUSH0 PUSH1 0x40 MLOAD DUP1 DUP4 SUB DUP2 PUSH0 DUP8 DUP1 EXTCODESIZE ISZERO DUP1 ISZERO PUSH2 0x2677 JUMPI PUSH0 DUP1 REVERT JUMPDEST POP GAS CALL ISZERO DUP1 ISZERO PUSH2 0x2689 JUMPI RETURNDATASIZE PUSH0 DUP1 RETURNDATACOPY RETURNDATASIZE PUSH0 REVERT JUMPDEST POP POP POP POP JUMPDEST POP JUMP JUMPDEST PUSH1 0x60 PUSH32 0x3FD4A1A1A267C84185E3B7EECD57C68783C0581D538B9D6E5F23E4670497C1E9 DUP3 PUSH0 ADD PUSH1 0x20 DUP2 ADD SWAP1 PUSH2 0x26C6 SWAP2 SWAP1 PUSH2 0x347A JUMP JUMPDEST DUP4 PUSH1 0x20 ADD PUSH1 0x20 DUP2 ADD SWAP1 PUSH2 0x26D9 SWAP2 SWAP1 PUSH2 0x47E3 JUMP JUMPDEST DUP5 DUP1 PUSH1 0x40 ADD SWAP1 PUSH2 0x26E9 SWAP2 SWAP1 PUSH2 0x48D6 JUMP JUMPDEST PUSH1 0x40 MLOAD PUSH1 0x20 ADD PUSH2 0x26FA SWAP3 SWAP2 SWAP1 PUSH2 0x547E JUMP JUMPDEST PUSH1 0x40 MLOAD PUSH1 0x20 DUP2 DUP4 SUB SUB DUP2 MSTORE SWAP1 PUSH1 0x40 MSTORE DUP1 MLOAD SWAP1 PUSH1 0x20 ADD KECCAK256 DUP6 PUSH1 0x60 ADD CALLDATALOAD DUP7 PUSH1 0x80 ADD PUSH1 0x20 DUP2 ADD SWAP1 PUSH2 0x2728 SWAP2 SWAP1 PUSH2 0x46B2 JUMP JUMPDEST DUP8 PUSH1 0xA0 ADD PUSH1 0x20 DUP2 ADD SWAP1 PUSH2 0x273B SWAP2 SWAP1 PUSH2 0x46B2 JUMP JUMPDEST DUP9 PUSH1 0xC0 ADD PUSH1 0x20 DUP2 ADD SWAP1 PUSH2 0x274E SWAP2 SWAP1 PUSH2 0x46B2 JUMP JUMPDEST DUP10 PUSH1 0xE0 ADD PUSH1 0x20 DUP2 ADD SWAP1 PUSH2 0x2761 SWAP2 SWAP1 PUSH2 0x46B2 JUMP JUMPDEST DUP11 PUSH2 0x100 ADD CALLDATALOAD PUSH1 0x40 MLOAD PUSH1 0x20 ADD PUSH2 0x2780 SWAP11 SWAP10 SWAP9 SWAP8 SWAP7 SWAP6 SWAP5 SWAP4 SWAP3 SWAP2 SWAP1 PUSH2 0x54B4 JUMP JUMPDEST PUSH1 0x40 MLOAD PUSH1 0x20 DUP2 DUP4 SUB SUB DUP2 MSTORE SWAP1 PUSH1 0x40 MSTORE SWAP1 POP SWAP2 SWAP1 POP JUMP JUMPDEST PUSH0 PUSH2 0x27FC DUP4 DUP4 DUP1 DUP1 PUSH1 0x1F ADD PUSH1 0x20 DUP1 SWAP2 DIV MUL PUSH1 0x20 ADD PUSH1 0x40 MLOAD SWAP1 DUP2 ADD PUSH1 0x40 MSTORE DUP1 SWAP4 SWAP3 SWAP2 SWAP1 DUP2 DUP2 MSTORE PUSH1 0x20 ADD DUP4 DUP4 DUP1 DUP3 DUP5 CALLDATACOPY PUSH0 DUP2 DUP5 ADD MSTORE PUSH1 0x1F NOT PUSH1 0x1F DUP3 ADD AND SWAP1 POP DUP1 DUP4 ADD SWAP3 POP POP POP POP POP POP POP PUSH2 0x27EE DUP7 DUP1 MLOAD SWAP1 PUSH1 0x20 ADD KECCAK256 PUSH2 0x2CDF JUMP JUMPDEST PUSH2 0x29C3 SWAP1 SWAP2 SWAP1 PUSH4 0xFFFFFFFF AND JUMP JUMPDEST SWAP1 POP SWAP4 SWAP3 POP POP POP JUMP JUMPDEST PUSH1 0x60 PUSH2 0x282A DUP4 DUP4 PUSH1 0x40 MLOAD DUP1 PUSH1 0x60 ADD PUSH1 0x40 MSTORE DUP1 PUSH1 0x27 DUP2 MSTORE PUSH1 0x20 ADD PUSH2 0x59B2 PUSH1 0x27 SWAP2 CODECOPY PUSH2 0x2CF8 JUMP JUMPDEST SWAP1 POP SWAP3 SWAP2 POP POP JUMP JUMPDEST PUSH0 DUP1 PUSH32 0x36F52C1827DAB135F7FD44CA0BDDDE297E2F659C710E0EC53E975F22B548300 PUSH0 SHL SWAP1 POP DUP1 SWAP2 POP POP SWAP1 JUMP JUMPDEST PUSH2 0x2869 CALLER PUSH2 0xA58 JUMP JUMPDEST PUSH2 0x28A8 JUMPI PUSH1 0x40 MLOAD PUSH32 0x8C379A000000000000000000000000000000000000000000000000000000000 DUP2 MSTORE PUSH1 0x4 ADD PUSH2 0x289F SWAP1 PUSH2 0x5598 JUMP JUMPDEST PUSH1 0x40 MLOAD DUP1 SWAP2 SUB SWAP1 REVERT JUMPDEST JUMP JUMPDEST PUSH0 PUSH2 0x28B3 PUSH2 0x2DD3 JUMP JUMPDEST SWAP1 POP SWAP1 JUMP JUMPDEST PUSH0 DUP1 DUP3 PUSH20 0xFFFFFFFFFFFFFFFFFFFFFFFFFFFFFFFFFFFFFFFF AND EXTCODESIZE GT SWAP1 POP SWAP2 SWAP1 POP JUMP JUMPDEST PUSH0 DUP3 DUP3 PUSH1 0x40 MLOAD PUSH1 0x20 ADD PUSH2 0x28EE SWAP3 SWAP2 SWAP1 PUSH2 0x55FE JUMP JUMPDEST PUSH1 0x40 MLOAD PUSH1 0x20 DUP2 DUP4 SUB SUB DUP2 MSTORE SWAP1 PUSH1 0x40 MSTORE DUP1 MLOAD SWAP1 PUSH1 0x20 ADD KECCAK256 SWAP1 POP SWAP3 SWAP2 POP POP JUMP JUMPDEST PUSH0 DUP1 PUSH32 0x3181E78FC1B109BC611FD2406150BF06E33FAA75F71CBA12C3E1FD670F2DEF00 PUSH0 SHL SWAP1 POP DUP1 SWAP2 POP POP SWAP1 JUMP JUMPDEST PUSH0 DUP2 PUSH0 ADD DUP1 SLOAD SWAP1 POP SWAP1 POP SWAP2 SWAP1 POP JUMP JUMPDEST PUSH0 DUP3 PUSH0 ADD DUP3 DUP2 SLOAD DUP2 LT PUSH2 0x295F JUMPI PUSH2 0x295E PUSH2 0x419B JUMP JUMPDEST JUMPDEST SWAP1 PUSH0 MSTORE PUSH1 0x20 PUSH0 KECCAK256 ADD SLOAD SWAP1 POP SWAP3 SWAP2 POP POP JUMP JUMPDEST PUSH0 DUP1 DUP4 PUSH1 0x1 ADD PUSH0 DUP5 DUP2 MSTORE PUSH1 0x20 ADD SWAP1 DUP2 MSTORE PUSH1 0x20 ADD PUSH0 KECCAK256 SLOAD EQ ISZERO SWAP1 POP SWAP3 SWAP2 POP POP JUMP JUMPDEST PUSH0 PUSH32 0x19457468657265756D205369676E6564204D6573736167653A0A333200000000 PUSH0 MSTORE DUP2 PUSH1 0x1C MSTORE PUSH1 0x3C PUSH0 KECCAK256 SWAP1 POP SWAP2 SWAP1 POP JUMP JUMPDEST PUSH0 DUP1 PUSH0 PUSH2 0x29D0 DUP6 DUP6 PUSH2 0x2E01 JUMP JUMPDEST SWAP2 POP SWAP2 POP PUSH2 0x29DD DUP2 PUSH2 0x2E4D JUMP JUMPDEST DUP2 SWAP3 POP POP POP SWAP3 SWAP2 POP POP JUMP JUMPDEST PUSH0 PUSH1 0xD0 DUP3 PUSH1 0x20 ADD MLOAD PUSH6 0xFFFFFFFFFFFF AND SWAP1 SHL PUSH1 0xA0 DUP4 PUSH1 0x40 ADD MLOAD PUSH6 0xFFFFFFFFFFFF AND SWAP1 SHL DUP4 PUSH0 ADD MLOAD PUSH20 0xFFFFFFFFFFFFFFFFFFFFFFFFFFFFFFFFFFFFFFFF AND OR OR SWAP1 POP SWAP2 SWAP1 POP JUMP JUMPDEST DUP1 PUSH2 0x2A37 PUSH2 0x1ED3 JUMP JUMPDEST PUSH1 0x4 ADD PUSH0 DUP5 PUSH20 0xFFFFFFFFFFFFFFFFFFFFFFFFFFFFFFFFFFFFFFFF AND PUSH20 0xFFFFFFFFFFFFFFFFFFFFFFFFFFFFFFFFFFFFFFFF AND DUP2 MSTORE PUSH1 0x20 ADD SWAP1 DUP2 MSTORE PUSH1 0x20 ADD PUSH0 KECCAK256 PUSH0 PUSH2 0x100 EXP DUP2 SLOAD DUP2 PUSH1 0xFF MUL NOT AND SWAP1 DUP4 ISZERO ISZERO MUL OR SWAP1 SSTORE POP DUP1 ISZERO PUSH2 0x2AB3 JUMPI PUSH2 0x2AAD DUP3 PUSH2 0x2A9D PUSH2 0x1ED3 JUMP JUMPDEST PUSH0 ADD PUSH2 0x2531 SWAP1 SWAP2 SWAP1 PUSH4 0xFFFFFFFF AND JUMP JUMPDEST POP PUSH2 0x2AD1 JUMP JUMPDEST PUSH2 0x2ACF DUP3 PUSH2 0x2ABF PUSH2 0x1ED3 JUMP JUMPDEST PUSH0 ADD PUSH2 0x257D SWAP1 SWAP2 SWAP1 PUSH4 0xFFFFFFFF AND JUMP JUMPDEST POP JUMPDEST DUP2 PUSH20 0xFFFFFFFFFFFFFFFFFFFFFFFFFFFFFFFFFFFFFFFF AND PUSH32 0x235BC17E7930760029E9F4D860A2A8089976DE5B381CF8380FC11C1D88A11133 DUP3 PUSH1 0x40 MLOAD PUSH2 0x2B17 SWAP2 SWAP1 PUSH2 0x3461 JUMP JUMPDEST PUSH1 0x40 MLOAD DUP1 SWAP2 SUB SWAP1 LOG2 POP POP JUMP JUMPDEST PUSH0 PUSH2 0x2B2E DUP4 DUP4 PUSH2 0x2970 JUMP JUMPDEST PUSH2 0x2B80 JUMPI DUP3 PUSH0 ADD DUP3 SWAP1 DUP1 PUSH1 0x1 DUP2 SLOAD ADD DUP1 DUP3 SSTORE DUP1 SWAP2 POP POP PUSH1 0x1 SWAP1 SUB SWAP1 PUSH0 MSTORE PUSH1 0x20 PUSH0 KECCAK256 ADD PUSH0 SWAP1 SWAP2 SWAP1 SWAP2 SWAP1 SWAP2 POP SSTORE DUP3 PUSH0 ADD DUP1 SLOAD SWAP1 POP DUP4 PUSH1 0x1 ADD PUSH0 DUP5 DUP2 MSTORE PUSH1 0x20 ADD SWAP1 DUP2 MSTORE PUSH1 0x20 ADD PUSH0 KECCAK256 DUP2 SWAP1 SSTORE POP PUSH1 0x1 SWAP1 POP PUSH2 0x2B84 JUMP JUMPDEST PUSH0 SWAP1 POP JUMPDEST SWAP3 SWAP2 POP POP JUMP JUMPDEST PUSH1 0x60 DUP2 PUSH0 ADD DUP1 SLOAD DUP1 PUSH1 0x20 MUL PUSH1 0x20 ADD PUSH1 0x40 MLOAD SWAP1 DUP2 ADD PUSH1 0x40 MSTORE DUP1 SWAP3 SWAP2 SWAP1 DUP2 DUP2 MSTORE PUSH1 0x20 ADD DUP3 DUP1 SLOAD DUP1 ISZERO PUSH2 0x2BD7 JUMPI PUSH1 0x20 MUL DUP3 ADD SWAP2 SWAP1 PUSH0 MSTORE PUSH1 0x20 PUSH0 KECCAK256 SWAP1 JUMPDEST DUP2 SLOAD DUP2 MSTORE PUSH1 0x20 ADD SWAP1 PUSH1 0x1 ADD SWAP1 DUP1 DUP4 GT PUSH2 0x2BC3 JUMPI JUMPDEST POP POP POP POP POP SWAP1 POP SWAP2 SWAP1 POP JUMP JUMPDEST PUSH0 DUP1 DUP4 PUSH1 0x1 ADD PUSH0 DUP5 DUP2 MSTORE PUSH1 0x20 ADD SWAP1 DUP2 MSTORE PUSH1 0x20 ADD PUSH0 KECCAK256 SLOAD SWAP1 POP PUSH0 DUP2 EQ PUSH2 0x2CD4 JUMPI PUSH0 PUSH1 0x1 DUP3 PUSH2 0x2C10 SWAP2 SWAP1 PUSH2 0x562C JUMP JUMPDEST SWAP1 POP PUSH0 PUSH1 0x1 DUP7 PUSH0 ADD DUP1 SLOAD SWAP1 POP PUSH2 0x2C26 SWAP2 SWAP1 PUSH2 0x562C JUMP JUMPDEST SWAP1 POP DUP2 DUP2 EQ PUSH2 0x2C8C JUMPI PUSH0 DUP7 PUSH0 ADD DUP3 DUP2 SLOAD DUP2 LT PUSH2 0x2C45 JUMPI PUSH2 0x2C44 PUSH2 0x419B JUMP JUMPDEST JUMPDEST SWAP1 PUSH0 MSTORE PUSH1 0x20 PUSH0 KECCAK256 ADD SLOAD SWAP1 POP DUP1 DUP8 PUSH0 ADD DUP5 DUP2 SLOAD DUP2 LT PUSH2 0x2C66 JUMPI PUSH2 0x2C65 PUSH2 0x419B JUMP JUMPDEST JUMPDEST SWAP1 PUSH0 MSTORE PUSH1 0x20 PUSH0 KECCAK256 ADD DUP2 SWAP1 SSTORE POP DUP4 DUP8 PUSH1 0x1 ADD PUSH0 DUP4 DUP2 MSTORE PUSH1 0x20 ADD SWAP1 DUP2 MSTORE PUSH1 0x20 ADD PUSH0 KECCAK256 DUP2 SWAP1 SSTORE POP POP JUMPDEST DUP6 PUSH0 ADD DUP1 SLOAD DUP1 PUSH2 0x2C9F JUMPI PUSH2 0x2C9E PUSH2 0x565F JUMP JUMPDEST JUMPDEST PUSH1 0x1 SWAP1 SUB DUP2 DUP2 SWAP1 PUSH0 MSTORE PUSH1 0x20 PUSH0 KECCAK256 ADD PUSH0 SWAP1 SSTORE SWAP1 SSTORE DUP6 PUSH1 0x1 ADD PUSH0 DUP7 DUP2 MSTORE PUSH1 0x20 ADD SWAP1 DUP2 MSTORE PUSH1 0x20 ADD PUSH0 KECCAK256 PUSH0 SWAP1 SSTORE PUSH1 0x1 SWAP4 POP POP POP POP PUSH2 0x2CD9 JUMP JUMPDEST PUSH0 SWAP2 POP POP JUMPDEST SWAP3 SWAP2 POP POP JUMP JUMPDEST PUSH0 PUSH2 0x2CF1 PUSH2 0x2CEB PUSH2 0x2FB2 JUMP JUMPDEST DUP4 PUSH2 0x30CB JUMP JUMPDEST SWAP1 POP SWAP2 SWAP1 POP JUMP JUMPDEST PUSH1 0x60 PUSH2 0x2D03 DUP5 PUSH2 0x28B8 JUMP JUMPDEST DUP1 ISZERO PUSH2 0x2D15 JUMPI POP PUSH2 0x2D13 CALLER PUSH2 0x28B8 JUMP JUMPDEST ISZERO JUMPDEST PUSH2 0x2D54 JUMPI PUSH1 0x40 MLOAD PUSH32 0x8C379A000000000000000000000000000000000000000000000000000000000 DUP2 MSTORE PUSH1 0x4 ADD PUSH2 0x2D4B SWAP1 PUSH2 0x56D6 JUMP JUMPDEST PUSH1 0x40 MLOAD DUP1 SWAP2 SUB SWAP1 REVERT JUMPDEST PUSH0 DUP1 DUP6 PUSH20 0xFFFFFFFFFFFFFFFFFFFFFFFFFFFFFFFFFFFFFFFF AND DUP6 PUSH1 0x40 MLOAD PUSH2 0x2D7B SWAP2 SWAP1 PUSH2 0x5724 JUMP JUMPDEST PUSH0 PUSH1 0x40 MLOAD DUP1 DUP4 SUB DUP2 DUP6 GAS DELEGATECALL SWAP2 POP POP RETURNDATASIZE DUP1 PUSH0 DUP2 EQ PUSH2 0x2DB3 JUMPI PUSH1 0x40 MLOAD SWAP2 POP PUSH1 0x1F NOT PUSH1 0x3F RETURNDATASIZE ADD AND DUP3 ADD PUSH1 0x40 MSTORE RETURNDATASIZE DUP3 MSTORE RETURNDATASIZE PUSH0 PUSH1 0x20 DUP5 ADD RETURNDATACOPY PUSH2 0x2DB8 JUMP JUMPDEST PUSH1 0x60 SWAP2 POP JUMPDEST POP SWAP2 POP SWAP2 POP PUSH2 0x2DC8 DUP3 DUP3 DUP7 PUSH2 0x310B JUMP JUMPDEST SWAP3 POP POP POP SWAP4 SWAP3 POP POP POP JUMP JUMPDEST PUSH0 DUP1 PUSH32 0x322CF19C484104D3B1A9C2982EBAE869EDE3FA5F6C4703CA41B9A48C76EE0300 PUSH0 SHL SWAP1 POP DUP1 SWAP2 POP POP SWAP1 JUMP JUMPDEST PUSH0 DUP1 PUSH1 0x41 DUP4 MLOAD SUB PUSH2 0x2E3E JUMPI PUSH0 DUP1 PUSH0 PUSH1 0x20 DUP7 ADD MLOAD SWAP3 POP PUSH1 0x40 DUP7 ADD MLOAD SWAP2 POP PUSH1 0x60 DUP7 ADD MLOAD PUSH0 BYTE SWAP1 POP PUSH2 0x2E32 DUP8 DUP3 DUP6 DUP6 PUSH2 0x3171 JUMP JUMPDEST SWAP5 POP SWAP5 POP POP POP POP PUSH2 0x2E46 JUMP JUMPDEST PUSH0 PUSH1 0x2 SWAP2 POP SWAP2 POP JUMPDEST SWAP3 POP SWAP3 SWAP1 POP JUMP JUMPDEST PUSH0 PUSH1 0x4 DUP2 GT ISZERO PUSH2 0x2E60 JUMPI PUSH2 0x2E5F PUSH2 0x573A JUMP JUMPDEST JUMPDEST DUP2 PUSH1 0x4 DUP2 GT ISZERO PUSH2 0x2E73 JUMPI PUSH2 0x2E72 PUSH2 0x573A JUMP JUMPDEST JUMPDEST SUB ISZERO PUSH2 0x2FAF JUMPI PUSH1 0x1 PUSH1 0x4 DUP2 GT ISZERO PUSH2 0x2E8D JUMPI PUSH2 0x2E8C PUSH2 0x573A JUMP JUMPDEST JUMPDEST DUP2 PUSH1 0x4 DUP2 GT ISZERO PUSH2 0x2EA0 JUMPI PUSH2 0x2E9F PUSH2 0x573A JUMP JUMPDEST JUMPDEST SUB PUSH2 0x2EE0 JUMPI PUSH1 0x40 MLOAD PUSH32 0x8C379A000000000000000000000000000000000000000000000000000000000 DUP2 MSTORE PUSH1 0x4 ADD PUSH2 0x2ED7 SWAP1 PUSH2 0x57B1 JUMP JUMPDEST PUSH1 0x40 MLOAD DUP1 SWAP2 SUB SWAP1 REVERT JUMPDEST PUSH1 0x2 PUSH1 0x4 DUP2 GT ISZERO PUSH2 0x2EF4 JUMPI PUSH2 0x2EF3 PUSH2 0x573A JUMP JUMPDEST JUMPDEST DUP2 PUSH1 0x4 DUP2 GT ISZERO PUSH2 0x2F07 JUMPI PUSH2 0x2F06 PUSH2 0x573A JUMP JUMPDEST JUMPDEST SUB PUSH2 0x2F47 JUMPI PUSH1 0x40 MLOAD PUSH32 0x8C379A000000000000000000000000000000000000000000000000000000000 DUP2 MSTORE PUSH1 0x4 ADD PUSH2 0x2F3E SWAP1 PUSH2 0x5819 JUMP JUMPDEST PUSH1 0x40 MLOAD DUP1 SWAP2 SUB SWAP1 REVERT JUMPDEST PUSH1 0x3 PUSH1 0x4 DUP2 GT ISZERO PUSH2 0x2F5B JUMPI PUSH2 0x2F5A PUSH2 0x573A JUMP JUMPDEST JUMPDEST DUP2 PUSH1 0x4 DUP2 GT ISZERO PUSH2 0x2F6E JUMPI PUSH2 0x2F6D PUSH2 0x573A JUMP JUMPDEST JUMPDEST SUB PUSH2 0x2FAE JUMPI PUSH1 0x40 MLOAD PUSH32 0x8C379A000000000000000000000000000000000000000000000000000000000 DUP2 MSTORE PUSH1 0x4 ADD PUSH2 0x2FA5 SWAP1 PUSH2 0x58A7 JUMP JUMPDEST PUSH1 0x40 MLOAD DUP1 SWAP2 SUB SWAP1 REVERT JUMPDEST JUMPDEST POP JUMP JUMPDEST PUSH0 PUSH32 0x0 PUSH20 0xFFFFFFFFFFFFFFFFFFFFFFFFFFFFFFFFFFFFFFFF AND ADDRESS PUSH20 0xFFFFFFFFFFFFFFFFFFFFFFFFFFFFFFFFFFFFFFFF AND EQ DUP1 ISZERO PUSH2 0x302D JUMPI POP PUSH32 0x0 CHAINID EQ JUMPDEST ISZERO PUSH2 0x305A JUMPI PUSH32 0x0 SWAP1 POP PUSH2 0x30C8 JUMP JUMPDEST PUSH2 0x30C5 PUSH32 0x0 PUSH32 0x0 PUSH32 0x0 PUSH2 0x3249 JUMP JUMPDEST SWAP1 POP JUMPDEST SWAP1 JUMP JUMPDEST PUSH0 PUSH1 0x40 MLOAD PUSH32 0x1901000000000000000000000000000000000000000000000000000000000000 DUP2 MSTORE DUP4 PUSH1 0x2 DUP3 ADD MSTORE DUP3 PUSH1 0x22 DUP3 ADD MSTORE PUSH1 0x42 DUP2 KECCAK256 SWAP2 POP POP SWAP3 SWAP2 POP POP JUMP JUMPDEST PUSH1 0x60 DUP4 ISZERO PUSH2 0x311B JUMPI DUP3 SWAP1 POP PUSH2 0x316A JUMP JUMPDEST PUSH0 DUP4 MLOAD GT ISZERO PUSH2 0x312D JUMPI DUP3 MLOAD DUP1 DUP5 PUSH1 0x20 ADD REVERT JUMPDEST DUP2 PUSH1 0x40 MLOAD PUSH32 0x8C379A000000000000000000000000000000000000000000000000000000000 DUP2 MSTORE PUSH1 0x4 ADD PUSH2 0x3161 SWAP2 SWAP1 PUSH2 0x58FD JUMP JUMPDEST PUSH1 0x40 MLOAD DUP1 SWAP2 SUB SWAP1 REVERT JUMPDEST SWAP4 SWAP3 POP POP POP JUMP JUMPDEST PUSH0 DUP1 PUSH32 0x7FFFFFFFFFFFFFFFFFFFFFFFFFFFFFFF5D576E7357A4501DDFE92F46681B20A0 DUP4 PUSH0 SHR GT ISZERO PUSH2 0x31A9 JUMPI PUSH0 PUSH1 0x3 SWAP2 POP SWAP2 POP PUSH2 0x3240 JUMP JUMPDEST PUSH0 PUSH1 0x1 DUP8 DUP8 DUP8 DUP8 PUSH1 0x40 MLOAD PUSH0 DUP2 MSTORE PUSH1 0x20 ADD PUSH1 0x40 MSTORE PUSH1 0x40 MLOAD PUSH2 0x31CC SWAP5 SWAP4 SWAP3 SWAP2 SWAP1 PUSH2 0x591D JUMP JUMPDEST PUSH1 0x20 PUSH1 0x40 MLOAD PUSH1 0x20 DUP2 SUB SWAP1 DUP1 DUP5 SUB SWAP1 DUP6 GAS STATICCALL ISZERO DUP1 ISZERO PUSH2 0x31EC JUMPI RETURNDATASIZE PUSH0 DUP1 RETURNDATACOPY RETURNDATASIZE PUSH0 REVERT JUMPDEST POP POP POP PUSH1 0x20 PUSH1 0x40 MLOAD SUB MLOAD SWAP1 POP PUSH0 PUSH20 0xFFFFFFFFFFFFFFFFFFFFFFFFFFFFFFFFFFFFFFFF AND DUP2 PUSH20 0xFFFFFFFFFFFFFFFFFFFFFFFFFFFFFFFFFFFFFFFF AND SUB PUSH2 0x3238 JUMPI PUSH0 PUSH1 0x1 SWAP3 POP SWAP3 POP POP PUSH2 0x3240 JUMP JUMPDEST DUP1 PUSH0 SWAP3 POP SWAP3 POP POP JUMPDEST SWAP5 POP SWAP5 SWAP3 POP POP POP JUMP JUMPDEST PUSH0 DUP4 DUP4 DUP4 CHAINID ADDRESS PUSH1 0x40 MLOAD PUSH1 0x20 ADD PUSH2 0x3263 SWAP6 SWAP5 SWAP4 SWAP3 SWAP2 SWAP1 PUSH2 0x5960 JUMP JUMPDEST PUSH1 0x40 MLOAD PUSH1 0x20 DUP2 DUP4 SUB SUB DUP2 MSTORE SWAP1 PUSH1 0x40 MSTORE DUP1 MLOAD SWAP1 PUSH1 0x20 ADD KECCAK256 SWAP1 POP SWAP4 SWAP3 POP POP POP JUMP JUMPDEST PUSH1 0x40 MLOAD DUP1 PUSH1 0xA0 ADD PUSH1 0x40 MSTORE DUP1 PUSH0 PUSH20 0xFFFFFFFFFFFFFFFFFFFFFFFFFFFFFFFFFFFFFFFF AND DUP2 MSTORE PUSH1 0x20 ADD PUSH1 0x60 DUP2 MSTORE PUSH1 0x20 ADD PUSH0 DUP2 MSTORE PUSH1 0x20 ADD PUSH0 PUSH16 0xFFFFFFFFFFFFFFFFFFFFFFFFFFFFFFFF AND DUP2 MSTORE PUSH1 0x20 ADD PUSH0 PUSH16 0xFFFFFFFFFFFFFFFFFFFFFFFFFFFFFFFF AND DUP2 MSTORE POP SWAP1 JUMP JUMPDEST PUSH0 DUP3 DUP3 MSTORE PUSH1 0x20 DUP3 ADD SWAP1 POP SWAP3 SWAP2 POP POP JUMP JUMPDEST PUSH32 0x526F757465723A2066756E6374696F6E20646F6573206E6F742065786973742E PUSH0 DUP3 ADD MSTORE POP JUMP JUMPDEST PUSH0 PUSH2 0x332B PUSH1 0x20 DUP4 PUSH2 0x32E7 JUMP JUMPDEST SWAP2 POP PUSH2 0x3336 DUP3 PUSH2 0x32F7 JUMP JUMPDEST PUSH1 0x20 DUP3 ADD SWAP1 POP SWAP2 SWAP1 POP JUMP JUMPDEST PUSH0 PUSH1 0x20 DUP3 ADD SWAP1 POP DUP2 DUP2 SUB PUSH0 DUP4 ADD MSTORE PUSH2 0x3358 DUP2 PUSH2 0x331F JUMP JUMPDEST SWAP1 POP SWAP2 SWAP1 POP JUMP JUMPDEST PUSH0 PUSH1 0x40 MLOAD SWAP1 POP SWAP1 JUMP JUMPDEST PUSH0 DUP1 REVERT JUMPDEST PUSH0 DUP1 REVERT JUMPDEST PUSH0 PUSH20 0xFFFFFFFFFFFFFFFFFFFFFFFFFFFFFFFFFFFFFFFF DUP3 AND SWAP1 POP SWAP2 SWAP1 POP JUMP JUMPDEST PUSH0 PUSH2 0x3399 DUP3 PUSH2 0x3370 JUMP JUMPDEST SWAP1 POP SWAP2 SWAP1 POP JUMP JUMPDEST PUSH2 0x33A9 DUP2 PUSH2 0x338F JUMP JUMPDEST DUP2 EQ PUSH2 0x33B3 JUMPI PUSH0 DUP1 REVERT JUMPDEST POP JUMP JUMPDEST PUSH0 DUP2 CALLDATALOAD SWAP1 POP PUSH2 0x33C4 DUP2 PUSH2 0x33A0 JUMP JUMPDEST SWAP3 SWAP2 POP POP JUMP JUMPDEST PUSH0 DUP1 REVERT JUMPDEST PUSH0 PUSH2 0x160 DUP3 DUP5 SUB SLT ISZERO PUSH2 0x33E4 JUMPI PUSH2 0x33E3 PUSH2 0x33CA JUMP JUMPDEST JUMPDEST DUP2 SWAP1 POP SWAP3 SWAP2 POP POP JUMP JUMPDEST PUSH0 DUP1 PUSH1 0x40 DUP4 DUP6 SUB SLT ISZERO PUSH2 0x3403 JUMPI PUSH2 0x3402 PUSH2 0x3368 JUMP JUMPDEST JUMPDEST PUSH0 PUSH2 0x3410 DUP6 DUP3 DUP7 ADD PUSH2 0x33B6 JUMP JUMPDEST SWAP3 POP POP PUSH1 0x20 DUP4 ADD CALLDATALOAD PUSH8 0xFFFFFFFFFFFFFFFF DUP2 GT ISZERO PUSH2 0x3431 JUMPI PUSH2 0x3430 PUSH2 0x336C JUMP JUMPDEST JUMPDEST PUSH2 0x343D DUP6 DUP3 DUP7 ADD PUSH2 0x33CE JUMP JUMPDEST SWAP2 POP POP SWAP3 POP SWAP3 SWAP1 POP JUMP JUMPDEST PUSH0 DUP2 ISZERO ISZERO SWAP1 POP SWAP2 SWAP1 POP JUMP JUMPDEST PUSH2 0x345B DUP2 PUSH2 0x3447 JUMP JUMPDEST DUP3 MSTORE POP POP JUMP JUMPDEST PUSH0 PUSH1 0x20 DUP3 ADD SWAP1 POP PUSH2 0x3474 PUSH0 DUP4 ADD DUP5 PUSH2 0x3452 JUMP JUMPDEST SWAP3 SWAP2 POP POP JUMP JUMPDEST PUSH0 PUSH1 0x20 DUP3 DUP5 SUB SLT ISZERO PUSH2 0x348F JUMPI PUSH2 0x348E PUSH2 0x3368 JUMP JUMPDEST JUMPDEST PUSH0 PUSH2 0x349C DUP5 DUP3 DUP6 ADD PUSH2 0x33B6 JUMP JUMPDEST SWAP2 POP POP SWAP3 SWAP2 POP POP JUMP JUMPDEST PUSH0 DUP2 SWAP1 POP SWAP2 SWAP1 POP JUMP JUMPDEST PUSH2 0x34B7 DUP2 PUSH2 0x34A5 JUMP JUMPDEST DUP2 EQ PUSH2 0x34C1 JUMPI PUSH0 DUP1 REVERT JUMPDEST POP JUMP JUMPDEST PUSH0 DUP2 CALLDATALOAD SWAP1 POP PUSH2 0x34D2 DUP2 PUSH2 0x34AE JUMP JUMPDEST SWAP3 SWAP2 POP POP JUMP JUMPDEST PUSH0 DUP2 SWAP1 POP SWAP2 SWAP1 POP JUMP JUMPDEST PUSH2 0x34EA DUP2 PUSH2 0x34D8 JUMP JUMPDEST DUP2 EQ PUSH2 0x34F4 JUMPI PUSH0 DUP1 REVERT JUMPDEST POP JUMP JUMPDEST PUSH0 DUP2 CALLDATALOAD SWAP1 POP PUSH2 0x3505 DUP2 PUSH2 0x34E1 JUMP JUMPDEST SWAP3 SWAP2 POP POP JUMP JUMPDEST PUSH0 DUP1 PUSH0 PUSH1 0x60 DUP5 DUP7 SUB SLT ISZERO PUSH2 0x3522 JUMPI PUSH2 0x3521 PUSH2 0x3368 JUMP JUMPDEST JUMPDEST PUSH0 DUP5 ADD CALLDATALOAD PUSH8 0xFFFFFFFFFFFFFFFF DUP2 GT ISZERO PUSH2 0x353F JUMPI PUSH2 0x353E PUSH2 0x336C JUMP JUMPDEST JUMPDEST PUSH2 0x354B DUP7 DUP3 DUP8 ADD PUSH2 0x33CE JUMP JUMPDEST SWAP4 POP POP PUSH1 0x20 PUSH2 0x355C DUP7 DUP3 DUP8 ADD PUSH2 0x34C4 JUMP JUMPDEST SWAP3 POP POP PUSH1 0x40 PUSH2 0x356D DUP7 DUP3 DUP8 ADD PUSH2 0x34F7 JUMP JUMPDEST SWAP2 POP POP SWAP3 POP SWAP3 POP SWAP3 JUMP JUMPDEST PUSH2 0x3580 DUP2 PUSH2 0x34D8 JUMP JUMPDEST DUP3 MSTORE POP POP JUMP JUMPDEST PUSH0 PUSH1 0x20 DUP3 ADD SWAP1 POP PUSH2 0x3599 PUSH0 DUP4 ADD DUP5 PUSH2 0x3577 JUMP JUMPDEST SWAP3 SWAP2 POP POP JUMP JUMPDEST PUSH0 DUP2 MLOAD SWAP1 POP SWAP2 SWAP1 POP JUMP JUMPDEST PUSH0 DUP3 DUP3 MSTORE PUSH1 0x20 DUP3 ADD SWAP1 POP SWAP3 SWAP2 POP POP JUMP JUMPDEST PUSH0 DUP2 SWAP1 POP PUSH1 0x20 DUP3 ADD SWAP1 POP SWAP2 SWAP1 POP JUMP JUMPDEST PUSH0 DUP2 MLOAD SWAP1 POP SWAP2 SWAP1 POP JUMP JUMPDEST PUSH0 DUP3 DUP3 MSTORE PUSH1 0x20 DUP3 ADD SWAP1 POP SWAP3 SWAP2 POP POP JUMP JUMPDEST PUSH0 JUMPDEST DUP4 DUP2 LT ISZERO PUSH2 0x35FF JUMPI DUP1 DUP3 ADD MLOAD DUP2 DUP5 ADD MSTORE PUSH1 0x20 DUP2 ADD SWAP1 POP PUSH2 0x35E4 JUMP JUMPDEST PUSH0 DUP5 DUP5 ADD MSTORE POP POP POP POP JUMP JUMPDEST PUSH0 PUSH1 0x1F NOT PUSH1 0x1F DUP4 ADD AND SWAP1 POP SWAP2 SWAP1 POP JUMP JUMPDEST PUSH0 PUSH2 0x3624 DUP3 PUSH2 0x35C8 JUMP JUMPDEST PUSH2 0x362E DUP2 DUP6 PUSH2 0x35D2 JUMP JUMPDEST SWAP4 POP PUSH2 0x363E DUP2 DUP6 PUSH1 0x20 DUP7 ADD PUSH2 0x35E2 JUMP JUMPDEST PUSH2 0x3647 DUP2 PUSH2 0x360A JUMP JUMPDEST DUP5 ADD SWAP2 POP POP SWAP3 SWAP2 POP POP JUMP JUMPDEST PUSH2 0x365B DUP2 PUSH2 0x338F JUMP JUMPDEST DUP3 MSTORE POP POP JUMP JUMPDEST PUSH0 PUSH1 0x60 DUP4 ADD PUSH0 DUP4 ADD MLOAD DUP5 DUP3 SUB PUSH0 DUP7 ADD MSTORE PUSH2 0x367B DUP3 DUP3 PUSH2 0x361A JUMP JUMPDEST SWAP2 POP POP PUSH1 0x20 DUP4 ADD MLOAD DUP5 DUP3 SUB PUSH1 0x20 DUP7 ADD MSTORE PUSH2 0x3695 DUP3 DUP3 PUSH2 0x361A JUMP JUMPDEST SWAP2 POP POP PUSH1 0x40 DUP4 ADD MLOAD PUSH2 0x36AA PUSH1 0x40 DUP7 ADD DUP3 PUSH2 0x3652 JUMP JUMPDEST POP DUP1 SWAP2 POP POP SWAP3 SWAP2 POP POP JUMP JUMPDEST PUSH0 DUP2 MLOAD SWAP1 POP SWAP2 SWAP1 POP JUMP JUMPDEST PUSH0 DUP3 DUP3 MSTORE PUSH1 0x20 DUP3 ADD SWAP1 POP SWAP3 SWAP2 POP POP JUMP JUMPDEST PUSH0 DUP2 SWAP1 POP PUSH1 0x20 DUP3 ADD SWAP1 POP SWAP2 SWAP1 POP JUMP JUMPDEST PUSH0 PUSH32 0xFFFFFFFF00000000000000000000000000000000000000000000000000000000 DUP3 AND SWAP1 POP SWAP2 SWAP1 POP JUMP JUMPDEST PUSH2 0x3712 DUP2 PUSH2 0x36DE JUMP JUMPDEST DUP3 MSTORE POP POP JUMP JUMPDEST PUSH0 PUSH1 0x40 DUP4 ADD PUSH0 DUP4 ADD MLOAD PUSH2 0x372D PUSH0 DUP7 ADD DUP3 PUSH2 0x3709 JUMP JUMPDEST POP PUSH1 0x20 DUP4 ADD MLOAD DUP5 DUP3 SUB PUSH1 0x20 DUP7 ADD MSTORE PUSH2 0x3745 DUP3 DUP3 PUSH2 0x361A JUMP JUMPDEST SWAP2 POP POP DUP1 SWAP2 POP POP SWAP3 SWAP2 POP POP JUMP JUMPDEST PUSH0 PUSH2 0x375D DUP4 DUP4 PUSH2 0x3718 JUMP JUMPDEST SWAP1 POP SWAP3 SWAP2 POP POP JUMP JUMPDEST PUSH0 PUSH1 0x20 DUP3 ADD SWAP1 POP SWAP2 SWAP1 POP JUMP JUMPDEST PUSH0 PUSH2 0x377B DUP3 PUSH2 0x36B5 JUMP JUMPDEST PUSH2 0x3785 DUP2 DUP6 PUSH2 0x36BF JUMP JUMPDEST SWAP4 POP DUP4 PUSH1 0x20 DUP3 MUL DUP6 ADD PUSH2 0x3797 DUP6 PUSH2 0x36CF JUMP JUMPDEST DUP1 PUSH0 JUMPDEST DUP6 DUP2 LT ISZERO PUSH2 0x37D2 JUMPI DUP5 DUP5 SUB DUP10 MSTORE DUP2 MLOAD PUSH2 0x37B3 DUP6 DUP3 PUSH2 0x3752 JUMP JUMPDEST SWAP5 POP PUSH2 0x37BE DUP4 PUSH2 0x3765 JUMP JUMPDEST SWAP3 POP PUSH1 0x20 DUP11 ADD SWAP10 POP POP PUSH1 0x1 DUP2 ADD SWAP1 POP PUSH2 0x379A JUMP JUMPDEST POP DUP3 SWAP8 POP DUP8 SWAP6 POP POP POP POP POP POP SWAP3 SWAP2 POP POP JUMP JUMPDEST PUSH0 PUSH1 0x40 DUP4 ADD PUSH0 DUP4 ADD MLOAD DUP5 DUP3 SUB PUSH0 DUP7 ADD MSTORE PUSH2 0x37FE DUP3 DUP3 PUSH2 0x3661 JUMP JUMPDEST SWAP2 POP POP PUSH1 0x20 DUP4 ADD MLOAD DUP5 DUP3 SUB PUSH1 0x20 DUP7 ADD MSTORE PUSH2 0x3818 DUP3 DUP3 PUSH2 0x3771 JUMP JUMPDEST SWAP2 POP POP DUP1 SWAP2 POP POP SWAP3 SWAP2 POP POP JUMP JUMPDEST PUSH0 PUSH2 0x3830 DUP4 DUP4 PUSH2 0x37E4 JUMP JUMPDEST SWAP1 POP SWAP3 SWAP2 POP POP JUMP JUMPDEST PUSH0 PUSH1 0x20 DUP3 ADD SWAP1 POP SWAP2 SWAP1 POP JUMP JUMPDEST PUSH0 PUSH2 0x384E DUP3 PUSH2 0x359F JUMP JUMPDEST PUSH2 0x3858 DUP2 DUP6 PUSH2 0x35A9 JUMP JUMPDEST SWAP4 POP DUP4 PUSH1 0x20 DUP3 MUL DUP6 ADD PUSH2 0x386A DUP6 PUSH2 0x35B9 JUMP JUMPDEST DUP1 PUSH0 JUMPDEST DUP6 DUP2 LT ISZERO PUSH2 0x38A5 JUMPI DUP5 DUP5 SUB DUP10 MSTORE DUP2 MLOAD PUSH2 0x3886 DUP6 DUP3 PUSH2 0x3825 JUMP JUMPDEST SWAP5 POP PUSH2 0x3891 DUP4 PUSH2 0x3838 JUMP JUMPDEST SWAP3 POP PUSH1 0x20 DUP11 ADD SWAP10 POP POP PUSH1 0x1 DUP2 ADD SWAP1 POP PUSH2 0x386D JUMP JUMPDEST POP DUP3 SWAP8 POP DUP8 SWAP6 POP POP POP POP POP POP SWAP3 SWAP2 POP POP JUMP JUMPDEST PUSH0 PUSH1 0x20 DUP3 ADD SWAP1 POP DUP2 DUP2 SUB PUSH0 DUP4 ADD MSTORE PUSH2 0x38CF DUP2 DUP5 PUSH2 0x3844 JUMP JUMPDEST SWAP1 POP SWAP3 SWAP2 POP POP JUMP JUMPDEST PUSH0 PUSH2 0x120 DUP3 DUP5 SUB SLT ISZERO PUSH2 0x38ED JUMPI PUSH2 0x38EC PUSH2 0x33CA JUMP JUMPDEST JUMPDEST DUP2 SWAP1 POP SWAP3 SWAP2 POP POP JUMP JUMPDEST PUSH0 DUP1 REVERT JUMPDEST PUSH0 DUP1 REVERT JUMPDEST PUSH0 DUP1 REVERT JUMPDEST PUSH0 DUP1 DUP4 PUSH1 0x1F DUP5 ADD SLT PUSH2 0x3917 JUMPI PUSH2 0x3916 PUSH2 0x38F6 JUMP JUMPDEST JUMPDEST DUP3 CALLDATALOAD SWAP1 POP PUSH8 0xFFFFFFFFFFFFFFFF DUP2 GT ISZERO PUSH2 0x3934 JUMPI PUSH2 0x3933 PUSH2 0x38FA JUMP JUMPDEST JUMPDEST PUSH1 0x20 DUP4 ADD SWAP2 POP DUP4 PUSH1 0x1 DUP3 MUL DUP4 ADD GT ISZERO PUSH2 0x3950 JUMPI PUSH2 0x394F PUSH2 0x38FE JUMP JUMPDEST JUMPDEST SWAP3 POP SWAP3 SWAP1 POP JUMP JUMPDEST PUSH0 DUP1 PUSH0 PUSH1 0x40 DUP5 DUP7 SUB SLT ISZERO PUSH2 0x396E JUMPI PUSH2 0x396D PUSH2 0x3368 JUMP JUMPDEST JUMPDEST PUSH0 DUP5 ADD CALLDATALOAD PUSH8 0xFFFFFFFFFFFFFFFF DUP2 GT ISZERO PUSH2 0x398B JUMPI PUSH2 0x398A PUSH2 0x336C JUMP JUMPDEST JUMPDEST PUSH2 0x3997 DUP7 DUP3 DUP8 ADD PUSH2 0x38D7 JUMP JUMPDEST SWAP4 POP POP PUSH1 0x20 DUP5 ADD CALLDATALOAD PUSH8 0xFFFFFFFFFFFFFFFF DUP2 GT ISZERO PUSH2 0x39B8 JUMPI PUSH2 0x39B7 PUSH2 0x336C JUMP JUMPDEST JUMPDEST PUSH2 0x39C4 DUP7 DUP3 DUP8 ADD PUSH2 0x3902 JUMP JUMPDEST SWAP3 POP SWAP3 POP POP SWAP3 POP SWAP3 POP SWAP3 JUMP JUMPDEST PUSH0 DUP2 MLOAD SWAP1 POP SWAP2 SWAP1 POP JUMP JUMPDEST PUSH0 DUP3 DUP3 MSTORE PUSH1 0x20 DUP3 ADD SWAP1 POP SWAP3 SWAP2 POP POP JUMP JUMPDEST PUSH0 DUP2 SWAP1 POP PUSH1 0x20 DUP3 ADD SWAP1 POP SWAP2 SWAP1 POP JUMP JUMPDEST PUSH0 DUP2 MLOAD SWAP1 POP SWAP2 SWAP1 POP JUMP JUMPDEST PUSH0 DUP3 DUP3 MSTORE PUSH1 0x20 DUP3 ADD SWAP1 POP SWAP3 SWAP2 POP POP JUMP JUMPDEST PUSH0 DUP2 SWAP1 POP PUSH1 0x20 DUP3 ADD SWAP1 POP SWAP2 SWAP1 POP JUMP JUMPDEST PUSH0 PUSH2 0x3A2D DUP4 DUP4 PUSH2 0x3652 JUMP JUMPDEST PUSH1 0x20 DUP4 ADD SWAP1 POP SWAP3 SWAP2 POP POP JUMP JUMPDEST PUSH0 PUSH1 0x20 DUP3 ADD SWAP1 POP SWAP2 SWAP1 POP JUMP JUMPDEST PUSH0 PUSH2 0x3A4F DUP3 PUSH2 0x39F9 JUMP JUMPDEST PUSH2 0x3A59 DUP2 DUP6 PUSH2 0x3A03 JUMP JUMPDEST SWAP4 POP PUSH2 0x3A64 DUP4 PUSH2 0x3A13 JUMP JUMPDEST DUP1 PUSH0 JUMPDEST DUP4 DUP2 LT ISZERO PUSH2 0x3A94 JUMPI DUP2 MLOAD PUSH2 0x3A7B DUP9 DUP3 PUSH2 0x3A22 JUMP JUMPDEST SWAP8 POP PUSH2 0x3A86 DUP4 PUSH2 0x3A39 JUMP JUMPDEST SWAP3 POP POP PUSH1 0x1 DUP2 ADD SWAP1 POP PUSH2 0x3A67 JUMP JUMPDEST POP DUP6 SWAP4 POP POP POP POP SWAP3 SWAP2 POP POP JUMP JUMPDEST PUSH2 0x3AAA DUP2 PUSH2 0x34D8 JUMP JUMPDEST DUP3 MSTORE POP POP JUMP JUMPDEST PUSH0 PUSH16 0xFFFFFFFFFFFFFFFFFFFFFFFFFFFFFFFF DUP3 AND SWAP1 POP SWAP2 SWAP1 POP JUMP JUMPDEST PUSH2 0x3AD4 DUP2 PUSH2 0x3AB0 JUMP JUMPDEST DUP3 MSTORE POP POP JUMP JUMPDEST PUSH0 PUSH1 0xA0 DUP4 ADD PUSH0 DUP4 ADD MLOAD PUSH2 0x3AEF PUSH0 DUP7 ADD DUP3 PUSH2 0x3652 JUMP JUMPDEST POP PUSH1 0x20 DUP4 ADD MLOAD DUP5 DUP3 SUB PUSH1 0x20 DUP7 ADD MSTORE PUSH2 0x3B07 DUP3 DUP3 PUSH2 0x3A45 JUMP JUMPDEST SWAP2 POP POP PUSH1 0x40 DUP4 ADD MLOAD PUSH2 0x3B1C PUSH1 0x40 DUP7 ADD DUP3 PUSH2 0x3AA1 JUMP JUMPDEST POP PUSH1 0x60 DUP4 ADD MLOAD PUSH2 0x3B2F PUSH1 0x60 DUP7 ADD DUP3 PUSH2 0x3ACB JUMP JUMPDEST POP PUSH1 0x80 DUP4 ADD MLOAD PUSH2 0x3B42 PUSH1 0x80 DUP7 ADD DUP3 PUSH2 0x3ACB JUMP JUMPDEST POP DUP1 SWAP2 POP POP SWAP3 SWAP2 POP POP JUMP JUMPDEST PUSH0 PUSH2 0x3B58 DUP4 DUP4 PUSH2 0x3ADA JUMP JUMPDEST SWAP1 POP SWAP3 SWAP2 POP POP JUMP JUMPDEST PUSH0 PUSH1 0x20 DUP3 ADD SWAP1 POP SWAP2 SWAP1 POP JUMP JUMPDEST PUSH0 PUSH2 0x3B76 DUP3 PUSH2 0x39D0 JUMP JUMPDEST PUSH2 0x3B80 DUP2 DUP6 PUSH2 0x39DA JUMP JUMPDEST SWAP4 POP DUP4 PUSH1 0x20 DUP3 MUL DUP6 ADD PUSH2 0x3B92 DUP6 PUSH2 0x39EA JUMP JUMPDEST DUP1 PUSH0 JUMPDEST DUP6 DUP2 LT ISZERO PUSH2 0x3BCD JUMPI DUP5 DUP5 SUB DUP10 MSTORE DUP2 MLOAD PUSH2 0x3BAE DUP6 DUP3 PUSH2 0x3B4D JUMP JUMPDEST SWAP5 POP PUSH2 0x3BB9 DUP4 PUSH2 0x3B60 JUMP JUMPDEST SWAP3 POP PUSH1 0x20 DUP11 ADD SWAP10 POP POP PUSH1 0x1 DUP2 ADD SWAP1 POP PUSH2 0x3B95 JUMP JUMPDEST POP DUP3 SWAP8 POP DUP8 SWAP6 POP POP POP POP POP POP SWAP3 SWAP2 POP POP JUMP JUMPDEST PUSH0 PUSH1 0x20 DUP3 ADD SWAP1 POP DUP2 DUP2 SUB PUSH0 DUP4 ADD MSTORE PUSH2 0x3BF7 DUP2 DUP5 PUSH2 0x3B6C JUMP JUMPDEST SWAP1 POP SWAP3 SWAP2 POP POP JUMP JUMPDEST PUSH2 0x3C08 DUP2 PUSH2 0x338F JUMP JUMPDEST DUP3 MSTORE POP POP JUMP JUMPDEST PUSH0 PUSH1 0x40 DUP3 ADD SWAP1 POP PUSH2 0x3C21 PUSH0 DUP4 ADD DUP6 PUSH2 0x3452 JUMP JUMPDEST PUSH2 0x3C2E PUSH1 0x20 DUP4 ADD DUP5 PUSH2 0x3BFF JUMP JUMPDEST SWAP4 SWAP3 POP POP POP JUMP JUMPDEST PUSH0 DUP1 DUP4 PUSH1 0x1F DUP5 ADD SLT PUSH2 0x3C4A JUMPI PUSH2 0x3C49 PUSH2 0x38F6 JUMP JUMPDEST JUMPDEST DUP3 CALLDATALOAD SWAP1 POP PUSH8 0xFFFFFFFFFFFFFFFF DUP2 GT ISZERO PUSH2 0x3C67 JUMPI PUSH2 0x3C66 PUSH2 0x38FA JUMP JUMPDEST JUMPDEST PUSH1 0x20 DUP4 ADD SWAP2 POP DUP4 PUSH1 0x20 DUP3 MUL DUP4 ADD GT ISZERO PUSH2 0x3C83 JUMPI PUSH2 0x3C82 PUSH2 0x38FE JUMP JUMPDEST JUMPDEST SWAP3 POP SWAP3 SWAP1 POP JUMP JUMPDEST PUSH0 DUP1 PUSH1 0x20 DUP4 DUP6 SUB SLT ISZERO PUSH2 0x3CA0 JUMPI PUSH2 0x3C9F PUSH2 0x3368 JUMP JUMPDEST JUMPDEST PUSH0 DUP4 ADD CALLDATALOAD PUSH8 0xFFFFFFFFFFFFFFFF DUP2 GT ISZERO PUSH2 0x3CBD JUMPI PUSH2 0x3CBC PUSH2 0x336C JUMP JUMPDEST JUMPDEST PUSH2 0x3CC9 DUP6 DUP3 DUP7 ADD PUSH2 0x3C35 JUMP JUMPDEST SWAP3 POP SWAP3 POP POP SWAP3 POP SWAP3 SWAP1 POP JUMP JUMPDEST PUSH0 DUP2 MLOAD SWAP1 POP SWAP2 SWAP1 POP JUMP JUMPDEST PUSH0 DUP3 DUP3 MSTORE PUSH1 0x20 DUP3 ADD SWAP1 POP SWAP3 SWAP2 POP POP JUMP JUMPDEST PUSH0 DUP2 SWAP1 POP PUSH1 0x20 DUP3 ADD SWAP1 POP SWAP2 SWAP1 POP JUMP JUMPDEST PUSH0 DUP2 MLOAD SWAP1 POP SWAP2 SWAP1 POP JUMP JUMPDEST PUSH0 DUP3 DUP3 MSTORE PUSH1 0x20 DUP3 ADD SWAP1 POP SWAP3 SWAP2 POP POP JUMP JUMPDEST PUSH0 PUSH2 0x3D22 DUP3 PUSH2 0x3CFE JUMP JUMPDEST PUSH2 0x3D2C DUP2 DUP6 PUSH2 0x3D08 JUMP JUMPDEST SWAP4 POP PUSH2 0x3D3C DUP2 DUP6 PUSH1 0x20 DUP7 ADD PUSH2 0x35E2 JUMP JUMPDEST PUSH2 0x3D45 DUP2 PUSH2 0x360A JUMP JUMPDEST DUP5 ADD SWAP2 POP POP SWAP3 SWAP2 POP POP JUMP JUMPDEST PUSH0 PUSH2 0x3D5B DUP4 DUP4 PUSH2 0x3D18 JUMP JUMPDEST SWAP1 POP SWAP3 SWAP2 POP POP JUMP JUMPDEST PUSH0 PUSH1 0x20 DUP3 ADD SWAP1 POP SWAP2 SWAP1 POP JUMP JUMPDEST PUSH0 PUSH2 0x3D79 DUP3 PUSH2 0x3CD5 JUMP JUMPDEST PUSH2 0x3D83 DUP2 DUP6 PUSH2 0x3CDF JUMP JUMPDEST SWAP4 POP DUP4 PUSH1 0x20 DUP3 MUL DUP6 ADD PUSH2 0x3D95 DUP6 PUSH2 0x3CEF JUMP JUMPDEST DUP1 PUSH0 JUMPDEST DUP6 DUP2 LT ISZERO PUSH2 0x3DD0 JUMPI DUP5 DUP5 SUB DUP10 MSTORE DUP2 MLOAD PUSH2 0x3DB1 DUP6 DUP3 PUSH2 0x3D50 JUMP JUMPDEST SWAP5 POP PUSH2 0x3DBC DUP4 PUSH2 0x3D63 JUMP JUMPDEST SWAP3 POP PUSH1 0x20 DUP11 ADD SWAP10 POP POP PUSH1 0x1 DUP2 ADD SWAP1 POP PUSH2 0x3D98 JUMP JUMPDEST POP DUP3 SWAP8 POP DUP8 SWAP6 POP POP POP POP POP POP SWAP3 SWAP2 POP POP JUMP JUMPDEST PUSH0 PUSH1 0x20 DUP3 ADD SWAP1 POP DUP2 DUP2 SUB PUSH0 DUP4 ADD MSTORE PUSH2 0x3DFA DUP2 DUP5 PUSH2 0x3D6F JUMP JUMPDEST SWAP1 POP SWAP3 SWAP2 POP POP JUMP JUMPDEST PUSH0 DUP2 SWAP1 POP SWAP2 SWAP1 POP JUMP JUMPDEST PUSH0 PUSH2 0x3E25 PUSH2 0x3E20 PUSH2 0x3E1B DUP5 PUSH2 0x3370 JUMP JUMPDEST PUSH2 0x3E02 JUMP JUMPDEST PUSH2 0x3370 JUMP JUMPDEST SWAP1 POP SWAP2 SWAP1 POP JUMP JUMPDEST PUSH0 PUSH2 0x3E36 DUP3 PUSH2 0x3E0B JUMP JUMPDEST SWAP1 POP SWAP2 SWAP1 POP JUMP JUMPDEST PUSH0 PUSH2 0x3E47 DUP3 PUSH2 0x3E2C JUMP JUMPDEST SWAP1 POP SWAP2 SWAP1 POP JUMP JUMPDEST PUSH2 0x3E57 DUP2 PUSH2 0x3E3D JUMP JUMPDEST DUP3 MSTORE POP POP JUMP JUMPDEST PUSH0 PUSH1 0x20 DUP3 ADD SWAP1 POP PUSH2 0x3E70 PUSH0 DUP4 ADD DUP5 PUSH2 0x3E4E JUMP JUMPDEST SWAP3 SWAP2 POP POP JUMP JUMPDEST PUSH0 PUSH2 0x3E80 DUP3 PUSH2 0x338F JUMP JUMPDEST SWAP1 POP SWAP2 SWAP1 POP JUMP JUMPDEST PUSH2 0x3E90 DUP2 PUSH2 0x3E76 JUMP JUMPDEST DUP2 EQ PUSH2 0x3E9A JUMPI PUSH0 DUP1 REVERT JUMPDEST POP JUMP JUMPDEST PUSH0 DUP2 CALLDATALOAD SWAP1 POP PUSH2 0x3EAB DUP2 PUSH2 0x3E87 JUMP JUMPDEST SWAP3 SWAP2 POP POP JUMP JUMPDEST PUSH0 PUSH1 0x20 DUP3 DUP5 SUB SLT ISZERO PUSH2 0x3EC6 JUMPI PUSH2 0x3EC5 PUSH2 0x3368 JUMP JUMPDEST JUMPDEST PUSH0 PUSH2 0x3ED3 DUP5 DUP3 DUP6 ADD PUSH2 0x3E9D JUMP JUMPDEST SWAP2 POP POP SWAP3 SWAP2 POP POP JUMP JUMPDEST PUSH0 PUSH1 0x20 DUP3 ADD SWAP1 POP PUSH2 0x3EEF PUSH0 DUP4 ADD DUP5 PUSH2 0x3BFF JUMP JUMPDEST SWAP3 SWAP2 POP POP JUMP JUMPDEST PUSH2 0x3EFE DUP2 PUSH2 0x36DE JUMP JUMPDEST DUP2 EQ PUSH2 0x3F08 JUMPI PUSH0 DUP1 REVERT JUMPDEST POP JUMP JUMPDEST PUSH0 DUP2 CALLDATALOAD SWAP1 POP PUSH2 0x3F19 DUP2 PUSH2 0x3EF5 JUMP JUMPDEST SWAP3 SWAP2 POP POP JUMP JUMPDEST PUSH0 PUSH1 0x20 DUP3 DUP5 SUB SLT ISZERO PUSH2 0x3F34 JUMPI PUSH2 0x3F33 PUSH2 0x3368 JUMP JUMPDEST JUMPDEST PUSH0 PUSH2 0x3F41 DUP5 DUP3 DUP6 ADD PUSH2 0x3F0B JUMP JUMPDEST SWAP2 POP POP SWAP3 SWAP2 POP POP JUMP JUMPDEST PUSH0 DUP1 PUSH0 PUSH1 0x40 DUP5 DUP7 SUB SLT ISZERO PUSH2 0x3F61 JUMPI PUSH2 0x3F60 PUSH2 0x3368 JUMP JUMPDEST JUMPDEST PUSH0 PUSH2 0x3F6E DUP7 DUP3 DUP8 ADD PUSH2 0x33B6 JUMP JUMPDEST SWAP4 POP POP PUSH1 0x20 DUP5 ADD CALLDATALOAD PUSH8 0xFFFFFFFFFFFFFFFF DUP2 GT ISZERO PUSH2 0x3F8F JUMPI PUSH2 0x3F8E PUSH2 0x336C JUMP JUMPDEST JUMPDEST PUSH2 0x3F9B DUP7 DUP3 DUP8 ADD PUSH2 0x3902 JUMP JUMPDEST SWAP3 POP SWAP3 POP POP SWAP3 POP SWAP3 POP SWAP3 JUMP JUMPDEST PUSH0 DUP3 DUP3 MSTORE PUSH1 0x20 DUP3 ADD SWAP1 POP SWAP3 SWAP2 POP POP JUMP JUMPDEST PUSH0 PUSH2 0x3FC1 DUP3 PUSH2 0x39F9 JUMP JUMPDEST PUSH2 0x3FCB DUP2 DUP6 PUSH2 0x3FA7 JUMP JUMPDEST SWAP4 POP PUSH2 0x3FD6 DUP4 PUSH2 0x3A13 JUMP JUMPDEST DUP1 PUSH0 JUMPDEST DUP4 DUP2 LT ISZERO PUSH2 0x4006 JUMPI DUP2 MLOAD PUSH2 0x3FED DUP9 DUP3 PUSH2 0x3A22 JUMP JUMPDEST SWAP8 POP PUSH2 0x3FF8 DUP4 PUSH2 0x3A39 JUMP JUMPDEST SWAP3 POP POP PUSH1 0x1 DUP2 ADD SWAP1 POP PUSH2 0x3FD9 JUMP JUMPDEST POP DUP6 SWAP4 POP POP POP POP SWAP3 SWAP2 POP POP JUMP JUMPDEST PUSH0 PUSH1 0x20 DUP3 ADD SWAP1 POP DUP2 DUP2 SUB PUSH0 DUP4 ADD MSTORE PUSH2 0x402B DUP2 DUP5 PUSH2 0x3FB7 JUMP JUMPDEST SWAP1 POP SWAP3 SWAP2 POP POP JUMP JUMPDEST PUSH0 PUSH1 0xA0 DUP4 ADD PUSH0 DUP4 ADD MLOAD PUSH2 0x4048 PUSH0 DUP7 ADD DUP3 PUSH2 0x3652 JUMP JUMPDEST POP PUSH1 0x20 DUP4 ADD MLOAD DUP5 DUP3 SUB PUSH1 0x20 DUP7 ADD MSTORE PUSH2 0x4060 DUP3 DUP3 PUSH2 0x3A45 JUMP JUMPDEST SWAP2 POP POP PUSH1 0x40 DUP4 ADD MLOAD PUSH2 0x4075 PUSH1 0x40 DUP7 ADD DUP3 PUSH2 0x3AA1 JUMP JUMPDEST POP PUSH1 0x60 DUP4 ADD MLOAD PUSH2 0x4088 PUSH1 0x60 DUP7 ADD DUP3 PUSH2 0x3ACB JUMP JUMPDEST POP PUSH1 0x80 DUP4 ADD MLOAD PUSH2 0x409B PUSH1 0x80 DUP7 ADD DUP3 PUSH2 0x3ACB JUMP JUMPDEST POP DUP1 SWAP2 POP POP SWAP3 SWAP2 POP POP JUMP JUMPDEST PUSH0 PUSH1 0x20 DUP3 ADD SWAP1 POP DUP2 DUP2 SUB PUSH0 DUP4 ADD MSTORE PUSH2 0x40BE DUP2 DUP5 PUSH2 0x4033 JUMP JUMPDEST SWAP1 POP SWAP3 SWAP2 POP POP JUMP JUMPDEST PUSH2 0x40CF DUP2 PUSH2 0x36DE JUMP JUMPDEST DUP3 MSTORE POP POP JUMP JUMPDEST PUSH0 PUSH1 0x20 DUP3 ADD SWAP1 POP PUSH2 0x40E8 PUSH0 DUP4 ADD DUP5 PUSH2 0x40C6 JUMP JUMPDEST SWAP3 SWAP2 POP POP JUMP JUMPDEST PUSH0 DUP2 MLOAD SWAP1 POP PUSH2 0x40FC DUP2 PUSH2 0x33A0 JUMP JUMPDEST SWAP3 SWAP2 POP POP JUMP JUMPDEST PUSH0 PUSH1 0x20 DUP3 DUP5 SUB SLT ISZERO PUSH2 0x4117 JUMPI PUSH2 0x4116 PUSH2 0x3368 JUMP JUMPDEST JUMPDEST PUSH0 PUSH2 0x4124 DUP5 DUP3 DUP6 ADD PUSH2 0x40EE JUMP JUMPDEST SWAP2 POP POP SWAP3 SWAP2 POP POP JUMP JUMPDEST PUSH0 DUP1 REVERT JUMPDEST PUSH0 DUP1 REVERT JUMPDEST PUSH0 DUP1 REVERT JUMPDEST PUSH0 DUP1 DUP4 CALLDATALOAD PUSH1 0x1 PUSH1 0x20 SUB DUP5 CALLDATASIZE SUB SUB DUP2 SLT PUSH2 0x4155 JUMPI PUSH2 0x4154 PUSH2 0x412D JUMP JUMPDEST JUMPDEST DUP1 DUP5 ADD SWAP3 POP DUP3 CALLDATALOAD SWAP2 POP PUSH8 0xFFFFFFFFFFFFFFFF DUP3 GT ISZERO PUSH2 0x4177 JUMPI PUSH2 0x4176 PUSH2 0x4131 JUMP JUMPDEST JUMPDEST PUSH1 0x20 DUP4 ADD SWAP3 POP PUSH1 0x1 DUP3 MUL CALLDATASIZE SUB DUP4 SGT ISZERO PUSH2 0x4193 JUMPI PUSH2 0x4192 PUSH2 0x4135 JUMP JUMPDEST JUMPDEST POP SWAP3 POP SWAP3 SWAP1 POP JUMP JUMPDEST PUSH32 0x4E487B7100000000000000000000000000000000000000000000000000000000 PUSH0 MSTORE PUSH1 0x32 PUSH1 0x4 MSTORE PUSH1 0x24 PUSH0 REVERT JUMPDEST PUSH32 0x4E487B7100000000000000000000000000000000000000000000000000000000 PUSH0 MSTORE PUSH1 0x41 PUSH1 0x4 MSTORE PUSH1 0x24 PUSH0 REVERT JUMPDEST PUSH2 0x41FE DUP3 PUSH2 0x360A JUMP JUMPDEST DUP2 ADD DUP2 DUP2 LT PUSH8 0xFFFFFFFFFFFFFFFF DUP3 GT OR ISZERO PUSH2 0x421D JUMPI PUSH2 0x421C PUSH2 0x41C8 JUMP JUMPDEST JUMPDEST DUP1 PUSH1 0x40 MSTORE POP POP POP JUMP JUMPDEST PUSH0 PUSH2 0x422F PUSH2 0x335F JUMP JUMPDEST SWAP1 POP PUSH2 0x423B DUP3 DUP3 PUSH2 0x41F5 JUMP JUMPDEST SWAP2 SWAP1 POP JUMP JUMPDEST PUSH0 PUSH8 0xFFFFFFFFFFFFFFFF DUP3 GT ISZERO PUSH2 0x425A JUMPI PUSH2 0x4259 PUSH2 0x41C8 JUMP JUMPDEST JUMPDEST PUSH1 0x20 DUP3 MUL SWAP1 POP PUSH1 0x20 DUP2 ADD SWAP1 POP SWAP2 SWAP1 POP JUMP JUMPDEST PUSH0 DUP1 REVERT JUMPDEST PUSH0 DUP1 REVERT JUMPDEST PUSH0 DUP1 REVERT JUMPDEST PUSH0 PUSH8 0xFFFFFFFFFFFFFFFF DUP3 GT ISZERO PUSH2 0x4291 JUMPI PUSH2 0x4290 PUSH2 0x41C8 JUMP JUMPDEST JUMPDEST PUSH2 0x429A DUP3 PUSH2 0x360A JUMP JUMPDEST SWAP1 POP PUSH1 0x20 DUP2 ADD SWAP1 POP SWAP2 SWAP1 POP JUMP JUMPDEST PUSH0 PUSH2 0x42B9 PUSH2 0x42B4 DUP5 PUSH2 0x4277 JUMP JUMPDEST PUSH2 0x4226 JUMP JUMPDEST SWAP1 POP DUP3 DUP2 MSTORE PUSH1 0x20 DUP2 ADD DUP5 DUP5 DUP5 ADD GT ISZERO PUSH2 0x42D5 JUMPI PUSH2 0x42D4 PUSH2 0x4273 JUMP JUMPDEST JUMPDEST PUSH2 0x42E0 DUP5 DUP3 DUP6 PUSH2 0x35E2 JUMP JUMPDEST POP SWAP4 SWAP3 POP POP POP JUMP JUMPDEST PUSH0 DUP3 PUSH1 0x1F DUP4 ADD SLT PUSH2 0x42FC JUMPI PUSH2 0x42FB PUSH2 0x38F6 JUMP JUMPDEST JUMPDEST DUP2 MLOAD PUSH2 0x430C DUP5 DUP3 PUSH1 0x20 DUP7 ADD PUSH2 0x42A7 JUMP JUMPDEST SWAP2 POP POP SWAP3 SWAP2 POP POP JUMP JUMPDEST PUSH0 PUSH1 0x60 DUP3 DUP5 SUB SLT ISZERO PUSH2 0x432A JUMPI PUSH2 0x4329 PUSH2 0x426B JUMP JUMPDEST JUMPDEST PUSH2 0x4334 PUSH1 0x60 PUSH2 0x4226 JUMP JUMPDEST SWAP1 POP PUSH0 DUP3 ADD MLOAD PUSH8 0xFFFFFFFFFFFFFFFF DUP2 GT ISZERO PUSH2 0x4353 JUMPI PUSH2 0x4352 PUSH2 0x426F JUMP JUMPDEST JUMPDEST PUSH2 0x435F DUP5 DUP3 DUP6 ADD PUSH2 0x42E8 JUMP JUMPDEST PUSH0 DUP4 ADD MSTORE POP PUSH1 0x20 DUP3 ADD MLOAD PUSH8 0xFFFFFFFFFFFFFFFF DUP2 GT ISZERO PUSH2 0x4382 JUMPI PUSH2 0x4381 PUSH2 0x426F JUMP JUMPDEST JUMPDEST PUSH2 0x438E DUP5 DUP3 DUP6 ADD PUSH2 0x42E8 JUMP JUMPDEST PUSH1 0x20 DUP4 ADD MSTORE POP PUSH1 0x40 PUSH2 0x43A2 DUP5 DUP3 DUP6 ADD PUSH2 0x40EE JUMP JUMPDEST PUSH1 0x40 DUP4 ADD MSTORE POP SWAP3 SWAP2 POP POP JUMP JUMPDEST PUSH0 PUSH8 0xFFFFFFFFFFFFFFFF DUP3 GT ISZERO PUSH2 0x43C8 JUMPI PUSH2 0x43C7 PUSH2 0x41C8 JUMP JUMPDEST JUMPDEST PUSH1 0x20 DUP3 MUL SWAP1 POP PUSH1 0x20 DUP2 ADD SWAP1 POP SWAP2 SWAP1 POP JUMP JUMPDEST PUSH0 DUP2 MLOAD SWAP1 POP PUSH2 0x43E7 DUP2 PUSH2 0x3EF5 JUMP JUMPDEST SWAP3 SWAP2 POP POP JUMP JUMPDEST PUSH0 PUSH1 0x40 DUP3 DUP5 SUB SLT ISZERO PUSH2 0x4402 JUMPI PUSH2 0x4401 PUSH2 0x426B JUMP JUMPDEST JUMPDEST PUSH2 0x440C PUSH1 0x40 PUSH2 0x4226 JUMP JUMPDEST SWAP1 POP PUSH0 PUSH2 0x441B DUP5 DUP3 DUP6 ADD PUSH2 0x43D9 JUMP JUMPDEST PUSH0 DUP4 ADD MSTORE POP PUSH1 0x20 DUP3 ADD MLOAD PUSH8 0xFFFFFFFFFFFFFFFF DUP2 GT ISZERO PUSH2 0x443E JUMPI PUSH2 0x443D PUSH2 0x426F JUMP JUMPDEST JUMPDEST PUSH2 0x444A DUP5 DUP3 DUP6 ADD PUSH2 0x42E8 JUMP JUMPDEST PUSH1 0x20 DUP4 ADD MSTORE POP SWAP3 SWAP2 POP POP JUMP JUMPDEST PUSH0 PUSH2 0x4468 PUSH2 0x4463 DUP5 PUSH2 0x43AE JUMP JUMPDEST PUSH2 0x4226 JUMP JUMPDEST SWAP1 POP DUP1 DUP4 DUP3 MSTORE PUSH1 0x20 DUP3 ADD SWAP1 POP PUSH1 0x20 DUP5 MUL DUP4 ADD DUP6 DUP2 GT ISZERO PUSH2 0x448B JUMPI PUSH2 0x448A PUSH2 0x38FE JUMP JUMPDEST JUMPDEST DUP4 JUMPDEST DUP2 DUP2 LT ISZERO PUSH2 0x44D2 JUMPI DUP1 MLOAD PUSH8 0xFFFFFFFFFFFFFFFF DUP2 GT ISZERO PUSH2 0x44B0 JUMPI PUSH2 0x44AF PUSH2 0x38F6 JUMP JUMPDEST JUMPDEST DUP1 DUP7 ADD PUSH2 0x44BD DUP10 DUP3 PUSH2 0x43ED JUMP JUMPDEST DUP6 MSTORE PUSH1 0x20 DUP6 ADD SWAP5 POP POP POP PUSH1 0x20 DUP2 ADD SWAP1 POP PUSH2 0x448D JUMP JUMPDEST POP POP POP SWAP4 SWAP3 POP POP POP JUMP JUMPDEST PUSH0 DUP3 PUSH1 0x1F DUP4 ADD SLT PUSH2 0x44F0 JUMPI PUSH2 0x44EF PUSH2 0x38F6 JUMP JUMPDEST JUMPDEST DUP2 MLOAD PUSH2 0x4500 DUP5 DUP3 PUSH1 0x20 DUP7 ADD PUSH2 0x4456 JUMP JUMPDEST SWAP2 POP POP SWAP3 SWAP2 POP POP JUMP JUMPDEST PUSH0 PUSH1 0x40 DUP3 DUP5 SUB SLT ISZERO PUSH2 0x451E JUMPI PUSH2 0x451D PUSH2 0x426B JUMP JUMPDEST JUMPDEST PUSH2 0x4528 PUSH1 0x40 PUSH2 0x4226 JUMP JUMPDEST SWAP1 POP PUSH0 DUP3 ADD MLOAD PUSH8 0xFFFFFFFFFFFFFFFF DUP2 GT ISZERO PUSH2 0x4547 JUMPI PUSH2 0x4546 PUSH2 0x426F JUMP JUMPDEST JUMPDEST PUSH2 0x4553 DUP5 DUP3 DUP6 ADD PUSH2 0x4315 JUMP JUMPDEST PUSH0 DUP4 ADD MSTORE POP PUSH1 0x20 DUP3 ADD MLOAD PUSH8 0xFFFFFFFFFFFFFFFF DUP2 GT ISZERO PUSH2 0x4576 JUMPI PUSH2 0x4575 PUSH2 0x426F JUMP JUMPDEST JUMPDEST PUSH2 0x4582 DUP5 DUP3 DUP6 ADD PUSH2 0x44DC JUMP JUMPDEST PUSH1 0x20 DUP4 ADD MSTORE POP SWAP3 SWAP2 POP POP JUMP JUMPDEST PUSH0 PUSH2 0x45A0 PUSH2 0x459B DUP5 PUSH2 0x4240 JUMP JUMPDEST PUSH2 0x4226 JUMP JUMPDEST SWAP1 POP DUP1 DUP4 DUP3 MSTORE PUSH1 0x20 DUP3 ADD SWAP1 POP PUSH1 0x20 DUP5 MUL DUP4 ADD DUP6 DUP2 GT ISZERO PUSH2 0x45C3 JUMPI PUSH2 0x45C2 PUSH2 0x38FE JUMP JUMPDEST JUMPDEST DUP4 JUMPDEST DUP2 DUP2 LT ISZERO PUSH2 0x460A JUMPI DUP1 MLOAD PUSH8 0xFFFFFFFFFFFFFFFF DUP2 GT ISZERO PUSH2 0x45E8 JUMPI PUSH2 0x45E7 PUSH2 0x38F6 JUMP JUMPDEST JUMPDEST DUP1 DUP7 ADD PUSH2 0x45F5 DUP10 DUP3 PUSH2 0x4509 JUMP JUMPDEST DUP6 MSTORE PUSH1 0x20 DUP6 ADD SWAP5 POP POP POP PUSH1 0x20 DUP2 ADD SWAP1 POP PUSH2 0x45C5 JUMP JUMPDEST POP POP POP SWAP4 SWAP3 POP POP POP JUMP JUMPDEST PUSH0 DUP3 PUSH1 0x1F DUP4 ADD SLT PUSH2 0x4628 JUMPI PUSH2 0x4627 PUSH2 0x38F6 JUMP JUMPDEST JUMPDEST DUP2 MLOAD PUSH2 0x4638 DUP5 DUP3 PUSH1 0x20 DUP7 ADD PUSH2 0x458E JUMP JUMPDEST SWAP2 POP POP SWAP3 SWAP2 POP POP JUMP JUMPDEST PUSH0 PUSH1 0x20 DUP3 DUP5 SUB SLT ISZERO PUSH2 0x4656 JUMPI PUSH2 0x4655 PUSH2 0x3368 JUMP JUMPDEST JUMPDEST PUSH0 DUP3 ADD MLOAD PUSH8 0xFFFFFFFFFFFFFFFF DUP2 GT ISZERO PUSH2 0x4673 JUMPI PUSH2 0x4672 PUSH2 0x336C JUMP JUMPDEST JUMPDEST PUSH2 0x467F DUP5 DUP3 DUP6 ADD PUSH2 0x4614 JUMP JUMPDEST SWAP2 POP POP SWAP3 SWAP2 POP POP JUMP JUMPDEST PUSH2 0x4691 DUP2 PUSH2 0x3AB0 JUMP JUMPDEST DUP2 EQ PUSH2 0x469B JUMPI PUSH0 DUP1 REVERT JUMPDEST POP JUMP JUMPDEST PUSH0 DUP2 CALLDATALOAD SWAP1 POP PUSH2 0x46AC DUP2 PUSH2 0x4688 JUMP JUMPDEST SWAP3 SWAP2 POP POP JUMP JUMPDEST PUSH0 PUSH1 0x20 DUP3 DUP5 SUB SLT ISZERO PUSH2 0x46C7 JUMPI PUSH2 0x46C6 PUSH2 0x3368 JUMP JUMPDEST JUMPDEST PUSH0 PUSH2 0x46D4 DUP5 DUP3 DUP6 ADD PUSH2 0x469E JUMP JUMPDEST SWAP2 POP POP SWAP3 SWAP2 POP POP JUMP JUMPDEST PUSH32 0x21706572696F6400000000000000000000000000000000000000000000000000 PUSH0 DUP3 ADD MSTORE POP JUMP JUMPDEST PUSH0 PUSH2 0x4711 PUSH1 0x7 DUP4 PUSH2 0x32E7 JUMP JUMPDEST SWAP2 POP PUSH2 0x471C DUP3 PUSH2 0x46DD JUMP JUMPDEST PUSH1 0x20 DUP3 ADD SWAP1 POP SWAP2 SWAP1 POP JUMP JUMPDEST PUSH0 PUSH1 0x20 DUP3 ADD SWAP1 POP DUP2 DUP2 SUB PUSH0 DUP4 ADD MSTORE PUSH2 0x473E DUP2 PUSH2 0x4705 JUMP JUMPDEST SWAP1 POP SWAP2 SWAP1 POP JUMP JUMPDEST PUSH32 0x2173696700000000000000000000000000000000000000000000000000000000 PUSH0 DUP3 ADD MSTORE POP JUMP JUMPDEST PUSH0 PUSH2 0x4779 PUSH1 0x4 DUP4 PUSH2 0x32E7 JUMP JUMPDEST SWAP2 POP PUSH2 0x4784 DUP3 PUSH2 0x4745 JUMP JUMPDEST PUSH1 0x20 DUP3 ADD SWAP1 POP SWAP2 SWAP1 POP JUMP JUMPDEST PUSH0 PUSH1 0x20 DUP3 ADD SWAP1 POP DUP2 DUP2 SUB PUSH0 DUP4 ADD MSTORE PUSH2 0x47A6 DUP2 PUSH2 0x476D JUMP JUMPDEST SWAP1 POP SWAP2 SWAP1 POP JUMP JUMPDEST PUSH0 PUSH1 0xFF DUP3 AND SWAP1 POP SWAP2 SWAP1 POP JUMP JUMPDEST PUSH2 0x47C2 DUP2 PUSH2 0x47AD JUMP JUMPDEST DUP2 EQ PUSH2 0x47CC JUMPI PUSH0 DUP1 REVERT JUMPDEST POP JUMP JUMPDEST PUSH0 DUP2 CALLDATALOAD SWAP1 POP PUSH2 0x47DD DUP2 PUSH2 0x47B9 JUMP JUMPDEST SWAP3 SWAP2 POP POP JUMP JUMPDEST PUSH0 PUSH1 0x20 DUP3 DUP5 SUB SLT ISZERO PUSH2 0x47F8 JUMPI PUSH2 0x47F7 PUSH2 0x3368 JUMP JUMPDEST JUMPDEST PUSH0 PUSH2 0x4805 DUP5 DUP3 DUP6 ADD PUSH2 0x47CF JUMP JUMPDEST SWAP2 POP POP SWAP3 SWAP2 POP POP JUMP JUMPDEST PUSH32 0x61646D696E000000000000000000000000000000000000000000000000000000 PUSH0 DUP3 ADD MSTORE POP JUMP JUMPDEST PUSH0 PUSH2 0x4842 PUSH1 0x5 DUP4 PUSH2 0x32E7 JUMP JUMPDEST SWAP2 POP PUSH2 0x484D DUP3 PUSH2 0x480E JUMP JUMPDEST PUSH1 0x20 DUP3 ADD SWAP1 POP SWAP2 SWAP1 POP JUMP JUMPDEST PUSH0 PUSH1 0x20 DUP3 ADD SWAP1 POP DUP2 DUP2 SUB PUSH0 DUP4 ADD MSTORE PUSH2 0x486F DUP2 PUSH2 0x4836 JUMP JUMPDEST SWAP1 POP SWAP2 SWAP1 POP JUMP JUMPDEST PUSH32 0x4E487B7100000000000000000000000000000000000000000000000000000000 PUSH0 MSTORE PUSH1 0x11 PUSH1 0x4 MSTORE PUSH1 0x24 PUSH0 REVERT JUMPDEST PUSH0 PUSH2 0x48AD DUP3 PUSH2 0x34D8 JUMP JUMPDEST SWAP2 POP PUSH2 0x48B8 DUP4 PUSH2 0x34D8 JUMP JUMPDEST SWAP3 POP DUP3 DUP3 ADD SWAP1 POP DUP1 DUP3 GT ISZERO PUSH2 0x48D0 JUMPI PUSH2 0x48CF PUSH2 0x4876 JUMP JUMPDEST JUMPDEST SWAP3 SWAP2 POP POP JUMP JUMPDEST PUSH0 DUP1 DUP4 CALLDATALOAD PUSH1 0x1 PUSH1 0x20 SUB DUP5 CALLDATASIZE SUB SUB DUP2 SLT PUSH2 0x48F2 JUMPI PUSH2 0x48F1 PUSH2 0x412D JUMP JUMPDEST JUMPDEST DUP1 DUP5 ADD SWAP3 POP DUP3 CALLDATALOAD SWAP2 POP PUSH8 0xFFFFFFFFFFFFFFFF DUP3 GT ISZERO PUSH2 0x4914 JUMPI PUSH2 0x4913 PUSH2 0x4131 JUMP JUMPDEST JUMPDEST PUSH1 0x20 DUP4 ADD SWAP3 POP PUSH1 0x20 DUP3 MUL CALLDATASIZE SUB DUP4 SGT ISZERO PUSH2 0x4930 JUMPI PUSH2 0x492F PUSH2 0x4135 JUMP JUMPDEST JUMPDEST POP SWAP3 POP SWAP3 SWAP1 POP JUMP JUMPDEST PUSH0 PUSH2 0x4946 PUSH1 0x20 DUP5 ADD DUP5 PUSH2 0x33B6 JUMP JUMPDEST SWAP1 POP SWAP3 SWAP2 POP POP JUMP JUMPDEST PUSH0 PUSH2 0x495C PUSH1 0x20 DUP5 ADD DUP5 PUSH2 0x47CF JUMP JUMPDEST SWAP1 POP SWAP3 SWAP2 POP POP JUMP JUMPDEST PUSH2 0x496D DUP2 PUSH2 0x47AD JUMP JUMPDEST DUP3 MSTORE POP POP JUMP JUMPDEST PUSH0 DUP1 REVERT JUMPDEST PUSH0 DUP1 REVERT JUMPDEST PUSH0 DUP1 REVERT JUMPDEST PUSH0 DUP1 DUP4 CALLDATALOAD PUSH1 0x1 PUSH1 0x20 SUB DUP5 CALLDATASIZE SUB SUB DUP2 SLT PUSH2 0x499B JUMPI PUSH2 0x499A PUSH2 0x497B JUMP JUMPDEST JUMPDEST DUP4 DUP2 ADD SWAP3 POP DUP3 CALLDATALOAD SWAP2 POP PUSH1 0x20 DUP4 ADD SWAP3 POP PUSH8 0xFFFFFFFFFFFFFFFF DUP3 GT ISZERO PUSH2 0x49C3 JUMPI PUSH2 0x49C2 PUSH2 0x4973 JUMP JUMPDEST JUMPDEST PUSH1 0x20 DUP3 MUL CALLDATASIZE SUB DUP4 SGT ISZERO PUSH2 0x49D9 JUMPI PUSH2 0x49D8 PUSH2 0x4977 JUMP JUMPDEST JUMPDEST POP SWAP3 POP SWAP3 SWAP1 POP JUMP JUMPDEST PUSH0 DUP2 SWAP1 POP SWAP2 SWAP1 POP JUMP JUMPDEST PUSH0 PUSH1 0x20 DUP3 ADD SWAP1 POP SWAP2 SWAP1 POP JUMP JUMPDEST PUSH0 PUSH2 0x4A01 DUP4 DUP6 PUSH2 0x3A03 JUMP JUMPDEST SWAP4 POP PUSH2 0x4A0C DUP3 PUSH2 0x49E1 JUMP JUMPDEST DUP1 PUSH0 JUMPDEST DUP6 DUP2 LT ISZERO PUSH2 0x4A44 JUMPI PUSH2 0x4A21 DUP3 DUP5 PUSH2 0x4938 JUMP JUMPDEST PUSH2 0x4A2B DUP9 DUP3 PUSH2 0x3A22 JUMP JUMPDEST SWAP8 POP PUSH2 0x4A36 DUP4 PUSH2 0x49EA JUMP JUMPDEST SWAP3 POP POP PUSH1 0x1 DUP2 ADD SWAP1 POP PUSH2 0x4A0F JUMP JUMPDEST POP DUP6 SWAP3 POP POP POP SWAP4 SWAP3 POP POP POP JUMP JUMPDEST PUSH0 PUSH2 0x4A5F PUSH1 0x20 DUP5 ADD DUP5 PUSH2 0x34F7 JUMP JUMPDEST SWAP1 POP SWAP3 SWAP2 POP POP JUMP JUMPDEST PUSH0 PUSH2 0x4A75 PUSH1 0x20 DUP5 ADD DUP5 PUSH2 0x469E JUMP JUMPDEST SWAP1 POP SWAP3 SWAP2 POP POP JUMP JUMPDEST PUSH0 PUSH2 0x4A8B PUSH1 0x20 DUP5 ADD DUP5 PUSH2 0x34C4 JUMP JUMPDEST SWAP1 POP SWAP3 SWAP2 POP POP JUMP JUMPDEST PUSH2 0x4A9C DUP2 PUSH2 0x34A5 JUMP JUMPDEST DUP3 MSTORE POP POP JUMP JUMPDEST PUSH0 PUSH2 0x120 DUP4 ADD PUSH2 0x4AB4 PUSH0 DUP5 ADD DUP5 PUSH2 0x4938 JUMP JUMPDEST PUSH2 0x4AC0 PUSH0 DUP7 ADD DUP3 PUSH2 0x3652 JUMP JUMPDEST POP PUSH2 0x4ACE PUSH1 0x20 DUP5 ADD DUP5 PUSH2 0x494E JUMP JUMPDEST PUSH2 0x4ADB PUSH1 0x20 DUP7 ADD DUP3 PUSH2 0x4964 JUMP JUMPDEST POP PUSH2 0x4AE9 PUSH1 0x40 DUP5 ADD DUP5 PUSH2 0x497F JUMP JUMPDEST DUP6 DUP4 SUB PUSH1 0x40 DUP8 ADD MSTORE PUSH2 0x4AFC DUP4 DUP3 DUP5 PUSH2 0x49F6 JUMP JUMPDEST SWAP3 POP POP POP PUSH2 0x4B0D PUSH1 0x60 DUP5 ADD DUP5 PUSH2 0x4A51 JUMP JUMPDEST PUSH2 0x4B1A PUSH1 0x60 DUP7 ADD DUP3 PUSH2 0x3AA1 JUMP JUMPDEST POP PUSH2 0x4B28 PUSH1 0x80 DUP5 ADD DUP5 PUSH2 0x4A67 JUMP JUMPDEST PUSH2 0x4B35 PUSH1 0x80 DUP7 ADD DUP3 PUSH2 0x3ACB JUMP JUMPDEST POP PUSH2 0x4B43 PUSH1 0xA0 DUP5 ADD DUP5 PUSH2 0x4A67 JUMP JUMPDEST PUSH2 0x4B50 PUSH1 0xA0 DUP7 ADD DUP3 PUSH2 0x3ACB JUMP JUMPDEST POP PUSH2 0x4B5E PUSH1 0xC0 DUP5 ADD DUP5 PUSH2 0x4A67 JUMP JUMPDEST PUSH2 0x4B6B PUSH1 0xC0 DUP7 ADD DUP3 PUSH2 0x3ACB JUMP JUMPDEST POP PUSH2 0x4B79 PUSH1 0xE0 DUP5 ADD DUP5 PUSH2 0x4A67 JUMP JUMPDEST PUSH2 0x4B86 PUSH1 0xE0 DUP7 ADD DUP3 PUSH2 0x3ACB JUMP JUMPDEST POP PUSH2 0x4B95 PUSH2 0x100 DUP5 ADD DUP5 PUSH2 0x4A7D JUMP JUMPDEST PUSH2 0x4BA3 PUSH2 0x100 DUP7 ADD DUP3 PUSH2 0x4A93 JUMP JUMPDEST POP DUP1 SWAP2 POP POP SWAP3 SWAP2 POP POP JUMP JUMPDEST PUSH0 PUSH1 0x20 DUP3 ADD SWAP1 POP DUP2 DUP2 SUB PUSH0 DUP4 ADD MSTORE PUSH2 0x4BC6 DUP2 DUP5 PUSH2 0x4AA2 JUMP JUMPDEST SWAP1 POP SWAP3 SWAP2 POP POP JUMP JUMPDEST PUSH0 PUSH2 0x4BD8 DUP3 PUSH2 0x34D8 JUMP JUMPDEST SWAP2 POP PUSH32 0xFFFFFFFFFFFFFFFFFFFFFFFFFFFFFFFFFFFFFFFFFFFFFFFFFFFFFFFFFFFFFFFF DUP3 SUB PUSH2 0x4C0A JUMPI PUSH2 0x4C09 PUSH2 0x4876 JUMP JUMPDEST JUMPDEST PUSH1 0x1 DUP3 ADD SWAP1 POP SWAP2 SWAP1 POP JUMP JUMPDEST PUSH0 DUP2 SWAP1 POP SWAP2 SWAP1 POP JUMP JUMPDEST PUSH0 PUSH24 0xFFFFFFFFFFFFFFFFFFFFFFFFFFFFFFFFFFFFFFFFFFFFFFFF DUP3 AND SWAP1 POP SWAP2 SWAP1 POP JUMP JUMPDEST PUSH0 PUSH2 0x4C5B PUSH2 0x4C56 PUSH2 0x4C51 DUP5 PUSH2 0x4C15 JUMP JUMPDEST PUSH2 0x3E02 JUMP JUMPDEST PUSH2 0x4C1E JUMP JUMPDEST SWAP1 POP SWAP2 SWAP1 POP JUMP JUMPDEST PUSH2 0x4C6B DUP2 PUSH2 0x4C41 JUMP JUMPDEST DUP3 MSTORE POP POP JUMP JUMPDEST PUSH0 PUSH1 0x40 DUP3 ADD SWAP1 POP PUSH2 0x4C84 PUSH0 DUP4 ADD DUP6 PUSH2 0x3BFF JUMP JUMPDEST PUSH2 0x4C91 PUSH1 0x20 DUP4 ADD DUP5 PUSH2 0x4C62 JUMP JUMPDEST SWAP4 SWAP3 POP POP POP JUMP JUMPDEST PUSH0 DUP2 MLOAD SWAP1 POP PUSH2 0x4CA6 DUP2 PUSH2 0x34E1 JUMP JUMPDEST SWAP3 SWAP2 POP POP JUMP JUMPDEST PUSH0 PUSH1 0x20 DUP3 DUP5 SUB SLT ISZERO PUSH2 0x4CC1 JUMPI PUSH2 0x4CC0 PUSH2 0x3368 JUMP JUMPDEST JUMPDEST PUSH0 PUSH2 0x4CCE DUP5 DUP3 DUP6 ADD PUSH2 0x4C98 JUMP JUMPDEST SWAP2 POP POP SWAP3 SWAP2 POP POP JUMP JUMPDEST PUSH32 0x496E697469616C697A61626C653A20636F6E747261637420697320616C726561 PUSH0 DUP3 ADD MSTORE PUSH32 0x647920696E697469616C697A6564000000000000000000000000000000000000 PUSH1 0x20 DUP3 ADD MSTORE POP JUMP JUMPDEST PUSH0 PUSH2 0x4D31 PUSH1 0x2E DUP4 PUSH2 0x32E7 JUMP JUMPDEST SWAP2 POP PUSH2 0x4D3C DUP3 PUSH2 0x4CD7 JUMP JUMPDEST PUSH1 0x40 DUP3 ADD SWAP1 POP SWAP2 SWAP1 POP JUMP JUMPDEST PUSH0 PUSH1 0x20 DUP3 ADD SWAP1 POP DUP2 DUP2 SUB PUSH0 DUP4 ADD MSTORE PUSH2 0x4D5E DUP2 PUSH2 0x4D25 JUMP JUMPDEST SWAP1 POP SWAP2 SWAP1 POP JUMP JUMPDEST PUSH0 DUP2 SWAP1 POP SWAP2 SWAP1 POP JUMP JUMPDEST PUSH0 PUSH2 0x4D88 PUSH2 0x4D83 PUSH2 0x4D7E DUP5 PUSH2 0x4D65 JUMP JUMPDEST PUSH2 0x3E02 JUMP JUMPDEST PUSH2 0x47AD JUMP JUMPDEST SWAP1 POP SWAP2 SWAP1 POP JUMP JUMPDEST PUSH2 0x4D98 DUP2 PUSH2 0x4D6E JUMP JUMPDEST DUP3 MSTORE POP POP JUMP JUMPDEST PUSH0 PUSH1 0x20 DUP3 ADD SWAP1 POP PUSH2 0x4DB1 PUSH0 DUP4 ADD DUP5 PUSH2 0x4D8F JUMP JUMPDEST SWAP3 SWAP2 POP POP JUMP JUMPDEST PUSH32 0x2144617461000000000000000000000000000000000000000000000000000000 PUSH0 DUP3 ADD MSTORE POP JUMP JUMPDEST PUSH0 PUSH2 0x4DEB PUSH1 0x5 DUP4 PUSH2 0x32E7 JUMP JUMPDEST SWAP2 POP PUSH2 0x4DF6 DUP3 PUSH2 0x4DB7 JUMP JUMPDEST PUSH1 0x20 DUP3 ADD SWAP1 POP SWAP2 SWAP1 POP JUMP JUMPDEST PUSH0 PUSH1 0x20 DUP3 ADD SWAP1 POP DUP2 DUP2 SUB PUSH0 DUP4 ADD MSTORE PUSH2 0x4E18 DUP2 PUSH2 0x4DDF JUMP JUMPDEST SWAP1 POP SWAP2 SWAP1 POP JUMP JUMPDEST PUSH0 DUP1 REVERT JUMPDEST PUSH0 DUP1 REVERT JUMPDEST PUSH0 DUP1 DUP6 DUP6 GT ISZERO PUSH2 0x4E3A JUMPI PUSH2 0x4E39 PUSH2 0x4E1F JUMP JUMPDEST JUMPDEST DUP4 DUP7 GT ISZERO PUSH2 0x4E4B JUMPI PUSH2 0x4E4A PUSH2 0x4E23 JUMP JUMPDEST JUMPDEST PUSH1 0x1 DUP6 MUL DUP4 ADD SWAP2 POP DUP5 DUP7 SUB SWAP1 POP SWAP5 POP SWAP5 SWAP3 POP POP POP JUMP JUMPDEST PUSH0 DUP3 SWAP1 POP SWAP3 SWAP2 POP POP JUMP JUMPDEST PUSH0 DUP3 DUP3 SHL SWAP1 POP SWAP3 SWAP2 POP POP JUMP JUMPDEST PUSH0 PUSH2 0x4E82 DUP4 DUP4 PUSH2 0x4E61 JUMP JUMPDEST DUP3 PUSH2 0x4E8D DUP2 CALLDATALOAD PUSH2 0x36DE JUMP JUMPDEST SWAP3 POP PUSH1 0x4 DUP3 LT ISZERO PUSH2 0x4ECD JUMPI PUSH2 0x4EC8 PUSH32 0xFFFFFFFF00000000000000000000000000000000000000000000000000000000 DUP4 PUSH1 0x4 SUB PUSH1 0x8 MUL PUSH2 0x4E6B JUMP JUMPDEST DUP4 AND SWAP3 POP JUMPDEST POP POP SWAP3 SWAP2 POP POP JUMP JUMPDEST PUSH0 PUSH2 0x4EDF DUP3 PUSH2 0x3370 JUMP JUMPDEST SWAP1 POP SWAP2 SWAP1 POP JUMP JUMPDEST PUSH2 0x4EEF DUP2 PUSH2 0x4ED5 JUMP JUMPDEST DUP2 EQ PUSH2 0x4EF9 JUMPI PUSH0 DUP1 REVERT JUMPDEST POP JUMP JUMPDEST PUSH0 DUP2 CALLDATALOAD SWAP1 POP PUSH2 0x4F0A DUP2 PUSH2 0x4EE6 JUMP JUMPDEST SWAP3 SWAP2 POP POP JUMP JUMPDEST PUSH0 PUSH1 0x20 DUP3 DUP5 SUB SLT ISZERO PUSH2 0x4F25 JUMPI PUSH2 0x4F24 PUSH2 0x3368 JUMP JUMPDEST JUMPDEST PUSH0 PUSH2 0x4F32 DUP5 DUP3 DUP6 ADD PUSH2 0x4EFC JUMP JUMPDEST SWAP2 POP POP SWAP3 SWAP2 POP POP JUMP JUMPDEST PUSH0 PUSH1 0x20 DUP3 DUP5 SUB SLT ISZERO PUSH2 0x4F50 JUMPI PUSH2 0x4F4F PUSH2 0x3368 JUMP JUMPDEST JUMPDEST PUSH0 PUSH2 0x4F5D DUP5 DUP3 DUP6 ADD PUSH2 0x34F7 JUMP JUMPDEST SWAP2 POP POP SWAP3 SWAP2 POP POP JUMP JUMPDEST PUSH0 PUSH8 0xFFFFFFFFFFFFFFFF DUP3 GT ISZERO PUSH2 0x4F80 JUMPI PUSH2 0x4F7F PUSH2 0x41C8 JUMP JUMPDEST JUMPDEST PUSH1 0x20 DUP3 MUL SWAP1 POP PUSH1 0x20 DUP2 ADD SWAP1 POP SWAP2 SWAP1 POP JUMP JUMPDEST PUSH0 PUSH2 0x4FA3 PUSH2 0x4F9E DUP5 PUSH2 0x4F66 JUMP JUMPDEST PUSH2 0x4226 JUMP JUMPDEST SWAP1 POP DUP1 DUP4 DUP3 MSTORE PUSH1 0x20 DUP3 ADD SWAP1 POP PUSH1 0x20 DUP5 MUL DUP4 ADD DUP6 DUP2 GT ISZERO PUSH2 0x4FC6 JUMPI PUSH2 0x4FC5 PUSH2 0x38FE JUMP JUMPDEST JUMPDEST DUP4 JUMPDEST DUP2 DUP2 LT ISZERO PUSH2 0x4FEF JUMPI DUP1 PUSH2 0x4FDB DUP9 DUP3 PUSH2 0x33B6 JUMP JUMPDEST DUP5 MSTORE PUSH1 0x20 DUP5 ADD SWAP4 POP POP PUSH1 0x20 DUP2 ADD SWAP1 POP PUSH2 0x4FC8 JUMP JUMPDEST POP POP POP SWAP4 SWAP3 POP POP POP JUMP JUMPDEST PUSH0 DUP3 PUSH1 0x1F DUP4 ADD SLT PUSH2 0x500D JUMPI PUSH2 0x500C PUSH2 0x38F6 JUMP JUMPDEST JUMPDEST DUP2 CALLDATALOAD PUSH2 0x501D DUP5 DUP3 PUSH1 0x20 DUP7 ADD PUSH2 0x4F91 JUMP JUMPDEST SWAP2 POP POP SWAP3 SWAP2 POP POP JUMP JUMPDEST PUSH0 PUSH8 0xFFFFFFFFFFFFFFFF DUP3 GT ISZERO PUSH2 0x5040 JUMPI PUSH2 0x503F PUSH2 0x41C8 JUMP JUMPDEST JUMPDEST PUSH1 0x20 DUP3 MUL SWAP1 POP PUSH1 0x20 DUP2 ADD SWAP1 POP SWAP2 SWAP1 POP JUMP JUMPDEST PUSH0 PUSH2 0x5063 PUSH2 0x505E DUP5 PUSH2 0x5026 JUMP JUMPDEST PUSH2 0x4226 JUMP JUMPDEST SWAP1 POP DUP1 DUP4 DUP3 MSTORE PUSH1 0x20 DUP3 ADD SWAP1 POP PUSH1 0x20 DUP5 MUL DUP4 ADD DUP6 DUP2 GT ISZERO PUSH2 0x5086 JUMPI PUSH2 0x5085 PUSH2 0x38FE JUMP JUMPDEST JUMPDEST DUP4 JUMPDEST DUP2 DUP2 LT ISZERO PUSH2 0x50AF JUMPI DUP1 PUSH2 0x509B DUP9 DUP3 PUSH2 0x34F7 JUMP JUMPDEST DUP5 MSTORE PUSH1 0x20 DUP5 ADD SWAP4 POP POP PUSH1 0x20 DUP2 ADD SWAP1 POP PUSH2 0x5088 JUMP JUMPDEST POP POP POP SWAP4 SWAP3 POP POP POP JUMP JUMPDEST PUSH0 DUP3 PUSH1 0x1F DUP4 ADD SLT PUSH2 0x50CD JUMPI PUSH2 0x50CC PUSH2 0x38F6 JUMP JUMPDEST JUMPDEST DUP2 CALLDATALOAD PUSH2 0x50DD DUP5 DUP3 PUSH1 0x20 DUP7 ADD PUSH2 0x5051 JUMP JUMPDEST SWAP2 POP POP SWAP3 SWAP2 POP POP JUMP JUMPDEST PUSH0 PUSH8 0xFFFFFFFFFFFFFFFF DUP3 GT ISZERO PUSH2 0x5100 JUMPI PUSH2 0x50FF PUSH2 0x41C8 JUMP JUMPDEST JUMPDEST PUSH1 0x20 DUP3 MUL SWAP1 POP PUSH1 0x20 DUP2 ADD SWAP1 POP SWAP2 SWAP1 POP JUMP JUMPDEST PUSH0 PUSH8 0xFFFFFFFFFFFFFFFF DUP3 GT ISZERO PUSH2 0x512B JUMPI PUSH2 0x512A PUSH2 0x41C8 JUMP JUMPDEST JUMPDEST PUSH2 0x5134 DUP3 PUSH2 0x360A JUMP JUMPDEST SWAP1 POP PUSH1 0x20 DUP2 ADD SWAP1 POP SWAP2 SWAP1 POP JUMP JUMPDEST DUP3 DUP2 DUP4 CALLDATACOPY PUSH0 DUP4 DUP4 ADD MSTORE POP POP POP JUMP JUMPDEST PUSH0 PUSH2 0x5161 PUSH2 0x515C DUP5 PUSH2 0x5111 JUMP JUMPDEST PUSH2 0x4226 JUMP JUMPDEST SWAP1 POP DUP3 DUP2 MSTORE PUSH1 0x20 DUP2 ADD DUP5 DUP5 DUP5 ADD GT ISZERO PUSH2 0x517D JUMPI PUSH2 0x517C PUSH2 0x4273 JUMP JUMPDEST JUMPDEST PUSH2 0x5188 DUP5 DUP3 DUP6 PUSH2 0x5141 JUMP JUMPDEST POP SWAP4 SWAP3 POP POP POP JUMP JUMPDEST PUSH0 DUP3 PUSH1 0x1F DUP4 ADD SLT PUSH2 0x51A4 JUMPI PUSH2 0x51A3 PUSH2 0x38F6 JUMP JUMPDEST JUMPDEST DUP2 CALLDATALOAD PUSH2 0x51B4 DUP5 DUP3 PUSH1 0x20 DUP7 ADD PUSH2 0x514F JUMP JUMPDEST SWAP2 POP POP SWAP3 SWAP2 POP POP JUMP JUMPDEST PUSH0 PUSH2 0x51CF PUSH2 0x51CA DUP5 PUSH2 0x50E6 JUMP JUMPDEST PUSH2 0x4226 JUMP JUMPDEST SWAP1 POP DUP1 DUP4 DUP3 MSTORE PUSH1 0x20 DUP3 ADD SWAP1 POP PUSH1 0x20 DUP5 MUL DUP4 ADD DUP6 DUP2 GT ISZERO PUSH2 0x51F2 JUMPI PUSH2 0x51F1 PUSH2 0x38FE JUMP JUMPDEST JUMPDEST DUP4 JUMPDEST DUP2 DUP2 LT ISZERO PUSH2 0x5239 JUMPI DUP1 CALLDATALOAD PUSH8 0xFFFFFFFFFFFFFFFF DUP2 GT ISZERO PUSH2 0x5217 JUMPI PUSH2 0x5216 PUSH2 0x38F6 JUMP JUMPDEST JUMPDEST DUP1 DUP7 ADD PUSH2 0x5224 DUP10 DUP3 PUSH2 0x5190 JUMP JUMPDEST DUP6 MSTORE PUSH1 0x20 DUP6 ADD SWAP5 POP POP POP PUSH1 0x20 DUP2 ADD SWAP1 POP PUSH2 0x51F4 JUMP JUMPDEST POP POP POP SWAP4 SWAP3 POP POP POP JUMP JUMPDEST PUSH0 DUP3 PUSH1 0x1F DUP4 ADD SLT PUSH2 0x5257 JUMPI PUSH2 0x5256 PUSH2 0x38F6 JUMP JUMPDEST JUMPDEST DUP2 CALLDATALOAD PUSH2 0x5267 DUP5 DUP3 PUSH1 0x20 DUP7 ADD PUSH2 0x51BD JUMP JUMPDEST SWAP2 POP POP SWAP3 SWAP2 POP POP JUMP JUMPDEST PUSH0 DUP1 PUSH0 PUSH1 0x60 DUP5 DUP7 SUB SLT ISZERO PUSH2 0x5287 JUMPI PUSH2 0x5286 PUSH2 0x3368 JUMP JUMPDEST JUMPDEST PUSH0 DUP5 ADD CALLDATALOAD PUSH8 0xFFFFFFFFFFFFFFFF DUP2 GT ISZERO PUSH2 0x52A4 JUMPI PUSH2 0x52A3 PUSH2 0x336C JUMP JUMPDEST JUMPDEST PUSH2 0x52B0 DUP7 DUP3 DUP8 ADD PUSH2 0x4FF9 JUMP JUMPDEST SWAP4 POP POP PUSH1 0x20 DUP5 ADD CALLDATALOAD PUSH8 0xFFFFFFFFFFFFFFFF DUP2 GT ISZERO PUSH2 0x52D1 JUMPI PUSH2 0x52D0 PUSH2 0x336C JUMP JUMPDEST JUMPDEST PUSH2 0x52DD DUP7 DUP3 DUP8 ADD PUSH2 0x50B9 JUMP JUMPDEST SWAP3 POP POP PUSH1 0x40 DUP5 ADD CALLDATALOAD PUSH8 0xFFFFFFFFFFFFFFFF DUP2 GT ISZERO PUSH2 0x52FE JUMPI PUSH2 0x52FD PUSH2 0x336C JUMP JUMPDEST JUMPDEST PUSH2 0x530A DUP7 DUP3 DUP8 ADD PUSH2 0x5243 JUMP JUMPDEST SWAP2 POP POP SWAP3 POP SWAP3 POP SWAP3 JUMP JUMPDEST PUSH32 0x6163636F756E743A206E6F742066726F6D20456E747279506F696E7400000000 PUSH0 DUP3 ADD MSTORE POP JUMP JUMPDEST PUSH0 PUSH2 0x5348 PUSH1 0x1C DUP4 PUSH2 0x32E7 JUMP JUMPDEST SWAP2 POP PUSH2 0x5353 DUP3 PUSH2 0x5314 JUMP JUMPDEST PUSH1 0x20 DUP3 ADD SWAP1 POP SWAP2 SWAP1 POP JUMP JUMPDEST PUSH0 PUSH1 0x20 DUP3 ADD SWAP1 POP DUP2 DUP2 SUB PUSH0 DUP4 ADD MSTORE PUSH2 0x5375 DUP2 PUSH2 0x533C JUMP JUMPDEST SWAP1 POP SWAP2 SWAP1 POP JUMP JUMPDEST PUSH0 DUP2 SWAP1 POP SWAP3 SWAP2 POP POP JUMP JUMPDEST POP JUMP JUMPDEST PUSH0 PUSH2 0x5394 PUSH0 DUP4 PUSH2 0x537C JUMP JUMPDEST SWAP2 POP PUSH2 0x539F DUP3 PUSH2 0x5386 JUMP JUMPDEST PUSH0 DUP3 ADD SWAP1 POP SWAP2 SWAP1 POP JUMP JUMPDEST PUSH0 PUSH2 0x53B3 DUP3 PUSH2 0x5389 JUMP JUMPDEST SWAP2 POP DUP2 SWAP1 POP SWAP2 SWAP1 POP JUMP JUMPDEST PUSH2 0x53C6 DUP2 PUSH2 0x34A5 JUMP JUMPDEST DUP3 MSTORE POP POP JUMP JUMPDEST PUSH0 PUSH1 0x40 DUP3 ADD SWAP1 POP PUSH2 0x53DF PUSH0 DUP4 ADD DUP6 PUSH2 0x3BFF JUMP JUMPDEST PUSH2 0x53EC PUSH1 0x20 DUP4 ADD DUP5 PUSH2 0x53BD JUMP JUMPDEST SWAP4 SWAP3 POP POP POP JUMP JUMPDEST PUSH0 DUP2 SWAP1 POP SWAP3 SWAP2 POP POP JUMP JUMPDEST PUSH2 0x5406 DUP2 PUSH2 0x338F JUMP JUMPDEST DUP3 MSTORE POP POP JUMP JUMPDEST PUSH0 PUSH2 0x5417 DUP4 DUP4 PUSH2 0x53FD JUMP JUMPDEST PUSH1 0x20 DUP4 ADD SWAP1 POP SWAP3 SWAP2 POP POP JUMP JUMPDEST PUSH0 PUSH2 0x542E DUP4 DUP6 PUSH2 0x53F3 JUMP JUMPDEST SWAP4 POP PUSH2 0x5439 DUP3 PUSH2 0x49E1 JUMP JUMPDEST DUP1 PUSH0 JUMPDEST DUP6 DUP2 LT ISZERO PUSH2 0x5471 JUMPI PUSH2 0x544E DUP3 DUP5 PUSH2 0x4938 JUMP JUMPDEST PUSH2 0x5458 DUP9 DUP3 PUSH2 0x540C JUMP JUMPDEST SWAP8 POP PUSH2 0x5463 DUP4 PUSH2 0x49EA JUMP JUMPDEST SWAP3 POP POP PUSH1 0x1 DUP2 ADD SWAP1 POP PUSH2 0x543C JUMP JUMPDEST POP DUP6 SWAP3 POP POP POP SWAP4 SWAP3 POP POP POP JUMP JUMPDEST PUSH0 PUSH2 0x548A DUP3 DUP5 DUP7 PUSH2 0x5423 JUMP JUMPDEST SWAP2 POP DUP2 SWAP1 POP SWAP4 SWAP3 POP POP POP JUMP JUMPDEST PUSH2 0x549F DUP2 PUSH2 0x47AD JUMP JUMPDEST DUP3 MSTORE POP POP JUMP JUMPDEST PUSH2 0x54AE DUP2 PUSH2 0x3AB0 JUMP JUMPDEST DUP3 MSTORE POP POP JUMP JUMPDEST PUSH0 PUSH2 0x140 DUP3 ADD SWAP1 POP PUSH2 0x54C8 PUSH0 DUP4 ADD DUP14 PUSH2 0x53BD JUMP JUMPDEST PUSH2 0x54D5 PUSH1 0x20 DUP4 ADD DUP13 PUSH2 0x3BFF JUMP JUMPDEST PUSH2 0x54E2 PUSH1 0x40 DUP4 ADD DUP12 PUSH2 0x5496 JUMP JUMPDEST PUSH2 0x54EF PUSH1 0x60 DUP4 ADD DUP11 PUSH2 0x53BD JUMP JUMPDEST PUSH2 0x54FC PUSH1 0x80 DUP4 ADD DUP10 PUSH2 0x3577 JUMP JUMPDEST PUSH2 0x5509 PUSH1 0xA0 DUP4 ADD DUP9 PUSH2 0x54A5 JUMP JUMPDEST PUSH2 0x5516 PUSH1 0xC0 DUP4 ADD DUP8 PUSH2 0x54A5 JUMP JUMPDEST PUSH2 0x5523 PUSH1 0xE0 DUP4 ADD DUP7 PUSH2 0x54A5 JUMP JUMPDEST PUSH2 0x5531 PUSH2 0x100 DUP4 ADD DUP6 PUSH2 0x54A5 JUMP JUMPDEST PUSH2 0x553F PUSH2 0x120 DUP4 ADD DUP5 PUSH2 0x53BD JUMP JUMPDEST SWAP12 SWAP11 POP POP POP POP POP POP POP POP POP POP POP JUMP JUMPDEST PUSH32 0x2161646D696E0000000000000000000000000000000000000000000000000000 PUSH0 DUP3 ADD MSTORE POP JUMP JUMPDEST PUSH0 PUSH2 0x5582 PUSH1 0x6 DUP4 PUSH2 0x32E7 JUMP JUMPDEST SWAP2 POP PUSH2 0x558D DUP3 PUSH2 0x554E JUMP JUMPDEST PUSH1 0x20 DUP3 ADD SWAP1 POP SWAP2 SWAP1 POP JUMP JUMPDEST PUSH0 PUSH1 0x20 DUP3 ADD SWAP1 POP DUP2 DUP2 SUB PUSH0 DUP4 ADD MSTORE PUSH2 0x55AF DUP2 PUSH2 0x5576 JUMP JUMPDEST SWAP1 POP SWAP2 SWAP1 POP JUMP JUMPDEST PUSH0 DUP3 DUP3 MSTORE PUSH1 0x20 DUP3 ADD SWAP1 POP SWAP3 SWAP2 POP POP JUMP JUMPDEST PUSH0 PUSH2 0x55D0 DUP3 PUSH2 0x3CFE JUMP JUMPDEST PUSH2 0x55DA DUP2 DUP6 PUSH2 0x55B6 JUMP JUMPDEST SWAP4 POP PUSH2 0x55EA DUP2 DUP6 PUSH1 0x20 DUP7 ADD PUSH2 0x35E2 JUMP JUMPDEST PUSH2 0x55F3 DUP2 PUSH2 0x360A JUMP JUMPDEST DUP5 ADD SWAP2 POP POP SWAP3 SWAP2 POP POP JUMP JUMPDEST PUSH0 PUSH1 0x40 DUP3 ADD SWAP1 POP PUSH2 0x5611 PUSH0 DUP4 ADD DUP6 PUSH2 0x3BFF JUMP JUMPDEST DUP2 DUP2 SUB PUSH1 0x20 DUP4 ADD MSTORE PUSH2 0x5623 DUP2 DUP5 PUSH2 0x55C6 JUMP JUMPDEST SWAP1 POP SWAP4 SWAP3 POP POP POP JUMP JUMPDEST PUSH0 PUSH2 0x5636 DUP3 PUSH2 0x34D8 JUMP JUMPDEST SWAP2 POP PUSH2 0x5641 DUP4 PUSH2 0x34D8 JUMP JUMPDEST SWAP3 POP DUP3 DUP3 SUB SWAP1 POP DUP2 DUP2 GT ISZERO PUSH2 0x5659 JUMPI PUSH2 0x5658 PUSH2 0x4876 JUMP JUMPDEST JUMPDEST SWAP3 SWAP2 POP POP JUMP JUMPDEST PUSH32 0x4E487B7100000000000000000000000000000000000000000000000000000000 PUSH0 MSTORE PUSH1 0x31 PUSH1 0x4 MSTORE PUSH1 0x24 PUSH0 REVERT JUMPDEST PUSH32 0x416464726573733A20696E76616C69642064656C65676174652063616C6C0000 PUSH0 DUP3 ADD MSTORE POP JUMP JUMPDEST PUSH0 PUSH2 0x56C0 PUSH1 0x1E DUP4 PUSH2 0x32E7 JUMP JUMPDEST SWAP2 POP PUSH2 0x56CB DUP3 PUSH2 0x568C JUMP JUMPDEST PUSH1 0x20 DUP3 ADD SWAP1 POP SWAP2 SWAP1 POP JUMP JUMPDEST PUSH0 PUSH1 0x20 DUP3 ADD SWAP1 POP DUP2 DUP2 SUB PUSH0 DUP4 ADD MSTORE PUSH2 0x56ED DUP2 PUSH2 0x56B4 JUMP JUMPDEST SWAP1 POP SWAP2 SWAP1 POP JUMP JUMPDEST PUSH0 PUSH2 0x56FE DUP3 PUSH2 0x3CFE JUMP JUMPDEST PUSH2 0x5708 DUP2 DUP6 PUSH2 0x537C JUMP JUMPDEST SWAP4 POP PUSH2 0x5718 DUP2 DUP6 PUSH1 0x20 DUP7 ADD PUSH2 0x35E2 JUMP JUMPDEST DUP1 DUP5 ADD SWAP2 POP POP SWAP3 SWAP2 POP POP JUMP JUMPDEST PUSH0 PUSH2 0x572F DUP3 DUP5 PUSH2 0x56F4 JUMP JUMPDEST SWAP2 POP DUP2 SWAP1 POP SWAP3 SWAP2 POP POP JUMP JUMPDEST PUSH32 0x4E487B7100000000000000000000000000000000000000000000000000000000 PUSH0 MSTORE PUSH1 0x21 PUSH1 0x4 MSTORE PUSH1 0x24 PUSH0 REVERT JUMPDEST PUSH32 0x45434453413A20696E76616C6964207369676E61747572650000000000000000 PUSH0 DUP3 ADD MSTORE POP JUMP JUMPDEST PUSH0 PUSH2 0x579B PUSH1 0x18 DUP4 PUSH2 0x32E7 JUMP JUMPDEST SWAP2 POP PUSH2 0x57A6 DUP3 PUSH2 0x5767 JUMP JUMPDEST PUSH1 0x20 DUP3 ADD SWAP1 POP SWAP2 SWAP1 POP JUMP JUMPDEST PUSH0 PUSH1 0x20 DUP3 ADD SWAP1 POP DUP2 DUP2 SUB PUSH0 DUP4 ADD MSTORE PUSH2 0x57C8 DUP2 PUSH2 0x578F JUMP JUMPDEST SWAP1 POP SWAP2 SWAP1 POP JUMP JUMPDEST PUSH32 0x45434453413A20696E76616C6964207369676E6174757265206C656E67746800 PUSH0 DUP3 ADD MSTORE POP JUMP JUMPDEST PUSH0 PUSH2 0x5803 PUSH1 0x1F DUP4 PUSH2 0x32E7 JUMP JUMPDEST SWAP2 POP PUSH2 0x580E DUP3 PUSH2 0x57CF JUMP JUMPDEST PUSH1 0x20 DUP3 ADD SWAP1 POP SWAP2 SWAP1 POP JUMP JUMPDEST PUSH0 PUSH1 0x20 DUP3 ADD SWAP1 POP DUP2 DUP2 SUB PUSH0 DUP4 ADD MSTORE PUSH2 0x5830 DUP2 PUSH2 0x57F7 JUMP JUMPDEST SWAP1 POP SWAP2 SWAP1 POP JUMP JUMPDEST PUSH32 0x45434453413A20696E76616C6964207369676E6174757265202773272076616C PUSH0 DUP3 ADD MSTORE PUSH32 0x7565000000000000000000000000000000000000000000000000000000000000 PUSH1 0x20 DUP3 ADD MSTORE POP JUMP JUMPDEST PUSH0 PUSH2 0x5891 PUSH1 0x22 DUP4 PUSH2 0x32E7 JUMP JUMPDEST SWAP2 POP PUSH2 0x589C DUP3 PUSH2 0x5837 JUMP JUMPDEST PUSH1 0x40 DUP3 ADD SWAP1 POP SWAP2 SWAP1 POP JUMP JUMPDEST PUSH0 PUSH1 0x20 DUP3 ADD SWAP1 POP DUP2 DUP2 SUB PUSH0 DUP4 ADD MSTORE PUSH2 0x58BE DUP2 PUSH2 0x5885 JUMP JUMPDEST SWAP1 POP SWAP2 SWAP1 POP JUMP JUMPDEST PUSH0 PUSH2 0x58CF DUP3 PUSH2 0x35C8 JUMP JUMPDEST PUSH2 0x58D9 DUP2 DUP6 PUSH2 0x32E7 JUMP JUMPDEST SWAP4 POP PUSH2 0x58E9 DUP2 DUP6 PUSH1 0x20 DUP7 ADD PUSH2 0x35E2 JUMP JUMPDEST PUSH2 0x58F2 DUP2 PUSH2 0x360A JUMP JUMPDEST DUP5 ADD SWAP2 POP POP SWAP3 SWAP2 POP POP JUMP JUMPDEST PUSH0 PUSH1 0x20 DUP3 ADD SWAP1 POP DUP2 DUP2 SUB PUSH0 DUP4 ADD MSTORE PUSH2 0x5915 DUP2 DUP5 PUSH2 0x58C5 JUMP JUMPDEST SWAP1 POP SWAP3 SWAP2 POP POP JUMP JUMPDEST PUSH0 PUSH1 0x80 DUP3 ADD SWAP1 POP PUSH2 0x5930 PUSH0 DUP4 ADD DUP8 PUSH2 0x53BD JUMP JUMPDEST PUSH2 0x593D PUSH1 0x20 DUP4 ADD DUP7 PUSH2 0x5496 JUMP JUMPDEST PUSH2 0x594A PUSH1 0x40 DUP4 ADD DUP6 PUSH2 0x53BD JUMP JUMPDEST PUSH2 0x5957 PUSH1 0x60 DUP4 ADD DUP5 PUSH2 0x53BD JUMP JUMPDEST SWAP6 SWAP5 POP POP POP POP POP JUMP JUMPDEST PUSH0 PUSH1 0xA0 DUP3 ADD SWAP1 POP PUSH2 0x5973 PUSH0 DUP4 ADD DUP9 PUSH2 0x53BD JUMP JUMPDEST PUSH2 0x5980 PUSH1 0x20 DUP4 ADD DUP8 PUSH2 0x53BD JUMP JUMPDEST PUSH2 0x598D PUSH1 0x40 DUP4 ADD DUP7 PUSH2 0x53BD JUMP JUMPDEST PUSH2 0x599A PUSH1 0x60 DUP4 ADD DUP6 PUSH2 0x3577 JUMP JUMPDEST PUSH2 0x59A7 PUSH1 0x80 DUP4 ADD DUP5 PUSH2 0x3BFF JUMP JUMPDEST SWAP7 SWAP6 POP POP POP POP POP POP JUMP INVALID COINBASE PUSH5 0x6472657373 GASPRICE KECCAK256 PUSH13 0x6F772D6C6576656C2064656C65 PUSH8 0x6174652063616C6C KECCAK256 PUSH7 0x61696C6564A264 PUSH10 0x70667358221220349A31 0xDC PUSH31 0x891E8EE618D290F01504B998B87F4A16C2166B200732BDC8CB558464736F6C PUSH4 0x43000818 STOP CALLER "
		},
		"gasEstimates": {
			"creation": {
				"codeDepositCost": "5950600",
				"executionCost": "infinite",
				"totalCost": "infinite"
			},
			"external": {
				"": "infinite",
				"DEFAULT_ADMIN_ROLE()": "442",
				"_disableFunctionInExtension(string,bytes4)": "infinite",
				"accountImplementation()": "infinite",
				"addExtension(((string,string,address),(bytes4,string)[]))": "infinite",
				"contractURI()": "infinite",
				"createAccount(address,bytes)": "infinite",
				"defaultExtensions()": "infinite",
				"disableFunctionInExtension(string,bytes4)": "infinite",
				"enableFunctionInExtension(string,(bytes4,string))": "infinite",
				"entrypoint()": "infinite",
				"getAccounts(uint256,uint256)": "infinite",
				"getAccountsOfSigner(address)": "infinite",
				"getAddress(address,bytes)": "infinite",
				"getAllAccounts()": "infinite",
				"getAllExtensions()": "infinite",
				"getExtension(string)": "infinite",
				"getImplementationForFunction(bytes4)": "infinite",
				"getMetadataForFunction(bytes4)": "infinite",
				"getRoleAdmin(bytes32)": "infinite",
				"getRoleMember(bytes32,uint256)": "infinite",
				"getRoleMemberCount(bytes32)": "infinite",
				"grantRole(bytes32,address)": "infinite",
				"hasRole(bytes32,address)": "3341",
				"hasRoleWithSwitch(bytes32,address)": "infinite",
				"isRegistered(address)": "infinite",
				"multicall(bytes[])": "infinite",
				"onRegister(bytes32)": "infinite",
				"onSignerAdded(address,bytes32)": "infinite",
				"onSignerRemoved(address,bytes32)": "infinite",
				"removeExtension(string)": "infinite",
				"renounceRole(bytes32,address)": "infinite",
				"replaceExtension(((string,string,address),(bytes4,string)[]))": "infinite",
				"revokeRole(bytes32,address)": "infinite",
				"setContractURI(string)": "infinite",
				"totalAccounts()": "2645"
			},
			"internal": {
				"_canSetContractURI()": "2469",
				"_initializeAccount(address,address,bytes calldata)": "infinite",
				"_isAuthorizedCallToUpgrade()": "2464"
			}
		},
		"methodIdentifiers": {
			"DEFAULT_ADMIN_ROLE()": "a217fddf",
			"_disableFunctionInExtension(string,bytes4)": "429eed80",
			"accountImplementation()": "11464fbe",
			"addExtension(((string,string,address),(bytes4,string)[]))": "e05688fe",
			"contractURI()": "e8a3d485",
			"createAccount(address,bytes)": "d8fd8f44",
			"defaultExtensions()": "463c4864",
			"disableFunctionInExtension(string,bytes4)": "512cf914",
			"enableFunctionInExtension(string,(bytes4,string))": "8856a113",
			"entrypoint()": "a65d69d4",
			"getAccounts(uint256,uint256)": "e68a7c3b",
			"getAccountsOfSigner(address)": "0e6254fd",
			"getAddress(address,bytes)": "8878ed33",
			"getAllAccounts()": "08e93d0a",
			"getAllExtensions()": "4a00cc48",
			"getExtension(string)": "c22707ee",
			"getImplementationForFunction(bytes4)": "ce0b6013",
			"getMetadataForFunction(bytes4)": "a0dbaefd",
			"getRoleAdmin(bytes32)": "248a9ca3",
			"getRoleMember(bytes32,uint256)": "9010d07c",
			"getRoleMemberCount(bytes32)": "ca15c873",
			"grantRole(bytes32,address)": "2f2ff15d",
			"hasRole(bytes32,address)": "91d14854",
			"hasRoleWithSwitch(bytes32,address)": "a32fa5b3",
			"isRegistered(address)": "c3c5a547",
			"multicall(bytes[])": "ac9650d8",
			"onRegister(bytes32)": "83a03f8c",
			"onSignerAdded(address,bytes32)": "0b61e12b",
			"onSignerRemoved(address,bytes32)": "9387a380",
			"removeExtension(string)": "ee7d2adf",
			"renounceRole(bytes32,address)": "36568abe",
			"replaceExtension(((string,string,address),(bytes4,string)[]))": "c0562f6d",
			"revokeRole(bytes32,address)": "d547741f",
			"setContractURI(string)": "938e3d7b",
			"totalAccounts()": "58451f97"
		}
	},
	"abi": [
		{
			"inputs": [
				{
					"internalType": "address",
					"name": "_defaultAdmin",
					"type": "address"
				},
				{
					"internalType": "contract IEntryPoint",
					"name": "_entrypoint",
					"type": "address"
				},
				{
					"components": [
						{
							"components": [
								{
									"internalType": "string",
									"name": "name",
									"type": "string"
								},
								{
									"internalType": "string",
									"name": "metadataURI",
									"type": "string"
								},
								{
									"internalType": "address",
									"name": "implementation",
									"type": "address"
								}
							],
							"internalType": "struct IExtension.ExtensionMetadata",
							"name": "metadata",
							"type": "tuple"
						},
						{
							"components": [
								{
									"internalType": "bytes4",
									"name": "functionSelector",
									"type": "bytes4"
								},
								{
									"internalType": "string",
									"name": "functionSignature",
									"type": "string"
								}
							],
							"internalType": "struct IExtension.ExtensionFunction[]",
							"name": "functions",
							"type": "tuple[]"
						}
					],
					"internalType": "struct IExtension.Extension[]",
					"name": "_defaultExtensions",
					"type": "tuple[]"
				}
			],
			"stateMutability": "nonpayable",
			"type": "constructor"
		},
		{
			"inputs": [
				{
					"internalType": "uint256",
					"name": "_size",
					"type": "uint256"
				},
				{
					"internalType": "uint256",
					"name": "_start",
					"type": "uint256"
				},
				{
					"internalType": "uint256",
					"name": "_end",
					"type": "uint256"
				}
			],
			"name": "InvalidCodeAtRange",
			"type": "error"
		},
		{
			"inputs": [],
			"name": "WriteError",
			"type": "error"
		},
		{
			"anonymous": false,
			"inputs": [
				{
					"indexed": true,
					"internalType": "address",
					"name": "account",
					"type": "address"
				},
				{
					"indexed": true,
					"internalType": "address",
					"name": "accountAdmin",
					"type": "address"
				}
			],
			"name": "AccountCreated",
			"type": "event"
		},
		{
			"anonymous": false,
			"inputs": [
				{
					"indexed": false,
					"internalType": "string",
					"name": "prevURI",
					"type": "string"
				},
				{
					"indexed": false,
					"internalType": "string",
					"name": "newURI",
					"type": "string"
				}
			],
			"name": "ContractURIUpdated",
			"type": "event"
		},
		{
			"anonymous": false,
			"inputs": [
				{
					"indexed": true,
					"internalType": "string",
					"name": "name",
					"type": "string"
				},
				{
					"indexed": true,
					"internalType": "address",
					"name": "implementation",
					"type": "address"
				},
				{
					"components": [
						{
							"components": [
								{
									"internalType": "string",
									"name": "name",
									"type": "string"
								},
								{
									"internalType": "string",
									"name": "metadataURI",
									"type": "string"
								},
								{
									"internalType": "address",
									"name": "implementation",
									"type": "address"
								}
							],
							"internalType": "struct IExtension.ExtensionMetadata",
							"name": "metadata",
							"type": "tuple"
						},
						{
							"components": [
								{
									"internalType": "bytes4",
									"name": "functionSelector",
									"type": "bytes4"
								},
								{
									"internalType": "string",
									"name": "functionSignature",
									"type": "string"
								}
							],
							"internalType": "struct IExtension.ExtensionFunction[]",
							"name": "functions",
							"type": "tuple[]"
						}
					],
					"indexed": false,
					"internalType": "struct IExtension.Extension",
					"name": "extension",
					"type": "tuple"
				}
			],
			"name": "ExtensionAdded",
			"type": "event"
		},
		{
			"anonymous": false,
			"inputs": [
				{
					"indexed": true,
					"internalType": "string",
					"name": "name",
					"type": "string"
				},
				{
					"components": [
						{
							"components": [
								{
									"internalType": "string",
									"name": "name",
									"type": "string"
								},
								{
									"internalType": "string",
									"name": "metadataURI",
									"type": "string"
								},
								{
									"internalType": "address",
									"name": "implementation",
									"type": "address"
								}
							],
							"internalType": "struct IExtension.ExtensionMetadata",
							"name": "metadata",
							"type": "tuple"
						},
						{
							"components": [
								{
									"internalType": "bytes4",
									"name": "functionSelector",
									"type": "bytes4"
								},
								{
									"internalType": "string",
									"name": "functionSignature",
									"type": "string"
								}
							],
							"internalType": "struct IExtension.ExtensionFunction[]",
							"name": "functions",
							"type": "tuple[]"
						}
					],
					"indexed": false,
					"internalType": "struct IExtension.Extension",
					"name": "extension",
					"type": "tuple"
				}
			],
			"name": "ExtensionRemoved",
			"type": "event"
		},
		{
			"anonymous": false,
			"inputs": [
				{
					"indexed": true,
					"internalType": "string",
					"name": "name",
					"type": "string"
				},
				{
					"indexed": true,
					"internalType": "address",
					"name": "implementation",
					"type": "address"
				},
				{
					"components": [
						{
							"components": [
								{
									"internalType": "string",
									"name": "name",
									"type": "string"
								},
								{
									"internalType": "string",
									"name": "metadataURI",
									"type": "string"
								},
								{
									"internalType": "address",
									"name": "implementation",
									"type": "address"
								}
							],
							"internalType": "struct IExtension.ExtensionMetadata",
							"name": "metadata",
							"type": "tuple"
						},
						{
							"components": [
								{
									"internalType": "bytes4",
									"name": "functionSelector",
									"type": "bytes4"
								},
								{
									"internalType": "string",
									"name": "functionSignature",
									"type": "string"
								}
							],
							"internalType": "struct IExtension.ExtensionFunction[]",
							"name": "functions",
							"type": "tuple[]"
						}
					],
					"indexed": false,
					"internalType": "struct IExtension.Extension",
					"name": "extension",
					"type": "tuple"
				}
			],
			"name": "ExtensionReplaced",
			"type": "event"
		},
		{
			"anonymous": false,
			"inputs": [
				{
					"indexed": true,
					"internalType": "string",
					"name": "name",
					"type": "string"
				},
				{
					"indexed": true,
					"internalType": "bytes4",
					"name": "functionSelector",
					"type": "bytes4"
				},
				{
					"components": [
						{
							"internalType": "string",
							"name": "name",
							"type": "string"
						},
						{
							"internalType": "string",
							"name": "metadataURI",
							"type": "string"
						},
						{
							"internalType": "address",
							"name": "implementation",
							"type": "address"
						}
					],
					"indexed": false,
					"internalType": "struct IExtension.ExtensionMetadata",
					"name": "extMetadata",
					"type": "tuple"
				}
			],
			"name": "FunctionDisabled",
			"type": "event"
		},
		{
			"anonymous": false,
			"inputs": [
				{
					"indexed": true,
					"internalType": "string",
					"name": "name",
					"type": "string"
				},
				{
					"indexed": true,
					"internalType": "bytes4",
					"name": "functionSelector",
					"type": "bytes4"
				},
				{
					"components": [
						{
							"internalType": "bytes4",
							"name": "functionSelector",
							"type": "bytes4"
						},
						{
							"internalType": "string",
							"name": "functionSignature",
							"type": "string"
						}
					],
					"indexed": false,
					"internalType": "struct IExtension.ExtensionFunction",
					"name": "extFunction",
					"type": "tuple"
				},
				{
					"components": [
						{
							"internalType": "string",
							"name": "name",
							"type": "string"
						},
						{
							"internalType": "string",
							"name": "metadataURI",
							"type": "string"
						},
						{
							"internalType": "address",
							"name": "implementation",
							"type": "address"
						}
					],
					"indexed": false,
					"internalType": "struct IExtension.ExtensionMetadata",
					"name": "extMetadata",
					"type": "tuple"
				}
			],
			"name": "FunctionEnabled",
			"type": "event"
		},
		{
			"anonymous": false,
			"inputs": [
				{
					"indexed": true,
					"internalType": "bytes32",
					"name": "role",
					"type": "bytes32"
				},
				{
					"indexed": true,
					"internalType": "bytes32",
					"name": "previousAdminRole",
					"type": "bytes32"
				},
				{
					"indexed": true,
					"internalType": "bytes32",
					"name": "newAdminRole",
					"type": "bytes32"
				}
			],
			"name": "RoleAdminChanged",
			"type": "event"
		},
		{
			"anonymous": false,
			"inputs": [
				{
					"indexed": true,
					"internalType": "bytes32",
					"name": "role",
					"type": "bytes32"
				},
				{
					"indexed": true,
					"internalType": "address",
					"name": "account",
					"type": "address"
				},
				{
					"indexed": true,
					"internalType": "address",
					"name": "sender",
					"type": "address"
				}
			],
			"name": "RoleGranted",
			"type": "event"
		},
		{
			"anonymous": false,
			"inputs": [
				{
					"indexed": true,
					"internalType": "bytes32",
					"name": "role",
					"type": "bytes32"
				},
				{
					"indexed": true,
					"internalType": "address",
					"name": "account",
					"type": "address"
				},
				{
					"indexed": true,
					"internalType": "address",
					"name": "sender",
					"type": "address"
				}
			],
			"name": "RoleRevoked",
			"type": "event"
		},
		{
			"anonymous": false,
			"inputs": [
				{
					"indexed": true,
					"internalType": "address",
					"name": "account",
					"type": "address"
				},
				{
					"indexed": true,
					"internalType": "address",
					"name": "signer",
					"type": "address"
				}
			],
			"name": "SignerAdded",
			"type": "event"
		},
		{
			"anonymous": false,
			"inputs": [
				{
					"indexed": true,
					"internalType": "address",
					"name": "account",
					"type": "address"
				},
				{
					"indexed": true,
					"internalType": "address",
					"name": "signer",
					"type": "address"
				}
			],
			"name": "SignerRemoved",
			"type": "event"
		},
		{
			"stateMutability": "payable",
			"type": "fallback"
		},
		{
			"inputs": [],
			"name": "DEFAULT_ADMIN_ROLE",
			"outputs": [
				{
					"internalType": "bytes32",
					"name": "",
					"type": "bytes32"
				}
			],
			"stateMutability": "view",
			"type": "function"
		},
		{
			"inputs": [
				{
					"internalType": "string",
					"name": "_extensionName",
					"type": "string"
				},
				{
					"internalType": "bytes4",
					"name": "_functionSelector",
					"type": "bytes4"
				}
			],
			"name": "_disableFunctionInExtension",
			"outputs": [],
			"stateMutability": "nonpayable",
			"type": "function"
		},
		{
			"inputs": [],
			"name": "accountImplementation",
			"outputs": [
				{
					"internalType": "address",
					"name": "",
					"type": "address"
				}
			],
			"stateMutability": "view",
			"type": "function"
		},
		{
			"inputs": [
				{
					"components": [
						{
							"components": [
								{
									"internalType": "string",
									"name": "name",
									"type": "string"
								},
								{
									"internalType": "string",
									"name": "metadataURI",
									"type": "string"
								},
								{
									"internalType": "address",
									"name": "implementation",
									"type": "address"
								}
							],
							"internalType": "struct IExtension.ExtensionMetadata",
							"name": "metadata",
							"type": "tuple"
						},
						{
							"components": [
								{
									"internalType": "bytes4",
									"name": "functionSelector",
									"type": "bytes4"
								},
								{
									"internalType": "string",
									"name": "functionSignature",
									"type": "string"
								}
							],
							"internalType": "struct IExtension.ExtensionFunction[]",
							"name": "functions",
							"type": "tuple[]"
						}
					],
					"internalType": "struct IExtension.Extension",
					"name": "_extension",
					"type": "tuple"
				}
			],
			"name": "addExtension",
			"outputs": [],
			"stateMutability": "nonpayable",
			"type": "function"
		},
		{
			"inputs": [],
			"name": "contractURI",
			"outputs": [
				{
					"internalType": "string",
					"name": "",
					"type": "string"
				}
			],
			"stateMutability": "view",
			"type": "function"
		},
		{
			"inputs": [
				{
					"internalType": "address",
					"name": "_admin",
					"type": "address"
				},
				{
					"internalType": "bytes",
					"name": "_data",
					"type": "bytes"
				}
			],
			"name": "createAccount",
			"outputs": [
				{
					"internalType": "address",
					"name": "",
					"type": "address"
				}
			],
			"stateMutability": "nonpayable",
			"type": "function"
		},
		{
			"inputs": [],
			"name": "defaultExtensions",
			"outputs": [
				{
					"internalType": "address",
					"name": "",
					"type": "address"
				}
			],
			"stateMutability": "view",
			"type": "function"
		},
		{
			"inputs": [
				{
					"internalType": "string",
					"name": "_extensionName",
					"type": "string"
				},
				{
					"internalType": "bytes4",
					"name": "_functionSelector",
					"type": "bytes4"
				}
			],
			"name": "disableFunctionInExtension",
			"outputs": [],
			"stateMutability": "nonpayable",
			"type": "function"
		},
		{
			"inputs": [
				{
					"internalType": "string",
					"name": "_extensionName",
					"type": "string"
				},
				{
					"components": [
						{
							"internalType": "bytes4",
							"name": "functionSelector",
							"type": "bytes4"
						},
						{
							"internalType": "string",
							"name": "functionSignature",
							"type": "string"
						}
					],
					"internalType": "struct IExtension.ExtensionFunction",
					"name": "_function",
					"type": "tuple"
				}
			],
			"name": "enableFunctionInExtension",
			"outputs": [],
			"stateMutability": "nonpayable",
			"type": "function"
		},
		{
			"inputs": [],
			"name": "entrypoint",
			"outputs": [
				{
					"internalType": "address",
					"name": "",
					"type": "address"
				}
			],
			"stateMutability": "view",
			"type": "function"
		},
		{
			"inputs": [
				{
					"internalType": "uint256",
					"name": "_start",
					"type": "uint256"
				},
				{
					"internalType": "uint256",
					"name": "_end",
					"type": "uint256"
				}
			],
			"name": "getAccounts",
			"outputs": [
				{
					"internalType": "address[]",
					"name": "accounts",
					"type": "address[]"
				}
			],
			"stateMutability": "view",
			"type": "function"
		},
		{
			"inputs": [
				{
					"internalType": "address",
					"name": "signer",
					"type": "address"
				}
			],
			"name": "getAccountsOfSigner",
			"outputs": [
				{
					"internalType": "address[]",
					"name": "accounts",
					"type": "address[]"
				}
			],
			"stateMutability": "view",
			"type": "function"
		},
		{
			"inputs": [
				{
					"internalType": "address",
					"name": "_adminSigner",
					"type": "address"
				},
				{
					"internalType": "bytes",
					"name": "_data",
					"type": "bytes"
				}
			],
			"name": "getAddress",
			"outputs": [
				{
					"internalType": "address",
					"name": "",
					"type": "address"
				}
			],
			"stateMutability": "view",
			"type": "function"
		},
		{
			"inputs": [],
			"name": "getAllAccounts",
			"outputs": [
				{
					"internalType": "address[]",
					"name": "",
					"type": "address[]"
				}
			],
			"stateMutability": "view",
			"type": "function"
		},
		{
			"inputs": [],
			"name": "getAllExtensions",
			"outputs": [
				{
					"components": [
						{
							"components": [
								{
									"internalType": "string",
									"name": "name",
									"type": "string"
								},
								{
									"internalType": "string",
									"name": "metadataURI",
									"type": "string"
								},
								{
									"internalType": "address",
									"name": "implementation",
									"type": "address"
								}
							],
							"internalType": "struct IExtension.ExtensionMetadata",
							"name": "metadata",
							"type": "tuple"
						},
						{
							"components": [
								{
									"internalType": "bytes4",
									"name": "functionSelector",
									"type": "bytes4"
								},
								{
									"internalType": "string",
									"name": "functionSignature",
									"type": "string"
								}
							],
							"internalType": "struct IExtension.ExtensionFunction[]",
							"name": "functions",
							"type": "tuple[]"
						}
					],
					"internalType": "struct IExtension.Extension[]",
					"name": "allExtensions",
					"type": "tuple[]"
				}
			],
			"stateMutability": "view",
			"type": "function"
		},
		{
			"inputs": [
				{
					"internalType": "string",
					"name": "extensionName",
					"type": "string"
				}
			],
			"name": "getExtension",
			"outputs": [
				{
					"components": [
						{
							"components": [
								{
									"internalType": "string",
									"name": "name",
									"type": "string"
								},
								{
									"internalType": "string",
									"name": "metadataURI",
									"type": "string"
								},
								{
									"internalType": "address",
									"name": "implementation",
									"type": "address"
								}
							],
							"internalType": "struct IExtension.ExtensionMetadata",
							"name": "metadata",
							"type": "tuple"
						},
						{
							"components": [
								{
									"internalType": "bytes4",
									"name": "functionSelector",
									"type": "bytes4"
								},
								{
									"internalType": "string",
									"name": "functionSignature",
									"type": "string"
								}
							],
							"internalType": "struct IExtension.ExtensionFunction[]",
							"name": "functions",
							"type": "tuple[]"
						}
					],
					"internalType": "struct IExtension.Extension",
					"name": "",
					"type": "tuple"
				}
			],
			"stateMutability": "view",
			"type": "function"
		},
		{
			"inputs": [
				{
					"internalType": "bytes4",
					"name": "_functionSelector",
					"type": "bytes4"
				}
			],
			"name": "getImplementationForFunction",
			"outputs": [
				{
					"internalType": "address",
					"name": "",
					"type": "address"
				}
			],
			"stateMutability": "view",
			"type": "function"
		},
		{
			"inputs": [
				{
					"internalType": "bytes4",
					"name": "functionSelector",
					"type": "bytes4"
				}
			],
			"name": "getMetadataForFunction",
			"outputs": [
				{
					"components": [
						{
							"internalType": "string",
							"name": "name",
							"type": "string"
						},
						{
							"internalType": "string",
							"name": "metadataURI",
							"type": "string"
						},
						{
							"internalType": "address",
							"name": "implementation",
							"type": "address"
						}
					],
					"internalType": "struct IExtension.ExtensionMetadata",
					"name": "",
					"type": "tuple"
				}
			],
			"stateMutability": "view",
			"type": "function"
		},
		{
			"inputs": [
				{
					"internalType": "bytes32",
					"name": "role",
					"type": "bytes32"
				}
			],
			"name": "getRoleAdmin",
			"outputs": [
				{
					"internalType": "bytes32",
					"name": "",
					"type": "bytes32"
				}
			],
			"stateMutability": "view",
			"type": "function"
		},
		{
			"inputs": [
				{
					"internalType": "bytes32",
					"name": "role",
					"type": "bytes32"
				},
				{
					"internalType": "uint256",
					"name": "index",
					"type": "uint256"
				}
			],
			"name": "getRoleMember",
			"outputs": [
				{
					"internalType": "address",
					"name": "member",
					"type": "address"
				}
			],
			"stateMutability": "view",
			"type": "function"
		},
		{
			"inputs": [
				{
					"internalType": "bytes32",
					"name": "role",
					"type": "bytes32"
				}
			],
			"name": "getRoleMemberCount",
			"outputs": [
				{
					"internalType": "uint256",
					"name": "count",
					"type": "uint256"
				}
			],
			"stateMutability": "view",
			"type": "function"
		},
		{
			"inputs": [
				{
					"internalType": "bytes32",
					"name": "role",
					"type": "bytes32"
				},
				{
					"internalType": "address",
					"name": "account",
					"type": "address"
				}
			],
			"name": "grantRole",
			"outputs": [],
			"stateMutability": "nonpayable",
			"type": "function"
		},
		{
			"inputs": [
				{
					"internalType": "bytes32",
					"name": "role",
					"type": "bytes32"
				},
				{
					"internalType": "address",
					"name": "account",
					"type": "address"
				}
			],
			"name": "hasRole",
			"outputs": [
				{
					"internalType": "bool",
					"name": "",
					"type": "bool"
				}
			],
			"stateMutability": "view",
			"type": "function"
		},
		{
			"inputs": [
				{
					"internalType": "bytes32",
					"name": "role",
					"type": "bytes32"
				},
				{
					"internalType": "address",
					"name": "account",
					"type": "address"
				}
			],
			"name": "hasRoleWithSwitch",
			"outputs": [
				{
					"internalType": "bool",
					"name": "",
					"type": "bool"
				}
			],
			"stateMutability": "view",
			"type": "function"
		},
		{
			"inputs": [
				{
					"internalType": "address",
					"name": "_account",
					"type": "address"
				}
			],
			"name": "isRegistered",
			"outputs": [
				{
					"internalType": "bool",
					"name": "",
					"type": "bool"
				}
			],
			"stateMutability": "view",
			"type": "function"
		},
		{
			"inputs": [
				{
					"internalType": "bytes[]",
					"name": "data",
					"type": "bytes[]"
				}
			],
			"name": "multicall",
			"outputs": [
				{
					"internalType": "bytes[]",
					"name": "results",
					"type": "bytes[]"
				}
			],
			"stateMutability": "nonpayable",
			"type": "function"
		},
		{
			"inputs": [
				{
					"internalType": "bytes32",
					"name": "_salt",
					"type": "bytes32"
				}
			],
			"name": "onRegister",
			"outputs": [],
			"stateMutability": "nonpayable",
			"type": "function"
		},
		{
			"inputs": [
				{
					"internalType": "address",
					"name": "_signer",
					"type": "address"
				},
				{
					"internalType": "bytes32",
					"name": "_salt",
					"type": "bytes32"
				}
			],
			"name": "onSignerAdded",
			"outputs": [],
			"stateMutability": "nonpayable",
			"type": "function"
		},
		{
			"inputs": [
				{
					"internalType": "address",
					"name": "_signer",
					"type": "address"
				},
				{
					"internalType": "bytes32",
					"name": "_salt",
					"type": "bytes32"
				}
			],
			"name": "onSignerRemoved",
			"outputs": [],
			"stateMutability": "nonpayable",
			"type": "function"
		},
		{
			"inputs": [
				{
					"internalType": "string",
					"name": "_extensionName",
					"type": "string"
				}
			],
			"name": "removeExtension",
			"outputs": [],
			"stateMutability": "nonpayable",
			"type": "function"
		},
		{
			"inputs": [
				{
					"internalType": "bytes32",
					"name": "role",
					"type": "bytes32"
				},
				{
					"internalType": "address",
					"name": "account",
					"type": "address"
				}
			],
			"name": "renounceRole",
			"outputs": [],
			"stateMutability": "nonpayable",
			"type": "function"
		},
		{
			"inputs": [
				{
					"components": [
						{
							"components": [
								{
									"internalType": "string",
									"name": "name",
									"type": "string"
								},
								{
									"internalType": "string",
									"name": "metadataURI",
									"type": "string"
								},
								{
									"internalType": "address",
									"name": "implementation",
									"type": "address"
								}
							],
							"internalType": "struct IExtension.ExtensionMetadata",
							"name": "metadata",
							"type": "tuple"
						},
						{
							"components": [
								{
									"internalType": "bytes4",
									"name": "functionSelector",
									"type": "bytes4"
								},
								{
									"internalType": "string",
									"name": "functionSignature",
									"type": "string"
								}
							],
							"internalType": "struct IExtension.ExtensionFunction[]",
							"name": "functions",
							"type": "tuple[]"
						}
					],
					"internalType": "struct IExtension.Extension",
					"name": "_extension",
					"type": "tuple"
				}
			],
			"name": "replaceExtension",
			"outputs": [],
			"stateMutability": "nonpayable",
			"type": "function"
		},
		{
			"inputs": [
				{
					"internalType": "bytes32",
					"name": "role",
					"type": "bytes32"
				},
				{
					"internalType": "address",
					"name": "account",
					"type": "address"
				}
			],
			"name": "revokeRole",
			"outputs": [],
			"stateMutability": "nonpayable",
			"type": "function"
		},
		{
			"inputs": [
				{
					"internalType": "string",
					"name": "_uri",
					"type": "string"
				}
			],
			"name": "setContractURI",
			"outputs": [],
			"stateMutability": "nonpayable",
			"type": "function"
		},
		{
			"inputs": [],
			"name": "totalAccounts",
			"outputs": [
				{
					"internalType": "uint256",
					"name": "",
					"type": "uint256"
				}
			],
			"stateMutability": "view",
			"type": "function"
		}
	]
}