{
	".deps/npm/@thirdweb-dev/dynamic-contracts/extension/upgradeable/Multicall.sol": {
		"Multicall": {
			"abi": [
				{
					"inputs": [
						{
							"internalType": "bytes[]",
							"name": "data",
							"type": "bytes[]"
						}
					],
					"name": "multicall",
					"outputs": [
						{
							"internalType": "bytes[]",
							"name": "results",
							"type": "bytes[]"
						}
					],
					"stateMutability": "nonpayable",
					"type": "function"
				}
			],
			"devdoc": {
				"details": "Provides a function to batch together multiple calls in a single external call. _Available since v4.1._",
				"kind": "dev",
				"methods": {
					"multicall(bytes[])": {
						"details": "Receives and executes a batch of function calls on this contract.",
						"params": {
							"data": "The bytes data that makes up the batch of function calls to execute."
						},
						"returns": {
							"results": "The bytes data that makes up the result of the batch of function calls executed."
						}
					}
				},
				"version": 1
			},
			"evm": {
				"assembly": "    /* \".deps/npm/@thirdweb-dev/dynamic-contracts/extension/upgradeable/Multicall.sol\":307:1058  contract Multicall is IMulticall {... */\n  mstore(0x40, 0x80)\n  callvalue\n  dup1\n  iszero\n  tag_1\n  jumpi\n  0x00\n  dup1\n  revert\ntag_1:\n  pop\n  dataSize(sub_0)\n  dup1\n  dataOffset(sub_0)\n  0x00\n  codecopy\n  0x00\n  return\nstop\n\nsub_0: assembly {\n        /* \".deps/npm/@thirdweb-dev/dynamic-contracts/extension/upgradeable/Multicall.sol\":307:1058  contract Multicall is IMulticall {... */\n      mstore(0x40, 0x80)\n      callvalue\n      dup1\n      iszero\n      tag_1\n      jumpi\n      0x00\n      dup1\n      revert\n    tag_1:\n      pop\n      jumpi(tag_2, lt(calldatasize, 0x04))\n      shr(0xe0, calldataload(0x00))\n      dup1\n      0xac9650d8\n      eq\n      tag_3\n      jumpi\n    tag_2:\n      0x00\n      dup1\n      revert\n        /* \".deps/npm/@thirdweb-dev/dynamic-contracts/extension/upgradeable/Multicall.sol\":732:1055  function multicall(bytes[] calldata data) external virtual override returns (bytes[] memory results) {... */\n    tag_3:\n      tag_4\n      0x04\n      dup1\n      calldatasize\n      sub\n      dup2\n      add\n      swap1\n      tag_5\n      swap2\n      swap1\n      tag_6\n      jump\t// in\n    tag_5:\n      tag_7\n      jump\t// in\n    tag_4:\n      mload(0x40)\n      tag_8\n      swap2\n      swap1\n      tag_9\n      jump\t// in\n    tag_8:\n      mload(0x40)\n      dup1\n      swap2\n      sub\n      swap1\n      return\n    tag_7:\n        /* \".deps/npm/@thirdweb-dev/dynamic-contracts/extension/upgradeable/Multicall.sol\":809:831  bytes[] memory results */\n      0x60\n        /* \".deps/npm/@thirdweb-dev/dynamic-contracts/extension/upgradeable/Multicall.sol\":866:870  data */\n      dup3\n      dup3\n        /* \".deps/npm/@thirdweb-dev/dynamic-contracts/extension/upgradeable/Multicall.sol\":866:877  data.length */\n      swap1\n      pop\n        /* \".deps/npm/@thirdweb-dev/dynamic-contracts/extension/upgradeable/Multicall.sol\":854:878  new bytes[](data.length) */\n      0xffffffffffffffff\n      dup2\n      gt\n      iszero\n      tag_11\n      jumpi\n      tag_12\n      tag_13\n      jump\t// in\n    tag_12:\n    tag_11:\n      mload(0x40)\n      swap1\n      dup1\n      dup3\n      mstore\n      dup1\n      0x20\n      mul\n      0x20\n      add\n      dup3\n      add\n      0x40\n      mstore\n      dup1\n      iszero\n      tag_14\n      jumpi\n      dup2\n      0x20\n      add\n    tag_15:\n      0x60\n      dup2\n      mstore\n      0x20\n      add\n      swap1\n      0x01\n      swap1\n      sub\n      swap1\n      dup2\n      tag_15\n      jumpi\n      swap1\n      pop\n    tag_14:\n      pop\n        /* \".deps/npm/@thirdweb-dev/dynamic-contracts/extension/upgradeable/Multicall.sol\":844:878  results = new bytes[](data.length) */\n      swap1\n      pop\n        /* \".deps/npm/@thirdweb-dev/dynamic-contracts/extension/upgradeable/Multicall.sol\":894:903  uint256 i */\n      0x00\n        /* \".deps/npm/@thirdweb-dev/dynamic-contracts/extension/upgradeable/Multicall.sol\":889:1023  for (uint256 i = 0; i < data.length; i++) {... */\n    tag_16:\n        /* \".deps/npm/@thirdweb-dev/dynamic-contracts/extension/upgradeable/Multicall.sol\":913:917  data */\n      dup4\n      dup4\n        /* \".deps/npm/@thirdweb-dev/dynamic-contracts/extension/upgradeable/Multicall.sol\":913:924  data.length */\n      swap1\n      pop\n        /* \".deps/npm/@thirdweb-dev/dynamic-contracts/extension/upgradeable/Multicall.sol\":909:910  i */\n      dup2\n        /* \".deps/npm/@thirdweb-dev/dynamic-contracts/extension/upgradeable/Multicall.sol\":909:924  i < data.length */\n      lt\n        /* \".deps/npm/@thirdweb-dev/dynamic-contracts/extension/upgradeable/Multicall.sol\":889:1023  for (uint256 i = 0; i < data.length; i++) {... */\n      iszero\n      tag_17\n      jumpi\n        /* \".deps/npm/@thirdweb-dev/dynamic-contracts/extension/upgradeable/Multicall.sol\":959:1011  Address.functionDelegateCall(address(this), data[i]) */\n      tag_19\n        /* \".deps/npm/@thirdweb-dev/dynamic-contracts/extension/upgradeable/Multicall.sol\":996:1000  this */\n      address\n        /* \".deps/npm/@thirdweb-dev/dynamic-contracts/extension/upgradeable/Multicall.sol\":1003:1007  data */\n      dup6\n      dup6\n        /* \".deps/npm/@thirdweb-dev/dynamic-contracts/extension/upgradeable/Multicall.sol\":1008:1009  i */\n      dup5\n        /* \".deps/npm/@thirdweb-dev/dynamic-contracts/extension/upgradeable/Multicall.sol\":1003:1010  data[i] */\n      dup2\n      dup2\n      lt\n      tag_20\n      jumpi\n      tag_21\n      tag_22\n      jump\t// in\n    tag_21:\n    tag_20:\n      swap1\n      pop\n      0x20\n      mul\n      dup2\n      add\n      swap1\n      tag_23\n      swap2\n      swap1\n      tag_24\n      jump\t// in\n    tag_23:\n        /* \".deps/npm/@thirdweb-dev/dynamic-contracts/extension/upgradeable/Multicall.sol\":959:1011  Address.functionDelegateCall(address(this), data[i]) */\n      dup1\n      dup1\n      0x1f\n      add\n      0x20\n      dup1\n      swap2\n      div\n      mul\n      0x20\n      add\n      mload(0x40)\n      swap1\n      dup2\n      add\n      0x40\n      mstore\n      dup1\n      swap4\n      swap3\n      swap2\n      swap1\n      dup2\n      dup2\n      mstore\n      0x20\n      add\n      dup4\n      dup4\n      dup1\n      dup3\n      dup5\n      calldatacopy\n      0x00\n      dup2\n      dup5\n      add\n      mstore\n      not(0x1f)\n      0x1f\n      dup3\n      add\n      and\n      swap1\n      pop\n      dup1\n      dup4\n      add\n      swap3\n      pop\n      pop\n      pop\n      pop\n      pop\n      pop\n      pop\n        /* \".deps/npm/@thirdweb-dev/dynamic-contracts/extension/upgradeable/Multicall.sol\":959:987  Address.functionDelegateCall */\n      tag_25\n        /* \".deps/npm/@thirdweb-dev/dynamic-contracts/extension/upgradeable/Multicall.sol\":959:1011  Address.functionDelegateCall(address(this), data[i]) */\n      jump\t// in\n    tag_19:\n        /* \".deps/npm/@thirdweb-dev/dynamic-contracts/extension/upgradeable/Multicall.sol\":946:953  results */\n      dup3\n        /* \".deps/npm/@thirdweb-dev/dynamic-contracts/extension/upgradeable/Multicall.sol\":954:955  i */\n      dup3\n        /* \".deps/npm/@thirdweb-dev/dynamic-contracts/extension/upgradeable/Multicall.sol\":946:956  results[i] */\n      dup2\n      mload\n      dup2\n      lt\n      tag_26\n      jumpi\n      tag_27\n      tag_22\n      jump\t// in\n    tag_27:\n    tag_26:\n      0x20\n      mul\n      0x20\n      add\n      add\n        /* \".deps/npm/@thirdweb-dev/dynamic-contracts/extension/upgradeable/Multicall.sol\":946:1011  results[i] = Address.functionDelegateCall(address(this), data[i]) */\n      dup2\n      swap1\n      mstore\n      pop\n        /* \".deps/npm/@thirdweb-dev/dynamic-contracts/extension/upgradeable/Multicall.sol\":926:929  i++ */\n      dup1\n      dup1\n      0x01\n      add\n      swap2\n      pop\n      pop\n        /* \".deps/npm/@thirdweb-dev/dynamic-contracts/extension/upgradeable/Multicall.sol\":889:1023  for (uint256 i = 0; i < data.length; i++) {... */\n      jump(tag_16)\n    tag_17:\n      pop\n        /* \".deps/npm/@thirdweb-dev/dynamic-contracts/extension/upgradeable/Multicall.sol\":732:1055  function multicall(bytes[] calldata data) external virtual override returns (bytes[] memory results) {... */\n      swap3\n      swap2\n      pop\n      pop\n      jump\t// out\n        /* \".deps/npm/@thirdweb-dev/dynamic-contracts/src/lib/Address.sol\":3633:3833  function functionDelegateCall(address target, bytes memory data) internal returns (bytes memory) {... */\n    tag_25:\n        /* \".deps/npm/@thirdweb-dev/dynamic-contracts/src/lib/Address.sol\":3716:3728  bytes memory */\n      0x60\n        /* \".deps/npm/@thirdweb-dev/dynamic-contracts/src/lib/Address.sol\":3748:3825  functionDelegateCall(target, data, \"Address: low-level delegate call failed\") */\n      tag_29\n        /* \".deps/npm/@thirdweb-dev/dynamic-contracts/src/lib/Address.sol\":3769:3775  target */\n      dup4\n        /* \".deps/npm/@thirdweb-dev/dynamic-contracts/src/lib/Address.sol\":3777:3781  data */\n      dup4\n        /* \".deps/npm/@thirdweb-dev/dynamic-contracts/src/lib/Address.sol\":3748:3825  functionDelegateCall(target, data, \"Address: low-level delegate call failed\") */\n      mload(0x40)\n      dup1\n      0x60\n      add\n      0x40\n      mstore\n      dup1\n      0x27\n      dup2\n      mstore\n      0x20\n      add\n      data_9fdcd12e4b726339b32a442b0a448365d5d85c96b2d2cff917b4f66c63110398\n      0x27\n      swap2\n      codecopy\n        /* \".deps/npm/@thirdweb-dev/dynamic-contracts/src/lib/Address.sol\":3748:3768  functionDelegateCall */\n      tag_30\n        /* \".deps/npm/@thirdweb-dev/dynamic-contracts/src/lib/Address.sol\":3748:3825  functionDelegateCall(target, data, \"Address: low-level delegate call failed\") */\n      jump\t// in\n    tag_29:\n        /* \".deps/npm/@thirdweb-dev/dynamic-contracts/src/lib/Address.sol\":3741:3825  return functionDelegateCall(target, data, \"Address: low-level delegate call failed\") */\n      swap1\n      pop\n        /* \".deps/npm/@thirdweb-dev/dynamic-contracts/src/lib/Address.sol\":3633:3833  function functionDelegateCall(address target, bytes memory data) internal returns (bytes memory) {... */\n      swap3\n      swap2\n      pop\n      pop\n      jump\t// out\n        /* \".deps/npm/@thirdweb-dev/dynamic-contracts/src/lib/Address.sol\":3990:4405  function functionDelegateCall(... */\n    tag_30:\n        /* \".deps/npm/@thirdweb-dev/dynamic-contracts/src/lib/Address.sol\":4135:4147  bytes memory */\n      0x60\n        /* \".deps/npm/@thirdweb-dev/dynamic-contracts/src/lib/Address.sol\":4168:4186  isContract(target) */\n      tag_32\n        /* \".deps/npm/@thirdweb-dev/dynamic-contracts/src/lib/Address.sol\":4179:4185  target */\n      dup5\n        /* \".deps/npm/@thirdweb-dev/dynamic-contracts/src/lib/Address.sol\":4168:4178  isContract */\n      tag_33\n        /* \".deps/npm/@thirdweb-dev/dynamic-contracts/src/lib/Address.sol\":4168:4186  isContract(target) */\n      jump\t// in\n    tag_32:\n        /* \".deps/npm/@thirdweb-dev/dynamic-contracts/src/lib/Address.sol\":4168:4213  isContract(target) && !isContract(msg.sender) */\n      dup1\n      iszero\n      tag_34\n      jumpi\n      pop\n        /* \".deps/npm/@thirdweb-dev/dynamic-contracts/src/lib/Address.sol\":4191:4213  isContract(msg.sender) */\n      tag_35\n        /* \".deps/npm/@thirdweb-dev/dynamic-contracts/src/lib/Address.sol\":4202:4212  msg.sender */\n      caller\n        /* \".deps/npm/@thirdweb-dev/dynamic-contracts/src/lib/Address.sol\":4191:4201  isContract */\n      tag_33\n        /* \".deps/npm/@thirdweb-dev/dynamic-contracts/src/lib/Address.sol\":4191:4213  isContract(msg.sender) */\n      jump\t// in\n    tag_35:\n        /* \".deps/npm/@thirdweb-dev/dynamic-contracts/src/lib/Address.sol\":4190:4213  !isContract(msg.sender) */\n      iszero\n        /* \".deps/npm/@thirdweb-dev/dynamic-contracts/src/lib/Address.sol\":4168:4213  isContract(target) && !isContract(msg.sender) */\n    tag_34:\n        /* \".deps/npm/@thirdweb-dev/dynamic-contracts/src/lib/Address.sol\":4160:4248  require(isContract(target) && !isContract(msg.sender), \"Address: invalid delegate call\") */\n      tag_36\n      jumpi\n      mload(0x40)\n      0x08c379a000000000000000000000000000000000000000000000000000000000\n      dup2\n      mstore\n      0x04\n      add\n      tag_37\n      swap1\n      tag_38\n      jump\t// in\n    tag_37:\n      mload(0x40)\n      dup1\n      swap2\n      sub\n      swap1\n      revert\n    tag_36:\n        /* \".deps/npm/@thirdweb-dev/dynamic-contracts/src/lib/Address.sol\":4262:4274  bool success */\n      0x00\n        /* \".deps/npm/@thirdweb-dev/dynamic-contracts/src/lib/Address.sol\":4276:4299  bytes memory returndata */\n      dup1\n        /* \".deps/npm/@thirdweb-dev/dynamic-contracts/src/lib/Address.sol\":4303:4309  target */\n      dup6\n        /* \".deps/npm/@thirdweb-dev/dynamic-contracts/src/lib/Address.sol\":4303:4322  target.delegatecall */\n      0xffffffffffffffffffffffffffffffffffffffff\n      and\n        /* \".deps/npm/@thirdweb-dev/dynamic-contracts/src/lib/Address.sol\":4323:4327  data */\n      dup6\n        /* \".deps/npm/@thirdweb-dev/dynamic-contracts/src/lib/Address.sol\":4303:4328  target.delegatecall(data) */\n      mload(0x40)\n      tag_39\n      swap2\n      swap1\n      tag_40\n      jump\t// in\n    tag_39:\n      0x00\n      mload(0x40)\n      dup1\n      dup4\n      sub\n      dup2\n      dup6\n      gas\n      delegatecall\n      swap2\n      pop\n      pop\n      returndatasize\n      dup1\n      0x00\n      dup2\n      eq\n      tag_43\n      jumpi\n      mload(0x40)\n      swap2\n      pop\n      and(add(returndatasize, 0x3f), not(0x1f))\n      dup3\n      add\n      0x40\n      mstore\n      returndatasize\n      dup3\n      mstore\n      returndatasize\n      0x00\n      0x20\n      dup5\n      add\n      returndatacopy\n      jump(tag_42)\n    tag_43:\n      0x60\n      swap2\n      pop\n    tag_42:\n      pop\n        /* \".deps/npm/@thirdweb-dev/dynamic-contracts/src/lib/Address.sol\":4261:4328  (bool success, bytes memory returndata) = target.delegatecall(data) */\n      swap2\n      pop\n      swap2\n      pop\n        /* \".deps/npm/@thirdweb-dev/dynamic-contracts/src/lib/Address.sol\":4346:4397  verifyCallResult(success, returndata, errorMessage) */\n      tag_44\n        /* \".deps/npm/@thirdweb-dev/dynamic-contracts/src/lib/Address.sol\":4363:4370  success */\n      dup3\n        /* \".deps/npm/@thirdweb-dev/dynamic-contracts/src/lib/Address.sol\":4372:4382  returndata */\n      dup3\n        /* \".deps/npm/@thirdweb-dev/dynamic-contracts/src/lib/Address.sol\":4384:4396  errorMessage */\n      dup7\n        /* \".deps/npm/@thirdweb-dev/dynamic-contracts/src/lib/Address.sol\":4346:4362  verifyCallResult */\n      tag_45\n        /* \".deps/npm/@thirdweb-dev/dynamic-contracts/src/lib/Address.sol\":4346:4397  verifyCallResult(success, returndata, errorMessage) */\n      jump\t// in\n    tag_44:\n        /* \".deps/npm/@thirdweb-dev/dynamic-contracts/src/lib/Address.sol\":4339:4397  return verifyCallResult(success, returndata, errorMessage) */\n      swap3\n      pop\n      pop\n      pop\n        /* \".deps/npm/@thirdweb-dev/dynamic-contracts/src/lib/Address.sol\":3990:4405  function functionDelegateCall(... */\n      swap4\n      swap3\n      pop\n      pop\n      pop\n      jump\t// out\n        /* \".deps/npm/@thirdweb-dev/dynamic-contracts/src/lib/Address.sol\":595:710  function isContract(address account) internal view returns (bool) {... */\n    tag_33:\n        /* \".deps/npm/@thirdweb-dev/dynamic-contracts/src/lib/Address.sol\":655:659  bool */\n      0x00\n        /* \".deps/npm/@thirdweb-dev/dynamic-contracts/src/lib/Address.sol\":701:702  0 */\n      dup1\n        /* \".deps/npm/@thirdweb-dev/dynamic-contracts/src/lib/Address.sol\":679:686  account */\n      dup3\n        /* \".deps/npm/@thirdweb-dev/dynamic-contracts/src/lib/Address.sol\":679:698  account.code.length */\n      0xffffffffffffffffffffffffffffffffffffffff\n      and\n      extcodesize\n        /* \".deps/npm/@thirdweb-dev/dynamic-contracts/src/lib/Address.sol\":679:702  account.code.length > 0 */\n      gt\n        /* \".deps/npm/@thirdweb-dev/dynamic-contracts/src/lib/Address.sol\":672:702  return account.code.length > 0 */\n      swap1\n      pop\n        /* \".deps/npm/@thirdweb-dev/dynamic-contracts/src/lib/Address.sol\":595:710  function isContract(address account) internal view returns (bool) {... */\n      swap2\n      swap1\n      pop\n      jump\t// out\n        /* \".deps/npm/@thirdweb-dev/dynamic-contracts/src/lib/Address.sol\":4474:5186  function verifyCallResult(... */\n    tag_45:\n        /* \".deps/npm/@thirdweb-dev/dynamic-contracts/src/lib/Address.sol\":4624:4636  bytes memory */\n      0x60\n        /* \".deps/npm/@thirdweb-dev/dynamic-contracts/src/lib/Address.sol\":4653:4660  success */\n      dup4\n        /* \".deps/npm/@thirdweb-dev/dynamic-contracts/src/lib/Address.sol\":4649:5179  if (success) {... */\n      iszero\n      tag_48\n      jumpi\n        /* \".deps/npm/@thirdweb-dev/dynamic-contracts/src/lib/Address.sol\":4684:4694  returndata */\n      dup3\n        /* \".deps/npm/@thirdweb-dev/dynamic-contracts/src/lib/Address.sol\":4677:4694  return returndata */\n      swap1\n      pop\n      jump(tag_47)\n        /* \".deps/npm/@thirdweb-dev/dynamic-contracts/src/lib/Address.sol\":4649:5179  if (success) {... */\n    tag_48:\n        /* \".deps/npm/@thirdweb-dev/dynamic-contracts/src/lib/Address.sol\":4818:4819  0 */\n      0x00\n        /* \".deps/npm/@thirdweb-dev/dynamic-contracts/src/lib/Address.sol\":4798:4808  returndata */\n      dup4\n        /* \".deps/npm/@thirdweb-dev/dynamic-contracts/src/lib/Address.sol\":4798:4815  returndata.length */\n      mload\n        /* \".deps/npm/@thirdweb-dev/dynamic-contracts/src/lib/Address.sol\":4798:4819  returndata.length > 0 */\n      gt\n        /* \".deps/npm/@thirdweb-dev/dynamic-contracts/src/lib/Address.sol\":4794:5168  if (returndata.length > 0) {... */\n      iszero\n      tag_50\n      jumpi\n        /* \".deps/npm/@thirdweb-dev/dynamic-contracts/src/lib/Address.sol\":4996:5006  returndata */\n      dup3\n        /* \".deps/npm/@thirdweb-dev/dynamic-contracts/src/lib/Address.sol\":4990:5007  mload(returndata) */\n      mload\n        /* \".deps/npm/@thirdweb-dev/dynamic-contracts/src/lib/Address.sol\":5057:5072  returndata_size */\n      dup1\n        /* \".deps/npm/@thirdweb-dev/dynamic-contracts/src/lib/Address.sol\":5044:5054  returndata */\n      dup5\n        /* \".deps/npm/@thirdweb-dev/dynamic-contracts/src/lib/Address.sol\":5040:5042  32 */\n      0x20\n        /* \".deps/npm/@thirdweb-dev/dynamic-contracts/src/lib/Address.sol\":5036:5055  add(32, returndata) */\n      add\n        /* \".deps/npm/@thirdweb-dev/dynamic-contracts/src/lib/Address.sol\":5029:5073  revert(add(32, returndata), returndata_size) */\n      revert\n        /* \".deps/npm/@thirdweb-dev/dynamic-contracts/src/lib/Address.sol\":4794:5168  if (returndata.length > 0) {... */\n    tag_50:\n        /* \".deps/npm/@thirdweb-dev/dynamic-contracts/src/lib/Address.sol\":5139:5151  errorMessage */\n      dup2\n        /* \".deps/npm/@thirdweb-dev/dynamic-contracts/src/lib/Address.sol\":5132:5152  revert(errorMessage) */\n      mload(0x40)\n      0x08c379a000000000000000000000000000000000000000000000000000000000\n      dup2\n      mstore\n      0x04\n      add\n      tag_52\n      swap2\n      swap1\n      tag_53\n      jump\t// in\n    tag_52:\n      mload(0x40)\n      dup1\n      swap2\n      sub\n      swap1\n      revert\n        /* \".deps/npm/@thirdweb-dev/dynamic-contracts/src/lib/Address.sol\":4474:5186  function verifyCallResult(... */\n    tag_47:\n      swap4\n      swap3\n      pop\n      pop\n      pop\n      jump\t// out\n        /* \"#utility.yul\":88:205   */\n    tag_55:\n        /* \"#utility.yul\":197:198   */\n      0x00\n        /* \"#utility.yul\":194:195   */\n      dup1\n        /* \"#utility.yul\":187:199   */\n      revert\n        /* \"#utility.yul\":211:328   */\n    tag_56:\n        /* \"#utility.yul\":320:321   */\n      0x00\n        /* \"#utility.yul\":317:318   */\n      dup1\n        /* \"#utility.yul\":310:322   */\n      revert\n        /* \"#utility.yul\":334:451   */\n    tag_57:\n        /* \"#utility.yul\":443:444   */\n      0x00\n        /* \"#utility.yul\":440:441   */\n      dup1\n        /* \"#utility.yul\":433:445   */\n      revert\n        /* \"#utility.yul\":457:574   */\n    tag_58:\n        /* \"#utility.yul\":566:567   */\n      0x00\n        /* \"#utility.yul\":563:564   */\n      dup1\n        /* \"#utility.yul\":556:568   */\n      revert\n        /* \"#utility.yul\":580:697   */\n    tag_59:\n        /* \"#utility.yul\":689:690   */\n      0x00\n        /* \"#utility.yul\":686:687   */\n      dup1\n        /* \"#utility.yul\":679:691   */\n      revert\n        /* \"#utility.yul\":718:1297   */\n    tag_60:\n        /* \"#utility.yul\":802:810   */\n      0x00\n        /* \"#utility.yul\":812:818   */\n      dup1\n        /* \"#utility.yul\":862:865   */\n      dup4\n        /* \"#utility.yul\":855:859   */\n      0x1f\n        /* \"#utility.yul\":847:853   */\n      dup5\n        /* \"#utility.yul\":843:860   */\n      add\n        /* \"#utility.yul\":839:866   */\n      slt\n        /* \"#utility.yul\":829:951   */\n      tag_90\n      jumpi\n        /* \"#utility.yul\":870:949   */\n      tag_91\n      tag_57\n      jump\t// in\n    tag_91:\n        /* \"#utility.yul\":829:951   */\n    tag_90:\n        /* \"#utility.yul\":983:989   */\n      dup3\n        /* \"#utility.yul\":970:990   */\n      calldataload\n        /* \"#utility.yul\":960:990   */\n      swap1\n      pop\n        /* \"#utility.yul\":1013:1031   */\n      0xffffffffffffffff\n        /* \"#utility.yul\":1005:1011   */\n      dup2\n        /* \"#utility.yul\":1002:1032   */\n      gt\n        /* \"#utility.yul\":999:1116   */\n      iszero\n      tag_92\n      jumpi\n        /* \"#utility.yul\":1035:1114   */\n      tag_93\n      tag_58\n      jump\t// in\n    tag_93:\n        /* \"#utility.yul\":999:1116   */\n    tag_92:\n        /* \"#utility.yul\":1149:1153   */\n      0x20\n        /* \"#utility.yul\":1141:1147   */\n      dup4\n        /* \"#utility.yul\":1137:1154   */\n      add\n        /* \"#utility.yul\":1125:1154   */\n      swap2\n      pop\n        /* \"#utility.yul\":1203:1206   */\n      dup4\n        /* \"#utility.yul\":1195:1199   */\n      0x20\n        /* \"#utility.yul\":1187:1193   */\n      dup3\n        /* \"#utility.yul\":1183:1200   */\n      mul\n        /* \"#utility.yul\":1173:1181   */\n      dup4\n        /* \"#utility.yul\":1169:1201   */\n      add\n        /* \"#utility.yul\":1166:1207   */\n      gt\n        /* \"#utility.yul\":1163:1291   */\n      iszero\n      tag_94\n      jumpi\n        /* \"#utility.yul\":1210:1289   */\n      tag_95\n      tag_59\n      jump\t// in\n    tag_95:\n        /* \"#utility.yul\":1163:1291   */\n    tag_94:\n        /* \"#utility.yul\":718:1297   */\n      swap3\n      pop\n      swap3\n      swap1\n      pop\n      jump\t// out\n        /* \"#utility.yul\":1303:1884   */\n    tag_6:\n        /* \"#utility.yul\":1400:1406   */\n      0x00\n        /* \"#utility.yul\":1408:1414   */\n      dup1\n        /* \"#utility.yul\":1457:1459   */\n      0x20\n        /* \"#utility.yul\":1445:1454   */\n      dup4\n        /* \"#utility.yul\":1436:1443   */\n      dup6\n        /* \"#utility.yul\":1432:1455   */\n      sub\n        /* \"#utility.yul\":1428:1460   */\n      slt\n        /* \"#utility.yul\":1425:1544   */\n      iszero\n      tag_97\n      jumpi\n        /* \"#utility.yul\":1463:1542   */\n      tag_98\n      tag_55\n      jump\t// in\n    tag_98:\n        /* \"#utility.yul\":1425:1544   */\n    tag_97:\n        /* \"#utility.yul\":1611:1612   */\n      0x00\n        /* \"#utility.yul\":1600:1609   */\n      dup4\n        /* \"#utility.yul\":1596:1613   */\n      add\n        /* \"#utility.yul\":1583:1614   */\n      calldataload\n        /* \"#utility.yul\":1641:1659   */\n      0xffffffffffffffff\n        /* \"#utility.yul\":1633:1639   */\n      dup2\n        /* \"#utility.yul\":1630:1660   */\n      gt\n        /* \"#utility.yul\":1627:1744   */\n      iszero\n      tag_99\n      jumpi\n        /* \"#utility.yul\":1663:1742   */\n      tag_100\n      tag_56\n      jump\t// in\n    tag_100:\n        /* \"#utility.yul\":1627:1744   */\n    tag_99:\n        /* \"#utility.yul\":1776:1867   */\n      tag_101\n        /* \"#utility.yul\":1859:1866   */\n      dup6\n        /* \"#utility.yul\":1850:1856   */\n      dup3\n        /* \"#utility.yul\":1839:1848   */\n      dup7\n        /* \"#utility.yul\":1835:1857   */\n      add\n        /* \"#utility.yul\":1776:1867   */\n      tag_60\n      jump\t// in\n    tag_101:\n        /* \"#utility.yul\":1758:1867   */\n      swap3\n      pop\n      swap3\n      pop\n        /* \"#utility.yul\":1554:1877   */\n      pop\n        /* \"#utility.yul\":1303:1884   */\n      swap3\n      pop\n      swap3\n      swap1\n      pop\n      jump\t// out\n        /* \"#utility.yul\":1890:2013   */\n    tag_61:\n        /* \"#utility.yul\":1966:1972   */\n      0x00\n        /* \"#utility.yul\":2000:2005   */\n      dup2\n        /* \"#utility.yul\":1994:2006   */\n      mload\n        /* \"#utility.yul\":1984:2006   */\n      swap1\n      pop\n        /* \"#utility.yul\":1890:2013   */\n      swap2\n      swap1\n      pop\n      jump\t// out\n        /* \"#utility.yul\":2019:2212   */\n    tag_62:\n        /* \"#utility.yul\":2127:2138   */\n      0x00\n        /* \"#utility.yul\":2161:2167   */\n      dup3\n        /* \"#utility.yul\":2156:2159   */\n      dup3\n        /* \"#utility.yul\":2149:2168   */\n      mstore\n        /* \"#utility.yul\":2201:2205   */\n      0x20\n        /* \"#utility.yul\":2196:2199   */\n      dup3\n        /* \"#utility.yul\":2192:2206   */\n      add\n        /* \"#utility.yul\":2177:2206   */\n      swap1\n      pop\n        /* \"#utility.yul\":2019:2212   */\n      swap3\n      swap2\n      pop\n      pop\n      jump\t// out\n        /* \"#utility.yul\":2218:2359   */\n    tag_63:\n        /* \"#utility.yul\":2294:2298   */\n      0x00\n        /* \"#utility.yul\":2317:2320   */\n      dup2\n        /* \"#utility.yul\":2309:2320   */\n      swap1\n      pop\n        /* \"#utility.yul\":2347:2351   */\n      0x20\n        /* \"#utility.yul\":2342:2345   */\n      dup3\n        /* \"#utility.yul\":2338:2352   */\n      add\n        /* \"#utility.yul\":2330:2352   */\n      swap1\n      pop\n        /* \"#utility.yul\":2218:2359   */\n      swap2\n      swap1\n      pop\n      jump\t// out\n        /* \"#utility.yul\":2365:2463   */\n    tag_64:\n        /* \"#utility.yul\":2416:2422   */\n      0x00\n        /* \"#utility.yul\":2450:2455   */\n      dup2\n        /* \"#utility.yul\":2444:2456   */\n      mload\n        /* \"#utility.yul\":2434:2456   */\n      swap1\n      pop\n        /* \"#utility.yul\":2365:2463   */\n      swap2\n      swap1\n      pop\n      jump\t// out\n        /* \"#utility.yul\":2469:2627   */\n    tag_65:\n        /* \"#utility.yul\":2542:2553   */\n      0x00\n        /* \"#utility.yul\":2576:2582   */\n      dup3\n        /* \"#utility.yul\":2571:2574   */\n      dup3\n        /* \"#utility.yul\":2564:2583   */\n      mstore\n        /* \"#utility.yul\":2616:2620   */\n      0x20\n        /* \"#utility.yul\":2611:2614   */\n      dup3\n        /* \"#utility.yul\":2607:2621   */\n      add\n        /* \"#utility.yul\":2592:2621   */\n      swap1\n      pop\n        /* \"#utility.yul\":2469:2627   */\n      swap3\n      swap2\n      pop\n      pop\n      jump\t// out\n        /* \"#utility.yul\":2633:2879   */\n    tag_66:\n        /* \"#utility.yul\":2714:2715   */\n      0x00\n        /* \"#utility.yul\":2724:2837   */\n    tag_108:\n        /* \"#utility.yul\":2738:2744   */\n      dup4\n        /* \"#utility.yul\":2735:2736   */\n      dup2\n        /* \"#utility.yul\":2732:2745   */\n      lt\n        /* \"#utility.yul\":2724:2837   */\n      iszero\n      tag_110\n      jumpi\n        /* \"#utility.yul\":2823:2824   */\n      dup1\n        /* \"#utility.yul\":2818:2821   */\n      dup3\n        /* \"#utility.yul\":2814:2825   */\n      add\n        /* \"#utility.yul\":2808:2826   */\n      mload\n        /* \"#utility.yul\":2804:2805   */\n      dup2\n        /* \"#utility.yul\":2799:2802   */\n      dup5\n        /* \"#utility.yul\":2795:2806   */\n      add\n        /* \"#utility.yul\":2788:2827   */\n      mstore\n        /* \"#utility.yul\":2760:2762   */\n      0x20\n        /* \"#utility.yul\":2757:2758   */\n      dup2\n        /* \"#utility.yul\":2753:2763   */\n      add\n        /* \"#utility.yul\":2748:2763   */\n      swap1\n      pop\n        /* \"#utility.yul\":2724:2837   */\n      jump(tag_108)\n    tag_110:\n        /* \"#utility.yul\":2871:2872   */\n      0x00\n        /* \"#utility.yul\":2862:2868   */\n      dup5\n        /* \"#utility.yul\":2857:2860   */\n      dup5\n        /* \"#utility.yul\":2853:2869   */\n      add\n        /* \"#utility.yul\":2846:2873   */\n      mstore\n        /* \"#utility.yul\":2695:2879   */\n      pop\n        /* \"#utility.yul\":2633:2879   */\n      pop\n      pop\n      pop\n      jump\t// out\n        /* \"#utility.yul\":2885:2987   */\n    tag_67:\n        /* \"#utility.yul\":2926:2932   */\n      0x00\n        /* \"#utility.yul\":2977:2979   */\n      0x1f\n        /* \"#utility.yul\":2973:2980   */\n      not\n        /* \"#utility.yul\":2968:2970   */\n      0x1f\n        /* \"#utility.yul\":2961:2966   */\n      dup4\n        /* \"#utility.yul\":2957:2971   */\n      add\n        /* \"#utility.yul\":2953:2981   */\n      and\n        /* \"#utility.yul\":2943:2981   */\n      swap1\n      pop\n        /* \"#utility.yul\":2885:2987   */\n      swap2\n      swap1\n      pop\n      jump\t// out\n        /* \"#utility.yul\":2993:3346   */\n    tag_68:\n        /* \"#utility.yul\":3069:3072   */\n      0x00\n        /* \"#utility.yul\":3097:3135   */\n      tag_113\n        /* \"#utility.yul\":3129:3134   */\n      dup3\n        /* \"#utility.yul\":3097:3135   */\n      tag_64\n      jump\t// in\n    tag_113:\n        /* \"#utility.yul\":3151:3211   */\n      tag_114\n        /* \"#utility.yul\":3204:3210   */\n      dup2\n        /* \"#utility.yul\":3199:3202   */\n      dup6\n        /* \"#utility.yul\":3151:3211   */\n      tag_65\n      jump\t// in\n    tag_114:\n        /* \"#utility.yul\":3144:3211   */\n      swap4\n      pop\n        /* \"#utility.yul\":3220:3285   */\n      tag_115\n        /* \"#utility.yul\":3278:3284   */\n      dup2\n        /* \"#utility.yul\":3273:3276   */\n      dup6\n        /* \"#utility.yul\":3266:3270   */\n      0x20\n        /* \"#utility.yul\":3259:3264   */\n      dup7\n        /* \"#utility.yul\":3255:3271   */\n      add\n        /* \"#utility.yul\":3220:3285   */\n      tag_66\n      jump\t// in\n    tag_115:\n        /* \"#utility.yul\":3310:3339   */\n      tag_116\n        /* \"#utility.yul\":3332:3338   */\n      dup2\n        /* \"#utility.yul\":3310:3339   */\n      tag_67\n      jump\t// in\n    tag_116:\n        /* \"#utility.yul\":3305:3308   */\n      dup5\n        /* \"#utility.yul\":3301:3340   */\n      add\n        /* \"#utility.yul\":3294:3340   */\n      swap2\n      pop\n        /* \"#utility.yul\":3073:3346   */\n      pop\n        /* \"#utility.yul\":2993:3346   */\n      swap3\n      swap2\n      pop\n      pop\n      jump\t// out\n        /* \"#utility.yul\":3352:3544   */\n    tag_69:\n        /* \"#utility.yul\":3439:3449   */\n      0x00\n        /* \"#utility.yul\":3474:3538   */\n      tag_118\n        /* \"#utility.yul\":3534:3537   */\n      dup4\n        /* \"#utility.yul\":3526:3532   */\n      dup4\n        /* \"#utility.yul\":3474:3538   */\n      tag_68\n      jump\t// in\n    tag_118:\n        /* \"#utility.yul\":3460:3538   */\n      swap1\n      pop\n        /* \"#utility.yul\":3352:3544   */\n      swap3\n      swap2\n      pop\n      pop\n      jump\t// out\n        /* \"#utility.yul\":3550:3672   */\n    tag_70:\n        /* \"#utility.yul\":3629:3633   */\n      0x00\n        /* \"#utility.yul\":3661:3665   */\n      0x20\n        /* \"#utility.yul\":3656:3659   */\n      dup3\n        /* \"#utility.yul\":3652:3666   */\n      add\n        /* \"#utility.yul\":3644:3666   */\n      swap1\n      pop\n        /* \"#utility.yul\":3550:3672   */\n      swap2\n      swap1\n      pop\n      jump\t// out\n        /* \"#utility.yul\":3704:4687   */\n    tag_71:\n        /* \"#utility.yul\":3841:3844   */\n      0x00\n        /* \"#utility.yul\":3870:3933   */\n      tag_121\n        /* \"#utility.yul\":3927:3932   */\n      dup3\n        /* \"#utility.yul\":3870:3933   */\n      tag_61\n      jump\t// in\n    tag_121:\n        /* \"#utility.yul\":3949:4044   */\n      tag_122\n        /* \"#utility.yul\":4037:4043   */\n      dup2\n        /* \"#utility.yul\":4032:4035   */\n      dup6\n        /* \"#utility.yul\":3949:4044   */\n      tag_62\n      jump\t// in\n    tag_122:\n        /* \"#utility.yul\":3942:4044   */\n      swap4\n      pop\n        /* \"#utility.yul\":4070:4073   */\n      dup4\n        /* \"#utility.yul\":4115:4119   */\n      0x20\n        /* \"#utility.yul\":4107:4113   */\n      dup3\n        /* \"#utility.yul\":4103:4120   */\n      mul\n        /* \"#utility.yul\":4098:4101   */\n      dup6\n        /* \"#utility.yul\":4094:4121   */\n      add\n        /* \"#utility.yul\":4145:4210   */\n      tag_123\n        /* \"#utility.yul\":4204:4209   */\n      dup6\n        /* \"#utility.yul\":4145:4210   */\n      tag_63\n      jump\t// in\n    tag_123:\n        /* \"#utility.yul\":4233:4240   */\n      dup1\n        /* \"#utility.yul\":4264:4265   */\n      0x00\n        /* \"#utility.yul\":4249:4642   */\n    tag_124:\n        /* \"#utility.yul\":4274:4280   */\n      dup6\n        /* \"#utility.yul\":4271:4272   */\n      dup2\n        /* \"#utility.yul\":4268:4281   */\n      lt\n        /* \"#utility.yul\":4249:4642   */\n      iszero\n      tag_126\n      jumpi\n        /* \"#utility.yul\":4345:4354   */\n      dup5\n        /* \"#utility.yul\":4339:4343   */\n      dup5\n        /* \"#utility.yul\":4335:4355   */\n      sub\n        /* \"#utility.yul\":4330:4333   */\n      dup10\n        /* \"#utility.yul\":4323:4356   */\n      mstore\n        /* \"#utility.yul\":4396:4402   */\n      dup2\n        /* \"#utility.yul\":4390:4403   */\n      mload\n        /* \"#utility.yul\":4424:4506   */\n      tag_127\n        /* \"#utility.yul\":4501:4505   */\n      dup6\n        /* \"#utility.yul\":4486:4499   */\n      dup3\n        /* \"#utility.yul\":4424:4506   */\n      tag_69\n      jump\t// in\n    tag_127:\n        /* \"#utility.yul\":4416:4506   */\n      swap5\n      pop\n        /* \"#utility.yul\":4529:4598   */\n      tag_128\n        /* \"#utility.yul\":4591:4597   */\n      dup4\n        /* \"#utility.yul\":4529:4598   */\n      tag_70\n      jump\t// in\n    tag_128:\n        /* \"#utility.yul\":4519:4598   */\n      swap3\n      pop\n        /* \"#utility.yul\":4627:4631   */\n      0x20\n        /* \"#utility.yul\":4622:4625   */\n      dup11\n        /* \"#utility.yul\":4618:4632   */\n      add\n        /* \"#utility.yul\":4611:4632   */\n      swap10\n      pop\n        /* \"#utility.yul\":4309:4642   */\n      pop\n        /* \"#utility.yul\":4296:4297   */\n      0x01\n        /* \"#utility.yul\":4293:4294   */\n      dup2\n        /* \"#utility.yul\":4289:4298   */\n      add\n        /* \"#utility.yul\":4284:4298   */\n      swap1\n      pop\n        /* \"#utility.yul\":4249:4642   */\n      jump(tag_124)\n    tag_126:\n        /* \"#utility.yul\":4253:4267   */\n      pop\n        /* \"#utility.yul\":4658:4662   */\n      dup3\n        /* \"#utility.yul\":4651:4662   */\n      swap8\n      pop\n        /* \"#utility.yul\":4678:4681   */\n      dup8\n        /* \"#utility.yul\":4671:4681   */\n      swap6\n      pop\n        /* \"#utility.yul\":3846:4687   */\n      pop\n      pop\n      pop\n      pop\n      pop\n        /* \"#utility.yul\":3704:4687   */\n      swap3\n      swap2\n      pop\n      pop\n      jump\t// out\n        /* \"#utility.yul\":4693:5102   */\n    tag_9:\n        /* \"#utility.yul\":4854:4858   */\n      0x00\n        /* \"#utility.yul\":4892:4894   */\n      0x20\n        /* \"#utility.yul\":4881:4890   */\n      dup3\n        /* \"#utility.yul\":4877:4895   */\n      add\n        /* \"#utility.yul\":4869:4895   */\n      swap1\n      pop\n        /* \"#utility.yul\":4941:4950   */\n      dup2\n        /* \"#utility.yul\":4935:4939   */\n      dup2\n        /* \"#utility.yul\":4931:4951   */\n      sub\n        /* \"#utility.yul\":4927:4928   */\n      0x00\n        /* \"#utility.yul\":4916:4925   */\n      dup4\n        /* \"#utility.yul\":4912:4929   */\n      add\n        /* \"#utility.yul\":4905:4952   */\n      mstore\n        /* \"#utility.yul\":4969:5095   */\n      tag_130\n        /* \"#utility.yul\":5090:5094   */\n      dup2\n        /* \"#utility.yul\":5081:5087   */\n      dup5\n        /* \"#utility.yul\":4969:5095   */\n      tag_71\n      jump\t// in\n    tag_130:\n        /* \"#utility.yul\":4961:5095   */\n      swap1\n      pop\n        /* \"#utility.yul\":4693:5102   */\n      swap3\n      swap2\n      pop\n      pop\n      jump\t// out\n        /* \"#utility.yul\":5108:5288   */\n    tag_13:\n        /* \"#utility.yul\":5156:5233   */\n      0x4e487b7100000000000000000000000000000000000000000000000000000000\n        /* \"#utility.yul\":5153:5154   */\n      0x00\n        /* \"#utility.yul\":5146:5234   */\n      mstore\n        /* \"#utility.yul\":5253:5257   */\n      0x41\n        /* \"#utility.yul\":5250:5251   */\n      0x04\n        /* \"#utility.yul\":5243:5258   */\n      mstore\n        /* \"#utility.yul\":5277:5281   */\n      0x24\n        /* \"#utility.yul\":5274:5275   */\n      0x00\n        /* \"#utility.yul\":5267:5282   */\n      revert\n        /* \"#utility.yul\":5294:5474   */\n    tag_22:\n        /* \"#utility.yul\":5342:5419   */\n      0x4e487b7100000000000000000000000000000000000000000000000000000000\n        /* \"#utility.yul\":5339:5340   */\n      0x00\n        /* \"#utility.yul\":5332:5420   */\n      mstore\n        /* \"#utility.yul\":5439:5443   */\n      0x32\n        /* \"#utility.yul\":5436:5437   */\n      0x04\n        /* \"#utility.yul\":5429:5444   */\n      mstore\n        /* \"#utility.yul\":5463:5467   */\n      0x24\n        /* \"#utility.yul\":5460:5461   */\n      0x00\n        /* \"#utility.yul\":5453:5468   */\n      revert\n        /* \"#utility.yul\":5480:5597   */\n    tag_72:\n        /* \"#utility.yul\":5589:5590   */\n      0x00\n        /* \"#utility.yul\":5586:5587   */\n      dup1\n        /* \"#utility.yul\":5579:5591   */\n      revert\n        /* \"#utility.yul\":5603:5720   */\n    tag_73:\n        /* \"#utility.yul\":5712:5713   */\n      0x00\n        /* \"#utility.yul\":5709:5710   */\n      dup1\n        /* \"#utility.yul\":5702:5714   */\n      revert\n        /* \"#utility.yul\":5726:5843   */\n    tag_74:\n        /* \"#utility.yul\":5835:5836   */\n      0x00\n        /* \"#utility.yul\":5832:5833   */\n      dup1\n        /* \"#utility.yul\":5825:5837   */\n      revert\n        /* \"#utility.yul\":5849:6573   */\n    tag_24:\n        /* \"#utility.yul\":5926:5930   */\n      0x00\n        /* \"#utility.yul\":5932:5938   */\n      dup1\n        /* \"#utility.yul\":5988:5999   */\n      dup4\n        /* \"#utility.yul\":5975:6000   */\n      calldataload\n        /* \"#utility.yul\":6088:6089   */\n      0x01\n        /* \"#utility.yul\":6082:6086   */\n      0x20\n        /* \"#utility.yul\":6078:6090   */\n      sub\n        /* \"#utility.yul\":6067:6075   */\n      dup5\n        /* \"#utility.yul\":6051:6065   */\n      calldatasize\n        /* \"#utility.yul\":6047:6076   */\n      sub\n        /* \"#utility.yul\":6043:6091   */\n      sub\n        /* \"#utility.yul\":6023:6041   */\n      dup2\n        /* \"#utility.yul\":6019:6092   */\n      slt\n        /* \"#utility.yul\":6009:6177   */\n      tag_137\n      jumpi\n        /* \"#utility.yul\":6096:6175   */\n      tag_138\n      tag_72\n      jump\t// in\n    tag_138:\n        /* \"#utility.yul\":6009:6177   */\n    tag_137:\n        /* \"#utility.yul\":6208:6226   */\n      dup1\n        /* \"#utility.yul\":6198:6206   */\n      dup5\n        /* \"#utility.yul\":6194:6227   */\n      add\n        /* \"#utility.yul\":6186:6227   */\n      swap3\n      pop\n        /* \"#utility.yul\":6260:6264   */\n      dup3\n        /* \"#utility.yul\":6247:6265   */\n      calldataload\n        /* \"#utility.yul\":6237:6265   */\n      swap2\n      pop\n        /* \"#utility.yul\":6288:6306   */\n      0xffffffffffffffff\n        /* \"#utility.yul\":6280:6286   */\n      dup3\n        /* \"#utility.yul\":6277:6307   */\n      gt\n        /* \"#utility.yul\":6274:6391   */\n      iszero\n      tag_139\n      jumpi\n        /* \"#utility.yul\":6310:6389   */\n      tag_140\n      tag_73\n      jump\t// in\n    tag_140:\n        /* \"#utility.yul\":6274:6391   */\n    tag_139:\n        /* \"#utility.yul\":6418:6420   */\n      0x20\n        /* \"#utility.yul\":6412:6416   */\n      dup4\n        /* \"#utility.yul\":6408:6421   */\n      add\n        /* \"#utility.yul\":6400:6421   */\n      swap3\n      pop\n        /* \"#utility.yul\":6475:6479   */\n      0x01\n        /* \"#utility.yul\":6467:6473   */\n      dup3\n        /* \"#utility.yul\":6463:6480   */\n      mul\n        /* \"#utility.yul\":6447:6461   */\n      calldatasize\n        /* \"#utility.yul\":6443:6481   */\n      sub\n        /* \"#utility.yul\":6437:6441   */\n      dup4\n        /* \"#utility.yul\":6433:6482   */\n      sgt\n        /* \"#utility.yul\":6430:6566   */\n      iszero\n      tag_141\n      jumpi\n        /* \"#utility.yul\":6485:6564   */\n      tag_142\n      tag_74\n      jump\t// in\n    tag_142:\n        /* \"#utility.yul\":6430:6566   */\n    tag_141:\n        /* \"#utility.yul\":5939:6573   */\n      pop\n        /* \"#utility.yul\":5849:6573   */\n      swap3\n      pop\n      swap3\n      swap1\n      pop\n      jump\t// out\n        /* \"#utility.yul\":6579:6748   */\n    tag_75:\n        /* \"#utility.yul\":6663:6674   */\n      0x00\n        /* \"#utility.yul\":6697:6703   */\n      dup3\n        /* \"#utility.yul\":6692:6695   */\n      dup3\n        /* \"#utility.yul\":6685:6704   */\n      mstore\n        /* \"#utility.yul\":6737:6741   */\n      0x20\n        /* \"#utility.yul\":6732:6735   */\n      dup3\n        /* \"#utility.yul\":6728:6742   */\n      add\n        /* \"#utility.yul\":6713:6742   */\n      swap1\n      pop\n        /* \"#utility.yul\":6579:6748   */\n      swap3\n      swap2\n      pop\n      pop\n      jump\t// out\n        /* \"#utility.yul\":6754:6934   */\n    tag_76:\n        /* \"#utility.yul\":6894:6926   */\n      0x416464726573733a20696e76616c69642064656c65676174652063616c6c0000\n        /* \"#utility.yul\":6890:6891   */\n      0x00\n        /* \"#utility.yul\":6882:6888   */\n      dup3\n        /* \"#utility.yul\":6878:6892   */\n      add\n        /* \"#utility.yul\":6871:6927   */\n      mstore\n        /* \"#utility.yul\":6754:6934   */\n      pop\n      jump\t// out\n        /* \"#utility.yul\":6940:7306   */\n    tag_77:\n        /* \"#utility.yul\":7082:7085   */\n      0x00\n        /* \"#utility.yul\":7103:7170   */\n      tag_146\n        /* \"#utility.yul\":7167:7169   */\n      0x1e\n        /* \"#utility.yul\":7162:7165   */\n      dup4\n        /* \"#utility.yul\":7103:7170   */\n      tag_75\n      jump\t// in\n    tag_146:\n        /* \"#utility.yul\":7096:7170   */\n      swap2\n      pop\n        /* \"#utility.yul\":7179:7272   */\n      tag_147\n        /* \"#utility.yul\":7268:7271   */\n      dup3\n        /* \"#utility.yul\":7179:7272   */\n      tag_76\n      jump\t// in\n    tag_147:\n        /* \"#utility.yul\":7297:7299   */\n      0x20\n        /* \"#utility.yul\":7292:7295   */\n      dup3\n        /* \"#utility.yul\":7288:7300   */\n      add\n        /* \"#utility.yul\":7281:7300   */\n      swap1\n      pop\n        /* \"#utility.yul\":6940:7306   */\n      swap2\n      swap1\n      pop\n      jump\t// out\n        /* \"#utility.yul\":7312:7731   */\n    tag_38:\n        /* \"#utility.yul\":7478:7482   */\n      0x00\n        /* \"#utility.yul\":7516:7518   */\n      0x20\n        /* \"#utility.yul\":7505:7514   */\n      dup3\n        /* \"#utility.yul\":7501:7519   */\n      add\n        /* \"#utility.yul\":7493:7519   */\n      swap1\n      pop\n        /* \"#utility.yul\":7565:7574   */\n      dup2\n        /* \"#utility.yul\":7559:7563   */\n      dup2\n        /* \"#utility.yul\":7555:7575   */\n      sub\n        /* \"#utility.yul\":7551:7552   */\n      0x00\n        /* \"#utility.yul\":7540:7549   */\n      dup4\n        /* \"#utility.yul\":7536:7553   */\n      add\n        /* \"#utility.yul\":7529:7576   */\n      mstore\n        /* \"#utility.yul\":7593:7724   */\n      tag_149\n        /* \"#utility.yul\":7719:7723   */\n      dup2\n        /* \"#utility.yul\":7593:7724   */\n      tag_77\n      jump\t// in\n    tag_149:\n        /* \"#utility.yul\":7585:7724   */\n      swap1\n      pop\n        /* \"#utility.yul\":7312:7731   */\n      swap2\n      swap1\n      pop\n      jump\t// out\n        /* \"#utility.yul\":7737:7884   */\n    tag_78:\n        /* \"#utility.yul\":7838:7849   */\n      0x00\n        /* \"#utility.yul\":7875:7878   */\n      dup2\n        /* \"#utility.yul\":7860:7878   */\n      swap1\n      pop\n        /* \"#utility.yul\":7737:7884   */\n      swap3\n      swap2\n      pop\n      pop\n      jump\t// out\n        /* \"#utility.yul\":7890:8276   */\n    tag_79:\n        /* \"#utility.yul\":7994:7997   */\n      0x00\n        /* \"#utility.yul\":8022:8060   */\n      tag_152\n        /* \"#utility.yul\":8054:8059   */\n      dup3\n        /* \"#utility.yul\":8022:8060   */\n      tag_64\n      jump\t// in\n    tag_152:\n        /* \"#utility.yul\":8076:8164   */\n      tag_153\n        /* \"#utility.yul\":8157:8163   */\n      dup2\n        /* \"#utility.yul\":8152:8155   */\n      dup6\n        /* \"#utility.yul\":8076:8164   */\n      tag_78\n      jump\t// in\n    tag_153:\n        /* \"#utility.yul\":8069:8164   */\n      swap4\n      pop\n        /* \"#utility.yul\":8173:8238   */\n      tag_154\n        /* \"#utility.yul\":8231:8237   */\n      dup2\n        /* \"#utility.yul\":8226:8229   */\n      dup6\n        /* \"#utility.yul\":8219:8223   */\n      0x20\n        /* \"#utility.yul\":8212:8217   */\n      dup7\n        /* \"#utility.yul\":8208:8224   */\n      add\n        /* \"#utility.yul\":8173:8238   */\n      tag_66\n      jump\t// in\n    tag_154:\n        /* \"#utility.yul\":8263:8269   */\n      dup1\n        /* \"#utility.yul\":8258:8261   */\n      dup5\n        /* \"#utility.yul\":8254:8270   */\n      add\n        /* \"#utility.yul\":8247:8270   */\n      swap2\n      pop\n        /* \"#utility.yul\":7998:8276   */\n      pop\n        /* \"#utility.yul\":7890:8276   */\n      swap3\n      swap2\n      pop\n      pop\n      jump\t// out\n        /* \"#utility.yul\":8282:8553   */\n    tag_40:\n        /* \"#utility.yul\":8412:8415   */\n      0x00\n        /* \"#utility.yul\":8434:8527   */\n      tag_156\n        /* \"#utility.yul\":8523:8526   */\n      dup3\n        /* \"#utility.yul\":8514:8520   */\n      dup5\n        /* \"#utility.yul\":8434:8527   */\n      tag_79\n      jump\t// in\n    tag_156:\n        /* \"#utility.yul\":8427:8527   */\n      swap2\n      pop\n        /* \"#utility.yul\":8544:8547   */\n      dup2\n        /* \"#utility.yul\":8537:8547   */\n      swap1\n      pop\n        /* \"#utility.yul\":8282:8553   */\n      swap3\n      swap2\n      pop\n      pop\n      jump\t// out\n        /* \"#utility.yul\":8559:8658   */\n    tag_80:\n        /* \"#utility.yul\":8611:8617   */\n      0x00\n        /* \"#utility.yul\":8645:8650   */\n      dup2\n        /* \"#utility.yul\":8639:8651   */\n      mload\n        /* \"#utility.yul\":8629:8651   */\n      swap1\n      pop\n        /* \"#utility.yul\":8559:8658   */\n      swap2\n      swap1\n      pop\n      jump\t// out\n        /* \"#utility.yul\":8664:9041   */\n    tag_81:\n        /* \"#utility.yul\":8752:8755   */\n      0x00\n        /* \"#utility.yul\":8780:8819   */\n      tag_159\n        /* \"#utility.yul\":8813:8818   */\n      dup3\n        /* \"#utility.yul\":8780:8819   */\n      tag_80\n      jump\t// in\n    tag_159:\n        /* \"#utility.yul\":8835:8906   */\n      tag_160\n        /* \"#utility.yul\":8899:8905   */\n      dup2\n        /* \"#utility.yul\":8894:8897   */\n      dup6\n        /* \"#utility.yul\":8835:8906   */\n      tag_75\n      jump\t// in\n    tag_160:\n        /* \"#utility.yul\":8828:8906   */\n      swap4\n      pop\n        /* \"#utility.yul\":8915:8980   */\n      tag_161\n        /* \"#utility.yul\":8973:8979   */\n      dup2\n        /* \"#utility.yul\":8968:8971   */\n      dup6\n        /* \"#utility.yul\":8961:8965   */\n      0x20\n        /* \"#utility.yul\":8954:8959   */\n      dup7\n        /* \"#utility.yul\":8950:8966   */\n      add\n        /* \"#utility.yul\":8915:8980   */\n      tag_66\n      jump\t// in\n    tag_161:\n        /* \"#utility.yul\":9005:9034   */\n      tag_162\n        /* \"#utility.yul\":9027:9033   */\n      dup2\n        /* \"#utility.yul\":9005:9034   */\n      tag_67\n      jump\t// in\n    tag_162:\n        /* \"#utility.yul\":9000:9003   */\n      dup5\n        /* \"#utility.yul\":8996:9035   */\n      add\n        /* \"#utility.yul\":8989:9035   */\n      swap2\n      pop\n        /* \"#utility.yul\":8756:9041   */\n      pop\n        /* \"#utility.yul\":8664:9041   */\n      swap3\n      swap2\n      pop\n      pop\n      jump\t// out\n        /* \"#utility.yul\":9047:9360   */\n    tag_53:\n        /* \"#utility.yul\":9160:9164   */\n      0x00\n        /* \"#utility.yul\":9198:9200   */\n      0x20\n        /* \"#utility.yul\":9187:9196   */\n      dup3\n        /* \"#utility.yul\":9183:9201   */\n      add\n        /* \"#utility.yul\":9175:9201   */\n      swap1\n      pop\n        /* \"#utility.yul\":9247:9256   */\n      dup2\n        /* \"#utility.yul\":9241:9245   */\n      dup2\n        /* \"#utility.yul\":9237:9257   */\n      sub\n        /* \"#utility.yul\":9233:9234   */\n      0x00\n        /* \"#utility.yul\":9222:9231   */\n      dup4\n        /* \"#utility.yul\":9218:9235   */\n      add\n        /* \"#utility.yul\":9211:9258   */\n      mstore\n        /* \"#utility.yul\":9275:9353   */\n      tag_164\n        /* \"#utility.yul\":9348:9352   */\n      dup2\n        /* \"#utility.yul\":9339:9345   */\n      dup5\n        /* \"#utility.yul\":9275:9353   */\n      tag_81\n      jump\t// in\n    tag_164:\n        /* \"#utility.yul\":9267:9353   */\n      swap1\n      pop\n        /* \"#utility.yul\":9047:9360   */\n      swap3\n      swap2\n      pop\n      pop\n      jump\t// out\n    stop\n    data_9fdcd12e4b726339b32a442b0a448365d5d85c96b2d2cff917b4f66c63110398 416464726573733a206c6f772d6c6576656c2064656c65676174652063616c6c206661696c6564\n\n    auxdata: 0xa2646970667358221220fc58656c3e5adf9fd2527231a8dbd00e570facc4bc8c35cfdd1b5d4b4880b93064736f6c63430008180033\n}\n",
				"bytecode": {
					"linkReferences": {},
					"object": "608060405234801561000f575f80fd5b506107598061001d5f395ff3fe608060405234801561000f575f80fd5b5060043610610029575f3560e01c8063ac9650d81461002d575b5f80fd5b6100476004803603810190610042919061035a565b61005d565b60405161005491906104ea565b60405180910390f35b60608282905067ffffffffffffffff81111561007c5761007b61050a565b5b6040519080825280602002602001820160405280156100af57816020015b606081526020019060019003908161009a5790505b5090505f5b8383905081101561015a5761012f308585848181106100d6576100d5610537565b5b90506020028101906100e89190610570565b8080601f0160208091040260200160405190810160405280939291908181526020018383808284375f81840152601f19601f82011690508083019250505050505050610161565b82828151811061014257610141610537565b5b602002602001018190525080806001019150506100b4565b5092915050565b606061018683836040518060600160405280602781526020016106fd6027913961018e565b905092915050565b606061019984610269565b80156101ab57506101a933610269565b155b6101ea576040517f08c379a00000000000000000000000000000000000000000000000000000000081526004016101e19061062c565b60405180910390fd5b5f808573ffffffffffffffffffffffffffffffffffffffff16856040516102119190610684565b5f60405180830381855af49150503d805f8114610249576040519150601f19603f3d011682016040523d82523d5f602084013e61024e565b606091505b509150915061025e82828661028b565b925050509392505050565b5f808273ffffffffffffffffffffffffffffffffffffffff163b119050919050565b6060831561029b578290506102ea565b5f835111156102ad5782518084602001fd5b816040517f08c379a00000000000000000000000000000000000000000000000000000000081526004016102e191906106dc565b60405180910390fd5b9392505050565b5f80fd5b5f80fd5b5f80fd5b5f80fd5b5f80fd5b5f8083601f84011261031a576103196102f9565b5b8235905067ffffffffffffffff811115610337576103366102fd565b5b60208301915083602082028301111561035357610352610301565b5b9250929050565b5f80602083850312156103705761036f6102f1565b5b5f83013567ffffffffffffffff81111561038d5761038c6102f5565b5b61039985828601610305565b92509250509250929050565b5f81519050919050565b5f82825260208201905092915050565b5f819050602082019050919050565b5f81519050919050565b5f82825260208201905092915050565b5f5b838110156104055780820151818401526020810190506103ea565b5f8484015250505050565b5f601f19601f8301169050919050565b5f61042a826103ce565b61043481856103d8565b93506104448185602086016103e8565b61044d81610410565b840191505092915050565b5f6104638383610420565b905092915050565b5f602082019050919050565b5f610481826103a5565b61048b81856103af565b93508360208202850161049d856103bf565b805f5b858110156104d857848403895281516104b98582610458565b94506104c48361046b565b925060208a019950506001810190506104a0565b50829750879550505050505092915050565b5f6020820190508181035f8301526105028184610477565b905092915050565b7f4e487b71000000000000000000000000000000000000000000000000000000005f52604160045260245ffd5b7f4e487b71000000000000000000000000000000000000000000000000000000005f52603260045260245ffd5b5f80fd5b5f80fd5b5f80fd5b5f808335600160200384360303811261058c5761058b610564565b5b80840192508235915067ffffffffffffffff8211156105ae576105ad610568565b5b6020830192506001820236038313156105ca576105c961056c565b5b509250929050565b5f82825260208201905092915050565b7f416464726573733a20696e76616c69642064656c65676174652063616c6c00005f82015250565b5f610616601e836105d2565b9150610621826105e2565b602082019050919050565b5f6020820190508181035f8301526106438161060a565b9050919050565b5f81905092915050565b5f61065e826103ce565b610668818561064a565b93506106788185602086016103e8565b80840191505092915050565b5f61068f8284610654565b915081905092915050565b5f81519050919050565b5f6106ae8261069a565b6106b881856105d2565b93506106c88185602086016103e8565b6106d181610410565b840191505092915050565b5f6020820190508181035f8301526106f481846106a4565b90509291505056fe416464726573733a206c6f772d6c6576656c2064656c65676174652063616c6c206661696c6564a2646970667358221220fc58656c3e5adf9fd2527231a8dbd00e570facc4bc8c35cfdd1b5d4b4880b93064736f6c63430008180033",
					"opcodes": "PUSH1 0x80 PUSH1 0x40 MSTORE CALLVALUE DUP1 ISZERO PUSH2 0xF JUMPI PUSH0 DUP1 REVERT JUMPDEST POP PUSH2 0x759 DUP1 PUSH2 0x1D PUSH0 CODECOPY PUSH0 RETURN INVALID PUSH1 0x80 PUSH1 0x40 MSTORE CALLVALUE DUP1 ISZERO PUSH2 0xF JUMPI PUSH0 DUP1 REVERT JUMPDEST POP PUSH1 0x4 CALLDATASIZE LT PUSH2 0x29 JUMPI PUSH0 CALLDATALOAD PUSH1 0xE0 SHR DUP1 PUSH4 0xAC9650D8 EQ PUSH2 0x2D JUMPI JUMPDEST PUSH0 DUP1 REVERT JUMPDEST PUSH2 0x47 PUSH1 0x4 DUP1 CALLDATASIZE SUB DUP2 ADD SWAP1 PUSH2 0x42 SWAP2 SWAP1 PUSH2 0x35A JUMP JUMPDEST PUSH2 0x5D JUMP JUMPDEST PUSH1 0x40 MLOAD PUSH2 0x54 SWAP2 SWAP1 PUSH2 0x4EA JUMP JUMPDEST PUSH1 0x40 MLOAD DUP1 SWAP2 SUB SWAP1 RETURN JUMPDEST PUSH1 0x60 DUP3 DUP3 SWAP1 POP PUSH8 0xFFFFFFFFFFFFFFFF DUP2 GT ISZERO PUSH2 0x7C JUMPI PUSH2 0x7B PUSH2 0x50A JUMP JUMPDEST JUMPDEST PUSH1 0x40 MLOAD SWAP1 DUP1 DUP3 MSTORE DUP1 PUSH1 0x20 MUL PUSH1 0x20 ADD DUP3 ADD PUSH1 0x40 MSTORE DUP1 ISZERO PUSH2 0xAF JUMPI DUP2 PUSH1 0x20 ADD JUMPDEST PUSH1 0x60 DUP2 MSTORE PUSH1 0x20 ADD SWAP1 PUSH1 0x1 SWAP1 SUB SWAP1 DUP2 PUSH2 0x9A JUMPI SWAP1 POP JUMPDEST POP SWAP1 POP PUSH0 JUMPDEST DUP4 DUP4 SWAP1 POP DUP2 LT ISZERO PUSH2 0x15A JUMPI PUSH2 0x12F ADDRESS DUP6 DUP6 DUP5 DUP2 DUP2 LT PUSH2 0xD6 JUMPI PUSH2 0xD5 PUSH2 0x537 JUMP JUMPDEST JUMPDEST SWAP1 POP PUSH1 0x20 MUL DUP2 ADD SWAP1 PUSH2 0xE8 SWAP2 SWAP1 PUSH2 0x570 JUMP JUMPDEST DUP1 DUP1 PUSH1 0x1F ADD PUSH1 0x20 DUP1 SWAP2 DIV MUL PUSH1 0x20 ADD PUSH1 0x40 MLOAD SWAP1 DUP2 ADD PUSH1 0x40 MSTORE DUP1 SWAP4 SWAP3 SWAP2 SWAP1 DUP2 DUP2 MSTORE PUSH1 0x20 ADD DUP4 DUP4 DUP1 DUP3 DUP5 CALLDATACOPY PUSH0 DUP2 DUP5 ADD MSTORE PUSH1 0x1F NOT PUSH1 0x1F DUP3 ADD AND SWAP1 POP DUP1 DUP4 ADD SWAP3 POP POP POP POP POP POP POP PUSH2 0x161 JUMP JUMPDEST DUP3 DUP3 DUP2 MLOAD DUP2 LT PUSH2 0x142 JUMPI PUSH2 0x141 PUSH2 0x537 JUMP JUMPDEST JUMPDEST PUSH1 0x20 MUL PUSH1 0x20 ADD ADD DUP2 SWAP1 MSTORE POP DUP1 DUP1 PUSH1 0x1 ADD SWAP2 POP POP PUSH2 0xB4 JUMP JUMPDEST POP SWAP3 SWAP2 POP POP JUMP JUMPDEST PUSH1 0x60 PUSH2 0x186 DUP4 DUP4 PUSH1 0x40 MLOAD DUP1 PUSH1 0x60 ADD PUSH1 0x40 MSTORE DUP1 PUSH1 0x27 DUP2 MSTORE PUSH1 0x20 ADD PUSH2 0x6FD PUSH1 0x27 SWAP2 CODECOPY PUSH2 0x18E JUMP JUMPDEST SWAP1 POP SWAP3 SWAP2 POP POP JUMP JUMPDEST PUSH1 0x60 PUSH2 0x199 DUP5 PUSH2 0x269 JUMP JUMPDEST DUP1 ISZERO PUSH2 0x1AB JUMPI POP PUSH2 0x1A9 CALLER PUSH2 0x269 JUMP JUMPDEST ISZERO JUMPDEST PUSH2 0x1EA JUMPI PUSH1 0x40 MLOAD PUSH32 0x8C379A000000000000000000000000000000000000000000000000000000000 DUP2 MSTORE PUSH1 0x4 ADD PUSH2 0x1E1 SWAP1 PUSH2 0x62C JUMP JUMPDEST PUSH1 0x40 MLOAD DUP1 SWAP2 SUB SWAP1 REVERT JUMPDEST PUSH0 DUP1 DUP6 PUSH20 0xFFFFFFFFFFFFFFFFFFFFFFFFFFFFFFFFFFFFFFFF AND DUP6 PUSH1 0x40 MLOAD PUSH2 0x211 SWAP2 SWAP1 PUSH2 0x684 JUMP JUMPDEST PUSH0 PUSH1 0x40 MLOAD DUP1 DUP4 SUB DUP2 DUP6 GAS DELEGATECALL SWAP2 POP POP RETURNDATASIZE DUP1 PUSH0 DUP2 EQ PUSH2 0x249 JUMPI PUSH1 0x40 MLOAD SWAP2 POP PUSH1 0x1F NOT PUSH1 0x3F RETURNDATASIZE ADD AND DUP3 ADD PUSH1 0x40 MSTORE RETURNDATASIZE DUP3 MSTORE RETURNDATASIZE PUSH0 PUSH1 0x20 DUP5 ADD RETURNDATACOPY PUSH2 0x24E JUMP JUMPDEST PUSH1 0x60 SWAP2 POP JUMPDEST POP SWAP2 POP SWAP2 POP PUSH2 0x25E DUP3 DUP3 DUP7 PUSH2 0x28B JUMP JUMPDEST SWAP3 POP POP POP SWAP4 SWAP3 POP POP POP JUMP JUMPDEST PUSH0 DUP1 DUP3 PUSH20 0xFFFFFFFFFFFFFFFFFFFFFFFFFFFFFFFFFFFFFFFF AND EXTCODESIZE GT SWAP1 POP SWAP2 SWAP1 POP JUMP JUMPDEST PUSH1 0x60 DUP4 ISZERO PUSH2 0x29B JUMPI DUP3 SWAP1 POP PUSH2 0x2EA JUMP JUMPDEST PUSH0 DUP4 MLOAD GT ISZERO PUSH2 0x2AD JUMPI DUP3 MLOAD DUP1 DUP5 PUSH1 0x20 ADD REVERT JUMPDEST DUP2 PUSH1 0x40 MLOAD PUSH32 0x8C379A000000000000000000000000000000000000000000000000000000000 DUP2 MSTORE PUSH1 0x4 ADD PUSH2 0x2E1 SWAP2 SWAP1 PUSH2 0x6DC JUMP JUMPDEST PUSH1 0x40 MLOAD DUP1 SWAP2 SUB SWAP1 REVERT JUMPDEST SWAP4 SWAP3 POP POP POP JUMP JUMPDEST PUSH0 DUP1 REVERT JUMPDEST PUSH0 DUP1 REVERT JUMPDEST PUSH0 DUP1 REVERT JUMPDEST PUSH0 DUP1 REVERT JUMPDEST PUSH0 DUP1 REVERT JUMPDEST PUSH0 DUP1 DUP4 PUSH1 0x1F DUP5 ADD SLT PUSH2 0x31A JUMPI PUSH2 0x319 PUSH2 0x2F9 JUMP JUMPDEST JUMPDEST DUP3 CALLDATALOAD SWAP1 POP PUSH8 0xFFFFFFFFFFFFFFFF DUP2 GT ISZERO PUSH2 0x337 JUMPI PUSH2 0x336 PUSH2 0x2FD JUMP JUMPDEST JUMPDEST PUSH1 0x20 DUP4 ADD SWAP2 POP DUP4 PUSH1 0x20 DUP3 MUL DUP4 ADD GT ISZERO PUSH2 0x353 JUMPI PUSH2 0x352 PUSH2 0x301 JUMP JUMPDEST JUMPDEST SWAP3 POP SWAP3 SWAP1 POP JUMP JUMPDEST PUSH0 DUP1 PUSH1 0x20 DUP4 DUP6 SUB SLT ISZERO PUSH2 0x370 JUMPI PUSH2 0x36F PUSH2 0x2F1 JUMP JUMPDEST JUMPDEST PUSH0 DUP4 ADD CALLDATALOAD PUSH8 0xFFFFFFFFFFFFFFFF DUP2 GT ISZERO PUSH2 0x38D JUMPI PUSH2 0x38C PUSH2 0x2F5 JUMP JUMPDEST JUMPDEST PUSH2 0x399 DUP6 DUP3 DUP7 ADD PUSH2 0x305 JUMP JUMPDEST SWAP3 POP SWAP3 POP POP SWAP3 POP SWAP3 SWAP1 POP JUMP JUMPDEST PUSH0 DUP2 MLOAD SWAP1 POP SWAP2 SWAP1 POP JUMP JUMPDEST PUSH0 DUP3 DUP3 MSTORE PUSH1 0x20 DUP3 ADD SWAP1 POP SWAP3 SWAP2 POP POP JUMP JUMPDEST PUSH0 DUP2 SWAP1 POP PUSH1 0x20 DUP3 ADD SWAP1 POP SWAP2 SWAP1 POP JUMP JUMPDEST PUSH0 DUP2 MLOAD SWAP1 POP SWAP2 SWAP1 POP JUMP JUMPDEST PUSH0 DUP3 DUP3 MSTORE PUSH1 0x20 DUP3 ADD SWAP1 POP SWAP3 SWAP2 POP POP JUMP JUMPDEST PUSH0 JUMPDEST DUP4 DUP2 LT ISZERO PUSH2 0x405 JUMPI DUP1 DUP3 ADD MLOAD DUP2 DUP5 ADD MSTORE PUSH1 0x20 DUP2 ADD SWAP1 POP PUSH2 0x3EA JUMP JUMPDEST PUSH0 DUP5 DUP5 ADD MSTORE POP POP POP POP JUMP JUMPDEST PUSH0 PUSH1 0x1F NOT PUSH1 0x1F DUP4 ADD AND SWAP1 POP SWAP2 SWAP1 POP JUMP JUMPDEST PUSH0 PUSH2 0x42A DUP3 PUSH2 0x3CE JUMP JUMPDEST PUSH2 0x434 DUP2 DUP6 PUSH2 0x3D8 JUMP JUMPDEST SWAP4 POP PUSH2 0x444 DUP2 DUP6 PUSH1 0x20 DUP7 ADD PUSH2 0x3E8 JUMP JUMPDEST PUSH2 0x44D DUP2 PUSH2 0x410 JUMP JUMPDEST DUP5 ADD SWAP2 POP POP SWAP3 SWAP2 POP POP JUMP JUMPDEST PUSH0 PUSH2 0x463 DUP4 DUP4 PUSH2 0x420 JUMP JUMPDEST SWAP1 POP SWAP3 SWAP2 POP POP JUMP JUMPDEST PUSH0 PUSH1 0x20 DUP3 ADD SWAP1 POP SWAP2 SWAP1 POP JUMP JUMPDEST PUSH0 PUSH2 0x481 DUP3 PUSH2 0x3A5 JUMP JUMPDEST PUSH2 0x48B DUP2 DUP6 PUSH2 0x3AF JUMP JUMPDEST SWAP4 POP DUP4 PUSH1 0x20 DUP3 MUL DUP6 ADD PUSH2 0x49D DUP6 PUSH2 0x3BF JUMP JUMPDEST DUP1 PUSH0 JUMPDEST DUP6 DUP2 LT ISZERO PUSH2 0x4D8 JUMPI DUP5 DUP5 SUB DUP10 MSTORE DUP2 MLOAD PUSH2 0x4B9 DUP6 DUP3 PUSH2 0x458 JUMP JUMPDEST SWAP5 POP PUSH2 0x4C4 DUP4 PUSH2 0x46B JUMP JUMPDEST SWAP3 POP PUSH1 0x20 DUP11 ADD SWAP10 POP POP PUSH1 0x1 DUP2 ADD SWAP1 POP PUSH2 0x4A0 JUMP JUMPDEST POP DUP3 SWAP8 POP DUP8 SWAP6 POP POP POP POP POP POP SWAP3 SWAP2 POP POP JUMP JUMPDEST PUSH0 PUSH1 0x20 DUP3 ADD SWAP1 POP DUP2 DUP2 SUB PUSH0 DUP4 ADD MSTORE PUSH2 0x502 DUP2 DUP5 PUSH2 0x477 JUMP JUMPDEST SWAP1 POP SWAP3 SWAP2 POP POP JUMP JUMPDEST PUSH32 0x4E487B7100000000000000000000000000000000000000000000000000000000 PUSH0 MSTORE PUSH1 0x41 PUSH1 0x4 MSTORE PUSH1 0x24 PUSH0 REVERT JUMPDEST PUSH32 0x4E487B7100000000000000000000000000000000000000000000000000000000 PUSH0 MSTORE PUSH1 0x32 PUSH1 0x4 MSTORE PUSH1 0x24 PUSH0 REVERT JUMPDEST PUSH0 DUP1 REVERT JUMPDEST PUSH0 DUP1 REVERT JUMPDEST PUSH0 DUP1 REVERT JUMPDEST PUSH0 DUP1 DUP4 CALLDATALOAD PUSH1 0x1 PUSH1 0x20 SUB DUP5 CALLDATASIZE SUB SUB DUP2 SLT PUSH2 0x58C JUMPI PUSH2 0x58B PUSH2 0x564 JUMP JUMPDEST JUMPDEST DUP1 DUP5 ADD SWAP3 POP DUP3 CALLDATALOAD SWAP2 POP PUSH8 0xFFFFFFFFFFFFFFFF DUP3 GT ISZERO PUSH2 0x5AE JUMPI PUSH2 0x5AD PUSH2 0x568 JUMP JUMPDEST JUMPDEST PUSH1 0x20 DUP4 ADD SWAP3 POP PUSH1 0x1 DUP3 MUL CALLDATASIZE SUB DUP4 SGT ISZERO PUSH2 0x5CA JUMPI PUSH2 0x5C9 PUSH2 0x56C JUMP JUMPDEST JUMPDEST POP SWAP3 POP SWAP3 SWAP1 POP JUMP JUMPDEST PUSH0 DUP3 DUP3 MSTORE PUSH1 0x20 DUP3 ADD SWAP1 POP SWAP3 SWAP2 POP POP JUMP JUMPDEST PUSH32 0x416464726573733A20696E76616C69642064656C65676174652063616C6C0000 PUSH0 DUP3 ADD MSTORE POP JUMP JUMPDEST PUSH0 PUSH2 0x616 PUSH1 0x1E DUP4 PUSH2 0x5D2 JUMP JUMPDEST SWAP2 POP PUSH2 0x621 DUP3 PUSH2 0x5E2 JUMP JUMPDEST PUSH1 0x20 DUP3 ADD SWAP1 POP SWAP2 SWAP1 POP JUMP JUMPDEST PUSH0 PUSH1 0x20 DUP3 ADD SWAP1 POP DUP2 DUP2 SUB PUSH0 DUP4 ADD MSTORE PUSH2 0x643 DUP2 PUSH2 0x60A JUMP JUMPDEST SWAP1 POP SWAP2 SWAP1 POP JUMP JUMPDEST PUSH0 DUP2 SWAP1 POP SWAP3 SWAP2 POP POP JUMP JUMPDEST PUSH0 PUSH2 0x65E DUP3 PUSH2 0x3CE JUMP JUMPDEST PUSH2 0x668 DUP2 DUP6 PUSH2 0x64A JUMP JUMPDEST SWAP4 POP PUSH2 0x678 DUP2 DUP6 PUSH1 0x20 DUP7 ADD PUSH2 0x3E8 JUMP JUMPDEST DUP1 DUP5 ADD SWAP2 POP POP SWAP3 SWAP2 POP POP JUMP JUMPDEST PUSH0 PUSH2 0x68F DUP3 DUP5 PUSH2 0x654 JUMP JUMPDEST SWAP2 POP DUP2 SWAP1 POP SWAP3 SWAP2 POP POP JUMP JUMPDEST PUSH0 DUP2 MLOAD SWAP1 POP SWAP2 SWAP1 POP JUMP JUMPDEST PUSH0 PUSH2 0x6AE DUP3 PUSH2 0x69A JUMP JUMPDEST PUSH2 0x6B8 DUP2 DUP6 PUSH2 0x5D2 JUMP JUMPDEST SWAP4 POP PUSH2 0x6C8 DUP2 DUP6 PUSH1 0x20 DUP7 ADD PUSH2 0x3E8 JUMP JUMPDEST PUSH2 0x6D1 DUP2 PUSH2 0x410 JUMP JUMPDEST DUP5 ADD SWAP2 POP POP SWAP3 SWAP2 POP POP JUMP JUMPDEST PUSH0 PUSH1 0x20 DUP3 ADD SWAP1 POP DUP2 DUP2 SUB PUSH0 DUP4 ADD MSTORE PUSH2 0x6F4 DUP2 DUP5 PUSH2 0x6A4 JUMP JUMPDEST SWAP1 POP SWAP3 SWAP2 POP POP JUMP INVALID COINBASE PUSH5 0x6472657373 GASPRICE KECCAK256 PUSH13 0x6F772D6C6576656C2064656C65 PUSH8 0x6174652063616C6C KECCAK256 PUSH7 0x61696C6564A264 PUSH10 0x70667358221220FC5865 PUSH13 0x3E5ADF9FD2527231A8DBD00E57 0xF 0xAC 0xC4 0xBC DUP13 CALLDATALOAD 0xCF 0xDD SHL TSTORE 0x4B BASEFEE DUP1 0xB9 ADDRESS PUSH5 0x736F6C6343 STOP ADDMOD XOR STOP CALLER "
				},
				"gasEstimates": {
					"creation": {
						"codeDepositCost": "376200",
						"executionCost": "409",
						"totalCost": "376609"
					},
					"external": {
						"multicall(bytes[])": "infinite"
					}
				},
				"methodIdentifiers": {
					"multicall(bytes[])": "ac9650d8"
				}
			},
			"storageLayout": {
				"storage": [],
				"types": null
			},
			"userdoc": {
				"kind": "user",
				"methods": {
					"multicall(bytes[])": {
						"notice": "Receives and executes a batch of function calls on this contract."
					}
				},
				"version": 1
			}
		}
	}
}